{
  "address": "0xca4Cd127788c72BB9638EF6Fd05991940E56BaaF",
  "abi": [
    {
      "inputs": [],
      "stateMutability": "nonpayable",
      "type": "constructor"
    },
    {
      "inputs": [
        {
          "internalType": "address",
          "name": "spender",
          "type": "address"
        },
        {
          "internalType": "uint256",
          "name": "allowance",
          "type": "uint256"
        },
        {
          "internalType": "uint256",
          "name": "needed",
          "type": "uint256"
        }
      ],
      "name": "ERC20InsufficientAllowance",
      "type": "error"
    },
    {
      "inputs": [
        {
          "internalType": "address",
          "name": "sender",
          "type": "address"
        },
        {
          "internalType": "uint256",
          "name": "balance",
          "type": "uint256"
        },
        {
          "internalType": "uint256",
          "name": "needed",
          "type": "uint256"
        }
      ],
      "name": "ERC20InsufficientBalance",
      "type": "error"
    },
    {
      "inputs": [
        {
          "internalType": "address",
          "name": "approver",
          "type": "address"
        }
      ],
      "name": "ERC20InvalidApprover",
      "type": "error"
    },
    {
      "inputs": [
        {
          "internalType": "address",
          "name": "receiver",
          "type": "address"
        }
      ],
      "name": "ERC20InvalidReceiver",
      "type": "error"
    },
    {
      "inputs": [
        {
          "internalType": "address",
          "name": "sender",
          "type": "address"
        }
      ],
      "name": "ERC20InvalidSender",
      "type": "error"
    },
    {
      "inputs": [
        {
          "internalType": "address",
          "name": "spender",
          "type": "address"
        }
      ],
      "name": "ERC20InvalidSpender",
      "type": "error"
    },
    {
      "inputs": [],
      "name": "InvalidInitialization",
      "type": "error"
    },
    {
      "inputs": [],
      "name": "NotInitializing",
      "type": "error"
    },
    {
      "inputs": [],
      "name": "ReentrancyGuardReentrantCall",
      "type": "error"
    },
    {
      "anonymous": false,
      "inputs": [
        {
          "indexed": true,
          "internalType": "address",
          "name": "owner",
          "type": "address"
        },
        {
          "indexed": true,
          "internalType": "address",
          "name": "spender",
          "type": "address"
        },
        {
          "indexed": false,
          "internalType": "uint256",
          "name": "value",
          "type": "uint256"
        }
      ],
      "name": "Approval",
      "type": "event"
    },
    {
      "anonymous": false,
      "inputs": [
        {
          "indexed": false,
          "internalType": "uint64",
          "name": "version",
          "type": "uint64"
        }
      ],
      "name": "Initialized",
      "type": "event"
    },
    {
      "anonymous": false,
      "inputs": [
        {
          "indexed": true,
          "internalType": "address",
          "name": "from",
          "type": "address"
        },
        {
          "indexed": true,
          "internalType": "address",
          "name": "to",
          "type": "address"
        },
        {
          "indexed": false,
          "internalType": "uint256",
          "name": "value",
          "type": "uint256"
        }
      ],
      "name": "Transfer",
      "type": "event"
    },
    {
      "inputs": [
        {
          "internalType": "address",
          "name": "owner",
          "type": "address"
        },
        {
          "internalType": "address",
          "name": "spender",
          "type": "address"
        }
      ],
      "name": "allowance",
      "outputs": [
        {
          "internalType": "uint256",
          "name": "",
          "type": "uint256"
        }
      ],
      "stateMutability": "view",
      "type": "function"
    },
    {
      "inputs": [
        {
          "internalType": "address",
          "name": "spender",
          "type": "address"
        },
        {
          "internalType": "uint256",
          "name": "value",
          "type": "uint256"
        }
      ],
      "name": "approve",
      "outputs": [
        {
          "internalType": "bool",
          "name": "",
          "type": "bool"
        }
      ],
      "stateMutability": "nonpayable",
      "type": "function"
    },
    {
      "inputs": [
        {
          "internalType": "address",
          "name": "account",
          "type": "address"
        }
      ],
      "name": "balanceOf",
      "outputs": [
        {
          "internalType": "uint256",
          "name": "",
          "type": "uint256"
        }
      ],
      "stateMutability": "view",
      "type": "function"
    },
    {
      "inputs": [],
      "name": "decimals",
      "outputs": [
        {
          "internalType": "uint8",
          "name": "",
          "type": "uint8"
        }
      ],
      "stateMutability": "view",
      "type": "function"
    },
    {
      "inputs": [
        {
          "internalType": "uint256",
          "name": "amount_",
          "type": "uint256"
        }
      ],
      "name": "deposit",
      "outputs": [],
      "stateMutability": "nonpayable",
      "type": "function"
    },
    {
      "inputs": [
        {
          "internalType": "string",
          "name": "name_",
          "type": "string"
        },
        {
          "internalType": "string",
          "name": "symbol_",
          "type": "string"
        },
        {
          "internalType": "address",
          "name": "underlyingAsset_",
          "type": "address"
        }
      ],
      "name": "initialize",
      "outputs": [],
      "stateMutability": "nonpayable",
      "type": "function"
    },
    {
      "inputs": [],
      "name": "name",
      "outputs": [
        {
          "internalType": "string",
          "name": "",
          "type": "string"
        }
      ],
      "stateMutability": "view",
      "type": "function"
    },
    {
      "inputs": [],
      "name": "symbol",
      "outputs": [
        {
          "internalType": "string",
          "name": "",
          "type": "string"
        }
      ],
      "stateMutability": "view",
      "type": "function"
    },
    {
      "inputs": [],
      "name": "totalSupply",
      "outputs": [
        {
          "internalType": "uint256",
          "name": "",
          "type": "uint256"
        }
      ],
      "stateMutability": "view",
      "type": "function"
    },
    {
      "inputs": [
        {
          "internalType": "address",
          "name": "to",
          "type": "address"
        },
        {
          "internalType": "uint256",
          "name": "value",
          "type": "uint256"
        }
      ],
      "name": "transfer",
      "outputs": [
        {
          "internalType": "bool",
          "name": "",
          "type": "bool"
        }
      ],
      "stateMutability": "nonpayable",
      "type": "function"
    },
    {
      "inputs": [
        {
          "internalType": "address",
          "name": "from",
          "type": "address"
        },
        {
          "internalType": "address",
          "name": "to",
          "type": "address"
        },
        {
          "internalType": "uint256",
          "name": "value",
          "type": "uint256"
        }
      ],
      "name": "transferFrom",
      "outputs": [
        {
          "internalType": "bool",
          "name": "",
          "type": "bool"
        }
      ],
      "stateMutability": "nonpayable",
      "type": "function"
    },
    {
      "inputs": [],
      "name": "underlyingAsset",
      "outputs": [
        {
          "internalType": "address",
          "name": "",
          "type": "address"
        }
      ],
      "stateMutability": "view",
      "type": "function"
    },
    {
      "inputs": [
        {
          "internalType": "uint256",
          "name": "amount_",
          "type": "uint256"
        }
      ],
      "name": "withdraw",
      "outputs": [],
      "stateMutability": "nonpayable",
      "type": "function"
    }
  ],
  "transactionHash": "0x907cc613864b9f363664bdf65d107486689707a26d26d87c8a4dbfa427970027",
  "args": [],
  "numDeployments": 1,
  "solcInputHash": "db9c5d53d1a6307c2c512735368c29aa",
  "bytecode": "0x608060405234801561001057600080fd5b5061001961001e565b6100d0565b7ff0c57e16840df040f15088dc2f81fe391c3923bec73e23a9662efc9c229c6a00805468010000000000000000900460ff161561006e5760405163f92ee8a960e01b815260040160405180910390fd5b80546001600160401b03908116146100cd5780546001600160401b0319166001600160401b0390811782556040519081527fc7f505b2f371ae2175ee4913f4499e1f2633a7b5936321eed1cdaeb6115181d29060200160405180910390a15b50565b611685806100df6000396000f3fe608060405234801561001057600080fd5b50600436106100af5760003560e01c806306fdde03146100b4578063077f224a146100d2578063095ea7b3146100e757806318160ddd1461010a57806323b872dd146101205780632e1a7d4d14610133578063313ce5671461014657806370a08231146101555780637158da7c1461016857806395d89b4114610188578063a9059cbb14610190578063b6b55f25146101a3578063dd62ed3e146101b6575b600080fd5b6100bc6101c9565b6040516100c9919061102e565b60405180910390f35b6100e56100e036600461111f565b61026a565b005b6100fa6100f5366004611192565b610389565b60405190151581526020016100c9565b6101126103a3565b6040519081526020016100c9565b6100fa61012e3660046111bc565b6103b8565b6100e56101413660046111f8565b6103dc565b604051601281526020016100c9565b610112610163366004611211565b6105f8565b60005461017b906001600160a01b031681565b6040516100c99190611233565b6100bc610623565b6100fa61019e366004611192565b610640565b6100e56101b13660046111f8565b61064e565b6101126101c4366004611247565b610760565b606060006101d561079c565b90508060030180546101e69061127a565b80601f01602080910402602001604051908101604052809291908181526020018280546102129061127a565b801561025f5780601f106102345761010080835404028352916020019161025f565b820191906000526020600020905b81548152906001019060200180831161024257829003601f168201915b505050505091505090565b60006102746107c0565b805490915060ff600160401b82041615906001600160401b031660008115801561029b5750825b90506000826001600160401b031660011480156102b75750303b155b9050811580156102c5575080155b156102e35760405163f92ee8a960e01b815260040160405180910390fd5b84546001600160401b0319166001178555831561030c57845460ff60401b1916600160401b1785555b61031688886107e4565b61031e6107fa565b600080546001600160a01b0319166001600160a01b038816179055831561037f57845460ff60401b19168555604051600181527fc7f505b2f371ae2175ee4913f4499e1f2633a7b5936321eed1cdaeb6115181d29060200160405180910390a15b5050505050505050565b60003361039781858561080c565b60019150505b92915050565b6000806103ae61079c565b6002015492915050565b6000336103c685828561081e565b6103d1858585610871565b506001949350505050565b6103e46108d0565b6000811161040d5760405162461bcd60e51b8152600401610404906112b4565b60405180910390fd5b6000546001600160a01b03166104355760405162461bcd60e51b8152600401610404906112e5565b600080546040805163313ce56760e01b81529051601293926001600160a01b03169163313ce5679160048083019260209291908290030181865afa158015610481573d6000803e3d6000fd5b505050506040513d601f19601f820116820180604052508101906104a59190611326565b905060006104b483600a611443565b6104bf83600a611443565b6104c99086611452565b6104d39190611469565b90506104df3385610906565b6000546104f6906001600160a01b0316338361093c565b600080546040516370a0823160e01b81526001600160a01b03909116906370a0823190610527903090600401611233565b602060405180830381865afa158015610544573d6000803e3d6000fd5b505050506040513d601f19601f82011682018060405250810190610568919061148b565b905061057583600a611443565b61057d6103a3565b6105879190611452565b61059285600a611443565b61059c9083611452565b10156105e95760405162461bcd60e51b815260206004820152601c60248201527b29b7b63b212a219d103130b630b731b29031b432b1b59032b93937b960211b6044820152606401610404565b505050506105f5610b2e565b50565b60008061060361079c565b6001600160a01b0390931660009081526020939093525050604090205490565b6060600061062f61079c565b90508060040180546101e69061127a565b600033610397818585610871565b6106566108d0565b600081116106765760405162461bcd60e51b8152600401610404906112b4565b6000546001600160a01b031661069e5760405162461bcd60e51b8152600401610404906112e5565b600080546040805163313ce56760e01b81529051601293926001600160a01b03169163313ce5679160048083019260209291908290030181865afa1580156106ea573d6000803e3d6000fd5b505050506040513d601f19601f8201168201806040525081019061070e9190611326565b9050600061071d82600a611443565b61072884600a611443565b6107329086611452565b61073c9190611469565b600054909150610756906001600160a01b03163386610b3f565b6104f63382610d2c565b60008061076b61079c565b6001600160a01b03948516600090815260019190910160209081526040808320959096168252939093525050205490565b7f52c63247e1f47db19d5ce0460030c497f067ca4cebf71ba98eeadabe20bace0090565b7ff0c57e16840df040f15088dc2f81fe391c3923bec73e23a9662efc9c229c6a0090565b6107ec610d62565b6107f68282610d87565b5050565b610802610d62565b61080a610db8565b565b6108198383836001610dc0565b505050565b600061082a8484610760565b9050600019811461086b578181101561085c57828183604051637dc7a0d960e11b8152600401610404939291906114a4565b61086b84848484036000610dc0565b50505050565b6001600160a01b03831661089b576000604051634b637e8f60e11b81526004016104049190611233565b6001600160a01b0382166108c557600060405163ec442f0560e01b81526004016104049190611233565b610819838383610ea4565b60006108da610fcc565b80549091506001190161090057604051633ee5aeb560e01b815260040160405180910390fd5b60029055565b6001600160a01b038216610930576000604051634b637e8f60e11b81526004016104049190611233565b6107f682600083610ea4565b73eeeeeeeeeeeeeeeeeeeeeeeeeeeeeeeeeeeeeeed196001600160a01b03841601610a0457604080516000808252602082019092526001600160a01b03841690839060405161098b91906114c5565b60006040518083038185875af1925050503d80600081146109c8576040519150601f19603f3d011682016040523d82523d6000602084013e6109cd565b606091505b505090508061086b5760405162461bcd60e51b815260206004820152600360248201526253544560e81b6044820152606401610404565b6000836001600160a01b03163b11610a2e5760405162461bcd60e51b8152600401610404906114e1565b604080516001600160a01b038481166024830152604480830185905283518084039091018152606490920183526020820180516001600160e01b031663a9059cbb60e01b1790529151600092839290871691610a8a91906114c5565b6000604051808303816000865af19150503d8060008114610ac7576040519150601f19603f3d011682016040523d82523d6000602084013e610acc565b606091505b5091509150818015610af6575080511580610af6575080806020019051810190610af6919061150d565b610b275760405162461bcd60e51b815260206004820152600260248201526114d560f21b6044820152606401610404565b5050505050565b6000610b38610fcc565b6001905550565b73eeeeeeeeeeeeeeeeeeeeeeeeeeeeeeeeeeeeeeed196001600160a01b03841601610c0257326001600160a01b0383161480610b835750336001600160a01b038316145b610bc15760405162461bcd60e51b815260206004820152600f60248201526e0e6cadcc8cae440dad2e6dac2e8c6d608b1b6044820152606401610404565b803410156108195760405162461bcd60e51b815260206004820152600e60248201526d0ecc2d8eaca40dad2e6dac2e8c6d60931b6044820152606401610404565b6000836001600160a01b03163b11610c2c5760405162461bcd60e51b8152600401610404906114e1565b604080516001600160a01b038481166024830152306044830152606480830185905283518084039091018152608490920183526020820180516001600160e01b03166323b872dd60e01b1790529151600092839290871691610c8e91906114c5565b6000604051808303816000865af19150503d8060008114610ccb576040519150601f19603f3d011682016040523d82523d6000602084013e610cd0565b606091505b5091509150818015610cfa575080511580610cfa575080806020019051810190610cfa919061150d565b610b275760405162461bcd60e51b815260206004820152600360248201526229aa2360e91b6044820152606401610404565b6001600160a01b038216610d5657600060405163ec442f0560e01b81526004016104049190611233565b6107f660008383610ea4565b610d6a610ff0565b61080a57604051631afcd79f60e31b815260040160405180910390fd5b610d8f610d62565b6000610d9961079c565b905060038101610da9848261157d565b506004810161086b838261157d565b610b2e610d62565b6000610dca61079c565b90506001600160a01b038516610df657600060405163e602df0560e01b81526004016104049190611233565b6001600160a01b038416610e20576000604051634a1406b160e11b81526004016104049190611233565b6001600160a01b03808616600090815260018301602090815260408083209388168352929052208390558115610b2757836001600160a01b0316856001600160a01b03167f8c5be1e5ebec7d5bd14f71427d1e84f3dd0314c0f7b2291e5b200ac8c7c3b92585604051610e9591815260200190565b60405180910390a35050505050565b6000610eae61079c565b90506001600160a01b038416610edd5781816002016000828254610ed2919061163c565b90915550610f3c9050565b6001600160a01b03841660009081526020829052604090205482811015610f1d5784818460405163391434e360e21b8152600401610404939291906114a4565b6001600160a01b03851660009081526020839052604090209083900390555b6001600160a01b038316610f5a576002810180548390039055610f79565b6001600160a01b03831660009081526020829052604090208054830190555b826001600160a01b0316846001600160a01b03167fddf252ad1be2c89b69c2b068fc378daa952ba7f163c4a11628f55a4df523b3ef84604051610fbe91815260200190565b60405180910390a350505050565b7f9b779b17422d0df92223018b32b4d1fa46e071723d6817e2486d003becc55f0090565b6000610ffa6107c0565b54600160401b900460ff16919050565b60005b8381101561102557818101518382015260200161100d565b50506000910152565b602081526000825180602084015261104d81604085016020870161100a565b601f01601f19169190910160400192915050565b634e487b7160e01b600052604160045260246000fd5b600082601f83011261108857600080fd5b81356001600160401b03808211156110a2576110a2611061565b604051601f8301601f19908116603f011681019082821181831017156110ca576110ca611061565b816040528381528660208588010111156110e357600080fd5b836020870160208301376000602085830101528094505050505092915050565b80356001600160a01b038116811461111a57600080fd5b919050565b60008060006060848603121561113457600080fd5b83356001600160401b038082111561114b57600080fd5b61115787838801611077565b9450602086013591508082111561116d57600080fd5b5061117a86828701611077565b92505061118960408501611103565b90509250925092565b600080604083850312156111a557600080fd5b6111ae83611103565b946020939093013593505050565b6000806000606084860312156111d157600080fd5b6111da84611103565b92506111e860208501611103565b9150604084013590509250925092565b60006020828403121561120a57600080fd5b5035919050565b60006020828403121561122357600080fd5b61122c82611103565b9392505050565b6001600160a01b0391909116815260200190565b6000806040838503121561125a57600080fd5b61126383611103565b915061127160208401611103565b90509250929050565b600181811c9082168061128e57607f821691505b6020821081036112ae57634e487b7160e01b600052602260045260246000fd5b50919050565b60208082526017908201527614dbdb1d909510ce881a5b9d985b1a5908185b5bdd5b9d604a1b604082015260600190565b60208082526021908201527f536f6c764254433a20696e76616c696420756e6465726c79696e6720617373656040820152601d60fa1b606082015260800190565b60006020828403121561133857600080fd5b815160ff8116811461122c57600080fd5b634e487b7160e01b600052601160045260246000fd5b600181815b8085111561139a57816000190482111561138057611380611349565b8085161561138d57918102915b93841c9390800290611364565b509250929050565b6000826113b15750600161039d565b816113be5750600061039d565b81600181146113d457600281146113de576113fa565b600191505061039d565b60ff8411156113ef576113ef611349565b50506001821b61039d565b5060208310610133831016604e8410600b841016171561141d575081810a61039d565b611427838361135f565b806000190482111561143b5761143b611349565b029392505050565b600061122c60ff8416836113a2565b808202811582820484141761039d5761039d611349565b60008261148657634e487b7160e01b600052601260045260246000fd5b500490565b60006020828403121561149d57600080fd5b5051919050565b6001600160a01b039390931683526020830191909152604082015260600190565b600082516114d781846020870161100a565b9190910192915050565b602080825260129082015271696e76616c696420756e6465726c79696e6760701b604082015260600190565b60006020828403121561151f57600080fd5b8151801515811461122c57600080fd5b601f82111561081957600081815260208120601f850160051c810160208610156115565750805b601f850160051c820191505b8181101561157557828155600101611562565b505050505050565b81516001600160401b0381111561159657611596611061565b6115aa816115a4845461127a565b8461152f565b602080601f8311600181146115df57600084156115c75750858301515b600019600386901b1c1916600185901b178555611575565b600085815260208120601f198616915b8281101561160e578886015182559484019460019091019084016115ef565b508582101561162c5787850151600019600388901b60f8161c191681555b5050505050600190811b01905550565b8082018082111561039d5761039d61134956fea26469706673582212202538b872a276e47d93082fbea8799fc13eff3bfa1a8275a87f06974ef76d3d2b64736f6c63430008140033",
  "devdoc": {
    "errors": {
      "ERC20InsufficientAllowance(address,uint256,uint256)": [
        {
          "details": "Indicates a failure with the `spender`s `allowance`. Used in transfers.",
          "params": {
            "allowance": "Amount of tokens a `spender` is allowed to operate with.",
            "needed": "Minimum amount required to perform a transfer.",
            "spender": "Address that may be allowed to operate on tokens without being their owner."
          }
        }
      ],
      "ERC20InsufficientBalance(address,uint256,uint256)": [
        {
          "details": "Indicates an error related to the current `balance` of a `sender`. Used in transfers.",
          "params": {
            "balance": "Current balance for the interacting account.",
            "needed": "Minimum amount required to perform a transfer.",
            "sender": "Address whose tokens are being transferred."
          }
        }
      ],
      "ERC20InvalidApprover(address)": [
        {
          "details": "Indicates a failure with the `approver` of a token to be approved. Used in approvals.",
          "params": {
            "approver": "Address initiating an approval operation."
          }
        }
      ],
      "ERC20InvalidReceiver(address)": [
        {
          "details": "Indicates a failure with the token `receiver`. Used in transfers.",
          "params": {
            "receiver": "Address to which tokens are being transferred."
          }
        }
      ],
      "ERC20InvalidSender(address)": [
        {
          "details": "Indicates a failure with the token `sender`. Used in transfers.",
          "params": {
            "sender": "Address whose tokens are being transferred."
          }
        }
      ],
      "ERC20InvalidSpender(address)": [
        {
          "details": "Indicates a failure with the `spender` to be approved. Used in approvals.",
          "params": {
            "spender": "Address that may be allowed to operate on tokens without being their owner."
          }
        }
      ],
      "InvalidInitialization()": [
        {
          "details": "The contract is already initialized."
        }
      ],
      "NotInitializing()": [
        {
          "details": "The contract is not initializing."
        }
      ],
      "ReentrancyGuardReentrantCall()": [
        {
          "details": "Unauthorized reentrant call."
        }
      ]
    },
    "events": {
      "Approval(address,address,uint256)": {
        "details": "Emitted when the allowance of a `spender` for an `owner` is set by a call to {approve}. `value` is the new allowance."
      },
      "Initialized(uint64)": {
        "details": "Triggered when the contract has been initialized or reinitialized."
      },
      "Transfer(address,address,uint256)": {
        "details": "Emitted when `value` tokens are moved from one account (`from`) to another (`to`). Note that `value` may be zero."
      }
    },
    "kind": "dev",
    "methods": {
      "allowance(address,address)": {
        "details": "See {IERC20-allowance}."
      },
      "approve(address,uint256)": {
        "details": "See {IERC20-approve}. NOTE: If `value` is the maximum `uint256`, the allowance is not updated on `transferFrom`. This is semantically equivalent to an infinite approval. Requirements: - `spender` cannot be the zero address."
      },
      "balanceOf(address)": {
        "details": "See {IERC20-balanceOf}."
      },
      "constructor": {
        "custom:oz-upgrades-unsafe-allow": "constructor"
      },
      "decimals()": {
        "details": "Returns the number of decimals used to get its user representation. For example, if `decimals` equals `2`, a balance of `505` tokens should be displayed to a user as `5.05` (`505 / 10 ** 2`). Tokens usually opt for a value of 18, imitating the relationship between Ether and Wei. This is the default value returned by this function, unless it's overridden. NOTE: This information is only used for _display_ purposes: it in no way affects any of the arithmetic of the contract, including {IERC20-balanceOf} and {IERC20-transfer}."
      },
      "deposit(uint256)": {
        "params": {
          "amount_": "the amount of underlying asset"
        }
      },
      "name()": {
        "details": "Returns the name of the token."
      },
      "symbol()": {
        "details": "Returns the symbol of the token, usually a shorter version of the name."
      },
      "totalSupply()": {
        "details": "See {IERC20-totalSupply}."
      },
      "transfer(address,uint256)": {
        "details": "See {IERC20-transfer}. Requirements: - `to` cannot be the zero address. - the caller must have a balance of at least `value`."
      },
      "transferFrom(address,address,uint256)": {
        "details": "See {IERC20-transferFrom}. Emits an {Approval} event indicating the updated allowance. This is not required by the EIP. See the note at the beginning of {ERC20}. NOTE: Does not update the allowance if the current allowance is the maximum `uint256`. Requirements: - `from` and `to` cannot be the zero address. - `from` must have a balance of at least `value`. - the caller must have allowance for ``from``'s tokens of at least `value`."
      },
      "withdraw(uint256)": {
        "params": {
          "amount_": "the amount of SolvBTC to burn"
        }
      }
    },
    "version": 1
  },
  "userdoc": {
    "kind": "user",
    "methods": {},
    "version": 1
  },
  "storageLayout": {
    "storage": [
      {
        "astId": 1298,
        "contract": "contracts/SolvBTC.sol:SolvBTC",
        "label": "underlyingAsset",
        "offset": 0,
        "slot": "0",
        "type": "t_address"
      }
    ],
    "types": {
      "t_address": {
        "encoding": "inplace",
        "label": "address",
        "numberOfBytes": "20"
      }
    }
  }
}