{
  "address": "0x2Bce46EDB29aA92DF4c754C8C9F5e9E796Ed5b30",
  "abi": [
    {
      "inputs": [],
      "name": "InvalidInitialization",
      "type": "error"
    },
    {
      "inputs": [],
      "name": "NotInitializing",
      "type": "error"
    },
    {
      "inputs": [],
      "name": "ReentrancyGuardReentrantCall",
      "type": "error"
    },
    {
      "anonymous": false,
      "inputs": [
        {
          "indexed": true,
          "internalType": "bytes32",
          "name": "poolId",
          "type": "bytes32"
        },
        {
          "indexed": true,
          "internalType": "address",
          "name": "owner",
          "type": "address"
        },
        {
          "indexed": true,
          "internalType": "address",
          "name": "sftWrappedToken",
          "type": "address"
        },
        {
          "indexed": false,
          "internalType": "uint256",
          "name": "redemptionId",
          "type": "uint256"
        },
        {
          "indexed": false,
          "internalType": "uint256",
          "name": "cancelAmount",
          "type": "uint256"
        }
      ],
      "name": "CancelRedemption",
      "type": "event"
    },
    {
      "anonymous": false,
      "inputs": [
        {
          "indexed": true,
          "internalType": "bytes32",
          "name": "poolId",
          "type": "bytes32"
        },
        {
          "indexed": true,
          "internalType": "address",
          "name": "redeemer",
          "type": "address"
        },
        {
          "indexed": true,
          "internalType": "address",
          "name": "sftWrappedToken",
          "type": "address"
        },
        {
          "indexed": false,
          "internalType": "uint256",
          "name": "redeemAmount",
          "type": "uint256"
        },
        {
          "indexed": false,
          "internalType": "uint256",
          "name": "redemptionId",
          "type": "uint256"
        }
      ],
      "name": "CreateRedemption",
      "type": "event"
    },
    {
      "anonymous": false,
      "inputs": [
        {
          "indexed": true,
          "internalType": "bytes32",
          "name": "poolId",
          "type": "bytes32"
        },
        {
          "indexed": true,
          "internalType": "address",
          "name": "subscriber",
          "type": "address"
        },
        {
          "indexed": false,
          "internalType": "address",
          "name": "sftWrappedToken",
          "type": "address"
        },
        {
          "indexed": false,
          "internalType": "uint256",
          "name": "swtTokenAmount",
          "type": "uint256"
        },
        {
          "indexed": false,
          "internalType": "address",
          "name": "currency",
          "type": "address"
        },
        {
          "indexed": false,
          "internalType": "uint256",
          "name": "currencyAmount",
          "type": "uint256"
        }
      ],
      "name": "CreateSubscription",
      "type": "event"
    },
    {
      "anonymous": false,
      "inputs": [
        {
          "indexed": false,
          "internalType": "uint64",
          "name": "version",
          "type": "uint64"
        }
      ],
      "name": "Initialized",
      "type": "event"
    },
    {
      "anonymous": false,
      "inputs": [
        {
          "indexed": false,
          "internalType": "address",
          "name": "oldAdmin",
          "type": "address"
        },
        {
          "indexed": false,
          "internalType": "address",
          "name": "newAdmin",
          "type": "address"
        }
      ],
      "name": "NewAdmin",
      "type": "event"
    },
    {
      "anonymous": false,
      "inputs": [
        {
          "indexed": false,
          "internalType": "address",
          "name": "oldGovernor",
          "type": "address"
        },
        {
          "indexed": false,
          "internalType": "address",
          "name": "newGovernor",
          "type": "address"
        }
      ],
      "name": "NewGovernor",
      "type": "event"
    },
    {
      "anonymous": false,
      "inputs": [
        {
          "indexed": false,
          "internalType": "address",
          "name": "oldPendingAdmin",
          "type": "address"
        },
        {
          "indexed": false,
          "internalType": "address",
          "name": "newPendingAdmin",
          "type": "address"
        }
      ],
      "name": "NewPendingAdmin",
      "type": "event"
    },
    {
      "anonymous": false,
      "inputs": [
        {
          "indexed": false,
          "internalType": "address",
          "name": "oldPendingGovernor",
          "type": "address"
        },
        {
          "indexed": false,
          "internalType": "address",
          "name": "newPendingGovernor",
          "type": "address"
        }
      ],
      "name": "NewPendingGovernor",
      "type": "event"
    },
    {
      "anonymous": false,
      "inputs": [
        {
          "indexed": true,
          "internalType": "address",
          "name": "sftWrappedToken",
          "type": "address"
        },
        {
          "indexed": true,
          "internalType": "address",
          "name": "staker",
          "type": "address"
        },
        {
          "indexed": false,
          "internalType": "address",
          "name": "sft",
          "type": "address"
        },
        {
          "indexed": false,
          "internalType": "uint256",
          "name": "sftSlot",
          "type": "uint256"
        },
        {
          "indexed": false,
          "internalType": "uint256",
          "name": "sftId",
          "type": "uint256"
        },
        {
          "indexed": false,
          "internalType": "uint256",
          "name": "amount",
          "type": "uint256"
        }
      ],
      "name": "Stake",
      "type": "event"
    },
    {
      "anonymous": false,
      "inputs": [
        {
          "indexed": true,
          "internalType": "address",
          "name": "sftWrappedToken",
          "type": "address"
        },
        {
          "indexed": true,
          "internalType": "address",
          "name": "unstaker",
          "type": "address"
        },
        {
          "indexed": false,
          "internalType": "address",
          "name": "sft",
          "type": "address"
        },
        {
          "indexed": false,
          "internalType": "uint256",
          "name": "sftSlot",
          "type": "uint256"
        },
        {
          "indexed": false,
          "internalType": "uint256",
          "name": "sftId",
          "type": "uint256"
        },
        {
          "indexed": false,
          "internalType": "uint256",
          "name": "amount",
          "type": "uint256"
        }
      ],
      "name": "Unstake",
      "type": "event"
    },
    {
      "inputs": [],
      "name": "acceptAdmin",
      "outputs": [],
      "stateMutability": "nonpayable",
      "type": "function"
    },
    {
      "inputs": [],
      "name": "acceptGovernance",
      "outputs": [],
      "stateMutability": "nonpayable",
      "type": "function"
    },
    {
      "inputs": [],
      "name": "admin",
      "outputs": [
        {
          "internalType": "address",
          "name": "",
          "type": "address"
        }
      ],
      "stateMutability": "view",
      "type": "function"
    },
    {
      "inputs": [
        {
          "internalType": "bytes32",
          "name": "poolId_",
          "type": "bytes32"
        },
        {
          "internalType": "uint256",
          "name": "openFundRedemptionId_",
          "type": "uint256"
        }
      ],
      "name": "cancelRedemption",
      "outputs": [],
      "stateMutability": "nonpayable",
      "type": "function"
    },
    {
      "inputs": [
        {
          "internalType": "bytes32",
          "name": "poolId_",
          "type": "bytes32"
        },
        {
          "internalType": "uint256",
          "name": "redeemAmount_",
          "type": "uint256"
        }
      ],
      "name": "createRedemption",
      "outputs": [
        {
          "internalType": "uint256",
          "name": "redemptionId_",
          "type": "uint256"
        }
      ],
      "stateMutability": "nonpayable",
      "type": "function"
    },
    {
      "inputs": [
        {
          "internalType": "bytes32",
          "name": "poolId_",
          "type": "bytes32"
        },
        {
          "internalType": "uint256",
          "name": "currencyAmount_",
          "type": "uint256"
        }
      ],
      "name": "createSubscription",
      "outputs": [
        {
          "internalType": "uint256",
          "name": "shareValue_",
          "type": "uint256"
        }
      ],
      "stateMutability": "payable",
      "type": "function"
    },
    {
      "inputs": [],
      "name": "governor",
      "outputs": [
        {
          "internalType": "address",
          "name": "",
          "type": "address"
        }
      ],
      "stateMutability": "view",
      "type": "function"
    },
    {
      "inputs": [
        {
          "internalType": "address",
          "name": "",
          "type": "address"
        },
        {
          "internalType": "uint256",
          "name": "",
          "type": "uint256"
        }
      ],
      "name": "holdingSftIds",
      "outputs": [
        {
          "internalType": "uint256",
          "name": "",
          "type": "uint256"
        }
      ],
      "stateMutability": "view",
      "type": "function"
    },
    {
      "inputs": [
        {
          "internalType": "address",
          "name": "governor_",
          "type": "address"
        },
        {
          "internalType": "address",
          "name": "openFundMarket_",
          "type": "address"
        },
        {
          "internalType": "address",
          "name": "sftWrappedTokenFactory_",
          "type": "address"
        }
      ],
      "name": "initialize",
      "outputs": [],
      "stateMutability": "nonpayable",
      "type": "function"
    },
    {
      "inputs": [
        {
          "internalType": "address",
          "name": "",
          "type": "address"
        },
        {
          "internalType": "uint256",
          "name": "fromSftId_",
          "type": "uint256"
        },
        {
          "internalType": "uint256",
          "name": "toSftId_",
          "type": "uint256"
        },
        {
          "internalType": "uint256",
          "name": "value_",
          "type": "uint256"
        },
        {
          "internalType": "bytes",
          "name": "",
          "type": "bytes"
        }
      ],
      "name": "onERC3525Received",
      "outputs": [
        {
          "internalType": "bytes4",
          "name": "",
          "type": "bytes4"
        }
      ],
      "stateMutability": "nonpayable",
      "type": "function"
    },
    {
      "inputs": [
        {
          "internalType": "address",
          "name": "",
          "type": "address"
        },
        {
          "internalType": "address",
          "name": "from_",
          "type": "address"
        },
        {
          "internalType": "uint256",
          "name": "sftId_",
          "type": "uint256"
        },
        {
          "internalType": "bytes",
          "name": "",
          "type": "bytes"
        }
      ],
      "name": "onERC721Received",
      "outputs": [
        {
          "internalType": "bytes4",
          "name": "",
          "type": "bytes4"
        }
      ],
      "stateMutability": "nonpayable",
      "type": "function"
    },
    {
      "inputs": [],
      "name": "openFundMarket",
      "outputs": [
        {
          "internalType": "address",
          "name": "",
          "type": "address"
        }
      ],
      "stateMutability": "view",
      "type": "function"
    },
    {
      "inputs": [],
      "name": "pendingAdmin",
      "outputs": [
        {
          "internalType": "address",
          "name": "",
          "type": "address"
        }
      ],
      "stateMutability": "view",
      "type": "function"
    },
    {
      "inputs": [],
      "name": "pendingGovernor",
      "outputs": [
        {
          "internalType": "address",
          "name": "",
          "type": "address"
        }
      ],
      "stateMutability": "view",
      "type": "function"
    },
    {
      "inputs": [],
      "name": "sftWrappedTokenFactory",
      "outputs": [
        {
          "internalType": "address",
          "name": "",
          "type": "address"
        }
      ],
      "stateMutability": "view",
      "type": "function"
    },
    {
      "inputs": [
        {
          "internalType": "address",
          "name": "sftAddress_",
          "type": "address"
        },
        {
          "internalType": "uint256",
          "name": "sftId_",
          "type": "uint256"
        },
        {
          "internalType": "uint256",
          "name": "amount_",
          "type": "uint256"
        }
      ],
      "name": "stake",
      "outputs": [],
      "stateMutability": "nonpayable",
      "type": "function"
    },
    {
      "inputs": [
        {
          "internalType": "bytes4",
          "name": "interfaceId",
          "type": "bytes4"
        }
      ],
      "name": "supportsInterface",
      "outputs": [
        {
          "internalType": "bool",
          "name": "",
          "type": "bool"
        }
      ],
      "stateMutability": "view",
      "type": "function"
    },
    {
      "inputs": [
        {
          "internalType": "address",
          "name": "newPendingAdmin_",
          "type": "address"
        }
      ],
      "name": "transferAdmin",
      "outputs": [],
      "stateMutability": "nonpayable",
      "type": "function"
    },
    {
      "inputs": [
        {
          "internalType": "address",
          "name": "newPendingGovernor_",
          "type": "address"
        }
      ],
      "name": "transferGovernance",
      "outputs": [],
      "stateMutability": "nonpayable",
      "type": "function"
    },
    {
      "inputs": [
        {
          "internalType": "address",
          "name": "swtAddress_",
          "type": "address"
        },
        {
          "internalType": "uint256",
          "name": "amount_",
          "type": "uint256"
        },
        {
          "internalType": "uint256",
          "name": "sftId_",
          "type": "uint256"
        }
      ],
      "name": "unstake",
      "outputs": [
        {
          "internalType": "uint256",
          "name": "toSftId_",
          "type": "uint256"
        }
      ],
      "stateMutability": "nonpayable",
      "type": "function"
    }
  ],
  "transactionHash": "0x8c91866a6a28b9dadfd37580261450b99f130213ca6842f94589adc6b61cd760",
  "args": [],
  "numDeployments": 1,
  "solcInputHash": "cacfb0cb2d4b5fb4e46e1b695ea56ba9",
  "bytecode": "0x608060405234801561001057600080fd5b50613531806100206000396000f3fe6080604052600436106100ee5760003560e01c80629ce20b146100f357806301ffc9a7146101315780630c340a24146101615780630c51b88f1461018e5780630e18b681146101b0578063150b7a02146101c5578063238efcbc146101e557806326782247146101fa5780632c7eb4c81461021a57806334d27fbf1461023a5780634fe03069146102685780636d724ead1461028857806375829def1461029b578063a2bc66be146102bb578063c0c53b8b146102db578063d38bfff4146102fb578063d6207d461461031b578063e3056a3414610353578063f355d41714610373578063f851a44014610393575b600080fd5b3480156100ff57600080fd5b5061011361010e366004612d50565b6103b3565b6040516001600160e01b031990911681526020015b60405180910390f35b34801561013d57600080fd5b5061015161014c366004612dc2565b6107cf565b6040519015158152602001610128565b34801561016d57600080fd5b50603254610181906001600160a01b031681565b6040516101289190612dec565b34801561019a57600080fd5b506101ae6101a9366004612e00565b610820565b005b3480156101bc57600080fd5b506101ae610c00565b3480156101d157600080fd5b506101136101e0366004612e35565b610caf565b3480156101f157600080fd5b506101ae610f6e565b34801561020657600080fd5b50600154610181906001600160a01b031681565b34801561022657600080fd5b50606554610181906001600160a01b031681565b34801561024657600080fd5b5061025a610255366004612ea7565b610ff8565b604051908152602001610128565b34801561027457600080fd5b506101ae610283366004612ea7565b611450565b61025a610296366004612ea7565b6117d7565b3480156102a757600080fd5b506101ae6102b6366004612ec9565b611cbd565b3480156102c757600080fd5b5061025a6102d6366004612e00565b611d6d565b3480156102e757600080fd5b506101ae6102f6366004612ee6565b61226d565b34801561030757600080fd5b506101ae610316366004612ec9565b6123a1565b34801561032757600080fd5b5061025a610336366004612f31565b606660209081526000928352604080842090915290825290205481565b34801561035f57600080fd5b50603354610181906001600160a01b031681565b34801561037f57600080fd5b50606454610181906001600160a01b031681565b34801561039f57600080fd5b50600054610181906001600160a01b031681565b60405163131f9f3f60e11b81526004810185905260009033908290829063263f3e7e90602401602060405180830381865afa1580156103f6573d6000803e3d6000fd5b505050506040513d601f19601f8201168201806040525081019061041a9190612f5d565b6065546040516337547a9760e01b81529192506000916001600160a01b03909116906337547a97906104529086908690600401612f76565b602060405180830381865afa15801561046f573d6000803e3d6000fd5b505050506040513d601f19601f820116820180604052508101906104939190612f9f565b90506001600160a01b0381166104c45760405162461bcd60e51b81526004016104bb90612fbc565b60405180910390fd5b6040516331a9108f60e11b8152600481018a90526000906001600160a01b03851690636352211e90602401602060405180830381865afa15801561050c573d6000803e3d6000fd5b505050506040513d601f19601f820116820180604052508101906105309190612f9f565b6064549091506001600160a01b03808316911614806105605750816001600160a01b0316816001600160a01b0316145b156105785750629ce20b60e01b93506107c592505050565b6040516331a9108f60e11b8152600481018a90526000906001600160a01b03861690636352211e90602401602060405180830381865afa1580156105c0573d6000803e3d6000fd5b505050506040513d601f19601f820116820180604052508101906105e49190612f9f565b90506001600160a01b038116301461060e5760405162461bcd60e51b81526004016104bb90613008565b6001600160a01b03851660009081526066602090815260408083208784529091528120549003610663576001600160a01b038516600090815260666020908152604080832087845290915290208a90556106df565b6001600160a01b03851660009081526066602090815260408083208784529091529020548a146106df5760405162461bcd60e51b815260206004820152602160248201527f53667457726170526f757465723a206e6f7420686f6c64696e672073667420696044820152601960fa1b60648201526084016104bb565b6000836001600160a01b03166344b32bd16040518163ffffffff1660e01b8152600401602060405180830381865afa15801561071f573d6000803e3d6000fd5b505050506040513d601f19601f820116820180604052508101906107439190612f5d565b90508060000361075f57610759868c868d612434565b5061076b565b61076b868c838d6124b3565b5061077783838b612525565b816001600160a01b0316836001600160a01b031660008051602061349c83398151915287878f8e6040516107ae949392919061303f565b60405180910390a350629ce20b60e01b9450505050505b9695505050505050565b60006001600160e01b03198216629ce20b60e01b14806107ff57506001600160e01b03198216630a85bd0160e11b145b8061081a57506001600160e01b031982166301ffc9a760e01b145b92915050565b610828612727565b60405163131f9f3f60e11b81526004810183905283906000906001600160a01b0383169063263f3e7e90602401602060405180830381865afa158015610872573d6000803e3d6000fd5b505050506040513d601f19601f820116820180604052508101906108969190612f5d565b6065546040516337547a9760e01b81529192506000916001600160a01b03909116906337547a97906108ce9089908690600401612f76565b602060405180830381865afa1580156108eb573d6000803e3d6000fd5b505050506040513d601f19601f8201168201806040525081019061090f9190612f9f565b90506001600160a01b0381166109375760405162461bcd60e51b81526004016104bb90612fbc565b6040516331a9108f60e11b8152600481018690526001600160a01b03841690636352211e90602401602060405180830381865afa15801561097c573d6000803e3d6000fd5b505050506040513d601f19601f820116820180604052508101906109a09190612f9f565b6001600160a01b0316336001600160a01b031614610a0f5760405162461bcd60e51b815260206004820152602660248201527f53667457726170526f757465723a2063616c6c6572206973206e6f74207366746044820152651037bbb732b960d11b60648201526084016104bb565b60008411610a6f5760405162461bcd60e51b815260206004820152602760248201527f53667457726170526f757465723a207374616b6520616d6f756e742063616e6e60448201526606f7420626520360cc1b60648201526084016104bb565b604051631398fee160e31b8152600481018690526000906001600160a01b03851690639cc7f70890602401602060405180830381865afa158015610ab7573d6000803e3d6000fd5b505050506040513d601f19601f82011682018060405250810190610adb9190612f5d565b9050808503610af557610af08733848961275d565b610bef565b80851015610b8f576000826001600160a01b03166344b32bd16040518163ffffffff1660e01b8152600401602060405180830381865afa158015610b3d573d6000803e3d6000fd5b505050506040513d601f19601f82011682018060405250810190610b619190612f5d565b905080600003610b7d57610b7788888589612434565b50610b89565b610b89888883896124b3565b50610bef565b60405162461bcd60e51b815260206004820152602f60248201527f53667457726170526f757465723a207374616b6520616d6f756e74206578636560448201526e656473207366742062616c616e636560881b60648201526084016104bb565b50505050610bfb61278f565b505050565b6001546001600160a01b03163314610c4f5760405162461bcd60e51b815260206004820152601260248201527137b7363c903832b73234b7339030b236b4b760711b60448201526064016104bb565b6000546001546040516000805160206134dc83398151915292610c80926001600160a01b0391821692911690613065565b60405180910390a160018054600080546001600160a01b03199081166001600160a01b03841617909155169055565b60405163131f9f3f60e11b81526004810184905260009033908290829063263f3e7e90602401602060405180830381865afa158015610cf2573d6000803e3d6000fd5b505050506040513d601f19601f82011682018060405250810190610d169190612f5d565b6065546040516337547a9760e01b81529192506000916001600160a01b03909116906337547a9790610d4e9086908690600401612f76565b602060405180830381865afa158015610d6b573d6000803e3d6000fd5b505050506040513d601f19601f82011682018060405250810190610d8f9190612f9f565b90506001600160a01b038116610db75760405162461bcd60e51b81526004016104bb90612fbc565b806001600160a01b0316886001600160a01b03161480610de457506064546001600160a01b038981169116145b15610dfc5750630a85bd0160e11b9250610f65915050565b6040516331a9108f60e11b8152600481018890526000906001600160a01b03851690636352211e90602401602060405180830381865afa158015610e44573d6000803e3d6000fd5b505050506040513d601f19601f82011682018060405250810190610e689190612f9f565b90506001600160a01b0381163014610e925760405162461bcd60e51b81526004016104bb90613008565b604051631398fee160e31b8152600481018990526000906001600160a01b03861690639cc7f70890602401602060405180830381865afa158015610eda573d6000803e3d6000fd5b505050506040513d601f19601f82011682018060405250810190610efe9190612f5d565b9050610f0b85848b6127a0565b610f16838b83612525565b896001600160a01b0316836001600160a01b031660008051602061349c83398151915287878d86604051610f4d949392919061303f565b60405180910390a350630a85bd0160e11b9450505050505b95945050505050565b6033546001600160a01b03163314610f985760405162461bcd60e51b81526004016104bb9061307f565b6032546033546040516000805160206134bc83398151915292610fc9926001600160a01b0391821692911690613065565b60405180910390a160338054603280546001600160a01b03199081166001600160a01b03841617909155169055565b6000611002612727565b60645460405162daa6b160e61b8152600481018590526000916001600160a01b0316906336a9ac40906024016102a0604051808303816000875af115801561104e573d6000803e3d6000fd5b505050506040513d601f19601f8201168201806040525081019061107291906132ea565b80518051602082015160409283015160655493516337547a9760e01b8152949550919390926000916001600160a01b03909116906337547a97906110bc9087908690600401612f76565b602060405180830381865afa1580156110d9573d6000803e3d6000fd5b505050506040513d601f19601f820116820180604052508101906110fd9190612f9f565b90506001600160a01b0381166111255760405162461bcd60e51b81526004016104bb90612fbc565b611130813389612800565b60405163b390c0ab60e01b81526000906001600160a01b0383169063b390c0ab90611161908b9085906004016133b7565b6020604051808303816000875af1158015611180573d6000803e3d6000fd5b505050506040513d601f19601f820116820180604052508101906111a49190612f5d565b6064549091506111bf9086906001600160a01b0316836129f3565b606480546040516371033ad760e01b8152600481018c905260248101849052600060448201529182018a90526001600160a01b0316906371033ad790608401600060405180830381600087803b15801561121857600080fd5b505af115801561122c573d6000803e3d6000fd5b50506040516370a0823160e01b8152600092506001600160a01b03871691506370a082319061125f903090600401612dec565b602060405180830381865afa15801561127c573d6000803e3d6000fd5b505050506040513d601f19601f820116820180604052508101906112a09190612f5d565b90506001600160a01b038516632f745c59306112bd6001856133db565b6040518363ffffffff1660e01b81526004016112da929190612f76565b602060405180830381865afa1580156112f7573d6000803e3d6000fd5b505050506040513d601f19601f8201168201806040525081019061131b9190612f5d565b604051631398fee160e31b81526004810182905290985089906001600160a01b03871690639cc7f70890602401602060405180830381865afa158015611365573d6000803e3d6000fd5b505050506040513d601f19601f820116820180604052508101906113899190612f5d565b146113e85760405162461bcd60e51b815260206004820152602960248201527f53667457726170526f757465723a20696e636f727265637420726564656d7074604482015268696f6e2076616c756560b81b60648201526084016104bb565b6113f385338a612a23565b826001600160a01b0316336001600160a01b03168b7f78f28b46ef784512c5644a2069be0c54b5504a85022f6944b8fe318e802881178c8c6040516114399291906133b7565b60405180910390a45050505050505061081a61278f565b611458612727565b60645460405162daa6b160e61b8152600481018490526000916001600160a01b0316906336a9ac40906024016102a0604051808303816000875af11580156114a4573d6000803e3d6000fd5b505050506040513d601f19601f820116820180604052508101906114c891906132ea565b805180516020820151604090920151929350916114e6823387612a55565b6064546114fe9083906001600160a01b0316876129f3565b6064546040516302e9574960e51b81526001600160a01b0390911690635d2ae9209061153090899089906004016133b7565b600060405180830381600087803b15801561154a57600080fd5b505af115801561155e573d6000803e3d6000fd5b50506040516370a0823160e01b8152600092506001600160a01b03861691506370a0823190611591903090600401612dec565b602060405180830381865afa1580156115ae573d6000803e3d6000fd5b505050506040513d601f19601f820116820180604052508101906115d29190612f5d565b905060006001600160a01b038516632f745c59306115f16001866133db565b6040518363ffffffff1660e01b815260040161160e929190612f76565b602060405180830381865afa15801561162b573d6000803e3d6000fd5b505050506040513d601f19601f8201168201806040525081019061164f9190612f5d565b604051631398fee160e31b8152600481018290529091506000906001600160a01b03871690639cc7f70890602401602060405180830381865afa15801561169a573d6000803e3d6000fd5b505050506040513d601f19601f820116820180604052508101906116be9190612f5d565b6065546040516337547a9760e01b81529192506000916001600160a01b03909116906337547a97906116f6908a908990600401612f76565b602060405180830381865afa158015611713573d6000803e3d6000fd5b505050506040513d601f19601f820116820180604052508101906117379190612f9f565b90506001600160a01b03811661175f5760405162461bcd60e51b81526004016104bb90612fbc565b61176a8782856127a0565b611775813384612525565b806001600160a01b0316336001600160a01b03168b7f31a995f8a7cba531318be8a1c061e5e8d9421639be592fc336c04a70222f97548c866040516117bb9291906133b7565b60405180910390a450505050505050506117d361278f565b5050565b60006117e1612727565b60645460405162daa6b160e61b8152600481018590526000916001600160a01b0316906336a9ac40906024016102a0604051808303816000875af115801561182d573d6000803e3d6000fd5b505050506040513d601f19601f8201168201806040525081019061185191906132ea565b8051805160409091015160a08301519293509091611870903387612800565b60a083015160645461188c91906001600160a01b031687612a87565b6064546001600160a01b0316638f3ecff0878760006118ad4261012c6133ee565b6040516001600160e01b031960e087901b1681526004810194909452602484019290925260448301526001600160401b031660648201526084016020604051808303816000875af1158015611906573d6000803e3d6000fd5b505050506040513d601f19601f8201168201806040525081019061192a9190612f5d565b93506000826001600160a01b03166370a08231306040518263ffffffff1660e01b815260040161195a9190612dec565b602060405180830381865afa158015611977573d6000803e3d6000fd5b505050506040513d601f19601f8201168201806040525081019061199b9190612f5d565b905060006001600160a01b038416632f745c59306119ba6001866133db565b6040518363ffffffff1660e01b81526004016119d7929190612f76565b602060405180830381865afa1580156119f4573d6000803e3d6000fd5b505050506040513d601f19601f82011682018060405250810190611a189190612f5d565b60405163131f9f3f60e11b81526004810182905290915083906001600160a01b0386169063263f3e7e90602401602060405180830381865afa158015611a62573d6000803e3d6000fd5b505050506040513d601f19601f82011682018060405250810190611a869190612f5d565b14611adf5760405162461bcd60e51b815260206004820152602360248201527f53667457726170526f757465723a20696e636f727265637420736861726520736044820152621b1bdd60ea1b60648201526084016104bb565b604051631398fee160e31b81526004810182905286906001600160a01b03861690639cc7f70890602401602060405180830381865afa158015611b26573d6000803e3d6000fd5b505050506040513d601f19601f82011682018060405250810190611b4a9190612f5d565b14611ba35760405162461bcd60e51b8152602060048201526024808201527f53667457726170526f757465723a20696e636f72726563742073686172652076604482015263616c756560e01b60648201526084016104bb565b6065546040516337547a9760e01b81526000916001600160a01b0316906337547a9790611bd69088908890600401612f76565b602060405180830381865afa158015611bf3573d6000803e3d6000fd5b505050506040513d601f19601f82011682018060405250810190611c179190612f9f565b90506001600160a01b038116611c3f5760405162461bcd60e51b81526004016104bb90612fbc565b611c4a8582846127a0565b611c55813389612525565b60a0860151604080516001600160a01b038481168252602082018b905290921682820152606082018a90525133918b917f4a29c2a0a0125871fb9cb0dcda775193070a8dd3a98e792b07eca515745de3bf9181900360800190a350505050505061081a61278f565b6000546001600160a01b03163314611d045760405162461bcd60e51b815260206004820152600a60248201526937b7363c9030b236b4b760b11b60448201526064016104bb565b6001546040517fca4f2f25d0898edd99413412fb94012f9e54ec8142f9b093e7720646a95b16a991611d43916001600160a01b03909116908490613065565b60405180910390a1600180546001600160a01b0319166001600160a01b0392909216919091179055565b6000611d77612727565b60008311611dd95760405162461bcd60e51b815260206004820152602960248201527f53667457726170526f757465723a20756e7374616b6520616d6f756e7420636160448201526806e6e6f7420626520360bc1b60648201526084016104bb565b611de4843385612800565b60008490506000816001600160a01b031663baecd3266040518163ffffffff1660e01b8152600401602060405180830381865afa158015611e29573d6000803e3d6000fd5b505050506040513d601f19601f82011682018060405250810190611e4d9190612f9f565b90506000826001600160a01b0316634eb079816040518163ffffffff1660e01b8152600401602060405180830381865afa158015611e8f573d6000803e3d6000fd5b505050506040513d601f19601f82011682018060405250810190611eb39190612f5d565b6001600160a01b038316600090815260666020908152604080832084845290915281205491925003611f7a5760405163b390c0ab60e01b81526001600160a01b0384169063b390c0ab90611f0e9089906000906004016133b7565b6020604051808303816000875af1158015611f2d573d6000803e3d6000fd5b505050506040513d601f19601f82011682018060405250810190611f519190612f5d565b6001600160a01b038316600090815260666020908152604080832085845290915290205561200b565b6001600160a01b0382811660009081526066602090815260408083208584529091529081902054905163b390c0ab60e01b81529185169163b390c0ab91611fc6918a91906004016133b7565b6020604051808303816000875af1158015611fe5573d6000803e3d6000fd5b505050506040513d601f19601f820116820180604052508101906120099190612f5d565b505b8460000361204b576001600160a01b03821660009081526066602090815260408083208484529091529020546120449083903389612434565b935061220a565b60405163131f9f3f60e11b8152600481018690526001600160a01b0383169063263f3e7e90602401602060405180830381865afa158015612090573d6000803e3d6000fd5b505050506040513d601f19601f820116820180604052508101906120b49190612f5d565b811461210d5760405162461bcd60e51b815260206004820152602260248201527f53667457726170526f757465723a20736c6f7420646f6573206e6f74206d61746044820152610c6d60f31b60648201526084016104bb565b6040516331a9108f60e11b8152600481018690526001600160a01b03831690636352211e90602401602060405180830381865afa158015612152573d6000803e3d6000fd5b505050506040513d601f19601f820116820180604052508101906121769190612f9f565b6001600160a01b0316336001600160a01b0316146121d55760405162461bcd60e51b815260206004820152601c60248201527b29b33a2bb930b82937baba32b91d103737ba1039b33a1037bbb732b960211b60448201526064016104bb565b6001600160a01b038216600090815260666020908152604080832084845290915290205461220690839087896124b3565b8493505b336001600160a01b0316876001600160a01b03167f2c904b13f3b9bc1fa77b4e439e2deb5507c11d7a25e042a5bf6374837582f0468484888b604051612253949392919061303f565b60405180910390a350505061226661278f565b9392505050565b6000612277612bb5565b805490915060ff600160401b82041615906001600160401b031660008115801561229e5750825b90506000826001600160401b031660011480156122ba5750303b155b9050811580156122c8575080155b156122e65760405163f92ee8a960e01b815260040160405180910390fd5b84546001600160401b0319166001178555831561230f57845460ff60401b1916600160401b1785555b61231833612bd9565b61232188612bed565b606480546001600160a01b03808a166001600160a01b0319928316179092556065805492891692909116919091179055831561239757845460ff60401b19168555604051600181527fc7f505b2f371ae2175ee4913f4499e1f2633a7b5936321eed1cdaeb6115181d29060200160405180910390a15b5050505050505050565b6032546001600160a01b031633146123cb5760405162461bcd60e51b81526004016104bb9061307f565b6033546040517f7d767be5a57784412a13945bd5114db84487d2b007bfcdb2f449fc9ea35437f79161240a916001600160a01b03909116908490613065565b60405180910390a1603380546001600160a01b0319166001600160a01b0392909216919091179055565b6040516307a42e0160e11b8152600481018490526001600160a01b038381166024830152604482018390526000918691821690630f485c02906064016020604051808303816000875af115801561248f573d6000803e3d6000fd5b505050506040513d601f19601f820116820180604052508101906107c59190612f5d565b604051630310ed7f60e41b815260048101849052602481018390526044810182905284906001600160a01b0382169063310ed7f0906064015b600060405180830381600087803b15801561250657600080fd5b505af115801561251a573d6000803e3d6000fd5b505050505050505050565b73eeeeeeeeeeeeeeeeeeeeeeeeeeeeeeeeeeeeeeed196001600160a01b038416016125f357604080516000808252602082019092526001600160a01b0384169083906040516125749190613401565b60006040518083038185875af1925050503d80600081146125b1576040519150601f19603f3d011682016040523d82523d6000602084013e6125b6565b606091505b50509050806125ed5760405162461bcd60e51b815260206004820152600360248201526253544560e81b60448201526064016104bb565b50505050565b6000836001600160a01b03163b1161261d5760405162461bcd60e51b81526004016104bb90613430565b600080846001600160a01b031663a9059cbb60e01b8585604051602401612645929190612f76565b60408051601f198184030181529181526020820180516001600160e01b03166001600160e01b03199094169390931790925290516126839190613401565b6000604051808303816000865af19150503d80600081146126c0576040519150601f19603f3d011682016040523d82523d6000602084013e6126c5565b606091505b50915091508180156126ef5750805115806126ef5750808060200190518101906126ef919061345c565b6127205760405162461bcd60e51b815260206004820152600260248201526114d560f21b60448201526064016104bb565b5050505050565b6000612731612bfe565b80549091506001190161275757604051633ee5aeb560e01b815260040160405180910390fd5b60029055565b6040516323b872dd60e01b815284906001600160a01b038216906323b872dd906124ec90879087908790600401613477565b6000612799612bfe565b6001905550565b604051632142170760e11b815283906001600160a01b038216906342842e0e906127d290309087908790600401613477565b600060405180830381600087803b1580156127ec57600080fd5b505af1158015612397573d6000803e3d6000fd5b73eeeeeeeeeeeeeeeeeeeeeeeeeeeeeeeeeeeeeeed196001600160a01b038416016128c357326001600160a01b03831614806128445750336001600160a01b038316145b6128825760405162461bcd60e51b815260206004820152600f60248201526e0e6cadcc8cae440dad2e6dac2e8c6d608b1b60448201526064016104bb565b80341015610bfb5760405162461bcd60e51b815260206004820152600e60248201526d0ecc2d8eaca40dad2e6dac2e8c6d60931b60448201526064016104bb565b6000836001600160a01b03163b116128ed5760405162461bcd60e51b81526004016104bb90613430565b600080846001600160a01b03166323b872dd60e01b85308660405160240161291793929190613477565b60408051601f198184030181529181526020820180516001600160e01b03166001600160e01b03199094169390931790925290516129559190613401565b6000604051808303816000865af19150503d8060008114612992576040519150601f19603f3d011682016040523d82523d6000602084013e612997565b606091505b50915091508180156129c15750805115806129c15750808060200190518101906129c1919061345c565b6127205760405162461bcd60e51b815260206004820152600360248201526229aa2360e91b60448201526064016104bb565b60405163095ea7b360e01b815283906001600160a01b0382169063095ea7b3906127d29086908690600401612f76565b6040516323b872dd60e01b815283906001600160a01b038216906323b872dd906127d290309087908790600401613477565b6040516323b872dd60e01b815283906001600160a01b038216906323b872dd906127d290869030908790600401613477565b6000836001600160a01b03163b11612ab15760405162461bcd60e51b81526004016104bb90613430565b600080846001600160a01b031663095ea7b360e01b8585604051602401612ad9929190612f76565b60408051601f198184030181529181526020820180516001600160e01b03166001600160e01b0319909416939093179092529051612b179190613401565b6000604051808303816000865af19150503d8060008114612b54576040519150601f19603f3d011682016040523d82523d6000602084013e612b59565b606091505b5091509150818015612b83575080511580612b83575080806020019051810190612b83919061345c565b6127205760405162461bcd60e51b815260206004820152600360248201526229a0a360e91b60448201526064016104bb565b7ff0c57e16840df040f15088dc2f81fe391c3923bec73e23a9662efc9c229c6a0090565b612be1612c22565b612bea81612c49565b50565b612bf5612c22565b612bea81612c95565b7f9b779b17422d0df92223018b32b4d1fa46e071723d6817e2486d003becc55f0090565b612c2a612cd9565b612c4757604051631afcd79f60e31b815260040160405180910390fd5b565b612c51612c22565b600080546001600160a01b0319166001600160a01b0383161781556040516000805160206134dc83398151915291612c8a918490613065565b60405180910390a150565b612c9d612c22565b603280546001600160a01b0319166001600160a01b0383161790556040516000805160206134bc83398151915290612c8a906000908490613065565b6000612ce3612bb5565b54600160401b900460ff16919050565b6001600160a01b0381168114612bea57600080fd5b60008083601f840112612d1a57600080fd5b5081356001600160401b03811115612d3157600080fd5b602083019150836020828501011115612d4957600080fd5b9250929050565b60008060008060008060a08789031215612d6957600080fd5b8635612d7481612cf3565b955060208701359450604087013593506060870135925060808701356001600160401b03811115612da457600080fd5b612db089828a01612d08565b979a9699509497509295939492505050565b600060208284031215612dd457600080fd5b81356001600160e01b03198116811461226657600080fd5b6001600160a01b0391909116815260200190565b600080600060608486031215612e1557600080fd5b8335612e2081612cf3565b95602085013595506040909401359392505050565b600080600080600060808688031215612e4d57600080fd5b8535612e5881612cf3565b94506020860135612e6881612cf3565b93506040860135925060608601356001600160401b03811115612e8a57600080fd5b612e9688828901612d08565b969995985093965092949392505050565b60008060408385031215612eba57600080fd5b50508035926020909101359150565b600060208284031215612edb57600080fd5b813561226681612cf3565b600080600060608486031215612efb57600080fd5b8335612f0681612cf3565b92506020840135612f1681612cf3565b91506040840135612f2681612cf3565b809150509250925092565b60008060408385031215612f4457600080fd5b8235612f4f81612cf3565b946020939093013593505050565b600060208284031215612f6f57600080fd5b5051919050565b6001600160a01b03929092168252602082015260400190565b8051612f9a81612cf3565b919050565b600060208284031215612fb157600080fd5b815161226681612cf3565b6020808252602c908201527f53667457726170526f757465723a20736674207772617070656420746f6b656e60408201526b081b9bdd0818dc99585d195960a21b606082015260800190565b6020808252601f908201527f53667457726170526f757465723a206e6f74206f776e65642073667420696400604082015260600190565b6001600160a01b0394909416845260208401929092526040830152606082015260800190565b6001600160a01b0392831681529116602082015260400190565b6020808252600d908201526c37b7363c9033b7bb32b93737b960991b604082015260600190565b604051606081016001600160401b03811182821017156130d657634e487b7160e01b600052604160045260246000fd5b60405290565b60405161014081016001600160401b03811182821017156130d657634e487b7160e01b600052604160045260246000fd5b60006080828403121561311f57600080fd5b604051608081016001600160401b038111828210171561314f57634e487b7160e01b600052604160045260246000fd5b8060405250809150825161316281612cf3565b8152602083015161317281612cf3565b8060208301525060408301516040820152606083015160608201525092915050565b80516001600160401b0381168114612f9a57600080fd5b6000606082840312156131bd57600080fd5b6131c56130a6565b9050815161ffff811681146131d957600080fd5b815260208201516131e981612cf3565b60208201526131fa60408301613194565b604082015292915050565b60006060828403121561321757600080fd5b61321f6130a6565b9050815161322c81612cf3565b8152602082015161323c81612cf3565b602082015260408201516131fa81612cf3565b600060a0828403121561326157600080fd5b60405160a081016001600160401b038111828210171561329157634e487b7160e01b600052604160045260246000fd5b80604052508091508251815260208301516020820152604083015160408201526132bd60608401613194565b60608201526132ce60808401613194565b60808201525092915050565b80518015158114612f9a57600080fd5b60006102a082840312156132fd57600080fd5b6133056130dc565b61330f848461310d565b815261331e84608085016131ab565b60208201526133308460e08501613205565b604082015261334384610140850161324f565b60608201526133556101e08401612f8f565b60808201526133676102008401612f8f565b60a08201526133796102208401612f8f565b60c082015261338b6102408401613194565b60e082015261339d61026084016132da565b610100820152610280929092015161012083015250919050565b918252602082015260400190565b634e487b7160e01b600052601160045260246000fd5b8181038181111561081a5761081a6133c5565b8082018082111561081a5761081a6133c5565b6000825160005b818110156134225760208186018101518583015201613408565b506000920191825250919050565b602080825260129082015271696e76616c696420756e6465726c79696e6760701b604082015260600190565b60006020828403121561346e57600080fd5b612266826132da565b6001600160a01b03938416815291909216602082015260408101919091526060019056fecf7d371620e0fb0f1a97aa90ebc4b6c044a5052171635dc739ad8474f9efb5131ba669d4a78521f2ad26e8e0fcbcdd626a63f34d68f326bc232a3abe2a5d042af9ffabca9c8276e99321725bcb43fb076a6c66a54b7f21c4e8146d8519b417dca264697066735822122045e1864ede6971a6c44d2f38467cfa608821759dcbc4233c2e5b784c5756f8a264736f6c63430008140033",
  "devdoc": {
    "errors": {
      "InvalidInitialization()": [
        {
          "details": "The contract is already initialized."
        }
      ],
      "NotInitializing()": [
        {
          "details": "The contract is not initializing."
        }
      ],
      "ReentrancyGuardReentrantCall()": [
        {
          "details": "Unauthorized reentrant call."
        }
      ]
    },
    "events": {
      "Initialized(uint64)": {
        "details": "Triggered when the contract has been initialized or reinitialized."
      }
    },
    "kind": "dev",
    "methods": {
      "supportsInterface(bytes4)": {
        "details": "Returns true if this contract implements the interface defined by `interfaceId`. See the corresponding https://eips.ethereum.org/EIPS/eip-165#how-interfaces-are-identified[EIP section] to learn more about how these ids are created. This function call must use less than 30 000 gas."
      }
    },
    "version": 1
  },
  "userdoc": {
    "kind": "user",
    "methods": {},
    "version": 1
  },
  "storageLayout": {
    "storage": [
      {
        "astId": 5070,
        "contract": "contracts/SftWrapRouter.sol:SftWrapRouter",
        "label": "admin",
        "offset": 0,
        "slot": "0",
        "type": "t_address"
      },
      {
        "astId": 5072,
        "contract": "contracts/SftWrapRouter.sol:SftWrapRouter",
        "label": "pendingAdmin",
        "offset": 0,
        "slot": "1",
        "type": "t_address"
      },
      {
        "astId": 5167,
        "contract": "contracts/SftWrapRouter.sol:SftWrapRouter",
        "label": "__gap",
        "offset": 0,
        "slot": "2",
        "type": "t_array(t_uint256)48_storage"
      },
      {
        "astId": 5283,
        "contract": "contracts/SftWrapRouter.sol:SftWrapRouter",
        "label": "governor",
        "offset": 0,
        "slot": "50",
        "type": "t_address"
      },
      {
        "astId": 5285,
        "contract": "contracts/SftWrapRouter.sol:SftWrapRouter",
        "label": "pendingGovernor",
        "offset": 0,
        "slot": "51",
        "type": "t_address"
      },
      {
        "astId": 5380,
        "contract": "contracts/SftWrapRouter.sol:SftWrapRouter",
        "label": "__gap",
        "offset": 0,
        "slot": "52",
        "type": "t_array(t_uint256)48_storage"
      },
      {
        "astId": 2484,
        "contract": "contracts/SftWrapRouter.sol:SftWrapRouter",
        "label": "openFundMarket",
        "offset": 0,
        "slot": "100",
        "type": "t_address"
      },
      {
        "astId": 2486,
        "contract": "contracts/SftWrapRouter.sol:SftWrapRouter",
        "label": "sftWrappedTokenFactory",
        "offset": 0,
        "slot": "101",
        "type": "t_address"
      },
      {
        "astId": 2492,
        "contract": "contracts/SftWrapRouter.sol:SftWrapRouter",
        "label": "holdingSftIds",
        "offset": 0,
        "slot": "102",
        "type": "t_mapping(t_address,t_mapping(t_uint256,t_uint256))"
      }
    ],
    "types": {
      "t_address": {
        "encoding": "inplace",
        "label": "address",
        "numberOfBytes": "20"
      },
      "t_array(t_uint256)48_storage": {
        "base": "t_uint256",
        "encoding": "inplace",
        "label": "uint256[48]",
        "numberOfBytes": "1536"
      },
      "t_mapping(t_address,t_mapping(t_uint256,t_uint256))": {
        "encoding": "mapping",
        "key": "t_address",
        "label": "mapping(address => mapping(uint256 => uint256))",
        "numberOfBytes": "32",
        "value": "t_mapping(t_uint256,t_uint256)"
      },
      "t_mapping(t_uint256,t_uint256)": {
        "encoding": "mapping",
        "key": "t_uint256",
        "label": "mapping(uint256 => uint256)",
        "numberOfBytes": "32",
        "value": "t_uint256"
      },
      "t_uint256": {
        "encoding": "inplace",
        "label": "uint256",
        "numberOfBytes": "32"
      }
    }
  }
}