{
  "address": "0x2c8326A5b870a257c46adacbc71717Afa383Fe7A",
  "abi": [
    {
      "inputs": [],
      "stateMutability": "nonpayable",
      "type": "constructor"
    },
    {
      "inputs": [],
      "name": "InvalidInitialization",
      "type": "error"
    },
    {
      "inputs": [],
      "name": "NotInitializing",
      "type": "error"
    },
    {
      "inputs": [
        {
          "internalType": "address",
          "name": "owner",
          "type": "address"
        }
      ],
      "name": "OwnableInvalidOwner",
      "type": "error"
    },
    {
      "inputs": [
        {
          "internalType": "address",
          "name": "account",
          "type": "address"
        }
      ],
      "name": "OwnableUnauthorizedAccount",
      "type": "error"
    },
    {
      "inputs": [],
      "name": "ReentrancyGuardReentrantCall",
      "type": "error"
    },
    {
      "anonymous": false,
      "inputs": [
        {
          "indexed": true,
          "internalType": "address",
          "name": "verifier",
          "type": "address"
        }
      ],
      "name": "AddKycSBTVerifier",
      "type": "event"
    },
    {
      "anonymous": false,
      "inputs": [
        {
          "indexed": true,
          "internalType": "address",
          "name": "targetToken",
          "type": "address"
        },
        {
          "indexed": true,
          "internalType": "address",
          "name": "redemption",
          "type": "address"
        },
        {
          "indexed": true,
          "internalType": "address",
          "name": "requester",
          "type": "address"
        },
        {
          "indexed": false,
          "internalType": "bytes32",
          "name": "poolId",
          "type": "bytes32"
        },
        {
          "indexed": false,
          "internalType": "uint256",
          "name": "redemptionId",
          "type": "uint256"
        },
        {
          "indexed": false,
          "internalType": "uint256",
          "name": "targetTokenAmount",
          "type": "uint256"
        }
      ],
      "name": "CancelWithdrawRequest",
      "type": "event"
    },
    {
      "anonymous": false,
      "inputs": [
        {
          "indexed": true,
          "internalType": "address",
          "name": "payer",
          "type": "address"
        },
        {
          "indexed": true,
          "internalType": "address",
          "name": "currency",
          "type": "address"
        },
        {
          "indexed": true,
          "internalType": "address",
          "name": "feeReceiver",
          "type": "address"
        },
        {
          "indexed": false,
          "internalType": "uint256",
          "name": "feeAmount",
          "type": "uint256"
        }
      ],
      "name": "CollectDepositFee",
      "type": "event"
    },
    {
      "anonymous": false,
      "inputs": [
        {
          "indexed": true,
          "internalType": "address",
          "name": "targetToken",
          "type": "address"
        },
        {
          "indexed": true,
          "internalType": "address",
          "name": "currency",
          "type": "address"
        },
        {
          "indexed": true,
          "internalType": "address",
          "name": "depositor",
          "type": "address"
        },
        {
          "indexed": false,
          "internalType": "uint256",
          "name": "targetTokenAmount",
          "type": "uint256"
        },
        {
          "indexed": false,
          "internalType": "uint256",
          "name": "currencyAmount",
          "type": "uint256"
        },
        {
          "indexed": false,
          "internalType": "address[]",
          "name": "path",
          "type": "address[]"
        },
        {
          "indexed": false,
          "internalType": "bytes32[]",
          "name": "poolIds",
          "type": "bytes32[]"
        }
      ],
      "name": "Deposit",
      "type": "event"
    },
    {
      "anonymous": false,
      "inputs": [
        {
          "indexed": false,
          "internalType": "uint64",
          "name": "version",
          "type": "uint64"
        }
      ],
      "name": "Initialized",
      "type": "event"
    },
    {
      "anonymous": false,
      "inputs": [
        {
          "indexed": true,
          "internalType": "address",
          "name": "previousOwner",
          "type": "address"
        },
        {
          "indexed": true,
          "internalType": "address",
          "name": "newOwner",
          "type": "address"
        }
      ],
      "name": "OwnershipTransferStarted",
      "type": "event"
    },
    {
      "anonymous": false,
      "inputs": [
        {
          "indexed": true,
          "internalType": "address",
          "name": "previousOwner",
          "type": "address"
        },
        {
          "indexed": true,
          "internalType": "address",
          "name": "newOwner",
          "type": "address"
        }
      ],
      "name": "OwnershipTransferred",
      "type": "event"
    },
    {
      "anonymous": false,
      "inputs": [
        {
          "indexed": true,
          "internalType": "address",
          "name": "verifier",
          "type": "address"
        }
      ],
      "name": "RemoveKycSBTVerifier",
      "type": "event"
    },
    {
      "anonymous": false,
      "inputs": [
        {
          "indexed": false,
          "internalType": "address",
          "name": "feeManager",
          "type": "address"
        }
      ],
      "name": "SetFeeManager",
      "type": "event"
    },
    {
      "anonymous": false,
      "inputs": [
        {
          "indexed": true,
          "internalType": "address",
          "name": "token",
          "type": "address"
        },
        {
          "indexed": true,
          "internalType": "address",
          "name": "multiAssetPool",
          "type": "address"
        }
      ],
      "name": "SetMultiAssetPool",
      "type": "event"
    },
    {
      "anonymous": false,
      "inputs": [
        {
          "indexed": true,
          "internalType": "address",
          "name": "openFundMarket",
          "type": "address"
        }
      ],
      "name": "SetOpenFundMarket",
      "type": "event"
    },
    {
      "anonymous": false,
      "inputs": [
        {
          "indexed": true,
          "internalType": "address",
          "name": "currency",
          "type": "address"
        },
        {
          "indexed": true,
          "internalType": "address",
          "name": "targetToken",
          "type": "address"
        },
        {
          "indexed": false,
          "internalType": "address[]",
          "name": "path",
          "type": "address[]"
        }
      ],
      "name": "SetPath",
      "type": "event"
    },
    {
      "anonymous": false,
      "inputs": [
        {
          "indexed": true,
          "internalType": "address",
          "name": "targetToken",
          "type": "address"
        },
        {
          "indexed": true,
          "internalType": "address",
          "name": "currency",
          "type": "address"
        },
        {
          "indexed": true,
          "internalType": "bytes32",
          "name": "poolId",
          "type": "bytes32"
        }
      ],
      "name": "SetPoolId",
      "type": "event"
    },
    {
      "anonymous": false,
      "inputs": [
        {
          "indexed": true,
          "internalType": "address",
          "name": "targetToken",
          "type": "address"
        },
        {
          "indexed": true,
          "internalType": "address",
          "name": "currency",
          "type": "address"
        },
        {
          "indexed": true,
          "internalType": "address",
          "name": "requester",
          "type": "address"
        },
        {
          "indexed": false,
          "internalType": "bytes32",
          "name": "poolId",
          "type": "bytes32"
        },
        {
          "indexed": false,
          "internalType": "uint256",
          "name": "withdrawAmount",
          "type": "uint256"
        },
        {
          "indexed": false,
          "internalType": "uint256",
          "name": "redemptionId",
          "type": "uint256"
        }
      ],
      "name": "WithdrawRequest",
      "type": "event"
    },
    {
      "inputs": [],
      "name": "X_SOLV_BTC_POOL_ID",
      "outputs": [
        {
          "internalType": "bytes32",
          "name": "",
          "type": "bytes32"
        }
      ],
      "stateMutability": "view",
      "type": "function"
    },
    {
      "inputs": [],
      "name": "acceptOwnership",
      "outputs": [],
      "stateMutability": "nonpayable",
      "type": "function"
    },
    {
      "inputs": [
        {
          "internalType": "address",
          "name": "kycSBTVerifier_",
          "type": "address"
        }
      ],
      "name": "addKycSBTVerifier",
      "outputs": [],
      "stateMutability": "nonpayable",
      "type": "function"
    },
    {
      "inputs": [
        {
          "internalType": "address",
          "name": "targetToken_",
          "type": "address"
        },
        {
          "internalType": "address",
          "name": "redemption_",
          "type": "address"
        },
        {
          "internalType": "uint256",
          "name": "redemptionId_",
          "type": "uint256"
        }
      ],
      "name": "cancelWithdrawRequest",
      "outputs": [
        {
          "internalType": "uint256",
          "name": "targetTokenAmount_",
          "type": "uint256"
        }
      ],
      "stateMutability": "nonpayable",
      "type": "function"
    },
    {
      "inputs": [],
      "name": "checkKycSBT",
      "outputs": [
        {
          "internalType": "bool",
          "name": "",
          "type": "bool"
        }
      ],
      "stateMutability": "view",
      "type": "function"
    },
    {
      "inputs": [
        {
          "internalType": "bytes32",
          "name": "poolId_",
          "type": "bytes32"
        }
      ],
      "name": "checkPoolPermission",
      "outputs": [
        {
          "internalType": "bool",
          "name": "",
          "type": "bool"
        }
      ],
      "stateMutability": "view",
      "type": "function"
    },
    {
      "inputs": [
        {
          "internalType": "address",
          "name": "targetToken_",
          "type": "address"
        },
        {
          "internalType": "address",
          "name": "currency_",
          "type": "address"
        },
        {
          "internalType": "uint256",
          "name": "currencyAmount_",
          "type": "uint256"
        },
        {
          "internalType": "uint256",
          "name": "minimumTargetTokenAmount_",
          "type": "uint256"
        },
        {
          "internalType": "uint64",
          "name": "expireTime_",
          "type": "uint64"
        }
      ],
      "name": "deposit",
      "outputs": [
        {
          "internalType": "uint256",
          "name": "targetTokenAmount_",
          "type": "uint256"
        }
      ],
      "stateMutability": "nonpayable",
      "type": "function"
    },
    {
      "inputs": [],
      "name": "feeManager",
      "outputs": [
        {
          "internalType": "address",
          "name": "",
          "type": "address"
        }
      ],
      "stateMutability": "view",
      "type": "function"
    },
    {
      "inputs": [
        {
          "internalType": "address",
          "name": "owner_",
          "type": "address"
        },
        {
          "internalType": "address",
          "name": "openFundMarket_",
          "type": "address"
        }
      ],
      "name": "initialize",
      "outputs": [],
      "stateMutability": "nonpayable",
      "type": "function"
    },
    {
      "inputs": [
        {
          "internalType": "uint256",
          "name": "",
          "type": "uint256"
        }
      ],
      "name": "kycSBTVerifiers",
      "outputs": [
        {
          "internalType": "address",
          "name": "",
          "type": "address"
        }
      ],
      "stateMutability": "view",
      "type": "function"
    },
    {
      "inputs": [
        {
          "internalType": "address",
          "name": "",
          "type": "address"
        }
      ],
      "name": "multiAssetPools",
      "outputs": [
        {
          "internalType": "address",
          "name": "",
          "type": "address"
        }
      ],
      "stateMutability": "view",
      "type": "function"
    },
    {
      "inputs": [],
      "name": "openFundMarket",
      "outputs": [
        {
          "internalType": "address",
          "name": "",
          "type": "address"
        }
      ],
      "stateMutability": "view",
      "type": "function"
    },
    {
      "inputs": [],
      "name": "owner",
      "outputs": [
        {
          "internalType": "address",
          "name": "",
          "type": "address"
        }
      ],
      "stateMutability": "view",
      "type": "function"
    },
    {
      "inputs": [
        {
          "internalType": "address",
          "name": "",
          "type": "address"
        },
        {
          "internalType": "address",
          "name": "",
          "type": "address"
        },
        {
          "internalType": "uint256",
          "name": "",
          "type": "uint256"
        }
      ],
      "name": "paths",
      "outputs": [
        {
          "internalType": "address",
          "name": "",
          "type": "address"
        }
      ],
      "stateMutability": "view",
      "type": "function"
    },
    {
      "inputs": [],
      "name": "pendingOwner",
      "outputs": [
        {
          "internalType": "address",
          "name": "",
          "type": "address"
        }
      ],
      "stateMutability": "view",
      "type": "function"
    },
    {
      "inputs": [
        {
          "internalType": "address",
          "name": "",
          "type": "address"
        },
        {
          "internalType": "address",
          "name": "",
          "type": "address"
        }
      ],
      "name": "poolIds",
      "outputs": [
        {
          "internalType": "bytes32",
          "name": "",
          "type": "bytes32"
        }
      ],
      "stateMutability": "view",
      "type": "function"
    },
    {
      "inputs": [
        {
          "internalType": "address",
          "name": "kycSBTVerifier_",
          "type": "address"
        }
      ],
      "name": "removeKycSBTVerifier",
      "outputs": [],
      "stateMutability": "nonpayable",
      "type": "function"
    },
    {
      "inputs": [],
      "name": "renounceOwnership",
      "outputs": [],
      "stateMutability": "nonpayable",
      "type": "function"
    },
    {
      "inputs": [
        {
          "internalType": "address",
          "name": "feeManager_",
          "type": "address"
        }
      ],
      "name": "setFeeManager",
      "outputs": [],
      "stateMutability": "nonpayable",
      "type": "function"
    },
    {
      "inputs": [
        {
          "internalType": "address",
          "name": "token_",
          "type": "address"
        },
        {
          "internalType": "address",
          "name": "multiAssetPool_",
          "type": "address"
        }
      ],
      "name": "setMultiAssetPool",
      "outputs": [],
      "stateMutability": "nonpayable",
      "type": "function"
    },
    {
      "inputs": [
        {
          "internalType": "address",
          "name": "currency_",
          "type": "address"
        },
        {
          "internalType": "address",
          "name": "targetToken_",
          "type": "address"
        },
        {
          "internalType": "address[]",
          "name": "path_",
          "type": "address[]"
        }
      ],
      "name": "setPath",
      "outputs": [],
      "stateMutability": "nonpayable",
      "type": "function"
    },
    {
      "inputs": [
        {
          "internalType": "address",
          "name": "targetToken_",
          "type": "address"
        },
        {
          "internalType": "address",
          "name": "currency_",
          "type": "address"
        },
        {
          "internalType": "bytes32",
          "name": "poolId_",
          "type": "bytes32"
        }
      ],
      "name": "setPoolId",
      "outputs": [],
      "stateMutability": "nonpayable",
      "type": "function"
    },
    {
      "inputs": [
        {
          "internalType": "address",
          "name": "newOwner",
          "type": "address"
        }
      ],
      "name": "transferOwnership",
      "outputs": [],
      "stateMutability": "nonpayable",
      "type": "function"
    },
    {
      "inputs": [
        {
          "internalType": "address",
          "name": "targetToken_",
          "type": "address"
        },
        {
          "internalType": "address",
          "name": "currency_",
          "type": "address"
        },
        {
          "internalType": "uint256",
          "name": "withdrawAmount_",
          "type": "uint256"
        }
      ],
      "name": "withdrawRequest",
      "outputs": [
        {
          "internalType": "address",
          "name": "",
          "type": "address"
        },
        {
          "internalType": "uint256",
          "name": "",
          "type": "uint256"
        }
      ],
      "stateMutability": "nonpayable",
      "type": "function"
    }
  ],
  "transactionHash": "0x8d3907eb229e4e6e98057ddf5ac495001076ad94337176c847c6074ab3b688b3",
  "args": [],
  "numDeployments": 1,
  "solcInputHash": "c733e58d24195bebb4ed2023015ce7f8",
  "bytecode": "0x60806040523480156200001157600080fd5b506200001c62000022565b620000d6565b7ff0c57e16840df040f15088dc2f81fe391c3923bec73e23a9662efc9c229c6a00805468010000000000000000900460ff1615620000735760405163f92ee8a960e01b815260040160405180910390fd5b80546001600160401b0390811614620000d35780546001600160401b0319166001600160401b0390811782556040519081527fc7f505b2f371ae2175ee4913f4499e1f2633a7b5936321eed1cdaeb6115181d29060200160405180910390a15b50565b61383280620000e66000396000f3fe608060405234801561001057600080fd5b50600436106101285760003560e01c8063055227a11461012d578063073ef060146101425780631d98e7f81461015557806342c7774b1461017d578063472d35b91461019e578063485cc955146101b15780636534d8dc146101c4578063672262e5146101ef5780636dadff0b14610202578063715018a6146102225780637448130c1461022a57806379ba50971461025357806383ef7d171461025b5780638da5cb5b146102645780638df9dfda1461026c5780639ccd8a691461027f578063ba9cf75814610292578063cef4cde41461029a578063d0fb0203146102ad578063d2cfd97d146102c0578063e30c3978146102e1578063f2fde38b146102e9578063f355d417146102fc578063f6d852e21461030f575b600080fd5b61014061013b366004612f03565b610322565b005b610140610150366004612fdb565b6104ab565b610168610163366004612ff8565b61058a565b60405190151581526020015b60405180910390f35b61019061018b366004613011565b610725565b604051908152602001610174565b6101406101ac366004612fdb565b610bf0565b6101406101bf366004613052565b610cb0565b6101906101d2366004613052565b600360209081526000928352604080842090915290825290205481565b6101906101fd3660046130a0565b610e11565b610215610210366004612ff8565b611272565b60405161017491906130ff565b61014061129c565b610215610238366004612fdb565b6004602052600090815260409020546001600160a01b031681565b6101406112b0565b61019060001981565b6102156112ef565b61014061027a366004613011565b61130a565b61014061028d366004613052565b611404565b61016861151f565b6102156102a8366004613011565b6115e4565b600554610215906001600160a01b031681565b6102d36102ce366004613011565b611629565b604051610174929190613113565b610215611bb6565b6101406102f7366004612fdb565b611bc1565b600054610215906001600160a01b031681565b61014061031d366004612fdb565b611c32565b61032a611d78565b6001600160a01b0383166103595760405162461bcd60e51b81526004016103509061312c565b60405180910390fd5b6001600160a01b03821661037f5760405162461bcd60e51b81526004016103509061315b565b60005b81518110156104245760006001600160a01b03168282815181106103a8576103a861319f565b60200260200101516001600160a01b0316036104125760405162461bcd60e51b815260206004820152602360248201527f536f6c76425443526f7574657256323a20696e76616c6964207061746820746f60448201526235b2b760e91b6064820152608401610350565b8061041c816131cb565b915050610382565b506001600160a01b0380841660009081526002602090815260408083209386168352928152919020825161045a92840190612dc1565b50816001600160a01b0316836001600160a01b03167fc3799aea01bc3147c6d65980a35dbf4661fb244ecebf3890db31c1dea0e0131c8360405161049e9190613228565b60405180910390a3505050565b6104b3611d78565b6001600160a01b0381166105135760405162461bcd60e51b815260206004820152602160248201527f536f6c76425443526f7574657256323a20696e76616c696420766572696669656044820152603960f91b6064820152608401610350565b60018054808201825560009182527fb10e2d527612073b26eecdfd717e6a320cf44b4afac2b0732d9fcbe2b7fa0cf60180546001600160a01b0319166001600160a01b03841690811790915560405190917f406973f217cd9d1d2338d714098813a16e977aeaa9781bd83da782276082a11391a250565b6000805460405162daa6b160e61b8152600481018490526001600160a01b0390911690829082906336a9ac40906024016102a060405180830381865afa1580156105d8573d6000803e3d6000fd5b505050506040513d601f19601f820116820180604052508101906105fc91906133e6565b905080610100015115610613575060019392505050565b6040516321f8a72160e01b81527a27a326abb434ba32b634b9ba29ba3930ba32b3bca6b0b730b3b2b960291b60048201526000906001600160a01b038416906321f8a72190602401602060405180830381865afa158015610678573d6000803e3d6000fd5b505050506040513d601f19601f8201168201806040525081019061069c91906134b3565b60405163f409981160e01b8152600481018790523360248201529091506001600160a01b0382169063f409981190604401602060405180830381865afa1580156106ea573d6000803e3d6000fd5b505050506040513d601f19601f8201168201806040525081019061070e91906134d0565b8061071c575061071c61151f565b95945050505050565b600061072f611daa565b600061073b8484611de0565b6000805460405162daa6b160e61b8152600481018490529293506001600160a01b03169182906336a9ac40906024016102a060405180830381865afa158015610788573d6000803e3d6000fd5b505050506040513d601f19601f820116820180604052508101906107ac91906133e6565b805180516040918201516001600160a01b03808c1660009081526004602081905290859020549451639f0b8d0360e01b81529596509294919316918291639f0b8d03916107fd918791879101613113565b602060405180830381865afa15801561081a573d6000803e3d6000fd5b505050506040513d601f19601f8201168201806040525081019061083e91906134b3565b6001600160a01b03168a6001600160a01b03161461086e5760405162461bcd60e51b8152600401610350906134eb565b604051631398fee160e31b8152600481018990526001600160a01b038a1690639cc7f70890602401602060405180830381865afa1580156108b3573d6000803e3d6000fd5b505050506040513d601f19601f820116820180604052508101906108d79190613532565b96506108e489338a611f30565b6108ef89868a611f9a565b6040516302e9574960e51b815260048101879052602481018990526001600160a01b03861690635d2ae92090604401600060405180830381600087803b15801561093857600080fd5b505af115801561094c573d6000803e3d6000fd5b50506040516370a0823160e01b8152600092506001600160a01b03861691506370a082319061097f9030906004016130ff565b602060405180830381865afa15801561099c573d6000803e3d6000fd5b505050506040513d601f19601f820116820180604052508101906109c09190613532565b905060006001600160a01b038516632f745c59306109df60018661354b565b6040518363ffffffff1660e01b81526004016109fc929190613113565b602060405180830381865afa158015610a19573d6000803e3d6000fd5b505050506040513d601f19601f82011682018060405250810190610a3d9190613532565b604051631398fee160e31b8152600481018290529091506001600160a01b03861690639cc7f70890602401602060405180830381865afa158015610a85573d6000803e3d6000fd5b505050506040513d601f19601f82011682018060405250810190610aa99190613532565b8914610b085760405162461bcd60e51b815260206004820152602860248201527f536f6c76425443526f7574657256323a2063616e63656c20616d6f756e74206e6044820152670dee840dac2e8c6d60c31b6064820152608401610350565b610b13858483611f9a565b604051630efe6a8b60e01b81526001600160a01b03841690630efe6a8b90610b4390889085908e9060040161355e565b600060405180830381600087803b158015610b5d57600080fd5b505af1158015610b71573d6000803e3d6000fd5b50505050610b808c338b611fca565b336001600160a01b03168b6001600160a01b03168d6001600160a01b03167fbcab14a9990bc1fc30373acf248d280252f63653e6ccdcbd1f7929552a84c7388b8e8e604051610bd19392919061357f565b60405180910390a45050505050505050610be96121cc565b9392505050565b610bf8611d78565b6001600160a01b038116610c5a5760405162461bcd60e51b8152602060048201526024808201527f536f6c76425443526f7574657256323a20696e76616c696420666565206d616e60448201526330b3b2b960e11b6064820152608401610350565b600580546001600160a01b0319166001600160a01b0383161790556040517f5d0517e3a4eabea892d9750138cd21d4a6cf3b935b43d0598df7055f463819b290610ca59083906130ff565b60405180910390a150565b6000610cba6121dd565b805490915060ff600160401b82041615906001600160401b0316600081158015610ce15750825b90506000826001600160401b03166001148015610cfd5750303b155b905081158015610d0b575080155b15610d295760405163f92ee8a960e01b815260040160405180910390fd5b84546001600160401b03191660011785558315610d5257845460ff60401b1916600160401b1785555b6001600160a01b038716610da85760405162461bcd60e51b815260206004820152601e60248201527f536f6c76425443526f7574657256323a20696e76616c69642061646d696e00006044820152606401610350565b610db187612201565b610db9612233565b610dc286612243565b8315610e0857845460ff60401b19168555604051600181527fc7f505b2f371ae2175ee4913f4499e1f2633a7b5936321eed1cdaeb6115181d29060200160405180910390a15b50505050505050565b6000610e1b611daa565b60008411610e6a5760405162461bcd60e51b815260206004820152602860248201526000805160206137dd8339815191526044820152671e48185b5bdd5b9d60c21b6064820152608401610350565b610e758533866122f1565b60055460405163f3396f0960e01b815260009182916001600160a01b039091169063f3396f0990610eae908b908b908b90600401613595565b6040805180830381865afa158015610eca573d6000803e3d6000fd5b505050506040513d601f19601f82011682018060405250810190610eee91906135b9565b9150915085821115610f5e5760405162461bcd60e51b815260206004820152603360248201527f536f6c76425443526f7574657256323a2066656520616d6f756e74206578636560448201527219591cc818dd5c9c995b98de48185b5bdd5b9d606a1b6064820152608401610350565b8115610fc757610f6f878284611fca565b806001600160a01b0316876001600160a01b0316336001600160a01b03167f67605b1cdb32baa8cbffe03155e29db3f6fe971bd1d5a56e281720f4a0bc03f285604051610fbe91815260200190565b60405180910390a45b6001600160a01b038088166000908152600260209081526040808320938c1683529281528282208054845181840281018401909552808552929392909183018282801561103d57602002820191906000526020600020905b81546001600160a01b0316815260019091019060200180831161101f575b5050505050905060008151600161105491906135de565b6001600160401b0381111561106b5761106b612e50565b604051908082528060200260200182016040528015611094578160200160208202803683370190505b5090506110a1848961354b565b945060005b8251811161119757600081156110df57836110c260018461354b565b815181106110d2576110d261319f565b60200260200101516110e1565b8a5b905060008451831461110c578483815181106110ff576110ff61319f565b602002602001015161110e565b8c5b6001600160a01b03808216600090815260036020908152604080832093871683529290522054855191925090819086908690811061114e5761114e61319f565b6020908102919091010152600181016111725761116b828a6124e9565b9850611181565b61117e82848b8d612579565b98505b505050808061118f906131cb565b9150506110a6565b50868510156112005760405162461bcd60e51b815260206004820152602f60248201527f536f6c76425443526f7574657256323a2074617267657420746f6b656e20616d60448201526e0deeadce840dcdee840cadcdeeaced608b1b6064820152608401610350565b61120b8a3387611fca565b336001600160a01b0316896001600160a01b03168b6001600160a01b03167f6937da7733b7e101e4ab6e3a3ec12fe857d7a7ca921348ef12feff7abfcee01a888c878760405161125e94939291906135f1565b60405180910390a45050505061071c6121cc565b6001818154811061128257600080fd5b6000918252602090912001546001600160a01b0316905081565b6112a4611d78565b6112ae6000612b2f565b565b33806112ba611bb6565b6001600160a01b0316146112e3578060405163118cdaa760e01b815260040161035091906130ff565b6112ec81612b2f565b50565b6000806112fa612b52565b546001600160a01b031692915050565b611312611d78565b6001600160a01b0383166113385760405162461bcd60e51b81526004016103509061315b565b6001600160a01b03821661135e5760405162461bcd60e51b81526004016103509061312c565b806113ab5760405162461bcd60e51b815260206004820152601f60248201527f536f6c76425443526f7574657256323a20696e76616c696420706f6f6c4964006044820152606401610350565b6001600160a01b0380841660008181526003602090815260408083209487168084529490915280822085905551849392917f6c7f14630165c9c4c6ad227089f1fcb12296a6e2f333127dfac70ff6c01b752f91a4505050565b61140c611d78565b6001600160a01b0382166114625760405162461bcd60e51b815260206004820152601e60248201527f536f6c76425443526f7574657256323a20696e76616c696420746f6b656e00006044820152606401610350565b6001600160a01b0381166114c85760405162461bcd60e51b815260206004820152602760248201527f536f6c76425443526f7574657256323a20696e76616c6964206d756c746941736044820152661cd95d141bdbdb60ca1b6064820152608401610350565b6001600160a01b0382811660008181526004602052604080822080546001600160a01b0319169486169485179055517f6d8a13fa4299a53f42536f2eb442ae9416f32e834a4b630d335079cb5a2da9669190a35050565b6000805b6001548110156115dc576000600182815481106115425761154261319f565b6000918252602090912001546040516370a0823160e01b81526001600160a01b03909116906370a082319061157b9033906004016130ff565b602060405180830381865afa158015611598573d6000803e3d6000fd5b505050506040513d601f19601f820116820180604052508101906115bc9190613532565b11156115ca57600191505090565b806115d4816131cb565b915050611523565b506000905090565b6002602052826000526040600020602052816000526040600020818154811061160c57600080fd5b6000918252602090912001546001600160a01b0316925083915050565b600080611634611daa565b6001600160a01b03808616600090815260036020908152604080832093881683529290522054806116775760405162461bcd60e51b815260040161035090613653565b6000805460405162daa6b160e61b8152600481018490526001600160a01b03909116919082906336a9ac40906024016102a060405180830381865afa1580156116c4573d6000803e3d6000fd5b505050506040513d601f19601f820116820180604052508101906116e891906133e6565b90508060a001516001600160a01b0316876001600160a01b03161461171f5760405162461bcd60e51b815260040161035090613694565b805180516020808301516040938401516001600160a01b03808e166000908152600494859052869020549551639f0b8d0360e01b81529495929491939216918291639f0b8d0391611774918891879101613113565b602060405180830381865afa158015611791573d6000803e3d6000fd5b505050506040513d601f19601f820116820180604052508101906117b591906134b3565b6001600160a01b03168c6001600160a01b0316146117e55760405162461bcd60e51b8152600401610350906134eb565b6117f08c338c6122f1565b6040516322996bbb60e11b81526001600160a01b03858116600483015260248201849052600060448301819052606483018d90529190831690634532d776906084016020604051808303816000875af1158015611851573d6000803e3d6000fd5b505050506040513d601f19601f820116820180604052508101906118759190613532565b604051631398fee160e31b8152600481018290529091506001600160a01b03861690639cc7f70890602401602060405180830381865afa1580156118bd573d6000803e3d6000fd5b505050506040513d601f19601f820116820180604052508101906118e19190613532565b8b146118ff5760405162461bcd60e51b8152600401610350906136d7565b61190a858883611f9a565b6040516371033ad760e01b8152600481018990526024810182905260006044820152606481018c90526001600160a01b038816906371033ad790608401600060405180830381600087803b15801561196157600080fd5b505af1158015611975573d6000803e3d6000fd5b50506040516370a0823160e01b8152600094506001600160a01b03871693506370a0823192506119aa915030906004016130ff565b602060405180830381865afa1580156119c7573d6000803e3d6000fd5b505050506040513d601f19601f820116820180604052508101906119eb9190613532565b905060006001600160a01b038416632f745c5930611a0a60018661354b565b6040518363ffffffff1660e01b8152600401611a27929190613113565b602060405180830381865afa158015611a44573d6000803e3d6000fd5b505050506040513d601f19601f82011682018060405250810190611a689190613532565b604051631398fee160e31b8152600481018290529091506001600160a01b03851690639cc7f70890602401602060405180830381865afa158015611ab0573d6000803e3d6000fd5b505050506040513d601f19601f82011682018060405250810190611ad49190613532565b8b14611b365760405162461bcd60e51b815260206004820152602b60248201527f536f6c76425443526f7574657256323a20726564656d7074696f6e2076616c7560448201526a0ca40dcdee840dac2e8c6d60ab1b6064820152608401610350565b611b41843383612b76565b336001600160a01b03168c6001600160a01b03168e6001600160a01b03167f50aa488fffd286866bc78078718365f7c3880cf5f95179a61e37cf84c5fd76c58b8f86604051611b929392919061357f565b60405180910390a4929850919650505050505050611bae6121cc565b935093915050565b6000806112fa612ba8565b611bc9611d78565b6000611bd3612ba8565b80546001600160a01b0319166001600160a01b0384169081178255909150611bf96112ef565b6001600160a01b03167f38d16b8cac22d99fc7c124b9cd0de2d3fa1faef420bfe791d8c362d765e2270060405160405180910390a35050565b611c3a611d78565b60005b600154811015611d7457816001600160a01b031660018281548110611c6457611c6461319f565b6000918252602090912001546001600160a01b031603611d625760018054611c8d90829061354b565b81548110611c9d57611c9d61319f565b600091825260209091200154600180546001600160a01b039092169183908110611cc957611cc961319f565b9060005260206000200160006101000a8154816001600160a01b0302191690836001600160a01b031602179055506001805480611d0857611d0861371d565b600082815260208120820160001990810180546001600160a01b03191690559091019091556040516001600160a01b038416917f31fcc58e4308750615c411af54c81513de9d2e6c73cf7f3652928cdd25c8d5da91a25050565b80611d6c816131cb565b915050611c3d565b5050565b33611d816112ef565b6001600160a01b0316146112ae573360405163118cdaa760e01b815260040161035091906130ff565b6000611db4612bcc565b805490915060011901611dda57604051633ee5aeb560e01b815260040160405180910390fd5b60029055565b600080836001600160a01b0316638ba344706040518163ffffffff1660e01b8152600401602060405180830381865afa158015611e21573d6000803e3d6000fd5b505050506040513d601f19601f82011682018060405250810190611e4591906134b3565b60405163131f9f3f60e11b8152600481018590529091506000906001600160a01b0386169063263f3e7e90602401602060405180830381865afa158015611e90573d6000803e3d6000fd5b505050506040513d601f19601f82011682018060405250810190611eb49190613532565b604051636e14b58960e11b8152600481018290529091506000906001600160a01b0384169063dc296b1290602401608060405180830381865afa158015611eff573d6000803e3d6000fd5b505050506040513d601f19601f82011682018060405250810190611f239190613733565b5193505050505b92915050565b6040516323b872dd60e01b815283906001600160a01b038216906323b872dd90611f6290869030908790600401613595565b600060405180830381600087803b158015611f7c57600080fd5b505af1158015611f90573d6000803e3d6000fd5b5050505050505050565b60405163095ea7b360e01b815283906001600160a01b0382169063095ea7b390611f629086908690600401613113565b73eeeeeeeeeeeeeeeeeeeeeeeeeeeeeeeeeeeeeeed196001600160a01b0384160161209857604080516000808252602082019092526001600160a01b0384169083906040516120199190613781565b60006040518083038185875af1925050503d8060008114612056576040519150601f19603f3d011682016040523d82523d6000602084013e61205b565b606091505b50509050806120925760405162461bcd60e51b815260206004820152600360248201526253544560e81b6044820152606401610350565b50505050565b6000836001600160a01b03163b116120c25760405162461bcd60e51b8152600401610350906137b0565b600080846001600160a01b031663a9059cbb60e01b85856040516024016120ea929190613113565b60408051601f198184030181529181526020820180516001600160e01b03166001600160e01b03199094169390931790925290516121289190613781565b6000604051808303816000865af19150503d8060008114612165576040519150601f19603f3d011682016040523d82523d6000602084013e61216a565b606091505b509150915081801561219457508051158061219457508080602001905181019061219491906134d0565b6121c55760405162461bcd60e51b815260206004820152600260248201526114d560f21b6044820152606401610350565b5050505050565b60006121d6612bcc565b6001905550565b7ff0c57e16840df040f15088dc2f81fe391c3923bec73e23a9662efc9c229c6a0090565b612209612bf0565b6001600160a01b0381166112e3576000604051631e4fbdf760e01b815260040161035091906130ff565b61223b612bf0565b6112ae612c15565b6001600160a01b0381166122a95760405162461bcd60e51b815260206004820152602760248201527f536f6c76425443526f7574657256323a20696e76616c6964206f70656e46756e6044820152661913585c9ad95d60ca1b6064820152608401610350565b600080546001600160a01b0319166001600160a01b038316908117825560405190917fb972f7c26626db2ffb3776abf797d15304c8c1f62efdc3567bbdad00dddf896c91a250565b73eeeeeeeeeeeeeeeeeeeeeeeeeeeeeeeeeeeeeeed196001600160a01b038416016123b957326001600160a01b03831614806123355750336001600160a01b038316145b6123735760405162461bcd60e51b815260206004820152600f60248201526e0e6cadcc8cae440dad2e6dac2e8c6d608b1b6044820152606401610350565b803410156123b45760405162461bcd60e51b815260206004820152600e60248201526d0ecc2d8eaca40dad2e6dac2e8c6d60931b6044820152606401610350565b505050565b6000836001600160a01b03163b116123e35760405162461bcd60e51b8152600401610350906137b0565b600080846001600160a01b03166323b872dd60e01b85308660405160240161240d93929190613595565b60408051601f198184030181529181526020820180516001600160e01b03166001600160e01b031990941693909317909252905161244b9190613781565b6000604051808303816000865af19150503d8060008114612488576040519150601f19603f3d011682016040523d82523d6000602084013e61248d565b606091505b50915091508180156124b75750805115806124b75750808060200190518101906124b791906134d0565b6121c55760405162461bcd60e51b815260206004820152600360248201526229aa2360e91b6044820152606401610350565b6001600160a01b03808316600090815260046020819052604080832054905163b6b55f2560e01b815292931691829163b6b55f259161252e9187910190815260200190565b6020604051808303816000875af115801561254d573d6000803e3d6000fd5b505050506040513d601f19601f820116820180604052508101906125719190613532565b949350505050565b6001600160a01b038085166000908152600360209081526040808320938716835292905290812054806125be5760405162461bcd60e51b815260040161035090613653565b6125c78161058a565b6126235760405162461bcd60e51b815260206004820152602760248201527f536f6c76425443526f7574657256323a20706f6f6c207065726d697373696f6e6044820152660819195b9a595960ca1b6064820152608401610350565b6000805460405162daa6b160e61b8152600481018490526001600160a01b03909116919082906336a9ac40906024016102a060405180830381865afa158015612670573d6000803e3d6000fd5b505050506040513d601f19601f8201168201806040525081019061269491906133e6565b90508060a001516001600160a01b0316876001600160a01b0316146126cb5760405162461bcd60e51b815260040161035090613694565b805180516040918201516001600160a01b03808c1660009081526004602081905290859020549451639f0b8d0360e01b81529394929392909116918291639f0b8d039161271c918791879101613113565b602060405180830381865afa158015612739573d6000803e3d6000fd5b505050506040513d601f19601f8201168201806040525081019061275d91906134b3565b6001600160a01b03168b6001600160a01b03161461278d5760405162461bcd60e51b8152600401610350906134eb565b6127988a868b612c1d565b6040516308f3ecff60e41b815260048101879052602481018a9052600060448201526001600160401b03891660648201526001600160a01b03861690638f3ecff0906084016020604051808303816000875af11580156127fc573d6000803e3d6000fd5b505050506040513d601f19601f820116820180604052508101906128209190613532565b96506000836001600160a01b03166370a08231306040518263ffffffff1660e01b815260040161285091906130ff565b602060405180830381865afa15801561286d573d6000803e3d6000fd5b505050506040513d601f19601f820116820180604052508101906128919190613532565b905060006001600160a01b038516632f745c59306128b060018661354b565b6040518363ffffffff1660e01b81526004016128cd929190613113565b602060405180830381865afa1580156128ea573d6000803e3d6000fd5b505050506040513d601f19601f8201168201806040525081019061290e9190613532565b60405163131f9f3f60e11b8152600481018290529091506001600160a01b0386169063263f3e7e90602401602060405180830381865afa158015612956573d6000803e3d6000fd5b505050506040513d601f19601f8201168201806040525081019061297a9190613532565b84146129d65760405162461bcd60e51b815260206004820152602560248201527f536f6c76425443526f7574657256323a20736861726520736c6f74206e6f74206044820152640dac2e8c6d60db1b6064820152608401610350565b604051631398fee160e31b8152600481018290526001600160a01b03861690639cc7f70890602401602060405180830381865afa158015612a1b573d6000803e3d6000fd5b505050506040513d601f19601f82011682018060405250810190612a3f9190613532565b8914612a5d5760405162461bcd60e51b8152600401610350906136d7565b60405163095ea7b360e01b81526001600160a01b0386169063095ea7b390612a8b9086908590600401613113565b600060405180830381600087803b158015612aa557600080fd5b505af1158015612ab9573d6000803e3d6000fd5b5050604051630efe6a8b60e01b81526001600160a01b0386169250630efe6a8b9150612aed90889085908e9060040161355e565b600060405180830381600087803b158015612b0757600080fd5b505af1158015612b1b573d6000803e3d6000fd5b505050505050505050505050949350505050565b6000612b39612ba8565b80546001600160a01b03191681559050611d7482612d4b565b7f9016d09d72d40fdae2fd8ceac6b6234c7706214fd39c1cd1e609a0528c19930090565b6040516323b872dd60e01b815283906001600160a01b038216906323b872dd90611f6290309087908790600401613595565b7f237e158222e3e6968b72b9db0d8043aacf074ad9f650f0d1606b4d82ee432c0090565b7f9b779b17422d0df92223018b32b4d1fa46e071723d6817e2486d003becc55f0090565b612bf8612da7565b6112ae57604051631afcd79f60e31b815260040160405180910390fd5b6121cc612bf0565b6000836001600160a01b03163b11612c475760405162461bcd60e51b8152600401610350906137b0565b600080846001600160a01b031663095ea7b360e01b8585604051602401612c6f929190613113565b60408051601f198184030181529181526020820180516001600160e01b03166001600160e01b0319909416939093179092529051612cad9190613781565b6000604051808303816000865af19150503d8060008114612cea576040519150601f19603f3d011682016040523d82523d6000602084013e612cef565b606091505b5091509150818015612d19575080511580612d19575080806020019051810190612d1991906134d0565b6121c55760405162461bcd60e51b815260206004820152600360248201526229a0a360e91b6044820152606401610350565b6000612d55612b52565b80546001600160a01b038481166001600160a01b031983168117845560405193945091169182907f8be0079c531659141344cd1fd0a4f28419497f9722a3daafe3b4186f6b6457e090600090a3505050565b6000612db16121dd565b54600160401b900460ff16919050565b828054828255906000526020600020908101928215612e16579160200282015b82811115612e1657825182546001600160a01b0319166001600160a01b03909116178255602090920191600190910190612de1565b50612e22929150612e26565b5090565b5b80821115612e225760008155600101612e27565b6001600160a01b03811681146112ec57600080fd5b634e487b7160e01b600052604160045260246000fd5b604051608081016001600160401b0381118282101715612e8857612e88612e50565b60405290565b604051606081016001600160401b0381118282101715612e8857612e88612e50565b60405161014081016001600160401b0381118282101715612e8857612e88612e50565b604051601f8201601f191681016001600160401b0381118282101715612efb57612efb612e50565b604052919050565b600080600060608486031215612f1857600080fd5b8335612f2381612e3b565b9250602084810135612f3481612e3b565b925060408501356001600160401b0380821115612f5057600080fd5b818701915087601f830112612f6457600080fd5b813581811115612f7657612f76612e50565b8060051b9150612f87848301612ed3565b818152918301840191848101908a841115612fa157600080fd5b938501935b83851015612fcb5784359250612fbb83612e3b565b8282529385019390850190612fa6565b8096505050505050509250925092565b600060208284031215612fed57600080fd5b8135610be981612e3b565b60006020828403121561300a57600080fd5b5035919050565b60008060006060848603121561302657600080fd5b833561303181612e3b565b9250602084013561304181612e3b565b929592945050506040919091013590565b6000806040838503121561306557600080fd5b823561307081612e3b565b9150602083013561308081612e3b565b809150509250929050565b6001600160401b03811681146112ec57600080fd5b600080600080600060a086880312156130b857600080fd5b85356130c381612e3b565b945060208601356130d381612e3b565b9350604086013592506060860135915060808601356130f18161308b565b809150509295509295909350565b6001600160a01b0391909116815260200190565b6001600160a01b03929092168252602082015260400190565b60208082526021908201526000805160206137dd8339815191526040820152607960f81b606082015260800190565b60208082526024908201527f536f6c76425443526f7574657256323a20696e76616c6964207461726765745460408201526337b5b2b760e11b606082015260800190565b634e487b7160e01b600052603260045260246000fd5b634e487b7160e01b600052601160045260246000fd5b6000600182016131dd576131dd6131b5565b5060010190565b600081518084526020808501945080840160005b8381101561321d5781516001600160a01b0316875295820195908201906001016131f8565b509495945050505050565b602081526000610be960208301846131e4565b805161324681612e3b565b919050565b60006080828403121561325d57600080fd5b613265612e66565b9050815161327281612e3b565b8152602082015161328281612e3b565b80602083015250604082015160408201526060820151606082015292915050565b80516132468161308b565b6000606082840312156132c057600080fd5b6132c8612e8e565b9050815161ffff811681146132dc57600080fd5b815260208201516132ec81612e3b565b602082015260408201516132ff8161308b565b604082015292915050565b60006060828403121561331c57600080fd5b613324612e8e565b9050815161333181612e3b565b8152602082015161334181612e3b565b602082015260408201516132ff81612e3b565b600060a0828403121561336657600080fd5b60405160a081016001600160401b038111828210171561338857613388612e50565b806040525080915082518152602083015160208201526040830151604082015260608301516133b68161308b565b606082015260808301516133c98161308b565b6080919091015292915050565b8051801515811461324657600080fd5b60006102a082840312156133f957600080fd5b613401612eb0565b61340b848461324b565b815261341a84608085016132ae565b602082015261342c8460e0850161330a565b604082015261343f846101408501613354565b60608201526134516101e0840161323b565b6080820152613463610200840161323b565b60a0820152613475610220840161323b565b60c082015261348761024084016132a3565b60e082015261349961026084016133d6565b610100820152610280929092015161012083015250919050565b6000602082840312156134c557600080fd5b8151610be981612e3b565b6000602082840312156134e257600080fd5b610be9826133d6565b60208082526027908201527f536f6c76425443526f7574657256323a2074617267657420746f6b656e206e6f6040820152660e840dac2e8c6d60cb1b606082015260800190565b60006020828403121561354457600080fd5b5051919050565b81810381811115611f2a57611f2a6131b5565b6001600160a01b039390931683526020830191909152604082015260600190565b9283526020830191909152604082015260600190565b6001600160a01b039384168152919092166020820152604081019190915260600190565b600080604083850312156135cc57600080fd5b82519150602083015161308081612e3b565b80820180821115611f2a57611f2a6131b5565b8481526000602085818401526080604084015261361160808401866131e4565b838103606085015284518082528286019183019060005b8181101561364457835183529284019291840191600101613628565b50909998505050505050505050565b60208082526021908201527f536f6c76425443526f7574657256323a20706f6f6c4964206e6f7420666f756e6040820152601960fa1b606082015260800190565b60208082526023908201527f536f6c76425443526f7574657256323a2063757272656e6379206e6f74206d616040820152620e8c6d60eb1b606082015260800190565b60208082526026908201527f536f6c76425443526f7574657256323a2073686172652076616c7565206e6f74604082015265040dac2e8c6d60d31b606082015260800190565b634e487b7160e01b600052603160045260246000fd5b60006080828403121561374557600080fd5b61374d612e66565b82518152602083015161375f81612e3b565b6020820152604083810151908201526060928301519281019290925250919050565b6000825160005b818110156137a25760208186018101518583015201613788565b506000920191825250919050565b602080825260129082015271696e76616c696420756e6465726c79696e6760701b60408201526060019056fe536f6c76425443526f7574657256323a20696e76616c69642063757272656e63a26469706673582212207a73e41fb586ea70cde9d026e041a9a42acd609dff19b0014e90e3f9281af23964736f6c63430008140033",
  "devdoc": {
    "errors": {
      "InvalidInitialization()": [
        {
          "details": "The contract is already initialized."
        }
      ],
      "NotInitializing()": [
        {
          "details": "The contract is not initializing."
        }
      ],
      "OwnableInvalidOwner(address)": [
        {
          "details": "The owner is not a valid owner account. (eg. `address(0)`)"
        }
      ],
      "OwnableUnauthorizedAccount(address)": [
        {
          "details": "The caller account is not authorized to perform an operation."
        }
      ],
      "ReentrancyGuardReentrantCall()": [
        {
          "details": "Unauthorized reentrant call."
        }
      ]
    },
    "events": {
      "Initialized(uint64)": {
        "details": "Triggered when the contract has been initialized or reinitialized."
      }
    },
    "kind": "dev",
    "methods": {
      "acceptOwnership()": {
        "details": "The new owner accepts the ownership transfer."
      },
      "addKycSBTVerifier(address)": {
        "params": {
          "kycSBTVerifier_": "The KYC SBT verifier address"
        }
      },
      "cancelWithdrawRequest(address,address,uint256)": {
        "params": {
          "redemptionId_": "The redemption sft token ID",
          "redemption_": "The redemption sft token address",
          "targetToken_": "The target ERC20 token address to receive after canceling"
        },
        "returns": {
          "targetTokenAmount_": "The targetToken amount to receive"
        }
      },
      "checkPoolPermission(bytes32)": {
        "params": {
          "poolId_": "The poolId of the pool to deposit"
        }
      },
      "constructor": {
        "custom:oz-upgrades-unsafe-allow": "constructor"
      },
      "deposit(address,address,uint256,uint256,uint64)": {
        "params": {
          "currencyAmount_": "The amount of currency to deposit",
          "currency_": "The currency address to deposit",
          "expireTime_": "The expire time",
          "minimumTargetTokenAmount_": "The minimum acceptable return amount of target token",
          "targetToken_": "The target ERC20 token address to receive"
        },
        "returns": {
          "targetTokenAmount_": "The targetToken amount to receive"
        }
      },
      "initialize(address,address)": {
        "params": {
          "openFundMarket_": "The address of openFundMarket",
          "owner_": "The owner of this router"
        }
      },
      "owner()": {
        "details": "Returns the address of the current owner."
      },
      "pendingOwner()": {
        "details": "Returns the address of the pending owner."
      },
      "removeKycSBTVerifier(address)": {
        "params": {
          "kycSBTVerifier_": "The KYC SBT verifier address"
        }
      },
      "renounceOwnership()": {
        "details": "Leaves the contract without owner. It will not be possible to call `onlyOwner` functions. Can only be called by the current owner. NOTE: Renouncing ownership will leave the contract without an owner, thereby disabling any functionality that is only available to the owner."
      },
      "setFeeManager(address)": {
        "params": {
          "feeManager_": "The feeManager address"
        }
      },
      "setMultiAssetPool(address,address)": {
        "params": {
          "multiAssetPool_": "The multiAssetPool/xSolvBTCPool address",
          "token_": "The target ERC20 token address"
        }
      },
      "setPath(address,address,address[])": {
        "params": {
          "currency_": "The currency address to deposit",
          "path_": "The addresses of the path tokens that indicate how to convert currency to targetToken",
          "targetToken_": "The target ERC20 token address to receive"
        }
      },
      "setPoolId(address,address,bytes32)": {
        "params": {
          "currency_": "The currency address to deposit",
          "poolId_": "The poolId of the pool to deposit",
          "targetToken_": "The target ERC20 token address to receive"
        }
      },
      "transferOwnership(address)": {
        "details": "Starts the ownership transfer of the contract to a new account. Replaces the pending transfer if there is one. Can only be called by the current owner."
      },
      "withdrawRequest(address,address,uint256)": {
        "params": {
          "currency_": "The currency address to receive after claiming",
          "targetToken_": "The target ERC20 token address to withdraw",
          "withdrawAmount_": "The amount of targetToken to withdraw"
        },
        "returns": {
          "_0": "The address and ID of the redemption sft token to receive"
        }
      }
    },
    "version": 1
  },
  "userdoc": {
    "kind": "user",
    "methods": {
      "addKycSBTVerifier(address)": {
        "notice": "Add KYC SBT verifier"
      },
      "cancelWithdrawRequest(address,address,uint256)": {
        "notice": "Cancel the withdraw request"
      },
      "checkKycSBT()": {
        "notice": "Verify the KYC status of msg.sender"
      },
      "checkPoolPermission(bytes32)": {
        "notice": "Check if msg.sender is allowed to deposit to the pool"
      },
      "deposit(address,address,uint256,uint256,uint64)": {
        "notice": "Deposit currency and get targetToken"
      },
      "initialize(address,address)": {
        "notice": "RouterV2 initialization"
      },
      "removeKycSBTVerifier(address)": {
        "notice": "Remove KYC SBT verifier"
      },
      "setFeeManager(address)": {
        "notice": "Set the subscriptionFeeOracle address"
      },
      "setMultiAssetPool(address,address)": {
        "notice": "Set the multiAssetPool/xSolvBTCPool address for a target token"
      },
      "setPath(address,address,address[])": {
        "notice": "Set the path for a target token and currency"
      },
      "setPoolId(address,address,bytes32)": {
        "notice": "Set the poolId for a target token and currency"
      },
      "withdrawRequest(address,address,uint256)": {
        "notice": "Withdraw currency with target token from the pool"
      }
    },
    "version": 1
  },
  "storageLayout": {
    "storage": [
      {
        "astId": 5745,
        "contract": "contracts/SolvBTCRouterV2.sol:SolvBTCRouterV2",
        "label": "openFundMarket",
        "offset": 0,
        "slot": "0",
        "type": "t_address"
      },
      {
        "astId": 5748,
        "contract": "contracts/SolvBTCRouterV2.sol:SolvBTCRouterV2",
        "label": "kycSBTVerifiers",
        "offset": 0,
        "slot": "1",
        "type": "t_array(t_address)dyn_storage"
      },
      {
        "astId": 5755,
        "contract": "contracts/SolvBTCRouterV2.sol:SolvBTCRouterV2",
        "label": "paths",
        "offset": 0,
        "slot": "2",
        "type": "t_mapping(t_address,t_mapping(t_address,t_array(t_address)dyn_storage))"
      },
      {
        "astId": 5761,
        "contract": "contracts/SolvBTCRouterV2.sol:SolvBTCRouterV2",
        "label": "poolIds",
        "offset": 0,
        "slot": "3",
        "type": "t_mapping(t_address,t_mapping(t_address,t_bytes32))"
      },
      {
        "astId": 5765,
        "contract": "contracts/SolvBTCRouterV2.sol:SolvBTCRouterV2",
        "label": "multiAssetPools",
        "offset": 0,
        "slot": "4",
        "type": "t_mapping(t_address,t_address)"
      },
      {
        "astId": 5767,
        "contract": "contracts/SolvBTCRouterV2.sol:SolvBTCRouterV2",
        "label": "feeManager",
        "offset": 0,
        "slot": "5",
        "type": "t_address"
      },
      {
        "astId": 7066,
        "contract": "contracts/SolvBTCRouterV2.sol:SolvBTCRouterV2",
        "label": "__gap",
        "offset": 0,
        "slot": "6",
        "type": "t_array(t_uint256)44_storage"
      }
    ],
    "types": {
      "t_address": {
        "encoding": "inplace",
        "label": "address",
        "numberOfBytes": "20"
      },
      "t_array(t_address)dyn_storage": {
        "base": "t_address",
        "encoding": "dynamic_array",
        "label": "address[]",
        "numberOfBytes": "32"
      },
      "t_array(t_uint256)44_storage": {
        "base": "t_uint256",
        "encoding": "inplace",
        "label": "uint256[44]",
        "numberOfBytes": "1408"
      },
      "t_bytes32": {
        "encoding": "inplace",
        "label": "bytes32",
        "numberOfBytes": "32"
      },
      "t_mapping(t_address,t_address)": {
        "encoding": "mapping",
        "key": "t_address",
        "label": "mapping(address => address)",
        "numberOfBytes": "32",
        "value": "t_address"
      },
      "t_mapping(t_address,t_array(t_address)dyn_storage)": {
        "encoding": "mapping",
        "key": "t_address",
        "label": "mapping(address => address[])",
        "numberOfBytes": "32",
        "value": "t_array(t_address)dyn_storage"
      },
      "t_mapping(t_address,t_bytes32)": {
        "encoding": "mapping",
        "key": "t_address",
        "label": "mapping(address => bytes32)",
        "numberOfBytes": "32",
        "value": "t_bytes32"
      },
      "t_mapping(t_address,t_mapping(t_address,t_array(t_address)dyn_storage))": {
        "encoding": "mapping",
        "key": "t_address",
        "label": "mapping(address => mapping(address => address[]))",
        "numberOfBytes": "32",
        "value": "t_mapping(t_address,t_array(t_address)dyn_storage)"
      },
      "t_mapping(t_address,t_mapping(t_address,t_bytes32))": {
        "encoding": "mapping",
        "key": "t_address",
        "label": "mapping(address => mapping(address => bytes32))",
        "numberOfBytes": "32",
        "value": "t_mapping(t_address,t_bytes32)"
      },
      "t_uint256": {
        "encoding": "inplace",
        "label": "uint256",
        "numberOfBytes": "32"
      }
    }
  }
}