{
  "address": "0x30A61591c5bD3b5ae00d26f6b51C8eF0B9945bAF",
  "abi": [
    {
      "inputs": [],
      "stateMutability": "nonpayable",
      "type": "constructor"
    },
    {
      "inputs": [],
      "name": "InvalidInitialization",
      "type": "error"
    },
    {
      "inputs": [],
      "name": "NotInitializing",
      "type": "error"
    },
    {
      "inputs": [],
      "name": "ReentrancyGuardReentrantCall",
      "type": "error"
    },
    {
      "anonymous": false,
      "inputs": [
        {
          "indexed": false,
          "internalType": "uint64",
          "name": "version",
          "type": "uint64"
        }
      ],
      "name": "Initialized",
      "type": "event"
    },
    {
      "anonymous": false,
      "inputs": [
        {
          "indexed": false,
          "internalType": "uint256",
          "name": "oldMaxSingleWithdrawAmount",
          "type": "uint256"
        },
        {
          "indexed": false,
          "internalType": "uint256",
          "name": "newMaxSingleWithdrawAmount",
          "type": "uint256"
        }
      ],
      "name": "MaxSingleWithdrawAmountUpdated",
      "type": "event"
    },
    {
      "anonymous": false,
      "inputs": [
        {
          "indexed": false,
          "internalType": "uint256",
          "name": "oldMaxWindowWithdrawAmount",
          "type": "uint256"
        },
        {
          "indexed": false,
          "internalType": "uint256",
          "name": "newMaxWindowWithdrawAmount",
          "type": "uint256"
        },
        {
          "indexed": false,
          "internalType": "uint256",
          "name": "oldWindow",
          "type": "uint256"
        },
        {
          "indexed": false,
          "internalType": "uint256",
          "name": "newWindow",
          "type": "uint256"
        }
      ],
      "name": "MaxWindowWithdrawAmountUpdated",
      "type": "event"
    },
    {
      "anonymous": false,
      "inputs": [
        {
          "indexed": false,
          "internalType": "address",
          "name": "oldAdmin",
          "type": "address"
        },
        {
          "indexed": false,
          "internalType": "address",
          "name": "newAdmin",
          "type": "address"
        }
      ],
      "name": "NewAdmin",
      "type": "event"
    },
    {
      "anonymous": false,
      "inputs": [
        {
          "indexed": false,
          "internalType": "address",
          "name": "oldPendingAdmin",
          "type": "address"
        },
        {
          "indexed": false,
          "internalType": "address",
          "name": "newPendingAdmin",
          "type": "address"
        }
      ],
      "name": "NewPendingAdmin",
      "type": "event"
    },
    {
      "anonymous": false,
      "inputs": [
        {
          "indexed": false,
          "internalType": "address",
          "name": "oldFeeRecipient",
          "type": "address"
        },
        {
          "indexed": false,
          "internalType": "address",
          "name": "newFeeRecipient",
          "type": "address"
        }
      ],
      "name": "SetFeeRecipient",
      "type": "event"
    },
    {
      "anonymous": false,
      "inputs": [
        {
          "indexed": false,
          "internalType": "address",
          "name": "oldRedemptionVault",
          "type": "address"
        },
        {
          "indexed": false,
          "internalType": "address",
          "name": "newRedemptionVault",
          "type": "address"
        }
      ],
      "name": "SetRedemptionVault",
      "type": "event"
    },
    {
      "anonymous": false,
      "inputs": [
        {
          "indexed": true,
          "internalType": "address",
          "name": "user",
          "type": "address"
        },
        {
          "indexed": true,
          "internalType": "address",
          "name": "solvBTC",
          "type": "address"
        },
        {
          "indexed": true,
          "internalType": "address",
          "name": "btcPlus",
          "type": "address"
        },
        {
          "indexed": false,
          "internalType": "uint256",
          "name": "btcPlusAmount",
          "type": "uint256"
        },
        {
          "indexed": false,
          "internalType": "uint256",
          "name": "solvBTCAmount",
          "type": "uint256"
        },
        {
          "indexed": false,
          "internalType": "uint256",
          "name": "withdrawFee",
          "type": "uint256"
        }
      ],
      "name": "WithdrawBTCPlus",
      "type": "event"
    },
    {
      "anonymous": false,
      "inputs": [
        {
          "indexed": false,
          "internalType": "uint64",
          "name": "oldWithdrawFeeRate",
          "type": "uint64"
        },
        {
          "indexed": false,
          "internalType": "uint64",
          "name": "newWithdrawFeeRate",
          "type": "uint64"
        }
      ],
      "name": "WithdrawFeeRateUpdated",
      "type": "event"
    },
    {
      "inputs": [],
      "name": "DEFAULT_WINDOW",
      "outputs": [
        {
          "internalType": "uint256",
          "name": "",
          "type": "uint256"
        }
      ],
      "stateMutability": "view",
      "type": "function"
    },
    {
      "inputs": [],
      "name": "FEE_RATE_BASE",
      "outputs": [
        {
          "internalType": "uint64",
          "name": "",
          "type": "uint64"
        }
      ],
      "stateMutability": "view",
      "type": "function"
    },
    {
      "inputs": [],
      "name": "acceptAdmin",
      "outputs": [],
      "stateMutability": "nonpayable",
      "type": "function"
    },
    {
      "inputs": [],
      "name": "admin",
      "outputs": [
        {
          "internalType": "address",
          "name": "",
          "type": "address"
        }
      ],
      "stateMutability": "view",
      "type": "function"
    },
    {
      "inputs": [],
      "name": "btcPlus",
      "outputs": [
        {
          "internalType": "address",
          "name": "",
          "type": "address"
        }
      ],
      "stateMutability": "view",
      "type": "function"
    },
    {
      "inputs": [],
      "name": "feeRecipient",
      "outputs": [
        {
          "internalType": "address",
          "name": "",
          "type": "address"
        }
      ],
      "stateMutability": "view",
      "type": "function"
    },
    {
      "inputs": [
        {
          "internalType": "address",
          "name": "admin_",
          "type": "address"
        },
        {
          "internalType": "address",
          "name": "redemptionVault_",
          "type": "address"
        },
        {
          "internalType": "address",
          "name": "solvBTC_",
          "type": "address"
        },
        {
          "internalType": "address",
          "name": "btcPlus_",
          "type": "address"
        },
        {
          "internalType": "address",
          "name": "feeRecipient_",
          "type": "address"
        }
      ],
      "name": "initialize",
      "outputs": [],
      "stateMutability": "nonpayable",
      "type": "function"
    },
    {
      "inputs": [],
      "name": "pendingAdmin",
      "outputs": [
        {
          "internalType": "address",
          "name": "",
          "type": "address"
        }
      ],
      "stateMutability": "view",
      "type": "function"
    },
    {
      "inputs": [],
      "name": "rateLimit",
      "outputs": [
        {
          "components": [
            {
              "internalType": "uint256",
              "name": "amountWithdrawn",
              "type": "uint256"
            },
            {
              "internalType": "uint256",
              "name": "lastWithdrawnAt",
              "type": "uint256"
            },
            {
              "internalType": "uint256",
              "name": "maxSingleWithdrawAmount",
              "type": "uint256"
            },
            {
              "internalType": "uint256",
              "name": "maxWindowWithdrawAmount",
              "type": "uint256"
            },
            {
              "internalType": "uint256",
              "name": "window",
              "type": "uint256"
            }
          ],
          "internalType": "struct BTCPlusRedeem.RateLimit",
          "name": "",
          "type": "tuple"
        }
      ],
      "stateMutability": "view",
      "type": "function"
    },
    {
      "inputs": [],
      "name": "redemptionVault",
      "outputs": [
        {
          "internalType": "address",
          "name": "",
          "type": "address"
        }
      ],
      "stateMutability": "view",
      "type": "function"
    },
    {
      "inputs": [],
      "name": "remainingWithdrawAmount",
      "outputs": [
        {
          "internalType": "uint256",
          "name": "",
          "type": "uint256"
        }
      ],
      "stateMutability": "view",
      "type": "function"
    },
    {
      "inputs": [
        {
          "internalType": "address",
          "name": "feeRecipient_",
          "type": "address"
        }
      ],
      "name": "setFeeRecipient",
      "outputs": [],
      "stateMutability": "nonpayable",
      "type": "function"
    },
    {
      "inputs": [
        {
          "internalType": "uint256",
          "name": "maxSingleWithdrawAmount_",
          "type": "uint256"
        }
      ],
      "name": "setMaxSingleWithdrawAmount",
      "outputs": [],
      "stateMutability": "nonpayable",
      "type": "function"
    },
    {
      "inputs": [
        {
          "internalType": "uint256",
          "name": "maxWindowWithdrawAmount_",
          "type": "uint256"
        },
        {
          "internalType": "uint256",
          "name": "window_",
          "type": "uint256"
        }
      ],
      "name": "setMaxWindowWithdrawAmount",
      "outputs": [],
      "stateMutability": "nonpayable",
      "type": "function"
    },
    {
      "inputs": [
        {
          "internalType": "address",
          "name": "redemptionVault_",
          "type": "address"
        }
      ],
      "name": "setRedemptionVault",
      "outputs": [],
      "stateMutability": "nonpayable",
      "type": "function"
    },
    {
      "inputs": [
        {
          "internalType": "uint64",
          "name": "withdrawFeeRate_",
          "type": "uint64"
        }
      ],
      "name": "setWithdrawFeeRate",
      "outputs": [],
      "stateMutability": "nonpayable",
      "type": "function"
    },
    {
      "inputs": [],
      "name": "solvBTC",
      "outputs": [
        {
          "internalType": "address",
          "name": "",
          "type": "address"
        }
      ],
      "stateMutability": "view",
      "type": "function"
    },
    {
      "inputs": [
        {
          "internalType": "address",
          "name": "newPendingAdmin_",
          "type": "address"
        }
      ],
      "name": "transferAdmin",
      "outputs": [],
      "stateMutability": "nonpayable",
      "type": "function"
    },
    {
      "inputs": [
        {
          "internalType": "uint256",
          "name": "amount_",
          "type": "uint256"
        }
      ],
      "name": "withdrawBTCPlus",
      "outputs": [
        {
          "internalType": "uint256",
          "name": "solvBTCAmount_",
          "type": "uint256"
        }
      ],
      "stateMutability": "nonpayable",
      "type": "function"
    },
    {
      "inputs": [],
      "name": "withdrawFeeRate",
      "outputs": [
        {
          "internalType": "uint64",
          "name": "",
          "type": "uint64"
        }
      ],
      "stateMutability": "view",
      "type": "function"
    }
  ],
  "transactionHash": "0xcbfb5693170be21882c85356c2e8363e02e682dfcc7f6f6228159edface03610",
  "args": [],
  "numDeployments": 1,
  "solcInputHash": "d3f1a15dcdc7ff998bbc6803dc6ac848",
  "bytecode": "0x608060405234801561001057600080fd5b5061001961001e565b6100d0565b7ff0c57e16840df040f15088dc2f81fe391c3923bec73e23a9662efc9c229c6a00805468010000000000000000900460ff161561006e5760405163f92ee8a960e01b815260040160405180910390fd5b80546001600160401b03908116146100cd5780546001600160401b0319166001600160401b0390811782556040519081527fc7f505b2f371ae2175ee4913f4499e1f2633a7b5936321eed1cdaeb6115181d29060200160405180910390a15b50565b611d7e806100df6000396000f3fe608060405234801561001057600080fd5b50600436106100fc5760003560e01c80630e18b681146101015780631459457a1461010b578063267822471461011e5780632783ad70146101475780633a2b6e821461014f57806343a0c39f14610170578063469048401461017a57806361c3efb11461018257806361e08e721461019857806375829def146101e257806381797a5a146101f5578063b94813a414610208578063b9937ccb1461021b578063e24d86c314610223578063e74b981b1461022b578063ea99e6891461023e578063f851a44014610246578063f9ecbcdf14610259578063fcbe66561461026c578063fe29b3d91461027f575b600080fd5b610109610287565b005b610109610119366004611903565b61033b565b600154610131906001600160a01b031681565b60405161013e9190611968565b60405180910390f35b6101316106e9565b61016261015d36600461197c565b610707565b60405190815260200161013e565b6101626201518081565b610131610c8b565b61018b61271081565b60405161013e9190611995565b6101a0610ca9565b60405161013e9190600060a082019050825182526020830151602083015260408301516040830152606083015160608301526080830151608083015292915050565b6101096101f03660046119a9565b610d27565b6101096102033660046119cb565b610dba565b6101096102163660046119a9565b610ef2565b610131610faf565b610162610fca565b6101096102393660046119a9565b611006565b61018b6110b7565b600054610131906001600160a01b031681565b6101096102673660046119ed565b6110dc565b61010961027a36600461197c565b6111f2565b6101316112fd565b6001546001600160a01b031633146102db5760405162461bcd60e51b815260206004820152601260248201527137b7363c903832b73234b7339030b236b4b760711b60448201526064015b60405180910390fd5b600054600154604051600080516020611d298339815191529261030c926001600160a01b0391821692911690611a16565b60405180910390a160018054600080546001600160a01b03199081166001600160a01b03841617909155169055565b600061034561131b565b805490915060ff600160401b82041615906001600160401b031660008115801561036c5750825b90506000826001600160401b031660011480156103885750303b155b905081158015610396575080155b156103b45760405163f92ee8a960e01b815260040160405180910390fd5b84546001600160401b031916600117855583156103dd57845460ff60401b1916600160401b1785555b6001600160a01b038a166103ef573399505b6001600160a01b0389166104155760405162461bcd60e51b81526004016102d290611a30565b6001600160a01b03881661047e5760405162461bcd60e51b815260206004820152602a60248201527f425443506c757352656465656d3a20736f6c764254432063616e6e6f742062656044820152692030206164647265737360b01b60648201526084016102d2565b6001600160a01b0387166104e75760405162461bcd60e51b815260206004820152602a60248201527f425443506c757352656465656d3a20627463506c75732063616e6e6f742062656044820152692030206164647265737360b01b60648201526084016102d2565b6001600160a01b03861661050d5760405162461bcd60e51b81526004016102d290611a71565b600061051761133f565b6002810180546001600160a01b03808e166001600160a01b03199283161790925582548c83169082161783556001830180548c84169083168117909155600384018054938c16939092169290921790556201518060088301556040805163313ce56760e01b81529051929350909163313ce567916004818101926020929091908290030181865afa1580156105b0573d6000803e3d6000fd5b505050506040513d601f19601f820116820180604052508101906105d49190611ac1565b6105df90600a611be0565b6105ea90600a611bef565b8160040160030181905550600a886001600160a01b031663313ce5676040518163ffffffff1660e01b8152600401602060405180830381865afa158015610635573d6000803e3d6000fd5b505050506040513d601f19601f820116820180604052508101906106599190611ac1565b61066490600a611be0565b61066e9190611c06565b6006820155600060048201554260058201556106898b611363565b610691611377565b5083156106dd57845460ff60401b191685556040517fc7f505b2f371ae2175ee4913f4499e1f2633a7b5936321eed1cdaeb6115181d2906106d490600190611995565b60405180910390a15b50505050505050505050565b6000806106f461133f565b600101546001600160a01b031692915050565b6000610711611389565b600061071b61133f565b905060048101836107785760405162461bcd60e51b815260206004820152602160248201527f425443506c757352656465656d3a20616d6f756e742063616e6e6f74206265206044820152600360fc1b60648201526084016102d2565b80600201548411156107e95760405162461bcd60e51b815260206004820152603460248201527f425443506c757352656465656d3a20616d6f756e7420657863656564732073696044820152731b99db19481dda5d1a191c985dc8185b5bdd5b9d60621b60648201526084016102d2565b60008061080883600001548460010154856003015486600401546113bf565b91509150858110156108785760405162461bcd60e51b815260206004820152603360248201527f425443506c757352656465656d3a20616d6f756e7420657863656564732064616044820152721a5b1e481dda5d1a191c985dc8185b5bdd5b9d606a1b60648201526084016102d2565b6108828683611c28565b8355426001808501919091558401546040516238f13760e91b8152600481018890526001600160a01b03909116906371e26e0090602401602060405180830381865afa1580156108d6573d6000803e3d6000fd5b505050506040513d601f19601f820116820180604052508101906108fa9190611c3b565b84546002860154604051636eb1769f60e11b815292975087926001600160a01b039283169263dd62ed3e92610936929116903090600401611a16565b602060405180830381865afa158015610953573d6000803e3d6000fd5b505050506040513d601f19601f820116820180604052508101906109779190611c3b565b10156109d25760405162461bcd60e51b81526020600482015260366024820152600080516020611d09833981519152604482015275185b1b1bddd85b98d9481a5b9cdd59999a58da595b9d60521b60648201526084016102d2565b835460028501546040516370a0823160e01b815287926001600160a01b03908116926370a0823192610a0a9290911690600401611968565b602060405180830381865afa158015610a27573d6000803e3d6000fd5b505050506040513d601f19601f82011682018060405250810190610a4b9190611c3b565b1015610aa45760405162461bcd60e51b81526020600482015260346024820152600080516020611d0983398151915260448201527318985b185b98d9481a5b9cdd59999a58da595b9d60621b60648201526084016102d2565b6001840154610abd906001600160a01b0316338861143a565b6001840154604051630852cd8d60e31b8152600481018890526001600160a01b03909116906342966c6890602401600060405180830381600087803b158015610b0557600080fd5b505af1158015610b19573d6000803e3d6000fd5b505085546002870154610b3b93506001600160a01b039182169250168761143a565b600384015460009061271090610b6190600160a01b90046001600160401b031688611bef565b610b6b9190611c06565b905085811115610bd85760405162461bcd60e51b815260206004820152603260248201527f425443506c757352656465656d3a20776974686472617720666565206578636560448201527119591cc81cdbdb1d909510c8185b5bdd5b9d60721b60648201526084016102d2565b8015610bfc5784546003860154610bfc916001600160a01b03908116911683611633565b610c068187611c54565b8554909650610c1f906001600160a01b03163388611633565b60018501548554604080518a8152602081018a90529081018490526001600160a01b03928316929091169033907fd53e4485c3b92abaa59261bc638ef98ebacf0417993eb2dc4d3a89857755e1879060600160405180910390a45050505050610c86611824565b919050565b600080610c9661133f565b600301546001600160a01b031692915050565b610cdb6040518060a0016040528060008152602001600081526020016000815260200160008152602001600081525090565b6000610ce561133f565b6040805160a081018252600483015481526005830154602082015260068301549181019190915260078201546060820152600890910154608082015292915050565b6000546001600160a01b03163314610d515760405162461bcd60e51b81526004016102d290611c67565b6001546040517fca4f2f25d0898edd99413412fb94012f9e54ec8142f9b093e7720646a95b16a991610d90916001600160a01b03909116908490611a16565b60405180910390a1600180546001600160a01b0319166001600160a01b0392909216919091179055565b6000546001600160a01b03163314610de45760405162461bcd60e51b81526004016102d290611c67565b60008111610e3e5760405162461bcd60e51b815260206004820152602160248201527f425443506c757352656465656d3a2077696e646f772063616e6e6f74206265206044820152600360fc1b60648201526084016102d2565b6000610e4861133f565b905060008160040190506000610e7082600001548360010154846003015485600401546113bf565b509050848111610e805780610e82565b845b825542600183015560048201805460038401805490889055918690556040805183815260208101899052908101829052606081018790529091907f4c7a50cc3435f2549ebe6f1dd159cb8289f383c51aebbdfb30266b3e2d46d4f89060800160405180910390a150505050505050565b6000546001600160a01b03163314610f1c5760405162461bcd60e51b81526004016102d290611c67565b6001600160a01b038116610f425760405162461bcd60e51b81526004016102d290611a30565b6000610f4c61133f565b6002810180546001600160a01b038581166001600160a01b031983161790925560405192935016907e660af28221fc02baf5f15e371097ab49e4385b78d30896f54e21b9bc03356890610fa29083908690611a16565b60405180910390a1505050565b600080610fba61133f565b546001600160a01b031692915050565b600080610fd561133f565b905060008160040190506000610ffd82600001548360010154846003015485600401546113bf565b95945050505050565b6000546001600160a01b031633146110305760405162461bcd60e51b81526004016102d290611c67565b6001600160a01b0381166110565760405162461bcd60e51b81526004016102d290611a71565b600061106061133f565b6003810180546001600160a01b038581166001600160a01b031983161790925560405192935016907fd9d6b85b6d670cd443496fc6d03390f739bbff47f96a8e33fb0cdd52ad26f5c290610fa29083908690611a16565b6000806110c261133f565b60030154600160a01b90046001600160401b031692915050565b6000546001600160a01b031633146111065760405162461bcd60e51b81526004016102d290611c67565b6127106001600160401b0382161061117c5760405162461bcd60e51b815260206004820152603360248201527f425443506c757352656465656d3a2077697468647261772066656520726174656044820152722063616e6e6f7420657863656564203130302560681b60648201526084016102d2565b600061118661133f565b6003810180546001600160401b03858116600160a01b818102600160a01b600160e01b0319851617909455604080519490930490911680845260208401919091529293507f61f9b65892f1b0e578080b53b9ef6bb737e9ab441e44e0b7985d0b34960a520d9101610fa2565b6000546001600160a01b0316331461121c5760405162461bcd60e51b81526004016102d290611c67565b600061122661133f565b600781015490915082106112bd5760405162461bcd60e51b815260206004820152605260248201527f425443506c757352656465656d3a206d61782073696e676c652077697468647260448201527f617720616d6f756e742063616e6e6f7420657863656564206d61782077696e646064820152711bddc81dda5d1a191c985dc8185b5bdd5b9d60721b608482015260a4016102d2565b6006810180549083905560408051828152602081018590527fb8761dd57762fc7f2d924a8e8dcf8f1a3277760e93b75aaca6e4e81f274feb629101610fa2565b60008061130861133f565b600201546001600160a01b031692915050565b7ff0c57e16840df040f15088dc2f81fe391c3923bec73e23a9662efc9c229c6a0090565b7f068bcc4b070245a4918cdc3b79265b91693407ad59d9128bddabfb5172d5990090565b61136b611835565b6113748161185a565b50565b61137f611835565b6113876118a6565b565b60006113936118ae565b8054909150600119016113b957604051633ee5aeb560e01b815260040160405180910390fd5b60029055565b600080806113cd8642611c54565b905060008085116113df5760016113e1565b845b6113eb8388611bef565b6113f59190611c06565b90508088111561140e576114098189611c54565b611411565b60005b93508386111561142a576114258487611c54565b61142d565b60005b9250505094509492505050565b73eeeeeeeeeeeeeeeeeeeeeeeeeeeeeeeeeeeeeeed196001600160a01b0384160161150257326001600160a01b038316148061147e5750336001600160a01b038316145b6114bc5760405162461bcd60e51b815260206004820152600f60248201526e0e6cadcc8cae440dad2e6dac2e8c6d608b1b60448201526064016102d2565b803410156114fd5760405162461bcd60e51b815260206004820152600e60248201526d0ecc2d8eaca40dad2e6dac2e8c6d60931b60448201526064016102d2565b505050565b6000836001600160a01b03163b1161152c5760405162461bcd60e51b81526004016102d290611c8b565b604080516001600160a01b038481166024830152306044830152606480830185905283518084039091018152608490920183526020820180516001600160e01b03166323b872dd60e01b179052915160009283929087169161158e9190611cb7565b6000604051808303816000865af19150503d80600081146115cb576040519150601f19603f3d011682016040523d82523d6000602084013e6115d0565b606091505b50915091508180156115fa5750805115806115fa5750808060200190518101906115fa9190611ce6565b61162c5760405162461bcd60e51b815260206004820152600360248201526229aa2360e91b60448201526064016102d2565b5050505050565b73eeeeeeeeeeeeeeeeeeeeeeeeeeeeeeeeeeeeeeed196001600160a01b0384160161170157604080516000808252602082019092526001600160a01b0384169083906040516116829190611cb7565b60006040518083038185875af1925050503d80600081146116bf576040519150601f19603f3d011682016040523d82523d6000602084013e6116c4565b606091505b50509050806116fb5760405162461bcd60e51b815260206004820152600360248201526253544560e81b60448201526064016102d2565b50505050565b6000836001600160a01b03163b1161172b5760405162461bcd60e51b81526004016102d290611c8b565b604080516001600160a01b038481166024830152604480830185905283518084039091018152606490920183526020820180516001600160e01b031663a9059cbb60e01b17905291516000928392908716916117879190611cb7565b6000604051808303816000865af19150503d80600081146117c4576040519150601f19603f3d011682016040523d82523d6000602084013e6117c9565b606091505b50915091508180156117f35750805115806117f35750808060200190518101906117f39190611ce6565b61162c5760405162461bcd60e51b815260206004820152600260248201526114d560f21b60448201526064016102d2565b600061182e6118ae565b6001905550565b61183d6118d2565b61138757604051631afcd79f60e31b815260040160405180910390fd5b611862611835565b600080546001600160a01b0319166001600160a01b038316178155604051600080516020611d298339815191529161189b918490611a16565b60405180910390a150565b611824611835565b7f9b779b17422d0df92223018b32b4d1fa46e071723d6817e2486d003becc55f0090565b60006118dc61131b565b54600160401b900460ff16919050565b80356001600160a01b0381168114610c8657600080fd5b600080600080600060a0868803121561191b57600080fd5b611924866118ec565b9450611932602087016118ec565b9350611940604087016118ec565b925061194e606087016118ec565b915061195c608087016118ec565b90509295509295909350565b6001600160a01b0391909116815260200190565b60006020828403121561198e57600080fd5b5035919050565b6001600160401b0391909116815260200190565b6000602082840312156119bb57600080fd5b6119c4826118ec565b9392505050565b600080604083850312156119de57600080fd5b50508035926020909101359150565b6000602082840312156119ff57600080fd5b81356001600160401b03811681146119c457600080fd5b6001600160a01b0392831681529116602082015260400190565b6020808252603390820152600080516020611d0983398151915260408201527263616e6e6f742062652030206164647265737360681b606082015260800190565b60208082526030908201527f425443506c757352656465656d3a2066656520726563697069656e742063616e60408201526f6e6f742062652030206164647265737360801b606082015260800190565b600060208284031215611ad357600080fd5b815160ff811681146119c457600080fd5b634e487b7160e01b600052601160045260246000fd5b600181815b80851115611b35578160001904821115611b1b57611b1b611ae4565b80851615611b2857918102915b93841c9390800290611aff565b509250929050565b600082611b4c57506001611bda565b81611b5957506000611bda565b8160018114611b6f5760028114611b7957611b95565b6001915050611bda565b60ff841115611b8a57611b8a611ae4565b50506001821b611bda565b5060208310610133831016604e8410600b8410161715611bb8575081810a611bda565b611bc28383611afa565b8060001904821115611bd657611bd6611ae4565b0290505b92915050565b60006119c460ff841683611b3d565b8082028115828204841417611bda57611bda611ae4565b600082611c2357634e487b7160e01b600052601260045260246000fd5b500490565b80820180821115611bda57611bda611ae4565b600060208284031215611c4d57600080fd5b5051919050565b81810381811115611bda57611bda611ae4565b6020808252600a908201526937b7363c9030b236b4b760b11b604082015260600190565b602080825260129082015271696e76616c696420756e6465726c79696e6760701b604082015260600190565b6000825160005b81811015611cd85760208186018101518583015201611cbe565b506000920191825250919050565b600060208284031215611cf857600080fd5b815180151581146119c457600080fdfe425443506c757352656465656d3a20726564656d7074696f6e207661756c7420f9ffabca9c8276e99321725bcb43fb076a6c66a54b7f21c4e8146d8519b417dca264697066735822122055edf51d6699d9b14de238aaba6c86761ef3906f9e7390ef7ec92ebddcab6a8e64736f6c63430008140033",
  "devdoc": {
    "errors": {
      "InvalidInitialization()": [
        {
          "details": "The contract is already initialized."
        }
      ],
      "NotInitializing()": [
        {
          "details": "The contract is not initializing."
        }
      ],
      "ReentrancyGuardReentrantCall()": [
        {
          "details": "Unauthorized reentrant call."
        }
      ]
    },
    "events": {
      "Initialized(uint64)": {
        "details": "Triggered when the contract has been initialized or reinitialized."
      }
    },
    "kind": "dev",
    "methods": {
      "constructor": {
        "custom:oz-upgrades-unsafe-allow": "constructor"
      }
    },
    "version": 1
  },
  "userdoc": {
    "kind": "user",
    "methods": {},
    "version": 1
  },
  "storageLayout": {
    "storage": [
      {
        "astId": 4604,
        "contract": "contracts/BTCPlusRedeem.sol:BTCPlusRedeem",
        "label": "admin",
        "offset": 0,
        "slot": "0",
        "type": "t_address"
      },
      {
        "astId": 4606,
        "contract": "contracts/BTCPlusRedeem.sol:BTCPlusRedeem",
        "label": "pendingAdmin",
        "offset": 0,
        "slot": "1",
        "type": "t_address"
      },
      {
        "astId": 4701,
        "contract": "contracts/BTCPlusRedeem.sol:BTCPlusRedeem",
        "label": "__gap",
        "offset": 0,
        "slot": "2",
        "type": "t_array(t_uint256)48_storage"
      }
    ],
    "types": {
      "t_address": {
        "encoding": "inplace",
        "label": "address",
        "numberOfBytes": "20"
      },
      "t_array(t_uint256)48_storage": {
        "base": "t_uint256",
        "encoding": "inplace",
        "label": "uint256[48]",
        "numberOfBytes": "1536"
      },
      "t_uint256": {
        "encoding": "inplace",
        "label": "uint256",
        "numberOfBytes": "32"
      }
    }
  }
}