{
  "address": "0x13dA31073B656d49C8F0a05B17F7daB6c16495D1",
  "abi": [
    {
      "inputs": [],
      "name": "InvalidInitialization",
      "type": "error"
    },
    {
      "inputs": [],
      "name": "NotInitializing",
      "type": "error"
    },
    {
      "inputs": [
        {
          "internalType": "address",
          "name": "owner",
          "type": "address"
        }
      ],
      "name": "OwnableInvalidOwner",
      "type": "error"
    },
    {
      "inputs": [
        {
          "internalType": "address",
          "name": "account",
          "type": "address"
        }
      ],
      "name": "OwnableUnauthorizedAccount",
      "type": "error"
    },
    {
      "anonymous": false,
      "inputs": [
        {
          "indexed": false,
          "internalType": "uint64",
          "name": "version",
          "type": "uint64"
        }
      ],
      "name": "Initialized",
      "type": "event"
    },
    {
      "anonymous": false,
      "inputs": [
        {
          "indexed": true,
          "internalType": "address",
          "name": "previousOwner",
          "type": "address"
        },
        {
          "indexed": true,
          "internalType": "address",
          "name": "newOwner",
          "type": "address"
        }
      ],
      "name": "OwnershipTransferStarted",
      "type": "event"
    },
    {
      "anonymous": false,
      "inputs": [
        {
          "indexed": true,
          "internalType": "address",
          "name": "previousOwner",
          "type": "address"
        },
        {
          "indexed": true,
          "internalType": "address",
          "name": "newOwner",
          "type": "address"
        }
      ],
      "name": "OwnershipTransferred",
      "type": "event"
    },
    {
      "anonymous": false,
      "inputs": [
        {
          "indexed": true,
          "internalType": "address",
          "name": "targetToken",
          "type": "address"
        },
        {
          "indexed": true,
          "internalType": "address",
          "name": "currency",
          "type": "address"
        },
        {
          "indexed": false,
          "internalType": "uint64",
          "name": "feeRate",
          "type": "uint64"
        },
        {
          "indexed": false,
          "internalType": "address",
          "name": "feeReceiver",
          "type": "address"
        }
      ],
      "name": "SetDepositFee",
      "type": "event"
    },
    {
      "inputs": [],
      "name": "acceptOwnership",
      "outputs": [],
      "stateMutability": "nonpayable",
      "type": "function"
    },
    {
      "inputs": [
        {
          "internalType": "address",
          "name": "targetToken_",
          "type": "address"
        },
        {
          "internalType": "address",
          "name": "currency_",
          "type": "address"
        },
        {
          "internalType": "uint256",
          "name": "amount_",
          "type": "uint256"
        }
      ],
      "name": "getDepositFee",
      "outputs": [
        {
          "internalType": "uint256",
          "name": "feeAmount_",
          "type": "uint256"
        },
        {
          "internalType": "address",
          "name": "feeReceiver_",
          "type": "address"
        }
      ],
      "stateMutability": "view",
      "type": "function"
    },
    {
      "inputs": [],
      "name": "initialize",
      "outputs": [],
      "stateMutability": "nonpayable",
      "type": "function"
    },
    {
      "inputs": [],
      "name": "owner",
      "outputs": [
        {
          "internalType": "address",
          "name": "",
          "type": "address"
        }
      ],
      "stateMutability": "view",
      "type": "function"
    },
    {
      "inputs": [],
      "name": "pendingOwner",
      "outputs": [
        {
          "internalType": "address",
          "name": "",
          "type": "address"
        }
      ],
      "stateMutability": "view",
      "type": "function"
    },
    {
      "inputs": [],
      "name": "renounceOwnership",
      "outputs": [],
      "stateMutability": "nonpayable",
      "type": "function"
    },
    {
      "inputs": [
        {
          "components": [
            {
              "internalType": "address",
              "name": "targetToken",
              "type": "address"
            },
            {
              "internalType": "address",
              "name": "currency",
              "type": "address"
            },
            {
              "internalType": "uint64",
              "name": "feeRate",
              "type": "uint64"
            },
            {
              "internalType": "address",
              "name": "feeReceiver",
              "type": "address"
            }
          ],
          "internalType": "struct FeeManager.DepositFeeParam[]",
          "name": "params",
          "type": "tuple[]"
        }
      ],
      "name": "setDepositFees",
      "outputs": [],
      "stateMutability": "nonpayable",
      "type": "function"
    },
    {
      "inputs": [
        {
          "internalType": "address",
          "name": "newOwner",
          "type": "address"
        }
      ],
      "name": "transferOwnership",
      "outputs": [],
      "stateMutability": "nonpayable",
      "type": "function"
    }
  ],
  "transactionHash": "0x7b25fb4e8b5edff3af46b364eea1f017b12cba2081b2c224e7d449e672cc7215",
  "args": [],
  "numDeployments": 1,
  "solcInputHash": "b9b112a4b7d3299450dd263227517017",
  "bytecode": "0x608060405234801561001057600080fd5b50610a81806100206000396000f3fe608060405234801561001057600080fd5b50600436106100785760003560e01c80632005379e1461007d578063715018a61461009257806379ba50971461009a5780638129fc1c146100a25780638da5cb5b146100aa578063e30c3978146100c8578063f2fde38b146100d0578063f3396f09146100e3575b600080fd5b61009061008b36600461089c565b610113565b005b61009061046a565b61009061047e565b6100906104bd565b6100b26105b5565b6040516100bf9190610910565b60405180910390f35b6100b26105d0565b6100906100de366004610940565b6105db565b6100f66100f1366004610962565b61064c565b604080519283526001600160a01b039091166020830152016100bf565b61011b6106d5565b60005b8181101561046557600083838381811061013a5761013a61099e565b6101509260206080909202019081019150610940565b905060008484848181106101665761016661099e565b905060800201602001602081019061017e9190610940565b905060008585858181106101945761019461099e565b90506080020160400160208101906101ac91906109b4565b905060008686868181106101c2576101c261099e565b90506080020160600160208101906101da9190610940565b90506001600160a01b0384166102475760405162461bcd60e51b815260206004820152602760248201527f4665654d616e616765723a20746172676574546f6b656e206973207a65726f206044820152666164647265737360c81b60648201526084015b60405180910390fd5b6001600160a01b0383166102a95760405162461bcd60e51b8152602060048201526024808201527f4665654d616e616765723a2063757272656e6379206973207a65726f206164646044820152637265737360e01b606482015260840161023e565b6305f5e100826001600160401b031611156103065760405162461bcd60e51b815260206004820181905260248201527f4665654d616e616765723a206665655261746520657863656564732031303025604482015260640161023e565b6001600160401b038216158061032457506001600160a01b03811615155b6103805760405162461bcd60e51b815260206004820152602760248201527f4665654d616e616765723a206665655265636569766572206973207a65726f206044820152666164647265737360c81b606482015260840161023e565b600061038a610707565b6040805180820182526001600160401b0380871682526001600160a01b0380871660208085019182528b831660008181528883528781208d86168083529352879020955186549351909416600160401b026001600160e01b03199093169390941692909217179092559151929350917f76291f4b667aa431a25d4082922232fa50258e4765584ffaaf124afb3f42e2f19061044590879087906001600160401b039290921682526001600160a01b0316602082015260400190565b60405180910390a35050505050808061045d906109f3565b91505061011e565b505050565b6104726106d5565b61047c600061072b565b565b33806104886105d0565b6001600160a01b0316146104b1578060405163118cdaa760e01b815260040161023e9190610910565b6104ba8161072b565b50565b60006104c7610752565b805490915060ff600160401b82041615906001600160401b03166000811580156104ee5750825b90506000826001600160401b0316600114801561050a5750303b155b905081158015610518575080155b156105365760405163f92ee8a960e01b815260040160405180910390fd5b84546001600160401b0319166001178555831561055f57845460ff60401b1916600160401b1785555b61056833610776565b83156105ae57845460ff60401b19168555604051600181527fc7f505b2f371ae2175ee4913f4499e1f2633a7b5936321eed1cdaeb6115181d29060200160405180910390a15b5050505050565b6000806105c0610787565b546001600160a01b031692915050565b6000806105c06107ab565b6105e36106d5565b60006105ed6107ab565b80546001600160a01b0319166001600160a01b03841690811782559091506106136105b5565b6001600160a01b03167f38d16b8cac22d99fc7c124b9cd0de2d3fa1faef420bfe791d8c362d765e2270060405160405180910390a35050565b6000806000610659610707565b6001600160a01b0380881660009081526020928352604080822089841683528452908190208151808301909252546001600160401b038116808352600160401b909104909216928101929092529091506305f5e100906106b99086610a0c565b6106c39190610a29565b92508060200151915050935093915050565b336106de6105b5565b6001600160a01b03161461047c573360405163118cdaa760e01b815260040161023e9190610910565b7fd54c6203b7ea9f2a1f1717acf254621134b6951cfc66daad7b3aa9cad9627c0090565b60006107356107ab565b80546001600160a01b0319168155905061074e826107cf565b5050565b7ff0c57e16840df040f15088dc2f81fe391c3923bec73e23a9662efc9c229c6a0090565b61077e61082b565b6104ba81610850565b7f9016d09d72d40fdae2fd8ceac6b6234c7706214fd39c1cd1e609a0528c19930090565b7f237e158222e3e6968b72b9db0d8043aacf074ad9f650f0d1606b4d82ee432c0090565b60006107d9610787565b80546001600160a01b038481166001600160a01b031983168117845560405193945091169182907f8be0079c531659141344cd1fd0a4f28419497f9722a3daafe3b4186f6b6457e090600090a3505050565b610833610882565b61047c57604051631afcd79f60e31b815260040160405180910390fd5b61085861082b565b6001600160a01b0381166104b1576000604051631e4fbdf760e01b815260040161023e9190610910565b600061088c610752565b54600160401b900460ff16919050565b600080602083850312156108af57600080fd5b82356001600160401b03808211156108c657600080fd5b818501915085601f8301126108da57600080fd5b8135818111156108e957600080fd5b8660208260071b85010111156108fe57600080fd5b60209290920196919550909350505050565b6001600160a01b0391909116815260200190565b80356001600160a01b038116811461093b57600080fd5b919050565b60006020828403121561095257600080fd5b61095b82610924565b9392505050565b60008060006060848603121561097757600080fd5b61098084610924565b925061098e60208501610924565b9150604084013590509250925092565b634e487b7160e01b600052603260045260246000fd5b6000602082840312156109c657600080fd5b81356001600160401b038116811461095b57600080fd5b634e487b7160e01b600052601160045260246000fd5b600060018201610a0557610a056109dd565b5060010190565b8082028115828204841417610a2357610a236109dd565b92915050565b600082610a4657634e487b7160e01b600052601260045260246000fd5b50049056fea2646970667358221220a7c3f757122abdd5ae0ee2876d6b75628e34c7c2827bdfd45e84bb6ab3efc2b664736f6c63430008140033",
  "devdoc": {
    "errors": {
      "InvalidInitialization()": [
        {
          "details": "The contract is already initialized."
        }
      ],
      "NotInitializing()": [
        {
          "details": "The contract is not initializing."
        }
      ],
      "OwnableInvalidOwner(address)": [
        {
          "details": "The owner is not a valid owner account. (eg. `address(0)`)"
        }
      ],
      "OwnableUnauthorizedAccount(address)": [
        {
          "details": "The caller account is not authorized to perform an operation."
        }
      ]
    },
    "events": {
      "Initialized(uint64)": {
        "details": "Triggered when the contract has been initialized or reinitialized."
      }
    },
    "kind": "dev",
    "methods": {
      "acceptOwnership()": {
        "details": "The new owner accepts the ownership transfer."
      },
      "owner()": {
        "details": "Returns the address of the current owner."
      },
      "pendingOwner()": {
        "details": "Returns the address of the pending owner."
      },
      "renounceOwnership()": {
        "details": "Leaves the contract without owner. It will not be possible to call `onlyOwner` functions. Can only be called by the current owner. NOTE: Renouncing ownership will leave the contract without an owner, thereby disabling any functionality that is only available to the owner."
      },
      "transferOwnership(address)": {
        "details": "Starts the ownership transfer of the contract to a new account. Replaces the pending transfer if there is one. Can only be called by the current owner."
      }
    },
    "version": 1
  },
  "userdoc": {
    "kind": "user",
    "methods": {},
    "version": 1
  },
  "storageLayout": {
    "storage": [],
    "types": null
  }
}