{
  "address": "0x78118739D860ab0f1887bf632D8799cE2Cd745e4",
  "abi": [
    {
      "inputs": [],
      "stateMutability": "nonpayable",
      "type": "constructor"
    },
    {
      "inputs": [],
      "name": "InvalidInitialization",
      "type": "error"
    },
    {
      "inputs": [],
      "name": "NotInitializing",
      "type": "error"
    },
    {
      "inputs": [
        {
          "internalType": "address",
          "name": "owner",
          "type": "address"
        }
      ],
      "name": "OwnableInvalidOwner",
      "type": "error"
    },
    {
      "inputs": [
        {
          "internalType": "address",
          "name": "account",
          "type": "address"
        }
      ],
      "name": "OwnableUnauthorizedAccount",
      "type": "error"
    },
    {
      "inputs": [],
      "name": "ReentrancyGuardReentrantCall",
      "type": "error"
    },
    {
      "anonymous": false,
      "inputs": [
        {
          "indexed": true,
          "internalType": "address",
          "name": "verifier",
          "type": "address"
        }
      ],
      "name": "AddKycSBTVerifier",
      "type": "event"
    },
    {
      "anonymous": false,
      "inputs": [
        {
          "indexed": true,
          "internalType": "address",
          "name": "targetToken",
          "type": "address"
        },
        {
          "indexed": true,
          "internalType": "address",
          "name": "redemption",
          "type": "address"
        },
        {
          "indexed": true,
          "internalType": "address",
          "name": "requester",
          "type": "address"
        },
        {
          "indexed": false,
          "internalType": "bytes32",
          "name": "poolId",
          "type": "bytes32"
        },
        {
          "indexed": false,
          "internalType": "uint256",
          "name": "redemptionId",
          "type": "uint256"
        },
        {
          "indexed": false,
          "internalType": "uint256",
          "name": "targetTokenAmount",
          "type": "uint256"
        }
      ],
      "name": "CancelWithdrawRequest",
      "type": "event"
    },
    {
      "anonymous": false,
      "inputs": [
        {
          "indexed": true,
          "internalType": "address",
          "name": "targetToken",
          "type": "address"
        },
        {
          "indexed": true,
          "internalType": "address",
          "name": "currency",
          "type": "address"
        },
        {
          "indexed": true,
          "internalType": "address",
          "name": "depositor",
          "type": "address"
        },
        {
          "indexed": false,
          "internalType": "uint256",
          "name": "targetTokenAmount",
          "type": "uint256"
        },
        {
          "indexed": false,
          "internalType": "uint256",
          "name": "currencyAmount",
          "type": "uint256"
        },
        {
          "indexed": false,
          "internalType": "address[]",
          "name": "path",
          "type": "address[]"
        },
        {
          "indexed": false,
          "internalType": "bytes32[]",
          "name": "poolIds",
          "type": "bytes32[]"
        }
      ],
      "name": "Deposit",
      "type": "event"
    },
    {
      "anonymous": false,
      "inputs": [
        {
          "indexed": false,
          "internalType": "uint64",
          "name": "version",
          "type": "uint64"
        }
      ],
      "name": "Initialized",
      "type": "event"
    },
    {
      "anonymous": false,
      "inputs": [
        {
          "indexed": true,
          "internalType": "address",
          "name": "previousOwner",
          "type": "address"
        },
        {
          "indexed": true,
          "internalType": "address",
          "name": "newOwner",
          "type": "address"
        }
      ],
      "name": "OwnershipTransferStarted",
      "type": "event"
    },
    {
      "anonymous": false,
      "inputs": [
        {
          "indexed": true,
          "internalType": "address",
          "name": "previousOwner",
          "type": "address"
        },
        {
          "indexed": true,
          "internalType": "address",
          "name": "newOwner",
          "type": "address"
        }
      ],
      "name": "OwnershipTransferred",
      "type": "event"
    },
    {
      "anonymous": false,
      "inputs": [
        {
          "indexed": true,
          "internalType": "address",
          "name": "verifier",
          "type": "address"
        }
      ],
      "name": "RemoveKycSBTVerifier",
      "type": "event"
    },
    {
      "anonymous": false,
      "inputs": [
        {
          "indexed": true,
          "internalType": "address",
          "name": "token",
          "type": "address"
        },
        {
          "indexed": true,
          "internalType": "address",
          "name": "multiAssetPool",
          "type": "address"
        }
      ],
      "name": "SetMultiAssetPool",
      "type": "event"
    },
    {
      "anonymous": false,
      "inputs": [
        {
          "indexed": true,
          "internalType": "address",
          "name": "openFundMarket",
          "type": "address"
        }
      ],
      "name": "SetOpenFundMarket",
      "type": "event"
    },
    {
      "anonymous": false,
      "inputs": [
        {
          "indexed": true,
          "internalType": "address",
          "name": "currency",
          "type": "address"
        },
        {
          "indexed": true,
          "internalType": "address",
          "name": "targetToken",
          "type": "address"
        },
        {
          "indexed": false,
          "internalType": "address[]",
          "name": "path",
          "type": "address[]"
        }
      ],
      "name": "SetPath",
      "type": "event"
    },
    {
      "anonymous": false,
      "inputs": [
        {
          "indexed": true,
          "internalType": "address",
          "name": "targetToken",
          "type": "address"
        },
        {
          "indexed": true,
          "internalType": "address",
          "name": "currency",
          "type": "address"
        },
        {
          "indexed": true,
          "internalType": "bytes32",
          "name": "poolId",
          "type": "bytes32"
        }
      ],
      "name": "SetPoolId",
      "type": "event"
    },
    {
      "anonymous": false,
      "inputs": [
        {
          "indexed": true,
          "internalType": "address",
          "name": "targetToken",
          "type": "address"
        },
        {
          "indexed": true,
          "internalType": "address",
          "name": "currency",
          "type": "address"
        },
        {
          "indexed": true,
          "internalType": "address",
          "name": "requester",
          "type": "address"
        },
        {
          "indexed": false,
          "internalType": "bytes32",
          "name": "poolId",
          "type": "bytes32"
        },
        {
          "indexed": false,
          "internalType": "uint256",
          "name": "withdrawAmount",
          "type": "uint256"
        },
        {
          "indexed": false,
          "internalType": "uint256",
          "name": "redemptionId",
          "type": "uint256"
        }
      ],
      "name": "WithdrawRequest",
      "type": "event"
    },
    {
      "inputs": [],
      "name": "X_SOLV_BTC_POOL_ID",
      "outputs": [
        {
          "internalType": "bytes32",
          "name": "",
          "type": "bytes32"
        }
      ],
      "stateMutability": "view",
      "type": "function"
    },
    {
      "inputs": [],
      "name": "acceptOwnership",
      "outputs": [],
      "stateMutability": "nonpayable",
      "type": "function"
    },
    {
      "inputs": [
        {
          "internalType": "address",
          "name": "kycSBTVerifier_",
          "type": "address"
        }
      ],
      "name": "addKycSBTVerifier",
      "outputs": [],
      "stateMutability": "nonpayable",
      "type": "function"
    },
    {
      "inputs": [
        {
          "internalType": "address",
          "name": "targetToken_",
          "type": "address"
        },
        {
          "internalType": "address",
          "name": "redemption_",
          "type": "address"
        },
        {
          "internalType": "uint256",
          "name": "redemptionId_",
          "type": "uint256"
        }
      ],
      "name": "cancelWithdrawRequest",
      "outputs": [
        {
          "internalType": "uint256",
          "name": "targetTokenAmount_",
          "type": "uint256"
        }
      ],
      "stateMutability": "nonpayable",
      "type": "function"
    },
    {
      "inputs": [],
      "name": "checkKycSBT",
      "outputs": [
        {
          "internalType": "bool",
          "name": "",
          "type": "bool"
        }
      ],
      "stateMutability": "view",
      "type": "function"
    },
    {
      "inputs": [
        {
          "internalType": "bytes32",
          "name": "poolId_",
          "type": "bytes32"
        }
      ],
      "name": "checkPoolPermission",
      "outputs": [
        {
          "internalType": "bool",
          "name": "",
          "type": "bool"
        }
      ],
      "stateMutability": "view",
      "type": "function"
    },
    {
      "inputs": [
        {
          "internalType": "address",
          "name": "targetToken_",
          "type": "address"
        },
        {
          "internalType": "address",
          "name": "currency_",
          "type": "address"
        },
        {
          "internalType": "uint256",
          "name": "currencyAmount_",
          "type": "uint256"
        },
        {
          "internalType": "uint256",
          "name": "minimumTargetTokenAmount_",
          "type": "uint256"
        },
        {
          "internalType": "uint64",
          "name": "expireTime_",
          "type": "uint64"
        }
      ],
      "name": "deposit",
      "outputs": [
        {
          "internalType": "uint256",
          "name": "targetTokenAmount_",
          "type": "uint256"
        }
      ],
      "stateMutability": "nonpayable",
      "type": "function"
    },
    {
      "inputs": [
        {
          "internalType": "address",
          "name": "owner_",
          "type": "address"
        },
        {
          "internalType": "address",
          "name": "openFundMarket_",
          "type": "address"
        }
      ],
      "name": "initialize",
      "outputs": [],
      "stateMutability": "nonpayable",
      "type": "function"
    },
    {
      "inputs": [
        {
          "internalType": "uint256",
          "name": "",
          "type": "uint256"
        }
      ],
      "name": "kycSBTVerifiers",
      "outputs": [
        {
          "internalType": "address",
          "name": "",
          "type": "address"
        }
      ],
      "stateMutability": "view",
      "type": "function"
    },
    {
      "inputs": [
        {
          "internalType": "address",
          "name": "",
          "type": "address"
        }
      ],
      "name": "multiAssetPools",
      "outputs": [
        {
          "internalType": "address",
          "name": "",
          "type": "address"
        }
      ],
      "stateMutability": "view",
      "type": "function"
    },
    {
      "inputs": [],
      "name": "openFundMarket",
      "outputs": [
        {
          "internalType": "address",
          "name": "",
          "type": "address"
        }
      ],
      "stateMutability": "view",
      "type": "function"
    },
    {
      "inputs": [],
      "name": "owner",
      "outputs": [
        {
          "internalType": "address",
          "name": "",
          "type": "address"
        }
      ],
      "stateMutability": "view",
      "type": "function"
    },
    {
      "inputs": [
        {
          "internalType": "address",
          "name": "",
          "type": "address"
        },
        {
          "internalType": "address",
          "name": "",
          "type": "address"
        },
        {
          "internalType": "uint256",
          "name": "",
          "type": "uint256"
        }
      ],
      "name": "paths",
      "outputs": [
        {
          "internalType": "address",
          "name": "",
          "type": "address"
        }
      ],
      "stateMutability": "view",
      "type": "function"
    },
    {
      "inputs": [],
      "name": "pendingOwner",
      "outputs": [
        {
          "internalType": "address",
          "name": "",
          "type": "address"
        }
      ],
      "stateMutability": "view",
      "type": "function"
    },
    {
      "inputs": [
        {
          "internalType": "address",
          "name": "",
          "type": "address"
        },
        {
          "internalType": "address",
          "name": "",
          "type": "address"
        }
      ],
      "name": "poolIds",
      "outputs": [
        {
          "internalType": "bytes32",
          "name": "",
          "type": "bytes32"
        }
      ],
      "stateMutability": "view",
      "type": "function"
    },
    {
      "inputs": [
        {
          "internalType": "address",
          "name": "kycSBTVerifier_",
          "type": "address"
        }
      ],
      "name": "removeKycSBTVerifier",
      "outputs": [],
      "stateMutability": "nonpayable",
      "type": "function"
    },
    {
      "inputs": [],
      "name": "renounceOwnership",
      "outputs": [],
      "stateMutability": "nonpayable",
      "type": "function"
    },
    {
      "inputs": [
        {
          "internalType": "address",
          "name": "token_",
          "type": "address"
        },
        {
          "internalType": "address",
          "name": "multiAssetPool_",
          "type": "address"
        }
      ],
      "name": "setMultiAssetPool",
      "outputs": [],
      "stateMutability": "nonpayable",
      "type": "function"
    },
    {
      "inputs": [
        {
          "internalType": "address",
          "name": "currency_",
          "type": "address"
        },
        {
          "internalType": "address",
          "name": "targetToken_",
          "type": "address"
        },
        {
          "internalType": "address[]",
          "name": "path_",
          "type": "address[]"
        }
      ],
      "name": "setPath",
      "outputs": [],
      "stateMutability": "nonpayable",
      "type": "function"
    },
    {
      "inputs": [
        {
          "internalType": "address",
          "name": "targetToken_",
          "type": "address"
        },
        {
          "internalType": "address",
          "name": "currency_",
          "type": "address"
        },
        {
          "internalType": "bytes32",
          "name": "poolId_",
          "type": "bytes32"
        }
      ],
      "name": "setPoolId",
      "outputs": [],
      "stateMutability": "nonpayable",
      "type": "function"
    },
    {
      "inputs": [
        {
          "internalType": "address",
          "name": "newOwner",
          "type": "address"
        }
      ],
      "name": "transferOwnership",
      "outputs": [],
      "stateMutability": "nonpayable",
      "type": "function"
    },
    {
      "inputs": [
        {
          "internalType": "address",
          "name": "targetToken_",
          "type": "address"
        },
        {
          "internalType": "address",
          "name": "currency_",
          "type": "address"
        },
        {
          "internalType": "uint256",
          "name": "withdrawAmount_",
          "type": "uint256"
        }
      ],
      "name": "withdrawRequest",
      "outputs": [
        {
          "internalType": "address",
          "name": "",
          "type": "address"
        },
        {
          "internalType": "uint256",
          "name": "",
          "type": "uint256"
        }
      ],
      "stateMutability": "nonpayable",
      "type": "function"
    }
  ],
  "transactionHash": "0xbb6dcd99c3c4ba2dc963c7256156be2b1128855d7f569cb1eadc7dbdc3823ef3",
  "args": [],
  "numDeployments": 1,
  "solcInputHash": "760eba89c1c012ccff424261b8f1308d",
  "bytecode": "0x60806040523480156200001157600080fd5b506200001c62000022565b620000d6565b7ff0c57e16840df040f15088dc2f81fe391c3923bec73e23a9662efc9c229c6a00805468010000000000000000900460ff1615620000735760405163f92ee8a960e01b815260040160405180910390fd5b80546001600160401b0390811614620000d35780546001600160401b0319166001600160401b0390811782556040519081527fc7f505b2f371ae2175ee4913f4499e1f2633a7b5936321eed1cdaeb6115181d29060200160405180910390a15b50565b6135b480620000e66000396000f3fe608060405234801561001057600080fd5b50600436106101125760003560e01c8063055227a114610117578063073ef0601461012c5780631d98e7f81461013f57806342c7774b14610167578063485cc955146101885780636534d8dc1461019b578063672262e5146101c65780636dadff0b146101d9578063715018a6146101f95780637448130c1461020157806379ba50971461022a57806383ef7d17146102325780638da5cb5b1461023b5780638df9dfda146102435780639ccd8a6914610256578063ba9cf75814610269578063cef4cde414610271578063d2cfd97d14610284578063e30c3978146102a5578063f2fde38b146102ad578063f355d417146102c0578063f6d852e2146102d3575b600080fd5b61012a610125366004612caa565b6102e6565b005b61012a61013a366004612d82565b61046f565b61015261014d366004612d9f565b61054e565b60405190151581526020015b60405180910390f35b61017a610175366004612db8565b6106e9565b60405190815260200161015e565b61012a610196366004612df9565b610bb4565b61017a6101a9366004612df9565b600360209081526000928352604080842090915290825290205481565b61017a6101d4366004612e47565b610d15565b6101ec6101e7366004612d9f565b611019565b60405161015e9190612ea6565b61012a611043565b6101ec61020f366004612d82565b6004602052600090815260409020546001600160a01b031681565b61012a611057565b61017a60001981565b6101ec611096565b61012a610251366004612db8565b6110b1565b61012a610264366004612df9565b6111ab565b6101526112c6565b6101ec61027f366004612db8565b61138b565b610297610292366004612db8565b6113d0565b60405161015e929190612eba565b6101ec61195d565b61012a6102bb366004612d82565b611968565b6000546101ec906001600160a01b031681565b61012a6102e1366004612d82565b6119d9565b6102ee611b1f565b6001600160a01b03831661031d5760405162461bcd60e51b815260040161031490612ed3565b60405180910390fd5b6001600160a01b0382166103435760405162461bcd60e51b815260040161031490612f02565b60005b81518110156103e85760006001600160a01b031682828151811061036c5761036c612f46565b60200260200101516001600160a01b0316036103d65760405162461bcd60e51b815260206004820152602360248201527f536f6c76425443526f7574657256323a20696e76616c6964207061746820746f60448201526235b2b760e91b6064820152608401610314565b806103e081612f72565b915050610346565b506001600160a01b0380841660009081526002602090815260408083209386168352928152919020825161041e92840190612b68565b50816001600160a01b0316836001600160a01b03167fc3799aea01bc3147c6d65980a35dbf4661fb244ecebf3890db31c1dea0e0131c836040516104629190612fcf565b60405180910390a3505050565b610477611b1f565b6001600160a01b0381166104d75760405162461bcd60e51b815260206004820152602160248201527f536f6c76425443526f7574657256323a20696e76616c696420766572696669656044820152603960f91b6064820152608401610314565b60018054808201825560009182527fb10e2d527612073b26eecdfd717e6a320cf44b4afac2b0732d9fcbe2b7fa0cf60180546001600160a01b0319166001600160a01b03841690811790915560405190917f406973f217cd9d1d2338d714098813a16e977aeaa9781bd83da782276082a11391a250565b6000805460405162daa6b160e61b8152600481018490526001600160a01b0390911690829082906336a9ac40906024016102a060405180830381865afa15801561059c573d6000803e3d6000fd5b505050506040513d601f19601f820116820180604052508101906105c0919061318d565b9050806101000151156105d7575060019392505050565b6040516321f8a72160e01b81527a27a326abb434ba32b634b9ba29ba3930ba32b3bca6b0b730b3b2b960291b60048201526000906001600160a01b038416906321f8a72190602401602060405180830381865afa15801561063c573d6000803e3d6000fd5b505050506040513d601f19601f82011682018060405250810190610660919061325a565b60405163f409981160e01b8152600481018790523360248201529091506001600160a01b0382169063f409981190604401602060405180830381865afa1580156106ae573d6000803e3d6000fd5b505050506040513d601f19601f820116820180604052508101906106d29190613277565b806106e057506106e06112c6565b95945050505050565b60006106f3611b51565b60006106ff8484611b87565b6000805460405162daa6b160e61b8152600481018490529293506001600160a01b03169182906336a9ac40906024016102a060405180830381865afa15801561074c573d6000803e3d6000fd5b505050506040513d601f19601f82011682018060405250810190610770919061318d565b805180516040918201516001600160a01b03808c1660009081526004602081905290859020549451639f0b8d0360e01b81529596509294919316918291639f0b8d03916107c1918791879101612eba565b602060405180830381865afa1580156107de573d6000803e3d6000fd5b505050506040513d601f19601f82011682018060405250810190610802919061325a565b6001600160a01b03168a6001600160a01b0316146108325760405162461bcd60e51b815260040161031490613292565b604051631398fee160e31b8152600481018990526001600160a01b038a1690639cc7f70890602401602060405180830381865afa158015610877573d6000803e3d6000fd5b505050506040513d601f19601f8201168201806040525081019061089b91906132d9565b96506108a889338a611cd7565b6108b389868a611d41565b6040516302e9574960e51b815260048101879052602481018990526001600160a01b03861690635d2ae92090604401600060405180830381600087803b1580156108fc57600080fd5b505af1158015610910573d6000803e3d6000fd5b50506040516370a0823160e01b8152600092506001600160a01b03861691506370a0823190610943903090600401612ea6565b602060405180830381865afa158015610960573d6000803e3d6000fd5b505050506040513d601f19601f8201168201806040525081019061098491906132d9565b905060006001600160a01b038516632f745c59306109a36001866132f2565b6040518363ffffffff1660e01b81526004016109c0929190612eba565b602060405180830381865afa1580156109dd573d6000803e3d6000fd5b505050506040513d601f19601f82011682018060405250810190610a0191906132d9565b604051631398fee160e31b8152600481018290529091506001600160a01b03861690639cc7f70890602401602060405180830381865afa158015610a49573d6000803e3d6000fd5b505050506040513d601f19601f82011682018060405250810190610a6d91906132d9565b8914610acc5760405162461bcd60e51b815260206004820152602860248201527f536f6c76425443526f7574657256323a2063616e63656c20616d6f756e74206e6044820152670dee840dac2e8c6d60c31b6064820152608401610314565b610ad7858483611d41565b604051630efe6a8b60e01b81526001600160a01b03841690630efe6a8b90610b0790889085908e90600401613305565b600060405180830381600087803b158015610b2157600080fd5b505af1158015610b35573d6000803e3d6000fd5b50505050610b448c338b611d71565b336001600160a01b03168b6001600160a01b03168d6001600160a01b03167fbcab14a9990bc1fc30373acf248d280252f63653e6ccdcbd1f7929552a84c7388b8e8e604051610b9593929190613326565b60405180910390a45050505050505050610bad611f73565b9392505050565b6000610bbe611f84565b805490915060ff600160401b82041615906001600160401b0316600081158015610be55750825b90506000826001600160401b03166001148015610c015750303b155b905081158015610c0f575080155b15610c2d5760405163f92ee8a960e01b815260040160405180910390fd5b84546001600160401b03191660011785558315610c5657845460ff60401b1916600160401b1785555b6001600160a01b038716610cac5760405162461bcd60e51b815260206004820152601e60248201527f536f6c76425443526f7574657256323a20696e76616c69642061646d696e00006044820152606401610314565b610cb587611fa8565b610cbd611fda565b610cc686611fea565b8315610d0c57845460ff60401b19168555604051600181527fc7f505b2f371ae2175ee4913f4499e1f2633a7b5936321eed1cdaeb6115181d29060200160405180910390a15b50505050505050565b6000610d1f611b51565b60008411610d6e5760405162461bcd60e51b8152602060048201526028602482015260008051602061355f8339815191526044820152671e48185b5bdd5b9d60c21b6064820152608401610314565b610d79853386612098565b6001600160a01b038086166000908152600260209081526040808320938a16835292815282822080548451818402810184019095528085529293929091830182828015610def57602002820191906000526020600020905b81546001600160a01b03168152600190910190602001808311610dd1575b50505050509050600081516001610e06919061333c565b6001600160401b03811115610e1d57610e1d612bf7565b604051908082528060200260200182016040528015610e46578160200160208202803683370190505b50905085925060005b82518111610f405760008115610e885783610e6b6001846132f2565b81518110610e7b57610e7b612f46565b6020026020010151610e8a565b885b9050600084518314610eb557848381518110610ea857610ea8612f46565b6020026020010151610eb7565b8a5b6001600160a01b038082166000908152600360209081526040808320938716835292905220548551919250908190869086908110610ef757610ef7612f46565b602090810291909101015260018101610f1b57610f148288612290565b9650610f2a565b610f278284898b612320565b96505b5050508080610f3890612f72565b915050610e4f565b5084831015610fa95760405162461bcd60e51b815260206004820152602f60248201527f536f6c76425443526f7574657256323a2074617267657420746f6b656e20616d60448201526e0deeadce840dcdee840cadcdeeaced608b1b6064820152608401610314565b610fb4883385611d71565b336001600160a01b0316876001600160a01b0316896001600160a01b03167f6937da7733b7e101e4ab6e3a3ec12fe857d7a7ca921348ef12feff7abfcee01a868a8787604051611007949392919061334f565b60405180910390a450506106e0611f73565b6001818154811061102957600080fd5b6000918252602090912001546001600160a01b0316905081565b61104b611b1f565b61105560006128d6565b565b338061106161195d565b6001600160a01b03161461108a578060405163118cdaa760e01b81526004016103149190612ea6565b611093816128d6565b50565b6000806110a16128f9565b546001600160a01b031692915050565b6110b9611b1f565b6001600160a01b0383166110df5760405162461bcd60e51b815260040161031490612f02565b6001600160a01b0382166111055760405162461bcd60e51b815260040161031490612ed3565b806111525760405162461bcd60e51b815260206004820152601f60248201527f536f6c76425443526f7574657256323a20696e76616c696420706f6f6c4964006044820152606401610314565b6001600160a01b0380841660008181526003602090815260408083209487168084529490915280822085905551849392917f6c7f14630165c9c4c6ad227089f1fcb12296a6e2f333127dfac70ff6c01b752f91a4505050565b6111b3611b1f565b6001600160a01b0382166112095760405162461bcd60e51b815260206004820152601e60248201527f536f6c76425443526f7574657256323a20696e76616c696420746f6b656e00006044820152606401610314565b6001600160a01b03811661126f5760405162461bcd60e51b815260206004820152602760248201527f536f6c76425443526f7574657256323a20696e76616c6964206d756c746941736044820152661cd95d141bdbdb60ca1b6064820152608401610314565b6001600160a01b0382811660008181526004602052604080822080546001600160a01b0319169486169485179055517f6d8a13fa4299a53f42536f2eb442ae9416f32e834a4b630d335079cb5a2da9669190a35050565b6000805b600154811015611383576000600182815481106112e9576112e9612f46565b6000918252602090912001546040516370a0823160e01b81526001600160a01b03909116906370a0823190611322903390600401612ea6565b602060405180830381865afa15801561133f573d6000803e3d6000fd5b505050506040513d601f19601f8201168201806040525081019061136391906132d9565b111561137157600191505090565b8061137b81612f72565b9150506112ca565b506000905090565b600260205282600052604060002060205281600052604060002081815481106113b357600080fd5b6000918252602090912001546001600160a01b0316925083915050565b6000806113db611b51565b6001600160a01b038086166000908152600360209081526040808320938816835292905220548061141e5760405162461bcd60e51b8152600401610314906133b1565b6000805460405162daa6b160e61b8152600481018490526001600160a01b03909116919082906336a9ac40906024016102a060405180830381865afa15801561146b573d6000803e3d6000fd5b505050506040513d601f19601f8201168201806040525081019061148f919061318d565b90508060a001516001600160a01b0316876001600160a01b0316146114c65760405162461bcd60e51b8152600401610314906133f2565b805180516020808301516040938401516001600160a01b03808e166000908152600494859052869020549551639f0b8d0360e01b81529495929491939216918291639f0b8d039161151b918891879101612eba565b602060405180830381865afa158015611538573d6000803e3d6000fd5b505050506040513d601f19601f8201168201806040525081019061155c919061325a565b6001600160a01b03168c6001600160a01b03161461158c5760405162461bcd60e51b815260040161031490613292565b6115978c338c612098565b6040516322996bbb60e11b81526001600160a01b03858116600483015260248201849052600060448301819052606483018d90529190831690634532d776906084016020604051808303816000875af11580156115f8573d6000803e3d6000fd5b505050506040513d601f19601f8201168201806040525081019061161c91906132d9565b604051631398fee160e31b8152600481018290529091506001600160a01b03861690639cc7f70890602401602060405180830381865afa158015611664573d6000803e3d6000fd5b505050506040513d601f19601f8201168201806040525081019061168891906132d9565b8b146116a65760405162461bcd60e51b815260040161031490613435565b6116b1858883611d41565b6040516371033ad760e01b8152600481018990526024810182905260006044820152606481018c90526001600160a01b038816906371033ad790608401600060405180830381600087803b15801561170857600080fd5b505af115801561171c573d6000803e3d6000fd5b50506040516370a0823160e01b8152600094506001600160a01b03871693506370a08231925061175191503090600401612ea6565b602060405180830381865afa15801561176e573d6000803e3d6000fd5b505050506040513d601f19601f8201168201806040525081019061179291906132d9565b905060006001600160a01b038416632f745c59306117b16001866132f2565b6040518363ffffffff1660e01b81526004016117ce929190612eba565b602060405180830381865afa1580156117eb573d6000803e3d6000fd5b505050506040513d601f19601f8201168201806040525081019061180f91906132d9565b604051631398fee160e31b8152600481018290529091506001600160a01b03851690639cc7f70890602401602060405180830381865afa158015611857573d6000803e3d6000fd5b505050506040513d601f19601f8201168201806040525081019061187b91906132d9565b8b146118dd5760405162461bcd60e51b815260206004820152602b60248201527f536f6c76425443526f7574657256323a20726564656d7074696f6e2076616c7560448201526a0ca40dcdee840dac2e8c6d60ab1b6064820152608401610314565b6118e884338361291d565b336001600160a01b03168c6001600160a01b03168e6001600160a01b03167f50aa488fffd286866bc78078718365f7c3880cf5f95179a61e37cf84c5fd76c58b8f8660405161193993929190613326565b60405180910390a4929850919650505050505050611955611f73565b935093915050565b6000806110a161294f565b611970611b1f565b600061197a61294f565b80546001600160a01b0319166001600160a01b03841690811782559091506119a0611096565b6001600160a01b03167f38d16b8cac22d99fc7c124b9cd0de2d3fa1faef420bfe791d8c362d765e2270060405160405180910390a35050565b6119e1611b1f565b60005b600154811015611b1b57816001600160a01b031660018281548110611a0b57611a0b612f46565b6000918252602090912001546001600160a01b031603611b095760018054611a349082906132f2565b81548110611a4457611a44612f46565b600091825260209091200154600180546001600160a01b039092169183908110611a7057611a70612f46565b9060005260206000200160006101000a8154816001600160a01b0302191690836001600160a01b031602179055506001805480611aaf57611aaf61347b565b600082815260208120820160001990810180546001600160a01b03191690559091019091556040516001600160a01b038416917f31fcc58e4308750615c411af54c81513de9d2e6c73cf7f3652928cdd25c8d5da91a25050565b80611b1381612f72565b9150506119e4565b5050565b33611b28611096565b6001600160a01b031614611055573360405163118cdaa760e01b81526004016103149190612ea6565b6000611b5b612973565b805490915060011901611b8157604051633ee5aeb560e01b815260040160405180910390fd5b60029055565b600080836001600160a01b0316638ba344706040518163ffffffff1660e01b8152600401602060405180830381865afa158015611bc8573d6000803e3d6000fd5b505050506040513d601f19601f82011682018060405250810190611bec919061325a565b60405163131f9f3f60e11b8152600481018590529091506000906001600160a01b0386169063263f3e7e90602401602060405180830381865afa158015611c37573d6000803e3d6000fd5b505050506040513d601f19601f82011682018060405250810190611c5b91906132d9565b604051636e14b58960e11b8152600481018290529091506000906001600160a01b0384169063dc296b1290602401608060405180830381865afa158015611ca6573d6000803e3d6000fd5b505050506040513d601f19601f82011682018060405250810190611cca9190613491565b5193505050505b92915050565b6040516323b872dd60e01b815283906001600160a01b038216906323b872dd90611d09908690309087906004016134df565b600060405180830381600087803b158015611d2357600080fd5b505af1158015611d37573d6000803e3d6000fd5b5050505050505050565b60405163095ea7b360e01b815283906001600160a01b0382169063095ea7b390611d099086908690600401612eba565b73eeeeeeeeeeeeeeeeeeeeeeeeeeeeeeeeeeeeeeed196001600160a01b03841601611e3f57604080516000808252602082019092526001600160a01b038416908390604051611dc09190613503565b60006040518083038185875af1925050503d8060008114611dfd576040519150601f19603f3d011682016040523d82523d6000602084013e611e02565b606091505b5050905080611e395760405162461bcd60e51b815260206004820152600360248201526253544560e81b6044820152606401610314565b50505050565b6000836001600160a01b03163b11611e695760405162461bcd60e51b815260040161031490613532565b600080846001600160a01b031663a9059cbb60e01b8585604051602401611e91929190612eba565b60408051601f198184030181529181526020820180516001600160e01b03166001600160e01b0319909416939093179092529051611ecf9190613503565b6000604051808303816000865af19150503d8060008114611f0c576040519150601f19603f3d011682016040523d82523d6000602084013e611f11565b606091505b5091509150818015611f3b575080511580611f3b575080806020019051810190611f3b9190613277565b611f6c5760405162461bcd60e51b815260206004820152600260248201526114d560f21b6044820152606401610314565b5050505050565b6000611f7d612973565b6001905550565b7ff0c57e16840df040f15088dc2f81fe391c3923bec73e23a9662efc9c229c6a0090565b611fb0612997565b6001600160a01b03811661108a576000604051631e4fbdf760e01b81526004016103149190612ea6565b611fe2612997565b6110556129bc565b6001600160a01b0381166120505760405162461bcd60e51b815260206004820152602760248201527f536f6c76425443526f7574657256323a20696e76616c6964206f70656e46756e6044820152661913585c9ad95d60ca1b6064820152608401610314565b600080546001600160a01b0319166001600160a01b038316908117825560405190917fb972f7c26626db2ffb3776abf797d15304c8c1f62efdc3567bbdad00dddf896c91a250565b73eeeeeeeeeeeeeeeeeeeeeeeeeeeeeeeeeeeeeeed196001600160a01b0384160161216057326001600160a01b03831614806120dc5750336001600160a01b038316145b61211a5760405162461bcd60e51b815260206004820152600f60248201526e0e6cadcc8cae440dad2e6dac2e8c6d608b1b6044820152606401610314565b8034101561215b5760405162461bcd60e51b815260206004820152600e60248201526d0ecc2d8eaca40dad2e6dac2e8c6d60931b6044820152606401610314565b505050565b6000836001600160a01b03163b1161218a5760405162461bcd60e51b815260040161031490613532565b600080846001600160a01b03166323b872dd60e01b8530866040516024016121b4939291906134df565b60408051601f198184030181529181526020820180516001600160e01b03166001600160e01b03199094169390931790925290516121f29190613503565b6000604051808303816000865af19150503d806000811461222f576040519150601f19603f3d011682016040523d82523d6000602084013e612234565b606091505b509150915081801561225e57508051158061225e57508080602001905181019061225e9190613277565b611f6c5760405162461bcd60e51b815260206004820152600360248201526229aa2360e91b6044820152606401610314565b6001600160a01b03808316600090815260046020819052604080832054905163b6b55f2560e01b815292931691829163b6b55f25916122d59187910190815260200190565b6020604051808303816000875af11580156122f4573d6000803e3d6000fd5b505050506040513d601f19601f8201168201806040525081019061231891906132d9565b949350505050565b6001600160a01b038085166000908152600360209081526040808320938716835292905290812054806123655760405162461bcd60e51b8152600401610314906133b1565b61236e8161054e565b6123ca5760405162461bcd60e51b815260206004820152602760248201527f536f6c76425443526f7574657256323a20706f6f6c207065726d697373696f6e6044820152660819195b9a595960ca1b6064820152608401610314565b6000805460405162daa6b160e61b8152600481018490526001600160a01b03909116919082906336a9ac40906024016102a060405180830381865afa158015612417573d6000803e3d6000fd5b505050506040513d601f19601f8201168201806040525081019061243b919061318d565b90508060a001516001600160a01b0316876001600160a01b0316146124725760405162461bcd60e51b8152600401610314906133f2565b805180516040918201516001600160a01b03808c1660009081526004602081905290859020549451639f0b8d0360e01b81529394929392909116918291639f0b8d03916124c3918791879101612eba565b602060405180830381865afa1580156124e0573d6000803e3d6000fd5b505050506040513d601f19601f82011682018060405250810190612504919061325a565b6001600160a01b03168b6001600160a01b0316146125345760405162461bcd60e51b815260040161031490613292565b61253f8a868b6129c4565b6040516308f3ecff60e41b815260048101879052602481018a9052600060448201526001600160401b03891660648201526001600160a01b03861690638f3ecff0906084016020604051808303816000875af11580156125a3573d6000803e3d6000fd5b505050506040513d601f19601f820116820180604052508101906125c791906132d9565b96506000836001600160a01b03166370a08231306040518263ffffffff1660e01b81526004016125f79190612ea6565b602060405180830381865afa158015612614573d6000803e3d6000fd5b505050506040513d601f19601f8201168201806040525081019061263891906132d9565b905060006001600160a01b038516632f745c59306126576001866132f2565b6040518363ffffffff1660e01b8152600401612674929190612eba565b602060405180830381865afa158015612691573d6000803e3d6000fd5b505050506040513d601f19601f820116820180604052508101906126b591906132d9565b60405163131f9f3f60e11b8152600481018290529091506001600160a01b0386169063263f3e7e90602401602060405180830381865afa1580156126fd573d6000803e3d6000fd5b505050506040513d601f19601f8201168201806040525081019061272191906132d9565b841461277d5760405162461bcd60e51b815260206004820152602560248201527f536f6c76425443526f7574657256323a20736861726520736c6f74206e6f74206044820152640dac2e8c6d60db1b6064820152608401610314565b604051631398fee160e31b8152600481018290526001600160a01b03861690639cc7f70890602401602060405180830381865afa1580156127c2573d6000803e3d6000fd5b505050506040513d601f19601f820116820180604052508101906127e691906132d9565b89146128045760405162461bcd60e51b815260040161031490613435565b60405163095ea7b360e01b81526001600160a01b0386169063095ea7b3906128329086908590600401612eba565b600060405180830381600087803b15801561284c57600080fd5b505af1158015612860573d6000803e3d6000fd5b5050604051630efe6a8b60e01b81526001600160a01b0386169250630efe6a8b915061289490889085908e90600401613305565b600060405180830381600087803b1580156128ae57600080fd5b505af11580156128c2573d6000803e3d6000fd5b505050505050505050505050949350505050565b60006128e061294f565b80546001600160a01b03191681559050611b1b82612af2565b7f9016d09d72d40fdae2fd8ceac6b6234c7706214fd39c1cd1e609a0528c19930090565b6040516323b872dd60e01b815283906001600160a01b038216906323b872dd90611d09903090879087906004016134df565b7f237e158222e3e6968b72b9db0d8043aacf074ad9f650f0d1606b4d82ee432c0090565b7f9b779b17422d0df92223018b32b4d1fa46e071723d6817e2486d003becc55f0090565b61299f612b4e565b61105557604051631afcd79f60e31b815260040160405180910390fd5b611f73612997565b6000836001600160a01b03163b116129ee5760405162461bcd60e51b815260040161031490613532565b600080846001600160a01b031663095ea7b360e01b8585604051602401612a16929190612eba565b60408051601f198184030181529181526020820180516001600160e01b03166001600160e01b0319909416939093179092529051612a549190613503565b6000604051808303816000865af19150503d8060008114612a91576040519150601f19603f3d011682016040523d82523d6000602084013e612a96565b606091505b5091509150818015612ac0575080511580612ac0575080806020019051810190612ac09190613277565b611f6c5760405162461bcd60e51b815260206004820152600360248201526229a0a360e91b6044820152606401610314565b6000612afc6128f9565b80546001600160a01b038481166001600160a01b031983168117845560405193945091169182907f8be0079c531659141344cd1fd0a4f28419497f9722a3daafe3b4186f6b6457e090600090a3505050565b6000612b58611f84565b54600160401b900460ff16919050565b828054828255906000526020600020908101928215612bbd579160200282015b82811115612bbd57825182546001600160a01b0319166001600160a01b03909116178255602090920191600190910190612b88565b50612bc9929150612bcd565b5090565b5b80821115612bc95760008155600101612bce565b6001600160a01b038116811461109357600080fd5b634e487b7160e01b600052604160045260246000fd5b604051608081016001600160401b0381118282101715612c2f57612c2f612bf7565b60405290565b604051606081016001600160401b0381118282101715612c2f57612c2f612bf7565b60405161014081016001600160401b0381118282101715612c2f57612c2f612bf7565b604051601f8201601f191681016001600160401b0381118282101715612ca257612ca2612bf7565b604052919050565b600080600060608486031215612cbf57600080fd5b8335612cca81612be2565b9250602084810135612cdb81612be2565b925060408501356001600160401b0380821115612cf757600080fd5b818701915087601f830112612d0b57600080fd5b813581811115612d1d57612d1d612bf7565b8060051b9150612d2e848301612c7a565b818152918301840191848101908a841115612d4857600080fd5b938501935b83851015612d725784359250612d6283612be2565b8282529385019390850190612d4d565b8096505050505050509250925092565b600060208284031215612d9457600080fd5b8135610bad81612be2565b600060208284031215612db157600080fd5b5035919050565b600080600060608486031215612dcd57600080fd5b8335612dd881612be2565b92506020840135612de881612be2565b929592945050506040919091013590565b60008060408385031215612e0c57600080fd5b8235612e1781612be2565b91506020830135612e2781612be2565b809150509250929050565b6001600160401b038116811461109357600080fd5b600080600080600060a08688031215612e5f57600080fd5b8535612e6a81612be2565b94506020860135612e7a81612be2565b935060408601359250606086013591506080860135612e9881612e32565b809150509295509295909350565b6001600160a01b0391909116815260200190565b6001600160a01b03929092168252602082015260400190565b602080825260219082015260008051602061355f8339815191526040820152607960f81b606082015260800190565b60208082526024908201527f536f6c76425443526f7574657256323a20696e76616c6964207461726765745460408201526337b5b2b760e11b606082015260800190565b634e487b7160e01b600052603260045260246000fd5b634e487b7160e01b600052601160045260246000fd5b600060018201612f8457612f84612f5c565b5060010190565b600081518084526020808501945080840160005b83811015612fc45781516001600160a01b031687529582019590820190600101612f9f565b509495945050505050565b602081526000610bad6020830184612f8b565b8051612fed81612be2565b919050565b60006080828403121561300457600080fd5b61300c612c0d565b9050815161301981612be2565b8152602082015161302981612be2565b80602083015250604082015160408201526060820151606082015292915050565b8051612fed81612e32565b60006060828403121561306757600080fd5b61306f612c35565b9050815161ffff8116811461308357600080fd5b8152602082015161309381612be2565b602082015260408201516130a681612e32565b604082015292915050565b6000606082840312156130c357600080fd5b6130cb612c35565b905081516130d881612be2565b815260208201516130e881612be2565b602082015260408201516130a681612be2565b600060a0828403121561310d57600080fd5b60405160a081016001600160401b038111828210171561312f5761312f612bf7565b8060405250809150825181526020830151602082015260408301516040820152606083015161315d81612e32565b6060820152608083015161317081612e32565b6080919091015292915050565b80518015158114612fed57600080fd5b60006102a082840312156131a057600080fd5b6131a8612c57565b6131b28484612ff2565b81526131c18460808501613055565b60208201526131d38460e085016130b1565b60408201526131e68461014085016130fb565b60608201526131f86101e08401612fe2565b608082015261320a6102008401612fe2565b60a082015261321c6102208401612fe2565b60c082015261322e610240840161304a565b60e0820152613240610260840161317d565b610100820152610280929092015161012083015250919050565b60006020828403121561326c57600080fd5b8151610bad81612be2565b60006020828403121561328957600080fd5b610bad8261317d565b60208082526027908201527f536f6c76425443526f7574657256323a2074617267657420746f6b656e206e6f6040820152660e840dac2e8c6d60cb1b606082015260800190565b6000602082840312156132eb57600080fd5b5051919050565b81810381811115611cd157611cd1612f5c565b6001600160a01b039390931683526020830191909152604082015260600190565b9283526020830191909152604082015260600190565b80820180821115611cd157611cd1612f5c565b8481526000602085818401526080604084015261336f6080840186612f8b565b838103606085015284518082528286019183019060005b818110156133a257835183529284019291840191600101613386565b50909998505050505050505050565b60208082526021908201527f536f6c76425443526f7574657256323a20706f6f6c4964206e6f7420666f756e6040820152601960fa1b606082015260800190565b60208082526023908201527f536f6c76425443526f7574657256323a2063757272656e6379206e6f74206d616040820152620e8c6d60eb1b606082015260800190565b60208082526026908201527f536f6c76425443526f7574657256323a2073686172652076616c7565206e6f74604082015265040dac2e8c6d60d31b606082015260800190565b634e487b7160e01b600052603160045260246000fd5b6000608082840312156134a357600080fd5b6134ab612c0d565b8251815260208301516134bd81612be2565b6020820152604083810151908201526060928301519281019290925250919050565b6001600160a01b039384168152919092166020820152604081019190915260600190565b6000825160005b81811015613524576020818601810151858301520161350a565b506000920191825250919050565b602080825260129082015271696e76616c696420756e6465726c79696e6760701b60408201526060019056fe536f6c76425443526f7574657256323a20696e76616c69642063757272656e63a26469706673582212205610971800e27b29075064ba50cf4f0febfe97b463fcc084d85f07bca875b98e64736f6c63430008140033",
  "devdoc": {
    "errors": {
      "InvalidInitialization()": [
        {
          "details": "The contract is already initialized."
        }
      ],
      "NotInitializing()": [
        {
          "details": "The contract is not initializing."
        }
      ],
      "OwnableInvalidOwner(address)": [
        {
          "details": "The owner is not a valid owner account. (eg. `address(0)`)"
        }
      ],
      "OwnableUnauthorizedAccount(address)": [
        {
          "details": "The caller account is not authorized to perform an operation."
        }
      ],
      "ReentrancyGuardReentrantCall()": [
        {
          "details": "Unauthorized reentrant call."
        }
      ]
    },
    "events": {
      "Initialized(uint64)": {
        "details": "Triggered when the contract has been initialized or reinitialized."
      }
    },
    "kind": "dev",
    "methods": {
      "acceptOwnership()": {
        "details": "The new owner accepts the ownership transfer."
      },
      "addKycSBTVerifier(address)": {
        "params": {
          "kycSBTVerifier_": "The KYC SBT verifier address"
        }
      },
      "cancelWithdrawRequest(address,address,uint256)": {
        "params": {
          "redemptionId_": "The redemption sft token ID",
          "redemption_": "The redemption sft token address",
          "targetToken_": "The target ERC20 token address to receive after canceling"
        },
        "returns": {
          "targetTokenAmount_": "The targetToken amount to receive"
        }
      },
      "checkPoolPermission(bytes32)": {
        "params": {
          "poolId_": "The poolId of the pool to deposit"
        }
      },
      "constructor": {
        "custom:oz-upgrades-unsafe-allow": "constructor"
      },
      "deposit(address,address,uint256,uint256,uint64)": {
        "params": {
          "currencyAmount_": "The amount of currency to deposit",
          "currency_": "The currency address to deposit",
          "expireTime_": "The expire time",
          "minimumTargetTokenAmount_": "The minimum acceptable return amount of target token",
          "targetToken_": "The target ERC20 token address to receive"
        },
        "returns": {
          "targetTokenAmount_": "The targetToken amount to receive"
        }
      },
      "initialize(address,address)": {
        "params": {
          "openFundMarket_": "The address of openFundMarket",
          "owner_": "The owner of this router"
        }
      },
      "owner()": {
        "details": "Returns the address of the current owner."
      },
      "pendingOwner()": {
        "details": "Returns the address of the pending owner."
      },
      "removeKycSBTVerifier(address)": {
        "params": {
          "kycSBTVerifier_": "The KYC SBT verifier address"
        }
      },
      "renounceOwnership()": {
        "details": "Leaves the contract without owner. It will not be possible to call `onlyOwner` functions. Can only be called by the current owner. NOTE: Renouncing ownership will leave the contract without an owner, thereby disabling any functionality that is only available to the owner."
      },
      "setMultiAssetPool(address,address)": {
        "params": {
          "multiAssetPool_": "The multiAssetPool/xSolvBTCPool address",
          "token_": "The target ERC20 token address"
        }
      },
      "setPath(address,address,address[])": {
        "params": {
          "currency_": "The currency address to deposit",
          "path_": "The addresses of the path tokens that indicate how to convert currency to targetToken",
          "targetToken_": "The target ERC20 token address to receive"
        }
      },
      "setPoolId(address,address,bytes32)": {
        "params": {
          "currency_": "The currency address to deposit",
          "poolId_": "The poolId of the pool to deposit",
          "targetToken_": "The target ERC20 token address to receive"
        }
      },
      "transferOwnership(address)": {
        "details": "Starts the ownership transfer of the contract to a new account. Replaces the pending transfer if there is one. Can only be called by the current owner."
      },
      "withdrawRequest(address,address,uint256)": {
        "params": {
          "currency_": "The currency address to receive after claiming",
          "targetToken_": "The target ERC20 token address to withdraw",
          "withdrawAmount_": "The amount of targetToken to withdraw"
        },
        "returns": {
          "_0": "The address and ID of the redemption sft token to receive"
        }
      }
    },
    "version": 1
  },
  "userdoc": {
    "kind": "user",
    "methods": {
      "addKycSBTVerifier(address)": {
        "notice": "Add KYC SBT verifier"
      },
      "cancelWithdrawRequest(address,address,uint256)": {
        "notice": "Cancel the withdraw request"
      },
      "checkKycSBT()": {
        "notice": "Verify the KYC status of msg.sender"
      },
      "checkPoolPermission(bytes32)": {
        "notice": "Check if msg.sender is allowed to deposit to the pool"
      },
      "deposit(address,address,uint256,uint256,uint64)": {
        "notice": "Deposit currency and get targetToken"
      },
      "initialize(address,address)": {
        "notice": "RouterV2 initialization"
      },
      "removeKycSBTVerifier(address)": {
        "notice": "Remove KYC SBT verifier"
      },
      "setMultiAssetPool(address,address)": {
        "notice": "Set the multiAssetPool/xSolvBTCPool address for a target token"
      },
      "setPath(address,address,address[])": {
        "notice": "Set the path for a target token and currency"
      },
      "setPoolId(address,address,bytes32)": {
        "notice": "Set the poolId for a target token and currency"
      },
      "withdrawRequest(address,address,uint256)": {
        "notice": "Withdraw currency with target token from the pool"
      }
    },
    "version": 1
  },
  "storageLayout": {
    "storage": [
      {
        "astId": 3529,
        "contract": "contracts/SolvBTCRouterV2.sol:SolvBTCRouterV2",
        "label": "openFundMarket",
        "offset": 0,
        "slot": "0",
        "type": "t_address"
      },
      {
        "astId": 3532,
        "contract": "contracts/SolvBTCRouterV2.sol:SolvBTCRouterV2",
        "label": "kycSBTVerifiers",
        "offset": 0,
        "slot": "1",
        "type": "t_array(t_address)dyn_storage"
      },
      {
        "astId": 3539,
        "contract": "contracts/SolvBTCRouterV2.sol:SolvBTCRouterV2",
        "label": "paths",
        "offset": 0,
        "slot": "2",
        "type": "t_mapping(t_address,t_mapping(t_address,t_array(t_address)dyn_storage))"
      },
      {
        "astId": 3545,
        "contract": "contracts/SolvBTCRouterV2.sol:SolvBTCRouterV2",
        "label": "poolIds",
        "offset": 0,
        "slot": "3",
        "type": "t_mapping(t_address,t_mapping(t_address,t_bytes32))"
      },
      {
        "astId": 3549,
        "contract": "contracts/SolvBTCRouterV2.sol:SolvBTCRouterV2",
        "label": "multiAssetPools",
        "offset": 0,
        "slot": "4",
        "type": "t_mapping(t_address,t_address)"
      },
      {
        "astId": 4775,
        "contract": "contracts/SolvBTCRouterV2.sol:SolvBTCRouterV2",
        "label": "__gap",
        "offset": 0,
        "slot": "5",
        "type": "t_array(t_uint256)45_storage"
      }
    ],
    "types": {
      "t_address": {
        "encoding": "inplace",
        "label": "address",
        "numberOfBytes": "20"
      },
      "t_array(t_address)dyn_storage": {
        "base": "t_address",
        "encoding": "dynamic_array",
        "label": "address[]",
        "numberOfBytes": "32"
      },
      "t_array(t_uint256)45_storage": {
        "base": "t_uint256",
        "encoding": "inplace",
        "label": "uint256[45]",
        "numberOfBytes": "1440"
      },
      "t_bytes32": {
        "encoding": "inplace",
        "label": "bytes32",
        "numberOfBytes": "32"
      },
      "t_mapping(t_address,t_address)": {
        "encoding": "mapping",
        "key": "t_address",
        "label": "mapping(address => address)",
        "numberOfBytes": "32",
        "value": "t_address"
      },
      "t_mapping(t_address,t_array(t_address)dyn_storage)": {
        "encoding": "mapping",
        "key": "t_address",
        "label": "mapping(address => address[])",
        "numberOfBytes": "32",
        "value": "t_array(t_address)dyn_storage"
      },
      "t_mapping(t_address,t_bytes32)": {
        "encoding": "mapping",
        "key": "t_address",
        "label": "mapping(address => bytes32)",
        "numberOfBytes": "32",
        "value": "t_bytes32"
      },
      "t_mapping(t_address,t_mapping(t_address,t_array(t_address)dyn_storage))": {
        "encoding": "mapping",
        "key": "t_address",
        "label": "mapping(address => mapping(address => address[]))",
        "numberOfBytes": "32",
        "value": "t_mapping(t_address,t_array(t_address)dyn_storage)"
      },
      "t_mapping(t_address,t_mapping(t_address,t_bytes32))": {
        "encoding": "mapping",
        "key": "t_address",
        "label": "mapping(address => mapping(address => bytes32))",
        "numberOfBytes": "32",
        "value": "t_mapping(t_address,t_bytes32)"
      },
      "t_uint256": {
        "encoding": "inplace",
        "label": "uint256",
        "numberOfBytes": "32"
      }
    }
  }
}