{
  "address": "0x02bf929e8dA6A7B9B1080e6390C9CA47442EA60D",
  "abi": [
    {
      "inputs": [],
      "stateMutability": "nonpayable",
      "type": "constructor"
    },
    {
      "inputs": [],
      "name": "InvalidInitialization",
      "type": "error"
    },
    {
      "inputs": [],
      "name": "NotInitializing",
      "type": "error"
    },
    {
      "inputs": [],
      "name": "ReentrancyGuardReentrantCall",
      "type": "error"
    },
    {
      "anonymous": false,
      "inputs": [
        {
          "indexed": true,
          "internalType": "address",
          "name": "sft",
          "type": "address"
        },
        {
          "indexed": true,
          "internalType": "uint256",
          "name": "slot",
          "type": "uint256"
        },
        {
          "indexed": true,
          "internalType": "address",
          "name": "erc20",
          "type": "address"
        },
        {
          "indexed": false,
          "internalType": "uint256",
          "name": "holdingValueSftId",
          "type": "uint256"
        }
      ],
      "name": "AddSftSlot",
      "type": "event"
    },
    {
      "anonymous": false,
      "inputs": [
        {
          "indexed": true,
          "internalType": "address",
          "name": "owner",
          "type": "address"
        },
        {
          "indexed": true,
          "internalType": "address",
          "name": "sft",
          "type": "address"
        },
        {
          "indexed": true,
          "internalType": "uint256",
          "name": "slot",
          "type": "uint256"
        },
        {
          "indexed": false,
          "internalType": "address",
          "name": "erc20",
          "type": "address"
        },
        {
          "indexed": false,
          "internalType": "uint256",
          "name": "sftId",
          "type": "uint256"
        },
        {
          "indexed": false,
          "internalType": "uint256",
          "name": "value",
          "type": "uint256"
        }
      ],
      "name": "Deposit",
      "type": "event"
    },
    {
      "anonymous": false,
      "inputs": [
        {
          "indexed": false,
          "internalType": "uint64",
          "name": "version",
          "type": "uint64"
        }
      ],
      "name": "Initialized",
      "type": "event"
    },
    {
      "anonymous": false,
      "inputs": [
        {
          "indexed": false,
          "internalType": "address",
          "name": "oldAdmin",
          "type": "address"
        },
        {
          "indexed": false,
          "internalType": "address",
          "name": "newAdmin",
          "type": "address"
        }
      ],
      "name": "NewAdmin",
      "type": "event"
    },
    {
      "anonymous": false,
      "inputs": [
        {
          "indexed": false,
          "internalType": "address",
          "name": "oldPendingAdmin",
          "type": "address"
        },
        {
          "indexed": false,
          "internalType": "address",
          "name": "newPendingAdmin",
          "type": "address"
        }
      ],
      "name": "NewPendingAdmin",
      "type": "event"
    },
    {
      "anonymous": false,
      "inputs": [
        {
          "indexed": true,
          "internalType": "address",
          "name": "sft",
          "type": "address"
        },
        {
          "indexed": true,
          "internalType": "uint256",
          "name": "slot",
          "type": "uint256"
        },
        {
          "indexed": false,
          "internalType": "bool",
          "name": "depositAllowed",
          "type": "bool"
        },
        {
          "indexed": false,
          "internalType": "bool",
          "name": "withdrawAllowed",
          "type": "bool"
        }
      ],
      "name": "SftSlotAllowedChanged",
      "type": "event"
    },
    {
      "anonymous": false,
      "inputs": [
        {
          "indexed": true,
          "internalType": "address",
          "name": "owner",
          "type": "address"
        },
        {
          "indexed": true,
          "internalType": "address",
          "name": "sft",
          "type": "address"
        },
        {
          "indexed": true,
          "internalType": "uint256",
          "name": "slot",
          "type": "uint256"
        },
        {
          "indexed": false,
          "internalType": "address",
          "name": "erc20",
          "type": "address"
        },
        {
          "indexed": false,
          "internalType": "uint256",
          "name": "sftId",
          "type": "uint256"
        },
        {
          "indexed": false,
          "internalType": "uint256",
          "name": "value",
          "type": "uint256"
        }
      ],
      "name": "Withdraw",
      "type": "event"
    },
    {
      "inputs": [],
      "name": "acceptAdmin",
      "outputs": [],
      "stateMutability": "nonpayable",
      "type": "function"
    },
    {
      "inputs": [
        {
          "internalType": "address",
          "name": "sft_",
          "type": "address"
        },
        {
          "internalType": "uint256",
          "name": "slot_",
          "type": "uint256"
        },
        {
          "internalType": "address",
          "name": "erc20_",
          "type": "address"
        },
        {
          "internalType": "uint256",
          "name": "holdingValueSftId_",
          "type": "uint256"
        }
      ],
      "name": "addSftSlotOnlyAdmin",
      "outputs": [],
      "stateMutability": "nonpayable",
      "type": "function"
    },
    {
      "inputs": [],
      "name": "admin",
      "outputs": [
        {
          "internalType": "address",
          "name": "",
          "type": "address"
        }
      ],
      "stateMutability": "view",
      "type": "function"
    },
    {
      "inputs": [
        {
          "internalType": "address",
          "name": "sft_",
          "type": "address"
        },
        {
          "internalType": "uint256",
          "name": "slot_",
          "type": "uint256"
        },
        {
          "internalType": "bool",
          "name": "depositAllowed_",
          "type": "bool"
        },
        {
          "internalType": "bool",
          "name": "withdrawAllowed_",
          "type": "bool"
        }
      ],
      "name": "changeSftSlotAllowedOnlyAdmin",
      "outputs": [],
      "stateMutability": "nonpayable",
      "type": "function"
    },
    {
      "inputs": [
        {
          "internalType": "address",
          "name": "sft_",
          "type": "address"
        },
        {
          "internalType": "uint256",
          "name": "sftId_",
          "type": "uint256"
        },
        {
          "internalType": "uint256",
          "name": "value_",
          "type": "uint256"
        }
      ],
      "name": "deposit",
      "outputs": [],
      "stateMutability": "nonpayable",
      "type": "function"
    },
    {
      "inputs": [
        {
          "internalType": "address",
          "name": "sft_",
          "type": "address"
        },
        {
          "internalType": "uint256",
          "name": "slot_",
          "type": "uint256"
        }
      ],
      "name": "getERC20",
      "outputs": [
        {
          "internalType": "address",
          "name": "",
          "type": "address"
        }
      ],
      "stateMutability": "view",
      "type": "function"
    },
    {
      "inputs": [
        {
          "internalType": "address",
          "name": "sft_",
          "type": "address"
        },
        {
          "internalType": "uint256",
          "name": "slot_",
          "type": "uint256"
        }
      ],
      "name": "getHoldingValueSftId",
      "outputs": [
        {
          "internalType": "uint256",
          "name": "",
          "type": "uint256"
        }
      ],
      "stateMutability": "view",
      "type": "function"
    },
    {
      "inputs": [
        {
          "internalType": "address",
          "name": "sft_",
          "type": "address"
        },
        {
          "internalType": "uint256",
          "name": "slot_",
          "type": "uint256"
        }
      ],
      "name": "getSftSlotBalance",
      "outputs": [
        {
          "internalType": "uint256",
          "name": "",
          "type": "uint256"
        }
      ],
      "stateMutability": "view",
      "type": "function"
    },
    {
      "inputs": [],
      "name": "initialize",
      "outputs": [],
      "stateMutability": "nonpayable",
      "type": "function"
    },
    {
      "inputs": [
        {
          "internalType": "address",
          "name": "sft_",
          "type": "address"
        },
        {
          "internalType": "uint256",
          "name": "slot_",
          "type": "uint256"
        }
      ],
      "name": "isSftSlotDepositAllowed",
      "outputs": [
        {
          "internalType": "bool",
          "name": "",
          "type": "bool"
        }
      ],
      "stateMutability": "view",
      "type": "function"
    },
    {
      "inputs": [
        {
          "internalType": "address",
          "name": "sft_",
          "type": "address"
        },
        {
          "internalType": "uint256",
          "name": "slot_",
          "type": "uint256"
        }
      ],
      "name": "isSftSlotWithdrawAllowed",
      "outputs": [
        {
          "internalType": "bool",
          "name": "",
          "type": "bool"
        }
      ],
      "stateMutability": "view",
      "type": "function"
    },
    {
      "inputs": [],
      "name": "pendingAdmin",
      "outputs": [
        {
          "internalType": "address",
          "name": "",
          "type": "address"
        }
      ],
      "stateMutability": "view",
      "type": "function"
    },
    {
      "inputs": [
        {
          "internalType": "address",
          "name": "newPendingAdmin_",
          "type": "address"
        }
      ],
      "name": "transferAdmin",
      "outputs": [],
      "stateMutability": "nonpayable",
      "type": "function"
    },
    {
      "inputs": [
        {
          "internalType": "address",
          "name": "sft_",
          "type": "address"
        },
        {
          "internalType": "uint256",
          "name": "slot_",
          "type": "uint256"
        },
        {
          "internalType": "uint256",
          "name": "sftId_",
          "type": "uint256"
        },
        {
          "internalType": "uint256",
          "name": "value_",
          "type": "uint256"
        }
      ],
      "name": "withdraw",
      "outputs": [
        {
          "internalType": "uint256",
          "name": "toSftId_",
          "type": "uint256"
        }
      ],
      "stateMutability": "nonpayable",
      "type": "function"
    }
  ],
  "transactionHash": "0x1af6c6439a9ce83bf8315260e455333b4730928224de851486bb976e44df7851",
  "args": [],
  "numDeployments": 1,
  "solcInputHash": "0b1f3ab10816c02241d3e601cd05a0d7",
  "bytecode": "0x608060405234801561001057600080fd5b5061001961001e565b6100d0565b7ff0c57e16840df040f15088dc2f81fe391c3923bec73e23a9662efc9c229c6a00805468010000000000000000900460ff161561006e5760405163f92ee8a960e01b815260040160405180910390fd5b80546001600160401b03908116146100cd5780546001600160401b0319166001600160401b0390811782556040519081527fc7f505b2f371ae2175ee4913f4499e1f2633a7b5936321eed1cdaeb6115181d29060200160405180910390a15b50565b6118eb806100df6000396000f3fe608060405234801561001057600080fd5b50600436106100ba5760003560e01c80630e18b681146100bf5780630efe6a8b146100c957806312a2b905146100dc578063159c3a201461010257806326782247146101155780634532d7761461014057806375829def146101535780638129fc1c1461016657806386585a5e1461016e5780639f0b8d03146101c1578063a6c3325f146101fa578063c4d9799514610230578063d2d9210014610243578063f851a44014610286575b600080fd5b6100c7610299565b005b6100c76100d7366004611540565b61034d565b6100ef6100ea366004611575565b610742565b6040519081526020015b60405180910390f35b6100c76101103660046115a1565b6107e8565b600154610128906001600160a01b031681565b6040516001600160a01b0390911681526020016100f9565b6100ef61014e3660046115e9565b610b9c565b6100c7610161366004611624565b610f18565b6100c7610fab565b6101b161017c366004611575565b6001600160a01b039190911660009081526032602090815260408083209383529290522060010154600160a01b900460ff1690565b60405190151581526020016100f9565b6101286101cf366004611575565b6001600160a01b03918216600090815260326020908152604080832093835292905220600101541690565b6100ef610208366004611575565b6001600160a01b03919091166000908152603260209081526040808320938352929052205490565b6100c761023e36600461165d565b6110ab565b6101b1610251366004611575565b6001600160a01b039190911660009081526032602090815260408083209383529290522060010154600160a81b900460ff1690565b600054610128906001600160a01b031681565b6001546001600160a01b031633146102ed5760405162461bcd60e51b815260206004820152601260248201527137b7363c903832b73234b7339030b236b4b760711b60448201526064015b60405180910390fd5b6000546001546040516000805160206118968339815191529261031e926001600160a01b03918216929116906116ac565b60405180910390a160018054600080546001600160a01b03199081166001600160a01b03841617909155169055565b6103556111d3565b600081116103ad5760405162461bcd60e51b8152602060048201526031602482015260008051602061185683398151915260448201527006d6f756e742063616e6e6f74206265203607c1b60648201526084016102e4565b6040516331a9108f60e11b8152600481018390526001600160a01b03841690636352211e90602401602060405180830381865afa1580156103f2573d6000803e3d6000fd5b505050506040513d601f19601f8201168201806040525081019061041691906116c6565b6001600160a01b0316336001600160a01b0316146104465760405162461bcd60e51b81526004016102e4906116e3565b60405163131f9f3f60e11b8152600481018390526000906001600160a01b0385169063263f3e7e90602401602060405180830381865afa15801561048e573d6000803e3d6000fd5b505050506040513d601f19601f820116820180604052508101906104b29190611731565b6001600160a01b03851660009081526032602090815260408083208484529091529020600181015491925090600160a01b900460ff1661053e5760405162461bcd60e51b8152602060048201526033602482015260008051602061187683398151915260448201527219195c1bdcda5d081b9bdd08185b1b1bddd959606a1b60648201526084016102e4565b604051631398fee160e31b8152600481018590526000906001600160a01b03871690639cc7f70890602401602060405180830381865afa158015610586573d6000803e3d6000fd5b505050506040513d601f19601f820116820180604052508101906105aa9190611731565b90508084036105f1576105be863387611209565b81546000036105cf5784825561067c565b6105df8686846000015487611273565b6105ec8661dead876112e4565b61067c565b808410156106245781546000036106145761060d868686611316565b825561067c565b6105ec8686846000015487611273565b60405162461bcd60e51b815260206004820152603960248201526000805160206118568339815191526044820152786d6f756e742065786365656473207366742062616c616e636560381b60648201526084016102e4565b60018201546040516340c10f1960e01b81526001600160a01b03909116906340c10f19906106b0903390889060040161174a565b600060405180830381600087803b1580156106ca57600080fd5b505af11580156106de573d6000803e3d6000fd5b50505060018301546040518592506001600160a01b03808a169233927e989e8d31410c29caf0085f1b67a406c7146d720ea8e126047c5aac4c1b3b2b9261072a9216908b908b90611763565b60405180910390a450505061073d611397565b505050565b6001600160a01b038216600090815260326020908152604080832084845290915281208054156107dd578054604051631398fee160e31b815260048101919091526001600160a01b03851690639cc7f70890602401602060405180830381865afa1580156107b4573d6000803e3d6000fd5b505050506040513d601f19601f820116820180604052508101906107d89190611731565b6107e0565b60005b949350505050565b6000546001600160a01b031633146108125760405162461bcd60e51b81526004016102e490611784565b6001600160a01b03808516600090815260326020908152604080832087845290915290206001810154909116156108915760405162461bcd60e51b815260206004820152602f602482015260008051602061187683398151915260448201526e185b1c9958591e48195e1a5cdd1959608a1b60648201526084016102e4565b826001600160a01b031663313ce5676040518163ffffffff1660e01b8152600401602060405180830381865afa1580156108cf573d6000803e3d6000fd5b505050506040513d601f19601f820116820180604052508101906108f391906117a8565b60ff16856001600160a01b0316633e7e86696040518163ffffffff1660e01b8152600401602060405180830381865afa158015610934573d6000803e3d6000fd5b505050506040513d601f19601f8201168201806040525081019061095891906117a8565b60ff16146109bc5760405162461bcd60e51b815260206004820152602b60248201527f536f6c764254434d756c74694173736574506f6f6c3a20646563696d616c732060448201526a1b9bdd081b585d18da195960aa1b60648201526084016102e4565b8115610b1a5760405163131f9f3f60e11b81526004810183905284906001600160a01b0387169063263f3e7e90602401602060405180830381865afa158015610a09573d6000803e3d6000fd5b505050506040513d601f19601f82011682018060405250810190610a2d9190611731565b14610a4a5760405162461bcd60e51b81526004016102e4906117cb565b6040516331a9108f60e11b81526004810183905230906001600160a01b03871690636352211e90602401602060405180830381865afa158015610a91573d6000803e3d6000fd5b505050506040513d601f19601f82011682018060405250810190610ab591906116c6565b6001600160a01b031614610b1a5760405162461bcd60e51b815260206004820152602660248201527f536f6c764254434d756c74694173736574506f6f6c3a207366744964206e6f74604482015265081bdddb995960d21b60648201526084016102e4565b81815560018101805460ff60a81b196001600160a81b03199091166001600160a01b03808716918217600160a01b1792909216600160a81b1790925560405186918816907fc2532812ecf7eb4907c9cac96370c00bfb6064322750c6dd0bc97114ceeaa18790610b8d9087815260200190565b60405180910390a45050505050565b6000610ba66111d3565b60008211610c115760405162461bcd60e51b815260206004820152603260248201527f536f6c764254434d756c74694173736574506f6f6c3a207769746864726177206044820152710616d6f756e742063616e6e6f7420626520360741b60648201526084016102e4565b6001600160a01b038516600090815260326020908152604080832087845290915290206001810154600160a81b900460ff16610c915760405162461bcd60e51b815260206004820152602b602482015260008051602061187683398151915260448201526a1b9bdd08185b1b1bddd95960aa1b60648201526084016102e4565b6000610c9d8787610742565b905080841115610d035760405162461bcd60e51b815260206004820152602b60248201527f536f6c764254434d756c74694173736574506f6f6c3a20696e7375666669636960448201526a656e742062616c616e636560a81b60648201526084016102e4565b6001820154604051632770a7eb60e21b81526001600160a01b0390911690639dc29fac90610d37903390889060040161174a565b600060405180830381600087803b158015610d5157600080fd5b505af1158015610d65573d6000803e3d6000fd5b5050505084600003610d8857610d8187836000015433876113a8565b9250610ebc565b60405163131f9f3f60e11b8152600481018690526001600160a01b0388169063263f3e7e90602401602060405180830381865afa158015610dcd573d6000803e3d6000fd5b505050506040513d601f19601f82011682018060405250810190610df19190611731565b8614610e0f5760405162461bcd60e51b81526004016102e4906117cb565b6040516331a9108f60e11b8152600481018690526001600160a01b03881690636352211e90602401602060405180830381865afa158015610e54573d6000803e3d6000fd5b505050506040513d601f19601f82011682018060405250810190610e7891906116c6565b6001600160a01b0316336001600160a01b031614610ea85760405162461bcd60e51b81526004016102e4906116e3565b610eb88783600001548787611273565b8492505b600182015460405187916001600160a01b03808b169233927f57a06fdd930dbeed1599239829f62ff839283da1c96a5eb2b024c791b1d76e6992610f069291169089908b90611763565b60405180910390a450506107e0611397565b6000546001600160a01b03163314610f425760405162461bcd60e51b81526004016102e490611784565b6001546040517fca4f2f25d0898edd99413412fb94012f9e54ec8142f9b093e7720646a95b16a991610f81916001600160a01b039091169084906116ac565b60405180910390a1600180546001600160a01b0319166001600160a01b0392909216919091179055565b6000610fb561142a565b805490915060ff600160401b82041615906001600160401b0316600081158015610fdc5750825b90506000826001600160401b03166001148015610ff85750303b155b905081158015611006575080155b156110245760405163f92ee8a960e01b815260040160405180910390fd5b84546001600160401b0319166001178555831561104d57845460ff60401b1916600160401b1785555b6110563361144e565b61105e611462565b83156110a457845460ff60401b19168555604051600181527fc7f505b2f371ae2175ee4913f4499e1f2633a7b5936321eed1cdaeb6115181d29060200160405180910390a15b5050505050565b6000546001600160a01b031633146110d55760405162461bcd60e51b81526004016102e490611784565b6001600160a01b0380851660009081526032602090815260408083208784529091529020600181015490911661114f5760405162461bcd60e51b815260206004820152602b602482015260008051602061187683398151915260448201526a1b9bdd08195e1a5cdd195960aa1b60648201526084016102e4565b60018101805461ffff60a01b1916600160a01b85151590810260ff60a81b191691909117600160a81b8515159081029190911790925560408051918252602082019290925285916001600160a01b038816917fa36339e77124f707069252e7a04f56b467507541182e9e4b2536c9f8377464ff910160405180910390a35050505050565b60006111dd611474565b80549091506001190161120357604051633ee5aeb560e01b815260040160405180910390fd5b60029055565b6040516323b872dd60e01b815283906001600160a01b038216906323b872dd9061123b90869030908790600401611812565b600060405180830381600087803b15801561125557600080fd5b505af1158015611269573d6000803e3d6000fd5b5050505050505050565b604051630310ed7f60e41b815260048101849052602481018390526044810182905284906001600160a01b0382169063310ed7f090606401600060405180830381600087803b1580156112c557600080fd5b505af11580156112d9573d6000803e3d6000fd5b505050505050505050565b6040516323b872dd60e01b815283906001600160a01b038216906323b872dd9061123b90309087908790600401611812565b6040516307a42e0160e11b815260009084906001600160a01b03821690630f485c029061134b90879030908890600401611836565b6020604051808303816000875af115801561136a573d6000803e3d6000fd5b505050506040513d601f19601f8201168201806040525081019061138e9190611731565b95945050505050565b60006113a1611474565b6001905550565b6040516307a42e0160e11b815260009085906001600160a01b03821690630f485c02906113dd90889088908890600401611836565b6020604051808303816000875af11580156113fc573d6000803e3d6000fd5b505050506040513d601f19601f820116820180604052508101906114209190611731565b9695505050505050565b7ff0c57e16840df040f15088dc2f81fe391c3923bec73e23a9662efc9c229c6a0090565b611456611498565b61145f816114bd565b50565b61146a611498565b611472611509565b565b7f9b779b17422d0df92223018b32b4d1fa46e071723d6817e2486d003becc55f0090565b6114a0611511565b61147257604051631afcd79f60e31b815260040160405180910390fd5b6114c5611498565b600080546001600160a01b0319166001600160a01b038316178155604051600080516020611896833981519152916114fe9184906116ac565b60405180910390a150565b611397611498565b600061151b61142a565b54600160401b900460ff16919050565b6001600160a01b038116811461145f57600080fd5b60008060006060848603121561155557600080fd5b83356115608161152b565b95602085013595506040909401359392505050565b6000806040838503121561158857600080fd5b82356115938161152b565b946020939093013593505050565b600080600080608085870312156115b757600080fd5b84356115c28161152b565b93506020850135925060408501356115d98161152b565b9396929550929360600135925050565b600080600080608085870312156115ff57600080fd5b843561160a8161152b565b966020860135965060408601359560600135945092505050565b60006020828403121561163657600080fd5b81356116418161152b565b9392505050565b8035801515811461165857600080fd5b919050565b6000806000806080858703121561167357600080fd5b843561167e8161152b565b93506020850135925061169360408601611648565b91506116a160608601611648565b905092959194509250565b6001600160a01b0392831681529116602082015260400190565b6000602082840312156116d857600080fd5b81516116418161152b565b6020808252602e908201527f536f6c764254434d756c74694173736574506f6f6c3a2063616c6c657220697360408201526d103737ba1039b33a1037bbb732b960911b606082015260800190565b60006020828403121561174357600080fd5b5051919050565b6001600160a01b03929092168252602082015260400190565b6001600160a01b039390931683526020830191909152604082015260600190565b6020808252600a908201526937b7363c9030b236b4b760b11b604082015260600190565b6000602082840312156117ba57600080fd5b815160ff8116811461164157600080fd5b60208082526027908201527f536f6c764254434d756c74694173736574506f6f6c3a20736c6f74206e6f74206040820152661b585d18da195960ca1b606082015260800190565b6001600160a01b039384168152919092166020820152604081019190915260600190565b9283526001600160a01b0391909116602083015260408201526060019056fe536f6c764254434d756c74694173736574506f6f6c3a206465706f7369742061536f6c764254434d756c74694173736574506f6f6c3a2073667420736c6f7420f9ffabca9c8276e99321725bcb43fb076a6c66a54b7f21c4e8146d8519b417dca2646970667358221220063f6d5e4867935343127d21abcd55a534dec90ebbdb86643aaa9c6fe89458ad64736f6c63430008140033",
  "devdoc": {
    "errors": {
      "InvalidInitialization()": [
        {
          "details": "The contract is already initialized."
        }
      ],
      "NotInitializing()": [
        {
          "details": "The contract is not initializing."
        }
      ],
      "ReentrancyGuardReentrantCall()": [
        {
          "details": "Unauthorized reentrant call."
        }
      ]
    },
    "events": {
      "Initialized(uint64)": {
        "details": "Triggered when the contract has been initialized or reinitialized."
      }
    },
    "kind": "dev",
    "methods": {
      "constructor": {
        "custom:oz-upgrades-unsafe-allow": "constructor"
      }
    },
    "version": 1
  },
  "userdoc": {
    "kind": "user",
    "methods": {},
    "version": 1
  },
  "storageLayout": {
    "storage": [
      {
        "astId": 9539,
        "contract": "contracts/SolvBTCMultiAssetPool.sol:SolvBTCMultiAssetPool",
        "label": "admin",
        "offset": 0,
        "slot": "0",
        "type": "t_address"
      },
      {
        "astId": 9541,
        "contract": "contracts/SolvBTCMultiAssetPool.sol:SolvBTCMultiAssetPool",
        "label": "pendingAdmin",
        "offset": 0,
        "slot": "1",
        "type": "t_address"
      },
      {
        "astId": 9636,
        "contract": "contracts/SolvBTCMultiAssetPool.sol:SolvBTCMultiAssetPool",
        "label": "__gap",
        "offset": 0,
        "slot": "2",
        "type": "t_array(t_uint256)48_storage"
      },
      {
        "astId": 7107,
        "contract": "contracts/SolvBTCMultiAssetPool.sol:SolvBTCMultiAssetPool",
        "label": "_sftSlotInfos",
        "offset": 0,
        "slot": "50",
        "type": "t_mapping(t_address,t_mapping(t_uint256,t_struct(SftSlotInfo)7100_storage))"
      },
      {
        "astId": 7757,
        "contract": "contracts/SolvBTCMultiAssetPool.sol:SolvBTCMultiAssetPool",
        "label": "__gap",
        "offset": 0,
        "slot": "51",
        "type": "t_array(t_uint256)49_storage"
      }
    ],
    "types": {
      "t_address": {
        "encoding": "inplace",
        "label": "address",
        "numberOfBytes": "20"
      },
      "t_array(t_uint256)48_storage": {
        "base": "t_uint256",
        "encoding": "inplace",
        "label": "uint256[48]",
        "numberOfBytes": "1536"
      },
      "t_array(t_uint256)49_storage": {
        "base": "t_uint256",
        "encoding": "inplace",
        "label": "uint256[49]",
        "numberOfBytes": "1568"
      },
      "t_bool": {
        "encoding": "inplace",
        "label": "bool",
        "numberOfBytes": "1"
      },
      "t_mapping(t_address,t_mapping(t_uint256,t_struct(SftSlotInfo)7100_storage))": {
        "encoding": "mapping",
        "key": "t_address",
        "label": "mapping(address => mapping(uint256 => struct SolvBTCMultiAssetPool.SftSlotInfo))",
        "numberOfBytes": "32",
        "value": "t_mapping(t_uint256,t_struct(SftSlotInfo)7100_storage)"
      },
      "t_mapping(t_uint256,t_struct(SftSlotInfo)7100_storage)": {
        "encoding": "mapping",
        "key": "t_uint256",
        "label": "mapping(uint256 => struct SolvBTCMultiAssetPool.SftSlotInfo)",
        "numberOfBytes": "32",
        "value": "t_struct(SftSlotInfo)7100_storage"
      },
      "t_struct(SftSlotInfo)7100_storage": {
        "encoding": "inplace",
        "label": "struct SolvBTCMultiAssetPool.SftSlotInfo",
        "members": [
          {
            "astId": 7093,
            "contract": "contracts/SolvBTCMultiAssetPool.sol:SolvBTCMultiAssetPool",
            "label": "holdingValueSftId",
            "offset": 0,
            "slot": "0",
            "type": "t_uint256"
          },
          {
            "astId": 7095,
            "contract": "contracts/SolvBTCMultiAssetPool.sol:SolvBTCMultiAssetPool",
            "label": "erc20",
            "offset": 0,
            "slot": "1",
            "type": "t_address"
          },
          {
            "astId": 7097,
            "contract": "contracts/SolvBTCMultiAssetPool.sol:SolvBTCMultiAssetPool",
            "label": "depositAllowed",
            "offset": 20,
            "slot": "1",
            "type": "t_bool"
          },
          {
            "astId": 7099,
            "contract": "contracts/SolvBTCMultiAssetPool.sol:SolvBTCMultiAssetPool",
            "label": "withdrawAllowed",
            "offset": 21,
            "slot": "1",
            "type": "t_bool"
          }
        ],
        "numberOfBytes": "64"
      },
      "t_uint256": {
        "encoding": "inplace",
        "label": "uint256",
        "numberOfBytes": "32"
      }
    }
  }
}