{
  "address": "0xdCEeD74a7E30CFD002d30EAABc7Ea8E0b0aA2627",
  "abi": [
    {
      "inputs": [],
      "stateMutability": "nonpayable",
      "type": "constructor"
    },
    {
      "inputs": [],
      "name": "InvalidInitialization",
      "type": "error"
    },
    {
      "inputs": [],
      "name": "NotInitializing",
      "type": "error"
    },
    {
      "inputs": [],
      "name": "ReentrancyGuardReentrantCall",
      "type": "error"
    },
    {
      "anonymous": false,
      "inputs": [
        {
          "indexed": true,
          "internalType": "bytes32",
          "name": "poolId",
          "type": "bytes32"
        },
        {
          "indexed": true,
          "internalType": "address",
          "name": "owner",
          "type": "address"
        },
        {
          "indexed": true,
          "internalType": "address",
          "name": "solvBTC",
          "type": "address"
        },
        {
          "indexed": false,
          "internalType": "uint256",
          "name": "redemptionId",
          "type": "uint256"
        },
        {
          "indexed": false,
          "internalType": "uint256",
          "name": "cancelAmount",
          "type": "uint256"
        }
      ],
      "name": "CancelRedemption",
      "type": "event"
    },
    {
      "anonymous": false,
      "inputs": [
        {
          "indexed": true,
          "internalType": "address",
          "name": "payer",
          "type": "address"
        },
        {
          "indexed": true,
          "internalType": "address",
          "name": "currency",
          "type": "address"
        },
        {
          "indexed": true,
          "internalType": "address",
          "name": "feeReceiver",
          "type": "address"
        },
        {
          "indexed": false,
          "internalType": "uint256",
          "name": "feeAmount",
          "type": "uint256"
        }
      ],
      "name": "CollectDepositFee",
      "type": "event"
    },
    {
      "anonymous": false,
      "inputs": [
        {
          "indexed": true,
          "internalType": "bytes32",
          "name": "poolId",
          "type": "bytes32"
        },
        {
          "indexed": true,
          "internalType": "address",
          "name": "redeemer",
          "type": "address"
        },
        {
          "indexed": true,
          "internalType": "address",
          "name": "solvBTC",
          "type": "address"
        },
        {
          "indexed": false,
          "internalType": "uint256",
          "name": "redeemAmount",
          "type": "uint256"
        },
        {
          "indexed": false,
          "internalType": "uint256",
          "name": "redemptionId",
          "type": "uint256"
        }
      ],
      "name": "CreateRedemption",
      "type": "event"
    },
    {
      "anonymous": false,
      "inputs": [
        {
          "indexed": true,
          "internalType": "bytes32",
          "name": "poolId",
          "type": "bytes32"
        },
        {
          "indexed": true,
          "internalType": "address",
          "name": "subscriber",
          "type": "address"
        },
        {
          "indexed": false,
          "internalType": "address",
          "name": "solvBTC",
          "type": "address"
        },
        {
          "indexed": false,
          "internalType": "uint256",
          "name": "subscribeAmount",
          "type": "uint256"
        },
        {
          "indexed": false,
          "internalType": "address",
          "name": "currency",
          "type": "address"
        },
        {
          "indexed": false,
          "internalType": "uint256",
          "name": "currencyAmount",
          "type": "uint256"
        }
      ],
      "name": "CreateSubscription",
      "type": "event"
    },
    {
      "anonymous": false,
      "inputs": [
        {
          "indexed": false,
          "internalType": "uint64",
          "name": "version",
          "type": "uint64"
        }
      ],
      "name": "Initialized",
      "type": "event"
    },
    {
      "anonymous": false,
      "inputs": [
        {
          "indexed": false,
          "internalType": "address",
          "name": "oldAdmin",
          "type": "address"
        },
        {
          "indexed": false,
          "internalType": "address",
          "name": "newAdmin",
          "type": "address"
        }
      ],
      "name": "NewAdmin",
      "type": "event"
    },
    {
      "anonymous": false,
      "inputs": [
        {
          "indexed": false,
          "internalType": "address",
          "name": "oldGovernor",
          "type": "address"
        },
        {
          "indexed": false,
          "internalType": "address",
          "name": "newGovernor",
          "type": "address"
        }
      ],
      "name": "NewGovernor",
      "type": "event"
    },
    {
      "anonymous": false,
      "inputs": [
        {
          "indexed": false,
          "internalType": "address",
          "name": "oldPendingAdmin",
          "type": "address"
        },
        {
          "indexed": false,
          "internalType": "address",
          "name": "newPendingAdmin",
          "type": "address"
        }
      ],
      "name": "NewPendingAdmin",
      "type": "event"
    },
    {
      "anonymous": false,
      "inputs": [
        {
          "indexed": false,
          "internalType": "address",
          "name": "oldPendingGovernor",
          "type": "address"
        },
        {
          "indexed": false,
          "internalType": "address",
          "name": "newPendingGovernor",
          "type": "address"
        }
      ],
      "name": "NewPendingGovernor",
      "type": "event"
    },
    {
      "anonymous": false,
      "inputs": [
        {
          "indexed": false,
          "internalType": "address",
          "name": "feeManager",
          "type": "address"
        }
      ],
      "name": "SetFeeManager",
      "type": "event"
    },
    {
      "anonymous": false,
      "inputs": [
        {
          "indexed": true,
          "internalType": "address",
          "name": "previousOpenFundMarket",
          "type": "address"
        },
        {
          "indexed": true,
          "internalType": "address",
          "name": "newOpenFundMarket",
          "type": "address"
        }
      ],
      "name": "SetOpenFundMarket",
      "type": "event"
    },
    {
      "anonymous": false,
      "inputs": [
        {
          "indexed": true,
          "internalType": "address",
          "name": "previousSolvBTCMultiAssetPool",
          "type": "address"
        },
        {
          "indexed": true,
          "internalType": "address",
          "name": "newSolvBTCMultiAssetPool",
          "type": "address"
        }
      ],
      "name": "SetSolvBTCMultiAssetPool",
      "type": "event"
    },
    {
      "inputs": [],
      "name": "acceptAdmin",
      "outputs": [],
      "stateMutability": "nonpayable",
      "type": "function"
    },
    {
      "inputs": [],
      "name": "acceptGovernance",
      "outputs": [],
      "stateMutability": "nonpayable",
      "type": "function"
    },
    {
      "inputs": [],
      "name": "admin",
      "outputs": [
        {
          "internalType": "address",
          "name": "",
          "type": "address"
        }
      ],
      "stateMutability": "view",
      "type": "function"
    },
    {
      "inputs": [
        {
          "internalType": "bytes32",
          "name": "poolId_",
          "type": "bytes32"
        },
        {
          "internalType": "uint256",
          "name": "openFundRedemptionId_",
          "type": "uint256"
        }
      ],
      "name": "cancelRedemption",
      "outputs": [],
      "stateMutability": "nonpayable",
      "type": "function"
    },
    {
      "inputs": [
        {
          "internalType": "bytes32",
          "name": "poolId_",
          "type": "bytes32"
        }
      ],
      "name": "checkPoolPermission",
      "outputs": [
        {
          "internalType": "bool",
          "name": "",
          "type": "bool"
        }
      ],
      "stateMutability": "view",
      "type": "function"
    },
    {
      "inputs": [
        {
          "internalType": "bytes32",
          "name": "poolId_",
          "type": "bytes32"
        },
        {
          "internalType": "uint256",
          "name": "redeemAmount_",
          "type": "uint256"
        }
      ],
      "name": "createRedemption",
      "outputs": [
        {
          "internalType": "uint256",
          "name": "redemptionId_",
          "type": "uint256"
        }
      ],
      "stateMutability": "nonpayable",
      "type": "function"
    },
    {
      "inputs": [
        {
          "internalType": "bytes32",
          "name": "poolId_",
          "type": "bytes32"
        },
        {
          "internalType": "uint256",
          "name": "currencyAmount_",
          "type": "uint256"
        }
      ],
      "name": "createSubscription",
      "outputs": [
        {
          "internalType": "uint256",
          "name": "shareValue_",
          "type": "uint256"
        }
      ],
      "stateMutability": "nonpayable",
      "type": "function"
    },
    {
      "inputs": [],
      "name": "feeManager",
      "outputs": [
        {
          "internalType": "address",
          "name": "",
          "type": "address"
        }
      ],
      "stateMutability": "view",
      "type": "function"
    },
    {
      "inputs": [],
      "name": "governor",
      "outputs": [
        {
          "internalType": "address",
          "name": "",
          "type": "address"
        }
      ],
      "stateMutability": "view",
      "type": "function"
    },
    {
      "inputs": [
        {
          "internalType": "address",
          "name": "",
          "type": "address"
        },
        {
          "internalType": "uint256",
          "name": "",
          "type": "uint256"
        }
      ],
      "name": "holdingSftIds",
      "outputs": [
        {
          "internalType": "uint256",
          "name": "",
          "type": "uint256"
        }
      ],
      "stateMutability": "view",
      "type": "function"
    },
    {
      "inputs": [
        {
          "internalType": "address",
          "name": "governor_",
          "type": "address"
        },
        {
          "internalType": "address",
          "name": "openFundMarket_",
          "type": "address"
        },
        {
          "internalType": "address",
          "name": "solvBTCMultiAssetPool_",
          "type": "address"
        }
      ],
      "name": "initialize",
      "outputs": [],
      "stateMutability": "nonpayable",
      "type": "function"
    },
    {
      "inputs": [],
      "name": "openFundMarket",
      "outputs": [
        {
          "internalType": "address",
          "name": "",
          "type": "address"
        }
      ],
      "stateMutability": "view",
      "type": "function"
    },
    {
      "inputs": [],
      "name": "pendingAdmin",
      "outputs": [
        {
          "internalType": "address",
          "name": "",
          "type": "address"
        }
      ],
      "stateMutability": "view",
      "type": "function"
    },
    {
      "inputs": [],
      "name": "pendingGovernor",
      "outputs": [
        {
          "internalType": "address",
          "name": "",
          "type": "address"
        }
      ],
      "stateMutability": "view",
      "type": "function"
    },
    {
      "inputs": [
        {
          "internalType": "address",
          "name": "feeManager_",
          "type": "address"
        }
      ],
      "name": "setFeeManager",
      "outputs": [],
      "stateMutability": "nonpayable",
      "type": "function"
    },
    {
      "inputs": [
        {
          "internalType": "address",
          "name": "openFundMarket_",
          "type": "address"
        }
      ],
      "name": "setOpenFundMarket",
      "outputs": [],
      "stateMutability": "nonpayable",
      "type": "function"
    },
    {
      "inputs": [
        {
          "internalType": "address",
          "name": "solvBTCMultiAssetPool_",
          "type": "address"
        }
      ],
      "name": "setSolvBTCMultiAssetPool",
      "outputs": [],
      "stateMutability": "nonpayable",
      "type": "function"
    },
    {
      "inputs": [],
      "name": "solvBTCMultiAssetPool",
      "outputs": [
        {
          "internalType": "address",
          "name": "",
          "type": "address"
        }
      ],
      "stateMutability": "view",
      "type": "function"
    },
    {
      "inputs": [
        {
          "internalType": "address",
          "name": "newPendingAdmin_",
          "type": "address"
        }
      ],
      "name": "transferAdmin",
      "outputs": [],
      "stateMutability": "nonpayable",
      "type": "function"
    },
    {
      "inputs": [
        {
          "internalType": "address",
          "name": "newPendingGovernor_",
          "type": "address"
        }
      ],
      "name": "transferGovernance",
      "outputs": [],
      "stateMutability": "nonpayable",
      "type": "function"
    }
  ],
  "transactionHash": "0x29a291ab5fbaab5f51384c1e52cf77c2e92eaba57855c4e21e8ed7790741fac2",
  "args": [],
  "numDeployments": 1,
  "solcInputHash": "0ad32e8d0dfe96e8e7422a2edd405bb0",
  "bytecode": "0x60806040523480156200001157600080fd5b506200001c62000022565b620000d6565b7ff0c57e16840df040f15088dc2f81fe391c3923bec73e23a9662efc9c229c6a00805468010000000000000000900460ff1615620000735760405163f92ee8a960e01b815260040160405180910390fd5b80546001600160401b0390811614620000d35780546001600160401b0319166001600160401b0390811782556040519081527fc7f505b2f371ae2175ee4913f4499e1f2633a7b5936321eed1cdaeb6115181d29060200160405180910390a15b50565b6129e580620000e66000396000f3fe608060405234801561001057600080fd5b50600436106100fc5760003560e01c80630c340a24146101015780630e18b6811461012a5780631d98e7f814610134578063238efcbc14610157578063267822471461015f578063309eadd01461017257806334d27fbf14610185578063472d35b9146101a65780634fe03069146101b95780636d724ead146101cc5780636fdc9d9b146101df57806375829def146101f2578063c0c53b8b14610205578063d0fb020314610218578063d38bfff41461022b578063d6207d461461023e578063e3056a3414610269578063f355d4171461027c578063f443a35b1461028f578063f851a440146102a2575b600080fd5b603254610114906001600160a01b031681565b60405161012191906122c3565b60405180910390f35b6101326102b5565b005b6101476101423660046122d7565b61039f565b6040519015158152602001610121565b61013261052c565b600154610114906001600160a01b031681565b610132610180366004612305565b6105b6565b610198610193366004612329565b6105ec565b604051908152602001610121565b6101326101b4366004612305565b610af4565b6101326101c7366004612329565b610bd5565b6101986101da366004612329565b610fee565b6101326101ed366004612305565b61173f565b610132610200366004612305565b611772565b61013261021336600461234b565b6117f3565b606754610114906001600160a01b031681565b610132610239366004612305565b6119b3565b61019861024c366004612396565b606660209081526000928352604080842090915290825290205481565b603354610114906001600160a01b031681565b606454610114906001600160a01b031681565b606554610114906001600160a01b031681565b600054610114906001600160a01b031681565b6001546001600160a01b031633146103095760405162461bcd60e51b815260206004820152601260248201527137b7363c903832b73234b7339030b236b4b760711b60448201526064015b60405180910390fd5b6000546001546040516000805160206129908339815191529261033a926001600160a01b03918216929116906123c2565b60405180910390a160015460405160008051602061297083398151915291610370916001600160a01b03909116906000906123c2565b60405180910390a160018054600080546001600160a01b03199081166001600160a01b03841617909155169055565b60645460405162daa6b160e61b81526004810183905260009182916001600160a01b03909116906336a9ac40906024016102a060405180830381865afa1580156103ed573d6000803e3d6000fd5b505050506040513d601f19601f820116820180604052508101906104119190612630565b9050806101000151156104275750600192915050565b6064546040516321f8a72160e01b81527a27a326abb434ba32b634b9ba29ba3930ba32b3bca6b0b730b3b2b960291b60048201526000916001600160a01b0316906321f8a72190602401602060405180830381865afa15801561048e573d6000803e3d6000fd5b505050506040513d601f19601f820116820180604052508101906104b291906126fd565b60405163f409981160e01b8152600481018690523360248201529091506001600160a01b0382169063f409981190604401602060405180830381865afa158015610500573d6000803e3d6000fd5b505050506040513d601f19601f82011682018060405250810190610524919061271a565b949350505050565b6033546001600160a01b031633146105565760405162461bcd60e51b815260040161030090612735565b60325460335460405160008051602061295083398151915292610587926001600160a01b03918216929116906123c2565b60405180910390a160338054603280546001600160a01b03199081166001600160a01b03841617909155169055565b6000546001600160a01b031633146105e05760405162461bcd60e51b81526004016103009061275c565b6105e981611a46565b50565b60006105f6611ac8565b60645460405162daa6b160e61b8152600481018590526000916001600160a01b0316906336a9ac40906024016102a060405180830381865afa158015610640573d6000803e3d6000fd5b505050506040513d601f19601f820116820180604052508101906106649190612630565b805180516020820151604092830151606554935162d2d92160e81b8152949550919390926001600160a01b03169063d2d92100906106a89086908590600401612780565b602060405180830381865afa1580156106c5573d6000803e3d6000fd5b505050506040513d601f19601f820116820180604052508101906106e9919061271a565b6107415760405162461bcd60e51b815260206004820152602360248201527f536f6c76425443526f757465723a2073667420736c6f74206e6f7420616c6c6f6044820152621dd95960ea1b6064820152608401610300565b606554604051639f0b8d0360e01b81526000916001600160a01b031690639f0b8d03906107749087908690600401612780565b602060405180830381865afa158015610791573d6000803e3d6000fd5b505050506040513d601f19601f820116820180604052508101906107b591906126fd565b90506107c2813389611afe565b6065546040516322996bbb60e11b81526001600160a01b03868116600483015260248201859052600060448301819052606483018b9052921690634532d776906084016020604051808303816000875af1158015610824573d6000803e3d6000fd5b505050506040513d601f19601f820116820180604052508101906108489190612799565b6064549091506108639086906001600160a01b031683611cfd565b606480546040516371033ad760e01b8152600481018c905260248101849052600060448201529182018a90526001600160a01b0316906371033ad790608401600060405180830381600087803b1580156108bc57600080fd5b505af11580156108d0573d6000803e3d6000fd5b50506040516370a0823160e01b8152600092506001600160a01b03871691506370a08231906109039030906004016122c3565b602060405180830381865afa158015610920573d6000803e3d6000fd5b505050506040513d601f19601f820116820180604052508101906109449190612799565b90506001600160a01b038516632f745c59306109616001856127c8565b6040518363ffffffff1660e01b815260040161097e929190612780565b602060405180830381865afa15801561099b573d6000803e3d6000fd5b505050506040513d601f19601f820116820180604052508101906109bf9190612799565b604051631398fee160e31b81526004810182905290985089906001600160a01b03871690639cc7f70890602401602060405180830381865afa158015610a09573d6000803e3d6000fd5b505050506040513d601f19601f82011682018060405250810190610a2d9190612799565b14610a8c5760405162461bcd60e51b815260206004820152602960248201527f536f6c76425443526f757465723a20696e636f727265637420726564656d7074604482015268696f6e2076616c756560b81b6064820152608401610300565b610a9785338a611d5b565b604080518a8152602081018a90526001600160a01b0385169133918d917f78f28b46ef784512c5644a2069be0c54b5504a85022f6944b8fe318e80288117910160405180910390a450505050505050610aee611d8d565b92915050565b6000546001600160a01b03163314610b1e5760405162461bcd60e51b81526004016103009061275c565b6001600160a01b038116610b7f5760405162461bcd60e51b815260206004820152602260248201527f536f6c76425443526f757465723a20696e76616c696420666565206d616e616760448201526132b960f11b6064820152608401610300565b606780546001600160a01b0319166001600160a01b0383161790556040517f5d0517e3a4eabea892d9750138cd21d4a6cf3b935b43d0598df7055f463819b290610bca9083906122c3565b60405180910390a150565b610bdd611ac8565b60645460405162daa6b160e61b8152600481018490526000916001600160a01b0316906336a9ac40906024016102a060405180830381865afa158015610c27573d6000803e3d6000fd5b505050506040513d601f19601f82011682018060405250810190610c4b9190612630565b80518051602082015160409092015192935091610c69823387611d9e565b606454610c819083906001600160a01b031687611cfd565b6064546040516302e9574960e51b815260048101889052602481018790526001600160a01b0390911690635d2ae92090604401600060405180830381600087803b158015610cce57600080fd5b505af1158015610ce2573d6000803e3d6000fd5b50506040516370a0823160e01b8152600092506001600160a01b03861691506370a0823190610d159030906004016122c3565b602060405180830381865afa158015610d32573d6000803e3d6000fd5b505050506040513d601f19601f82011682018060405250810190610d569190612799565b905060006001600160a01b038516632f745c5930610d756001866127c8565b6040518363ffffffff1660e01b8152600401610d92929190612780565b602060405180830381865afa158015610daf573d6000803e3d6000fd5b505050506040513d601f19601f82011682018060405250810190610dd39190612799565b604051631398fee160e31b8152600481018290529091506000906001600160a01b03871690639cc7f70890602401602060405180830381865afa158015610e1e573d6000803e3d6000fd5b505050506040513d601f19601f82011682018060405250810190610e429190612799565b60655460405163095ea7b360e01b81529192506001600160a01b038089169263095ea7b392610e779216908690600401612780565b600060405180830381600087803b158015610e9157600080fd5b505af1158015610ea5573d6000803e3d6000fd5b5050606554604051630efe6a8b60e01b81526001600160a01b039091169250630efe6a8b9150610edd908990869086906004016127db565b600060405180830381600087803b158015610ef757600080fd5b505af1158015610f0b573d6000803e3d6000fd5b5050606554604051639f0b8d0360e01b8152600093506001600160a01b039091169150639f0b8d0390610f44908a908990600401612780565b602060405180830381865afa158015610f61573d6000803e3d6000fd5b505050506040513d601f19601f82011682018060405250810190610f8591906126fd565b9050610f92813384611dd0565b604080518a8152602081018490526001600160a01b0383169133918d917f31a995f8a7cba531318be8a1c061e5e8d9421639be592fc336c04a70222f9754910160405180910390a45050505050505050610fea611d8d565b5050565b6000610ff8611ac8565b6110018361039f565b61105b5760405162461bcd60e51b815260206004820152602560248201527f536f6c76425443526f757465723a20706f6f6c207065726d697373696f6e2064604482015264195b9a595960da1b6064820152608401610300565b60645460405162daa6b160e61b8152600481018590526000916001600160a01b0316906336a9ac40906024016102a060405180830381865afa1580156110a5573d6000803e3d6000fd5b505050506040513d601f19601f820116820180604052508101906110c99190612630565b805180516040918201516065549251639f0b8d0360e01b8152939450909290916000916001600160a01b0390911690639f0b8d039061110e9086908690600401612780565b602060405180830381865afa15801561112b573d6000803e3d6000fd5b505050506040513d601f19601f8201168201806040525081019061114f91906126fd565b90506111608460a001513388611afe565b60675460a085015160405163f3396f0960e01b8152889260009283926001600160a01b039092169163f3396f099161119f9188919088906004016127fc565b6040805180830381865afa1580156111bb573d6000803e3d6000fd5b505050506040513d601f19601f820116820180604052508101906111df9190612820565b915091508882111561124d5760405162461bcd60e51b815260206004820152603160248201527f536f6c76425443526f757465723a2066656520616d6f756e74206578636565646044820152701cc818dd5c9c995b98de48185b5bdd5b9d607a1b6064820152608401610300565b81156112ca5761125d82846127c8565b925061126e8760a001518284611dd0565b806001600160a01b03168760a001516001600160a01b0316336001600160a01b03167f67605b1cdb32baa8cbffe03155e29db3f6fe971bd1d5a56e281720f4a0bc03f2856040516112c191815260200190565b60405180910390a45b505060a08501516064546112e891906001600160a01b031683611fcb565b6064546001600160a01b0316638f3ecff0898360006113094261012c612850565b6040516001600160e01b031960e087901b1681526004810194909452602484019290925260448301526001600160401b031660648201526084016020604051808303816000875af1158015611362573d6000803e3d6000fd5b505050506040513d601f19601f820116820180604052508101906113869190612799565b95506000846001600160a01b03166370a08231306040518263ffffffff1660e01b81526004016113b691906122c3565b602060405180830381865afa1580156113d3573d6000803e3d6000fd5b505050506040513d601f19601f820116820180604052508101906113f79190612799565b905060006001600160a01b038616632f745c59306114166001866127c8565b6040518363ffffffff1660e01b8152600401611433929190612780565b602060405180830381865afa158015611450573d6000803e3d6000fd5b505050506040513d601f19601f820116820180604052508101906114749190612799565b60405163131f9f3f60e11b81526004810182905290915085906001600160a01b0388169063263f3e7e90602401602060405180830381865afa1580156114be573d6000803e3d6000fd5b505050506040513d601f19601f820116820180604052508101906114e29190612799565b1461153b5760405162461bcd60e51b815260206004820152602360248201527f536f6c76425443526f757465723a20696e636f727265637420736861726520736044820152621b1bdd60ea1b6064820152608401610300565b604051631398fee160e31b81526004810182905288906001600160a01b03881690639cc7f70890602401602060405180830381865afa158015611582573d6000803e3d6000fd5b505050506040513d601f19601f820116820180604052508101906115a69190612799565b146115ff5760405162461bcd60e51b8152602060048201526024808201527f536f6c76425443526f757465723a20696e636f72726563742073686172652076604482015263616c756560e01b6064820152608401610300565b60655460405163095ea7b360e01b81526001600160a01b038881169263095ea7b39261163392909116908590600401612780565b600060405180830381600087803b15801561164d57600080fd5b505af1158015611661573d6000803e3d6000fd5b5050606554604051630efe6a8b60e01b81526001600160a01b039091169250630efe6a8b915061169990899085908d906004016127db565b600060405180830381600087803b1580156116b357600080fd5b505af11580156116c7573d6000803e3d6000fd5b505050506116d684338a611dd0565b60a0870151604080516001600160a01b038781168252602082018c905290921682820152606082018b90525133918c917f4a29c2a0a0125871fb9cb0dcda775193070a8dd3a98e792b07eca515745de3bf9181900360800190a350505050505050610aee611d8d565b6000546001600160a01b031633146117695760405162461bcd60e51b81526004016103009061275c565b6105e9816120f9565b6000546001600160a01b0316331461179c5760405162461bcd60e51b81526004016103009061275c565b600154604051600080516020612970833981519152916117c9916001600160a01b039091169084906123c2565b60405180910390a1600180546001600160a01b0319166001600160a01b0392909216919091179055565b60006117fd61217b565b805490915060ff600160401b82041615906001600160401b03166000811580156118245750825b90506000826001600160401b031660011480156118405750303b155b90508115801561184e575080155b1561186c5760405163f92ee8a960e01b815260040160405180910390fd5b84546001600160401b0319166001178555831561189557845460ff60401b1916600160401b1785555b6001600160a01b0388166118eb5760405162461bcd60e51b815260206004820152601f60248201527f536f6c76425443526f757465723a20696e76616c696420676f7665726e6f72006044820152606401610300565b6001600160a01b0387166119115760405162461bcd60e51b815260040161030090612863565b6001600160a01b0386166119375760405162461bcd60e51b8152600401610300906128a8565b6119403361219f565b611949886121b0565b6119516121c1565b61195a876120f9565b61196386611a46565b83156119a957845460ff60401b19168555604051600181527fc7f505b2f371ae2175ee4913f4499e1f2633a7b5936321eed1cdaeb6115181d29060200160405180910390a15b5050505050505050565b6032546001600160a01b031633146119dd5760405162461bcd60e51b815260040161030090612735565b6033546040517f7d767be5a57784412a13945bd5114db84487d2b007bfcdb2f449fc9ea35437f791611a1c916001600160a01b039091169084906123c2565b60405180910390a1603380546001600160a01b0319166001600160a01b0392909216919091179055565b6001600160a01b038116611a6c5760405162461bcd60e51b8152600401610300906128a8565b6065546040516001600160a01b038084169216907f427e8b6f5a091961c362d949bcf70f22438b4b8d06bc087c366a6976c8bcfd6990600090a3606580546001600160a01b0319166001600160a01b0392909216919091179055565b6000611ad26121d3565b805490915060011901611af857604051633ee5aeb560e01b815260040160405180910390fd5b60029055565b73eeeeeeeeeeeeeeeeeeeeeeeeeeeeeeeeeeeeeeed196001600160a01b03841601611bc657326001600160a01b0383161480611b425750336001600160a01b038316145b611b805760405162461bcd60e51b815260206004820152600f60248201526e0e6cadcc8cae440dad2e6dac2e8c6d608b1b6044820152606401610300565b80341015611bc15760405162461bcd60e51b815260206004820152600e60248201526d0ecc2d8eaca40dad2e6dac2e8c6d60931b6044820152606401610300565b505050565b6000836001600160a01b03163b11611bf05760405162461bcd60e51b8152600401610300906128f4565b600080846001600160a01b03166323b872dd60e01b853086604051602401611c1a939291906127fc565b60408051601f198184030181529181526020820180516001600160e01b03166001600160e01b0319909416939093179092529051611c589190612920565b6000604051808303816000865af19150503d8060008114611c95576040519150601f19603f3d011682016040523d82523d6000602084013e611c9a565b606091505b5091509150818015611cc4575080511580611cc4575080806020019051810190611cc4919061271a565b611cf65760405162461bcd60e51b815260206004820152600360248201526229aa2360e91b6044820152606401610300565b5050505050565b60405163095ea7b360e01b815283906001600160a01b0382169063095ea7b390611d2d9086908690600401612780565b600060405180830381600087803b158015611d4757600080fd5b505af11580156119a9573d6000803e3d6000fd5b6040516323b872dd60e01b815283906001600160a01b038216906323b872dd90611d2d903090879087906004016127fc565b6000611d976121d3565b6001905550565b6040516323b872dd60e01b815283906001600160a01b038216906323b872dd90611d2d908690309087906004016127fc565b73eeeeeeeeeeeeeeeeeeeeeeeeeeeeeeeeeeeeeeed196001600160a01b03841601611e9e57604080516000808252602082019092526001600160a01b038416908390604051611e1f9190612920565b60006040518083038185875af1925050503d8060008114611e5c576040519150601f19603f3d011682016040523d82523d6000602084013e611e61565b606091505b5050905080611e985760405162461bcd60e51b815260206004820152600360248201526253544560e81b6044820152606401610300565b50505050565b6000836001600160a01b03163b11611ec85760405162461bcd60e51b8152600401610300906128f4565b600080846001600160a01b031663a9059cbb60e01b8585604051602401611ef0929190612780565b60408051601f198184030181529181526020820180516001600160e01b03166001600160e01b0319909416939093179092529051611f2e9190612920565b6000604051808303816000865af19150503d8060008114611f6b576040519150601f19603f3d011682016040523d82523d6000602084013e611f70565b606091505b5091509150818015611f9a575080511580611f9a575080806020019051810190611f9a919061271a565b611cf65760405162461bcd60e51b815260206004820152600260248201526114d560f21b6044820152606401610300565b6000836001600160a01b03163b11611ff55760405162461bcd60e51b8152600401610300906128f4565b600080846001600160a01b031663095ea7b360e01b858560405160240161201d929190612780565b60408051601f198184030181529181526020820180516001600160e01b03166001600160e01b031990941693909317909252905161205b9190612920565b6000604051808303816000865af19150503d8060008114612098576040519150601f19603f3d011682016040523d82523d6000602084013e61209d565b606091505b50915091508180156120c75750805115806120c75750808060200190518101906120c7919061271a565b611cf65760405162461bcd60e51b815260206004820152600360248201526229a0a360e91b6044820152606401610300565b6001600160a01b03811661211f5760405162461bcd60e51b815260040161030090612863565b6064546040516001600160a01b038084169216907f3547a78eecb81ccf16c0f9a756bae424e5d2c9078591e0b745de455ae3bbc44490600090a3606480546001600160a01b0319166001600160a01b0392909216919091179055565b7ff0c57e16840df040f15088dc2f81fe391c3923bec73e23a9662efc9c229c6a0090565b6121a76121f7565b6105e98161221c565b6121b86121f7565b6105e98161225d565b6121c96121f7565b6121d16122a1565b565b7f9b779b17422d0df92223018b32b4d1fa46e071723d6817e2486d003becc55f0090565b6121ff6122a9565b6121d157604051631afcd79f60e31b815260040160405180910390fd5b6122246121f7565b600080546001600160a01b0319166001600160a01b03831617815560405160008051602061299083398151915291610bca9184906123c2565b6122656121f7565b603280546001600160a01b0319166001600160a01b03831617905560405160008051602061295083398151915290610bca9060009084906123c2565b611d8d6121f7565b60006122b361217b565b54600160401b900460ff16919050565b6001600160a01b0391909116815260200190565b6000602082840312156122e957600080fd5b5035919050565b6001600160a01b03811681146105e957600080fd5b60006020828403121561231757600080fd5b8135612322816122f0565b9392505050565b6000806040838503121561233c57600080fd5b50508035926020909101359150565b60008060006060848603121561236057600080fd5b833561236b816122f0565b9250602084013561237b816122f0565b9150604084013561238b816122f0565b809150509250925092565b600080604083850312156123a957600080fd5b82356123b4816122f0565b946020939093013593505050565b6001600160a01b0392831681529116602082015260400190565b604051606081016001600160401b038111828210171561240c57634e487b7160e01b600052604160045260246000fd5b60405290565b60405161014081016001600160401b038111828210171561240c57634e487b7160e01b600052604160045260246000fd5b805161244e816122f0565b919050565b60006080828403121561246557600080fd5b604051608081016001600160401b038111828210171561249557634e487b7160e01b600052604160045260246000fd5b806040525080915082516124a8816122f0565b815260208301516124b8816122f0565b8060208301525060408301516040820152606083015160608201525092915050565b80516001600160401b038116811461244e57600080fd5b60006060828403121561250357600080fd5b61250b6123dc565b9050815161ffff8116811461251f57600080fd5b8152602082015161252f816122f0565b6020820152612540604083016124da565b604082015292915050565b60006060828403121561255d57600080fd5b6125656123dc565b90508151612572816122f0565b81526020820151612582816122f0565b60208201526040820151612540816122f0565b600060a082840312156125a757600080fd5b60405160a081016001600160401b03811182821017156125d757634e487b7160e01b600052604160045260246000fd5b8060405250809150825181526020830151602082015260408301516040820152612603606084016124da565b6060820152612614608084016124da565b60808201525092915050565b8051801515811461244e57600080fd5b60006102a0828403121561264357600080fd5b61264b612412565b6126558484612453565b815261266484608085016124f1565b60208201526126768460e0850161254b565b6040820152612689846101408501612595565b606082015261269b6101e08401612443565b60808201526126ad6102008401612443565b60a08201526126bf6102208401612443565b60c08201526126d161024084016124da565b60e08201526126e36102608401612620565b610100820152610280929092015161012083015250919050565b60006020828403121561270f57600080fd5b8151612322816122f0565b60006020828403121561272c57600080fd5b61232282612620565b6020808252600d908201526c37b7363c9033b7bb32b93737b960991b604082015260600190565b6020808252600a908201526937b7363c9030b236b4b760b11b604082015260600190565b6001600160a01b03929092168252602082015260400190565b6000602082840312156127ab57600080fd5b5051919050565b634e487b7160e01b600052601160045260246000fd5b81810381811115610aee57610aee6127b2565b6001600160a01b039390931683526020830191909152604082015260600190565b6001600160a01b039384168152919092166020820152604081019190915260600190565b6000806040838503121561283357600080fd5b825191506020830151612845816122f0565b809150509250929050565b80820180821115610aee57610aee6127b2565b60208082526025908201527f536f6c76425443526f757465723a20696e76616c6964206f70656e46756e644d604082015264185c9ad95d60da1b606082015260800190565b6020808252602c908201527f536f6c76425443526f757465723a20696e76616c696420736f6c764254434d7560408201526b1b1d1a505cdcd95d141bdbdb60a21b606082015260800190565b602080825260129082015271696e76616c696420756e6465726c79696e6760701b604082015260600190565b6000825160005b818110156129415760208186018101518583015201612927565b50600092019182525091905056fe1ba669d4a78521f2ad26e8e0fcbcdd626a63f34d68f326bc232a3abe2a5d042aca4f2f25d0898edd99413412fb94012f9e54ec8142f9b093e7720646a95b16a9f9ffabca9c8276e99321725bcb43fb076a6c66a54b7f21c4e8146d8519b417dca26469706673582212208384b1a41d1ebe0577ff5511ce3d815fd3dca633ab7c14a6023524efc51aadc064736f6c63430008140033",
  "devdoc": {
    "errors": {
      "InvalidInitialization()": [
        {
          "details": "The contract is already initialized."
        }
      ],
      "NotInitializing()": [
        {
          "details": "The contract is not initializing."
        }
      ],
      "ReentrancyGuardReentrantCall()": [
        {
          "details": "Unauthorized reentrant call."
        }
      ]
    },
    "events": {
      "Initialized(uint64)": {
        "details": "Triggered when the contract has been initialized or reinitialized."
      }
    },
    "kind": "dev",
    "methods": {
      "constructor": {
        "custom:oz-upgrades-unsafe-allow": "constructor"
      }
    },
    "version": 1
  },
  "userdoc": {
    "kind": "user",
    "methods": {},
    "version": 1
  },
  "storageLayout": {
    "storage": [
      {
        "astId": 14056,
        "contract": "contracts/SolvBTCRouter.sol:SolvBTCRouter",
        "label": "admin",
        "offset": 0,
        "slot": "0",
        "type": "t_address"
      },
      {
        "astId": 14058,
        "contract": "contracts/SolvBTCRouter.sol:SolvBTCRouter",
        "label": "pendingAdmin",
        "offset": 0,
        "slot": "1",
        "type": "t_address"
      },
      {
        "astId": 14161,
        "contract": "contracts/SolvBTCRouter.sol:SolvBTCRouter",
        "label": "__gap",
        "offset": 0,
        "slot": "2",
        "type": "t_array(t_uint256)48_storage"
      },
      {
        "astId": 14666,
        "contract": "contracts/SolvBTCRouter.sol:SolvBTCRouter",
        "label": "governor",
        "offset": 0,
        "slot": "50",
        "type": "t_address"
      },
      {
        "astId": 14668,
        "contract": "contracts/SolvBTCRouter.sol:SolvBTCRouter",
        "label": "pendingGovernor",
        "offset": 0,
        "slot": "51",
        "type": "t_address"
      },
      {
        "astId": 14763,
        "contract": "contracts/SolvBTCRouter.sol:SolvBTCRouter",
        "label": "__gap",
        "offset": 0,
        "slot": "52",
        "type": "t_array(t_uint256)48_storage"
      },
      {
        "astId": 10067,
        "contract": "contracts/SolvBTCRouter.sol:SolvBTCRouter",
        "label": "openFundMarket",
        "offset": 0,
        "slot": "100",
        "type": "t_address"
      },
      {
        "astId": 10069,
        "contract": "contracts/SolvBTCRouter.sol:SolvBTCRouter",
        "label": "solvBTCMultiAssetPool",
        "offset": 0,
        "slot": "101",
        "type": "t_address"
      },
      {
        "astId": 10075,
        "contract": "contracts/SolvBTCRouter.sol:SolvBTCRouter",
        "label": "holdingSftIds",
        "offset": 0,
        "slot": "102",
        "type": "t_mapping(t_address,t_mapping(t_uint256,t_uint256))"
      },
      {
        "astId": 10077,
        "contract": "contracts/SolvBTCRouter.sol:SolvBTCRouter",
        "label": "feeManager",
        "offset": 0,
        "slot": "103",
        "type": "t_address"
      },
      {
        "astId": 10867,
        "contract": "contracts/SolvBTCRouter.sol:SolvBTCRouter",
        "label": "__gap",
        "offset": 0,
        "slot": "104",
        "type": "t_array(t_uint256)46_storage"
      }
    ],
    "types": {
      "t_address": {
        "encoding": "inplace",
        "label": "address",
        "numberOfBytes": "20"
      },
      "t_array(t_uint256)46_storage": {
        "base": "t_uint256",
        "encoding": "inplace",
        "label": "uint256[46]",
        "numberOfBytes": "1472"
      },
      "t_array(t_uint256)48_storage": {
        "base": "t_uint256",
        "encoding": "inplace",
        "label": "uint256[48]",
        "numberOfBytes": "1536"
      },
      "t_mapping(t_address,t_mapping(t_uint256,t_uint256))": {
        "encoding": "mapping",
        "key": "t_address",
        "label": "mapping(address => mapping(uint256 => uint256))",
        "numberOfBytes": "32",
        "value": "t_mapping(t_uint256,t_uint256)"
      },
      "t_mapping(t_uint256,t_uint256)": {
        "encoding": "mapping",
        "key": "t_uint256",
        "label": "mapping(uint256 => uint256)",
        "numberOfBytes": "32",
        "value": "t_uint256"
      },
      "t_uint256": {
        "encoding": "inplace",
        "label": "uint256",
        "numberOfBytes": "32"
      }
    }
  }
}