{
  "address": "0xa3c6F9210827fcf1F3F3Cb80fCC0b8B5b8BcE507",
  "abi": [
    {
      "inputs": [],
      "stateMutability": "nonpayable",
      "type": "constructor"
    },
    {
      "inputs": [],
      "name": "InvalidInitialization",
      "type": "error"
    },
    {
      "inputs": [],
      "name": "NotInitializing",
      "type": "error"
    },
    {
      "inputs": [],
      "name": "ReentrancyGuardReentrantCall",
      "type": "error"
    },
    {
      "anonymous": false,
      "inputs": [
        {
          "indexed": true,
          "internalType": "bytes32",
          "name": "poolId",
          "type": "bytes32"
        },
        {
          "indexed": true,
          "internalType": "address",
          "name": "owner",
          "type": "address"
        },
        {
          "indexed": true,
          "internalType": "address",
          "name": "sftWrappedToken",
          "type": "address"
        },
        {
          "indexed": false,
          "internalType": "uint256",
          "name": "redemptionId",
          "type": "uint256"
        },
        {
          "indexed": false,
          "internalType": "uint256",
          "name": "cancelAmount",
          "type": "uint256"
        }
      ],
      "name": "CancelRedemption",
      "type": "event"
    },
    {
      "anonymous": false,
      "inputs": [
        {
          "indexed": true,
          "internalType": "bytes32",
          "name": "poolId",
          "type": "bytes32"
        },
        {
          "indexed": true,
          "internalType": "address",
          "name": "redeemer",
          "type": "address"
        },
        {
          "indexed": true,
          "internalType": "address",
          "name": "sftWrappedToken",
          "type": "address"
        },
        {
          "indexed": false,
          "internalType": "uint256",
          "name": "redeemAmount",
          "type": "uint256"
        },
        {
          "indexed": false,
          "internalType": "uint256",
          "name": "redemptionId",
          "type": "uint256"
        }
      ],
      "name": "CreateRedemption",
      "type": "event"
    },
    {
      "anonymous": false,
      "inputs": [
        {
          "indexed": true,
          "internalType": "bytes32",
          "name": "poolId",
          "type": "bytes32"
        },
        {
          "indexed": true,
          "internalType": "address",
          "name": "subscriber",
          "type": "address"
        },
        {
          "indexed": false,
          "internalType": "address",
          "name": "sftWrappedToken",
          "type": "address"
        },
        {
          "indexed": false,
          "internalType": "uint256",
          "name": "swtTokenAmount",
          "type": "uint256"
        },
        {
          "indexed": false,
          "internalType": "address",
          "name": "currency",
          "type": "address"
        },
        {
          "indexed": false,
          "internalType": "uint256",
          "name": "currencyAmount",
          "type": "uint256"
        }
      ],
      "name": "CreateSubscription",
      "type": "event"
    },
    {
      "anonymous": false,
      "inputs": [
        {
          "indexed": false,
          "internalType": "uint64",
          "name": "version",
          "type": "uint64"
        }
      ],
      "name": "Initialized",
      "type": "event"
    },
    {
      "anonymous": false,
      "inputs": [
        {
          "indexed": false,
          "internalType": "address",
          "name": "oldAdmin",
          "type": "address"
        },
        {
          "indexed": false,
          "internalType": "address",
          "name": "newAdmin",
          "type": "address"
        }
      ],
      "name": "NewAdmin",
      "type": "event"
    },
    {
      "anonymous": false,
      "inputs": [
        {
          "indexed": false,
          "internalType": "address",
          "name": "oldGovernor",
          "type": "address"
        },
        {
          "indexed": false,
          "internalType": "address",
          "name": "newGovernor",
          "type": "address"
        }
      ],
      "name": "NewGovernor",
      "type": "event"
    },
    {
      "anonymous": false,
      "inputs": [
        {
          "indexed": false,
          "internalType": "address",
          "name": "oldPendingAdmin",
          "type": "address"
        },
        {
          "indexed": false,
          "internalType": "address",
          "name": "newPendingAdmin",
          "type": "address"
        }
      ],
      "name": "NewPendingAdmin",
      "type": "event"
    },
    {
      "anonymous": false,
      "inputs": [
        {
          "indexed": false,
          "internalType": "address",
          "name": "oldPendingGovernor",
          "type": "address"
        },
        {
          "indexed": false,
          "internalType": "address",
          "name": "newPendingGovernor",
          "type": "address"
        }
      ],
      "name": "NewPendingGovernor",
      "type": "event"
    },
    {
      "anonymous": false,
      "inputs": [
        {
          "indexed": true,
          "internalType": "address",
          "name": "sftWrappedToken",
          "type": "address"
        },
        {
          "indexed": true,
          "internalType": "address",
          "name": "staker",
          "type": "address"
        },
        {
          "indexed": false,
          "internalType": "address",
          "name": "sft",
          "type": "address"
        },
        {
          "indexed": false,
          "internalType": "uint256",
          "name": "sftSlot",
          "type": "uint256"
        },
        {
          "indexed": false,
          "internalType": "uint256",
          "name": "sftId",
          "type": "uint256"
        },
        {
          "indexed": false,
          "internalType": "uint256",
          "name": "amount",
          "type": "uint256"
        }
      ],
      "name": "Stake",
      "type": "event"
    },
    {
      "anonymous": false,
      "inputs": [
        {
          "indexed": true,
          "internalType": "address",
          "name": "sftWrappedToken",
          "type": "address"
        },
        {
          "indexed": true,
          "internalType": "address",
          "name": "unstaker",
          "type": "address"
        },
        {
          "indexed": false,
          "internalType": "address",
          "name": "sft",
          "type": "address"
        },
        {
          "indexed": false,
          "internalType": "uint256",
          "name": "sftSlot",
          "type": "uint256"
        },
        {
          "indexed": false,
          "internalType": "uint256",
          "name": "sftId",
          "type": "uint256"
        },
        {
          "indexed": false,
          "internalType": "uint256",
          "name": "amount",
          "type": "uint256"
        }
      ],
      "name": "Unstake",
      "type": "event"
    },
    {
      "inputs": [],
      "name": "acceptAdmin",
      "outputs": [],
      "stateMutability": "nonpayable",
      "type": "function"
    },
    {
      "inputs": [],
      "name": "acceptGovernance",
      "outputs": [],
      "stateMutability": "nonpayable",
      "type": "function"
    },
    {
      "inputs": [],
      "name": "admin",
      "outputs": [
        {
          "internalType": "address",
          "name": "",
          "type": "address"
        }
      ],
      "stateMutability": "view",
      "type": "function"
    },
    {
      "inputs": [
        {
          "internalType": "bytes32",
          "name": "poolId_",
          "type": "bytes32"
        },
        {
          "internalType": "uint256",
          "name": "openFundRedemptionId_",
          "type": "uint256"
        }
      ],
      "name": "cancelRedemption",
      "outputs": [],
      "stateMutability": "nonpayable",
      "type": "function"
    },
    {
      "inputs": [
        {
          "internalType": "bytes32",
          "name": "poolId_",
          "type": "bytes32"
        }
      ],
      "name": "checkPoolPermission",
      "outputs": [
        {
          "internalType": "bool",
          "name": "",
          "type": "bool"
        }
      ],
      "stateMutability": "view",
      "type": "function"
    },
    {
      "inputs": [
        {
          "internalType": "bytes32",
          "name": "poolId_",
          "type": "bytes32"
        },
        {
          "internalType": "uint256",
          "name": "redeemAmount_",
          "type": "uint256"
        }
      ],
      "name": "createRedemption",
      "outputs": [
        {
          "internalType": "uint256",
          "name": "redemptionId_",
          "type": "uint256"
        }
      ],
      "stateMutability": "nonpayable",
      "type": "function"
    },
    {
      "inputs": [
        {
          "internalType": "bytes32",
          "name": "poolId_",
          "type": "bytes32"
        },
        {
          "internalType": "uint256",
          "name": "currencyAmount_",
          "type": "uint256"
        }
      ],
      "name": "createSubscription",
      "outputs": [
        {
          "internalType": "uint256",
          "name": "shareValue_",
          "type": "uint256"
        }
      ],
      "stateMutability": "nonpayable",
      "type": "function"
    },
    {
      "inputs": [],
      "name": "governor",
      "outputs": [
        {
          "internalType": "address",
          "name": "",
          "type": "address"
        }
      ],
      "stateMutability": "view",
      "type": "function"
    },
    {
      "inputs": [
        {
          "internalType": "address",
          "name": "",
          "type": "address"
        },
        {
          "internalType": "uint256",
          "name": "",
          "type": "uint256"
        }
      ],
      "name": "holdingSftIds",
      "outputs": [
        {
          "internalType": "uint256",
          "name": "",
          "type": "uint256"
        }
      ],
      "stateMutability": "view",
      "type": "function"
    },
    {
      "inputs": [
        {
          "internalType": "address",
          "name": "governor_",
          "type": "address"
        },
        {
          "internalType": "address",
          "name": "openFundMarket_",
          "type": "address"
        },
        {
          "internalType": "address",
          "name": "sftWrappedTokenFactory_",
          "type": "address"
        }
      ],
      "name": "initialize",
      "outputs": [],
      "stateMutability": "nonpayable",
      "type": "function"
    },
    {
      "inputs": [
        {
          "internalType": "address",
          "name": "",
          "type": "address"
        },
        {
          "internalType": "uint256",
          "name": "fromSftId_",
          "type": "uint256"
        },
        {
          "internalType": "uint256",
          "name": "toSftId_",
          "type": "uint256"
        },
        {
          "internalType": "uint256",
          "name": "value_",
          "type": "uint256"
        },
        {
          "internalType": "bytes",
          "name": "",
          "type": "bytes"
        }
      ],
      "name": "onERC3525Received",
      "outputs": [
        {
          "internalType": "bytes4",
          "name": "",
          "type": "bytes4"
        }
      ],
      "stateMutability": "nonpayable",
      "type": "function"
    },
    {
      "inputs": [
        {
          "internalType": "address",
          "name": "",
          "type": "address"
        },
        {
          "internalType": "address",
          "name": "from_",
          "type": "address"
        },
        {
          "internalType": "uint256",
          "name": "sftId_",
          "type": "uint256"
        },
        {
          "internalType": "bytes",
          "name": "",
          "type": "bytes"
        }
      ],
      "name": "onERC721Received",
      "outputs": [
        {
          "internalType": "bytes4",
          "name": "",
          "type": "bytes4"
        }
      ],
      "stateMutability": "nonpayable",
      "type": "function"
    },
    {
      "inputs": [],
      "name": "openFundMarket",
      "outputs": [
        {
          "internalType": "address",
          "name": "",
          "type": "address"
        }
      ],
      "stateMutability": "view",
      "type": "function"
    },
    {
      "inputs": [],
      "name": "pendingAdmin",
      "outputs": [
        {
          "internalType": "address",
          "name": "",
          "type": "address"
        }
      ],
      "stateMutability": "view",
      "type": "function"
    },
    {
      "inputs": [],
      "name": "pendingGovernor",
      "outputs": [
        {
          "internalType": "address",
          "name": "",
          "type": "address"
        }
      ],
      "stateMutability": "view",
      "type": "function"
    },
    {
      "inputs": [],
      "name": "sftWrappedTokenFactory",
      "outputs": [
        {
          "internalType": "address",
          "name": "",
          "type": "address"
        }
      ],
      "stateMutability": "view",
      "type": "function"
    },
    {
      "inputs": [
        {
          "internalType": "address",
          "name": "sftAddress_",
          "type": "address"
        },
        {
          "internalType": "uint256",
          "name": "sftId_",
          "type": "uint256"
        },
        {
          "internalType": "uint256",
          "name": "amount_",
          "type": "uint256"
        }
      ],
      "name": "stake",
      "outputs": [],
      "stateMutability": "nonpayable",
      "type": "function"
    },
    {
      "inputs": [
        {
          "internalType": "bytes4",
          "name": "interfaceId",
          "type": "bytes4"
        }
      ],
      "name": "supportsInterface",
      "outputs": [
        {
          "internalType": "bool",
          "name": "",
          "type": "bool"
        }
      ],
      "stateMutability": "view",
      "type": "function"
    },
    {
      "inputs": [
        {
          "internalType": "address",
          "name": "newPendingAdmin_",
          "type": "address"
        }
      ],
      "name": "transferAdmin",
      "outputs": [],
      "stateMutability": "nonpayable",
      "type": "function"
    },
    {
      "inputs": [
        {
          "internalType": "address",
          "name": "newPendingGovernor_",
          "type": "address"
        }
      ],
      "name": "transferGovernance",
      "outputs": [],
      "stateMutability": "nonpayable",
      "type": "function"
    },
    {
      "inputs": [
        {
          "internalType": "address",
          "name": "swtAddress_",
          "type": "address"
        },
        {
          "internalType": "uint256",
          "name": "amount_",
          "type": "uint256"
        },
        {
          "internalType": "uint256",
          "name": "sftId_",
          "type": "uint256"
        }
      ],
      "name": "unstake",
      "outputs": [
        {
          "internalType": "uint256",
          "name": "toSftId_",
          "type": "uint256"
        }
      ],
      "stateMutability": "nonpayable",
      "type": "function"
    }
  ],
  "transactionHash": "0x1ddf3e3ffe1440e205ba77db934f15db6105f28b41b1edbfd75cbfc8fef96916",
  "args": [],
  "numDeployments": 1,
  "solcInputHash": "5d9a0bf8db9ae8bccf4f76a6c3af1f90",
  "bytecode": "0x60806040523480156200001157600080fd5b506200001c62000022565b620000d6565b7ff0c57e16840df040f15088dc2f81fe391c3923bec73e23a9662efc9c229c6a00805468010000000000000000900460ff1615620000735760405163f92ee8a960e01b815260040160405180910390fd5b80546001600160401b0390811614620000d35780546001600160401b0319166001600160401b0390811782556040519081527fc7f505b2f371ae2175ee4913f4499e1f2633a7b5936321eed1cdaeb6115181d29060200160405180910390a15b50565b61388d80620000e66000396000f3fe608060405234801561001057600080fd5b50600436106101065760003560e01c80629ce20b1461010b57806301ffc9a71461013c5780630c340a241461015f5780630c51b88f1461017f5780630e18b68114610194578063150b7a021461019c5780631d98e7f8146101af578063238efcbc146101c257806326782247146101ca5780632c7eb4c8146101dd57806334d27fbf146101f05780634fe03069146102115780636d724ead1461022457806375829def14610237578063a2bc66be1461024a578063c0c53b8b1461025d578063d38bfff414610270578063d6207d4614610283578063e3056a34146102ae578063f355d417146102c1578063f851a440146102d4575b600080fd5b61011e610119366004612feb565b6102e7565b6040516001600160e01b031990911681526020015b60405180910390f35b61014f61014a36600461305d565b610723565b6040519015158152602001610133565b603254610172906001600160a01b031681565b6040516101339190613087565b61019261018d36600461309b565b610774565b005b610192610ad0565b61011e6101aa3660046130d0565b610b7f565b61014f6101bd366004613142565b610ec7565b610192611054565b600154610172906001600160a01b031681565b606554610172906001600160a01b031681565b6102036101fe36600461315b565b6110de565b604051908152602001610133565b61019261021f36600461315b565b611534565b61020361023236600461315b565b6118b9565b61019261024536600461317d565b611e00565b61020361025836600461309b565b611eb0565b61019261026b36600461319a565b612478565b61019261027e36600461317d565b6125b4565b6102036102913660046131e5565b606660209081526000928352604080842090915290825290205481565b603354610172906001600160a01b031681565b606454610172906001600160a01b031681565b600054610172906001600160a01b031681565b60405163131f9f3f60e11b81526004810185905260009033908290829063263f3e7e90602401602060405180830381865afa15801561032a573d6000803e3d6000fd5b505050506040513d601f19601f8201168201806040525081019061034e9190613211565b6065546040516337547a9760e01b81529192506000916001600160a01b03909116906337547a9790610386908690869060040161322a565b602060405180830381865afa1580156103a3573d6000803e3d6000fd5b505050506040513d601f19601f820116820180604052508101906103c79190613253565b90506001600160a01b0381166103f85760405162461bcd60e51b81526004016103ef90613270565b60405180910390fd5b600087116104185760405162461bcd60e51b81526004016103ef906132bc565b6040516331a9108f60e11b8152600481018a90526000906001600160a01b03851690636352211e90602401602060405180830381865afa158015610460573d6000803e3d6000fd5b505050506040513d601f19601f820116820180604052508101906104849190613253565b6064549091506001600160a01b03808316911614806104b45750816001600160a01b0316816001600160a01b0316145b156104cc5750629ce20b60e01b935061071992505050565b6040516331a9108f60e11b8152600481018a90526000906001600160a01b03861690636352211e90602401602060405180830381865afa158015610514573d6000803e3d6000fd5b505050506040513d601f19601f820116820180604052508101906105389190613253565b90506001600160a01b03811630146105625760405162461bcd60e51b81526004016103ef90613303565b6001600160a01b038516600090815260666020908152604080832087845290915281205490036105b7576001600160a01b038516600090815260666020908152604080832087845290915290208a9055610633565b6001600160a01b03851660009081526066602090815260408083208784529091529020548a146106335760405162461bcd60e51b815260206004820152602160248201527f53667457726170526f757465723a206e6f7420686f6c64696e672073667420696044820152601960fa1b60648201526084016103ef565b6000836001600160a01b03166344b32bd16040518163ffffffff1660e01b8152600401602060405180830381865afa158015610673573d6000803e3d6000fd5b505050506040513d601f19601f820116820180604052508101906106979190613211565b9050806000036106b3576106ad868c868d612647565b506106bf565b6106bf868c838d6126bf565b506106cb83838b612730565b816001600160a01b0316836001600160a01b03166000805160206137f883398151915287878f8e604051610702949392919061333a565b60405180910390a350629ce20b60e01b9450505050505b9695505050505050565b60006001600160e01b03198216629ce20b60e01b148061075357506001600160e01b03198216630a85bd0160e11b145b8061076e57506001600160e01b031982166301ffc9a760e01b145b92915050565b61077c612932565b60405163131f9f3f60e11b81526004810183905283906000906001600160a01b0383169063263f3e7e90602401602060405180830381865afa1580156107c6573d6000803e3d6000fd5b505050506040513d601f19601f820116820180604052508101906107ea9190613211565b6065546040516337547a9760e01b81529192506000916001600160a01b03909116906337547a9790610822908990869060040161322a565b602060405180830381865afa15801561083f573d6000803e3d6000fd5b505050506040513d601f19601f820116820180604052508101906108639190613253565b90506001600160a01b03811661088b5760405162461bcd60e51b81526004016103ef90613270565b6040516331a9108f60e11b8152600481018690526001600160a01b03841690636352211e90602401602060405180830381865afa1580156108d0573d6000803e3d6000fd5b505050506040513d601f19601f820116820180604052508101906108f49190613253565b6001600160a01b0316336001600160a01b0316146109635760405162461bcd60e51b815260206004820152602660248201527f53667457726170526f757465723a2063616c6c6572206973206e6f74207366746044820152651037bbb732b960d11b60648201526084016103ef565b600084116109835760405162461bcd60e51b81526004016103ef906132bc565b604051631398fee160e31b8152600481018690526000906001600160a01b03851690639cc7f70890602401602060405180830381865afa1580156109cb573d6000803e3d6000fd5b505050506040513d601f19601f820116820180604052508101906109ef9190613211565b9050808503610a0857610a03873388612968565b610abf565b80851015610a5f576001600160a01b038716600090815260666020908152604080832086845290915281205490819003610a4d57610a478888886129c8565b50610a59565b610a59888883896126bf565b50610abf565b60405162461bcd60e51b815260206004820152602f60248201527f53667457726170526f757465723a207374616b6520616d6f756e74206578636560448201526e656473207366742062616c616e636560881b60648201526084016103ef565b50505050610acb612a40565b505050565b6001546001600160a01b03163314610b1f5760405162461bcd60e51b815260206004820152601260248201527137b7363c903832b73234b7339030b236b4b760711b60448201526064016103ef565b60005460015460405160008051602061383883398151915292610b50926001600160a01b0391821692911690613360565b60405180910390a160018054600080546001600160a01b03199081166001600160a01b03841617909155169055565b60405163131f9f3f60e11b81526004810184905260009033908290829063263f3e7e90602401602060405180830381865afa158015610bc2573d6000803e3d6000fd5b505050506040513d601f19601f82011682018060405250810190610be69190613211565b6065546040516337547a9760e01b81529192506000916001600160a01b03909116906337547a9790610c1e908690869060040161322a565b602060405180830381865afa158015610c3b573d6000803e3d6000fd5b505050506040513d601f19601f82011682018060405250810190610c5f9190613253565b90506001600160a01b038116610c875760405162461bcd60e51b81526004016103ef90613270565b806001600160a01b0316886001600160a01b03161480610cb457506064546001600160a01b038981169116145b15610ccc5750630a85bd0160e11b9250610ebe915050565b604051631398fee160e31b8152600481018890526000906001600160a01b03851690639cc7f70890602401602060405180830381865afa158015610d14573d6000803e3d6000fd5b505050506040513d601f19601f82011682018060405250810190610d389190613211565b11610d555760405162461bcd60e51b81526004016103ef906132bc565b6040516331a9108f60e11b8152600481018890526000906001600160a01b03851690636352211e90602401602060405180830381865afa158015610d9d573d6000803e3d6000fd5b505050506040513d601f19601f82011682018060405250810190610dc19190613253565b90506001600160a01b0381163014610deb5760405162461bcd60e51b81526004016103ef90613303565b604051631398fee160e31b8152600481018990526000906001600160a01b03861690639cc7f70890602401602060405180830381865afa158015610e33573d6000803e3d6000fd5b505050506040513d601f19601f82011682018060405250810190610e579190613211565b9050610e6485848b612a51565b610e6f838b83612730565b896001600160a01b0316836001600160a01b03166000805160206137f883398151915287878d86604051610ea6949392919061333a565b60405180910390a350630a85bd0160e11b9450505050505b95945050505050565b60645460405162daa6b160e61b81526004810183905260009182916001600160a01b03909116906336a9ac40906024016102a060405180830381865afa158015610f15573d6000803e3d6000fd5b505050506040513d601f19601f82011682018060405250810190610f3991906135be565b905080610100015115610f4f5750600192915050565b6064546040516321f8a72160e01b81527a27a326abb434ba32b634b9ba29ba3930ba32b3bca6b0b730b3b2b960291b60048201526000916001600160a01b0316906321f8a72190602401602060405180830381865afa158015610fb6573d6000803e3d6000fd5b505050506040513d601f19601f82011682018060405250810190610fda9190613253565b60405163f409981160e01b8152600481018690523360248201529091506001600160a01b0382169063f409981190604401602060405180830381865afa158015611028573d6000803e3d6000fd5b505050506040513d601f19601f8201168201806040525081019061104c919061368b565b949350505050565b6033546001600160a01b0316331461107e5760405162461bcd60e51b81526004016103ef906136a6565b603254603354604051600080516020613818833981519152926110af926001600160a01b0391821692911690613360565b60405180910390a160338054603280546001600160a01b03199081166001600160a01b03841617909155169055565b60006110e8612932565b60645460405162daa6b160e61b8152600481018590526000916001600160a01b0316906336a9ac40906024016102a060405180830381865afa158015611132573d6000803e3d6000fd5b505050506040513d601f19601f8201168201806040525081019061115691906135be565b80518051602082015160409283015160655493516337547a9760e01b8152949550919390926000916001600160a01b03909116906337547a97906111a0908790869060040161322a565b602060405180830381865afa1580156111bd573d6000803e3d6000fd5b505050506040513d601f19601f820116820180604052508101906111e19190613253565b90506001600160a01b0381166112095760405162461bcd60e51b81526004016103ef90613270565b611214813389612a83565b60405163b390c0ab60e01b81526000906001600160a01b0383169063b390c0ab90611245908b9085906004016136cd565b6020604051808303816000875af1158015611264573d6000803e3d6000fd5b505050506040513d601f19601f820116820180604052508101906112889190613211565b6064549091506112a39086906001600160a01b031683612c76565b606480546040516371033ad760e01b8152600481018c905260248101849052600060448201529182018a90526001600160a01b0316906371033ad790608401600060405180830381600087803b1580156112fc57600080fd5b505af1158015611310573d6000803e3d6000fd5b50506040516370a0823160e01b8152600092506001600160a01b03871691506370a0823190611343903090600401613087565b602060405180830381865afa158015611360573d6000803e3d6000fd5b505050506040513d601f19601f820116820180604052508101906113849190613211565b90506001600160a01b038516632f745c59306113a16001856136f1565b6040518363ffffffff1660e01b81526004016113be92919061322a565b602060405180830381865afa1580156113db573d6000803e3d6000fd5b505050506040513d601f19601f820116820180604052508101906113ff9190613211565b604051631398fee160e31b81526004810182905290985089906001600160a01b03871690639cc7f70890602401602060405180830381865afa158015611449573d6000803e3d6000fd5b505050506040513d601f19601f8201168201806040525081019061146d9190613211565b146114cc5760405162461bcd60e51b815260206004820152602960248201527f53667457726170526f757465723a20696e636f727265637420726564656d7074604482015268696f6e2076616c756560b81b60648201526084016103ef565b6114d785338a612ca6565b826001600160a01b0316336001600160a01b03168b7f78f28b46ef784512c5644a2069be0c54b5504a85022f6944b8fe318e802881178c8c60405161151d9291906136cd565b60405180910390a45050505050505061076e612a40565b61153c612932565b60645460405162daa6b160e61b8152600481018490526000916001600160a01b0316906336a9ac40906024016102a060405180830381865afa158015611586573d6000803e3d6000fd5b505050506040513d601f19601f820116820180604052508101906115aa91906135be565b805180516020820151604090920151929350916115c8823387612cd8565b6064546115e09083906001600160a01b031687612c76565b6064546040516302e9574960e51b81526001600160a01b0390911690635d2ae9209061161290899089906004016136cd565b600060405180830381600087803b15801561162c57600080fd5b505af1158015611640573d6000803e3d6000fd5b50506040516370a0823160e01b8152600092506001600160a01b03861691506370a0823190611673903090600401613087565b602060405180830381865afa158015611690573d6000803e3d6000fd5b505050506040513d601f19601f820116820180604052508101906116b49190613211565b905060006001600160a01b038516632f745c59306116d36001866136f1565b6040518363ffffffff1660e01b81526004016116f092919061322a565b602060405180830381865afa15801561170d573d6000803e3d6000fd5b505050506040513d601f19601f820116820180604052508101906117319190613211565b604051631398fee160e31b8152600481018290529091506000906001600160a01b03871690639cc7f70890602401602060405180830381865afa15801561177c573d6000803e3d6000fd5b505050506040513d601f19601f820116820180604052508101906117a09190613211565b6065546040516337547a9760e01b81529192506000916001600160a01b03909116906337547a97906117d8908a90899060040161322a565b602060405180830381865afa1580156117f5573d6000803e3d6000fd5b505050506040513d601f19601f820116820180604052508101906118199190613253565b90506001600160a01b0381166118415760405162461bcd60e51b81526004016103ef90613270565b61184c878285612a51565b611857813384612730565b806001600160a01b0316336001600160a01b03168b7f31a995f8a7cba531318be8a1c061e5e8d9421639be592fc336c04a70222f97548c8660405161189d9291906136cd565b60405180910390a450505050505050506118b5612a40565b5050565b60006118c3612932565b6118cc83610ec7565b6119265760405162461bcd60e51b815260206004820152602560248201527f53667457726170526f757465723a20706f6f6c207065726d697373696f6e2064604482015264195b9a595960da1b60648201526084016103ef565b60645460405162daa6b160e61b8152600481018590526000916001600160a01b0316906336a9ac40906024016102a060405180830381865afa158015611970573d6000803e3d6000fd5b505050506040513d601f19601f8201168201806040525081019061199491906135be565b8051805160409091015160a083015192935090916119b3903387612a83565b60a08301516064546119cf91906001600160a01b031687612d0a565b6064546001600160a01b0316638f3ecff0878760006119f04261012c613704565b6040516001600160e01b031960e087901b1681526004810194909452602484019290925260448301526001600160401b031660648201526084016020604051808303816000875af1158015611a49573d6000803e3d6000fd5b505050506040513d601f19601f82011682018060405250810190611a6d9190613211565b93506000826001600160a01b03166370a08231306040518263ffffffff1660e01b8152600401611a9d9190613087565b602060405180830381865afa158015611aba573d6000803e3d6000fd5b505050506040513d601f19601f82011682018060405250810190611ade9190613211565b905060006001600160a01b038416632f745c5930611afd6001866136f1565b6040518363ffffffff1660e01b8152600401611b1a92919061322a565b602060405180830381865afa158015611b37573d6000803e3d6000fd5b505050506040513d601f19601f82011682018060405250810190611b5b9190613211565b60405163131f9f3f60e11b81526004810182905290915083906001600160a01b0386169063263f3e7e90602401602060405180830381865afa158015611ba5573d6000803e3d6000fd5b505050506040513d601f19601f82011682018060405250810190611bc99190613211565b14611c225760405162461bcd60e51b815260206004820152602360248201527f53667457726170526f757465723a20696e636f727265637420736861726520736044820152621b1bdd60ea1b60648201526084016103ef565b604051631398fee160e31b81526004810182905286906001600160a01b03861690639cc7f70890602401602060405180830381865afa158015611c69573d6000803e3d6000fd5b505050506040513d601f19601f82011682018060405250810190611c8d9190613211565b14611ce65760405162461bcd60e51b8152602060048201526024808201527f53667457726170526f757465723a20696e636f72726563742073686172652076604482015263616c756560e01b60648201526084016103ef565b6065546040516337547a9760e01b81526000916001600160a01b0316906337547a9790611d19908890889060040161322a565b602060405180830381865afa158015611d36573d6000803e3d6000fd5b505050506040513d601f19601f82011682018060405250810190611d5a9190613253565b90506001600160a01b038116611d825760405162461bcd60e51b81526004016103ef90613270565b611d8d858284612a51565b611d98813389612730565b60a0860151604080516001600160a01b038481168252602082018b905290921682820152606082018a90525133918b917f4a29c2a0a0125871fb9cb0dcda775193070a8dd3a98e792b07eca515745de3bf9181900360800190a350505050505061076e612a40565b6000546001600160a01b03163314611e475760405162461bcd60e51b815260206004820152600a60248201526937b7363c9030b236b4b760b11b60448201526064016103ef565b6001546040517fca4f2f25d0898edd99413412fb94012f9e54ec8142f9b093e7720646a95b16a991611e86916001600160a01b03909116908490613360565b60405180910390a1600180546001600160a01b0319166001600160a01b0392909216919091179055565b6000611eba612932565b6001600160a01b038416611ee05760405162461bcd60e51b81526004016103ef90613717565b60008490506000816001600160a01b031663baecd3266040518163ffffffff1660e01b8152600401602060405180830381865afa158015611f25573d6000803e3d6000fd5b505050506040513d601f19601f82011682018060405250810190611f499190613253565b90506000826001600160a01b0316634eb079816040518163ffffffff1660e01b8152600401602060405180830381865afa158015611f8b573d6000803e3d6000fd5b505050506040513d601f19601f82011682018060405250810190611faf9190613211565b6065546040516337547a9760e01b81529192506001600160a01b0316906337547a9790611fe2908590859060040161322a565b602060405180830381865afa158015611fff573d6000803e3d6000fd5b505050506040513d601f19601f820116820180604052508101906120239190613253565b6001600160a01b0316876001600160a01b0316146120535760405162461bcd60e51b81526004016103ef90613717565b600086116120b55760405162461bcd60e51b815260206004820152602960248201527f53667457726170526f757465723a20756e7374616b6520616d6f756e7420636160448201526806e6e6f7420626520360bc1b60648201526084016103ef565b6120c0873388612a83565b6001600160a01b038216600090815260666020908152604080832084845290915281205490036121855760405163b390c0ab60e01b81526001600160a01b0384169063b390c0ab906121199089906000906004016136cd565b6020604051808303816000875af1158015612138573d6000803e3d6000fd5b505050506040513d601f19601f8201168201806040525081019061215c9190613211565b6001600160a01b0383166000908152606660209081526040808320858452909152902055612216565b6001600160a01b0382811660009081526066602090815260408083208584529091529081902054905163b390c0ab60e01b81529185169163b390c0ab916121d1918a91906004016136cd565b6020604051808303816000875af11580156121f0573d6000803e3d6000fd5b505050506040513d601f19601f820116820180604052508101906122149190613211565b505b84600003612256576001600160a01b038216600090815260666020908152604080832084845290915290205461224f9083903389612647565b9350612415565b60405163131f9f3f60e11b8152600481018690526001600160a01b0383169063263f3e7e90602401602060405180830381865afa15801561229b573d6000803e3d6000fd5b505050506040513d601f19601f820116820180604052508101906122bf9190613211565b81146123185760405162461bcd60e51b815260206004820152602260248201527f53667457726170526f757465723a20736c6f7420646f6573206e6f74206d61746044820152610c6d60f31b60648201526084016103ef565b6040516331a9108f60e11b8152600481018690526001600160a01b03831690636352211e90602401602060405180830381865afa15801561235d573d6000803e3d6000fd5b505050506040513d601f19601f820116820180604052508101906123819190613253565b6001600160a01b0316336001600160a01b0316146123e05760405162461bcd60e51b815260206004820152601c60248201527b29b33a2bb930b82937baba32b91d103737ba1039b33a1037bbb732b960211b60448201526064016103ef565b6001600160a01b038216600090815260666020908152604080832084845290915290205461241190839087896126bf565b8493505b336001600160a01b0316876001600160a01b03167f2c904b13f3b9bc1fa77b4e439e2deb5507c11d7a25e042a5bf6374837582f0468484888b60405161245e949392919061333a565b60405180910390a3505050612471612a40565b9392505050565b6000612482612e38565b805490915060ff600160401b82041615906001600160401b03166000811580156124a95750825b90506000826001600160401b031660011480156124c55750303b155b9050811580156124d3575080155b156124f15760405163f92ee8a960e01b815260040160405180910390fd5b84546001600160401b0319166001178555831561251a57845460ff60401b1916600160401b1785555b61252333612e5c565b61252c88612e70565b612534612e81565b606480546001600160a01b03808a166001600160a01b031992831617909255606580549289169290911691909117905583156125aa57845460ff60401b19168555604051600181527fc7f505b2f371ae2175ee4913f4499e1f2633a7b5936321eed1cdaeb6115181d29060200160405180910390a15b5050505050505050565b6032546001600160a01b031633146125de5760405162461bcd60e51b81526004016103ef906136a6565b6033546040517f7d767be5a57784412a13945bd5114db84487d2b007bfcdb2f449fc9ea35437f79161261d916001600160a01b03909116908490613360565b60405180910390a1603380546001600160a01b0319166001600160a01b0392909216919091179055565b6040516307a42e0160e11b815260009085906001600160a01b03821690630f485c029061267c90889088908890600401613759565b6020604051808303816000875af115801561269b573d6000803e3d6000fd5b505050506040513d601f19601f820116820180604052508101906107199190613211565b604051630310ed7f60e41b815260048101849052602481018390526044810182905284906001600160a01b0382169063310ed7f090606401600060405180830381600087803b15801561271157600080fd5b505af1158015612725573d6000803e3d6000fd5b505050505050505050565b73eeeeeeeeeeeeeeeeeeeeeeeeeeeeeeeeeeeeeeed196001600160a01b038416016127fe57604080516000808252602082019092526001600160a01b03841690839060405161277f9190613778565b60006040518083038185875af1925050503d80600081146127bc576040519150601f19603f3d011682016040523d82523d6000602084013e6127c1565b606091505b50509050806127f85760405162461bcd60e51b815260206004820152600360248201526253544560e81b60448201526064016103ef565b50505050565b6000836001600160a01b03163b116128285760405162461bcd60e51b81526004016103ef906137a7565b600080846001600160a01b031663a9059cbb60e01b858560405160240161285092919061322a565b60408051601f198184030181529181526020820180516001600160e01b03166001600160e01b031990941693909317909252905161288e9190613778565b6000604051808303816000865af19150503d80600081146128cb576040519150601f19603f3d011682016040523d82523d6000602084013e6128d0565b606091505b50915091508180156128fa5750805115806128fa5750808060200190518101906128fa919061368b565b61292b5760405162461bcd60e51b815260206004820152600260248201526114d560f21b60448201526064016103ef565b5050505050565b600061293c612e93565b80549091506001190161296257604051633ee5aeb560e01b815260040160405180910390fd5b60029055565b604051632142170760e11b815283906001600160a01b038216906342842e0e9061299a908690309087906004016137d3565b600060405180830381600087803b1580156129b457600080fd5b505af11580156125aa573d6000803e3d6000fd5b6040516307a42e0160e11b815260009084906001600160a01b03821690630f485c02906129fd90879030908890600401613759565b6020604051808303816000875af1158015612a1c573d6000803e3d6000fd5b505050506040513d601f19601f82011682018060405250810190610ebe9190613211565b6000612a4a612e93565b6001905550565b604051632142170760e11b815283906001600160a01b038216906342842e0e9061299a903090879087906004016137d3565b73eeeeeeeeeeeeeeeeeeeeeeeeeeeeeeeeeeeeeeed196001600160a01b03841601612b4657326001600160a01b0383161480612ac75750336001600160a01b038316145b612b055760405162461bcd60e51b815260206004820152600f60248201526e0e6cadcc8cae440dad2e6dac2e8c6d608b1b60448201526064016103ef565b80341015610acb5760405162461bcd60e51b815260206004820152600e60248201526d0ecc2d8eaca40dad2e6dac2e8c6d60931b60448201526064016103ef565b6000836001600160a01b03163b11612b705760405162461bcd60e51b81526004016103ef906137a7565b600080846001600160a01b03166323b872dd60e01b853086604051602401612b9a939291906137d3565b60408051601f198184030181529181526020820180516001600160e01b03166001600160e01b0319909416939093179092529051612bd89190613778565b6000604051808303816000865af19150503d8060008114612c15576040519150601f19603f3d011682016040523d82523d6000602084013e612c1a565b606091505b5091509150818015612c44575080511580612c44575080806020019051810190612c44919061368b565b61292b5760405162461bcd60e51b815260206004820152600360248201526229aa2360e91b60448201526064016103ef565b60405163095ea7b360e01b815283906001600160a01b0382169063095ea7b39061299a908690869060040161322a565b6040516323b872dd60e01b815283906001600160a01b038216906323b872dd9061299a903090879087906004016137d3565b6040516323b872dd60e01b815283906001600160a01b038216906323b872dd9061299a908690309087906004016137d3565b6000836001600160a01b03163b11612d345760405162461bcd60e51b81526004016103ef906137a7565b600080846001600160a01b031663095ea7b360e01b8585604051602401612d5c92919061322a565b60408051601f198184030181529181526020820180516001600160e01b03166001600160e01b0319909416939093179092529051612d9a9190613778565b6000604051808303816000865af19150503d8060008114612dd7576040519150601f19603f3d011682016040523d82523d6000602084013e612ddc565b606091505b5091509150818015612e06575080511580612e06575080806020019051810190612e06919061368b565b61292b5760405162461bcd60e51b815260206004820152600360248201526229a0a360e91b60448201526064016103ef565b7ff0c57e16840df040f15088dc2f81fe391c3923bec73e23a9662efc9c229c6a0090565b612e64612eb7565b612e6d81612edc565b50565b612e78612eb7565b612e6d81612f28565b612e89612eb7565b612e91612f6c565b565b7f9b779b17422d0df92223018b32b4d1fa46e071723d6817e2486d003becc55f0090565b612ebf612f74565b612e9157604051631afcd79f60e31b815260040160405180910390fd5b612ee4612eb7565b600080546001600160a01b0319166001600160a01b03831617815560405160008051602061383883398151915291612f1d918490613360565b60405180910390a150565b612f30612eb7565b603280546001600160a01b0319166001600160a01b03831617905560405160008051602061381883398151915290612f1d906000908490613360565b612a40612eb7565b6000612f7e612e38565b54600160401b900460ff16919050565b6001600160a01b0381168114612e6d57600080fd5b60008083601f840112612fb557600080fd5b5081356001600160401b03811115612fcc57600080fd5b602083019150836020828501011115612fe457600080fd5b9250929050565b60008060008060008060a0878903121561300457600080fd5b863561300f81612f8e565b955060208701359450604087013593506060870135925060808701356001600160401b0381111561303f57600080fd5b61304b89828a01612fa3565b979a9699509497509295939492505050565b60006020828403121561306f57600080fd5b81356001600160e01b03198116811461247157600080fd5b6001600160a01b0391909116815260200190565b6000806000606084860312156130b057600080fd5b83356130bb81612f8e565b95602085013595506040909401359392505050565b6000806000806000608086880312156130e857600080fd5b85356130f381612f8e565b9450602086013561310381612f8e565b93506040860135925060608601356001600160401b0381111561312557600080fd5b61313188828901612fa3565b969995985093965092949392505050565b60006020828403121561315457600080fd5b5035919050565b6000806040838503121561316e57600080fd5b50508035926020909101359150565b60006020828403121561318f57600080fd5b813561247181612f8e565b6000806000606084860312156131af57600080fd5b83356131ba81612f8e565b925060208401356131ca81612f8e565b915060408401356131da81612f8e565b809150509250925092565b600080604083850312156131f857600080fd5b823561320381612f8e565b946020939093013593505050565b60006020828403121561322357600080fd5b5051919050565b6001600160a01b03929092168252602082015260400190565b805161324e81612f8e565b919050565b60006020828403121561326557600080fd5b815161247181612f8e565b6020808252602c908201527f53667457726170526f757465723a20736674207772617070656420746f6b656e60408201526b081b9bdd0818dc99585d195960a21b606082015260800190565b60208082526027908201527f53667457726170526f757465723a207374616b6520616d6f756e742063616e6e60408201526606f7420626520360cc1b606082015260800190565b6020808252601f908201527f53667457726170526f757465723a206e6f74206f776e65642073667420696400604082015260600190565b6001600160a01b0394909416845260208401929092526040830152606082015260800190565b6001600160a01b0392831681529116602082015260400190565b604051606081016001600160401b03811182821017156133aa57634e487b7160e01b600052604160045260246000fd5b60405290565b60405161014081016001600160401b03811182821017156133aa57634e487b7160e01b600052604160045260246000fd5b6000608082840312156133f357600080fd5b604051608081016001600160401b038111828210171561342357634e487b7160e01b600052604160045260246000fd5b8060405250809150825161343681612f8e565b8152602083015161344681612f8e565b8060208301525060408301516040820152606083015160608201525092915050565b80516001600160401b038116811461324e57600080fd5b60006060828403121561349157600080fd5b61349961337a565b9050815161ffff811681146134ad57600080fd5b815260208201516134bd81612f8e565b60208201526134ce60408301613468565b604082015292915050565b6000606082840312156134eb57600080fd5b6134f361337a565b9050815161350081612f8e565b8152602082015161351081612f8e565b602082015260408201516134ce81612f8e565b600060a0828403121561353557600080fd5b60405160a081016001600160401b038111828210171561356557634e487b7160e01b600052604160045260246000fd5b806040525080915082518152602083015160208201526040830151604082015261359160608401613468565b60608201526135a260808401613468565b60808201525092915050565b8051801515811461324e57600080fd5b60006102a082840312156135d157600080fd5b6135d96133b0565b6135e384846133e1565b81526135f2846080850161347f565b60208201526136048460e085016134d9565b6040820152613617846101408501613523565b60608201526136296101e08401613243565b608082015261363b6102008401613243565b60a082015261364d6102208401613243565b60c082015261365f6102408401613468565b60e082015261367161026084016135ae565b610100820152610280929092015161012083015250919050565b60006020828403121561369d57600080fd5b612471826135ae565b6020808252600d908201526c37b7363c9033b7bb32b93737b960991b604082015260600190565b918252602082015260400190565b634e487b7160e01b600052601160045260246000fd5b8181038181111561076e5761076e6136db565b8082018082111561076e5761076e6136db565b60208082526022908201527f53667457726170526f757465723a20696e76616c696420737774206164647265604082015261737360f01b606082015260800190565b9283526001600160a01b03919091166020830152604082015260600190565b6000825160005b81811015613799576020818601810151858301520161377f565b506000920191825250919050565b602080825260129082015271696e76616c696420756e6465726c79696e6760701b604082015260600190565b6001600160a01b03938416815291909216602082015260408101919091526060019056fecf7d371620e0fb0f1a97aa90ebc4b6c044a5052171635dc739ad8474f9efb5131ba669d4a78521f2ad26e8e0fcbcdd626a63f34d68f326bc232a3abe2a5d042af9ffabca9c8276e99321725bcb43fb076a6c66a54b7f21c4e8146d8519b417dca26469706673582212206041c828c41ecac5280d4e9b580f2cdceaff8d5ca923a862e7b63dd6264368ca64736f6c63430008140033",
  "devdoc": {
    "errors": {
      "InvalidInitialization()": [
        {
          "details": "The contract is already initialized."
        }
      ],
      "NotInitializing()": [
        {
          "details": "The contract is not initializing."
        }
      ],
      "ReentrancyGuardReentrantCall()": [
        {
          "details": "Unauthorized reentrant call."
        }
      ]
    },
    "events": {
      "Initialized(uint64)": {
        "details": "Triggered when the contract has been initialized or reinitialized."
      }
    },
    "kind": "dev",
    "methods": {
      "constructor": {
        "custom:oz-upgrades-unsafe-allow": "constructor"
      },
      "supportsInterface(bytes4)": {
        "details": "Returns true if this contract implements the interface defined by `interfaceId`. See the corresponding https://eips.ethereum.org/EIPS/eip-165#how-interfaces-are-identified[EIP section] to learn more about how these ids are created. This function call must use less than 30 000 gas."
      }
    },
    "version": 1
  },
  "userdoc": {
    "kind": "user",
    "methods": {},
    "version": 1
  },
  "storageLayout": {
    "storage": [
      {
        "astId": 5170,
        "contract": "contracts/SftWrapRouter.sol:SftWrapRouter",
        "label": "admin",
        "offset": 0,
        "slot": "0",
        "type": "t_address"
      },
      {
        "astId": 5172,
        "contract": "contracts/SftWrapRouter.sol:SftWrapRouter",
        "label": "pendingAdmin",
        "offset": 0,
        "slot": "1",
        "type": "t_address"
      },
      {
        "astId": 5267,
        "contract": "contracts/SftWrapRouter.sol:SftWrapRouter",
        "label": "__gap",
        "offset": 0,
        "slot": "2",
        "type": "t_array(t_uint256)48_storage"
      },
      {
        "astId": 5383,
        "contract": "contracts/SftWrapRouter.sol:SftWrapRouter",
        "label": "governor",
        "offset": 0,
        "slot": "50",
        "type": "t_address"
      },
      {
        "astId": 5385,
        "contract": "contracts/SftWrapRouter.sol:SftWrapRouter",
        "label": "pendingGovernor",
        "offset": 0,
        "slot": "51",
        "type": "t_address"
      },
      {
        "astId": 5480,
        "contract": "contracts/SftWrapRouter.sol:SftWrapRouter",
        "label": "__gap",
        "offset": 0,
        "slot": "52",
        "type": "t_array(t_uint256)48_storage"
      },
      {
        "astId": 2484,
        "contract": "contracts/SftWrapRouter.sol:SftWrapRouter",
        "label": "openFundMarket",
        "offset": 0,
        "slot": "100",
        "type": "t_address"
      },
      {
        "astId": 2486,
        "contract": "contracts/SftWrapRouter.sol:SftWrapRouter",
        "label": "sftWrappedTokenFactory",
        "offset": 0,
        "slot": "101",
        "type": "t_address"
      },
      {
        "astId": 2492,
        "contract": "contracts/SftWrapRouter.sol:SftWrapRouter",
        "label": "holdingSftIds",
        "offset": 0,
        "slot": "102",
        "type": "t_mapping(t_address,t_mapping(t_uint256,t_uint256))"
      }
    ],
    "types": {
      "t_address": {
        "encoding": "inplace",
        "label": "address",
        "numberOfBytes": "20"
      },
      "t_array(t_uint256)48_storage": {
        "base": "t_uint256",
        "encoding": "inplace",
        "label": "uint256[48]",
        "numberOfBytes": "1536"
      },
      "t_mapping(t_address,t_mapping(t_uint256,t_uint256))": {
        "encoding": "mapping",
        "key": "t_address",
        "label": "mapping(address => mapping(uint256 => uint256))",
        "numberOfBytes": "32",
        "value": "t_mapping(t_uint256,t_uint256)"
      },
      "t_mapping(t_uint256,t_uint256)": {
        "encoding": "mapping",
        "key": "t_uint256",
        "label": "mapping(uint256 => uint256)",
        "numberOfBytes": "32",
        "value": "t_uint256"
      },
      "t_uint256": {
        "encoding": "inplace",
        "label": "uint256",
        "numberOfBytes": "32"
      }
    }
  }
}