{
  "address": "0x36422b3De55413E36cf022F2eE2f674d7d3A7330",
  "abi": [
    {
      "inputs": [],
      "stateMutability": "nonpayable",
      "type": "constructor"
    },
    {
      "inputs": [],
      "name": "InvalidInitialization",
      "type": "error"
    },
    {
      "inputs": [],
      "name": "NotInitializing",
      "type": "error"
    },
    {
      "inputs": [],
      "name": "ReentrancyGuardReentrantCall",
      "type": "error"
    },
    {
      "anonymous": false,
      "inputs": [
        {
          "indexed": true,
          "internalType": "address",
          "name": "sft",
          "type": "address"
        },
        {
          "indexed": true,
          "internalType": "uint256",
          "name": "slot",
          "type": "uint256"
        },
        {
          "indexed": true,
          "internalType": "address",
          "name": "erc20",
          "type": "address"
        },
        {
          "indexed": false,
          "internalType": "uint256",
          "name": "holdingValueSftId",
          "type": "uint256"
        }
      ],
      "name": "AddSftSlot",
      "type": "event"
    },
    {
      "anonymous": false,
      "inputs": [
        {
          "indexed": true,
          "internalType": "address",
          "name": "caller",
          "type": "address"
        },
        {
          "indexed": false,
          "internalType": "bool",
          "name": "allowed",
          "type": "bool"
        }
      ],
      "name": "AllowedCallerChanged",
      "type": "event"
    },
    {
      "anonymous": false,
      "inputs": [
        {
          "indexed": true,
          "internalType": "address",
          "name": "owner",
          "type": "address"
        },
        {
          "indexed": true,
          "internalType": "address",
          "name": "sft",
          "type": "address"
        },
        {
          "indexed": true,
          "internalType": "uint256",
          "name": "slot",
          "type": "uint256"
        },
        {
          "indexed": false,
          "internalType": "address",
          "name": "erc20",
          "type": "address"
        },
        {
          "indexed": false,
          "internalType": "uint256",
          "name": "sftId",
          "type": "uint256"
        },
        {
          "indexed": false,
          "internalType": "uint256",
          "name": "value",
          "type": "uint256"
        }
      ],
      "name": "Deposit",
      "type": "event"
    },
    {
      "anonymous": false,
      "inputs": [
        {
          "indexed": false,
          "internalType": "uint64",
          "name": "version",
          "type": "uint64"
        }
      ],
      "name": "Initialized",
      "type": "event"
    },
    {
      "anonymous": false,
      "inputs": [
        {
          "indexed": false,
          "internalType": "address",
          "name": "oldAdmin",
          "type": "address"
        },
        {
          "indexed": false,
          "internalType": "address",
          "name": "newAdmin",
          "type": "address"
        }
      ],
      "name": "NewAdmin",
      "type": "event"
    },
    {
      "anonymous": false,
      "inputs": [
        {
          "indexed": false,
          "internalType": "address",
          "name": "oldPendingAdmin",
          "type": "address"
        },
        {
          "indexed": false,
          "internalType": "address",
          "name": "newPendingAdmin",
          "type": "address"
        }
      ],
      "name": "NewPendingAdmin",
      "type": "event"
    },
    {
      "anonymous": false,
      "inputs": [
        {
          "indexed": true,
          "internalType": "address",
          "name": "sft",
          "type": "address"
        },
        {
          "indexed": true,
          "internalType": "uint256",
          "name": "slot",
          "type": "uint256"
        },
        {
          "indexed": false,
          "internalType": "bool",
          "name": "depositAllowed",
          "type": "bool"
        },
        {
          "indexed": false,
          "internalType": "bool",
          "name": "withdrawAllowed",
          "type": "bool"
        }
      ],
      "name": "SftSlotAllowedChanged",
      "type": "event"
    },
    {
      "anonymous": false,
      "inputs": [
        {
          "indexed": true,
          "internalType": "address",
          "name": "owner",
          "type": "address"
        },
        {
          "indexed": true,
          "internalType": "address",
          "name": "sft",
          "type": "address"
        },
        {
          "indexed": true,
          "internalType": "uint256",
          "name": "slot",
          "type": "uint256"
        },
        {
          "indexed": false,
          "internalType": "address",
          "name": "erc20",
          "type": "address"
        },
        {
          "indexed": false,
          "internalType": "uint256",
          "name": "sftId",
          "type": "uint256"
        },
        {
          "indexed": false,
          "internalType": "uint256",
          "name": "value",
          "type": "uint256"
        }
      ],
      "name": "Withdraw",
      "type": "event"
    },
    {
      "inputs": [],
      "name": "acceptAdmin",
      "outputs": [],
      "stateMutability": "nonpayable",
      "type": "function"
    },
    {
      "inputs": [
        {
          "internalType": "address",
          "name": "sft_",
          "type": "address"
        },
        {
          "internalType": "uint256",
          "name": "slot_",
          "type": "uint256"
        },
        {
          "internalType": "address",
          "name": "erc20_",
          "type": "address"
        },
        {
          "internalType": "uint256",
          "name": "holdingValueSftId_",
          "type": "uint256"
        }
      ],
      "name": "addSftSlotOnlyAdmin",
      "outputs": [],
      "stateMutability": "nonpayable",
      "type": "function"
    },
    {
      "inputs": [],
      "name": "admin",
      "outputs": [
        {
          "internalType": "address",
          "name": "",
          "type": "address"
        }
      ],
      "stateMutability": "view",
      "type": "function"
    },
    {
      "inputs": [
        {
          "internalType": "address",
          "name": "sft_",
          "type": "address"
        },
        {
          "internalType": "uint256",
          "name": "slot_",
          "type": "uint256"
        },
        {
          "internalType": "bool",
          "name": "depositAllowed_",
          "type": "bool"
        },
        {
          "internalType": "bool",
          "name": "withdrawAllowed_",
          "type": "bool"
        }
      ],
      "name": "changeSftSlotAllowedOnlyAdmin",
      "outputs": [],
      "stateMutability": "nonpayable",
      "type": "function"
    },
    {
      "inputs": [
        {
          "internalType": "address",
          "name": "sft_",
          "type": "address"
        },
        {
          "internalType": "uint256",
          "name": "sftId_",
          "type": "uint256"
        },
        {
          "internalType": "uint256",
          "name": "value_",
          "type": "uint256"
        }
      ],
      "name": "deposit",
      "outputs": [],
      "stateMutability": "nonpayable",
      "type": "function"
    },
    {
      "inputs": [
        {
          "internalType": "address",
          "name": "sft_",
          "type": "address"
        },
        {
          "internalType": "uint256",
          "name": "slot_",
          "type": "uint256"
        }
      ],
      "name": "getERC20",
      "outputs": [
        {
          "internalType": "address",
          "name": "",
          "type": "address"
        }
      ],
      "stateMutability": "view",
      "type": "function"
    },
    {
      "inputs": [
        {
          "internalType": "address",
          "name": "sft_",
          "type": "address"
        },
        {
          "internalType": "uint256",
          "name": "slot_",
          "type": "uint256"
        }
      ],
      "name": "getHoldingValueSftId",
      "outputs": [
        {
          "internalType": "uint256",
          "name": "",
          "type": "uint256"
        }
      ],
      "stateMutability": "view",
      "type": "function"
    },
    {
      "inputs": [
        {
          "internalType": "address",
          "name": "sft_",
          "type": "address"
        },
        {
          "internalType": "uint256",
          "name": "slot_",
          "type": "uint256"
        }
      ],
      "name": "getSftSlotBalance",
      "outputs": [
        {
          "internalType": "uint256",
          "name": "",
          "type": "uint256"
        }
      ],
      "stateMutability": "view",
      "type": "function"
    },
    {
      "inputs": [],
      "name": "initialize",
      "outputs": [],
      "stateMutability": "nonpayable",
      "type": "function"
    },
    {
      "inputs": [
        {
          "internalType": "address",
          "name": "caller",
          "type": "address"
        }
      ],
      "name": "isCallerAllowed",
      "outputs": [
        {
          "internalType": "bool",
          "name": "",
          "type": "bool"
        }
      ],
      "stateMutability": "view",
      "type": "function"
    },
    {
      "inputs": [
        {
          "internalType": "address",
          "name": "sft_",
          "type": "address"
        },
        {
          "internalType": "uint256",
          "name": "slot_",
          "type": "uint256"
        }
      ],
      "name": "isSftSlotDepositAllowed",
      "outputs": [
        {
          "internalType": "bool",
          "name": "",
          "type": "bool"
        }
      ],
      "stateMutability": "view",
      "type": "function"
    },
    {
      "inputs": [
        {
          "internalType": "address",
          "name": "sft_",
          "type": "address"
        },
        {
          "internalType": "uint256",
          "name": "slot_",
          "type": "uint256"
        }
      ],
      "name": "isSftSlotWithdrawAllowed",
      "outputs": [
        {
          "internalType": "bool",
          "name": "",
          "type": "bool"
        }
      ],
      "stateMutability": "view",
      "type": "function"
    },
    {
      "inputs": [],
      "name": "pendingAdmin",
      "outputs": [
        {
          "internalType": "address",
          "name": "",
          "type": "address"
        }
      ],
      "stateMutability": "view",
      "type": "function"
    },
    {
      "inputs": [
        {
          "internalType": "address[]",
          "name": "callers_",
          "type": "address[]"
        },
        {
          "internalType": "bool",
          "name": "allowed",
          "type": "bool"
        }
      ],
      "name": "setCallerAllowedOnlyAdmin",
      "outputs": [],
      "stateMutability": "nonpayable",
      "type": "function"
    },
    {
      "inputs": [
        {
          "internalType": "address",
          "name": "newPendingAdmin_",
          "type": "address"
        }
      ],
      "name": "transferAdmin",
      "outputs": [],
      "stateMutability": "nonpayable",
      "type": "function"
    },
    {
      "inputs": [
        {
          "internalType": "address",
          "name": "sft_",
          "type": "address"
        },
        {
          "internalType": "uint256",
          "name": "slot_",
          "type": "uint256"
        },
        {
          "internalType": "uint256",
          "name": "sftId_",
          "type": "uint256"
        },
        {
          "internalType": "uint256",
          "name": "value_",
          "type": "uint256"
        }
      ],
      "name": "withdraw",
      "outputs": [
        {
          "internalType": "uint256",
          "name": "toSftId_",
          "type": "uint256"
        }
      ],
      "stateMutability": "nonpayable",
      "type": "function"
    }
  ],
  "transactionHash": "0xc87fc1c0f1f8382f1adb5156040b802fc7e344738aa1bb04d86e42b845c09a96",
  "args": [],
  "numDeployments": 1,
  "solcInputHash": "b9b112a4b7d3299450dd263227517017",
  "bytecode": "0x608060405234801561001057600080fd5b5061001961001e565b6100d0565b7ff0c57e16840df040f15088dc2f81fe391c3923bec73e23a9662efc9c229c6a00805468010000000000000000900460ff161561006e5760405163f92ee8a960e01b815260040160405180910390fd5b80546001600160401b03908116146100cd5780546001600160401b0319166001600160401b0390811782556040519081527fc7f505b2f371ae2175ee4913f4499e1f2633a7b5936321eed1cdaeb6115181d29060200160405180910390a15b50565b611c39806100df6000396000f3fe608060405234801561001057600080fd5b50600436106100d05760003560e01c80630e18b681146100d55780630efe6a8b146100df5780630ff7fec5146100f257806312a2b90514610105578063150ddc341461012b578063159c3a201461014e57806326782247146101615780634532d7761461018c57806375829def1461019f5780638129fc1c146101b257806386585a5e146101ba5780639f0b8d03146101fd578063a6c3325f14610236578063c4d979951461026c578063d2d921001461027f578063f851a440146102c2575b600080fd5b6100dd6102d5565b005b6100dd6100ed36600461177f565b610389565b6100dd6101003660046117c9565b6107a3565b61011861011336600461184c565b6108a3565b6040519081526020015b60405180910390f35b61013e610139366004611878565b610949565b6040519015158152602001610122565b6100dd61015c36600461189c565b610975565b600154610174906001600160a01b031681565b6040516001600160a01b039091168152602001610122565b61011861019a3660046118e4565b610d29565b6100dd6101ad366004611878565b6110ca565b6100dd61115d565b61013e6101c836600461184c565b6001600160a01b039190911660009081526032602090815260408083209383529290522060010154600160a01b900460ff1690565b61017461020b36600461184c565b6001600160a01b03918216600090815260326020908152604080832093835292905220600101541690565b61011861024436600461184c565b6001600160a01b03919091166000908152603260209081526040808320938352929052205490565b6100dd61027a36600461191f565b61125d565b61013e61028d36600461184c565b6001600160a01b039190911660009081526032602090815260408083209383529290522060010154600160a81b900460ff1690565b600054610174906001600160a01b031681565b6001546001600160a01b031633146103295760405162461bcd60e51b815260206004820152601260248201527137b7363c903832b73234b7339030b236b4b760711b60448201526064015b60405180910390fd5b600054600154604051600080516020611be48339815191529261035a926001600160a01b039182169291169061196e565b60405180910390a160018054600080546001600160a01b03199081166001600160a01b03841617909155169055565b610391611385565b61039a33610949565b6103b65760405162461bcd60e51b815260040161032090611988565b6000811161040e5760405162461bcd60e51b81526020600482015260316024820152600080516020611ba483398151915260448201527006d6f756e742063616e6e6f74206265203607c1b6064820152608401610320565b6040516331a9108f60e11b8152600481018390526001600160a01b03841690636352211e90602401602060405180830381865afa158015610453573d6000803e3d6000fd5b505050506040513d601f19601f8201168201806040525081019061047791906119c9565b6001600160a01b0316336001600160a01b0316146104a75760405162461bcd60e51b8152600401610320906119e6565b60405163131f9f3f60e11b8152600481018390526000906001600160a01b0385169063263f3e7e90602401602060405180830381865afa1580156104ef573d6000803e3d6000fd5b505050506040513d601f19601f820116820180604052508101906105139190611a22565b6001600160a01b03851660009081526032602090815260408083208484529091529020600181015491925090600160a01b900460ff1661059f5760405162461bcd60e51b81526020600482015260336024820152600080516020611bc483398151915260448201527219195c1bdcda5d081b9bdd08185b1b1bddd959606a1b6064820152608401610320565b604051631398fee160e31b8152600481018590526000906001600160a01b03871690639cc7f70890602401602060405180830381865afa1580156105e7573d6000803e3d6000fd5b505050506040513d601f19601f8201168201806040525081019061060b9190611a22565b90508084036106525761061f8633876113bb565b8154600003610630578482556106dd565b6106408686846000015487611425565b61064d8661dead87611496565b6106dd565b808410156106855781546000036106755761066e8686866114c8565b82556106dd565b61064d8686846000015487611425565b60405162461bcd60e51b81526020600482015260396024820152600080516020611ba48339815191526044820152786d6f756e742065786365656473207366742062616c616e636560381b6064820152608401610320565b60018201546040516340c10f1960e01b81526001600160a01b03909116906340c10f19906107119033908890600401611a3b565b600060405180830381600087803b15801561072b57600080fd5b505af115801561073f573d6000803e3d6000fd5b50505060018301546040518592506001600160a01b03808a169233927e989e8d31410c29caf0085f1b67a406c7146d720ea8e126047c5aac4c1b3b2b9261078b9216908b908b90611a54565b60405180910390a450505061079e611549565b505050565b6000546001600160a01b031633146107cd5760405162461bcd60e51b815260040161032090611a75565b60005b8281101561089d5760008484838181106107ec576107ec611a99565b90506020020160208101906108019190611878565b6001600160a01b03160361085b5760405162461bcd60e51b815260206004820152602d6024820152600080516020611b8483398151915260448201526c207a65726f206164647265737360981b6064820152608401610320565b61088b84848381811061087057610870611a99565b90506020020160208101906108859190611878565b8361155a565b8061089581611aaf565b9150506107d0565b50505050565b6001600160a01b0382166000908152603260209081526040808320848452909152812080541561093e578054604051631398fee160e31b815260048101919091526001600160a01b03851690639cc7f70890602401602060405180830381865afa158015610915573d6000803e3d6000fd5b505050506040513d601f19601f820116820180604052508101906109399190611a22565b610941565b60005b949350505050565b60006109536115c3565b6001600160a01b03909216600090815260209290925250604090205460ff1690565b6000546001600160a01b0316331461099f5760405162461bcd60e51b815260040161032090611a75565b6001600160a01b0380851660009081526032602090815260408083208784529091529020600181015490911615610a1e5760405162461bcd60e51b815260206004820152602f6024820152600080516020611bc483398151915260448201526e185b1c9958591e48195e1a5cdd1959608a1b6064820152608401610320565b826001600160a01b031663313ce5676040518163ffffffff1660e01b8152600401602060405180830381865afa158015610a5c573d6000803e3d6000fd5b505050506040513d601f19601f82011682018060405250810190610a809190611ad6565b60ff16856001600160a01b0316633e7e86696040518163ffffffff1660e01b8152600401602060405180830381865afa158015610ac1573d6000803e3d6000fd5b505050506040513d601f19601f82011682018060405250810190610ae59190611ad6565b60ff1614610b495760405162461bcd60e51b815260206004820152602b60248201527f536f6c764254434d756c74694173736574506f6f6c3a20646563696d616c732060448201526a1b9bdd081b585d18da195960aa1b6064820152608401610320565b8115610ca75760405163131f9f3f60e11b81526004810183905284906001600160a01b0387169063263f3e7e90602401602060405180830381865afa158015610b96573d6000803e3d6000fd5b505050506040513d601f19601f82011682018060405250810190610bba9190611a22565b14610bd75760405162461bcd60e51b815260040161032090611af9565b6040516331a9108f60e11b81526004810183905230906001600160a01b03871690636352211e90602401602060405180830381865afa158015610c1e573d6000803e3d6000fd5b505050506040513d601f19601f82011682018060405250810190610c4291906119c9565b6001600160a01b031614610ca75760405162461bcd60e51b815260206004820152602660248201527f536f6c764254434d756c74694173736574506f6f6c3a207366744964206e6f74604482015265081bdddb995960d21b6064820152608401610320565b81815560018101805460ff60a81b196001600160a81b03199091166001600160a01b03808716918217600160a01b1792909216600160a81b1790925560405186918816907fc2532812ecf7eb4907c9cac96370c00bfb6064322750c6dd0bc97114ceeaa18790610d1a9087815260200190565b60405180910390a45050505050565b6000610d33611385565b610d3c33610949565b610d585760405162461bcd60e51b815260040161032090611988565b60008211610dc35760405162461bcd60e51b815260206004820152603260248201527f536f6c764254434d756c74694173736574506f6f6c3a207769746864726177206044820152710616d6f756e742063616e6e6f7420626520360741b6064820152608401610320565b6001600160a01b038516600090815260326020908152604080832087845290915290206001810154600160a81b900460ff16610e435760405162461bcd60e51b815260206004820152602b6024820152600080516020611bc483398151915260448201526a1b9bdd08185b1b1bddd95960aa1b6064820152608401610320565b6000610e4f87876108a3565b905080841115610eb55760405162461bcd60e51b815260206004820152602b60248201527f536f6c764254434d756c74694173736574506f6f6c3a20696e7375666669636960448201526a656e742062616c616e636560a81b6064820152608401610320565b6001820154604051632770a7eb60e21b81526001600160a01b0390911690639dc29fac90610ee99033908890600401611a3b565b600060405180830381600087803b158015610f0357600080fd5b505af1158015610f17573d6000803e3d6000fd5b5050505084600003610f3a57610f3387836000015433876115e7565b925061106e565b60405163131f9f3f60e11b8152600481018690526001600160a01b0388169063263f3e7e90602401602060405180830381865afa158015610f7f573d6000803e3d6000fd5b505050506040513d601f19601f82011682018060405250810190610fa39190611a22565b8614610fc15760405162461bcd60e51b815260040161032090611af9565b6040516331a9108f60e11b8152600481018690526001600160a01b03881690636352211e90602401602060405180830381865afa158015611006573d6000803e3d6000fd5b505050506040513d601f19601f8201168201806040525081019061102a91906119c9565b6001600160a01b0316336001600160a01b03161461105a5760405162461bcd60e51b8152600401610320906119e6565b61106a8783600001548787611425565b8492505b600182015460405187916001600160a01b03808b169233927f57a06fdd930dbeed1599239829f62ff839283da1c96a5eb2b024c791b1d76e69926110b89291169089908b90611a54565b60405180910390a45050610941611549565b6000546001600160a01b031633146110f45760405162461bcd60e51b815260040161032090611a75565b6001546040517fca4f2f25d0898edd99413412fb94012f9e54ec8142f9b093e7720646a95b16a991611133916001600160a01b0390911690849061196e565b60405180910390a1600180546001600160a01b0319166001600160a01b0392909216919091179055565b6000611167611669565b805490915060ff600160401b82041615906001600160401b031660008115801561118e5750825b90506000826001600160401b031660011480156111aa5750303b155b9050811580156111b8575080155b156111d65760405163f92ee8a960e01b815260040160405180910390fd5b84546001600160401b031916600117855583156111ff57845460ff60401b1916600160401b1785555b6112083361168d565b6112106116a1565b831561125657845460ff60401b19168555604051600181527fc7f505b2f371ae2175ee4913f4499e1f2633a7b5936321eed1cdaeb6115181d29060200160405180910390a15b5050505050565b6000546001600160a01b031633146112875760405162461bcd60e51b815260040161032090611a75565b6001600160a01b038085166000908152603260209081526040808320878452909152902060018101549091166113015760405162461bcd60e51b815260206004820152602b6024820152600080516020611bc483398151915260448201526a1b9bdd08195e1a5cdd195960aa1b6064820152608401610320565b60018101805461ffff60a01b1916600160a01b85151590810260ff60a81b191691909117600160a81b8515159081029190911790925560408051918252602082019290925285916001600160a01b038816917fa36339e77124f707069252e7a04f56b467507541182e9e4b2536c9f8377464ff910160405180910390a35050505050565b600061138f6116b3565b8054909150600119016113b557604051633ee5aeb560e01b815260040160405180910390fd5b60029055565b6040516323b872dd60e01b815283906001600160a01b038216906323b872dd906113ed90869030908790600401611b40565b600060405180830381600087803b15801561140757600080fd5b505af115801561141b573d6000803e3d6000fd5b5050505050505050565b604051630310ed7f60e41b815260048101849052602481018390526044810182905284906001600160a01b0382169063310ed7f090606401600060405180830381600087803b15801561147757600080fd5b505af115801561148b573d6000803e3d6000fd5b505050505050505050565b6040516323b872dd60e01b815283906001600160a01b038216906323b872dd906113ed90309087908790600401611b40565b6040516307a42e0160e11b815260009084906001600160a01b03821690630f485c02906114fd90879030908890600401611b64565b6020604051808303816000875af115801561151c573d6000803e3d6000fd5b505050506040513d601f19601f820116820180604052508101906115409190611a22565b95945050505050565b60006115536116b3565b6001905550565b806115636115c3565b6001600160a01b03841660008181526020928352604090819020805460ff191694151594909417909355915183151581527f880be60bcc12281afa6ddd91d1d316535e12070fe042d26fa8acdf5a0a6116b8910160405180910390a25050565b7fad628aca6c9727ccf1ca6e8cdfd433936675fd6821d38fcb0b7860e090bead0090565b6040516307a42e0160e11b815260009085906001600160a01b03821690630f485c029061161c90889088908890600401611b64565b6020604051808303816000875af115801561163b573d6000803e3d6000fd5b505050506040513d601f19601f8201168201806040525081019061165f9190611a22565b9695505050505050565b7ff0c57e16840df040f15088dc2f81fe391c3923bec73e23a9662efc9c229c6a0090565b6116956116d7565b61169e816116fc565b50565b6116a96116d7565b6116b1611748565b565b7f9b779b17422d0df92223018b32b4d1fa46e071723d6817e2486d003becc55f0090565b6116df611750565b6116b157604051631afcd79f60e31b815260040160405180910390fd5b6117046116d7565b600080546001600160a01b0319166001600160a01b038316178155604051600080516020611be48339815191529161173d91849061196e565b60405180910390a150565b6115496116d7565b600061175a611669565b54600160401b900460ff16919050565b6001600160a01b038116811461169e57600080fd5b60008060006060848603121561179457600080fd5b833561179f8161176a565b95602085013595506040909401359392505050565b803580151581146117c457600080fd5b919050565b6000806000604084860312156117de57600080fd5b83356001600160401b03808211156117f557600080fd5b818601915086601f83011261180957600080fd5b81358181111561181857600080fd5b8760208260051b850101111561182d57600080fd5b60209283019550935061184391860190506117b4565b90509250925092565b6000806040838503121561185f57600080fd5b823561186a8161176a565b946020939093013593505050565b60006020828403121561188a57600080fd5b81356118958161176a565b9392505050565b600080600080608085870312156118b257600080fd5b84356118bd8161176a565b93506020850135925060408501356118d48161176a565b9396929550929360600135925050565b600080600080608085870312156118fa57600080fd5b84356119058161176a565b966020860135965060408601359560600135945092505050565b6000806000806080858703121561193557600080fd5b84356119408161176a565b935060208501359250611955604086016117b4565b9150611963606086016117b4565b905092959194509250565b6001600160a01b0392831681529116602082015260400190565b60208082526021908201527f43616c6c6572436f6e74726f6c3a2063616c6c6572206e6f7420616c6c6f77656040820152601960fa1b606082015260800190565b6000602082840312156119db57600080fd5b81516118958161176a565b6020808252602e90820152600080516020611b8483398151915260408201526d103737ba1039b33a1037bbb732b960911b606082015260800190565b600060208284031215611a3457600080fd5b5051919050565b6001600160a01b03929092168252602082015260400190565b6001600160a01b039390931683526020830191909152604082015260600190565b6020808252600a908201526937b7363c9030b236b4b760b11b604082015260600190565b634e487b7160e01b600052603260045260246000fd5b600060018201611acf57634e487b7160e01b600052601160045260246000fd5b5060010190565b600060208284031215611ae857600080fd5b815160ff8116811461189557600080fd5b60208082526027908201527f536f6c764254434d756c74694173736574506f6f6c3a20736c6f74206e6f74206040820152661b585d18da195960ca1b606082015260800190565b6001600160a01b039384168152919092166020820152604081019190915260600190565b9283526001600160a01b0391909116602083015260408201526060019056fe536f6c764254434d756c74694173736574506f6f6c3a2063616c6c6572206973536f6c764254434d756c74694173736574506f6f6c3a206465706f7369742061536f6c764254434d756c74694173736574506f6f6c3a2073667420736c6f7420f9ffabca9c8276e99321725bcb43fb076a6c66a54b7f21c4e8146d8519b417dca26469706673582212200a4b49c8930035f80b783d6e20aa198fc52262bbbe4f8c6ba4e705fe31349d4e64736f6c63430008140033",
  "devdoc": {
    "errors": {
      "InvalidInitialization()": [
        {
          "details": "The contract is already initialized."
        }
      ],
      "NotInitializing()": [
        {
          "details": "The contract is not initializing."
        }
      ],
      "ReentrancyGuardReentrantCall()": [
        {
          "details": "Unauthorized reentrant call."
        }
      ]
    },
    "events": {
      "Initialized(uint64)": {
        "details": "Triggered when the contract has been initialized or reinitialized."
      }
    },
    "kind": "dev",
    "methods": {
      "constructor": {
        "custom:oz-upgrades-unsafe-allow": "constructor"
      }
    },
    "version": 1
  },
  "userdoc": {
    "kind": "user",
    "methods": {},
    "version": 1
  },
  "storageLayout": {
    "storage": [
      {
        "astId": 8830,
        "contract": "contracts/SolvBTCMultiAssetPool.sol:SolvBTCMultiAssetPool",
        "label": "admin",
        "offset": 0,
        "slot": "0",
        "type": "t_address"
      },
      {
        "astId": 8832,
        "contract": "contracts/SolvBTCMultiAssetPool.sol:SolvBTCMultiAssetPool",
        "label": "pendingAdmin",
        "offset": 0,
        "slot": "1",
        "type": "t_address"
      },
      {
        "astId": 8927,
        "contract": "contracts/SolvBTCMultiAssetPool.sol:SolvBTCMultiAssetPool",
        "label": "__gap",
        "offset": 0,
        "slot": "2",
        "type": "t_array(t_uint256)48_storage"
      },
      {
        "astId": 3330,
        "contract": "contracts/SolvBTCMultiAssetPool.sol:SolvBTCMultiAssetPool",
        "label": "_sftSlotInfos",
        "offset": 0,
        "slot": "50",
        "type": "t_mapping(t_address,t_mapping(t_uint256,t_struct(SftSlotInfo)3323_storage))"
      },
      {
        "astId": 4027,
        "contract": "contracts/SolvBTCMultiAssetPool.sol:SolvBTCMultiAssetPool",
        "label": "__gap",
        "offset": 0,
        "slot": "51",
        "type": "t_array(t_uint256)49_storage"
      }
    ],
    "types": {
      "t_address": {
        "encoding": "inplace",
        "label": "address",
        "numberOfBytes": "20"
      },
      "t_array(t_uint256)48_storage": {
        "base": "t_uint256",
        "encoding": "inplace",
        "label": "uint256[48]",
        "numberOfBytes": "1536"
      },
      "t_array(t_uint256)49_storage": {
        "base": "t_uint256",
        "encoding": "inplace",
        "label": "uint256[49]",
        "numberOfBytes": "1568"
      },
      "t_bool": {
        "encoding": "inplace",
        "label": "bool",
        "numberOfBytes": "1"
      },
      "t_mapping(t_address,t_mapping(t_uint256,t_struct(SftSlotInfo)3323_storage))": {
        "encoding": "mapping",
        "key": "t_address",
        "label": "mapping(address => mapping(uint256 => struct SolvBTCMultiAssetPool.SftSlotInfo))",
        "numberOfBytes": "32",
        "value": "t_mapping(t_uint256,t_struct(SftSlotInfo)3323_storage)"
      },
      "t_mapping(t_uint256,t_struct(SftSlotInfo)3323_storage)": {
        "encoding": "mapping",
        "key": "t_uint256",
        "label": "mapping(uint256 => struct SolvBTCMultiAssetPool.SftSlotInfo)",
        "numberOfBytes": "32",
        "value": "t_struct(SftSlotInfo)3323_storage"
      },
      "t_struct(SftSlotInfo)3323_storage": {
        "encoding": "inplace",
        "label": "struct SolvBTCMultiAssetPool.SftSlotInfo",
        "members": [
          {
            "astId": 3316,
            "contract": "contracts/SolvBTCMultiAssetPool.sol:SolvBTCMultiAssetPool",
            "label": "holdingValueSftId",
            "offset": 0,
            "slot": "0",
            "type": "t_uint256"
          },
          {
            "astId": 3318,
            "contract": "contracts/SolvBTCMultiAssetPool.sol:SolvBTCMultiAssetPool",
            "label": "erc20",
            "offset": 0,
            "slot": "1",
            "type": "t_address"
          },
          {
            "astId": 3320,
            "contract": "contracts/SolvBTCMultiAssetPool.sol:SolvBTCMultiAssetPool",
            "label": "depositAllowed",
            "offset": 20,
            "slot": "1",
            "type": "t_bool"
          },
          {
            "astId": 3322,
            "contract": "contracts/SolvBTCMultiAssetPool.sol:SolvBTCMultiAssetPool",
            "label": "withdrawAllowed",
            "offset": 21,
            "slot": "1",
            "type": "t_bool"
          }
        ],
        "numberOfBytes": "64"
      },
      "t_uint256": {
        "encoding": "inplace",
        "label": "uint256",
        "numberOfBytes": "32"
      }
    }
  }
}