{
  "address": "0x13dA31073B656d49C8F0a05B17F7daB6c16495D1",
  "abi": [
    {
      "inputs": [],
      "stateMutability": "nonpayable",
      "type": "constructor"
    },
    {
      "inputs": [],
      "name": "InvalidInitialization",
      "type": "error"
    },
    {
      "inputs": [],
      "name": "NotInitializing",
      "type": "error"
    },
    {
      "inputs": [
        {
          "internalType": "address",
          "name": "owner",
          "type": "address"
        }
      ],
      "name": "OwnableInvalidOwner",
      "type": "error"
    },
    {
      "inputs": [
        {
          "internalType": "address",
          "name": "account",
          "type": "address"
        }
      ],
      "name": "OwnableUnauthorizedAccount",
      "type": "error"
    },
    {
      "inputs": [],
      "name": "ReentrancyGuardReentrantCall",
      "type": "error"
    },
    {
      "anonymous": false,
      "inputs": [
        {
          "indexed": true,
          "internalType": "address",
          "name": "verifier",
          "type": "address"
        }
      ],
      "name": "AddKycSBTVerifier",
      "type": "event"
    },
    {
      "anonymous": false,
      "inputs": [
        {
          "indexed": true,
          "internalType": "address",
          "name": "targetToken",
          "type": "address"
        },
        {
          "indexed": true,
          "internalType": "address",
          "name": "redemption",
          "type": "address"
        },
        {
          "indexed": true,
          "internalType": "address",
          "name": "requester",
          "type": "address"
        },
        {
          "indexed": false,
          "internalType": "bytes32",
          "name": "poolId",
          "type": "bytes32"
        },
        {
          "indexed": false,
          "internalType": "uint256",
          "name": "redemptionId",
          "type": "uint256"
        },
        {
          "indexed": false,
          "internalType": "uint256",
          "name": "targetTokenAmount",
          "type": "uint256"
        }
      ],
      "name": "CancelWithdrawRequest",
      "type": "event"
    },
    {
      "anonymous": false,
      "inputs": [
        {
          "indexed": true,
          "internalType": "address",
          "name": "targetToken",
          "type": "address"
        },
        {
          "indexed": true,
          "internalType": "address",
          "name": "currency",
          "type": "address"
        },
        {
          "indexed": true,
          "internalType": "address",
          "name": "depositor",
          "type": "address"
        },
        {
          "indexed": false,
          "internalType": "uint256",
          "name": "targetTokenAmount",
          "type": "uint256"
        },
        {
          "indexed": false,
          "internalType": "uint256",
          "name": "currencyAmount",
          "type": "uint256"
        },
        {
          "indexed": false,
          "internalType": "address[]",
          "name": "path",
          "type": "address[]"
        },
        {
          "indexed": false,
          "internalType": "bytes32[]",
          "name": "poolIds",
          "type": "bytes32[]"
        }
      ],
      "name": "Deposit",
      "type": "event"
    },
    {
      "anonymous": false,
      "inputs": [
        {
          "indexed": false,
          "internalType": "uint64",
          "name": "version",
          "type": "uint64"
        }
      ],
      "name": "Initialized",
      "type": "event"
    },
    {
      "anonymous": false,
      "inputs": [
        {
          "indexed": true,
          "internalType": "address",
          "name": "previousOwner",
          "type": "address"
        },
        {
          "indexed": true,
          "internalType": "address",
          "name": "newOwner",
          "type": "address"
        }
      ],
      "name": "OwnershipTransferStarted",
      "type": "event"
    },
    {
      "anonymous": false,
      "inputs": [
        {
          "indexed": true,
          "internalType": "address",
          "name": "previousOwner",
          "type": "address"
        },
        {
          "indexed": true,
          "internalType": "address",
          "name": "newOwner",
          "type": "address"
        }
      ],
      "name": "OwnershipTransferred",
      "type": "event"
    },
    {
      "anonymous": false,
      "inputs": [
        {
          "indexed": true,
          "internalType": "address",
          "name": "verifier",
          "type": "address"
        }
      ],
      "name": "RemoveKycSBTVerifier",
      "type": "event"
    },
    {
      "anonymous": false,
      "inputs": [
        {
          "indexed": true,
          "internalType": "address",
          "name": "openFundMarket",
          "type": "address"
        }
      ],
      "name": "SetOpenFundMarket",
      "type": "event"
    },
    {
      "anonymous": false,
      "inputs": [
        {
          "indexed": true,
          "internalType": "address",
          "name": "currency",
          "type": "address"
        },
        {
          "indexed": true,
          "internalType": "address",
          "name": "targetToken",
          "type": "address"
        },
        {
          "indexed": false,
          "internalType": "address[]",
          "name": "path",
          "type": "address[]"
        }
      ],
      "name": "SetPath",
      "type": "event"
    },
    {
      "anonymous": false,
      "inputs": [
        {
          "indexed": true,
          "internalType": "address",
          "name": "targetToken",
          "type": "address"
        },
        {
          "indexed": true,
          "internalType": "address",
          "name": "currency",
          "type": "address"
        },
        {
          "indexed": true,
          "internalType": "bytes32",
          "name": "poolId",
          "type": "bytes32"
        }
      ],
      "name": "SetPoolId",
      "type": "event"
    },
    {
      "anonymous": false,
      "inputs": [
        {
          "indexed": true,
          "internalType": "address",
          "name": "targetToken",
          "type": "address"
        },
        {
          "indexed": true,
          "internalType": "address",
          "name": "currency",
          "type": "address"
        },
        {
          "indexed": true,
          "internalType": "address",
          "name": "requester",
          "type": "address"
        },
        {
          "indexed": false,
          "internalType": "bytes32",
          "name": "poolId",
          "type": "bytes32"
        },
        {
          "indexed": false,
          "internalType": "uint256",
          "name": "withdrawAmount",
          "type": "uint256"
        },
        {
          "indexed": false,
          "internalType": "uint256",
          "name": "redemptionId",
          "type": "uint256"
        }
      ],
      "name": "WithdrawRequest",
      "type": "event"
    },
    {
      "inputs": [],
      "name": "acceptOwnership",
      "outputs": [],
      "stateMutability": "nonpayable",
      "type": "function"
    },
    {
      "inputs": [
        {
          "internalType": "address",
          "name": "kycSBTVerifier_",
          "type": "address"
        }
      ],
      "name": "addKycSBTVerifier",
      "outputs": [],
      "stateMutability": "nonpayable",
      "type": "function"
    },
    {
      "inputs": [
        {
          "internalType": "address",
          "name": "targetToken_",
          "type": "address"
        },
        {
          "internalType": "address",
          "name": "redemption_",
          "type": "address"
        },
        {
          "internalType": "uint256",
          "name": "redemptionId_",
          "type": "uint256"
        }
      ],
      "name": "cancelWithdrawRequest",
      "outputs": [
        {
          "internalType": "uint256",
          "name": "targetTokenAmount_",
          "type": "uint256"
        }
      ],
      "stateMutability": "nonpayable",
      "type": "function"
    },
    {
      "inputs": [],
      "name": "checkKycSBT",
      "outputs": [
        {
          "internalType": "bool",
          "name": "",
          "type": "bool"
        }
      ],
      "stateMutability": "view",
      "type": "function"
    },
    {
      "inputs": [
        {
          "internalType": "bytes32",
          "name": "poolId_",
          "type": "bytes32"
        }
      ],
      "name": "checkPoolPermission",
      "outputs": [
        {
          "internalType": "bool",
          "name": "",
          "type": "bool"
        }
      ],
      "stateMutability": "view",
      "type": "function"
    },
    {
      "inputs": [
        {
          "internalType": "address",
          "name": "targetToken_",
          "type": "address"
        },
        {
          "internalType": "address",
          "name": "currency_",
          "type": "address"
        },
        {
          "internalType": "uint256",
          "name": "currencyAmount_",
          "type": "uint256"
        }
      ],
      "name": "deposit",
      "outputs": [
        {
          "internalType": "uint256",
          "name": "targetTokenAmount_",
          "type": "uint256"
        }
      ],
      "stateMutability": "nonpayable",
      "type": "function"
    },
    {
      "inputs": [
        {
          "internalType": "address",
          "name": "owner_",
          "type": "address"
        }
      ],
      "name": "initialize",
      "outputs": [],
      "stateMutability": "nonpayable",
      "type": "function"
    },
    {
      "inputs": [
        {
          "internalType": "uint256",
          "name": "",
          "type": "uint256"
        }
      ],
      "name": "kycSBTVerifiers",
      "outputs": [
        {
          "internalType": "address",
          "name": "",
          "type": "address"
        }
      ],
      "stateMutability": "view",
      "type": "function"
    },
    {
      "inputs": [],
      "name": "openFundMarket",
      "outputs": [
        {
          "internalType": "address",
          "name": "",
          "type": "address"
        }
      ],
      "stateMutability": "view",
      "type": "function"
    },
    {
      "inputs": [],
      "name": "owner",
      "outputs": [
        {
          "internalType": "address",
          "name": "",
          "type": "address"
        }
      ],
      "stateMutability": "view",
      "type": "function"
    },
    {
      "inputs": [
        {
          "internalType": "address",
          "name": "",
          "type": "address"
        },
        {
          "internalType": "address",
          "name": "",
          "type": "address"
        },
        {
          "internalType": "uint256",
          "name": "",
          "type": "uint256"
        }
      ],
      "name": "paths",
      "outputs": [
        {
          "internalType": "address",
          "name": "",
          "type": "address"
        }
      ],
      "stateMutability": "view",
      "type": "function"
    },
    {
      "inputs": [],
      "name": "pendingOwner",
      "outputs": [
        {
          "internalType": "address",
          "name": "",
          "type": "address"
        }
      ],
      "stateMutability": "view",
      "type": "function"
    },
    {
      "inputs": [
        {
          "internalType": "address",
          "name": "",
          "type": "address"
        },
        {
          "internalType": "address",
          "name": "",
          "type": "address"
        }
      ],
      "name": "poolIds",
      "outputs": [
        {
          "internalType": "bytes32",
          "name": "",
          "type": "bytes32"
        }
      ],
      "stateMutability": "view",
      "type": "function"
    },
    {
      "inputs": [
        {
          "internalType": "address",
          "name": "kycSBTVerifier_",
          "type": "address"
        }
      ],
      "name": "removeKycSBTVerifier",
      "outputs": [],
      "stateMutability": "nonpayable",
      "type": "function"
    },
    {
      "inputs": [],
      "name": "renounceOwnership",
      "outputs": [],
      "stateMutability": "nonpayable",
      "type": "function"
    },
    {
      "inputs": [
        {
          "internalType": "address",
          "name": "openFundMarket_",
          "type": "address"
        }
      ],
      "name": "setOpenFundMarket",
      "outputs": [],
      "stateMutability": "nonpayable",
      "type": "function"
    },
    {
      "inputs": [
        {
          "internalType": "address",
          "name": "currency_",
          "type": "address"
        },
        {
          "internalType": "address",
          "name": "targetToken_",
          "type": "address"
        },
        {
          "internalType": "address[]",
          "name": "path_",
          "type": "address[]"
        }
      ],
      "name": "setPath",
      "outputs": [],
      "stateMutability": "nonpayable",
      "type": "function"
    },
    {
      "inputs": [
        {
          "internalType": "address",
          "name": "targetToken_",
          "type": "address"
        },
        {
          "internalType": "address",
          "name": "currency_",
          "type": "address"
        },
        {
          "internalType": "bytes32",
          "name": "poolId_",
          "type": "bytes32"
        }
      ],
      "name": "setPoolId",
      "outputs": [],
      "stateMutability": "nonpayable",
      "type": "function"
    },
    {
      "inputs": [
        {
          "internalType": "address",
          "name": "newOwner",
          "type": "address"
        }
      ],
      "name": "transferOwnership",
      "outputs": [],
      "stateMutability": "nonpayable",
      "type": "function"
    },
    {
      "inputs": [
        {
          "internalType": "address",
          "name": "targetToken_",
          "type": "address"
        },
        {
          "internalType": "address",
          "name": "currency_",
          "type": "address"
        },
        {
          "internalType": "uint256",
          "name": "withdrawAmount_",
          "type": "uint256"
        }
      ],
      "name": "withdrawRequest",
      "outputs": [
        {
          "internalType": "address",
          "name": "",
          "type": "address"
        },
        {
          "internalType": "uint256",
          "name": "",
          "type": "uint256"
        }
      ],
      "stateMutability": "nonpayable",
      "type": "function"
    }
  ],
  "transactionHash": "0x050b50a992865a3a865064793e00d1b39e656b34b91f0a96d912401cb4b1944d",
  "args": [],
  "numDeployments": 1,
  "solcInputHash": "fafe4d9695720a06f8f62b5e4c7aff29",
  "bytecode": "0x60806040523480156200001157600080fd5b506200001c62000022565b620000d6565b7ff0c57e16840df040f15088dc2f81fe391c3923bec73e23a9662efc9c229c6a00805468010000000000000000900460ff1615620000735760405163f92ee8a960e01b815260040160405180910390fd5b80546001600160401b0390811614620000d35780546001600160401b0319166001600160401b0390811782556040519081527fc7f505b2f371ae2175ee4913f4499e1f2633a7b5936321eed1cdaeb6115181d29060200160405180910390a15b50565b61342080620000e66000396000f3fe608060405234801561001057600080fd5b50600436106100fc5760003560e01c8063055227a114610101578063073ef060146101165780631d98e7f81461012957806342c7774b146101515780636534d8dc146101725780636dadff0b1461019d5780636fdc9d9b146101bd578063715018a6146101d057806379ba5097146101d85780638340f549146101e05780638da5cb5b146101f35780638df9dfda146101fb578063ba9cf7581461020e578063c4d66de814610216578063cef4cde414610229578063d2cfd97d1461023c578063e30c39781461025d578063f2fde38b14610265578063f355d41714610278578063f6d852e21461028b575b600080fd5b61011461010f366004612b85565b61029e565b005b610114610124366004612c5d565b610427565b61013c610137366004612c7a565b610506565b60405190151581526020015b60405180910390f35b61016461015f366004612c93565b61069d565b604051908152602001610148565b610164610180366004612cd4565b600360209081526000928352604080842090915290825290205481565b6101b06101ab366004612c7a565b610bda565b6040516101489190612d0d565b6101146101cb366004612c5d565b610c04565b610114610cba565b610114610cce565b6101646101ee366004612c93565b610d0d565b6101b0610f8c565b610114610209366004612c93565b610fa7565b61013c6110a1565b610114610224366004612c5d565b611167565b6101b0610237366004612c93565b6112be565b61024f61024a366004612c93565b611303565b604051610148929190612d21565b6101b06118f7565b610114610273366004612c5d565b611902565b6000546101b0906001600160a01b031681565b610114610299366004612c5d565b611973565b6102a6611ab9565b6001600160a01b0383166102d55760405162461bcd60e51b81526004016102cc90612d3a565b60405180910390fd5b6001600160a01b0382166102fb5760405162461bcd60e51b81526004016102cc90612d69565b60005b81518110156103a05760006001600160a01b031682828151811061032457610324612dad565b60200260200101516001600160a01b03160361038e5760405162461bcd60e51b815260206004820152602360248201527f536f6c76425443526f7574657256323a20696e76616c6964207061746820746f60448201526235b2b760e91b60648201526084016102cc565b8061039881612dd9565b9150506102fe565b506001600160a01b038084166000908152600260209081526040808320938616835292815291902082516103d692840190612a43565b50816001600160a01b0316836001600160a01b03167fc3799aea01bc3147c6d65980a35dbf4661fb244ecebf3890db31c1dea0e0131c8360405161041a9190612e36565b60405180910390a3505050565b61042f611ab9565b6001600160a01b03811661048f5760405162461bcd60e51b815260206004820152602160248201527f536f6c76425443526f7574657256323a20696e76616c696420766572696669656044820152603960f91b60648201526084016102cc565b60018054808201825560009182527fb10e2d527612073b26eecdfd717e6a320cf44b4afac2b0732d9fcbe2b7fa0cf60180546001600160a01b0319166001600160a01b03841690811790915560405190917f406973f217cd9d1d2338d714098813a16e977aeaa9781bd83da782276082a11391a250565b6000805460405162daa6b160e61b81526004810184905282916001600160a01b0316906336a9ac40906024016102a060405180830381865afa158015610550573d6000803e3d6000fd5b505050506040513d601f19601f820116820180604052508101906105749190612ff9565b90508061010001511561058a5750600192915050565b600080546040516321f8a72160e01b81527a27a326abb434ba32b634b9ba29ba3930ba32b3bca6b0b730b3b2b960291b60048201526001600160a01b03909116906321f8a72190602401602060405180830381865afa1580156105f1573d6000803e3d6000fd5b505050506040513d601f19601f8201168201806040525081019061061591906130c6565b60405163f409981160e01b8152600481018690523360248201529091506001600160a01b0382169063f409981190604401602060405180830381865afa158015610663573d6000803e3d6000fd5b505050506040513d601f19601f8201168201806040525081019061068791906130e3565b8061069557506106956110a1565b949350505050565b60006106a7611aeb565b60006106b38484611b21565b6000805460405162daa6b160e61b81526004810184905292935090916001600160a01b03909116906336a9ac40906024016102a060405180830381865afa158015610702573d6000803e3d6000fd5b505050506040513d601f19601f820116820180604052508101906107269190612ff9565b905060008160000151600001519050600082600001516040015190506000886001600160a01b031663f443a35b6040518163ffffffff1660e01b8152600401602060405180830381865afa158015610782573d6000803e3d6000fd5b505050506040513d601f19601f820116820180604052508101906107a691906130c6565b604051639f0b8d0360e01b81529091506001600160a01b03821690639f0b8d03906107d79086908690600401612d21565b602060405180830381865afa1580156107f4573d6000803e3d6000fd5b505050506040513d601f19601f8201168201806040525081019061081891906130c6565b6001600160a01b0316896001600160a01b0316146108485760405162461bcd60e51b81526004016102cc906130fe565b604051631398fee160e31b8152600481018890526001600160a01b03891690639cc7f70890602401602060405180830381865afa15801561088d573d6000803e3d6000fd5b505050506040513d601f19601f820116820180604052508101906108b19190613145565b95506108be883389611c71565b6000546108d69089906001600160a01b031689611cdb565b6000546040516302e9574960e51b815260048101879052602481018990526001600160a01b0390911690635d2ae92090604401600060405180830381600087803b15801561092357600080fd5b505af1158015610937573d6000803e3d6000fd5b50506040516370a0823160e01b8152600092506001600160a01b03861691506370a082319061096a903090600401612d0d565b602060405180830381865afa158015610987573d6000803e3d6000fd5b505050506040513d601f19601f820116820180604052508101906109ab9190613145565b905060006001600160a01b038516632f745c59306109ca60018661315e565b6040518363ffffffff1660e01b81526004016109e7929190612d21565b602060405180830381865afa158015610a04573d6000803e3d6000fd5b505050506040513d601f19601f82011682018060405250810190610a289190613145565b604051631398fee160e31b8152600481018290529091506001600160a01b03861690639cc7f70890602401602060405180830381865afa158015610a70573d6000803e3d6000fd5b505050506040513d601f19601f82011682018060405250810190610a949190613145565b8814610af35760405162461bcd60e51b815260206004820152602860248201527f536f6c76425443526f7574657256323a2063616e63656c20616d6f756e74206e6044820152670dee840dac2e8c6d60c31b60648201526084016102cc565b610afe858483611cdb565b604051630efe6a8b60e01b81526001600160a01b03841690630efe6a8b90610b2e90889085908d90600401613171565b600060405180830381600087803b158015610b4857600080fd5b505af1158015610b5c573d6000803e3d6000fd5b50505050610b6b8b338a611d0b565b336001600160a01b03168a6001600160a01b03168c6001600160a01b03167fbcab14a9990bc1fc30373acf248d280252f63653e6ccdcbd1f7929552a84c7388a8d8d604051610bbc93929190613192565b60405180910390a450505050505050610bd3611f0d565b9392505050565b60018181548110610bea57600080fd5b6000918252602090912001546001600160a01b0316905081565b610c0c611ab9565b6001600160a01b038116610c725760405162461bcd60e51b815260206004820152602760248201527f536f6c76425443526f7574657256323a20696e76616c6964206f70656e46756e6044820152661913585c9ad95d60ca1b60648201526084016102cc565b600080546001600160a01b0319166001600160a01b038316908117825560405190917fb972f7c26626db2ffb3776abf797d15304c8c1f62efdc3567bbdad00dddf896c91a250565b610cc2611ab9565b610ccc6000611f1e565b565b3380610cd86118f7565b6001600160a01b031614610d01578060405163118cdaa760e01b81526004016102cc9190612d0d565b610d0a81611f1e565b50565b6000610d17611aeb565b60008211610d665760405162461bcd60e51b815260206004820152602860248201526000805160206133cb8339815191526044820152671e48185b5bdd5b9d60c21b60648201526084016102cc565b610d71833384611f41565b6001600160a01b038084166000908152600260209081526040808320938816835292815282822080548451818402810184019095528085529293929091830182828015610de757602002820191906000526020600020905b81546001600160a01b03168152600190910190602001808311610dc9575b50505050509050600081516001610dfe91906131a8565b6001600160401b03811115610e1557610e15612ad2565b604051908082528060200260200182016040528015610e3e578160200160208202803683370190505b50905083925060005b82518111610f1b5760008115610e805783610e6360018461315e565b81518110610e7357610e73612dad565b6020026020010151610e82565b865b9050600084518314610ead57848381518110610ea057610ea0612dad565b6020026020010151610eaf565b885b6001600160a01b03808216600090815260036020908152604080832093871683529290522054855191925090859085908110610eed57610eed612dad565b602002602001018181525050610f04818388612139565b955050508080610f1390612dd9565b915050610e47565b50610f27863385611d0b565b336001600160a01b0316856001600160a01b0316876001600160a01b03167f6937da7733b7e101e4ab6e3a3ec12fe857d7a7ca921348ef12feff7abfcee01a86888787604051610f7a94939291906131bb565b60405180910390a45050610bd3611f0d565b600080610f9761276e565b546001600160a01b031692915050565b610faf611ab9565b6001600160a01b038316610fd55760405162461bcd60e51b81526004016102cc90612d69565b6001600160a01b038216610ffb5760405162461bcd60e51b81526004016102cc90612d3a565b806110485760405162461bcd60e51b815260206004820152601f60248201527f536f6c76425443526f7574657256323a20696e76616c696420706f6f6c49640060448201526064016102cc565b6001600160a01b0380841660008181526003602090815260408083209487168084529490915280822085905551849392917f6c7f14630165c9c4c6ad227089f1fcb12296a6e2f333127dfac70ff6c01b752f91a4505050565b6000805b60015481101561115e576000600182815481106110c4576110c4612dad565b6000918252602090912001546040516370a0823160e01b81526001600160a01b03909116906370a08231906110fd903390600401612d0d565b602060405180830381865afa15801561111a573d6000803e3d6000fd5b505050506040513d601f19601f8201168201806040525081019061113e9190613145565b111561114c57600191505090565b8061115681612dd9565b9150506110a5565b50506001541590565b6000611171612792565b805490915060ff600160401b82041615906001600160401b03166000811580156111985750825b90506000826001600160401b031660011480156111b45750303b155b9050811580156111c2575080155b156111e05760405163f92ee8a960e01b815260040160405180910390fd5b84546001600160401b0319166001178555831561120957845460ff60401b1916600160401b1785555b6001600160a01b03861661125f5760405162461bcd60e51b815260206004820152601e60248201527f536f6c76425443526f7574657256323a20696e76616c69642061646d696e000060448201526064016102cc565b611268866127b6565b6112706127e8565b83156112b657845460ff60401b19168555604051600181527fc7f505b2f371ae2175ee4913f4499e1f2633a7b5936321eed1cdaeb6115181d29060200160405180910390a15b505050505050565b600260205282600052604060002060205281600052604060002081815481106112e657600080fd5b6000918252602090912001546001600160a01b0316925083915050565b60008061130e611aeb565b6001600160a01b03808616600090815260036020908152604080832093881683529290522054806113515760405162461bcd60e51b81526004016102cc9061321d565b6000805460405162daa6b160e61b8152600481018490526001600160a01b03909116906336a9ac40906024016102a060405180830381865afa15801561139b573d6000803e3d6000fd5b505050506040513d601f19601f820116820180604052508101906113bf9190612ff9565b90508060a001516001600160a01b0316866001600160a01b0316146113f65760405162461bcd60e51b81526004016102cc9061325e565b80518051602080830151604093840151845163f443a35b60e01b815294519394919390926000926001600160a01b038e169263f443a35b926004808401939192918290030181865afa158015611450573d6000803e3d6000fd5b505050506040513d601f19601f8201168201806040525081019061147491906130c6565b604051639f0b8d0360e01b81529091506001600160a01b03821690639f0b8d03906114a59087908690600401612d21565b602060405180830381865afa1580156114c2573d6000803e3d6000fd5b505050506040513d601f19601f820116820180604052508101906114e691906130c6565b6001600160a01b03168b6001600160a01b0316146115165760405162461bcd60e51b81526004016102cc906130fe565b6115218b338b611f41565b6040516322996bbb60e11b81526001600160a01b03858116600483015260248201849052600060448301819052606483018c90529190831690634532d776906084016020604051808303816000875af1158015611582573d6000803e3d6000fd5b505050506040513d601f19601f820116820180604052508101906115a69190613145565b604051631398fee160e31b8152600481018290529091506001600160a01b03861690639cc7f70890602401602060405180830381865afa1580156115ee573d6000803e3d6000fd5b505050506040513d601f19601f820116820180604052508101906116129190613145565b8a146116305760405162461bcd60e51b81526004016102cc906132a1565b6000546116489086906001600160a01b031683611cdb565b600080546040516371033ad760e01b8152600481018a9052602481018490526044810192909252606482018c90526001600160a01b0316906371033ad790608401600060405180830381600087803b1580156116a357600080fd5b505af11580156116b7573d6000803e3d6000fd5b50506040516370a0823160e01b8152600093506001600160a01b03871692506370a0823191506116eb903090600401612d0d565b602060405180830381865afa158015611708573d6000803e3d6000fd5b505050506040513d601f19601f8201168201806040525081019061172c9190613145565b905060006001600160a01b038516632f745c593061174b60018661315e565b6040518363ffffffff1660e01b8152600401611768929190612d21565b602060405180830381865afa158015611785573d6000803e3d6000fd5b505050506040513d601f19601f820116820180604052508101906117a99190613145565b604051631398fee160e31b8152600481018290529091506001600160a01b03861690639cc7f70890602401602060405180830381865afa1580156117f1573d6000803e3d6000fd5b505050506040513d601f19601f820116820180604052508101906118159190613145565b8b146118775760405162461bcd60e51b815260206004820152602b60248201527f536f6c76425443526f7574657256323a20726564656d7074696f6e2076616c7560448201526a0ca40dcdee840dac2e8c6d60ab1b60648201526084016102cc565b6118828533836127f8565b336001600160a01b03168c6001600160a01b03168e6001600160a01b03167f50aa488fffd286866bc78078718365f7c3880cf5f95179a61e37cf84c5fd76c58b8f866040516118d393929190613192565b60405180910390a49398509296505050505050506118ef611f0d565b935093915050565b600080610f9761282a565b61190a611ab9565b600061191461282a565b80546001600160a01b0319166001600160a01b038416908117825590915061193a610f8c565b6001600160a01b03167f38d16b8cac22d99fc7c124b9cd0de2d3fa1faef420bfe791d8c362d765e2270060405160405180910390a35050565b61197b611ab9565b60005b600154811015611ab557816001600160a01b0316600182815481106119a5576119a5612dad565b6000918252602090912001546001600160a01b031603611aa357600180546119ce90829061315e565b815481106119de576119de612dad565b600091825260209091200154600180546001600160a01b039092169183908110611a0a57611a0a612dad565b9060005260206000200160006101000a8154816001600160a01b0302191690836001600160a01b031602179055506001805480611a4957611a496132e7565b600082815260208120820160001990810180546001600160a01b03191690559091019091556040516001600160a01b038416917f31fcc58e4308750615c411af54c81513de9d2e6c73cf7f3652928cdd25c8d5da91a25050565b80611aad81612dd9565b91505061197e565b5050565b33611ac2610f8c565b6001600160a01b031614610ccc573360405163118cdaa760e01b81526004016102cc9190612d0d565b6000611af561284e565b805490915060011901611b1b57604051633ee5aeb560e01b815260040160405180910390fd5b60029055565b600080836001600160a01b0316638ba344706040518163ffffffff1660e01b8152600401602060405180830381865afa158015611b62573d6000803e3d6000fd5b505050506040513d601f19601f82011682018060405250810190611b8691906130c6565b60405163131f9f3f60e11b8152600481018590529091506000906001600160a01b0386169063263f3e7e90602401602060405180830381865afa158015611bd1573d6000803e3d6000fd5b505050506040513d601f19601f82011682018060405250810190611bf59190613145565b604051636e14b58960e11b8152600481018290529091506000906001600160a01b0384169063dc296b1290602401608060405180830381865afa158015611c40573d6000803e3d6000fd5b505050506040513d601f19601f82011682018060405250810190611c6491906132fd565b5193505050505b92915050565b6040516323b872dd60e01b815283906001600160a01b038216906323b872dd90611ca39086903090879060040161334b565b600060405180830381600087803b158015611cbd57600080fd5b505af1158015611cd1573d6000803e3d6000fd5b5050505050505050565b60405163095ea7b360e01b815283906001600160a01b0382169063095ea7b390611ca39086908690600401612d21565b73eeeeeeeeeeeeeeeeeeeeeeeeeeeeeeeeeeeeeeed196001600160a01b03841601611dd957604080516000808252602082019092526001600160a01b038416908390604051611d5a919061336f565b60006040518083038185875af1925050503d8060008114611d97576040519150601f19603f3d011682016040523d82523d6000602084013e611d9c565b606091505b5050905080611dd35760405162461bcd60e51b815260206004820152600360248201526253544560e81b60448201526064016102cc565b50505050565b6000836001600160a01b03163b11611e035760405162461bcd60e51b81526004016102cc9061339e565b600080846001600160a01b031663a9059cbb60e01b8585604051602401611e2b929190612d21565b60408051601f198184030181529181526020820180516001600160e01b03166001600160e01b0319909416939093179092529051611e69919061336f565b6000604051808303816000865af19150503d8060008114611ea6576040519150601f19603f3d011682016040523d82523d6000602084013e611eab565b606091505b5091509150818015611ed5575080511580611ed5575080806020019051810190611ed591906130e3565b611f065760405162461bcd60e51b815260206004820152600260248201526114d560f21b60448201526064016102cc565b5050505050565b6000611f1761284e565b6001905550565b6000611f2861282a565b80546001600160a01b03191681559050611ab582612872565b73eeeeeeeeeeeeeeeeeeeeeeeeeeeeeeeeeeeeeeed196001600160a01b0384160161200957326001600160a01b0383161480611f855750336001600160a01b038316145b611fc35760405162461bcd60e51b815260206004820152600f60248201526e0e6cadcc8cae440dad2e6dac2e8c6d608b1b60448201526064016102cc565b803410156120045760405162461bcd60e51b815260206004820152600e60248201526d0ecc2d8eaca40dad2e6dac2e8c6d60931b60448201526064016102cc565b505050565b6000836001600160a01b03163b116120335760405162461bcd60e51b81526004016102cc9061339e565b600080846001600160a01b03166323b872dd60e01b85308660405160240161205d9392919061334b565b60408051601f198184030181529181526020820180516001600160e01b03166001600160e01b031990941693909317909252905161209b919061336f565b6000604051808303816000865af19150503d80600081146120d8576040519150601f19603f3d011682016040523d82523d6000602084013e6120dd565b606091505b509150915081801561210757508051158061210757508080602001905181019061210791906130e3565b611f065760405162461bcd60e51b815260206004820152600360248201526229aa2360e91b60448201526064016102cc565b6001600160a01b0380841660009081526003602090815260408083209386168352929052908120548061217e5760405162461bcd60e51b81526004016102cc9061321d565b61218781610506565b6121e35760405162461bcd60e51b815260206004820152602760248201527f536f6c76425443526f7574657256323a20706f6f6c207065726d697373696f6e6044820152660819195b9a595960ca1b60648201526084016102cc565b6000805460405162daa6b160e61b8152600481018490526001600160a01b03909116906336a9ac40906024016102a060405180830381865afa15801561222d573d6000803e3d6000fd5b505050506040513d601f19601f820116820180604052508101906122519190612ff9565b90508060a001516001600160a01b0316856001600160a01b0316146122885760405162461bcd60e51b81526004016102cc9061325e565b60008160000151600001519050600082600001516040015190506000886001600160a01b031663f443a35b6040518163ffffffff1660e01b8152600401602060405180830381865afa1580156122e2573d6000803e3d6000fd5b505050506040513d601f19601f8201168201806040525081019061230691906130c6565b604051639f0b8d0360e01b81529091506001600160a01b03821690639f0b8d03906123379086908690600401612d21565b602060405180830381865afa158015612354573d6000803e3d6000fd5b505050506040513d601f19601f8201168201806040525081019061237891906130c6565b6001600160a01b0316896001600160a01b0316146123a85760405162461bcd60e51b81526004016102cc906130fe565b6000546123c09089906001600160a01b0316896128ce565b600080546001600160a01b031690638f3ecff09087908a906123e44261012c6131a8565b6040516001600160e01b031960e087901b1681526004810194909452602484019290925260448301526001600160401b031660648201526084016020604051808303816000875af115801561243d573d6000803e3d6000fd5b505050506040513d601f19601f820116820180604052508101906124619190613145565b95506000836001600160a01b03166370a08231306040518263ffffffff1660e01b81526004016124919190612d0d565b602060405180830381865afa1580156124ae573d6000803e3d6000fd5b505050506040513d601f19601f820116820180604052508101906124d29190613145565b905060006001600160a01b038516632f745c59306124f160018661315e565b6040518363ffffffff1660e01b815260040161250e929190612d21565b602060405180830381865afa15801561252b573d6000803e3d6000fd5b505050506040513d601f19601f8201168201806040525081019061254f9190613145565b60405163131f9f3f60e11b8152600481018290529091506001600160a01b0386169063263f3e7e90602401602060405180830381865afa158015612597573d6000803e3d6000fd5b505050506040513d601f19601f820116820180604052508101906125bb9190613145565b84146126175760405162461bcd60e51b815260206004820152602560248201527f536f6c76425443526f7574657256323a20736861726520736c6f74206e6f74206044820152640dac2e8c6d60db1b60648201526084016102cc565b604051631398fee160e31b8152600481018290526001600160a01b03861690639cc7f70890602401602060405180830381865afa15801561265c573d6000803e3d6000fd5b505050506040513d601f19601f820116820180604052508101906126809190613145565b881461269e5760405162461bcd60e51b81526004016102cc906132a1565b60405163095ea7b360e01b81526001600160a01b0386169063095ea7b3906126cc9086908590600401612d21565b600060405180830381600087803b1580156126e657600080fd5b505af11580156126fa573d6000803e3d6000fd5b5050604051630efe6a8b60e01b81526001600160a01b0386169250630efe6a8b915061272e90889085908d90600401613171565b600060405180830381600087803b15801561274857600080fd5b505af115801561275c573d6000803e3d6000fd5b50505050505050505050509392505050565b7f9016d09d72d40fdae2fd8ceac6b6234c7706214fd39c1cd1e609a0528c19930090565b7ff0c57e16840df040f15088dc2f81fe391c3923bec73e23a9662efc9c229c6a0090565b6127be6129fc565b6001600160a01b038116610d01576000604051631e4fbdf760e01b81526004016102cc9190612d0d565b6127f06129fc565b610ccc612a21565b6040516323b872dd60e01b815283906001600160a01b038216906323b872dd90611ca39030908790879060040161334b565b7f237e158222e3e6968b72b9db0d8043aacf074ad9f650f0d1606b4d82ee432c0090565b7f9b779b17422d0df92223018b32b4d1fa46e071723d6817e2486d003becc55f0090565b600061287c61276e565b80546001600160a01b038481166001600160a01b031983168117845560405193945091169182907f8be0079c531659141344cd1fd0a4f28419497f9722a3daafe3b4186f6b6457e090600090a3505050565b6000836001600160a01b03163b116128f85760405162461bcd60e51b81526004016102cc9061339e565b600080846001600160a01b031663095ea7b360e01b8585604051602401612920929190612d21565b60408051601f198184030181529181526020820180516001600160e01b03166001600160e01b031990941693909317909252905161295e919061336f565b6000604051808303816000865af19150503d806000811461299b576040519150601f19603f3d011682016040523d82523d6000602084013e6129a0565b606091505b50915091508180156129ca5750805115806129ca5750808060200190518101906129ca91906130e3565b611f065760405162461bcd60e51b815260206004820152600360248201526229a0a360e91b60448201526064016102cc565b612a04612a29565b610ccc57604051631afcd79f60e31b815260040160405180910390fd5b611f0d6129fc565b6000612a33612792565b54600160401b900460ff16919050565b828054828255906000526020600020908101928215612a98579160200282015b82811115612a9857825182546001600160a01b0319166001600160a01b03909116178255602090920191600190910190612a63565b50612aa4929150612aa8565b5090565b5b80821115612aa45760008155600101612aa9565b6001600160a01b0381168114610d0a57600080fd5b634e487b7160e01b600052604160045260246000fd5b604051608081016001600160401b0381118282101715612b0a57612b0a612ad2565b60405290565b604051606081016001600160401b0381118282101715612b0a57612b0a612ad2565b60405161014081016001600160401b0381118282101715612b0a57612b0a612ad2565b604051601f8201601f191681016001600160401b0381118282101715612b7d57612b7d612ad2565b604052919050565b600080600060608486031215612b9a57600080fd5b8335612ba581612abd565b9250602084810135612bb681612abd565b925060408501356001600160401b0380821115612bd257600080fd5b818701915087601f830112612be657600080fd5b813581811115612bf857612bf8612ad2565b8060051b9150612c09848301612b55565b818152918301840191848101908a841115612c2357600080fd5b938501935b83851015612c4d5784359250612c3d83612abd565b8282529385019390850190612c28565b8096505050505050509250925092565b600060208284031215612c6f57600080fd5b8135610bd381612abd565b600060208284031215612c8c57600080fd5b5035919050565b600080600060608486031215612ca857600080fd5b8335612cb381612abd565b92506020840135612cc381612abd565b929592945050506040919091013590565b60008060408385031215612ce757600080fd5b8235612cf281612abd565b91506020830135612d0281612abd565b809150509250929050565b6001600160a01b0391909116815260200190565b6001600160a01b03929092168252602082015260400190565b60208082526021908201526000805160206133cb8339815191526040820152607960f81b606082015260800190565b60208082526024908201527f536f6c76425443526f7574657256323a20696e76616c6964207461726765745460408201526337b5b2b760e11b606082015260800190565b634e487b7160e01b600052603260045260246000fd5b634e487b7160e01b600052601160045260246000fd5b600060018201612deb57612deb612dc3565b5060010190565b600081518084526020808501945080840160005b83811015612e2b5781516001600160a01b031687529582019590820190600101612e06565b509495945050505050565b602081526000610bd36020830184612df2565b8051612e5481612abd565b919050565b600060808284031215612e6b57600080fd5b612e73612ae8565b90508151612e8081612abd565b81526020820151612e9081612abd565b80602083015250604082015160408201526060820151606082015292915050565b80516001600160401b0381168114612e5457600080fd5b600060608284031215612eda57600080fd5b612ee2612b10565b9050815161ffff81168114612ef657600080fd5b81526020820151612f0681612abd565b6020820152612f1760408301612eb1565b604082015292915050565b600060608284031215612f3457600080fd5b612f3c612b10565b90508151612f4981612abd565b81526020820151612f5981612abd565b60208201526040820151612f1781612abd565b600060a08284031215612f7e57600080fd5b60405160a081016001600160401b0381118282101715612fa057612fa0612ad2565b8060405250809150825181526020830151602082015260408301516040820152612fcc60608401612eb1565b6060820152612fdd60808401612eb1565b60808201525092915050565b80518015158114612e5457600080fd5b60006102a0828403121561300c57600080fd5b613014612b32565b61301e8484612e59565b815261302d8460808501612ec8565b602082015261303f8460e08501612f22565b6040820152613052846101408501612f6c565b60608201526130646101e08401612e49565b60808201526130766102008401612e49565b60a08201526130886102208401612e49565b60c082015261309a6102408401612eb1565b60e08201526130ac6102608401612fe9565b610100820152610280929092015161012083015250919050565b6000602082840312156130d857600080fd5b8151610bd381612abd565b6000602082840312156130f557600080fd5b610bd382612fe9565b60208082526027908201527f536f6c76425443526f7574657256323a2074617267657420746f6b656e206e6f6040820152660e840dac2e8c6d60cb1b606082015260800190565b60006020828403121561315757600080fd5b5051919050565b81810381811115611c6b57611c6b612dc3565b6001600160a01b039390931683526020830191909152604082015260600190565b9283526020830191909152604082015260600190565b80820180821115611c6b57611c6b612dc3565b848152600060208581840152608060408401526131db6080840186612df2565b838103606085015284518082528286019183019060005b8181101561320e578351835292840192918401916001016131f2565b50909998505050505050505050565b60208082526021908201527f536f6c76425443526f7574657256323a20706f6f6c4964206e6f7420666f756e6040820152601960fa1b606082015260800190565b60208082526023908201527f536f6c76425443526f7574657256323a2063757272656e6379206e6f74206d616040820152620e8c6d60eb1b606082015260800190565b60208082526026908201527f536f6c76425443526f7574657256323a2073686172652076616c7565206e6f74604082015265040dac2e8c6d60d31b606082015260800190565b634e487b7160e01b600052603160045260246000fd5b60006080828403121561330f57600080fd5b613317612ae8565b82518152602083015161332981612abd565b6020820152604083810151908201526060928301519281019290925250919050565b6001600160a01b039384168152919092166020820152604081019190915260600190565b6000825160005b818110156133905760208186018101518583015201613376565b506000920191825250919050565b602080825260129082015271696e76616c696420756e6465726c79696e6760701b60408201526060019056fe536f6c76425443526f7574657256323a20696e76616c69642063757272656e63a2646970667358221220df39c36cc629db33654a6f25423fab6fc11401b58a711466464b9732230319c064736f6c63430008140033",
  "devdoc": {
    "errors": {
      "InvalidInitialization()": [
        {
          "details": "The contract is already initialized."
        }
      ],
      "NotInitializing()": [
        {
          "details": "The contract is not initializing."
        }
      ],
      "OwnableInvalidOwner(address)": [
        {
          "details": "The owner is not a valid owner account. (eg. `address(0)`)"
        }
      ],
      "OwnableUnauthorizedAccount(address)": [
        {
          "details": "The caller account is not authorized to perform an operation."
        }
      ],
      "ReentrancyGuardReentrantCall()": [
        {
          "details": "Unauthorized reentrant call."
        }
      ]
    },
    "events": {
      "Initialized(uint64)": {
        "details": "Triggered when the contract has been initialized or reinitialized."
      }
    },
    "kind": "dev",
    "methods": {
      "acceptOwnership()": {
        "details": "The new owner accepts the ownership transfer."
      },
      "constructor": {
        "custom:oz-upgrades-unsafe-allow": "constructor"
      },
      "owner()": {
        "details": "Returns the address of the current owner."
      },
      "pendingOwner()": {
        "details": "Returns the address of the pending owner."
      },
      "renounceOwnership()": {
        "details": "Leaves the contract without owner. It will not be possible to call `onlyOwner` functions. Can only be called by the current owner. NOTE: Renouncing ownership will leave the contract without an owner, thereby disabling any functionality that is only available to the owner."
      },
      "transferOwnership(address)": {
        "details": "Starts the ownership transfer of the contract to a new account. Replaces the pending transfer if there is one. Can only be called by the current owner."
      }
    },
    "version": 1
  },
  "userdoc": {
    "kind": "user",
    "methods": {},
    "version": 1
  },
  "storageLayout": {
    "storage": [
      {
        "astId": 3459,
        "contract": "contracts/SolvBTCRouterV2.sol:SolvBTCRouterV2",
        "label": "openFundMarket",
        "offset": 0,
        "slot": "0",
        "type": "t_address"
      },
      {
        "astId": 3462,
        "contract": "contracts/SolvBTCRouterV2.sol:SolvBTCRouterV2",
        "label": "kycSBTVerifiers",
        "offset": 0,
        "slot": "1",
        "type": "t_array(t_address)dyn_storage"
      },
      {
        "astId": 3469,
        "contract": "contracts/SolvBTCRouterV2.sol:SolvBTCRouterV2",
        "label": "paths",
        "offset": 0,
        "slot": "2",
        "type": "t_mapping(t_address,t_mapping(t_address,t_array(t_address)dyn_storage))"
      },
      {
        "astId": 3475,
        "contract": "contracts/SolvBTCRouterV2.sol:SolvBTCRouterV2",
        "label": "poolIds",
        "offset": 0,
        "slot": "3",
        "type": "t_mapping(t_address,t_mapping(t_address,t_bytes32))"
      },
      {
        "astId": 4581,
        "contract": "contracts/SolvBTCRouterV2.sol:SolvBTCRouterV2",
        "label": "__gap",
        "offset": 0,
        "slot": "4",
        "type": "t_array(t_uint256)46_storage"
      }
    ],
    "types": {
      "t_address": {
        "encoding": "inplace",
        "label": "address",
        "numberOfBytes": "20"
      },
      "t_array(t_address)dyn_storage": {
        "base": "t_address",
        "encoding": "dynamic_array",
        "label": "address[]",
        "numberOfBytes": "32"
      },
      "t_array(t_uint256)46_storage": {
        "base": "t_uint256",
        "encoding": "inplace",
        "label": "uint256[46]",
        "numberOfBytes": "1472"
      },
      "t_bytes32": {
        "encoding": "inplace",
        "label": "bytes32",
        "numberOfBytes": "32"
      },
      "t_mapping(t_address,t_array(t_address)dyn_storage)": {
        "encoding": "mapping",
        "key": "t_address",
        "label": "mapping(address => address[])",
        "numberOfBytes": "32",
        "value": "t_array(t_address)dyn_storage"
      },
      "t_mapping(t_address,t_bytes32)": {
        "encoding": "mapping",
        "key": "t_address",
        "label": "mapping(address => bytes32)",
        "numberOfBytes": "32",
        "value": "t_bytes32"
      },
      "t_mapping(t_address,t_mapping(t_address,t_array(t_address)dyn_storage))": {
        "encoding": "mapping",
        "key": "t_address",
        "label": "mapping(address => mapping(address => address[]))",
        "numberOfBytes": "32",
        "value": "t_mapping(t_address,t_array(t_address)dyn_storage)"
      },
      "t_mapping(t_address,t_mapping(t_address,t_bytes32))": {
        "encoding": "mapping",
        "key": "t_address",
        "label": "mapping(address => mapping(address => bytes32))",
        "numberOfBytes": "32",
        "value": "t_mapping(t_address,t_bytes32)"
      },
      "t_uint256": {
        "encoding": "inplace",
        "label": "uint256",
        "numberOfBytes": "32"
      }
    }
  }
}