{
  "address": "0xA4b6cf2BAaA235ab7Fe10EADB84b82460165B38F",
  "abi": [
    {
      "inputs": [],
      "name": "AccessControlBadConfirmation",
      "type": "error"
    },
    {
      "inputs": [
        {
          "internalType": "address",
          "name": "account",
          "type": "address"
        },
        {
          "internalType": "bytes32",
          "name": "neededRole",
          "type": "bytes32"
        }
      ],
      "name": "AccessControlUnauthorizedAccount",
      "type": "error"
    },
    {
      "inputs": [
        {
          "internalType": "address",
          "name": "account",
          "type": "address"
        }
      ],
      "name": "BlacklistableBlacklistedAccount",
      "type": "error"
    },
    {
      "inputs": [
        {
          "internalType": "address",
          "name": "account",
          "type": "address"
        }
      ],
      "name": "BlacklistableNotManager",
      "type": "error"
    },
    {
      "inputs": [],
      "name": "BlacklistableZeroAddressNotAllowed",
      "type": "error"
    },
    {
      "inputs": [
        {
          "internalType": "address",
          "name": "spender",
          "type": "address"
        },
        {
          "internalType": "uint256",
          "name": "allowance",
          "type": "uint256"
        },
        {
          "internalType": "uint256",
          "name": "needed",
          "type": "uint256"
        }
      ],
      "name": "ERC20InsufficientAllowance",
      "type": "error"
    },
    {
      "inputs": [
        {
          "internalType": "address",
          "name": "sender",
          "type": "address"
        },
        {
          "internalType": "uint256",
          "name": "balance",
          "type": "uint256"
        },
        {
          "internalType": "uint256",
          "name": "needed",
          "type": "uint256"
        }
      ],
      "name": "ERC20InsufficientBalance",
      "type": "error"
    },
    {
      "inputs": [
        {
          "internalType": "address",
          "name": "approver",
          "type": "address"
        }
      ],
      "name": "ERC20InvalidApprover",
      "type": "error"
    },
    {
      "inputs": [
        {
          "internalType": "address",
          "name": "receiver",
          "type": "address"
        }
      ],
      "name": "ERC20InvalidReceiver",
      "type": "error"
    },
    {
      "inputs": [
        {
          "internalType": "address",
          "name": "sender",
          "type": "address"
        }
      ],
      "name": "ERC20InvalidSender",
      "type": "error"
    },
    {
      "inputs": [
        {
          "internalType": "address",
          "name": "spender",
          "type": "address"
        }
      ],
      "name": "ERC20InvalidSpender",
      "type": "error"
    },
    {
      "inputs": [
        {
          "internalType": "address",
          "name": "token",
          "type": "address"
        }
      ],
      "name": "ERC3525NotReceivable",
      "type": "error"
    },
    {
      "inputs": [
        {
          "internalType": "address",
          "name": "token",
          "type": "address"
        }
      ],
      "name": "ERC721NotReceivable",
      "type": "error"
    },
    {
      "inputs": [],
      "name": "InvalidInitialization",
      "type": "error"
    },
    {
      "inputs": [],
      "name": "NotInitializing",
      "type": "error"
    },
    {
      "inputs": [
        {
          "internalType": "address",
          "name": "owner",
          "type": "address"
        }
      ],
      "name": "OwnableInvalidOwner",
      "type": "error"
    },
    {
      "inputs": [
        {
          "internalType": "address",
          "name": "account",
          "type": "address"
        }
      ],
      "name": "OwnableUnauthorizedAccount",
      "type": "error"
    },
    {
      "inputs": [],
      "name": "ReentrancyGuardReentrantCall",
      "type": "error"
    },
    {
      "inputs": [
        {
          "internalType": "address",
          "name": "account",
          "type": "address"
        }
      ],
      "name": "SolvBTCNotBlacklisted",
      "type": "error"
    },
    {
      "inputs": [],
      "name": "SolvBTCZeroValueNotAllowed",
      "type": "error"
    },
    {
      "anonymous": false,
      "inputs": [
        {
          "indexed": true,
          "internalType": "address",
          "name": "owner",
          "type": "address"
        },
        {
          "indexed": true,
          "internalType": "address",
          "name": "spender",
          "type": "address"
        },
        {
          "indexed": false,
          "internalType": "uint256",
          "name": "value",
          "type": "uint256"
        }
      ],
      "name": "Approval",
      "type": "event"
    },
    {
      "anonymous": false,
      "inputs": [
        {
          "indexed": true,
          "internalType": "address",
          "name": "account_",
          "type": "address"
        }
      ],
      "name": "BlacklistAdded",
      "type": "event"
    },
    {
      "anonymous": false,
      "inputs": [
        {
          "indexed": true,
          "internalType": "address",
          "name": "newBlacklistManager",
          "type": "address"
        }
      ],
      "name": "BlacklistManagerChanged",
      "type": "event"
    },
    {
      "anonymous": false,
      "inputs": [
        {
          "indexed": true,
          "internalType": "address",
          "name": "account_",
          "type": "address"
        }
      ],
      "name": "BlacklistRemoved",
      "type": "event"
    },
    {
      "anonymous": false,
      "inputs": [
        {
          "indexed": true,
          "internalType": "address",
          "name": "account",
          "type": "address"
        },
        {
          "indexed": false,
          "internalType": "uint256",
          "name": "amount",
          "type": "uint256"
        }
      ],
      "name": "DestroyBlackFunds",
      "type": "event"
    },
    {
      "anonymous": false,
      "inputs": [
        {
          "indexed": false,
          "internalType": "uint64",
          "name": "version",
          "type": "uint64"
        }
      ],
      "name": "Initialized",
      "type": "event"
    },
    {
      "anonymous": false,
      "inputs": [
        {
          "indexed": true,
          "internalType": "address",
          "name": "previousOwner",
          "type": "address"
        },
        {
          "indexed": true,
          "internalType": "address",
          "name": "newOwner",
          "type": "address"
        }
      ],
      "name": "OwnershipTransferStarted",
      "type": "event"
    },
    {
      "anonymous": false,
      "inputs": [
        {
          "indexed": true,
          "internalType": "address",
          "name": "previousOwner",
          "type": "address"
        },
        {
          "indexed": true,
          "internalType": "address",
          "name": "newOwner",
          "type": "address"
        }
      ],
      "name": "OwnershipTransferred",
      "type": "event"
    },
    {
      "anonymous": false,
      "inputs": [
        {
          "indexed": true,
          "internalType": "bytes32",
          "name": "role",
          "type": "bytes32"
        },
        {
          "indexed": true,
          "internalType": "bytes32",
          "name": "previousAdminRole",
          "type": "bytes32"
        },
        {
          "indexed": true,
          "internalType": "bytes32",
          "name": "newAdminRole",
          "type": "bytes32"
        }
      ],
      "name": "RoleAdminChanged",
      "type": "event"
    },
    {
      "anonymous": false,
      "inputs": [
        {
          "indexed": true,
          "internalType": "bytes32",
          "name": "role",
          "type": "bytes32"
        },
        {
          "indexed": true,
          "internalType": "address",
          "name": "account",
          "type": "address"
        },
        {
          "indexed": true,
          "internalType": "address",
          "name": "sender",
          "type": "address"
        }
      ],
      "name": "RoleGranted",
      "type": "event"
    },
    {
      "anonymous": false,
      "inputs": [
        {
          "indexed": true,
          "internalType": "bytes32",
          "name": "role",
          "type": "bytes32"
        },
        {
          "indexed": true,
          "internalType": "address",
          "name": "account",
          "type": "address"
        },
        {
          "indexed": true,
          "internalType": "address",
          "name": "sender",
          "type": "address"
        }
      ],
      "name": "RoleRevoked",
      "type": "event"
    },
    {
      "anonymous": false,
      "inputs": [
        {
          "indexed": true,
          "internalType": "address",
          "name": "from",
          "type": "address"
        },
        {
          "indexed": true,
          "internalType": "address",
          "name": "to",
          "type": "address"
        },
        {
          "indexed": false,
          "internalType": "uint256",
          "name": "value",
          "type": "uint256"
        }
      ],
      "name": "Transfer",
      "type": "event"
    },
    {
      "inputs": [],
      "name": "DEFAULT_ADMIN_ROLE",
      "outputs": [
        {
          "internalType": "bytes32",
          "name": "",
          "type": "bytes32"
        }
      ],
      "stateMutability": "view",
      "type": "function"
    },
    {
      "inputs": [],
      "name": "SOLVBTC_MINTER_ROLE",
      "outputs": [
        {
          "internalType": "bytes32",
          "name": "",
          "type": "bytes32"
        }
      ],
      "stateMutability": "view",
      "type": "function"
    },
    {
      "inputs": [],
      "name": "SOLVBTC_POOL_BURNER_ROLE",
      "outputs": [
        {
          "internalType": "bytes32",
          "name": "",
          "type": "bytes32"
        }
      ],
      "stateMutability": "view",
      "type": "function"
    },
    {
      "inputs": [],
      "name": "acceptOwnership",
      "outputs": [],
      "stateMutability": "nonpayable",
      "type": "function"
    },
    {
      "inputs": [
        {
          "internalType": "address",
          "name": "account_",
          "type": "address"
        }
      ],
      "name": "addBlacklist",
      "outputs": [],
      "stateMutability": "nonpayable",
      "type": "function"
    },
    {
      "inputs": [
        {
          "internalType": "address[]",
          "name": "accounts_",
          "type": "address[]"
        }
      ],
      "name": "addBlacklistBatch",
      "outputs": [],
      "stateMutability": "nonpayable",
      "type": "function"
    },
    {
      "inputs": [
        {
          "internalType": "address",
          "name": "owner",
          "type": "address"
        },
        {
          "internalType": "address",
          "name": "spender",
          "type": "address"
        }
      ],
      "name": "allowance",
      "outputs": [
        {
          "internalType": "uint256",
          "name": "",
          "type": "uint256"
        }
      ],
      "stateMutability": "view",
      "type": "function"
    },
    {
      "inputs": [
        {
          "internalType": "address",
          "name": "spender",
          "type": "address"
        },
        {
          "internalType": "uint256",
          "name": "value",
          "type": "uint256"
        }
      ],
      "name": "approve",
      "outputs": [
        {
          "internalType": "bool",
          "name": "",
          "type": "bool"
        }
      ],
      "stateMutability": "nonpayable",
      "type": "function"
    },
    {
      "inputs": [
        {
          "internalType": "address",
          "name": "account",
          "type": "address"
        }
      ],
      "name": "balanceOf",
      "outputs": [
        {
          "internalType": "uint256",
          "name": "",
          "type": "uint256"
        }
      ],
      "stateMutability": "view",
      "type": "function"
    },
    {
      "inputs": [],
      "name": "blacklistManager",
      "outputs": [
        {
          "internalType": "address",
          "name": "",
          "type": "address"
        }
      ],
      "stateMutability": "view",
      "type": "function"
    },
    {
      "inputs": [
        {
          "internalType": "uint256",
          "name": "value_",
          "type": "uint256"
        }
      ],
      "name": "burn",
      "outputs": [],
      "stateMutability": "nonpayable",
      "type": "function"
    },
    {
      "inputs": [
        {
          "internalType": "address",
          "name": "account_",
          "type": "address"
        },
        {
          "internalType": "uint256",
          "name": "value_",
          "type": "uint256"
        }
      ],
      "name": "burn",
      "outputs": [],
      "stateMutability": "nonpayable",
      "type": "function"
    },
    {
      "inputs": [],
      "name": "decimals",
      "outputs": [
        {
          "internalType": "uint8",
          "name": "",
          "type": "uint8"
        }
      ],
      "stateMutability": "view",
      "type": "function"
    },
    {
      "inputs": [
        {
          "internalType": "address",
          "name": "account",
          "type": "address"
        },
        {
          "internalType": "uint256",
          "name": "amount",
          "type": "uint256"
        }
      ],
      "name": "destroyBlackFunds",
      "outputs": [],
      "stateMutability": "nonpayable",
      "type": "function"
    },
    {
      "inputs": [
        {
          "internalType": "bytes32",
          "name": "role",
          "type": "bytes32"
        }
      ],
      "name": "getRoleAdmin",
      "outputs": [
        {
          "internalType": "bytes32",
          "name": "",
          "type": "bytes32"
        }
      ],
      "stateMutability": "view",
      "type": "function"
    },
    {
      "inputs": [
        {
          "internalType": "bytes32",
          "name": "role",
          "type": "bytes32"
        },
        {
          "internalType": "address",
          "name": "account",
          "type": "address"
        }
      ],
      "name": "grantRole",
      "outputs": [],
      "stateMutability": "nonpayable",
      "type": "function"
    },
    {
      "inputs": [
        {
          "internalType": "bytes32",
          "name": "role",
          "type": "bytes32"
        },
        {
          "internalType": "address",
          "name": "account",
          "type": "address"
        }
      ],
      "name": "hasRole",
      "outputs": [
        {
          "internalType": "bool",
          "name": "",
          "type": "bool"
        }
      ],
      "stateMutability": "view",
      "type": "function"
    },
    {
      "inputs": [
        {
          "internalType": "string",
          "name": "name_",
          "type": "string"
        },
        {
          "internalType": "string",
          "name": "symbol_",
          "type": "string"
        },
        {
          "internalType": "address",
          "name": "owner_",
          "type": "address"
        }
      ],
      "name": "initialize",
      "outputs": [],
      "stateMutability": "nonpayable",
      "type": "function"
    },
    {
      "inputs": [
        {
          "internalType": "address",
          "name": "account_",
          "type": "address"
        }
      ],
      "name": "isBlacklisted",
      "outputs": [
        {
          "internalType": "bool",
          "name": "",
          "type": "bool"
        }
      ],
      "stateMutability": "view",
      "type": "function"
    },
    {
      "inputs": [
        {
          "internalType": "address",
          "name": "account_",
          "type": "address"
        },
        {
          "internalType": "uint256",
          "name": "value_",
          "type": "uint256"
        }
      ],
      "name": "mint",
      "outputs": [],
      "stateMutability": "nonpayable",
      "type": "function"
    },
    {
      "inputs": [],
      "name": "name",
      "outputs": [
        {
          "internalType": "string",
          "name": "",
          "type": "string"
        }
      ],
      "stateMutability": "view",
      "type": "function"
    },
    {
      "inputs": [
        {
          "internalType": "address",
          "name": "",
          "type": "address"
        },
        {
          "internalType": "uint256",
          "name": "",
          "type": "uint256"
        },
        {
          "internalType": "uint256",
          "name": "",
          "type": "uint256"
        },
        {
          "internalType": "uint256",
          "name": "",
          "type": "uint256"
        },
        {
          "internalType": "bytes",
          "name": "",
          "type": "bytes"
        }
      ],
      "name": "onERC3525Received",
      "outputs": [
        {
          "internalType": "bytes4",
          "name": "",
          "type": "bytes4"
        }
      ],
      "stateMutability": "nonpayable",
      "type": "function"
    },
    {
      "inputs": [
        {
          "internalType": "address",
          "name": "",
          "type": "address"
        },
        {
          "internalType": "address",
          "name": "",
          "type": "address"
        },
        {
          "internalType": "uint256",
          "name": "",
          "type": "uint256"
        },
        {
          "internalType": "bytes",
          "name": "",
          "type": "bytes"
        }
      ],
      "name": "onERC721Received",
      "outputs": [
        {
          "internalType": "bytes4",
          "name": "",
          "type": "bytes4"
        }
      ],
      "stateMutability": "nonpayable",
      "type": "function"
    },
    {
      "inputs": [],
      "name": "owner",
      "outputs": [
        {
          "internalType": "address",
          "name": "",
          "type": "address"
        }
      ],
      "stateMutability": "view",
      "type": "function"
    },
    {
      "inputs": [],
      "name": "pendingOwner",
      "outputs": [
        {
          "internalType": "address",
          "name": "",
          "type": "address"
        }
      ],
      "stateMutability": "view",
      "type": "function"
    },
    {
      "inputs": [
        {
          "internalType": "address",
          "name": "account_",
          "type": "address"
        }
      ],
      "name": "removeBlacklist",
      "outputs": [],
      "stateMutability": "nonpayable",
      "type": "function"
    },
    {
      "inputs": [
        {
          "internalType": "address[]",
          "name": "accounts_",
          "type": "address[]"
        }
      ],
      "name": "removeBlacklistBatch",
      "outputs": [],
      "stateMutability": "nonpayable",
      "type": "function"
    },
    {
      "inputs": [],
      "name": "renounceOwnership",
      "outputs": [],
      "stateMutability": "nonpayable",
      "type": "function"
    },
    {
      "inputs": [
        {
          "internalType": "bytes32",
          "name": "role",
          "type": "bytes32"
        },
        {
          "internalType": "address",
          "name": "callerConfirmation",
          "type": "address"
        }
      ],
      "name": "renounceRole",
      "outputs": [],
      "stateMutability": "nonpayable",
      "type": "function"
    },
    {
      "inputs": [
        {
          "internalType": "bytes32",
          "name": "role",
          "type": "bytes32"
        },
        {
          "internalType": "address",
          "name": "account",
          "type": "address"
        }
      ],
      "name": "revokeRole",
      "outputs": [],
      "stateMutability": "nonpayable",
      "type": "function"
    },
    {
      "inputs": [
        {
          "internalType": "bytes4",
          "name": "interfaceId",
          "type": "bytes4"
        }
      ],
      "name": "supportsInterface",
      "outputs": [
        {
          "internalType": "bool",
          "name": "",
          "type": "bool"
        }
      ],
      "stateMutability": "view",
      "type": "function"
    },
    {
      "inputs": [],
      "name": "symbol",
      "outputs": [
        {
          "internalType": "string",
          "name": "",
          "type": "string"
        }
      ],
      "stateMutability": "view",
      "type": "function"
    },
    {
      "inputs": [],
      "name": "totalSupply",
      "outputs": [
        {
          "internalType": "uint256",
          "name": "",
          "type": "uint256"
        }
      ],
      "stateMutability": "view",
      "type": "function"
    },
    {
      "inputs": [
        {
          "internalType": "address",
          "name": "to",
          "type": "address"
        },
        {
          "internalType": "uint256",
          "name": "value",
          "type": "uint256"
        }
      ],
      "name": "transfer",
      "outputs": [
        {
          "internalType": "bool",
          "name": "",
          "type": "bool"
        }
      ],
      "stateMutability": "nonpayable",
      "type": "function"
    },
    {
      "inputs": [
        {
          "internalType": "address",
          "name": "from",
          "type": "address"
        },
        {
          "internalType": "address",
          "name": "to",
          "type": "address"
        },
        {
          "internalType": "uint256",
          "name": "value",
          "type": "uint256"
        }
      ],
      "name": "transferFrom",
      "outputs": [
        {
          "internalType": "bool",
          "name": "",
          "type": "bool"
        }
      ],
      "stateMutability": "nonpayable",
      "type": "function"
    },
    {
      "inputs": [
        {
          "internalType": "address",
          "name": "newOwner",
          "type": "address"
        }
      ],
      "name": "transferOwnership",
      "outputs": [],
      "stateMutability": "nonpayable",
      "type": "function"
    },
    {
      "inputs": [
        {
          "internalType": "address",
          "name": "newBlacklistManager_",
          "type": "address"
        }
      ],
      "name": "updateBlacklistManager",
      "outputs": [],
      "stateMutability": "nonpayable",
      "type": "function"
    }
  ],
  "transactionHash": "0x48b756485aa33be8fdd74e1f31e3d8a61bac4dc830fd167534122eb1563f0c39",
  "args": [],
  "numDeployments": 1,
  "solcInputHash": "74d9560a102aca486df82e97589fd0d1",
  "bytecode": "0x608060405234801561001057600080fd5b5061001961001e565b6100d0565b7ff0c57e16840df040f15088dc2f81fe391c3923bec73e23a9662efc9c229c6a00805468010000000000000000900460ff161561006e5760405163f92ee8a960e01b815260040160405180910390fd5b80546001600160401b03908116146100cd5780546001600160401b0319166001600160401b0390811782556040519081527fc7f505b2f371ae2175ee4913f4499e1f2633a7b5936321eed1cdaeb6115181d29060200160405180910390a15b50565b611ce9806100df6000396000f3fe608060405234801561001057600080fd5b50600436106101b65760003560e01c80629ce20b146101bb57806301ffc9a7146101ec57806306fdde031461020f578063077f224a14610224578063095ea7b314610239578063150b7a021461024c57806318160ddd1461025f57806323b872dd14610275578063248a9ca3146102885780632f2ff15d1461029b578063313ce567146102ae57806336568abe146102bd57806338b20518146102d057806340c10f19146102e357806342966c68146102f657806353d51e641461030957806370a082311461031c578063715018a61461032f57806379ba5097146103375780638da5cb5b1461033f57806391d148541461035457806395d89b411461036757806396c495971461036f5780639999416f146103775780639cfe42da1461038a5780639dc29fac1461039d578063a217fddf146103b0578063a49630b2146103b8578063a9059cbb146103c0578063d547741f146103d3578063d9dbf657146103e6578063dd62ed3e146103ee578063e30c397814610401578063eb91e65114610409578063ef2af9221461041c578063f2fde38b1461042f578063fe575a8714610442575b600080fd5b6101ce6101c93660046116f9565b610455565b6040516001600160e01b031990911681526020015b60405180910390f35b6101ff6101fa366004611769565b61047b565b60405190151581526020016101e3565b6102176104c0565b6040516101e3919061179a565b61023761023236600461188a565b610561565b005b6101ff6102473660046118fd565b61067a565b6101ce61025a366004611927565b610692565b6102676106af565b6040519081526020016101e3565b6101ff610283366004611995565b6106c4565b6102676102963660046119d1565b6106e8565b6102376102a93660046119ea565b610708565b604051601281526020016101e3565b6102376102cb3660046119ea565b61072a565b6102376102de366004611a16565b610762565b6102376102f13660046118fd565b6107ec565b6102376103043660046119d1565b61085a565b6102376103173660046118fd565b6108c7565b61026761032a366004611a16565b61094a565b610237610975565b610237610989565b6103476109c5565b6040516101e39190611a31565b6101ff6103623660046119ea565b6109e0565b610217610a16565b610267610a33565b610237610385366004611a45565b610a5b565b610237610398366004611a16565b610ad7565b6102376103ab3660046118fd565b610b1a565b610267600081565b610267610b7b565b6101ff6103ce3660046118fd565b610b8a565b6102376103e13660046119ea565b610b98565b610347610bb4565b6102676103fc366004611ab9565b610bd2565b610347610c0e565b610237610417366004611a16565b610c19565b61023761042a366004611a45565b610c5c565b61023761043d366004611a16565b610cd8565b6101ff610450366004611a16565b610d49565b60003360405163578f385f60e11b81526004016104729190611a31565b60405180910390fd5b60006001600160e01b03198216629ce20b60e01b14806104ab57506001600160e01b03198216630a85bd0160e11b145b806104ba57506104ba82610d77565b92915050565b606060006104cc610dac565b90508060030180546104dd90611ae3565b80601f016020809104026020016040519081016040528092919081815260200182805461050990611ae3565b80156105565780601f1061052b57610100808354040283529160200191610556565b820191906000526020600020905b81548152906001019060200180831161053957829003601f168201915b505050505091505090565b600061056b610dd0565b805490915060ff600160401b82041615906001600160401b03166000811580156105925750825b90506000826001600160401b031660011480156105ae5750303b155b9050811580156105bc575080155b156105da5760405163f92ee8a960e01b815260040160405180910390fd5b84546001600160401b0319166001178555831561060357845460ff60401b1916600160401b1785555b61060d8888610df4565b610615610e06565b61061e86610e16565b610629600087610e39565b50831561067057845460ff60401b19168555604051600181527fc7f505b2f371ae2175ee4913f4499e1f2633a7b5936321eed1cdaeb6115181d29060200160405180910390a15b5050505050505050565b600033610688818585610eda565b5060019392505050565b600033604051637992d8e360e11b81526004016104729190611a31565b6000806106ba610dac565b6002015492915050565b6000336106d2858285610ee7565b6106dd858585610f34565b506001949350505050565b6000806106f3610f93565b60009384526020525050604090206001015490565b610711826106e8565b61071a81610fb7565b6107248383610e39565b50505050565b6001600160a01b03811633146107535760405163334bd91960e11b815260040160405180910390fd5b61075d8282610fc1565b505050565b61076a611039565b6001600160a01b038116610791576040516349fe757360e01b815260040160405180910390fd5b600061079b61106b565b6001810180546001600160a01b0319166001600160a01b038516908117909155604051919250907f5baec8c712a7efe1ef755579f2a5b46fe2ffb57d5d216b746e7130605ee9e97690600090a25050565b6107f461108f565b60405160200161080390611b1d565b6040516020818303038152906040528051906020012061082281610fb7565b816000036108435760405163015a4ac960e51b815260040160405180910390fd5b61084d83836110c5565b506108566110fb565b5050565b61086261108f565b60405160200161087190611b1d565b6040516020818303038152906040528051906020012061089081610fb7565b816000036108b15760405163015a4ac960e51b815260040160405180910390fd5b6108bb338361110c565b506108c46110fb565b50565b6108cf611039565b6108d882610d49565b6108f7578160405163451aa33d60e01b81526004016104729190611a31565b61090382600083611142565b816001600160a01b03167f11d33c4bdbad6892d3d8fe9b29fca9d1701c823ddea540b942b102366a4a47e28260405161093e91815260200190565b60405180910390a25050565b600080610955610dac565b6001600160a01b0390931660009081526020939093525050604090205490565b61097d611039565b6109876000610e16565b565b3380610993610c0e565b6001600160a01b0316146109bc578060405163118cdaa760e01b81526004016104729190611a31565b6108c481610e16565b6000806109d061126a565b546001600160a01b031692915050565b6000806109eb610f93565b6000948552602090815260408086206001600160a01b03959095168652939052505090205460ff1690565b60606000610a22610dac565b90508060040180546104dd90611ae3565b604051602001610a4290611b1d565b6040516020818303038152906040528051906020012081565b610a63610bb4565b6001600160a01b0316336001600160a01b031614610a955733604051626c2eb760e01b81526004016104729190611a31565b60005b8181101561075d57610acf838383818110610ab557610ab5611b37565b9050602002016020810190610aca9190611a16565b61128e565b600101610a98565b610adf610bb4565b6001600160a01b0316336001600160a01b031614610b115733604051626c2eb760e01b81526004016104729190611a31565b6108c48161128e565b610b2261108f565b604051602001610b3190611b4d565b60405160208183030381529060405280519060200120610b5081610fb7565b81600003610b715760405163015a4ac960e51b815260040160405180910390fd5b61084d838361110c565b604051602001610a4290611b4d565b600033610688818585610f34565b610ba1826106e8565b610baa81610fb7565b6107248383610fc1565b600080610bbf61106b565b600101546001600160a01b031692915050565b600080610bdd610dac565b6001600160a01b03948516600090815260019190910160209081526040808320959096168252939093525050205490565b6000806109d0611311565b610c21610bb4565b6001600160a01b0316336001600160a01b031614610c535733604051626c2eb760e01b81526004016104729190611a31565b6108c481611335565b610c64610bb4565b6001600160a01b0316336001600160a01b031614610c965733604051626c2eb760e01b81526004016104729190611a31565b60005b8181101561075d57610cd0838383818110610cb657610cb6611b37565b9050602002016020810190610ccb9190611a16565b611335565b600101610c99565b610ce0611039565b6000610cea611311565b80546001600160a01b0319166001600160a01b0384169081178255909150610d106109c5565b6001600160a01b03167f38d16b8cac22d99fc7c124b9cd0de2d3fa1faef420bfe791d8c362d765e2270060405160405180910390a35050565b600080610d5461106b565b6001600160a01b0390931660009081526020939093525050604090205460ff1690565b60006001600160e01b03198216637965db0b60e01b14806104ba57506301ffc9a760e01b6001600160e01b03198316146104ba565b7f52c63247e1f47db19d5ce0460030c497f067ca4cebf71ba98eeadabe20bace0090565b7ff0c57e16840df040f15088dc2f81fe391c3923bec73e23a9662efc9c229c6a0090565b610dfc61138e565b61085682826113b3565b610e0e61138e565b6109876113e4565b6000610e20611311565b80546001600160a01b03191681559050610856826113ec565b600080610e44610f93565b9050610e5084846109e0565b610ed0576000848152602082815260408083206001600160a01b03871684529091529020805460ff19166001179055610e863390565b6001600160a01b0316836001600160a01b0316857f2f8788117e7eff1d82e926ec794901d17c78024a50270940304540a733656f0d60405160405180910390a460019150506104ba565b60009150506104ba565b61075d8383836001611448565b6000610ef38484610bd2565b905060001981146107245781811015610f2557828183604051637dc7a0d960e11b815260040161047293929190611b6c565b61072484848484036000611448565b6001600160a01b038316610f5e576000604051634b637e8f60e11b81526004016104729190611a31565b6001600160a01b038216610f8857600060405163ec442f0560e01b81526004016104729190611a31565b61075d8383836114b0565b7f02dd7bc7dec4dceedda775e58dd541e08a116c6c53815c0bd028192f7b62680090565b6108c48133611539565b600080610fcc610f93565b9050610fd884846109e0565b15610ed0576000848152602082815260408083206001600160a01b0387168085529252808320805460ff1916905551339287917ff6391f5c32d9c69d2a47ea670b442974b53935d1edc7fd64eb21e047a839171b9190a460019150506104ba565b336110426109c5565b6001600160a01b031614610987573360405163118cdaa760e01b81526004016104729190611a31565b7f37055a6a5ad221b3685065a6f80bdaf8b5de26b2f60e82c3fbc16e3374b00c0090565b6000611099611572565b8054909150600119016110bf57604051633ee5aeb560e01b815260040160405180910390fd5b60029055565b6001600160a01b0382166110ef57600060405163ec442f0560e01b81526004016104729190611a31565b610856600083836114b0565b6000611105611572565b6001905550565b6001600160a01b038216611136576000604051634b637e8f60e11b81526004016104729190611a31565b610856826000836114b0565b600061114c610dac565b90506001600160a01b03841661117b57818160020160008282546111709190611b8d565b909155506111da9050565b6001600160a01b038416600090815260208290526040902054828110156111bb5784818460405163391434e360e21b815260040161047293929190611b6c565b6001600160a01b03851660009081526020839052604090209083900390555b6001600160a01b0383166111f8576002810180548390039055611217565b6001600160a01b03831660009081526020829052604090208054830190555b826001600160a01b0316846001600160a01b03167fddf252ad1be2c89b69c2b068fc378daa952ba7f163c4a11628f55a4df523b3ef8460405161125c91815260200190565b60405180910390a350505050565b7f9016d09d72d40fdae2fd8ceac6b6234c7706214fd39c1cd1e609a0528c19930090565b6001600160a01b0381166112b5576040516349fe757360e01b815260040160405180910390fd5b60006112bf61106b565b6001600160a01b038316600081815260208390526040808220805460ff191660011790555192935090917f44d5fe68b00f68950fb9c1ff0a61ef7f747b1a36359a7e3a7f3324db4b8789679190a25050565b7f237e158222e3e6968b72b9db0d8043aacf074ad9f650f0d1606b4d82ee432c0090565b600061133f61106b565b6001600160a01b038316600081815260208390526040808220805460ff191690555192935090917f1747ca720b1a174a464b6513ace29b1d3190b5f632b9f34147017c81425bfde89190a25050565b611396611596565b61098757604051631afcd79f60e31b815260040160405180910390fd5b6113bb61138e565b60006113c5610dac565b9050600381016113d58482611bf4565b50600481016107248382611bf4565b6110fb61138e565b60006113f661126a565b80546001600160a01b038481166001600160a01b031983168117845560405193945091169182907f8be0079c531659141344cd1fd0a4f28419497f9722a3daafe3b4186f6b6457e090600090a3505050565b8261145281610d49565b15611472578060405163bb70159d60e01b81526004016104729190611a31565b8461147c81610d49565b1561149c578060405163bb70159d60e01b81526004016104729190611a31565b6114a8868686866115b0565b505050505050565b826114ba81610d49565b156114da578060405163bb70159d60e01b81526004016104729190611a31565b826114e481610d49565b15611504578060405163bb70159d60e01b81526004016104729190611a31565b3361150e81610d49565b1561152e578060405163bb70159d60e01b81526004016104729190611a31565b6114a8868686611142565b61154382826109e0565b6108565760405163e2517d3f60e01b81526001600160a01b038216600482015260248101839052604401610472565b7f9b779b17422d0df92223018b32b4d1fa46e071723d6817e2486d003becc55f0090565b60006115a0610dd0565b54600160401b900460ff16919050565b60006115ba610dac565b90506001600160a01b0385166115e657600060405163e602df0560e01b81526004016104729190611a31565b6001600160a01b038416611610576000604051634a1406b160e11b81526004016104729190611a31565b6001600160a01b0380861660009081526001830160209081526040808320938816835292905220839055811561168e57836001600160a01b0316856001600160a01b03167f8c5be1e5ebec7d5bd14f71427d1e84f3dd0314c0f7b2291e5b200ac8c7c3b9258560405161168591815260200190565b60405180910390a35b5050505050565b80356001600160a01b03811681146116ac57600080fd5b919050565b60008083601f8401126116c357600080fd5b5081356001600160401b038111156116da57600080fd5b6020830191508360208285010111156116f257600080fd5b9250929050565b60008060008060008060a0878903121561171257600080fd5b61171b87611695565b955060208701359450604087013593506060870135925060808701356001600160401b0381111561174b57600080fd5b61175789828a016116b1565b979a9699509497509295939492505050565b60006020828403121561177b57600080fd5b81356001600160e01b03198116811461179357600080fd5b9392505050565b600060208083528351808285015260005b818110156117c7578581018301518582016040015282016117ab565b506000604082860101526040601f19601f8301168501019250505092915050565b634e487b7160e01b600052604160045260246000fd5b600082601f83011261180f57600080fd5b81356001600160401b0380821115611829576118296117e8565b604051601f8301601f19908116603f01168101908282118183101715611851576118516117e8565b8160405283815286602085880101111561186a57600080fd5b836020870160208301376000602085830101528094505050505092915050565b60008060006060848603121561189f57600080fd5b83356001600160401b03808211156118b657600080fd5b6118c2878388016117fe565b945060208601359150808211156118d857600080fd5b506118e5868287016117fe565b9250506118f460408501611695565b90509250925092565b6000806040838503121561191057600080fd5b61191983611695565b946020939093013593505050565b60008060008060006080868803121561193f57600080fd5b61194886611695565b945061195660208701611695565b93506040860135925060608601356001600160401b0381111561197857600080fd5b611984888289016116b1565b969995985093965092949392505050565b6000806000606084860312156119aa57600080fd5b6119b384611695565b92506119c160208501611695565b9150604084013590509250925092565b6000602082840312156119e357600080fd5b5035919050565b600080604083850312156119fd57600080fd5b82359150611a0d60208401611695565b90509250929050565b600060208284031215611a2857600080fd5b61179382611695565b6001600160a01b0391909116815260200190565b60008060208385031215611a5857600080fd5b82356001600160401b0380821115611a6f57600080fd5b818501915085601f830112611a8357600080fd5b813581811115611a9257600080fd5b8660208260051b8501011115611aa757600080fd5b60209290920196919550909350505050565b60008060408385031215611acc57600080fd5b611ad583611695565b9150611a0d60208401611695565b600181811c90821680611af757607f821691505b602082108103611b1757634e487b7160e01b600052602260045260246000fd5b50919050565b6d29a7a62b212a21afa6a4a72a22a960911b8152600e0190565b634e487b7160e01b600052603260045260246000fd5b7229a7a62b212a21afa827a7a62fa12aa92722a960691b815260130190565b6001600160a01b039390931683526020830191909152604082015260600190565b808201808211156104ba57634e487b7160e01b600052601160045260246000fd5b601f82111561075d57600081815260208120601f850160051c81016020861015611bd55750805b601f850160051c820191505b818110156114a857828155600101611be1565b81516001600160401b03811115611c0d57611c0d6117e8565b611c2181611c1b8454611ae3565b84611bae565b602080601f831160018114611c565760008415611c3e5750858301515b600019600386901b1c1916600185901b1785556114a8565b600085815260208120601f198616915b82811015611c8557888601518255948401946001909101908401611c66565b5085821015611ca35787850151600019600388901b60f8161c191681555b5050505050600190811b0190555056fea26469706673582212206adf7147577cf47061b7da4331db08a8892ceb141654f55e615df76fcd55d5a564736f6c63430008140033",
  "devdoc": {
    "custom:security-contact": "dev@solv.finance",
    "errors": {
      "AccessControlBadConfirmation()": [
        {
          "details": "The caller of a function is not the expected one. NOTE: Don't confuse with {AccessControlUnauthorizedAccount}."
        }
      ],
      "AccessControlUnauthorizedAccount(address,bytes32)": [
        {
          "details": "The `account` is missing a role."
        }
      ],
      "BlacklistableBlacklistedAccount(address)": [
        {
          "details": "Account is blacklisted."
        }
      ],
      "BlacklistableNotManager(address)": [
        {
          "details": "Operates by non blacklist manager."
        }
      ],
      "BlacklistableZeroAddressNotAllowed()": [
        {
          "details": "Zero address is not allowed."
        }
      ],
      "ERC20InsufficientAllowance(address,uint256,uint256)": [
        {
          "details": "Indicates a failure with the `spender`s `allowance`. Used in transfers.",
          "params": {
            "allowance": "Amount of tokens a `spender` is allowed to operate with.",
            "needed": "Minimum amount required to perform a transfer.",
            "spender": "Address that may be allowed to operate on tokens without being their owner."
          }
        }
      ],
      "ERC20InsufficientBalance(address,uint256,uint256)": [
        {
          "details": "Indicates an error related to the current `balance` of a `sender`. Used in transfers.",
          "params": {
            "balance": "Current balance for the interacting account.",
            "needed": "Minimum amount required to perform a transfer.",
            "sender": "Address whose tokens are being transferred."
          }
        }
      ],
      "ERC20InvalidApprover(address)": [
        {
          "details": "Indicates a failure with the `approver` of a token to be approved. Used in approvals.",
          "params": {
            "approver": "Address initiating an approval operation."
          }
        }
      ],
      "ERC20InvalidReceiver(address)": [
        {
          "details": "Indicates a failure with the token `receiver`. Used in transfers.",
          "params": {
            "receiver": "Address to which tokens are being transferred."
          }
        }
      ],
      "ERC20InvalidSender(address)": [
        {
          "details": "Indicates a failure with the token `sender`. Used in transfers.",
          "params": {
            "sender": "Address whose tokens are being transferred."
          }
        }
      ],
      "ERC20InvalidSpender(address)": [
        {
          "details": "Indicates a failure with the `spender` to be approved. Used in approvals.",
          "params": {
            "spender": "Address that may be allowed to operate on tokens without being their owner."
          }
        }
      ],
      "InvalidInitialization()": [
        {
          "details": "The contract is already initialized."
        }
      ],
      "NotInitializing()": [
        {
          "details": "The contract is not initializing."
        }
      ],
      "OwnableInvalidOwner(address)": [
        {
          "details": "The owner is not a valid owner account. (eg. `address(0)`)"
        }
      ],
      "OwnableUnauthorizedAccount(address)": [
        {
          "details": "The caller account is not authorized to perform an operation."
        }
      ],
      "ReentrancyGuardReentrantCall()": [
        {
          "details": "Unauthorized reentrant call."
        }
      ],
      "SolvBTCNotBlacklisted(address)": [
        {
          "details": "Account is not blacklisted."
        }
      ],
      "SolvBTCZeroValueNotAllowed()": [
        {
          "details": "Mint or burn zero value is not allowed."
        }
      ]
    },
    "events": {
      "Approval(address,address,uint256)": {
        "details": "Emitted when the allowance of a `spender` for an `owner` is set by a call to {approve}. `value` is the new allowance."
      },
      "Initialized(uint64)": {
        "details": "Triggered when the contract has been initialized or reinitialized."
      },
      "RoleAdminChanged(bytes32,bytes32,bytes32)": {
        "details": "Emitted when `newAdminRole` is set as ``role``'s admin role, replacing `previousAdminRole` `DEFAULT_ADMIN_ROLE` is the starting admin for all roles, despite {RoleAdminChanged} not being emitted signaling this."
      },
      "RoleGranted(bytes32,address,address)": {
        "details": "Emitted when `account` is granted `role`. `sender` is the account that originated the contract call, an admin role bearer except when using {AccessControl-_setupRole}."
      },
      "RoleRevoked(bytes32,address,address)": {
        "details": "Emitted when `account` is revoked `role`. `sender` is the account that originated the contract call:   - if using `revokeRole`, it is the admin role bearer   - if using `renounceRole`, it is the role bearer (i.e. `account`)"
      },
      "Transfer(address,address,uint256)": {
        "details": "Emitted when `value` tokens are moved from one account (`from`) to another (`to`). Note that `value` may be zero."
      }
    },
    "kind": "dev",
    "methods": {
      "acceptOwnership()": {
        "details": "The new owner accepts the ownership transfer."
      },
      "addBlacklist(address)": {
        "params": {
          "account_": "The address to blacklist."
        }
      },
      "addBlacklistBatch(address[])": {
        "params": {
          "accounts_": "The addresses to blacklist."
        }
      },
      "allowance(address,address)": {
        "details": "See {IERC20-allowance}."
      },
      "approve(address,uint256)": {
        "details": "See {IERC20-approve}. NOTE: If `value` is the maximum `uint256`, the allowance is not updated on `transferFrom`. This is semantically equivalent to an infinite approval. Requirements: - `spender` cannot be the zero address."
      },
      "balanceOf(address)": {
        "details": "See {IERC20-balanceOf}."
      },
      "decimals()": {
        "details": "Returns the number of decimals used to get its user representation. For example, if `decimals` equals `2`, a balance of `505` tokens should be displayed to a user as `5.05` (`505 / 10 ** 2`). Tokens usually opt for a value of 18, imitating the relationship between Ether and Wei. This is the default value returned by this function, unless it's overridden. NOTE: This information is only used for _display_ purposes: it in no way affects any of the arithmetic of the contract, including {IERC20-balanceOf} and {IERC20-transfer}."
      },
      "getRoleAdmin(bytes32)": {
        "details": "Returns the admin role that controls `role`. See {grantRole} and {revokeRole}. To change a role's admin, use {_setRoleAdmin}."
      },
      "grantRole(bytes32,address)": {
        "details": "Grants `role` to `account`. If `account` had not been already granted `role`, emits a {RoleGranted} event. Requirements: - the caller must have ``role``'s admin role. May emit a {RoleGranted} event."
      },
      "hasRole(bytes32,address)": {
        "details": "Returns `true` if `account` has been granted `role`."
      },
      "isBlacklisted(address)": {
        "params": {
          "account_": "The address to check."
        },
        "returns": {
          "_0": "True if the account is blacklisted, false if the account is not blacklisted."
        }
      },
      "name()": {
        "details": "Returns the name of the token."
      },
      "onERC3525Received(address,uint256,uint256,uint256,bytes)": {
        "details": "Deprecated function inherited from SolvBTC V2, since the values of deprecated variables have been cleared, this function would be deleted from V2.1."
      },
      "owner()": {
        "details": "Returns the address of the current owner."
      },
      "pendingOwner()": {
        "details": "Returns the address of the pending owner."
      },
      "removeBlacklist(address)": {
        "params": {
          "account_": "The address to remove from the blacklist."
        }
      },
      "removeBlacklistBatch(address[])": {
        "params": {
          "accounts_": "The addresses to remove from the blacklist."
        }
      },
      "renounceOwnership()": {
        "details": "Leaves the contract without owner. It will not be possible to call `onlyOwner` functions. Can only be called by the current owner. NOTE: Renouncing ownership will leave the contract without an owner, thereby disabling any functionality that is only available to the owner."
      },
      "renounceRole(bytes32,address)": {
        "details": "Revokes `role` from the calling account. Roles are often managed via {grantRole} and {revokeRole}: this function's purpose is to provide a mechanism for accounts to lose their privileges if they are compromised (such as when a trusted device is misplaced). If the calling account had been revoked `role`, emits a {RoleRevoked} event. Requirements: - the caller must be `callerConfirmation`. May emit a {RoleRevoked} event."
      },
      "revokeRole(bytes32,address)": {
        "details": "Revokes `role` from `account`. If `account` had been granted `role`, emits a {RoleRevoked} event. Requirements: - the caller must have ``role``'s admin role. May emit a {RoleRevoked} event."
      },
      "symbol()": {
        "details": "Returns the symbol of the token, usually a shorter version of the name."
      },
      "totalSupply()": {
        "details": "See {IERC20-totalSupply}."
      },
      "transfer(address,uint256)": {
        "details": "See {IERC20-transfer}. Requirements: - `to` cannot be the zero address. - the caller must have a balance of at least `value`."
      },
      "transferFrom(address,address,uint256)": {
        "details": "See {IERC20-transferFrom}. Emits an {Approval} event indicating the updated allowance. This is not required by the EIP. See the note at the beginning of {ERC20}. NOTE: Does not update the allowance if the current allowance is the maximum `uint256`. Requirements: - `from` and `to` cannot be the zero address. - `from` must have a balance of at least `value`. - the caller must have allowance for ``from``'s tokens of at least `value`."
      },
      "transferOwnership(address)": {
        "details": "Starts the ownership transfer of the contract to a new account. Replaces the pending transfer if there is one. Can only be called by the current owner."
      },
      "updateBlacklistManager(address)": {
        "params": {
          "newBlacklistManager_": "The address of the new blacklist manager."
        }
      }
    },
    "title": "Implementation for SolvBTC V3, which is inherited from SolvBTC V2.1 and expanded with  blacklist functionality.",
    "version": 1
  },
  "userdoc": {
    "events": {
      "DestroyBlackFunds(address,uint256)": {
        "notice": "Emitted when black funds are destroyed."
      }
    },
    "kind": "user",
    "methods": {
      "SOLVBTC_MINTER_ROLE()": {
        "notice": "`SOLVBTC_MINTER` role is allowed to mint SolvBTC tokens, as well as to burn SolvBTC tokens held by itself."
      },
      "SOLVBTC_POOL_BURNER_ROLE()": {
        "notice": "`SOLVBTC_POOL_BURNER` role is allowed to burn SolvBTC tokens from other accounts only when necessary."
      },
      "addBlacklist(address)": {
        "notice": "Adds account to blacklist."
      },
      "addBlacklistBatch(address[])": {
        "notice": "Adds multiple accounts to the blacklist."
      },
      "blacklistManager()": {
        "notice": "Get the address of the blacklist manager."
      },
      "destroyBlackFunds(address,uint256)": {
        "notice": "Destroys black funds from the specified blacklist account."
      },
      "isBlacklisted(address)": {
        "notice": "Checks if account is blacklisted."
      },
      "removeBlacklist(address)": {
        "notice": "Removes account from blacklist."
      },
      "removeBlacklistBatch(address[])": {
        "notice": "Removes multiple accounts from the blacklist."
      },
      "updateBlacklistManager(address)": {
        "notice": "Updates the blacklist manager address."
      }
    },
    "version": 1
  },
  "storageLayout": {
    "storage": [],
    "types": null
  }
}