{
  "address": "0x245cE83a63bb35855eb4555Bb9953D91c8017fC4",
  "abi": [
    {
      "inputs": [],
      "stateMutability": "nonpayable",
      "type": "constructor"
    },
    {
      "inputs": [],
      "name": "InvalidInitialization",
      "type": "error"
    },
    {
      "inputs": [],
      "name": "NotInitializing",
      "type": "error"
    },
    {
      "inputs": [
        {
          "internalType": "address",
          "name": "owner",
          "type": "address"
        }
      ],
      "name": "OwnableInvalidOwner",
      "type": "error"
    },
    {
      "inputs": [
        {
          "internalType": "address",
          "name": "account",
          "type": "address"
        }
      ],
      "name": "OwnableUnauthorizedAccount",
      "type": "error"
    },
    {
      "inputs": [],
      "name": "ReentrancyGuardReentrantCall",
      "type": "error"
    },
    {
      "anonymous": false,
      "inputs": [
        {
          "indexed": true,
          "internalType": "address",
          "name": "verifier",
          "type": "address"
        }
      ],
      "name": "AddKycSBTVerifier",
      "type": "event"
    },
    {
      "anonymous": false,
      "inputs": [
        {
          "indexed": true,
          "internalType": "address",
          "name": "targetToken",
          "type": "address"
        },
        {
          "indexed": true,
          "internalType": "address",
          "name": "redemption",
          "type": "address"
        },
        {
          "indexed": true,
          "internalType": "address",
          "name": "requester",
          "type": "address"
        },
        {
          "indexed": false,
          "internalType": "bytes32",
          "name": "poolId",
          "type": "bytes32"
        },
        {
          "indexed": false,
          "internalType": "uint256",
          "name": "redemptionId",
          "type": "uint256"
        },
        {
          "indexed": false,
          "internalType": "uint256",
          "name": "targetTokenAmount",
          "type": "uint256"
        }
      ],
      "name": "CancelWithdrawRequest",
      "type": "event"
    },
    {
      "anonymous": false,
      "inputs": [
        {
          "indexed": true,
          "internalType": "address",
          "name": "targetToken",
          "type": "address"
        },
        {
          "indexed": true,
          "internalType": "address",
          "name": "currency",
          "type": "address"
        },
        {
          "indexed": true,
          "internalType": "address",
          "name": "depositor",
          "type": "address"
        },
        {
          "indexed": false,
          "internalType": "uint256",
          "name": "targetTokenAmount",
          "type": "uint256"
        },
        {
          "indexed": false,
          "internalType": "uint256",
          "name": "currencyAmount",
          "type": "uint256"
        },
        {
          "indexed": false,
          "internalType": "address[]",
          "name": "path",
          "type": "address[]"
        },
        {
          "indexed": false,
          "internalType": "bytes32[]",
          "name": "poolIds",
          "type": "bytes32[]"
        }
      ],
      "name": "Deposit",
      "type": "event"
    },
    {
      "anonymous": false,
      "inputs": [
        {
          "indexed": false,
          "internalType": "uint64",
          "name": "version",
          "type": "uint64"
        }
      ],
      "name": "Initialized",
      "type": "event"
    },
    {
      "anonymous": false,
      "inputs": [
        {
          "indexed": true,
          "internalType": "address",
          "name": "previousOwner",
          "type": "address"
        },
        {
          "indexed": true,
          "internalType": "address",
          "name": "newOwner",
          "type": "address"
        }
      ],
      "name": "OwnershipTransferStarted",
      "type": "event"
    },
    {
      "anonymous": false,
      "inputs": [
        {
          "indexed": true,
          "internalType": "address",
          "name": "previousOwner",
          "type": "address"
        },
        {
          "indexed": true,
          "internalType": "address",
          "name": "newOwner",
          "type": "address"
        }
      ],
      "name": "OwnershipTransferred",
      "type": "event"
    },
    {
      "anonymous": false,
      "inputs": [
        {
          "indexed": true,
          "internalType": "address",
          "name": "verifier",
          "type": "address"
        }
      ],
      "name": "RemoveKycSBTVerifier",
      "type": "event"
    },
    {
      "anonymous": false,
      "inputs": [
        {
          "indexed": true,
          "internalType": "address",
          "name": "token",
          "type": "address"
        },
        {
          "indexed": true,
          "internalType": "address",
          "name": "multiAssetPool",
          "type": "address"
        }
      ],
      "name": "SetMultiAssetPool",
      "type": "event"
    },
    {
      "anonymous": false,
      "inputs": [
        {
          "indexed": true,
          "internalType": "address",
          "name": "openFundMarket",
          "type": "address"
        }
      ],
      "name": "SetOpenFundMarket",
      "type": "event"
    },
    {
      "anonymous": false,
      "inputs": [
        {
          "indexed": true,
          "internalType": "address",
          "name": "currency",
          "type": "address"
        },
        {
          "indexed": true,
          "internalType": "address",
          "name": "targetToken",
          "type": "address"
        },
        {
          "indexed": false,
          "internalType": "address[]",
          "name": "path",
          "type": "address[]"
        }
      ],
      "name": "SetPath",
      "type": "event"
    },
    {
      "anonymous": false,
      "inputs": [
        {
          "indexed": true,
          "internalType": "address",
          "name": "targetToken",
          "type": "address"
        },
        {
          "indexed": true,
          "internalType": "address",
          "name": "currency",
          "type": "address"
        },
        {
          "indexed": true,
          "internalType": "bytes32",
          "name": "poolId",
          "type": "bytes32"
        }
      ],
      "name": "SetPoolId",
      "type": "event"
    },
    {
      "anonymous": false,
      "inputs": [
        {
          "indexed": true,
          "internalType": "address",
          "name": "targetToken",
          "type": "address"
        },
        {
          "indexed": true,
          "internalType": "address",
          "name": "currency",
          "type": "address"
        },
        {
          "indexed": true,
          "internalType": "address",
          "name": "requester",
          "type": "address"
        },
        {
          "indexed": false,
          "internalType": "bytes32",
          "name": "poolId",
          "type": "bytes32"
        },
        {
          "indexed": false,
          "internalType": "uint256",
          "name": "withdrawAmount",
          "type": "uint256"
        },
        {
          "indexed": false,
          "internalType": "uint256",
          "name": "redemptionId",
          "type": "uint256"
        }
      ],
      "name": "WithdrawRequest",
      "type": "event"
    },
    {
      "inputs": [],
      "name": "acceptOwnership",
      "outputs": [],
      "stateMutability": "nonpayable",
      "type": "function"
    },
    {
      "inputs": [
        {
          "internalType": "address",
          "name": "kycSBTVerifier_",
          "type": "address"
        }
      ],
      "name": "addKycSBTVerifier",
      "outputs": [],
      "stateMutability": "nonpayable",
      "type": "function"
    },
    {
      "inputs": [
        {
          "internalType": "address",
          "name": "targetToken_",
          "type": "address"
        },
        {
          "internalType": "address",
          "name": "redemption_",
          "type": "address"
        },
        {
          "internalType": "uint256",
          "name": "redemptionId_",
          "type": "uint256"
        }
      ],
      "name": "cancelWithdrawRequest",
      "outputs": [
        {
          "internalType": "uint256",
          "name": "targetTokenAmount_",
          "type": "uint256"
        }
      ],
      "stateMutability": "nonpayable",
      "type": "function"
    },
    {
      "inputs": [],
      "name": "checkKycSBT",
      "outputs": [
        {
          "internalType": "bool",
          "name": "",
          "type": "bool"
        }
      ],
      "stateMutability": "view",
      "type": "function"
    },
    {
      "inputs": [
        {
          "internalType": "bytes32",
          "name": "poolId_",
          "type": "bytes32"
        }
      ],
      "name": "checkPoolPermission",
      "outputs": [
        {
          "internalType": "bool",
          "name": "",
          "type": "bool"
        }
      ],
      "stateMutability": "view",
      "type": "function"
    },
    {
      "inputs": [
        {
          "internalType": "address",
          "name": "targetToken_",
          "type": "address"
        },
        {
          "internalType": "address",
          "name": "currency_",
          "type": "address"
        },
        {
          "internalType": "uint256",
          "name": "currencyAmount_",
          "type": "uint256"
        }
      ],
      "name": "deposit",
      "outputs": [
        {
          "internalType": "uint256",
          "name": "targetTokenAmount_",
          "type": "uint256"
        }
      ],
      "stateMutability": "nonpayable",
      "type": "function"
    },
    {
      "inputs": [
        {
          "internalType": "address",
          "name": "owner_",
          "type": "address"
        }
      ],
      "name": "initialize",
      "outputs": [],
      "stateMutability": "nonpayable",
      "type": "function"
    },
    {
      "inputs": [
        {
          "internalType": "uint256",
          "name": "",
          "type": "uint256"
        }
      ],
      "name": "kycSBTVerifiers",
      "outputs": [
        {
          "internalType": "address",
          "name": "",
          "type": "address"
        }
      ],
      "stateMutability": "view",
      "type": "function"
    },
    {
      "inputs": [
        {
          "internalType": "address",
          "name": "",
          "type": "address"
        }
      ],
      "name": "multiAssetPools",
      "outputs": [
        {
          "internalType": "address",
          "name": "",
          "type": "address"
        }
      ],
      "stateMutability": "view",
      "type": "function"
    },
    {
      "inputs": [],
      "name": "openFundMarket",
      "outputs": [
        {
          "internalType": "address",
          "name": "",
          "type": "address"
        }
      ],
      "stateMutability": "view",
      "type": "function"
    },
    {
      "inputs": [],
      "name": "owner",
      "outputs": [
        {
          "internalType": "address",
          "name": "",
          "type": "address"
        }
      ],
      "stateMutability": "view",
      "type": "function"
    },
    {
      "inputs": [
        {
          "internalType": "address",
          "name": "",
          "type": "address"
        },
        {
          "internalType": "address",
          "name": "",
          "type": "address"
        },
        {
          "internalType": "uint256",
          "name": "",
          "type": "uint256"
        }
      ],
      "name": "paths",
      "outputs": [
        {
          "internalType": "address",
          "name": "",
          "type": "address"
        }
      ],
      "stateMutability": "view",
      "type": "function"
    },
    {
      "inputs": [],
      "name": "pendingOwner",
      "outputs": [
        {
          "internalType": "address",
          "name": "",
          "type": "address"
        }
      ],
      "stateMutability": "view",
      "type": "function"
    },
    {
      "inputs": [
        {
          "internalType": "address",
          "name": "",
          "type": "address"
        },
        {
          "internalType": "address",
          "name": "",
          "type": "address"
        }
      ],
      "name": "poolIds",
      "outputs": [
        {
          "internalType": "bytes32",
          "name": "",
          "type": "bytes32"
        }
      ],
      "stateMutability": "view",
      "type": "function"
    },
    {
      "inputs": [
        {
          "internalType": "address",
          "name": "kycSBTVerifier_",
          "type": "address"
        }
      ],
      "name": "removeKycSBTVerifier",
      "outputs": [],
      "stateMutability": "nonpayable",
      "type": "function"
    },
    {
      "inputs": [],
      "name": "renounceOwnership",
      "outputs": [],
      "stateMutability": "nonpayable",
      "type": "function"
    },
    {
      "inputs": [
        {
          "internalType": "address",
          "name": "token_",
          "type": "address"
        },
        {
          "internalType": "address",
          "name": "multiAssetPool_",
          "type": "address"
        }
      ],
      "name": "setMultiAssetPool",
      "outputs": [],
      "stateMutability": "nonpayable",
      "type": "function"
    },
    {
      "inputs": [
        {
          "internalType": "address",
          "name": "openFundMarket_",
          "type": "address"
        }
      ],
      "name": "setOpenFundMarket",
      "outputs": [],
      "stateMutability": "nonpayable",
      "type": "function"
    },
    {
      "inputs": [
        {
          "internalType": "address",
          "name": "currency_",
          "type": "address"
        },
        {
          "internalType": "address",
          "name": "targetToken_",
          "type": "address"
        },
        {
          "internalType": "address[]",
          "name": "path_",
          "type": "address[]"
        }
      ],
      "name": "setPath",
      "outputs": [],
      "stateMutability": "nonpayable",
      "type": "function"
    },
    {
      "inputs": [
        {
          "internalType": "address",
          "name": "targetToken_",
          "type": "address"
        },
        {
          "internalType": "address",
          "name": "currency_",
          "type": "address"
        },
        {
          "internalType": "bytes32",
          "name": "poolId_",
          "type": "bytes32"
        }
      ],
      "name": "setPoolId",
      "outputs": [],
      "stateMutability": "nonpayable",
      "type": "function"
    },
    {
      "inputs": [
        {
          "internalType": "address",
          "name": "newOwner",
          "type": "address"
        }
      ],
      "name": "transferOwnership",
      "outputs": [],
      "stateMutability": "nonpayable",
      "type": "function"
    },
    {
      "inputs": [
        {
          "internalType": "address",
          "name": "targetToken_",
          "type": "address"
        },
        {
          "internalType": "address",
          "name": "currency_",
          "type": "address"
        },
        {
          "internalType": "uint256",
          "name": "withdrawAmount_",
          "type": "uint256"
        }
      ],
      "name": "withdrawRequest",
      "outputs": [
        {
          "internalType": "address",
          "name": "",
          "type": "address"
        },
        {
          "internalType": "uint256",
          "name": "",
          "type": "uint256"
        }
      ],
      "stateMutability": "nonpayable",
      "type": "function"
    }
  ],
  "transactionHash": "0x155df397c9d492da7391a7d07156c3499c1cb1b4146193e12d513a8ce03faaa6",
  "args": [],
  "numDeployments": 1,
  "solcInputHash": "cff77f3839b3f2b77324aea666ae4a63",
  "bytecode": "0x60806040523480156200001157600080fd5b506200001c62000022565b620000d6565b7ff0c57e16840df040f15088dc2f81fe391c3923bec73e23a9662efc9c229c6a00805468010000000000000000900460ff1615620000735760405163f92ee8a960e01b815260040160405180910390fd5b80546001600160401b0390811614620000d35780546001600160401b0319166001600160401b0390811782556040519081527fc7f505b2f371ae2175ee4913f4499e1f2633a7b5936321eed1cdaeb6115181d29060200160405180910390a15b50565b61347580620000e66000396000f3fe608060405234801561001057600080fd5b50600436106101125760003560e01c8063055227a114610117578063073ef0601461012c5780631d98e7f81461013f57806342c7774b146101675780636534d8dc146101885780636dadff0b146101b35780636fdc9d9b146101d3578063715018a6146101e65780637448130c146101ee57806379ba5097146102175780638340f5491461021f5780638da5cb5b146102325780638df9dfda1461023a5780639ccd8a691461024d578063ba9cf75814610260578063c4d66de814610268578063cef4cde41461027b578063d2cfd97d1461028e578063e30c3978146102af578063f2fde38b146102b7578063f355d417146102ca578063f6d852e2146102dd575b600080fd5b61012a610125366004612bda565b6102f0565b005b61012a61013a366004612cb2565b610479565b61015261014d366004612ccf565b610558565b60405190151581526020015b60405180910390f35b61017a610175366004612ce8565b6106ef565b60405190815260200161015e565b61017a610196366004612d29565b600360209081526000928352604080842090915290825290205481565b6101c66101c1366004612ccf565b610bcc565b60405161015e9190612d62565b61012a6101e1366004612cb2565b610bf6565b61012a610cac565b6101c66101fc366004612cb2565b6004602052600090815260409020546001600160a01b031681565b61012a610cc0565b61017a61022d366004612ce8565b610cff565b6101c6610f7e565b61012a610248366004612ce8565b610f99565b61012a61025b366004612d29565b611093565b6101526111ae565b61012a610276366004612cb2565b611274565b6101c6610289366004612ce8565b6113cb565b6102a161029c366004612ce8565b611410565b60405161015e929190612d76565b6101c66119aa565b61012a6102c5366004612cb2565b6119b5565b6000546101c6906001600160a01b031681565b61012a6102eb366004612cb2565b611a26565b6102f8611b6c565b6001600160a01b0383166103275760405162461bcd60e51b815260040161031e90612d8f565b60405180910390fd5b6001600160a01b03821661034d5760405162461bcd60e51b815260040161031e90612dbe565b60005b81518110156103f25760006001600160a01b031682828151811061037657610376612e02565b60200260200101516001600160a01b0316036103e05760405162461bcd60e51b815260206004820152602360248201527f536f6c76425443526f7574657256323a20696e76616c6964207061746820746f60448201526235b2b760e91b606482015260840161031e565b806103ea81612e2e565b915050610350565b506001600160a01b0380841660009081526002602090815260408083209386168352928152919020825161042892840190612a98565b50816001600160a01b0316836001600160a01b03167fc3799aea01bc3147c6d65980a35dbf4661fb244ecebf3890db31c1dea0e0131c8360405161046c9190612e8b565b60405180910390a3505050565b610481611b6c565b6001600160a01b0381166104e15760405162461bcd60e51b815260206004820152602160248201527f536f6c76425443526f7574657256323a20696e76616c696420766572696669656044820152603960f91b606482015260840161031e565b60018054808201825560009182527fb10e2d527612073b26eecdfd717e6a320cf44b4afac2b0732d9fcbe2b7fa0cf60180546001600160a01b0319166001600160a01b03841690811790915560405190917f406973f217cd9d1d2338d714098813a16e977aeaa9781bd83da782276082a11391a250565b6000805460405162daa6b160e61b81526004810184905282916001600160a01b0316906336a9ac40906024016102a060405180830381865afa1580156105a2573d6000803e3d6000fd5b505050506040513d601f19601f820116820180604052508101906105c6919061304e565b9050806101000151156105dc5750600192915050565b600080546040516321f8a72160e01b81527a27a326abb434ba32b634b9ba29ba3930ba32b3bca6b0b730b3b2b960291b60048201526001600160a01b03909116906321f8a72190602401602060405180830381865afa158015610643573d6000803e3d6000fd5b505050506040513d601f19601f82011682018060405250810190610667919061311b565b60405163f409981160e01b8152600481018690523360248201529091506001600160a01b0382169063f409981190604401602060405180830381865afa1580156106b5573d6000803e3d6000fd5b505050506040513d601f19601f820116820180604052508101906106d99190613138565b806106e757506106e76111ae565b949350505050565b60006106f9611b9e565b60006107058484611bd4565b6000805460405162daa6b160e61b81526004810184905292935090916001600160a01b03909116906336a9ac40906024016102a060405180830381865afa158015610754573d6000803e3d6000fd5b505050506040513d601f19601f82011682018060405250810190610778919061304e565b805180516040918201516001600160a01b03808b1660009081526004602081905290859020549451639f0b8d0360e01b81529596509294919316918291639f0b8d03916107c9918791879101612d76565b602060405180830381865afa1580156107e6573d6000803e3d6000fd5b505050506040513d601f19601f8201168201806040525081019061080a919061311b565b6001600160a01b0316896001600160a01b03161461083a5760405162461bcd60e51b815260040161031e90613153565b604051631398fee160e31b8152600481018890526001600160a01b03891690639cc7f70890602401602060405180830381865afa15801561087f573d6000803e3d6000fd5b505050506040513d601f19601f820116820180604052508101906108a3919061319a565b95506108b0883389611d24565b6000546108c89089906001600160a01b031689611d8e565b6000546040516302e9574960e51b815260048101879052602481018990526001600160a01b0390911690635d2ae92090604401600060405180830381600087803b15801561091557600080fd5b505af1158015610929573d6000803e3d6000fd5b50506040516370a0823160e01b8152600092506001600160a01b03861691506370a082319061095c903090600401612d62565b602060405180830381865afa158015610979573d6000803e3d6000fd5b505050506040513d601f19601f8201168201806040525081019061099d919061319a565b905060006001600160a01b038516632f745c59306109bc6001866131b3565b6040518363ffffffff1660e01b81526004016109d9929190612d76565b602060405180830381865afa1580156109f6573d6000803e3d6000fd5b505050506040513d601f19601f82011682018060405250810190610a1a919061319a565b604051631398fee160e31b8152600481018290529091506001600160a01b03861690639cc7f70890602401602060405180830381865afa158015610a62573d6000803e3d6000fd5b505050506040513d601f19601f82011682018060405250810190610a86919061319a565b8814610ae55760405162461bcd60e51b815260206004820152602860248201527f536f6c76425443526f7574657256323a2063616e63656c20616d6f756e74206e6044820152670dee840dac2e8c6d60c31b606482015260840161031e565b610af0858483611d8e565b604051630efe6a8b60e01b81526001600160a01b03841690630efe6a8b90610b2090889085908d906004016131c6565b600060405180830381600087803b158015610b3a57600080fd5b505af1158015610b4e573d6000803e3d6000fd5b50505050610b5d8b338a611dbe565b336001600160a01b03168a6001600160a01b03168c6001600160a01b03167fbcab14a9990bc1fc30373acf248d280252f63653e6ccdcbd1f7929552a84c7388a8d8d604051610bae939291906131e7565b60405180910390a450505050505050610bc5611fc0565b9392505050565b60018181548110610bdc57600080fd5b6000918252602090912001546001600160a01b0316905081565b610bfe611b6c565b6001600160a01b038116610c645760405162461bcd60e51b815260206004820152602760248201527f536f6c76425443526f7574657256323a20696e76616c6964206f70656e46756e6044820152661913585c9ad95d60ca1b606482015260840161031e565b600080546001600160a01b0319166001600160a01b038316908117825560405190917fb972f7c26626db2ffb3776abf797d15304c8c1f62efdc3567bbdad00dddf896c91a250565b610cb4611b6c565b610cbe6000611fd1565b565b3380610cca6119aa565b6001600160a01b031614610cf3578060405163118cdaa760e01b815260040161031e9190612d62565b610cfc81611fd1565b50565b6000610d09611b9e565b60008211610d585760405162461bcd60e51b815260206004820152602860248201526000805160206134208339815191526044820152671e48185b5bdd5b9d60c21b606482015260840161031e565b610d63833384611ff4565b6001600160a01b038084166000908152600260209081526040808320938816835292815282822080548451818402810184019095528085529293929091830182828015610dd957602002820191906000526020600020905b81546001600160a01b03168152600190910190602001808311610dbb575b50505050509050600081516001610df091906131fd565b6001600160401b03811115610e0757610e07612b27565b604051908082528060200260200182016040528015610e30578160200160208202803683370190505b50905083925060005b82518111610f0d5760008115610e725783610e556001846131b3565b81518110610e6557610e65612e02565b6020026020010151610e74565b865b9050600084518314610e9f57848381518110610e9257610e92612e02565b6020026020010151610ea1565b885b6001600160a01b03808216600090815260036020908152604080832093871683529290522054855191925090859085908110610edf57610edf612e02565b602002602001018181525050610ef68183886121ec565b955050508080610f0590612e2e565b915050610e39565b50610f19863385611dbe565b336001600160a01b0316856001600160a01b0316876001600160a01b03167f6937da7733b7e101e4ab6e3a3ec12fe857d7a7ca921348ef12feff7abfcee01a86888787604051610f6c9493929190613210565b60405180910390a45050610bc5611fc0565b600080610f896127c3565b546001600160a01b031692915050565b610fa1611b6c565b6001600160a01b038316610fc75760405162461bcd60e51b815260040161031e90612dbe565b6001600160a01b038216610fed5760405162461bcd60e51b815260040161031e90612d8f565b8061103a5760405162461bcd60e51b815260206004820152601f60248201527f536f6c76425443526f7574657256323a20696e76616c696420706f6f6c496400604482015260640161031e565b6001600160a01b0380841660008181526003602090815260408083209487168084529490915280822085905551849392917f6c7f14630165c9c4c6ad227089f1fcb12296a6e2f333127dfac70ff6c01b752f91a4505050565b61109b611b6c565b6001600160a01b0382166110f15760405162461bcd60e51b815260206004820152601e60248201527f536f6c76425443526f7574657256323a20696e76616c696420746f6b656e0000604482015260640161031e565b6001600160a01b0381166111575760405162461bcd60e51b815260206004820152602760248201527f536f6c76425443526f7574657256323a20696e76616c6964206d756c746941736044820152661cd95d141bdbdb60ca1b606482015260840161031e565b6001600160a01b0382811660008181526004602052604080822080546001600160a01b0319169486169485179055517f6d8a13fa4299a53f42536f2eb442ae9416f32e834a4b630d335079cb5a2da9669190a35050565b6000805b60015481101561126b576000600182815481106111d1576111d1612e02565b6000918252602090912001546040516370a0823160e01b81526001600160a01b03909116906370a082319061120a903390600401612d62565b602060405180830381865afa158015611227573d6000803e3d6000fd5b505050506040513d601f19601f8201168201806040525081019061124b919061319a565b111561125957600191505090565b8061126381612e2e565b9150506111b2565b50506001541590565b600061127e6127e7565b805490915060ff600160401b82041615906001600160401b03166000811580156112a55750825b90506000826001600160401b031660011480156112c15750303b155b9050811580156112cf575080155b156112ed5760405163f92ee8a960e01b815260040160405180910390fd5b84546001600160401b0319166001178555831561131657845460ff60401b1916600160401b1785555b6001600160a01b03861661136c5760405162461bcd60e51b815260206004820152601e60248201527f536f6c76425443526f7574657256323a20696e76616c69642061646d696e0000604482015260640161031e565b6113758661280b565b61137d61283d565b83156113c357845460ff60401b19168555604051600181527fc7f505b2f371ae2175ee4913f4499e1f2633a7b5936321eed1cdaeb6115181d29060200160405180910390a15b505050505050565b600260205282600052604060002060205281600052604060002081815481106113f357600080fd5b6000918252602090912001546001600160a01b0316925083915050565b60008061141b611b9e565b6001600160a01b038086166000908152600360209081526040808320938816835292905220548061145e5760405162461bcd60e51b815260040161031e90613272565b6000805460405162daa6b160e61b8152600481018490526001600160a01b03909116906336a9ac40906024016102a060405180830381865afa1580156114a8573d6000803e3d6000fd5b505050506040513d601f19601f820116820180604052508101906114cc919061304e565b90508060a001516001600160a01b0316866001600160a01b0316146115035760405162461bcd60e51b815260040161031e906132b3565b805180516020808301516040938401516001600160a01b03808d166000908152600494859052869020549551639f0b8d0360e01b81529495929491939216918291639f0b8d0391611558918891879101612d76565b602060405180830381865afa158015611575573d6000803e3d6000fd5b505050506040513d601f19601f82011682018060405250810190611599919061311b565b6001600160a01b03168b6001600160a01b0316146115c95760405162461bcd60e51b815260040161031e90613153565b6115d48b338b611ff4565b6040516322996bbb60e11b81526001600160a01b03858116600483015260248201849052600060448301819052606483018c90529190831690634532d776906084016020604051808303816000875af1158015611635573d6000803e3d6000fd5b505050506040513d601f19601f82011682018060405250810190611659919061319a565b604051631398fee160e31b8152600481018290529091506001600160a01b03861690639cc7f70890602401602060405180830381865afa1580156116a1573d6000803e3d6000fd5b505050506040513d601f19601f820116820180604052508101906116c5919061319a565b8a146116e35760405162461bcd60e51b815260040161031e906132f6565b6000546116fb9086906001600160a01b031683611d8e565b600080546040516371033ad760e01b8152600481018a9052602481018490526044810192909252606482018c90526001600160a01b0316906371033ad790608401600060405180830381600087803b15801561175657600080fd5b505af115801561176a573d6000803e3d6000fd5b50506040516370a0823160e01b8152600093506001600160a01b03871692506370a08231915061179e903090600401612d62565b602060405180830381865afa1580156117bb573d6000803e3d6000fd5b505050506040513d601f19601f820116820180604052508101906117df919061319a565b905060006001600160a01b038516632f745c59306117fe6001866131b3565b6040518363ffffffff1660e01b815260040161181b929190612d76565b602060405180830381865afa158015611838573d6000803e3d6000fd5b505050506040513d601f19601f8201168201806040525081019061185c919061319a565b604051631398fee160e31b8152600481018290529091506001600160a01b03861690639cc7f70890602401602060405180830381865afa1580156118a4573d6000803e3d6000fd5b505050506040513d601f19601f820116820180604052508101906118c8919061319a565b8b1461192a5760405162461bcd60e51b815260206004820152602b60248201527f536f6c76425443526f7574657256323a20726564656d7074696f6e2076616c7560448201526a0ca40dcdee840dac2e8c6d60ab1b606482015260840161031e565b61193585338361284d565b336001600160a01b03168c6001600160a01b03168e6001600160a01b03167f50aa488fffd286866bc78078718365f7c3880cf5f95179a61e37cf84c5fd76c58b8f86604051611986939291906131e7565b60405180910390a49398509296505050505050506119a2611fc0565b935093915050565b600080610f8961287f565b6119bd611b6c565b60006119c761287f565b80546001600160a01b0319166001600160a01b03841690811782559091506119ed610f7e565b6001600160a01b03167f38d16b8cac22d99fc7c124b9cd0de2d3fa1faef420bfe791d8c362d765e2270060405160405180910390a35050565b611a2e611b6c565b60005b600154811015611b6857816001600160a01b031660018281548110611a5857611a58612e02565b6000918252602090912001546001600160a01b031603611b565760018054611a819082906131b3565b81548110611a9157611a91612e02565b600091825260209091200154600180546001600160a01b039092169183908110611abd57611abd612e02565b9060005260206000200160006101000a8154816001600160a01b0302191690836001600160a01b031602179055506001805480611afc57611afc61333c565b600082815260208120820160001990810180546001600160a01b03191690559091019091556040516001600160a01b038416917f31fcc58e4308750615c411af54c81513de9d2e6c73cf7f3652928cdd25c8d5da91a25050565b80611b6081612e2e565b915050611a31565b5050565b33611b75610f7e565b6001600160a01b031614610cbe573360405163118cdaa760e01b815260040161031e9190612d62565b6000611ba86128a3565b805490915060011901611bce57604051633ee5aeb560e01b815260040160405180910390fd5b60029055565b600080836001600160a01b0316638ba344706040518163ffffffff1660e01b8152600401602060405180830381865afa158015611c15573d6000803e3d6000fd5b505050506040513d601f19601f82011682018060405250810190611c39919061311b565b60405163131f9f3f60e11b8152600481018590529091506000906001600160a01b0386169063263f3e7e90602401602060405180830381865afa158015611c84573d6000803e3d6000fd5b505050506040513d601f19601f82011682018060405250810190611ca8919061319a565b604051636e14b58960e11b8152600481018290529091506000906001600160a01b0384169063dc296b1290602401608060405180830381865afa158015611cf3573d6000803e3d6000fd5b505050506040513d601f19601f82011682018060405250810190611d179190613352565b5193505050505b92915050565b6040516323b872dd60e01b815283906001600160a01b038216906323b872dd90611d56908690309087906004016133a0565b600060405180830381600087803b158015611d7057600080fd5b505af1158015611d84573d6000803e3d6000fd5b5050505050505050565b60405163095ea7b360e01b815283906001600160a01b0382169063095ea7b390611d569086908690600401612d76565b73eeeeeeeeeeeeeeeeeeeeeeeeeeeeeeeeeeeeeeed196001600160a01b03841601611e8c57604080516000808252602082019092526001600160a01b038416908390604051611e0d91906133c4565b60006040518083038185875af1925050503d8060008114611e4a576040519150601f19603f3d011682016040523d82523d6000602084013e611e4f565b606091505b5050905080611e865760405162461bcd60e51b815260206004820152600360248201526253544560e81b604482015260640161031e565b50505050565b6000836001600160a01b03163b11611eb65760405162461bcd60e51b815260040161031e906133f3565b600080846001600160a01b031663a9059cbb60e01b8585604051602401611ede929190612d76565b60408051601f198184030181529181526020820180516001600160e01b03166001600160e01b0319909416939093179092529051611f1c91906133c4565b6000604051808303816000865af19150503d8060008114611f59576040519150601f19603f3d011682016040523d82523d6000602084013e611f5e565b606091505b5091509150818015611f88575080511580611f88575080806020019051810190611f889190613138565b611fb95760405162461bcd60e51b815260206004820152600260248201526114d560f21b604482015260640161031e565b5050505050565b6000611fca6128a3565b6001905550565b6000611fdb61287f565b80546001600160a01b03191681559050611b68826128c7565b73eeeeeeeeeeeeeeeeeeeeeeeeeeeeeeeeeeeeeeed196001600160a01b038416016120bc57326001600160a01b03831614806120385750336001600160a01b038316145b6120765760405162461bcd60e51b815260206004820152600f60248201526e0e6cadcc8cae440dad2e6dac2e8c6d608b1b604482015260640161031e565b803410156120b75760405162461bcd60e51b815260206004820152600e60248201526d0ecc2d8eaca40dad2e6dac2e8c6d60931b604482015260640161031e565b505050565b6000836001600160a01b03163b116120e65760405162461bcd60e51b815260040161031e906133f3565b600080846001600160a01b03166323b872dd60e01b853086604051602401612110939291906133a0565b60408051601f198184030181529181526020820180516001600160e01b03166001600160e01b031990941693909317909252905161214e91906133c4565b6000604051808303816000865af19150503d806000811461218b576040519150601f19603f3d011682016040523d82523d6000602084013e612190565b606091505b50915091508180156121ba5750805115806121ba5750808060200190518101906121ba9190613138565b611fb95760405162461bcd60e51b815260206004820152600360248201526229aa2360e91b604482015260640161031e565b6001600160a01b038084166000908152600360209081526040808320938616835292905290812054806122315760405162461bcd60e51b815260040161031e90613272565b61223a81610558565b6122965760405162461bcd60e51b815260206004820152602760248201527f536f6c76425443526f7574657256323a20706f6f6c207065726d697373696f6e6044820152660819195b9a595960ca1b606482015260840161031e565b6000805460405162daa6b160e61b8152600481018490526001600160a01b03909116906336a9ac40906024016102a060405180830381865afa1580156122e0573d6000803e3d6000fd5b505050506040513d601f19601f82011682018060405250810190612304919061304e565b90508060a001516001600160a01b0316856001600160a01b03161461233b5760405162461bcd60e51b815260040161031e906132b3565b805180516040918201516001600160a01b03808a1660009081526004602081905290859020549451639f0b8d0360e01b81529394929392909116918291639f0b8d039161238c918791879101612d76565b602060405180830381865afa1580156123a9573d6000803e3d6000fd5b505050506040513d601f19601f820116820180604052508101906123cd919061311b565b6001600160a01b0316896001600160a01b0316146123fd5760405162461bcd60e51b815260040161031e90613153565b6000546124159089906001600160a01b031689612923565b600080546001600160a01b031690638f3ecff09087908a906124394261012c6131fd565b6040516001600160e01b031960e087901b1681526004810194909452602484019290925260448301526001600160401b031660648201526084016020604051808303816000875af1158015612492573d6000803e3d6000fd5b505050506040513d601f19601f820116820180604052508101906124b6919061319a565b95506000836001600160a01b03166370a08231306040518263ffffffff1660e01b81526004016124e69190612d62565b602060405180830381865afa158015612503573d6000803e3d6000fd5b505050506040513d601f19601f82011682018060405250810190612527919061319a565b905060006001600160a01b038516632f745c59306125466001866131b3565b6040518363ffffffff1660e01b8152600401612563929190612d76565b602060405180830381865afa158015612580573d6000803e3d6000fd5b505050506040513d601f19601f820116820180604052508101906125a4919061319a565b60405163131f9f3f60e11b8152600481018290529091506001600160a01b0386169063263f3e7e90602401602060405180830381865afa1580156125ec573d6000803e3d6000fd5b505050506040513d601f19601f82011682018060405250810190612610919061319a565b841461266c5760405162461bcd60e51b815260206004820152602560248201527f536f6c76425443526f7574657256323a20736861726520736c6f74206e6f74206044820152640dac2e8c6d60db1b606482015260840161031e565b604051631398fee160e31b8152600481018290526001600160a01b03861690639cc7f70890602401602060405180830381865afa1580156126b1573d6000803e3d6000fd5b505050506040513d601f19601f820116820180604052508101906126d5919061319a565b88146126f35760405162461bcd60e51b815260040161031e906132f6565b60405163095ea7b360e01b81526001600160a01b0386169063095ea7b3906127219086908590600401612d76565b600060405180830381600087803b15801561273b57600080fd5b505af115801561274f573d6000803e3d6000fd5b5050604051630efe6a8b60e01b81526001600160a01b0386169250630efe6a8b915061278390889085908d906004016131c6565b600060405180830381600087803b15801561279d57600080fd5b505af11580156127b1573d6000803e3d6000fd5b50505050505050505050509392505050565b7f9016d09d72d40fdae2fd8ceac6b6234c7706214fd39c1cd1e609a0528c19930090565b7ff0c57e16840df040f15088dc2f81fe391c3923bec73e23a9662efc9c229c6a0090565b612813612a51565b6001600160a01b038116610cf3576000604051631e4fbdf760e01b815260040161031e9190612d62565b612845612a51565b610cbe612a76565b6040516323b872dd60e01b815283906001600160a01b038216906323b872dd90611d56903090879087906004016133a0565b7f237e158222e3e6968b72b9db0d8043aacf074ad9f650f0d1606b4d82ee432c0090565b7f9b779b17422d0df92223018b32b4d1fa46e071723d6817e2486d003becc55f0090565b60006128d16127c3565b80546001600160a01b038481166001600160a01b031983168117845560405193945091169182907f8be0079c531659141344cd1fd0a4f28419497f9722a3daafe3b4186f6b6457e090600090a3505050565b6000836001600160a01b03163b1161294d5760405162461bcd60e51b815260040161031e906133f3565b600080846001600160a01b031663095ea7b360e01b8585604051602401612975929190612d76565b60408051601f198184030181529181526020820180516001600160e01b03166001600160e01b03199094169390931790925290516129b391906133c4565b6000604051808303816000865af19150503d80600081146129f0576040519150601f19603f3d011682016040523d82523d6000602084013e6129f5565b606091505b5091509150818015612a1f575080511580612a1f575080806020019051810190612a1f9190613138565b611fb95760405162461bcd60e51b815260206004820152600360248201526229a0a360e91b604482015260640161031e565b612a59612a7e565b610cbe57604051631afcd79f60e31b815260040160405180910390fd5b611fc0612a51565b6000612a886127e7565b54600160401b900460ff16919050565b828054828255906000526020600020908101928215612aed579160200282015b82811115612aed57825182546001600160a01b0319166001600160a01b03909116178255602090920191600190910190612ab8565b50612af9929150612afd565b5090565b5b80821115612af95760008155600101612afe565b6001600160a01b0381168114610cfc57600080fd5b634e487b7160e01b600052604160045260246000fd5b604051608081016001600160401b0381118282101715612b5f57612b5f612b27565b60405290565b604051606081016001600160401b0381118282101715612b5f57612b5f612b27565b60405161014081016001600160401b0381118282101715612b5f57612b5f612b27565b604051601f8201601f191681016001600160401b0381118282101715612bd257612bd2612b27565b604052919050565b600080600060608486031215612bef57600080fd5b8335612bfa81612b12565b9250602084810135612c0b81612b12565b925060408501356001600160401b0380821115612c2757600080fd5b818701915087601f830112612c3b57600080fd5b813581811115612c4d57612c4d612b27565b8060051b9150612c5e848301612baa565b818152918301840191848101908a841115612c7857600080fd5b938501935b83851015612ca25784359250612c9283612b12565b8282529385019390850190612c7d565b8096505050505050509250925092565b600060208284031215612cc457600080fd5b8135610bc581612b12565b600060208284031215612ce157600080fd5b5035919050565b600080600060608486031215612cfd57600080fd5b8335612d0881612b12565b92506020840135612d1881612b12565b929592945050506040919091013590565b60008060408385031215612d3c57600080fd5b8235612d4781612b12565b91506020830135612d5781612b12565b809150509250929050565b6001600160a01b0391909116815260200190565b6001600160a01b03929092168252602082015260400190565b60208082526021908201526000805160206134208339815191526040820152607960f81b606082015260800190565b60208082526024908201527f536f6c76425443526f7574657256323a20696e76616c6964207461726765745460408201526337b5b2b760e11b606082015260800190565b634e487b7160e01b600052603260045260246000fd5b634e487b7160e01b600052601160045260246000fd5b600060018201612e4057612e40612e18565b5060010190565b600081518084526020808501945080840160005b83811015612e805781516001600160a01b031687529582019590820190600101612e5b565b509495945050505050565b602081526000610bc56020830184612e47565b8051612ea981612b12565b919050565b600060808284031215612ec057600080fd5b612ec8612b3d565b90508151612ed581612b12565b81526020820151612ee581612b12565b80602083015250604082015160408201526060820151606082015292915050565b80516001600160401b0381168114612ea957600080fd5b600060608284031215612f2f57600080fd5b612f37612b65565b9050815161ffff81168114612f4b57600080fd5b81526020820151612f5b81612b12565b6020820152612f6c60408301612f06565b604082015292915050565b600060608284031215612f8957600080fd5b612f91612b65565b90508151612f9e81612b12565b81526020820151612fae81612b12565b60208201526040820151612f6c81612b12565b600060a08284031215612fd357600080fd5b60405160a081016001600160401b0381118282101715612ff557612ff5612b27565b806040525080915082518152602083015160208201526040830151604082015261302160608401612f06565b606082015261303260808401612f06565b60808201525092915050565b80518015158114612ea957600080fd5b60006102a0828403121561306157600080fd5b613069612b87565b6130738484612eae565b81526130828460808501612f1d565b60208201526130948460e08501612f77565b60408201526130a7846101408501612fc1565b60608201526130b96101e08401612e9e565b60808201526130cb6102008401612e9e565b60a08201526130dd6102208401612e9e565b60c08201526130ef6102408401612f06565b60e0820152613101610260840161303e565b610100820152610280929092015161012083015250919050565b60006020828403121561312d57600080fd5b8151610bc581612b12565b60006020828403121561314a57600080fd5b610bc58261303e565b60208082526027908201527f536f6c76425443526f7574657256323a2074617267657420746f6b656e206e6f6040820152660e840dac2e8c6d60cb1b606082015260800190565b6000602082840312156131ac57600080fd5b5051919050565b81810381811115611d1e57611d1e612e18565b6001600160a01b039390931683526020830191909152604082015260600190565b9283526020830191909152604082015260600190565b80820180821115611d1e57611d1e612e18565b848152600060208581840152608060408401526132306080840186612e47565b838103606085015284518082528286019183019060005b8181101561326357835183529284019291840191600101613247565b50909998505050505050505050565b60208082526021908201527f536f6c76425443526f7574657256323a20706f6f6c4964206e6f7420666f756e6040820152601960fa1b606082015260800190565b60208082526023908201527f536f6c76425443526f7574657256323a2063757272656e6379206e6f74206d616040820152620e8c6d60eb1b606082015260800190565b60208082526026908201527f536f6c76425443526f7574657256323a2073686172652076616c7565206e6f74604082015265040dac2e8c6d60d31b606082015260800190565b634e487b7160e01b600052603160045260246000fd5b60006080828403121561336457600080fd5b61336c612b3d565b82518152602083015161337e81612b12565b6020820152604083810151908201526060928301519281019290925250919050565b6001600160a01b039384168152919092166020820152604081019190915260600190565b6000825160005b818110156133e557602081860181015185830152016133cb565b506000920191825250919050565b602080825260129082015271696e76616c696420756e6465726c79696e6760701b60408201526060019056fe536f6c76425443526f7574657256323a20696e76616c69642063757272656e63a26469706673582212206d5a5b28a67855245acbd0bf389116849d331e6d57f5da43a7f2a2dcd62c4f0164736f6c63430008140033",
  "devdoc": {
    "errors": {
      "InvalidInitialization()": [
        {
          "details": "The contract is already initialized."
        }
      ],
      "NotInitializing()": [
        {
          "details": "The contract is not initializing."
        }
      ],
      "OwnableInvalidOwner(address)": [
        {
          "details": "The owner is not a valid owner account. (eg. `address(0)`)"
        }
      ],
      "OwnableUnauthorizedAccount(address)": [
        {
          "details": "The caller account is not authorized to perform an operation."
        }
      ],
      "ReentrancyGuardReentrantCall()": [
        {
          "details": "Unauthorized reentrant call."
        }
      ]
    },
    "events": {
      "Initialized(uint64)": {
        "details": "Triggered when the contract has been initialized or reinitialized."
      }
    },
    "kind": "dev",
    "methods": {
      "acceptOwnership()": {
        "details": "The new owner accepts the ownership transfer."
      },
      "constructor": {
        "custom:oz-upgrades-unsafe-allow": "constructor"
      },
      "owner()": {
        "details": "Returns the address of the current owner."
      },
      "pendingOwner()": {
        "details": "Returns the address of the pending owner."
      },
      "renounceOwnership()": {
        "details": "Leaves the contract without owner. It will not be possible to call `onlyOwner` functions. Can only be called by the current owner. NOTE: Renouncing ownership will leave the contract without an owner, thereby disabling any functionality that is only available to the owner."
      },
      "transferOwnership(address)": {
        "details": "Starts the ownership transfer of the contract to a new account. Replaces the pending transfer if there is one. Can only be called by the current owner."
      }
    },
    "version": 1
  },
  "userdoc": {
    "kind": "user",
    "methods": {},
    "version": 1
  },
  "storageLayout": {
    "storage": [
      {
        "astId": 11063,
        "contract": "contracts/SolvBTCRouterV2.sol:SolvBTCRouterV2",
        "label": "openFundMarket",
        "offset": 0,
        "slot": "0",
        "type": "t_address"
      },
      {
        "astId": 11066,
        "contract": "contracts/SolvBTCRouterV2.sol:SolvBTCRouterV2",
        "label": "kycSBTVerifiers",
        "offset": 0,
        "slot": "1",
        "type": "t_array(t_address)dyn_storage"
      },
      {
        "astId": 11073,
        "contract": "contracts/SolvBTCRouterV2.sol:SolvBTCRouterV2",
        "label": "paths",
        "offset": 0,
        "slot": "2",
        "type": "t_mapping(t_address,t_mapping(t_address,t_array(t_address)dyn_storage))"
      },
      {
        "astId": 11079,
        "contract": "contracts/SolvBTCRouterV2.sol:SolvBTCRouterV2",
        "label": "poolIds",
        "offset": 0,
        "slot": "3",
        "type": "t_mapping(t_address,t_mapping(t_address,t_bytes32))"
      },
      {
        "astId": 11083,
        "contract": "contracts/SolvBTCRouterV2.sol:SolvBTCRouterV2",
        "label": "multiAssetPools",
        "offset": 0,
        "slot": "4",
        "type": "t_mapping(t_address,t_address)"
      },
      {
        "astId": 12224,
        "contract": "contracts/SolvBTCRouterV2.sol:SolvBTCRouterV2",
        "label": "__gap",
        "offset": 0,
        "slot": "5",
        "type": "t_array(t_uint256)45_storage"
      }
    ],
    "types": {
      "t_address": {
        "encoding": "inplace",
        "label": "address",
        "numberOfBytes": "20"
      },
      "t_array(t_address)dyn_storage": {
        "base": "t_address",
        "encoding": "dynamic_array",
        "label": "address[]",
        "numberOfBytes": "32"
      },
      "t_array(t_uint256)45_storage": {
        "base": "t_uint256",
        "encoding": "inplace",
        "label": "uint256[45]",
        "numberOfBytes": "1440"
      },
      "t_bytes32": {
        "encoding": "inplace",
        "label": "bytes32",
        "numberOfBytes": "32"
      },
      "t_mapping(t_address,t_address)": {
        "encoding": "mapping",
        "key": "t_address",
        "label": "mapping(address => address)",
        "numberOfBytes": "32",
        "value": "t_address"
      },
      "t_mapping(t_address,t_array(t_address)dyn_storage)": {
        "encoding": "mapping",
        "key": "t_address",
        "label": "mapping(address => address[])",
        "numberOfBytes": "32",
        "value": "t_array(t_address)dyn_storage"
      },
      "t_mapping(t_address,t_bytes32)": {
        "encoding": "mapping",
        "key": "t_address",
        "label": "mapping(address => bytes32)",
        "numberOfBytes": "32",
        "value": "t_bytes32"
      },
      "t_mapping(t_address,t_mapping(t_address,t_array(t_address)dyn_storage))": {
        "encoding": "mapping",
        "key": "t_address",
        "label": "mapping(address => mapping(address => address[]))",
        "numberOfBytes": "32",
        "value": "t_mapping(t_address,t_array(t_address)dyn_storage)"
      },
      "t_mapping(t_address,t_mapping(t_address,t_bytes32))": {
        "encoding": "mapping",
        "key": "t_address",
        "label": "mapping(address => mapping(address => bytes32))",
        "numberOfBytes": "32",
        "value": "t_mapping(t_address,t_bytes32)"
      },
      "t_uint256": {
        "encoding": "inplace",
        "label": "uint256",
        "numberOfBytes": "32"
      }
    }
  }
}