{
  "address": "0x9D57fC91861e20404085BB2DCE912ccF876beC61",
  "abi": [
    {
      "inputs": [],
      "name": "InvalidInitialization",
      "type": "error"
    },
    {
      "inputs": [],
      "name": "NotInitializing",
      "type": "error"
    },
    {
      "inputs": [],
      "name": "ReentrancyGuardReentrantCall",
      "type": "error"
    },
    {
      "anonymous": false,
      "inputs": [
        {
          "indexed": true,
          "internalType": "bytes32",
          "name": "poolId",
          "type": "bytes32"
        },
        {
          "indexed": true,
          "internalType": "address",
          "name": "sender",
          "type": "address"
        },
        {
          "indexed": false,
          "internalType": "uint256",
          "name": "amountIn",
          "type": "uint256"
        },
        {
          "indexed": false,
          "internalType": "uint256",
          "name": "amountOut",
          "type": "uint256"
        }
      ],
      "name": "Deposit",
      "type": "event"
    },
    {
      "anonymous": false,
      "inputs": [
        {
          "indexed": false,
          "internalType": "uint64",
          "name": "version",
          "type": "uint64"
        }
      ],
      "name": "Initialized",
      "type": "event"
    },
    {
      "inputs": [
        {
          "internalType": "bytes32",
          "name": "poolId_",
          "type": "bytes32"
        },
        {
          "internalType": "uint256",
          "name": "amountIn_",
          "type": "uint256"
        }
      ],
      "name": "deposit",
      "outputs": [
        {
          "internalType": "uint256",
          "name": "amountOut_",
          "type": "uint256"
        }
      ],
      "stateMutability": "payable",
      "type": "function"
    },
    {
      "inputs": [
        {
          "internalType": "address",
          "name": "wrapToken_",
          "type": "address"
        },
        {
          "internalType": "address",
          "name": "solvBTC_",
          "type": "address"
        },
        {
          "internalType": "address",
          "name": "router_",
          "type": "address"
        }
      ],
      "name": "initialize",
      "outputs": [],
      "stateMutability": "nonpayable",
      "type": "function"
    },
    {
      "inputs": [],
      "name": "router",
      "outputs": [
        {
          "internalType": "address",
          "name": "",
          "type": "address"
        }
      ],
      "stateMutability": "view",
      "type": "function"
    },
    {
      "inputs": [],
      "name": "solvBTC",
      "outputs": [
        {
          "internalType": "address",
          "name": "",
          "type": "address"
        }
      ],
      "stateMutability": "view",
      "type": "function"
    },
    {
      "inputs": [],
      "name": "wrapToken",
      "outputs": [
        {
          "internalType": "address",
          "name": "",
          "type": "address"
        }
      ],
      "stateMutability": "view",
      "type": "function"
    }
  ],
  "transactionHash": "0xba36dd7fef9c2ce420f6d6264bd5ef592ad0f2fc999835c3f3ca7878378f1d1c",
  "args": [],
  "numDeployments": 1,
  "solcInputHash": "fc3ab400cfa0183c319081ddd2af489e",
  "bytecode": "0x608060405234801561001057600080fd5b5061077c806100206000396000f3fe60806040526004361061004a5760003560e01c80631de26e161461004f5780633517c60414610075578063b9937ccb146100ad578063c0c53b8b146100cd578063f887ea40146100ef575b600080fd5b61006261005d36600461066a565b61010f565b6040519081526020015b60405180910390f35b34801561008157600080fd5b50600054610095906001600160a01b031681565b6040516001600160a01b03909116815260200161006c565b3480156100b957600080fd5b50600154610095906001600160a01b031681565b3480156100d957600080fd5b506100ed6100e83660046106a8565b610372565b005b3480156100fb57600080fd5b50600254610095906001600160a01b031681565b6000610119610582565b8134146101605760405162461bcd60e51b815260206004820152601060248201526f1a5b98dbdc9c9958dd08185b5bdd5b9d60821b60448201526064015b60405180910390fd5b60005460405163b6b55f2560e01b8152600481018490526001600160a01b039091169063b6b55f259084906024016000604051808303818588803b1580156101a757600080fd5b505af11580156101bb573d6000803e3d6000fd5b505060005460025460405163095ea7b360e01b81526001600160a01b03928316955063095ea7b394506101f6935091169086906004016106eb565b6020604051808303816000875af1158015610215573d6000803e3d6000fd5b505050506040513d601f19601f820116820180604052508101906102399190610704565b50600254604051636d724ead60e01b815260048101859052602481018490526001600160a01b0390911690636d724ead906044016020604051808303816000875af115801561028c573d6000803e3d6000fd5b505050506040513d601f19601f820116820180604052508101906102b0919061072d565b60015460405163a9059cbb60e01b81529192506001600160a01b03169063a9059cbb906102e390339085906004016106eb565b6020604051808303816000875af1158015610302573d6000803e3d6000fd5b505050506040513d601f19601f820116820180604052508101906103269190610704565b506040805183815260208101839052339185917f6849bd31a1772b1b6992f1f328cce6888b435faff25d13805baee12a8a944bbe910160405180910390a361036c6105b8565b92915050565b600061037c6105c9565b805490915060ff600160401b82041615906001600160401b03166000811580156103a35750825b90506000826001600160401b031660011480156103bf5750303b155b9050811580156103cd575080155b156103eb5760405163f92ee8a960e01b815260040160405180910390fd5b84546001600160401b0319166001178555831561041457845460ff60401b1916600160401b1785555b61041c6105ed565b6001600160a01b0388166104665760405162461bcd60e51b815260206004820152601160248201527034b73b30b634b2103bb930b82a37b5b2b760791b6044820152606401610157565b6001600160a01b0387166104ae5760405162461bcd60e51b815260206004820152600f60248201526e696e76616c696420736f6c7642544360881b6044820152606401610157565b6001600160a01b0386166104f55760405162461bcd60e51b815260206004820152600e60248201526d34b73b30b634b2103937baba32b960911b6044820152606401610157565b600080546001600160a01b03808b166001600160a01b031992831617909255600180548a84169083161790556002805492891692909116919091179055831561057857845460ff60401b19168555604051600181527fc7f505b2f371ae2175ee4913f4499e1f2633a7b5936321eed1cdaeb6115181d29060200160405180910390a15b5050505050505050565b600061058c6105ff565b8054909150600119016105b257604051633ee5aeb560e01b815260040160405180910390fd5b60029055565b60006105c26105ff565b6001905550565b7ff0c57e16840df040f15088dc2f81fe391c3923bec73e23a9662efc9c229c6a0090565b6105f5610623565b6105fd610648565b565b7f9b779b17422d0df92223018b32b4d1fa46e071723d6817e2486d003becc55f0090565b61062b610650565b6105fd57604051631afcd79f60e31b815260040160405180910390fd5b6105b8610623565b600061065a6105c9565b54600160401b900460ff16919050565b6000806040838503121561067d57600080fd5b50508035926020909101359150565b80356001600160a01b03811681146106a357600080fd5b919050565b6000806000606084860312156106bd57600080fd5b6106c68461068c565b92506106d46020850161068c565b91506106e26040850161068c565b90509250925092565b6001600160a01b03929092168252602082015260400190565b60006020828403121561071657600080fd5b8151801515811461072657600080fd5b9392505050565b60006020828403121561073f57600080fd5b505191905056fea2646970667358221220c022ed24292d175f4aa8af6100908642de51bdaf959a5d0f828cafa60cbf87f864736f6c63430008140033",
  "devdoc": {
    "errors": {
      "InvalidInitialization()": [
        {
          "details": "The contract is already initialized."
        }
      ],
      "NotInitializing()": [
        {
          "details": "The contract is not initializing."
        }
      ],
      "ReentrancyGuardReentrantCall()": [
        {
          "details": "Unauthorized reentrant call."
        }
      ]
    },
    "events": {
      "Initialized(uint64)": {
        "details": "Triggered when the contract has been initialized or reinitialized."
      }
    },
    "kind": "dev",
    "methods": {},
    "version": 1
  },
  "userdoc": {
    "kind": "user",
    "methods": {},
    "version": 1
  },
  "storageLayout": {
    "storage": [
      {
        "astId": 2310,
        "contract": "contracts/NativeDeposit.sol:NativeDeposit",
        "label": "wrapToken",
        "offset": 0,
        "slot": "0",
        "type": "t_address"
      },
      {
        "astId": 2312,
        "contract": "contracts/NativeDeposit.sol:NativeDeposit",
        "label": "solvBTC",
        "offset": 0,
        "slot": "1",
        "type": "t_address"
      },
      {
        "astId": 2314,
        "contract": "contracts/NativeDeposit.sol:NativeDeposit",
        "label": "router",
        "offset": 0,
        "slot": "2",
        "type": "t_address"
      }
    ],
    "types": {
      "t_address": {
        "encoding": "inplace",
        "label": "address",
        "numberOfBytes": "20"
      }
    }
  }
}