{
  "address": "0x75168aA6017671BaF4F25901D3fD5EcEabC6c27d",
  "abi": [
    {
      "inputs": [],
      "stateMutability": "nonpayable",
      "type": "constructor"
    },
    {
      "inputs": [],
      "name": "AccessControlBadConfirmation",
      "type": "error"
    },
    {
      "inputs": [
        {
          "internalType": "address",
          "name": "account",
          "type": "address"
        },
        {
          "internalType": "bytes32",
          "name": "neededRole",
          "type": "bytes32"
        }
      ],
      "name": "AccessControlUnauthorizedAccount",
      "type": "error"
    },
    {
      "inputs": [
        {
          "internalType": "address",
          "name": "spender",
          "type": "address"
        },
        {
          "internalType": "uint256",
          "name": "allowance",
          "type": "uint256"
        },
        {
          "internalType": "uint256",
          "name": "needed",
          "type": "uint256"
        }
      ],
      "name": "ERC20InsufficientAllowance",
      "type": "error"
    },
    {
      "inputs": [
        {
          "internalType": "address",
          "name": "sender",
          "type": "address"
        },
        {
          "internalType": "uint256",
          "name": "balance",
          "type": "uint256"
        },
        {
          "internalType": "uint256",
          "name": "needed",
          "type": "uint256"
        }
      ],
      "name": "ERC20InsufficientBalance",
      "type": "error"
    },
    {
      "inputs": [
        {
          "internalType": "address",
          "name": "approver",
          "type": "address"
        }
      ],
      "name": "ERC20InvalidApprover",
      "type": "error"
    },
    {
      "inputs": [
        {
          "internalType": "address",
          "name": "receiver",
          "type": "address"
        }
      ],
      "name": "ERC20InvalidReceiver",
      "type": "error"
    },
    {
      "inputs": [
        {
          "internalType": "address",
          "name": "sender",
          "type": "address"
        }
      ],
      "name": "ERC20InvalidSender",
      "type": "error"
    },
    {
      "inputs": [
        {
          "internalType": "address",
          "name": "spender",
          "type": "address"
        }
      ],
      "name": "ERC20InvalidSpender",
      "type": "error"
    },
    {
      "inputs": [
        {
          "internalType": "address",
          "name": "token",
          "type": "address"
        }
      ],
      "name": "ERC3525NotReceivable",
      "type": "error"
    },
    {
      "inputs": [
        {
          "internalType": "address",
          "name": "token",
          "type": "address"
        }
      ],
      "name": "ERC721NotReceivable",
      "type": "error"
    },
    {
      "inputs": [],
      "name": "InvalidInitialization",
      "type": "error"
    },
    {
      "inputs": [],
      "name": "NotInitializing",
      "type": "error"
    },
    {
      "inputs": [
        {
          "internalType": "address",
          "name": "owner",
          "type": "address"
        }
      ],
      "name": "OwnableInvalidOwner",
      "type": "error"
    },
    {
      "inputs": [
        {
          "internalType": "address",
          "name": "account",
          "type": "address"
        }
      ],
      "name": "OwnableUnauthorizedAccount",
      "type": "error"
    },
    {
      "inputs": [],
      "name": "ReentrancyGuardReentrantCall",
      "type": "error"
    },
    {
      "anonymous": false,
      "inputs": [
        {
          "indexed": true,
          "internalType": "address",
          "name": "owner",
          "type": "address"
        },
        {
          "indexed": true,
          "internalType": "address",
          "name": "spender",
          "type": "address"
        },
        {
          "indexed": false,
          "internalType": "uint256",
          "name": "value",
          "type": "uint256"
        }
      ],
      "name": "Approval",
      "type": "event"
    },
    {
      "anonymous": false,
      "inputs": [
        {
          "indexed": false,
          "internalType": "uint64",
          "name": "version",
          "type": "uint64"
        }
      ],
      "name": "Initialized",
      "type": "event"
    },
    {
      "anonymous": false,
      "inputs": [
        {
          "indexed": true,
          "internalType": "address",
          "name": "previousOwner",
          "type": "address"
        },
        {
          "indexed": true,
          "internalType": "address",
          "name": "newOwner",
          "type": "address"
        }
      ],
      "name": "OwnershipTransferStarted",
      "type": "event"
    },
    {
      "anonymous": false,
      "inputs": [
        {
          "indexed": true,
          "internalType": "address",
          "name": "previousOwner",
          "type": "address"
        },
        {
          "indexed": true,
          "internalType": "address",
          "name": "newOwner",
          "type": "address"
        }
      ],
      "name": "OwnershipTransferred",
      "type": "event"
    },
    {
      "anonymous": false,
      "inputs": [
        {
          "indexed": true,
          "internalType": "bytes32",
          "name": "role",
          "type": "bytes32"
        },
        {
          "indexed": true,
          "internalType": "bytes32",
          "name": "previousAdminRole",
          "type": "bytes32"
        },
        {
          "indexed": true,
          "internalType": "bytes32",
          "name": "newAdminRole",
          "type": "bytes32"
        }
      ],
      "name": "RoleAdminChanged",
      "type": "event"
    },
    {
      "anonymous": false,
      "inputs": [
        {
          "indexed": true,
          "internalType": "bytes32",
          "name": "role",
          "type": "bytes32"
        },
        {
          "indexed": true,
          "internalType": "address",
          "name": "account",
          "type": "address"
        },
        {
          "indexed": true,
          "internalType": "address",
          "name": "sender",
          "type": "address"
        }
      ],
      "name": "RoleGranted",
      "type": "event"
    },
    {
      "anonymous": false,
      "inputs": [
        {
          "indexed": true,
          "internalType": "bytes32",
          "name": "role",
          "type": "bytes32"
        },
        {
          "indexed": true,
          "internalType": "address",
          "name": "account",
          "type": "address"
        },
        {
          "indexed": true,
          "internalType": "address",
          "name": "sender",
          "type": "address"
        }
      ],
      "name": "RoleRevoked",
      "type": "event"
    },
    {
      "anonymous": false,
      "inputs": [
        {
          "indexed": true,
          "internalType": "address",
          "name": "oracle",
          "type": "address"
        }
      ],
      "name": "SetOracle",
      "type": "event"
    },
    {
      "anonymous": false,
      "inputs": [
        {
          "indexed": true,
          "internalType": "address",
          "name": "solvBTCMultiAssetPool",
          "type": "address"
        }
      ],
      "name": "SetSolvBTCMultiAssetPool",
      "type": "event"
    },
    {
      "anonymous": false,
      "inputs": [
        {
          "indexed": true,
          "internalType": "address",
          "name": "from",
          "type": "address"
        },
        {
          "indexed": true,
          "internalType": "address",
          "name": "to",
          "type": "address"
        },
        {
          "indexed": false,
          "internalType": "uint256",
          "name": "value",
          "type": "uint256"
        }
      ],
      "name": "Transfer",
      "type": "event"
    },
    {
      "inputs": [],
      "name": "DEFAULT_ADMIN_ROLE",
      "outputs": [
        {
          "internalType": "bytes32",
          "name": "",
          "type": "bytes32"
        }
      ],
      "stateMutability": "view",
      "type": "function"
    },
    {
      "inputs": [],
      "name": "SOLVBTC_MINTER_ROLE",
      "outputs": [
        {
          "internalType": "bytes32",
          "name": "",
          "type": "bytes32"
        }
      ],
      "stateMutability": "view",
      "type": "function"
    },
    {
      "inputs": [],
      "name": "SOLVBTC_POOL_BURNER_ROLE",
      "outputs": [
        {
          "internalType": "bytes32",
          "name": "",
          "type": "bytes32"
        }
      ],
      "stateMutability": "view",
      "type": "function"
    },
    {
      "inputs": [],
      "name": "acceptOwnership",
      "outputs": [],
      "stateMutability": "nonpayable",
      "type": "function"
    },
    {
      "inputs": [
        {
          "internalType": "address",
          "name": "owner",
          "type": "address"
        },
        {
          "internalType": "address",
          "name": "spender",
          "type": "address"
        }
      ],
      "name": "allowance",
      "outputs": [
        {
          "internalType": "uint256",
          "name": "",
          "type": "uint256"
        }
      ],
      "stateMutability": "view",
      "type": "function"
    },
    {
      "inputs": [
        {
          "internalType": "address",
          "name": "spender",
          "type": "address"
        },
        {
          "internalType": "uint256",
          "name": "value",
          "type": "uint256"
        }
      ],
      "name": "approve",
      "outputs": [
        {
          "internalType": "bool",
          "name": "",
          "type": "bool"
        }
      ],
      "stateMutability": "nonpayable",
      "type": "function"
    },
    {
      "inputs": [
        {
          "internalType": "address",
          "name": "account",
          "type": "address"
        }
      ],
      "name": "balanceOf",
      "outputs": [
        {
          "internalType": "uint256",
          "name": "",
          "type": "uint256"
        }
      ],
      "stateMutability": "view",
      "type": "function"
    },
    {
      "inputs": [
        {
          "internalType": "uint256",
          "name": "value_",
          "type": "uint256"
        }
      ],
      "name": "burn",
      "outputs": [],
      "stateMutability": "nonpayable",
      "type": "function"
    },
    {
      "inputs": [
        {
          "internalType": "address",
          "name": "account_",
          "type": "address"
        },
        {
          "internalType": "uint256",
          "name": "value_",
          "type": "uint256"
        }
      ],
      "name": "burn",
      "outputs": [],
      "stateMutability": "nonpayable",
      "type": "function"
    },
    {
      "inputs": [],
      "name": "decimals",
      "outputs": [
        {
          "internalType": "uint8",
          "name": "",
          "type": "uint8"
        }
      ],
      "stateMutability": "view",
      "type": "function"
    },
    {
      "inputs": [],
      "name": "getOracle",
      "outputs": [
        {
          "internalType": "address",
          "name": "",
          "type": "address"
        }
      ],
      "stateMutability": "view",
      "type": "function"
    },
    {
      "inputs": [],
      "name": "getOracleDecimals",
      "outputs": [
        {
          "internalType": "uint8",
          "name": "",
          "type": "uint8"
        }
      ],
      "stateMutability": "view",
      "type": "function"
    },
    {
      "inputs": [
        {
          "internalType": "bytes32",
          "name": "role",
          "type": "bytes32"
        }
      ],
      "name": "getRoleAdmin",
      "outputs": [
        {
          "internalType": "bytes32",
          "name": "",
          "type": "bytes32"
        }
      ],
      "stateMutability": "view",
      "type": "function"
    },
    {
      "inputs": [
        {
          "internalType": "uint256",
          "name": "value",
          "type": "uint256"
        }
      ],
      "name": "getSharesByValue",
      "outputs": [
        {
          "internalType": "uint256",
          "name": "shares",
          "type": "uint256"
        }
      ],
      "stateMutability": "view",
      "type": "function"
    },
    {
      "inputs": [
        {
          "internalType": "uint256",
          "name": "shares",
          "type": "uint256"
        }
      ],
      "name": "getValueByShares",
      "outputs": [
        {
          "internalType": "uint256",
          "name": "value",
          "type": "uint256"
        }
      ],
      "stateMutability": "view",
      "type": "function"
    },
    {
      "inputs": [
        {
          "internalType": "bytes32",
          "name": "role",
          "type": "bytes32"
        },
        {
          "internalType": "address",
          "name": "account",
          "type": "address"
        }
      ],
      "name": "grantRole",
      "outputs": [],
      "stateMutability": "nonpayable",
      "type": "function"
    },
    {
      "inputs": [
        {
          "internalType": "bytes32",
          "name": "role",
          "type": "bytes32"
        },
        {
          "internalType": "address",
          "name": "account",
          "type": "address"
        }
      ],
      "name": "hasRole",
      "outputs": [
        {
          "internalType": "bool",
          "name": "",
          "type": "bool"
        }
      ],
      "stateMutability": "view",
      "type": "function"
    },
    {
      "inputs": [],
      "name": "holdingValueSftId",
      "outputs": [
        {
          "internalType": "uint256",
          "name": "",
          "type": "uint256"
        }
      ],
      "stateMutability": "view",
      "type": "function"
    },
    {
      "inputs": [
        {
          "internalType": "string",
          "name": "name_",
          "type": "string"
        },
        {
          "internalType": "string",
          "name": "symbol_",
          "type": "string"
        }
      ],
      "name": "initialize",
      "outputs": [],
      "stateMutability": "nonpayable",
      "type": "function"
    },
    {
      "inputs": [
        {
          "internalType": "address",
          "name": "solvBTCMultiAssetPool_",
          "type": "address"
        }
      ],
      "name": "initializeV2",
      "outputs": [],
      "stateMutability": "nonpayable",
      "type": "function"
    },
    {
      "inputs": [
        {
          "internalType": "address",
          "name": "account_",
          "type": "address"
        },
        {
          "internalType": "uint256",
          "name": "value_",
          "type": "uint256"
        }
      ],
      "name": "mint",
      "outputs": [],
      "stateMutability": "nonpayable",
      "type": "function"
    },
    {
      "inputs": [],
      "name": "name",
      "outputs": [
        {
          "internalType": "string",
          "name": "",
          "type": "string"
        }
      ],
      "stateMutability": "view",
      "type": "function"
    },
    {
      "inputs": [],
      "name": "navOracle",
      "outputs": [
        {
          "internalType": "address",
          "name": "",
          "type": "address"
        }
      ],
      "stateMutability": "view",
      "type": "function"
    },
    {
      "inputs": [
        {
          "internalType": "address",
          "name": "",
          "type": "address"
        },
        {
          "internalType": "uint256",
          "name": "",
          "type": "uint256"
        },
        {
          "internalType": "uint256",
          "name": "",
          "type": "uint256"
        },
        {
          "internalType": "uint256",
          "name": "",
          "type": "uint256"
        },
        {
          "internalType": "bytes",
          "name": "",
          "type": "bytes"
        }
      ],
      "name": "onERC3525Received",
      "outputs": [
        {
          "internalType": "bytes4",
          "name": "",
          "type": "bytes4"
        }
      ],
      "stateMutability": "nonpayable",
      "type": "function"
    },
    {
      "inputs": [
        {
          "internalType": "address",
          "name": "",
          "type": "address"
        },
        {
          "internalType": "address",
          "name": "",
          "type": "address"
        },
        {
          "internalType": "uint256",
          "name": "",
          "type": "uint256"
        },
        {
          "internalType": "bytes",
          "name": "",
          "type": "bytes"
        }
      ],
      "name": "onERC721Received",
      "outputs": [
        {
          "internalType": "bytes4",
          "name": "",
          "type": "bytes4"
        }
      ],
      "stateMutability": "nonpayable",
      "type": "function"
    },
    {
      "inputs": [],
      "name": "owner",
      "outputs": [
        {
          "internalType": "address",
          "name": "",
          "type": "address"
        }
      ],
      "stateMutability": "view",
      "type": "function"
    },
    {
      "inputs": [],
      "name": "pendingOwner",
      "outputs": [
        {
          "internalType": "address",
          "name": "",
          "type": "address"
        }
      ],
      "stateMutability": "view",
      "type": "function"
    },
    {
      "inputs": [],
      "name": "renounceOwnership",
      "outputs": [],
      "stateMutability": "nonpayable",
      "type": "function"
    },
    {
      "inputs": [
        {
          "internalType": "bytes32",
          "name": "role",
          "type": "bytes32"
        },
        {
          "internalType": "address",
          "name": "callerConfirmation",
          "type": "address"
        }
      ],
      "name": "renounceRole",
      "outputs": [],
      "stateMutability": "nonpayable",
      "type": "function"
    },
    {
      "inputs": [
        {
          "internalType": "bytes32",
          "name": "role",
          "type": "bytes32"
        },
        {
          "internalType": "address",
          "name": "account",
          "type": "address"
        }
      ],
      "name": "revokeRole",
      "outputs": [],
      "stateMutability": "nonpayable",
      "type": "function"
    },
    {
      "inputs": [
        {
          "internalType": "address",
          "name": "oracle_",
          "type": "address"
        }
      ],
      "name": "setOracle",
      "outputs": [],
      "stateMutability": "nonpayable",
      "type": "function"
    },
    {
      "inputs": [],
      "name": "solvBTCMultiAssetPool",
      "outputs": [
        {
          "internalType": "address",
          "name": "",
          "type": "address"
        }
      ],
      "stateMutability": "view",
      "type": "function"
    },
    {
      "inputs": [
        {
          "internalType": "bytes4",
          "name": "interfaceId",
          "type": "bytes4"
        }
      ],
      "name": "supportsInterface",
      "outputs": [
        {
          "internalType": "bool",
          "name": "",
          "type": "bool"
        }
      ],
      "stateMutability": "view",
      "type": "function"
    },
    {
      "inputs": [
        {
          "internalType": "address",
          "name": "sft_",
          "type": "address"
        },
        {
          "internalType": "uint256",
          "name": "sweepAmount_",
          "type": "uint256"
        }
      ],
      "name": "sweepEmptySftIds",
      "outputs": [],
      "stateMutability": "nonpayable",
      "type": "function"
    },
    {
      "inputs": [],
      "name": "symbol",
      "outputs": [
        {
          "internalType": "string",
          "name": "",
          "type": "string"
        }
      ],
      "stateMutability": "view",
      "type": "function"
    },
    {
      "inputs": [],
      "name": "totalSupply",
      "outputs": [
        {
          "internalType": "uint256",
          "name": "",
          "type": "uint256"
        }
      ],
      "stateMutability": "view",
      "type": "function"
    },
    {
      "inputs": [
        {
          "internalType": "address",
          "name": "to",
          "type": "address"
        },
        {
          "internalType": "uint256",
          "name": "value",
          "type": "uint256"
        }
      ],
      "name": "transfer",
      "outputs": [
        {
          "internalType": "bool",
          "name": "",
          "type": "bool"
        }
      ],
      "stateMutability": "nonpayable",
      "type": "function"
    },
    {
      "inputs": [
        {
          "internalType": "address",
          "name": "from",
          "type": "address"
        },
        {
          "internalType": "address",
          "name": "to",
          "type": "address"
        },
        {
          "internalType": "uint256",
          "name": "value",
          "type": "uint256"
        }
      ],
      "name": "transferFrom",
      "outputs": [
        {
          "internalType": "bool",
          "name": "",
          "type": "bool"
        }
      ],
      "stateMutability": "nonpayable",
      "type": "function"
    },
    {
      "inputs": [
        {
          "internalType": "address",
          "name": "newOwner",
          "type": "address"
        }
      ],
      "name": "transferOwnership",
      "outputs": [],
      "stateMutability": "nonpayable",
      "type": "function"
    },
    {
      "inputs": [],
      "name": "wrappedSftAddress",
      "outputs": [
        {
          "internalType": "address",
          "name": "",
          "type": "address"
        }
      ],
      "stateMutability": "view",
      "type": "function"
    },
    {
      "inputs": [],
      "name": "wrappedSftSlot",
      "outputs": [
        {
          "internalType": "uint256",
          "name": "",
          "type": "uint256"
        }
      ],
      "stateMutability": "view",
      "type": "function"
    }
  ],
  "transactionHash": "0xbf6e6889c4406fd56ddac6a2c73062b5c9804d1ae8203d4c68741529cad77f6a",
  "args": [],
  "numDeployments": 1,
  "solcInputHash": "74d9560a102aca486df82e97589fd0d1",
  "bytecode": "0x60806040523480156200001157600080fd5b506200001c6200002c565b620000266200002c565b620000e0565b7ff0c57e16840df040f15088dc2f81fe391c3923bec73e23a9662efc9c229c6a00805468010000000000000000900460ff16156200007d5760405163f92ee8a960e01b815260040160405180910390fd5b80546001600160401b0390811614620000dd5780546001600160401b0319166001600160401b0390811782556040519081527fc7f505b2f371ae2175ee4913f4499e1f2633a7b5936321eed1cdaeb6115181d29060200160405180910390a15b50565b61210680620000f06000396000f3fe608060405234801561001057600080fd5b50600436106101e25760003560e01c80629ce20b146101e757806301ffc9a71461021857806306fdde031461023b578063095ea7b314610250578063150b7a021461026357806318160ddd146102765780631a026b811461028c57806323b872dd146102a6578063248a9ca3146102b957806329b6eca9146102cc5780632f2ff15d146102e1578063313ce567146102f457806336568abe146102fb57806340c10f191461030e57806342966c681461032157806344b32bd11461033457806349d4640d1461033d5780634cd88b761461035d5780634eb079811461037057806370a0823114610379578063715018a61461038c57806371e26e001461039457806379ba5097146103a75780637adbf973146103af578063833b1fce146103c25780638da5cb5b146103ca57806391d14854146103d257806395d89b41146103e557806396c49597146103ed5780639dc29fac146103f5578063a217fddf14610408578063a49630b214610410578063a9059cbb14610418578063baecd3261461042b578063d547741f1461043e578063dd62ed3e14610451578063e30c397814610464578063e31c3a901461046c578063f2fde38b1461047f578063f443a35b14610492578063fd94715b1461049a575b600080fd5b6101fa6101f536600461197c565b6104ad565b6040516001600160e01b031990911681526020015b60405180910390f35b61022b6102263660046119ec565b6104d3565b604051901515815260200161020f565b610243610533565b60405161020f9190611a16565b61022b61025e366004611a64565b6105d4565b6101fa610271366004611a8e565b6105ec565b61027e610609565b60405190815260200161020f565b61029461061e565b60405160ff909116815260200161020f565b61022b6102b4366004611afc565b610699565b61027e6102c7366004611b38565b6106bd565b6102df6102da366004611b51565b6106dd565b005b6102df6102ef366004611b6c565b610845565b6012610294565b6102df610309366004611b6c565b610867565b6102df61031c366004611a64565b61089f565b6102df61032f366004611b38565b61093c565b61027e60035481565b600254610350906001600160a01b031681565b60405161020f9190611b98565b6102df61036b366004611c4e565b6109a8565b61027e60015481565b61027e610387366004611b51565b610a9e565b6102df610ac9565b61027e6103a2366004611b38565b610add565b6102df610b7d565b6102df6103bd366004611b51565b610bb9565b610350610c7f565b610350610c9a565b61022b6103e0366004611b6c565b610ca5565b610243610cdb565b61027e610cf8565b6102df610403366004611a64565b610d20565b61027e600081565b61027e610d80565b61022b610426366004611a64565b610d8f565b600054610350906001600160a01b031681565b6102df61044c366004611b6c565b610d9d565b61027e61045f366004611cb1565b610db9565b610350610df5565b61027e61047a366004611b38565b610e00565b6102df61048d366004611b51565b610eae565b610350610f1f565b6102df6104a8366004611a64565b610f2a565b60003360405163578f385f60e11b81526004016104ca9190611b98565b60405180910390fd5b60006001600160e01b03198216629ce20b60e01b148061050357506001600160e01b03198216630a85bd0160e11b145b8061051e57506001600160e01b031982166301ffc9a760e01b145b8061052d575061052d82610fd3565b92915050565b6060600061053f611008565b905080600301805461055090611cdb565b80601f016020809104026020016040519081016040528092919081815260200182805461057c90611cdb565b80156105c95780601f1061059e576101008083540402835291602001916105c9565b820191906000526020600020905b8154815290600101906020018083116105ac57829003601f168201915b505050505091505090565b6000336105e281858561102c565b5060019392505050565b600033604051637992d8e360e11b81526004016104ca9190611b98565b600080610614611008565b6002015492915050565b6000610628610c7f565b6001600160a01b031663ff554afa306040518263ffffffff1660e01b81526004016106539190611b98565b602060405180830381865afa158015610670573d6000803e3d6000fd5b505050506040513d601f19601f820116820180604052508101906106949190611d15565b905090565b6000336106a7858285611039565b6106b2858585611086565b506001949350505050565b6000806106c86110e5565b60009384526020525050604090206001015490565b600260006106e9611109565b8054909150600160401b900460ff1680610710575080546001600160401b03808416911610155b1561072e5760405163f92ee8a960e01b815260040160405180910390fd5b80546001600160481b0319166001600160401b03831617600160401b1781557355c09707fd7afd670e82a62faee312903940013e33146107a65760405162461bcd60e51b815260206004820152601360248201527229b7b63b212a219d1037b7363c9037bbb732b960691b60448201526064016104ca565b6107af3361112d565b6107ba600033611150565b506107c4836111f1565b600354156107ec576000546107ec906001600160a01b03166107e4610f1f565b60035461131e565b600080546001600160a01b031990811682556001829055600280549091169055600355805460ff60401b191681556040516000805160206120b183398151915290610838908490611d38565b60405180910390a1505050565b61084e826106bd565b6108578161138f565b6108618383611150565b50505050565b6001600160a01b03811633146108905760405163334bd91960e11b815260040160405180910390fd5b61089a8282611399565b505050565b6108a7611411565b6040516020016108b690611d4c565b604051602081830303815290604052805190602001206108d58161138f565b600082116109255760405162461bcd60e51b815260206004820152601f60248201527f536f6c764254433a206d696e742076616c75652063616e6e6f7420626520300060448201526064016104ca565b61092f8383611447565b5061093861147d565b5050565b610944611411565b60405160200161095390611d4c565b604051602081830303815290604052805190602001206109728161138f565b600082116109925760405162461bcd60e51b81526004016104ca90611d66565b61099c338361148e565b506109a561147d565b50565b60006109b2611109565b805490915060ff600160401b82041615906001600160401b03166000811580156109d95750825b90506000826001600160401b031660011480156109f55750303b155b905081158015610a03575080155b15610a215760405163f92ee8a960e01b815260040160405180910390fd5b84546001600160401b03191660011785558315610a4a57845460ff60401b1916600160401b1785555b610a5487876114c4565b610a5c6114d6565b8315610a9557845460ff60401b191685556040516000805160206120b183398151915290610a8c90600190611d38565b60405180910390a15b50505050505050565b600080610aa9611008565b6001600160a01b0390931660009081526020939093525050604090205490565b610ad16114e6565b610adb600061112d565b565b600080610ae8610c7f565b6001600160a01b031663fb596008306040518263ffffffff1660e01b8152600401610b139190611b98565b602060405180830381865afa158015610b30573d6000803e3d6000fd5b505050506040513d601f19601f82011682018060405250810190610b549190611d9d565b9050610b626012600a611eb0565b610b6c8285611ebf565b610b769190611ed6565b9392505050565b3380610b87610df5565b6001600160a01b031614610bb0578060405163118cdaa760e01b81526004016104ca9190611b98565b6109a58161112d565b610bc16114e6565b6001600160a01b038116610c295760405162461bcd60e51b815260206004820152602960248201527f536f6c764254435969656c64546f6b656e3a20696e76616c6964206f7261636c60448201526865206164647265737360b81b60648201526084016104ca565b6000610c33611518565b80546001600160a01b0319166001600160a01b0384169081178255604051919250907fd3b5d1e0ffaeff528910f3663f0adace7694ab8241d58e17a91351ced2e0803190600090a25050565b600080610c8a611518565b546001600160a01b031692915050565b600080610c8a61153c565b600080610cb06110e5565b6000948552602090815260408086206001600160a01b03959095168652939052505090205460ff1690565b60606000610ce7611008565b905080600401805461055090611cdb565b604051602001610d0790611d4c565b6040516020818303038152906040528051906020012081565b610d28611411565b604051602001610d3790611ef8565b60405160208183030381529060405280519060200120610d568161138f565b60008211610d765760405162461bcd60e51b81526004016104ca90611d66565b61092f838361148e565b604051602001610d0790611ef8565b6000336105e2818585611086565b610da6826106bd565b610daf8161138f565b6108618383611399565b600080610dc4611008565b6001600160a01b03948516600090815260019190910160209081526040808320959096168252939093525050205490565b600080610c8a611560565b600080610e0b610c7f565b6001600160a01b031663fb596008306040518263ffffffff1660e01b8152600401610e369190611b98565b602060405180830381865afa158015610e53573d6000803e3d6000fd5b505050506040513d601f19601f82011682018060405250810190610e779190611d9d565b90508015610ea55780610e8c6012600a611eb0565b610e969085611ebf565b610ea09190611ed6565b610b76565b60009392505050565b610eb66114e6565b6000610ec0611560565b80546001600160a01b0319166001600160a01b0384169081178255909150610ee6610c9a565b6001600160a01b03167f38d16b8cac22d99fc7c124b9cd0de2d3fa1faef420bfe791d8c362d765e2270060405160405180910390a35050565b600080610c8a611584565b60045460005b8181108015610f3e57508281105b15610fbc576004805460009190610f5790600190611f17565b81548110610f6757610f67611f2a565b90600052602060002001549050610f818561dead8361131e565b6004805480610f9257610f92611f40565b60019003818190600052602060002001600090559055508080610fb490611f56565b915050610f30565b5060045460000361089a5761089a600460006118e6565b60006001600160e01b03198216637965db0b60e01b148061052d57506301ffc9a760e01b6001600160e01b031983161461052d565b7f52c63247e1f47db19d5ce0460030c497f067ca4cebf71ba98eeadabe20bace0090565b61089a83838360016115a8565b60006110458484610db9565b90506000198114610861578181101561107757828183604051637dc7a0d960e11b81526004016104ca93929190611f6f565b610861848484840360006115a8565b6001600160a01b0383166110b0576000604051634b637e8f60e11b81526004016104ca9190611b98565b6001600160a01b0382166110da57600060405163ec442f0560e01b81526004016104ca9190611b98565b61089a83838361168d565b7f02dd7bc7dec4dceedda775e58dd541e08a116c6c53815c0bd028192f7b62680090565b7ff0c57e16840df040f15088dc2f81fe391c3923bec73e23a9662efc9c229c6a0090565b6000611137611560565b80546001600160a01b03191681559050610938826117b5565b60008061115b6110e5565b90506111678484610ca5565b6111e7576000848152602082815260408083206001600160a01b03871684529091529020805460ff1916600117905561119d3390565b6001600160a01b0316836001600160a01b0316857f2f8788117e7eff1d82e926ec794901d17c78024a50270940304540a733656f0d60405160405180910390a4600191505061052d565b600091505061052d565b6001600160a01b03811661125e5760405162461bcd60e51b815260206004820152602e60248201527f536f6c764254433a20696e76616c696420736f6c764254434d756c746941737360448201526d6574506f6f6c206164647265737360901b60648201526084016104ca565b6000611268611584565b80549091506001600160a01b0316156112d65760405162461bcd60e51b815260206004820152602a60248201527f536f6c764254433a20736f6c764254434d756c74694173736574506f6f6c20616044820152691b1c9958591e481cd95d60b21b60648201526084016104ca565b80546001600160a01b0319166001600160a01b03831690811782556040517fca50bd63f1ed14f8c03423aede72ac3139bde9189ea4b717d0e62ee0f4e7a89590600090a25050565b6040516323b872dd60e01b81523060048201526001600160a01b038381166024830152604482018390528491908216906323b872dd90606401600060405180830381600087803b15801561137157600080fd5b505af1158015611385573d6000803e3d6000fd5b5050505050505050565b6109a58133611811565b6000806113a46110e5565b90506113b08484610ca5565b156111e7576000848152602082815260408083206001600160a01b0387168085529252808320805460ff1916905551339287917ff6391f5c32d9c69d2a47ea670b442974b53935d1edc7fd64eb21e047a839171b9190a4600191505061052d565b600061141b61184a565b80549091506001190161144157604051633ee5aeb560e01b815260040160405180910390fd5b60029055565b6001600160a01b03821661147157600060405163ec442f0560e01b81526004016104ca9190611b98565b6109386000838361168d565b600061148761184a565b6001905550565b6001600160a01b0382166114b8576000604051634b637e8f60e11b81526004016104ca9190611b98565b6109388260008361168d565b6114cc61186e565b6109388282611893565b6114de61186e565b610adb6118c4565b336114ef610c9a565b6001600160a01b031614610adb573360405163118cdaa760e01b81526004016104ca9190611b98565b7ff05073905b1e64f5ceda3673d2f3281ec4d80a5b81532923554d53221166150090565b7f9016d09d72d40fdae2fd8ceac6b6234c7706214fd39c1cd1e609a0528c19930090565b7f237e158222e3e6968b72b9db0d8043aacf074ad9f650f0d1606b4d82ee432c0090565b7f25351088c72db31d4a47cbdabb12f8d9c124b300211236164ae294131705840090565b60006115b2611008565b90506001600160a01b0385166115de57600060405163e602df0560e01b81526004016104ca9190611b98565b6001600160a01b038416611608576000604051634a1406b160e11b81526004016104ca9190611b98565b6001600160a01b0380861660009081526001830160209081526040808320938816835292905220839055811561168657836001600160a01b0316856001600160a01b03167f8c5be1e5ebec7d5bd14f71427d1e84f3dd0314c0f7b2291e5b200ac8c7c3b9258560405161167d91815260200190565b60405180910390a35b5050505050565b6000611697611008565b90506001600160a01b0384166116c657818160020160008282546116bb9190611f90565b909155506117259050565b6001600160a01b038416600090815260208290526040902054828110156117065784818460405163391434e360e21b81526004016104ca93929190611f6f565b6001600160a01b03851660009081526020839052604090209083900390555b6001600160a01b038316611743576002810180548390039055611762565b6001600160a01b03831660009081526020829052604090208054830190555b826001600160a01b0316846001600160a01b03167fddf252ad1be2c89b69c2b068fc378daa952ba7f163c4a11628f55a4df523b3ef846040516117a791815260200190565b60405180910390a350505050565b60006117bf61153c565b80546001600160a01b038481166001600160a01b031983168117845560405193945091169182907f8be0079c531659141344cd1fd0a4f28419497f9722a3daafe3b4186f6b6457e090600090a3505050565b61181b8282610ca5565b6109385760405163e2517d3f60e01b81526001600160a01b0382166004820152602481018390526044016104ca565b7f9b779b17422d0df92223018b32b4d1fa46e071723d6817e2486d003becc55f0090565b6118766118cc565b610adb57604051631afcd79f60e31b815260040160405180910390fd5b61189b61186e565b60006118a5611008565b9050600381016118b58482611ff1565b50600481016108618382611ff1565b61147d61186e565b60006118d6611109565b54600160401b900460ff16919050565b50805460008255906000526020600020908101906109a591905b808211156119145760008155600101611900565b5090565b80356001600160a01b038116811461192f57600080fd5b919050565b60008083601f84011261194657600080fd5b5081356001600160401b0381111561195d57600080fd5b60208301915083602082850101111561197557600080fd5b9250929050565b60008060008060008060a0878903121561199557600080fd5b61199e87611918565b955060208701359450604087013593506060870135925060808701356001600160401b038111156119ce57600080fd5b6119da89828a01611934565b979a9699509497509295939492505050565b6000602082840312156119fe57600080fd5b81356001600160e01b031981168114610b7657600080fd5b600060208083528351808285015260005b81811015611a4357858101830151858201604001528201611a27565b506000604082860101526040601f19601f8301168501019250505092915050565b60008060408385031215611a7757600080fd5b611a8083611918565b946020939093013593505050565b600080600080600060808688031215611aa657600080fd5b611aaf86611918565b9450611abd60208701611918565b93506040860135925060608601356001600160401b03811115611adf57600080fd5b611aeb88828901611934565b969995985093965092949392505050565b600080600060608486031215611b1157600080fd5b611b1a84611918565b9250611b2860208501611918565b9150604084013590509250925092565b600060208284031215611b4a57600080fd5b5035919050565b600060208284031215611b6357600080fd5b610b7682611918565b60008060408385031215611b7f57600080fd5b82359150611b8f60208401611918565b90509250929050565b6001600160a01b0391909116815260200190565b634e487b7160e01b600052604160045260246000fd5b600082601f830112611bd357600080fd5b81356001600160401b0380821115611bed57611bed611bac565b604051601f8301601f19908116603f01168101908282118183101715611c1557611c15611bac565b81604052838152866020858801011115611c2e57600080fd5b836020870160208301376000602085830101528094505050505092915050565b60008060408385031215611c6157600080fd5b82356001600160401b0380821115611c7857600080fd5b611c8486838701611bc2565b93506020850135915080821115611c9a57600080fd5b50611ca785828601611bc2565b9150509250929050565b60008060408385031215611cc457600080fd5b611ccd83611918565b9150611b8f60208401611918565b600181811c90821680611cef57607f821691505b602082108103611d0f57634e487b7160e01b600052602260045260246000fd5b50919050565b600060208284031215611d2757600080fd5b815160ff81168114610b7657600080fd5b6001600160401b0391909116815260200190565b6d29a7a62b212a21afa6a4a72a22a960911b8152600e0190565b6020808252601f908201527f536f6c764254433a206275726e2076616c75652063616e6e6f74206265203000604082015260600190565b600060208284031215611daf57600080fd5b5051919050565b634e487b7160e01b600052601160045260246000fd5b600181815b80851115611e07578160001904821115611ded57611ded611db6565b80851615611dfa57918102915b93841c9390800290611dd1565b509250929050565b600082611e1e5750600161052d565b81611e2b5750600061052d565b8160018114611e415760028114611e4b57611e67565b600191505061052d565b60ff841115611e5c57611e5c611db6565b50506001821b61052d565b5060208310610133831016604e8410600b8410161715611e8a575081810a61052d565b611e948383611dcc565b8060001904821115611ea857611ea8611db6565b029392505050565b6000610b7660ff841683611e0f565b808202811582820484141761052d5761052d611db6565b600082611ef357634e487b7160e01b600052601260045260246000fd5b500490565b7229a7a62b212a21afa827a7a62fa12aa92722a960691b815260130190565b8181038181111561052d5761052d611db6565b634e487b7160e01b600052603260045260246000fd5b634e487b7160e01b600052603160045260246000fd5b600060018201611f6857611f68611db6565b5060010190565b6001600160a01b039390931683526020830191909152604082015260600190565b8082018082111561052d5761052d611db6565b601f82111561089a57600081815260208120601f850160051c81016020861015611fca5750805b601f850160051c820191505b81811015611fe957828155600101611fd6565b505050505050565b81516001600160401b0381111561200a5761200a611bac565b61201e816120188454611cdb565b84611fa3565b602080601f831160018114612053576000841561203b5750858301515b600019600386901b1c1916600185901b178555611fe9565b600085815260208120601f198616915b8281101561208257888601518255948401946001909101908401612063565b50858210156120a05787850151600019600388901b60f8161c191681555b5050505050600190811b0190555056fec7f505b2f371ae2175ee4913f4499e1f2633a7b5936321eed1cdaeb6115181d2a26469706673582212200dddf64f3e3314dee1c895348532d9eb87904b36af8b65cb2cf6698bf3dce98764736f6c63430008140033",
  "devdoc": {
    "errors": {
      "AccessControlBadConfirmation()": [
        {
          "details": "The caller of a function is not the expected one. NOTE: Don't confuse with {AccessControlUnauthorizedAccount}."
        }
      ],
      "AccessControlUnauthorizedAccount(address,bytes32)": [
        {
          "details": "The `account` is missing a role."
        }
      ],
      "ERC20InsufficientAllowance(address,uint256,uint256)": [
        {
          "details": "Indicates a failure with the `spender`s `allowance`. Used in transfers.",
          "params": {
            "allowance": "Amount of tokens a `spender` is allowed to operate with.",
            "needed": "Minimum amount required to perform a transfer.",
            "spender": "Address that may be allowed to operate on tokens without being their owner."
          }
        }
      ],
      "ERC20InsufficientBalance(address,uint256,uint256)": [
        {
          "details": "Indicates an error related to the current `balance` of a `sender`. Used in transfers.",
          "params": {
            "balance": "Current balance for the interacting account.",
            "needed": "Minimum amount required to perform a transfer.",
            "sender": "Address whose tokens are being transferred."
          }
        }
      ],
      "ERC20InvalidApprover(address)": [
        {
          "details": "Indicates a failure with the `approver` of a token to be approved. Used in approvals.",
          "params": {
            "approver": "Address initiating an approval operation."
          }
        }
      ],
      "ERC20InvalidReceiver(address)": [
        {
          "details": "Indicates a failure with the token `receiver`. Used in transfers.",
          "params": {
            "receiver": "Address to which tokens are being transferred."
          }
        }
      ],
      "ERC20InvalidSender(address)": [
        {
          "details": "Indicates a failure with the token `sender`. Used in transfers.",
          "params": {
            "sender": "Address whose tokens are being transferred."
          }
        }
      ],
      "ERC20InvalidSpender(address)": [
        {
          "details": "Indicates a failure with the `spender` to be approved. Used in approvals.",
          "params": {
            "spender": "Address that may be allowed to operate on tokens without being their owner."
          }
        }
      ],
      "InvalidInitialization()": [
        {
          "details": "The contract is already initialized."
        }
      ],
      "NotInitializing()": [
        {
          "details": "The contract is not initializing."
        }
      ],
      "OwnableInvalidOwner(address)": [
        {
          "details": "The owner is not a valid owner account. (eg. `address(0)`)"
        }
      ],
      "OwnableUnauthorizedAccount(address)": [
        {
          "details": "The caller account is not authorized to perform an operation."
        }
      ],
      "ReentrancyGuardReentrantCall()": [
        {
          "details": "Unauthorized reentrant call."
        }
      ]
    },
    "events": {
      "Approval(address,address,uint256)": {
        "details": "Emitted when the allowance of a `spender` for an `owner` is set by a call to {approve}. `value` is the new allowance."
      },
      "Initialized(uint64)": {
        "details": "Triggered when the contract has been initialized or reinitialized."
      },
      "RoleAdminChanged(bytes32,bytes32,bytes32)": {
        "details": "Emitted when `newAdminRole` is set as ``role``'s admin role, replacing `previousAdminRole` `DEFAULT_ADMIN_ROLE` is the starting admin for all roles, despite {RoleAdminChanged} not being emitted signaling this."
      },
      "RoleGranted(bytes32,address,address)": {
        "details": "Emitted when `account` is granted `role`. `sender` is the account that originated the contract call, an admin role bearer except when using {AccessControl-_setupRole}."
      },
      "RoleRevoked(bytes32,address,address)": {
        "details": "Emitted when `account` is revoked `role`. `sender` is the account that originated the contract call:   - if using `revokeRole`, it is the admin role bearer   - if using `renounceRole`, it is the role bearer (i.e. `account`)"
      },
      "Transfer(address,address,uint256)": {
        "details": "Emitted when `value` tokens are moved from one account (`from`) to another (`to`). Note that `value` may be zero."
      }
    },
    "kind": "dev",
    "methods": {
      "acceptOwnership()": {
        "details": "The new owner accepts the ownership transfer."
      },
      "allowance(address,address)": {
        "details": "See {IERC20-allowance}."
      },
      "approve(address,uint256)": {
        "details": "See {IERC20-approve}. NOTE: If `value` is the maximum `uint256`, the allowance is not updated on `transferFrom`. This is semantically equivalent to an infinite approval. Requirements: - `spender` cannot be the zero address."
      },
      "balanceOf(address)": {
        "details": "See {IERC20-balanceOf}."
      },
      "constructor": {
        "custom:oz-upgrades-unsafe-allow": "constructor"
      },
      "decimals()": {
        "details": "Returns the number of decimals used to get its user representation. For example, if `decimals` equals `2`, a balance of `505` tokens should be displayed to a user as `5.05` (`505 / 10 ** 2`). Tokens usually opt for a value of 18, imitating the relationship between Ether and Wei. This is the default value returned by this function, unless it's overridden. NOTE: This information is only used for _display_ purposes: it in no way affects any of the arithmetic of the contract, including {IERC20-balanceOf} and {IERC20-transfer}."
      },
      "getRoleAdmin(bytes32)": {
        "details": "Returns the admin role that controls `role`. See {grantRole} and {revokeRole}. To change a role's admin, use {_setRoleAdmin}."
      },
      "grantRole(bytes32,address)": {
        "details": "Grants `role` to `account`. If `account` had not been already granted `role`, emits a {RoleGranted} event. Requirements: - the caller must have ``role``'s admin role. May emit a {RoleGranted} event."
      },
      "hasRole(bytes32,address)": {
        "details": "Returns `true` if `account` has been granted `role`."
      },
      "name()": {
        "details": "Returns the name of the token."
      },
      "owner()": {
        "details": "Returns the address of the current owner."
      },
      "pendingOwner()": {
        "details": "Returns the address of the pending owner."
      },
      "renounceOwnership()": {
        "details": "Leaves the contract without owner. It will not be possible to call `onlyOwner` functions. Can only be called by the current owner. NOTE: Renouncing ownership will leave the contract without an owner, thereby disabling any functionality that is only available to the owner."
      },
      "renounceRole(bytes32,address)": {
        "details": "Revokes `role` from the calling account. Roles are often managed via {grantRole} and {revokeRole}: this function's purpose is to provide a mechanism for accounts to lose their privileges if they are compromised (such as when a trusted device is misplaced). If the calling account had been revoked `role`, emits a {RoleRevoked} event. Requirements: - the caller must be `callerConfirmation`. May emit a {RoleRevoked} event."
      },
      "revokeRole(bytes32,address)": {
        "details": "Revokes `role` from `account`. If `account` had been granted `role`, emits a {RoleRevoked} event. Requirements: - the caller must have ``role``'s admin role. May emit a {RoleRevoked} event."
      },
      "symbol()": {
        "details": "Returns the symbol of the token, usually a shorter version of the name."
      },
      "totalSupply()": {
        "details": "See {IERC20-totalSupply}."
      },
      "transfer(address,uint256)": {
        "details": "See {IERC20-transfer}. Requirements: - `to` cannot be the zero address. - the caller must have a balance of at least `value`."
      },
      "transferFrom(address,address,uint256)": {
        "details": "See {IERC20-transferFrom}. Emits an {Approval} event indicating the updated allowance. This is not required by the EIP. See the note at the beginning of {ERC20}. NOTE: Does not update the allowance if the current allowance is the maximum `uint256`. Requirements: - `from` and `to` cannot be the zero address. - `from` must have a balance of at least `value`. - the caller must have allowance for ``from``'s tokens of at least `value`."
      },
      "transferOwnership(address)": {
        "details": "Starts the ownership transfer of the contract to a new account. Replaces the pending transfer if there is one. Can only be called by the current owner."
      }
    },
    "version": 1
  },
  "userdoc": {
    "kind": "user",
    "methods": {
      "getSharesByValue(uint256)": {
        "notice": "Get amount of shares for a given amount of underlying asset."
      },
      "getValueByShares(uint256)": {
        "notice": "Get amount of underlying asset for a given amount of shares."
      }
    },
    "version": 1
  },
  "storageLayout": {
    "storage": [
      {
        "astId": 2305,
        "contract": "contracts/SolvBTCYieldToken.sol:SolvBTCYieldToken",
        "label": "wrappedSftAddress",
        "offset": 0,
        "slot": "0",
        "type": "t_address"
      },
      {
        "astId": 2307,
        "contract": "contracts/SolvBTCYieldToken.sol:SolvBTCYieldToken",
        "label": "wrappedSftSlot",
        "offset": 0,
        "slot": "1",
        "type": "t_uint256"
      },
      {
        "astId": 2309,
        "contract": "contracts/SolvBTCYieldToken.sol:SolvBTCYieldToken",
        "label": "navOracle",
        "offset": 0,
        "slot": "2",
        "type": "t_address"
      },
      {
        "astId": 2311,
        "contract": "contracts/SolvBTCYieldToken.sol:SolvBTCYieldToken",
        "label": "holdingValueSftId",
        "offset": 0,
        "slot": "3",
        "type": "t_uint256"
      },
      {
        "astId": 2314,
        "contract": "contracts/SolvBTCYieldToken.sol:SolvBTCYieldToken",
        "label": "_holdingEmptySftIds",
        "offset": 0,
        "slot": "4",
        "type": "t_array(t_uint256)dyn_storage"
      },
      {
        "astId": 2718,
        "contract": "contracts/SolvBTCYieldToken.sol:SolvBTCYieldToken",
        "label": "__gap",
        "offset": 0,
        "slot": "5",
        "type": "t_array(t_uint256)45_storage"
      }
    ],
    "types": {
      "t_address": {
        "encoding": "inplace",
        "label": "address",
        "numberOfBytes": "20"
      },
      "t_array(t_uint256)45_storage": {
        "base": "t_uint256",
        "encoding": "inplace",
        "label": "uint256[45]",
        "numberOfBytes": "1440"
      },
      "t_array(t_uint256)dyn_storage": {
        "base": "t_uint256",
        "encoding": "dynamic_array",
        "label": "uint256[]",
        "numberOfBytes": "32"
      },
      "t_uint256": {
        "encoding": "inplace",
        "label": "uint256",
        "numberOfBytes": "32"
      }
    }
  }
}