{
  "address": "0x1EEcD600819594308728383fAd726bfE548c8e2a",
  "abi": [
    {
      "inputs": [
        {
          "internalType": "address",
          "name": "admin_",
          "type": "address"
        },
        {
          "internalType": "address",
          "name": "governor_",
          "type": "address"
        }
      ],
      "stateMutability": "nonpayable",
      "type": "constructor"
    },
    {
      "anonymous": false,
      "inputs": [
        {
          "indexed": true,
          "internalType": "string",
          "name": "productType",
          "type": "string"
        },
        {
          "indexed": true,
          "internalType": "address",
          "name": "beacon",
          "type": "address"
        },
        {
          "indexed": true,
          "internalType": "address",
          "name": "implementation",
          "type": "address"
        }
      ],
      "name": "ImportBeacon",
      "type": "event"
    },
    {
      "anonymous": false,
      "inputs": [
        {
          "indexed": true,
          "internalType": "string",
          "name": "productType",
          "type": "string"
        },
        {
          "indexed": true,
          "internalType": "string",
          "name": "productName",
          "type": "string"
        },
        {
          "indexed": true,
          "internalType": "address",
          "name": "beaconProxy",
          "type": "address"
        }
      ],
      "name": "ImportBeaconProxy",
      "type": "event"
    },
    {
      "anonymous": false,
      "inputs": [
        {
          "indexed": false,
          "internalType": "address",
          "name": "oldAdmin",
          "type": "address"
        },
        {
          "indexed": false,
          "internalType": "address",
          "name": "newAdmin",
          "type": "address"
        }
      ],
      "name": "NewAdmin",
      "type": "event"
    },
    {
      "anonymous": false,
      "inputs": [
        {
          "indexed": true,
          "internalType": "string",
          "name": "productType",
          "type": "string"
        },
        {
          "indexed": true,
          "internalType": "address",
          "name": "beacon",
          "type": "address"
        },
        {
          "indexed": true,
          "internalType": "address",
          "name": "implementation",
          "type": "address"
        }
      ],
      "name": "NewBeacon",
      "type": "event"
    },
    {
      "anonymous": false,
      "inputs": [
        {
          "indexed": true,
          "internalType": "string",
          "name": "productType",
          "type": "string"
        },
        {
          "indexed": true,
          "internalType": "string",
          "name": "productName",
          "type": "string"
        },
        {
          "indexed": true,
          "internalType": "address",
          "name": "beaconProxy",
          "type": "address"
        }
      ],
      "name": "NewBeaconProxy",
      "type": "event"
    },
    {
      "anonymous": false,
      "inputs": [
        {
          "indexed": false,
          "internalType": "address",
          "name": "oldGovernor",
          "type": "address"
        },
        {
          "indexed": false,
          "internalType": "address",
          "name": "newGovernor",
          "type": "address"
        }
      ],
      "name": "NewGovernor",
      "type": "event"
    },
    {
      "anonymous": false,
      "inputs": [
        {
          "indexed": true,
          "internalType": "string",
          "name": "productType",
          "type": "string"
        },
        {
          "indexed": true,
          "internalType": "address",
          "name": "implementation",
          "type": "address"
        }
      ],
      "name": "NewImplementation",
      "type": "event"
    },
    {
      "anonymous": false,
      "inputs": [
        {
          "indexed": false,
          "internalType": "address",
          "name": "oldPendingAdmin",
          "type": "address"
        },
        {
          "indexed": false,
          "internalType": "address",
          "name": "newPendingAdmin",
          "type": "address"
        }
      ],
      "name": "NewPendingAdmin",
      "type": "event"
    },
    {
      "anonymous": false,
      "inputs": [
        {
          "indexed": false,
          "internalType": "address",
          "name": "oldPendingGovernor",
          "type": "address"
        },
        {
          "indexed": false,
          "internalType": "address",
          "name": "newPendingGovernor",
          "type": "address"
        }
      ],
      "name": "NewPendingGovernor",
      "type": "event"
    },
    {
      "anonymous": false,
      "inputs": [
        {
          "indexed": true,
          "internalType": "string",
          "name": "productType",
          "type": "string"
        },
        {
          "indexed": true,
          "internalType": "string",
          "name": "productName",
          "type": "string"
        },
        {
          "indexed": true,
          "internalType": "address",
          "name": "beaconProxy",
          "type": "address"
        }
      ],
      "name": "RemoveBeaconProxy",
      "type": "event"
    },
    {
      "anonymous": false,
      "inputs": [
        {
          "indexed": true,
          "internalType": "string",
          "name": "productType",
          "type": "string"
        },
        {
          "indexed": true,
          "internalType": "address",
          "name": "beacon",
          "type": "address"
        },
        {
          "indexed": true,
          "internalType": "address",
          "name": "newOwner",
          "type": "address"
        }
      ],
      "name": "TransferBeaconOwnership",
      "type": "event"
    },
    {
      "anonymous": false,
      "inputs": [
        {
          "indexed": true,
          "internalType": "string",
          "name": "productType",
          "type": "string"
        },
        {
          "indexed": true,
          "internalType": "address",
          "name": "beacon",
          "type": "address"
        },
        {
          "indexed": true,
          "internalType": "address",
          "name": "implementation",
          "type": "address"
        }
      ],
      "name": "UpgradeBeacon",
      "type": "event"
    },
    {
      "inputs": [],
      "name": "acceptAdmin",
      "outputs": [],
      "stateMutability": "nonpayable",
      "type": "function"
    },
    {
      "inputs": [],
      "name": "acceptGovernance",
      "outputs": [],
      "stateMutability": "nonpayable",
      "type": "function"
    },
    {
      "inputs": [],
      "name": "admin",
      "outputs": [
        {
          "internalType": "address",
          "name": "",
          "type": "address"
        }
      ],
      "stateMutability": "view",
      "type": "function"
    },
    {
      "inputs": [
        {
          "internalType": "string",
          "name": "productType_",
          "type": "string"
        },
        {
          "internalType": "string",
          "name": "productName_",
          "type": "string"
        },
        {
          "internalType": "string",
          "name": "tokenName_",
          "type": "string"
        },
        {
          "internalType": "string",
          "name": "tokenSymbol_",
          "type": "string"
        },
        {
          "internalType": "address",
          "name": "owner_",
          "type": "address"
        }
      ],
      "name": "deployProductProxy",
      "outputs": [
        {
          "internalType": "address",
          "name": "proxy_",
          "type": "address"
        }
      ],
      "stateMutability": "nonpayable",
      "type": "function"
    },
    {
      "inputs": [
        {
          "internalType": "string",
          "name": "productType_",
          "type": "string"
        }
      ],
      "name": "getBeacon",
      "outputs": [
        {
          "internalType": "address",
          "name": "",
          "type": "address"
        }
      ],
      "stateMutability": "view",
      "type": "function"
    },
    {
      "inputs": [
        {
          "internalType": "string",
          "name": "productType_",
          "type": "string"
        }
      ],
      "name": "getImplementation",
      "outputs": [
        {
          "internalType": "address",
          "name": "",
          "type": "address"
        }
      ],
      "stateMutability": "view",
      "type": "function"
    },
    {
      "inputs": [
        {
          "internalType": "string",
          "name": "productType_",
          "type": "string"
        },
        {
          "internalType": "string",
          "name": "productName_",
          "type": "string"
        }
      ],
      "name": "getProxy",
      "outputs": [
        {
          "internalType": "address",
          "name": "",
          "type": "address"
        }
      ],
      "stateMutability": "view",
      "type": "function"
    },
    {
      "inputs": [],
      "name": "governor",
      "outputs": [
        {
          "internalType": "address",
          "name": "",
          "type": "address"
        }
      ],
      "stateMutability": "view",
      "type": "function"
    },
    {
      "inputs": [
        {
          "internalType": "string",
          "name": "productType_",
          "type": "string"
        },
        {
          "internalType": "address",
          "name": "beacon_",
          "type": "address"
        }
      ],
      "name": "importBeacon",
      "outputs": [],
      "stateMutability": "nonpayable",
      "type": "function"
    },
    {
      "inputs": [
        {
          "internalType": "string",
          "name": "productType_",
          "type": "string"
        },
        {
          "internalType": "string",
          "name": "productName_",
          "type": "string"
        },
        {
          "internalType": "address",
          "name": "proxy_",
          "type": "address"
        }
      ],
      "name": "importProductProxy",
      "outputs": [],
      "stateMutability": "nonpayable",
      "type": "function"
    },
    {
      "inputs": [],
      "name": "pendingAdmin",
      "outputs": [
        {
          "internalType": "address",
          "name": "",
          "type": "address"
        }
      ],
      "stateMutability": "view",
      "type": "function"
    },
    {
      "inputs": [],
      "name": "pendingGovernor",
      "outputs": [
        {
          "internalType": "address",
          "name": "",
          "type": "address"
        }
      ],
      "stateMutability": "view",
      "type": "function"
    },
    {
      "inputs": [
        {
          "internalType": "string",
          "name": "",
          "type": "string"
        }
      ],
      "name": "productTypes",
      "outputs": [
        {
          "internalType": "address",
          "name": "implementation",
          "type": "address"
        },
        {
          "internalType": "address",
          "name": "beacon",
          "type": "address"
        }
      ],
      "stateMutability": "view",
      "type": "function"
    },
    {
      "inputs": [
        {
          "internalType": "string",
          "name": "productType_",
          "type": "string"
        },
        {
          "internalType": "string",
          "name": "productName_",
          "type": "string"
        }
      ],
      "name": "removeProductProxy",
      "outputs": [],
      "stateMutability": "nonpayable",
      "type": "function"
    },
    {
      "inputs": [
        {
          "internalType": "string",
          "name": "productType_",
          "type": "string"
        },
        {
          "internalType": "address",
          "name": "implementation_",
          "type": "address"
        }
      ],
      "name": "setImplementation",
      "outputs": [
        {
          "internalType": "address",
          "name": "beacon_",
          "type": "address"
        }
      ],
      "stateMutability": "nonpayable",
      "type": "function"
    },
    {
      "inputs": [
        {
          "internalType": "address",
          "name": "newPendingAdmin_",
          "type": "address"
        }
      ],
      "name": "transferAdmin",
      "outputs": [],
      "stateMutability": "nonpayable",
      "type": "function"
    },
    {
      "inputs": [
        {
          "internalType": "string",
          "name": "productType_",
          "type": "string"
        },
        {
          "internalType": "address",
          "name": "newOwner_",
          "type": "address"
        }
      ],
      "name": "transferBeaconOwnership",
      "outputs": [],
      "stateMutability": "nonpayable",
      "type": "function"
    },
    {
      "inputs": [
        {
          "internalType": "address",
          "name": "newPendingGovernor_",
          "type": "address"
        }
      ],
      "name": "transferGovernance",
      "outputs": [],
      "stateMutability": "nonpayable",
      "type": "function"
    }
  ],
  "transactionHash": "0x0909b0359d98ee4469077349b794a6d001b918fc284f7000e4235582ef609dd4",
  "args": [
    "0x4b2e4cAc67786778c79beCcC8c800E325Ab3bDDa",
    "0x4b2e4cAc67786778c79beCcC8c800E325Ab3bDDa"
  ],
  "numDeployments": 1,
  "solcInputHash": "27751569a6088729587234b0bc54f959",
  "bytecode": "0x60806040523480156200001157600080fd5b50604051620023e9380380620023e98339810160408190526200003491620001c0565b600080546001600160a01b0319166001600160a01b038416178155604051829184917ff9ffabca9c8276e99321725bcb43fb076a6c66a54b7f21c4e8146d8519b417dc9162000085918490620001f8565b60405180910390a150600280546001600160a01b0319166001600160a01b0383161790556040517f1ba669d4a78521f2ad26e8e0fcbcdd626a63f34d68f326bc232a3abe2a5d042a90620000de906000908490620001f8565b60405180910390a1506001600160a01b038216620001435760405162461bcd60e51b815260206004820152601d60248201527f536f6c76425443466163746f72793a20696e76616c69642061646d696e00000060448201526064015b60405180910390fd5b6001600160a01b0381166200019b5760405162461bcd60e51b815260206004820181905260248201527f536f6c76425443466163746f72793a20696e76616c696420676f7665726e6f7260448201526064016200013a565b505062000212565b80516001600160a01b0381168114620001bb57600080fd5b919050565b60008060408385031215620001d457600080fd5b620001df83620001a3565b9150620001ef60208401620001a3565b90509250929050565b6001600160a01b0392831681529116602082015260400190565b6121c780620002226000396000f3fe60806040523480156200001157600080fd5b5060043610620000fa5760003560e01c806302bc365c14620000ff57806303789a5b146200011857806306419fe5146200012f5780630c340a24146200015e5780630ddcef5314620001725780630e18b6811462000189578063238efcbc146200019357806326782247146200019d5780636b68389614620001b157806375829def14620001c8578063a04c507914620001df578063a844babb14620001f6578063bc47eb1d1462000248578063d38bfff4146200025f578063e3056a341462000276578063f5dccfa1146200028a578063f851a44014620002a1578063fb8d872b14620002b5575b600080fd5b620001166200011036600462001300565b620002cc565b005b620001166200012936600462001383565b62000461565b620001466200014036600462001383565b620005ec565b604051620001559190620013da565b60405180910390f35b60025462000146906001600160a01b031681565b6200014662000183366004620013ee565b62000946565b620001166200097c565b6200011662000a41565b60015462000146906001600160a01b031681565b62000146620001c2366004620013ee565b62000ae2565b62000116620001d93660046200142e565b62000b15565b62000116620001f036600462001383565b62000bad565b6200023862000207366004620013ee565b8051602081830181018051600482529282019190930120915280546001909101546001600160a01b03918216911682565b6040516200015592919062001455565b620001466200025936600462001300565b62000cbb565b62000116620002703660046200142e565b62000d11565b60035462000146906001600160a01b031681565b620001166200029b3660046200146f565b62000da9565b60005462000146906001600160a01b031681565b62000146620002c6366004620014ef565b62000eec565b6000546001600160a01b03163314620003025760405162461bcd60e51b8152600401620002f990620015bf565b60405180910390fd5b600060048360405162000316919062001609565b90815260200160405180910390206002018260405162000337919062001609565b908152604051908190036020019020546001600160a01b0316905080620003ac5760405162461bcd60e51b815260206004820152602260248201527f536f6c76425443466163746f72793a2070726f7879206e6f74206465706c6f79604482015261195960f21b6064820152608401620002f9565b600483604051620003be919062001609565b908152602001604051809103902060020182604051620003df919062001609565b90815260405190819003602001812080546001600160a01b03191690556001600160a01b038216906200041490849062001609565b6040518091039020846040516200042c919062001609565b604051908190038120907f72871655cb8e08a51370cd107b066dc7fa642b39f87eba10447580209c3207cc90600090a4505050565b6000546001600160a01b031633146200048e5760405162461bcd60e51b8152600401620002f990620015bf565b6001600160a01b038116620004f55760405162461bcd60e51b815260206004820152602660248201527f536f6c76425443466163746f72793a20696e76616c696420626561636f6e206160448201526564647265737360d01b6064820152608401620002f9565b8060048360405162000508919062001609565b908152604080516020928190038301812060010180546001600160a01b0319166001600160a01b03958616179055635c60da1b60e01b8152905192841692635c60da1b926004808401939192918290030181865afa1580156200056f573d6000803e3d6000fd5b505050506040513d601f19601f8201168201806040525081019062000595919062001627565b6001600160a01b0316816001600160a01b031683604051620005b8919062001609565b604051908190038120907fd4be5182216f129f579eb83fde3f2711012ecb2a370c95ebed03cd2d2c66f8e290600090a45050565b600080546001600160a01b031633146200061a5760405162461bcd60e51b8152600401620002f990620015bf565b6001600160a01b038216620006815760405162461bcd60e51b815260206004820152602660248201527f536f6c76425443466163746f72793a20696e76616c696420696d706c656d656e6044820152653a30ba34b7b760d11b6064820152608401620002f9565b60048360405162000693919062001609565b908152604051908190036020019020546001600160a01b03908116908316036200070c5760405162461bcd60e51b815260206004820152602360248201527f536f6c76425443466163746f72793a2073616d6520696d706c656d656e74617460448201526234b7b760e91b6064820152608401620002f9565b816004846040516200071f919062001609565b90815260405190819003602001812080546001600160a01b039384166001600160a01b0319909116179055908316906200075b90859062001609565b604051908190038120907f70cc12b129d10f00c73743b4313ad6997088babca4be2b6732a960391203c31f90600090a36004836040516200079d919062001609565b908152604051908190036020019020600101546001600160a01b031690508062000889578130604051620007d1906200123a565b620007de92919062001455565b604051809103906000f080158015620007fb573d6000803e3d6000fd5b5090508060048460405162000811919062001609565b90815260405190819003602001812060010180546001600160a01b039384166001600160a01b0319909116179055838216918316906200085390869062001609565b604051908190038120907fcd7ef590b717071b3f540fe9b93410b1e56b126b254fe215336ea709fba59b2190600090a462000940565b604051631b2ce7f360e11b81526001600160a01b03821690633659cfe690620008b7908590600401620013da565b600060405180830381600087803b158015620008d257600080fd5b505af1158015620008e7573d6000803e3d6000fd5b50505050816001600160a01b0316816001600160a01b0316846040516200090f919062001609565b604051908190038120907fc73db28a0b1cf26933458afb626169fba2899e9fb8b2dd91ceac16f1f815d85290600090a45b92915050565b60006004826040516200095a919062001609565b908152604051908190036020019020600101546001600160a01b031692915050565b6001546001600160a01b03163314620009cd5760405162461bcd60e51b815260206004820152601260248201527137b7363c903832b73234b7339030b236b4b760711b6044820152606401620002f9565b6000546001546040517ff9ffabca9c8276e99321725bcb43fb076a6c66a54b7f21c4e8146d8519b417dc9262000a12926001600160a01b039182169291169062001455565b60405180910390a160018054600080546001600160a01b03199081166001600160a01b03841617909155169055565b6003546001600160a01b0316331462000a6e5760405162461bcd60e51b8152600401620002f99062001647565b6002546003546040517f1ba669d4a78521f2ad26e8e0fcbcdd626a63f34d68f326bc232a3abe2a5d042a9262000ab3926001600160a01b039182169291169062001455565b60405180910390a160038054600280546001600160a01b03199081166001600160a01b03841617909155169055565b600060048260405162000af6919062001609565b908152604051908190036020019020546001600160a01b031692915050565b6000546001600160a01b0316331462000b425760405162461bcd60e51b8152600401620002f990620015bf565b6001546040517fca4f2f25d0898edd99413412fb94012f9e54ec8142f9b093e7720646a95b16a99162000b83916001600160a01b0390911690849062001455565b60405180910390a1600180546001600160a01b0319166001600160a01b0392909216919091179055565b6000546001600160a01b0316331462000bda5760405162461bcd60e51b8152600401620002f990620015bf565b600060048360405162000bee919062001609565b9081526040519081900360200181206001015463f2fde38b60e01b82526001600160a01b03169150819063f2fde38b9062000c2e908590600401620013da565b600060405180830381600087803b15801562000c4957600080fd5b505af115801562000c5e573d6000803e3d6000fd5b50505050816001600160a01b0316816001600160a01b03168460405162000c86919062001609565b604051908190038120907fc69903c0cec4f4503aa4496d78dcbf9f6e045679a04c0e921b7bad8e72b209d090600090a4505050565b600060048360405162000ccf919062001609565b90815260200160405180910390206002018260405162000cf0919062001609565b908152604051908190036020019020546001600160a01b0316905092915050565b6002546001600160a01b0316331462000d3e5760405162461bcd60e51b8152600401620002f99062001647565b6003546040517f7d767be5a57784412a13945bd5114db84487d2b007bfcdb2f449fc9ea35437f79162000d7f916001600160a01b0390911690849062001455565b60405180910390a1600380546001600160a01b0319166001600160a01b0392909216919091179055565b6000546001600160a01b0316331462000dd65760405162461bcd60e51b8152600401620002f990620015bf565b60006001600160a01b031660048460405162000df3919062001609565b908152604051908190036020019020600101546001600160a01b03160362000e2f5760405162461bcd60e51b8152600401620002f9906200166e565b8060048460405162000e42919062001609565b90815260200160405180910390206002018360405162000e63919062001609565b90815260405190819003602001812080546001600160a01b039384166001600160a01b03199091161790559082169062000e9f90849062001609565b60405180910390208460405162000eb7919062001609565b604051908190038120907f0ef163d0880f2992313f190506962752ba93927541e4f93693e30c8109da774590600090a4505050565b6002546000906001600160a01b0316331462000f1c5760405162461bcd60e51b8152600401620002f99062001647565b600060048760405162000f30919062001609565b9081526040519081900360200181209150600090600283019062000f5690899062001609565b908152604051908190036020019020546001600160a01b03161462000fcf5760405162461bcd60e51b815260206004820152602860248201527f536f6c76425443466163746f72793a2070726f6475637420616c72656164792060448201526719195c1b1bde595960c21b6064820152608401620002f9565b60018101546001600160a01b031662000ffc5760405162461bcd60e51b8152600401620002f9906200166e565b6000878760405160200162001013929190620016b1565b60408051601f19818403018152828252805160209182012060018601546000855291840192839052935083926001600160a01b0390911691620010569062001248565b6200106392919062001712565b8190604051809103906000f590508015801562001084573d6000803e3d6000fd5b5092506000868686604051602401620010a09392919062001738565b60408051601f198184030181529181526020820180516001600160e01b03166303bf912560e11b179052519091506000906001600160a01b03861690620010e990849062001609565b6000604051808303816000865af19150503d806000811462001128576040519150601f19603f3d011682016040523d82523d6000602084013e6200112d565b606091505b5050905080620011945760405162461bcd60e51b815260206004820152602b60248201527f536f6c76425443466163746f72793a2070726f787920696e697469616c697a6160448201526a1d1a5bdb8819985a5b195960aa1b6064820152608401620002f9565b84846002018a604051620011a9919062001609565b90815260405190819003602001812080546001600160a01b039384166001600160a01b031990911617905590861690620011e5908b9062001609565b60405180910390208b604051620011fd919062001609565b604051908190038120907fc30ce88f5e35e9e52ef522887407c7e48fc30575f887289cd41d63bbc665e7ec90600090a45050505095945050505050565b61045b806200177b83390190565b6105bc8062001bd683390190565b634e487b7160e01b600052604160045260246000fd5b600082601f8301126200127e57600080fd5b81356001600160401b03808211156200129b576200129b62001256565b604051601f8301601f19908116603f01168101908282118183101715620012c657620012c662001256565b81604052838152866020858801011115620012e057600080fd5b836020870160208301376000602085830101528094505050505092915050565b600080604083850312156200131457600080fd5b82356001600160401b03808211156200132c57600080fd5b6200133a868387016200126c565b935060208501359150808211156200135157600080fd5b5062001360858286016200126c565b9150509250929050565b6001600160a01b03811681146200138057600080fd5b50565b600080604083850312156200139757600080fd5b82356001600160401b03811115620013ae57600080fd5b620013bc858286016200126c565b9250506020830135620013cf816200136a565b809150509250929050565b6001600160a01b0391909116815260200190565b6000602082840312156200140157600080fd5b81356001600160401b038111156200141857600080fd5b62001426848285016200126c565b949350505050565b6000602082840312156200144157600080fd5b81356200144e816200136a565b9392505050565b6001600160a01b0392831681529116602082015260400190565b6000806000606084860312156200148557600080fd5b83356001600160401b03808211156200149d57600080fd5b620014ab878388016200126c565b94506020860135915080821115620014c257600080fd5b50620014d1868287016200126c565b9250506040840135620014e4816200136a565b809150509250925092565b600080600080600060a086880312156200150857600080fd5b85356001600160401b03808211156200152057600080fd5b6200152e89838a016200126c565b965060208801359150808211156200154557600080fd5b6200155389838a016200126c565b955060408801359150808211156200156a57600080fd5b6200157889838a016200126c565b945060608801359150808211156200158f57600080fd5b506200159e888289016200126c565b9250506080860135620015b1816200136a565b809150509295509295909350565b6020808252600a908201526937b7363c9030b236b4b760b11b604082015260600190565b60005b8381101562001600578181015183820152602001620015e6565b50506000910152565b600082516200161d818460208701620015e3565b9190910192915050565b6000602082840312156200163a57600080fd5b81516200144e816200136a565b6020808252600d908201526c37b7363c9033b7bb32b93737b960991b604082015260600190565b60208082526023908201527f536f6c76425443466163746f72793a20626561636f6e206e6f74206465706c6f6040820152621e595960ea1b606082015260800190565b60008351620016c5818460208801620015e3565b835190830190620016db818360208801620015e3565b01949350505050565b60008151808452620016fe816020860160208601620015e3565b601f01601f19169290920160200192915050565b6001600160a01b03831681526040602082018190526000906200142690830184620016e4565b6060815260006200174d6060830186620016e4565b8281036020840152620017618186620016e4565b91505060018060a01b038316604083015294935050505056fe608060405234801561001057600080fd5b5060405161045b38038061045b83398101604081905261002f91610160565b806001600160a01b038116610063576000604051631e4fbdf760e01b815260040161005a9190610193565b60405180910390fd5b61006c8161007d565b50610076826100cd565b50506101a7565b600080546001600160a01b038381166001600160a01b0319831681178455604051919092169283917f8be0079c531659141344cd1fd0a4f28419497f9722a3daafe3b4186f6b6457e09190a35050565b806001600160a01b03163b6000036100fa578060405163211eb15960e21b815260040161005a9190610193565b600180546001600160a01b0319166001600160a01b0383169081179091556040517fbc7cd75a20ee27fd9adebab32041f755214dbc6bffa90cc0225b39da2e5c2d3b90600090a250565b80516001600160a01b038116811461015b57600080fd5b919050565b6000806040838503121561017357600080fd5b61017c83610144565b915061018a60208401610144565b90509250929050565b6001600160a01b0391909116815260200190565b6102a5806101b66000396000f3fe608060405234801561001057600080fd5b50600436106100575760003560e01c80633659cfe61461005c5780635c60da1b14610071578063715018a6146100945780638da5cb5b1461009c578063f2fde38b146100a4575b600080fd5b61006f61006a36600461022b565b6100b7565b005b6001546001600160a01b03165b60405161008b919061025b565b60405180910390f35b61006f6100cb565b61007e6100df565b61006f6100b236600461022b565b6100ee565b6100bf610132565b6100c881610164565b50565b6100d3610132565b6100dd60006101db565b565b6000546001600160a01b031690565b6100f6610132565b6001600160a01b038116610129576000604051631e4fbdf760e01b8152600401610120919061025b565b60405180910390fd5b6100c8816101db565b3361013b6100df565b6001600160a01b0316146100dd573360405163118cdaa760e01b8152600401610120919061025b565b806001600160a01b03163b600003610191578060405163211eb15960e21b8152600401610120919061025b565b600180546001600160a01b0319166001600160a01b0383169081179091556040517fbc7cd75a20ee27fd9adebab32041f755214dbc6bffa90cc0225b39da2e5c2d3b90600090a250565b600080546001600160a01b038381166001600160a01b0319831681178455604051919092169283917f8be0079c531659141344cd1fd0a4f28419497f9722a3daafe3b4186f6b6457e09190a35050565b60006020828403121561023d57600080fd5b81356001600160a01b038116811461025457600080fd5b9392505050565b6001600160a01b039190911681526020019056fea26469706673582212202ee2b89d96094391782842b0cdf3533e06f0dc733bd57d969ac3d7009da714d864736f6c6343000814003360a06040526040516105bc3803806105bc83398101604081905261002291610370565b61002c828261003e565b506001600160a01b031660805261047b565b610047826100fe565b6040516001600160a01b038316907f1cf3b03a6cf19fa2baba4df148e9dcabedea7f8a5c07840e207e5c089be95d3e90600090a28051156100f2576100ed826001600160a01b0316635c60da1b6040518163ffffffff1660e01b8152600401602060405180830381865afa1580156100c3573d6000803e3d6000fd5b505050506040513d601f19601f820116820180604052508101906100e79190610430565b82610203565b505050565b6100fa61027a565b5050565b806001600160a01b03163b6000036101345780604051631933b43b60e21b815260040161012b919061044b565b60405180910390fd5b807fa3f0ad74e5423aebfd80d3ef4346578335a9a72aeaee59ff6cb3582b35133d5080546001600160a01b0319166001600160a01b0392831617905560408051635c60da1b60e01b81529051600092841691635c60da1b9160048083019260209291908290030181865afa1580156101b0573d6000803e3d6000fd5b505050506040513d601f19601f820116820180604052508101906101d49190610430565b9050806001600160a01b03163b6000036100fa5780604051634c9c8ce360e01b815260040161012b919061044b565b6060600080846001600160a01b031684604051610220919061045f565b600060405180830381855af49150503d806000811461025b576040519150601f19603f3d011682016040523d82523d6000602084013e610260565b606091505b50909250905061027185838361029b565b95945050505050565b34156102995760405163b398979f60e01b815260040160405180910390fd5b565b6060826102b0576102ab826102f1565b6102ea565b81511580156102c757506001600160a01b0384163b155b156102e75783604051639996b31560e01b815260040161012b919061044b565b50805b9392505050565b8051156103015780518082602001fd5b604051630a12f52160e11b815260040160405180910390fd5b80516001600160a01b038116811461033157600080fd5b919050565b634e487b7160e01b600052604160045260246000fd5b60005b8381101561036757818101518382015260200161034f565b50506000910152565b6000806040838503121561038357600080fd5b61038c8361031a565b60208401519092506001600160401b03808211156103a957600080fd5b818501915085601f8301126103bd57600080fd5b8151818111156103cf576103cf610336565b604051601f8201601f19908116603f011681019083821181831017156103f7576103f7610336565b8160405282815288602084870101111561041057600080fd5b61042183602083016020880161034c565b80955050505050509250929050565b60006020828403121561044257600080fd5b6102ea8261031a565b6001600160a01b0391909116815260200190565b6000825161047181846020870161034c565b9190910192915050565b6080516101276104956000396000601e01526101276000f3fe6080604052600a600c565b005b60186014601a565b60a0565b565b60007f00000000000000000000000000000000000000000000000000000000000000006001600160a01b0316635c60da1b6040518163ffffffff1660e01b8152600401602060405180830381865afa1580156079573d6000803e3d6000fd5b505050506040513d601f19601f82011682018060405250810190609b919060c3565b905090565b3660008037600080366000845af43d6000803e80801560be573d6000f35b3d6000fd5b60006020828403121560d457600080fd5b81516001600160a01b038116811460ea57600080fd5b939250505056fea2646970667358221220986f251d4075ce92271f1941774010b4b15f973ef37f152c539f8e838fd19ce464736f6c63430008140033a2646970667358221220495a36625ec1be9204d336f9ada7f23d01ee7d4e947f177213eb3c222f3c9c4464736f6c63430008140033",
  "devdoc": {
    "kind": "dev",
    "methods": {},
    "version": 1
  },
  "userdoc": {
    "kind": "user",
    "methods": {},
    "version": 1
  },
  "storageLayout": {
    "storage": [
      {
        "astId": 8160,
        "contract": "contracts/SolvBTCFactoryV3.sol:SolvBTCFactoryV3",
        "label": "admin",
        "offset": 0,
        "slot": "0",
        "type": "t_address"
      },
      {
        "astId": 8162,
        "contract": "contracts/SolvBTCFactoryV3.sol:SolvBTCFactoryV3",
        "label": "pendingAdmin",
        "offset": 0,
        "slot": "1",
        "type": "t_address"
      },
      {
        "astId": 8675,
        "contract": "contracts/SolvBTCFactoryV3.sol:SolvBTCFactoryV3",
        "label": "governor",
        "offset": 0,
        "slot": "2",
        "type": "t_address"
      },
      {
        "astId": 8677,
        "contract": "contracts/SolvBTCFactoryV3.sol:SolvBTCFactoryV3",
        "label": "pendingGovernor",
        "offset": 0,
        "slot": "3",
        "type": "t_address"
      },
      {
        "astId": 5031,
        "contract": "contracts/SolvBTCFactoryV3.sol:SolvBTCFactoryV3",
        "label": "productTypes",
        "offset": 0,
        "slot": "4",
        "type": "t_mapping(t_string_memory_ptr,t_struct(ProductType)5026_storage)"
      }
    ],
    "types": {
      "t_address": {
        "encoding": "inplace",
        "label": "address",
        "numberOfBytes": "20"
      },
      "t_mapping(t_string_memory_ptr,t_address)": {
        "encoding": "mapping",
        "key": "t_string_memory_ptr",
        "label": "mapping(string => address)",
        "numberOfBytes": "32",
        "value": "t_address"
      },
      "t_mapping(t_string_memory_ptr,t_struct(ProductType)5026_storage)": {
        "encoding": "mapping",
        "key": "t_string_memory_ptr",
        "label": "mapping(string => struct SolvBTCFactoryV3.ProductType)",
        "numberOfBytes": "32",
        "value": "t_struct(ProductType)5026_storage"
      },
      "t_string_memory_ptr": {
        "encoding": "bytes",
        "label": "string",
        "numberOfBytes": "32"
      },
      "t_struct(ProductType)5026_storage": {
        "encoding": "inplace",
        "label": "struct SolvBTCFactoryV3.ProductType",
        "members": [
          {
            "astId": 5019,
            "contract": "contracts/SolvBTCFactoryV3.sol:SolvBTCFactoryV3",
            "label": "implementation",
            "offset": 0,
            "slot": "0",
            "type": "t_address"
          },
          {
            "astId": 5021,
            "contract": "contracts/SolvBTCFactoryV3.sol:SolvBTCFactoryV3",
            "label": "beacon",
            "offset": 0,
            "slot": "1",
            "type": "t_address"
          },
          {
            "astId": 5025,
            "contract": "contracts/SolvBTCFactoryV3.sol:SolvBTCFactoryV3",
            "label": "proxies",
            "offset": 0,
            "slot": "2",
            "type": "t_mapping(t_string_memory_ptr,t_address)"
          }
        ],
        "numberOfBytes": "96"
      }
    }
  }
}