{
  "address": "0x1Cd6353a37f9e9Af9b18877828aA7309ca241C6F",
  "abi": [
    {
      "inputs": [
        {
          "internalType": "address",
          "name": "implementation_",
          "type": "address"
        },
        {
          "internalType": "address",
          "name": "initialOwner",
          "type": "address"
        }
      ],
      "stateMutability": "nonpayable",
      "type": "constructor"
    },
    {
      "inputs": [
        {
          "internalType": "address",
          "name": "implementation",
          "type": "address"
        }
      ],
      "name": "BeaconInvalidImplementation",
      "type": "error"
    },
    {
      "inputs": [
        {
          "internalType": "address",
          "name": "owner",
          "type": "address"
        }
      ],
      "name": "OwnableInvalidOwner",
      "type": "error"
    },
    {
      "inputs": [
        {
          "internalType": "address",
          "name": "account",
          "type": "address"
        }
      ],
      "name": "OwnableUnauthorizedAccount",
      "type": "error"
    },
    {
      "anonymous": false,
      "inputs": [
        {
          "indexed": true,
          "internalType": "address",
          "name": "previousOwner",
          "type": "address"
        },
        {
          "indexed": true,
          "internalType": "address",
          "name": "newOwner",
          "type": "address"
        }
      ],
      "name": "OwnershipTransferred",
      "type": "event"
    },
    {
      "anonymous": false,
      "inputs": [
        {
          "indexed": true,
          "internalType": "address",
          "name": "implementation",
          "type": "address"
        }
      ],
      "name": "Upgraded",
      "type": "event"
    },
    {
      "inputs": [],
      "name": "implementation",
      "outputs": [
        {
          "internalType": "address",
          "name": "",
          "type": "address"
        }
      ],
      "stateMutability": "view",
      "type": "function"
    },
    {
      "inputs": [],
      "name": "owner",
      "outputs": [
        {
          "internalType": "address",
          "name": "",
          "type": "address"
        }
      ],
      "stateMutability": "view",
      "type": "function"
    },
    {
      "inputs": [],
      "name": "renounceOwnership",
      "outputs": [],
      "stateMutability": "nonpayable",
      "type": "function"
    },
    {
      "inputs": [
        {
          "internalType": "address",
          "name": "newOwner",
          "type": "address"
        }
      ],
      "name": "transferOwnership",
      "outputs": [],
      "stateMutability": "nonpayable",
      "type": "function"
    },
    {
      "inputs": [
        {
          "internalType": "address",
          "name": "newImplementation",
          "type": "address"
        }
      ],
      "name": "upgradeTo",
      "outputs": [],
      "stateMutability": "nonpayable",
      "type": "function"
    }
  ],
  "transactionHash": "0x5ba1342cd7e635f448e05b5042b896def748ff8a81f82775d61b63208aa8488d",
  "args": [
    "0xf92588006E1559C4Ecdac0226c05fE5205d5d580",
    "0x4b2e4cAc67786778c79beCcC8c800E325Ab3bDDa"
  ],
  "numDeployments": 1,
  "bytecode": "0x608060405234801561001057600080fd5b5060405161043838038061043883398101604081905261002f91610165565b806001600160a01b03811661005f57604051631e4fbdf760e01b8152600060048201526024015b60405180910390fd5b61006881610079565b50610072826100c9565b5050610198565b600080546001600160a01b038381166001600160a01b0319831681178455604051919092169283917f8be0079c531659141344cd1fd0a4f28419497f9722a3daafe3b4186f6b6457e09190a35050565b806001600160a01b03163b6000036100ff5760405163211eb15960e21b81526001600160a01b0382166004820152602401610056565b600180546001600160a01b0319166001600160a01b0383169081179091556040517fbc7cd75a20ee27fd9adebab32041f755214dbc6bffa90cc0225b39da2e5c2d3b90600090a250565b80516001600160a01b038116811461016057600080fd5b919050565b6000806040838503121561017857600080fd5b61018183610149565b915061018f60208401610149565b90509250929050565b610291806101a76000396000f3fe608060405234801561001057600080fd5b50600436106100575760003560e01c80633659cfe61461005c5780635c60da1b14610071578063715018a61461009a5780638da5cb5b146100a2578063f2fde38b146100b3575b600080fd5b61006f61006a36600461022b565b6100c6565b005b6001546001600160a01b03165b6040516001600160a01b03909116815260200160405180910390f35b61006f6100da565b6000546001600160a01b031661007e565b61006f6100c136600461022b565b6100ee565b6100ce61012e565b6100d78161015b565b50565b6100e261012e565b6100ec60006101db565b565b6100f661012e565b6001600160a01b03811661012557604051631e4fbdf760e01b8152600060048201526024015b60405180910390fd5b6100d7816101db565b6000546001600160a01b031633146100ec5760405163118cdaa760e01b815233600482015260240161011c565b806001600160a01b03163b6000036101915760405163211eb15960e21b81526001600160a01b038216600482015260240161011c565b600180546001600160a01b0319166001600160a01b0383169081179091556040517fbc7cd75a20ee27fd9adebab32041f755214dbc6bffa90cc0225b39da2e5c2d3b90600090a250565b600080546001600160a01b038381166001600160a01b0319831681178455604051919092169283917f8be0079c531659141344cd1fd0a4f28419497f9722a3daafe3b4186f6b6457e09190a35050565b60006020828403121561023d57600080fd5b81356001600160a01b038116811461025457600080fd5b939250505056fea26469706673582212209bd2bbba6f4186c5eae1a792ac249ef610047efefe523ec98882d4161ec8722a64736f6c63430008140033"
}