{
  "address": "0xf92588006E1559C4Ecdac0226c05fE5205d5d580",
  "abi": [
    {
      "inputs": [],
      "stateMutability": "nonpayable",
      "type": "constructor"
    },
    {
      "inputs": [
        {
          "internalType": "address",
          "name": "spender",
          "type": "address"
        },
        {
          "internalType": "uint256",
          "name": "allowance",
          "type": "uint256"
        },
        {
          "internalType": "uint256",
          "name": "needed",
          "type": "uint256"
        }
      ],
      "name": "ERC20InsufficientAllowance",
      "type": "error"
    },
    {
      "inputs": [
        {
          "internalType": "address",
          "name": "sender",
          "type": "address"
        },
        {
          "internalType": "uint256",
          "name": "balance",
          "type": "uint256"
        },
        {
          "internalType": "uint256",
          "name": "needed",
          "type": "uint256"
        }
      ],
      "name": "ERC20InsufficientBalance",
      "type": "error"
    },
    {
      "inputs": [
        {
          "internalType": "address",
          "name": "approver",
          "type": "address"
        }
      ],
      "name": "ERC20InvalidApprover",
      "type": "error"
    },
    {
      "inputs": [
        {
          "internalType": "address",
          "name": "receiver",
          "type": "address"
        }
      ],
      "name": "ERC20InvalidReceiver",
      "type": "error"
    },
    {
      "inputs": [
        {
          "internalType": "address",
          "name": "sender",
          "type": "address"
        }
      ],
      "name": "ERC20InvalidSender",
      "type": "error"
    },
    {
      "inputs": [
        {
          "internalType": "address",
          "name": "spender",
          "type": "address"
        }
      ],
      "name": "ERC20InvalidSpender",
      "type": "error"
    },
    {
      "inputs": [],
      "name": "InvalidInitialization",
      "type": "error"
    },
    {
      "inputs": [],
      "name": "NotInitializing",
      "type": "error"
    },
    {
      "inputs": [],
      "name": "ReentrancyGuardReentrantCall",
      "type": "error"
    },
    {
      "anonymous": false,
      "inputs": [
        {
          "indexed": true,
          "internalType": "address",
          "name": "owner",
          "type": "address"
        },
        {
          "indexed": true,
          "internalType": "address",
          "name": "spender",
          "type": "address"
        },
        {
          "indexed": false,
          "internalType": "uint256",
          "name": "value",
          "type": "uint256"
        }
      ],
      "name": "Approval",
      "type": "event"
    },
    {
      "anonymous": false,
      "inputs": [
        {
          "indexed": false,
          "internalType": "uint64",
          "name": "version",
          "type": "uint64"
        }
      ],
      "name": "Initialized",
      "type": "event"
    },
    {
      "anonymous": false,
      "inputs": [
        {
          "indexed": true,
          "internalType": "address",
          "name": "from",
          "type": "address"
        },
        {
          "indexed": true,
          "internalType": "address",
          "name": "to",
          "type": "address"
        },
        {
          "indexed": false,
          "internalType": "uint256",
          "name": "value",
          "type": "uint256"
        }
      ],
      "name": "Transfer",
      "type": "event"
    },
    {
      "inputs": [
        {
          "internalType": "address",
          "name": "owner",
          "type": "address"
        },
        {
          "internalType": "address",
          "name": "spender",
          "type": "address"
        }
      ],
      "name": "allowance",
      "outputs": [
        {
          "internalType": "uint256",
          "name": "",
          "type": "uint256"
        }
      ],
      "stateMutability": "view",
      "type": "function"
    },
    {
      "inputs": [
        {
          "internalType": "address",
          "name": "spender",
          "type": "address"
        },
        {
          "internalType": "uint256",
          "name": "value",
          "type": "uint256"
        }
      ],
      "name": "approve",
      "outputs": [
        {
          "internalType": "bool",
          "name": "",
          "type": "bool"
        }
      ],
      "stateMutability": "nonpayable",
      "type": "function"
    },
    {
      "inputs": [
        {
          "internalType": "address",
          "name": "account",
          "type": "address"
        }
      ],
      "name": "balanceOf",
      "outputs": [
        {
          "internalType": "uint256",
          "name": "",
          "type": "uint256"
        }
      ],
      "stateMutability": "view",
      "type": "function"
    },
    {
      "inputs": [
        {
          "internalType": "uint256",
          "name": "amount_",
          "type": "uint256"
        },
        {
          "internalType": "uint256",
          "name": "sftId_",
          "type": "uint256"
        }
      ],
      "name": "burn",
      "outputs": [
        {
          "internalType": "uint256",
          "name": "toSftId_",
          "type": "uint256"
        }
      ],
      "stateMutability": "nonpayable",
      "type": "function"
    },
    {
      "inputs": [],
      "name": "decimals",
      "outputs": [
        {
          "internalType": "uint8",
          "name": "",
          "type": "uint8"
        }
      ],
      "stateMutability": "view",
      "type": "function"
    },
    {
      "inputs": [],
      "name": "exchangeRate",
      "outputs": [
        {
          "internalType": "uint256",
          "name": "",
          "type": "uint256"
        }
      ],
      "stateMutability": "view",
      "type": "function"
    },
    {
      "inputs": [
        {
          "internalType": "uint256",
          "name": "value",
          "type": "uint256"
        }
      ],
      "name": "getSharesByValue",
      "outputs": [
        {
          "internalType": "uint256",
          "name": "shares",
          "type": "uint256"
        }
      ],
      "stateMutability": "view",
      "type": "function"
    },
    {
      "inputs": [
        {
          "internalType": "uint256",
          "name": "shares",
          "type": "uint256"
        }
      ],
      "name": "getValueByShares",
      "outputs": [
        {
          "internalType": "uint256",
          "name": "value",
          "type": "uint256"
        }
      ],
      "stateMutability": "view",
      "type": "function"
    },
    {
      "inputs": [],
      "name": "holdingValueSftId",
      "outputs": [
        {
          "internalType": "uint256",
          "name": "",
          "type": "uint256"
        }
      ],
      "stateMutability": "view",
      "type": "function"
    },
    {
      "inputs": [
        {
          "internalType": "string",
          "name": "name_",
          "type": "string"
        },
        {
          "internalType": "string",
          "name": "symbol_",
          "type": "string"
        },
        {
          "internalType": "address",
          "name": "wrappedSftAddress_",
          "type": "address"
        },
        {
          "internalType": "uint256",
          "name": "wrappedSftSlot_",
          "type": "uint256"
        },
        {
          "internalType": "uint256",
          "name": "exchangeRate_",
          "type": "uint256"
        },
        {
          "internalType": "address",
          "name": "solvBTCAddress_",
          "type": "address"
        }
      ],
      "name": "initialize",
      "outputs": [],
      "stateMutability": "nonpayable",
      "type": "function"
    },
    {
      "inputs": [
        {
          "internalType": "uint256",
          "name": "sftId_",
          "type": "uint256"
        },
        {
          "internalType": "uint256",
          "name": "amount_",
          "type": "uint256"
        }
      ],
      "name": "mint",
      "outputs": [],
      "stateMutability": "nonpayable",
      "type": "function"
    },
    {
      "inputs": [],
      "name": "name",
      "outputs": [
        {
          "internalType": "string",
          "name": "",
          "type": "string"
        }
      ],
      "stateMutability": "view",
      "type": "function"
    },
    {
      "inputs": [
        {
          "internalType": "address",
          "name": "",
          "type": "address"
        },
        {
          "internalType": "uint256",
          "name": "fromSftId_",
          "type": "uint256"
        },
        {
          "internalType": "uint256",
          "name": "sftId_",
          "type": "uint256"
        },
        {
          "internalType": "uint256",
          "name": "sftValue_",
          "type": "uint256"
        },
        {
          "internalType": "bytes",
          "name": "",
          "type": "bytes"
        }
      ],
      "name": "onERC3525Received",
      "outputs": [
        {
          "internalType": "bytes4",
          "name": "",
          "type": "bytes4"
        }
      ],
      "stateMutability": "nonpayable",
      "type": "function"
    },
    {
      "inputs": [
        {
          "internalType": "address",
          "name": "",
          "type": "address"
        },
        {
          "internalType": "address",
          "name": "from_",
          "type": "address"
        },
        {
          "internalType": "uint256",
          "name": "sftId_",
          "type": "uint256"
        },
        {
          "internalType": "bytes",
          "name": "",
          "type": "bytes"
        }
      ],
      "name": "onERC721Received",
      "outputs": [
        {
          "internalType": "bytes4",
          "name": "",
          "type": "bytes4"
        }
      ],
      "stateMutability": "nonpayable",
      "type": "function"
    },
    {
      "inputs": [],
      "name": "solvBTCAddress",
      "outputs": [
        {
          "internalType": "address",
          "name": "",
          "type": "address"
        }
      ],
      "stateMutability": "view",
      "type": "function"
    },
    {
      "inputs": [
        {
          "internalType": "bytes4",
          "name": "interfaceId",
          "type": "bytes4"
        }
      ],
      "name": "supportsInterface",
      "outputs": [
        {
          "internalType": "bool",
          "name": "",
          "type": "bool"
        }
      ],
      "stateMutability": "view",
      "type": "function"
    },
    {
      "inputs": [],
      "name": "symbol",
      "outputs": [
        {
          "internalType": "string",
          "name": "",
          "type": "string"
        }
      ],
      "stateMutability": "view",
      "type": "function"
    },
    {
      "inputs": [],
      "name": "totalSupply",
      "outputs": [
        {
          "internalType": "uint256",
          "name": "",
          "type": "uint256"
        }
      ],
      "stateMutability": "view",
      "type": "function"
    },
    {
      "inputs": [
        {
          "internalType": "address",
          "name": "to",
          "type": "address"
        },
        {
          "internalType": "uint256",
          "name": "value",
          "type": "uint256"
        }
      ],
      "name": "transfer",
      "outputs": [
        {
          "internalType": "bool",
          "name": "",
          "type": "bool"
        }
      ],
      "stateMutability": "nonpayable",
      "type": "function"
    },
    {
      "inputs": [
        {
          "internalType": "address",
          "name": "from",
          "type": "address"
        },
        {
          "internalType": "address",
          "name": "to",
          "type": "address"
        },
        {
          "internalType": "uint256",
          "name": "value",
          "type": "uint256"
        }
      ],
      "name": "transferFrom",
      "outputs": [
        {
          "internalType": "bool",
          "name": "",
          "type": "bool"
        }
      ],
      "stateMutability": "nonpayable",
      "type": "function"
    },
    {
      "inputs": [],
      "name": "underlyingAsset",
      "outputs": [
        {
          "internalType": "address",
          "name": "",
          "type": "address"
        }
      ],
      "stateMutability": "view",
      "type": "function"
    },
    {
      "inputs": [],
      "name": "wrappedSftAddress",
      "outputs": [
        {
          "internalType": "address",
          "name": "",
          "type": "address"
        }
      ],
      "stateMutability": "view",
      "type": "function"
    },
    {
      "inputs": [],
      "name": "wrappedSftSlot",
      "outputs": [
        {
          "internalType": "uint256",
          "name": "",
          "type": "uint256"
        }
      ],
      "stateMutability": "view",
      "type": "function"
    }
  ],
  "transactionHash": "0x0f0d59cb17873cd9685f275d889498028641f0595c09854e0ce3c7fa3e5105b6",
  "args": [],
  "numDeployments": 1,
  "solcInputHash": "27751569a6088729587234b0bc54f959",
  "bytecode": "0x608060405234801561001057600080fd5b5061001961001e565b6100d0565b7ff0c57e16840df040f15088dc2f81fe391c3923bec73e23a9662efc9c229c6a00805468010000000000000000900460ff161561006e5760405163f92ee8a960e01b815260040160405180910390fd5b80546001600160401b03908116146100cd5780546001600160401b0319166001600160401b0390811782556040519081527fc7f505b2f371ae2175ee4913f4499e1f2633a7b5936321eed1cdaeb6115181d29060200160405180910390a15b50565b6123da80620000e06000396000f3fe608060405234801561001057600080fd5b506004361061011c5760003560e01c80629ce20b1461012157806301ffc9a71461015257806306fdde0314610175578063095ea7b31461018a578063150b7a021461019d57806318160ddd146101b05780631b2ef1ca146101c657806323b872dd146101db578063313ce567146101ee5780633ba0b9a91461020857806344b32bd1146102115780634eb079811461021a57806370a08231146102235780637158da7c1461023657806371e26e001461025057806395d89b4114610263578063a9059cbb1461026b578063b390c0ab1461027e578063baecd32614610291578063cd084de5146102a4578063dd62ed3e146102b7578063e31c3a90146102ca578063e3720d0d146102dd575b600080fd5b61013461012f366004611b0b565b6102f0565b6040516001600160e01b031990911681526020015b60405180910390f35b610165610160366004611b7d565b6105c2565b6040519015158152602001610149565b61017d610613565b6040516101499190611bae565b610165610198366004611bfc565b6106b4565b6101346101ab366004611c28565b6106cc565b6101b8610983565b604051908152602001610149565b6101d96101d4366004611c9a565b610998565b005b6101656101e9366004611cbc565b610cf3565b6101f6610d17565b60405160ff9091168152602001610149565b6101b860055481565b6101b860025481565b6101b860015481565b6101b8610231366004611cfd565b610d94565b6004546001600160a01b03165b6040516101499190611d1a565b6101b861025e366004611d2e565b610dbf565b61017d610deb565b610165610279366004611bfc565b610e08565b6101b861028c366004611c9a565b610e16565b600054610243906001600160a01b031681565b6101d96102b2366004611de9565b611100565b6101b86102c5366004611e85565b6113c4565b6101b86102d8366004611d2e565b611400565b600454610243906001600160a01b031681565b600080546001600160a01b031633146103245760405162461bcd60e51b815260040161031b90611ebe565b60405180910390fd5b600080546040516331a9108f60e11b8152600481018990526001600160a01b0390911690636352211e90602401602060405180830381865afa15801561036e573d6000803e3d6000fd5b505050506040513d601f19601f820116820180604052508101906103929190611eff565b9050306001600160a01b038216036103b35750629ce20b60e01b90506105b8565b600085116103d35760405162461bcd60e51b815260040161031b90611f1c565b6002546000036105115760005460405163131f9f3f60e11b8152600481018890526001600160a01b039091169063263f3e7e90602401602060405180830381865afa158015610426573d6000803e3d6000fd5b505050506040513d601f19601f8201168201806040525081019061044a9190611f62565b6001541461046a5760405162461bcd60e51b815260040161031b90611f7b565b6000546040516331a9108f60e11b8152600481018890526001600160a01b0390911690636352211e90602401602060405180830381865afa1580156104b3573d6000803e3d6000fd5b505050506040513d601f19601f820116820180604052508101906104d79190611eff565b6001600160a01b0316306001600160a01b0316146105075760405162461bcd60e51b815260040161031b90611fbd565b6002869055610574565b85600254146105745760405162461bcd60e51b815260206004820152602960248201527f53667457726170706564546f6b656e3a206e6f7420686f6c64696e672076616c6044820152681d59481cd99d081a5960ba1b606482015260840161031b565b600061057e610d17565b61058990600a6120f8565b6005546105969088612107565b6105a0919061211e565b90506105ac8282611422565b50629ce20b60e01b9150505b9695505050505050565b60006001600160e01b03198216629ce20b60e01b14806105f257506001600160e01b03198216630a85bd0160e11b145b8061060d57506001600160e01b031982166301ffc9a760e01b145b92915050565b6060600061061f611458565b905080600301805461063090612140565b80601f016020809104026020016040519081016040528092919081815260200182805461065c90612140565b80156106a95780601f1061067e576101008083540402835291602001916106a9565b820191906000526020600020905b81548152906001019060200180831161068c57829003601f168201915b505050505091505090565b6000336106c281858561147c565b5060019392505050565b600080546001600160a01b031633146106f75760405162461bcd60e51b815260040161031b90611ebe565b60005460405163131f9f3f60e11b8152600481018690526001600160a01b039091169063263f3e7e90602401602060405180830381865afa158015610740573d6000803e3d6000fd5b505050506040513d601f19601f820116820180604052508101906107649190611f62565b600154146107845760405162461bcd60e51b815260040161031b90611f7b565b6000546040516331a9108f60e11b8152600481018690526001600160a01b0390911690636352211e90602401602060405180830381865afa1580156107cd573d6000803e3d6000fd5b505050506040513d601f19601f820116820180604052508101906107f19190611eff565b6001600160a01b0316306001600160a01b0316146108215760405162461bcd60e51b815260040161031b90611fbd565b306001600160a01b0386160361083f5750630a85bd0160e11b61097a565b60008054604051631398fee160e31b8152600481018790526001600160a01b0390911690639cc7f70890602401602060405180830381865afa158015610889573d6000803e3d6000fd5b505050506040513d601f19601f820116820180604052508101906108ad9190611f62565b9050600081116108cf5760405162461bcd60e51b815260040161031b90611f1c565b6002546000036108e3576002859055610935565b6000546002546108ff916001600160a01b03169087908461148e565b600380546001810182556000919091527fc2575a0e9e593c00f959f8c92f12db2869c3395a3b0502d05e2516446f71f85b018590555b600061093f610d17565b61094a90600a6120f8565b6005546109579084612107565b610961919061211e565b905061096d8782611422565b50630a85bd0160e11b9150505b95945050505050565b60008061098e611458565b6002015492915050565b6109a06114ff565b60005460405163131f9f3f60e11b8152600481018490526001600160a01b039091169063263f3e7e90602401602060405180830381865afa1580156109e9573d6000803e3d6000fd5b505050506040513d601f19601f82011682018060405250810190610a0d9190611f62565b60015414610a2d5760405162461bcd60e51b815260040161031b9061217a565b6000546040516331a9108f60e11b8152600481018490526001600160a01b0390911690636352211e90602401602060405180830381865afa158015610a76573d6000803e3d6000fd5b505050506040513d601f19601f82011682018060405250810190610a9a9190611eff565b6001600160a01b0316336001600160a01b031614610b0b5760405162461bcd60e51b815260206004820152602860248201527f53667457726170706564546f6b656e3a2063616c6c6572206973206e6f742073604482015267333a1037bbb732b960c11b606482015260840161031b565b60008111610b6c5760405162461bcd60e51b815260206004820152602860248201527f53667457726170706564546f6b656e3a206d696e7420616d6f756e742063616e60448201526706e6f7420626520360c41b606482015260840161031b565b60008054604051631398fee160e31b8152600481018590526001600160a01b0390911690639cc7f70890602401602060405180830381865afa158015610bb6573d6000803e3d6000fd5b505050506040513d601f19601f82011682018060405250810190610bda9190611f62565b9050808203610bff57600054610bfa906001600160a01b03163385611535565b610cad565b80821015610c4c57600254600003610c3057600054610c28906001600160a01b0316848461159f565b600255610cad565b600054600254610bfa916001600160a01b03169085908561148e565b60405162461bcd60e51b815260206004820152603060248201527f53667457726170706564546f6b656e3a206d696e7420616d6f756e742065786360448201526f65656473207366742062616c616e636560801b606482015260840161031b565b6000610cb7610d17565b610cc290600a6120f8565b600554610ccf9085612107565b610cd9919061211e565b9050610ce53382611422565b5050610cef611617565b5050565b600033610d01858285611628565b610d0c85858561167b565b506001949350505050565b60008060009054906101000a90046001600160a01b03166001600160a01b0316633e7e86696040518163ffffffff1660e01b8152600401602060405180830381865afa158015610d6b573d6000803e3d6000fd5b505050506040513d601f19601f82011682018060405250810190610d8f91906121be565b905090565b600080610d9f611458565b6001600160a01b0390931660009081526020939093525050604090205490565b6000610dc9610d17565b610dd490600a6120f8565b600554610de19084612107565b61060d919061211e565b60606000610df7611458565b905080600401805461063090612140565b6000336106c281858561167b565b6000610e206114ff565b60008311610e815760405162461bcd60e51b815260206004820152602860248201527f53667457726170706564546f6b656e3a206275726e20616d6f756e742063616e60448201526706e6f7420626520360c41b606482015260840161031b565b610e8b33846116da565b6000600554610e98610d17565b610ea390600a6120f8565b610ead9086612107565b610eb7919061211e565b905082600003610f7e57600354600003610eed57600054600254610ee6916001600160a01b0316903384611710565b91506110f7565b60038054610efd906001906121e1565b81548110610f0d57610f0d6121f4565b906000526020600020015491506003805480610f2b57610f2b61220a565b60019003818190600052602060002001600090559055610f6260008054906101000a90046001600160a01b0316600254848461148e565b600054610f79906001600160a01b03163384611788565b6110f7565b60005460405163131f9f3f60e11b8152600481018590526001600160a01b039091169063263f3e7e90602401602060405180830381865afa158015610fc7573d6000803e3d6000fd5b505050506040513d601f19601f82011682018060405250810190610feb9190611f62565b6001541461100b5760405162461bcd60e51b815260040161031b9061217a565b6000546040516331a9108f60e11b8152600481018590526001600160a01b0390911690636352211e90602401602060405180830381865afa158015611054573d6000803e3d6000fd5b505050506040513d601f19601f820116820180604052508101906110789190611eff565b6001600160a01b0316336001600160a01b0316146110d85760405162461bcd60e51b815260206004820152601e60248201527f53667457726170706564546f6b656e3a206e6f7420736674206f776e65720000604482015260640161031b565b6000546002546110f3916001600160a01b031690858461148e565b8291505b5061060d611617565b600061110a6117ba565b805490915060ff600160401b82041615906001600160401b03166000811580156111315750825b90506000826001600160401b0316600114801561114d5750303b155b90508115801561115b575080155b156111795760405163f92ee8a960e01b815260040160405180910390fd5b84546001600160401b031916600117855583156111a257845460ff60401b1916600160401b1785555b6001600160a01b0389166112045760405162461bcd60e51b8152602060048201526024808201527f53667457726170706564546f6b656e3a20696e76616c696420736674206164646044820152637265737360e01b606482015260840161031b565b8760000361125e5760405162461bcd60e51b815260206004820152602160248201527f53667457726170706564546f6b656e3a20696e76616c69642073667420736c6f6044820152601d60fa1b606482015260840161031b565b866000036112bd5760405162461bcd60e51b815260206004820152602660248201527f53667457726170706564546f6b656e3a20696e76616c69642065786368616e6760448201526565207261746560d01b606482015260840161031b565b6001600160a01b0386166113255760405162461bcd60e51b815260206004820152602960248201527f53667457726170706564546f6b656e3a20696e76616c696420736f6c7620627460448201526863206164647265737360b81b606482015260840161031b565b61132f8b8b6117de565b6113376117f0565b600080546001600160a01b03808c166001600160a01b03199283161790925560018a90556005899055600480549289169290911691909117905583156113b757845460ff60401b19168555604051600181527fc7f505b2f371ae2175ee4913f4499e1f2633a7b5936321eed1cdaeb6115181d29060200160405180910390a15b5050505050505050505050565b6000806113cf611458565b6001600160a01b03948516600090815260019190910160209081526040808320959096168252939093525050205490565b600060055461140d610d17565b61141890600a6120f8565b610de19084612107565b6001600160a01b03821661144c57600060405163ec442f0560e01b815260040161031b9190611d1a565b610cef60008383611802565b7f52c63247e1f47db19d5ce0460030c497f067ca4cebf71ba98eeadabe20bace0090565b611489838383600161192a565b505050565b604051630310ed7f60e41b815260048101849052602481018390526044810182905284906001600160a01b0382169063310ed7f090606401600060405180830381600087803b1580156114e057600080fd5b505af11580156114f4573d6000803e3d6000fd5b505050505050505050565b6000611509611a0f565b80549091506001190161152f57604051633ee5aeb560e01b815260040160405180910390fd5b60029055565b604051632142170760e11b815283906001600160a01b038216906342842e0e9061156790869030908790600401612220565b600060405180830381600087803b15801561158157600080fd5b505af1158015611595573d6000803e3d6000fd5b5050505050505050565b6040516307a42e0160e11b815260009084906001600160a01b03821690630f485c02906115d490879030908890600401612244565b6020604051808303816000875af11580156115f3573d6000803e3d6000fd5b505050506040513d601f19601f8201168201806040525081019061097a9190611f62565b6000611621611a0f565b6001905550565b600061163484846113c4565b90506000198114611675578181101561166657828183604051637dc7a0d960e11b815260040161031b93929190612263565b6116758484848403600061192a565b50505050565b6001600160a01b0383166116a5576000604051634b637e8f60e11b815260040161031b9190611d1a565b6001600160a01b0382166116cf57600060405163ec442f0560e01b815260040161031b9190611d1a565b611489838383611802565b6001600160a01b038216611704576000604051634b637e8f60e11b815260040161031b9190611d1a565b610cef82600083611802565b6040516307a42e0160e11b815260009085906001600160a01b03821690630f485c029061174590889088908890600401612244565b6020604051808303816000875af1158015611764573d6000803e3d6000fd5b505050506040513d601f19601f820116820180604052508101906105b89190611f62565b6040516323b872dd60e01b815283906001600160a01b038216906323b872dd9061156790309087908790600401612220565b7ff0c57e16840df040f15088dc2f81fe391c3923bec73e23a9662efc9c229c6a0090565b6117e6611a33565b610cef8282611a58565b6117f8611a33565b611800611a89565b565b600061180c611458565b90506001600160a01b03841661183b57818160020160008282546118309190612284565b9091555061189a9050565b6001600160a01b0384166000908152602082905260409020548281101561187b5784818460405163391434e360e21b815260040161031b93929190612263565b6001600160a01b03851660009081526020839052604090209083900390555b6001600160a01b0383166118b85760028101805483900390556118d7565b6001600160a01b03831660009081526020829052604090208054830190555b826001600160a01b0316846001600160a01b03167fddf252ad1be2c89b69c2b068fc378daa952ba7f163c4a11628f55a4df523b3ef8460405161191c91815260200190565b60405180910390a350505050565b6000611934611458565b90506001600160a01b03851661196057600060405163e602df0560e01b815260040161031b9190611d1a565b6001600160a01b03841661198a576000604051634a1406b160e11b815260040161031b9190611d1a565b6001600160a01b03808616600090815260018301602090815260408083209388168352929052208390558115611a0857836001600160a01b0316856001600160a01b03167f8c5be1e5ebec7d5bd14f71427d1e84f3dd0314c0f7b2291e5b200ac8c7c3b925856040516119ff91815260200190565b60405180910390a35b5050505050565b7f9b779b17422d0df92223018b32b4d1fa46e071723d6817e2486d003becc55f0090565b611a3b611a91565b61180057604051631afcd79f60e31b815260040160405180910390fd5b611a60611a33565b6000611a6a611458565b905060038101611a7a84826122e5565b506004810161167583826122e5565b611617611a33565b6000611a9b6117ba565b54600160401b900460ff16919050565b6001600160a01b0381168114611ac057600080fd5b50565b60008083601f840112611ad557600080fd5b5081356001600160401b03811115611aec57600080fd5b602083019150836020828501011115611b0457600080fd5b9250929050565b60008060008060008060a08789031215611b2457600080fd5b8635611b2f81611aab565b955060208701359450604087013593506060870135925060808701356001600160401b03811115611b5f57600080fd5b611b6b89828a01611ac3565b979a9699509497509295939492505050565b600060208284031215611b8f57600080fd5b81356001600160e01b031981168114611ba757600080fd5b9392505050565b600060208083528351808285015260005b81811015611bdb57858101830151858201604001528201611bbf565b506000604082860101526040601f19601f8301168501019250505092915050565b60008060408385031215611c0f57600080fd5b8235611c1a81611aab565b946020939093013593505050565b600080600080600060808688031215611c4057600080fd5b8535611c4b81611aab565b94506020860135611c5b81611aab565b93506040860135925060608601356001600160401b03811115611c7d57600080fd5b611c8988828901611ac3565b969995985093965092949392505050565b60008060408385031215611cad57600080fd5b50508035926020909101359150565b600080600060608486031215611cd157600080fd5b8335611cdc81611aab565b92506020840135611cec81611aab565b929592945050506040919091013590565b600060208284031215611d0f57600080fd5b8135611ba781611aab565b6001600160a01b0391909116815260200190565b600060208284031215611d4057600080fd5b5035919050565b634e487b7160e01b600052604160045260246000fd5b600082601f830112611d6e57600080fd5b81356001600160401b0380821115611d8857611d88611d47565b604051601f8301601f19908116603f01168101908282118183101715611db057611db0611d47565b81604052838152866020858801011115611dc957600080fd5b836020870160208301376000602085830101528094505050505092915050565b60008060008060008060c08789031215611e0257600080fd5b86356001600160401b0380821115611e1957600080fd5b611e258a838b01611d5d565b97506020890135915080821115611e3b57600080fd5b50611e4889828a01611d5d565b9550506040870135611e5981611aab565b9350606087013592506080870135915060a0870135611e7781611aab565b809150509295509295509295565b60008060408385031215611e9857600080fd5b8235611ea381611aab565b91506020830135611eb381611aab565b809150509250929050565b60208082526021908201527f53667457726170706564546f6b656e3a206f6e6c7920777261707065642073666040820152601d60fa1b606082015260800190565b600060208284031215611f1157600080fd5b8151611ba781611aab565b60208082526026908201527f53667457726170706564546f6b656e3a206d696e74207a65726f206e6f7420616040820152651b1b1bddd95960d21b606082015260800190565b600060208284031215611f7457600080fd5b5051919050565b60208082526022908201527f53667457726170706564546f6b656e3a20756e72656365697661626c6520736c6040820152611bdd60f21b606082015260800190565b60208082526021908201527f53667457726170706564546f6b656e3a206e6f74206f776e65642073667420696040820152601960fa1b606082015260800190565b634e487b7160e01b600052601160045260246000fd5b600181815b8085111561204f57816000190482111561203557612035611ffe565b8085161561204257918102915b93841c9390800290612019565b509250929050565b6000826120665750600161060d565b816120735750600061060d565b81600181146120895760028114612093576120af565b600191505061060d565b60ff8411156120a4576120a4611ffe565b50506001821b61060d565b5060208310610133831016604e8410600b84101617156120d2575081810a61060d565b6120dc8383612014565b80600019048211156120f0576120f0611ffe565b029392505050565b6000611ba760ff841683612057565b808202811582820484141761060d5761060d611ffe565b60008261213b57634e487b7160e01b600052601260045260246000fd5b500490565b600181811c9082168061215457607f821691505b60208210810361217457634e487b7160e01b600052602260045260246000fd5b50919050565b60208082526024908201527f53667457726170706564546f6b656e3a20736c6f7420646f6573206e6f74206d6040820152630c2e8c6d60e31b606082015260800190565b6000602082840312156121d057600080fd5b815160ff81168114611ba757600080fd5b8181038181111561060d5761060d611ffe565b634e487b7160e01b600052603260045260246000fd5b634e487b7160e01b600052603160045260246000fd5b6001600160a01b039384168152919092166020820152604081019190915260600190565b9283526001600160a01b03919091166020830152604082015260600190565b6001600160a01b039390931683526020830191909152604082015260600190565b8082018082111561060d5761060d611ffe565b601f82111561148957600081815260208120601f850160051c810160208610156122be5750805b601f850160051c820191505b818110156122dd578281556001016122ca565b505050505050565b81516001600160401b038111156122fe576122fe611d47565b6123128161230c8454612140565b84612297565b602080601f831160018114612347576000841561232f5750858301515b600019600386901b1c1916600185901b1785556122dd565b600085815260208120601f198616915b8281101561237657888601518255948401946001909101908401612357565b50858210156123945787850151600019600388901b60f8161c191681555b5050505050600190811b0190555056fea2646970667358221220c4147bffb042ed90def10ebbd1c5d83b1f7459c646fc382275d5177dcffd5a9164736f6c63430008140033",
  "devdoc": {
    "errors": {
      "ERC20InsufficientAllowance(address,uint256,uint256)": [
        {
          "details": "Indicates a failure with the `spender`s `allowance`. Used in transfers.",
          "params": {
            "allowance": "Amount of tokens a `spender` is allowed to operate with.",
            "needed": "Minimum amount required to perform a transfer.",
            "spender": "Address that may be allowed to operate on tokens without being their owner."
          }
        }
      ],
      "ERC20InsufficientBalance(address,uint256,uint256)": [
        {
          "details": "Indicates an error related to the current `balance` of a `sender`. Used in transfers.",
          "params": {
            "balance": "Current balance for the interacting account.",
            "needed": "Minimum amount required to perform a transfer.",
            "sender": "Address whose tokens are being transferred."
          }
        }
      ],
      "ERC20InvalidApprover(address)": [
        {
          "details": "Indicates a failure with the `approver` of a token to be approved. Used in approvals.",
          "params": {
            "approver": "Address initiating an approval operation."
          }
        }
      ],
      "ERC20InvalidReceiver(address)": [
        {
          "details": "Indicates a failure with the token `receiver`. Used in transfers.",
          "params": {
            "receiver": "Address to which tokens are being transferred."
          }
        }
      ],
      "ERC20InvalidSender(address)": [
        {
          "details": "Indicates a failure with the token `sender`. Used in transfers.",
          "params": {
            "sender": "Address whose tokens are being transferred."
          }
        }
      ],
      "ERC20InvalidSpender(address)": [
        {
          "details": "Indicates a failure with the `spender` to be approved. Used in approvals.",
          "params": {
            "spender": "Address that may be allowed to operate on tokens without being their owner."
          }
        }
      ],
      "InvalidInitialization()": [
        {
          "details": "The contract is already initialized."
        }
      ],
      "NotInitializing()": [
        {
          "details": "The contract is not initializing."
        }
      ],
      "ReentrancyGuardReentrantCall()": [
        {
          "details": "Unauthorized reentrant call."
        }
      ]
    },
    "events": {
      "Approval(address,address,uint256)": {
        "details": "Emitted when the allowance of a `spender` for an `owner` is set by a call to {approve}. `value` is the new allowance."
      },
      "Initialized(uint64)": {
        "details": "Triggered when the contract has been initialized or reinitialized."
      },
      "Transfer(address,address,uint256)": {
        "details": "Emitted when `value` tokens are moved from one account (`from`) to another (`to`). Note that `value` may be zero."
      }
    },
    "kind": "dev",
    "methods": {
      "allowance(address,address)": {
        "details": "See {IERC20-allowance}."
      },
      "approve(address,uint256)": {
        "details": "See {IERC20-approve}. NOTE: If `value` is the maximum `uint256`, the allowance is not updated on `transferFrom`. This is semantically equivalent to an infinite approval. Requirements: - `spender` cannot be the zero address."
      },
      "balanceOf(address)": {
        "details": "See {IERC20-balanceOf}."
      },
      "constructor": {
        "custom:oz-upgrades-unsafe-allow": "constructor"
      },
      "decimals()": {
        "details": "Returns the number of decimals used to get its user representation. For example, if `decimals` equals `2`, a balance of `505` tokens should be displayed to a user as `5.05` (`505 / 10 ** 2`). Tokens usually opt for a value of 18, imitating the relationship between Ether and Wei. This is the default value returned by this function, unless it's overridden. NOTE: This information is only used for _display_ purposes: it in no way affects any of the arithmetic of the contract, including {IERC20-balanceOf} and {IERC20-transfer}."
      },
      "name()": {
        "details": "Returns the name of the token."
      },
      "supportsInterface(bytes4)": {
        "details": "Returns true if this contract implements the interface defined by `interfaceId`. See the corresponding https://eips.ethereum.org/EIPS/eip-165#how-interfaces-are-identified[EIP section] to learn more about how these ids are created. This function call must use less than 30 000 gas."
      },
      "symbol()": {
        "details": "Returns the symbol of the token, usually a shorter version of the name."
      },
      "totalSupply()": {
        "details": "See {IERC20-totalSupply}."
      },
      "transfer(address,uint256)": {
        "details": "See {IERC20-transfer}. Requirements: - `to` cannot be the zero address. - the caller must have a balance of at least `value`."
      },
      "transferFrom(address,address,uint256)": {
        "details": "See {IERC20-transferFrom}. Emits an {Approval} event indicating the updated allowance. This is not required by the EIP. See the note at the beginning of {ERC20}. NOTE: Does not update the allowance if the current allowance is the maximum `uint256`. Requirements: - `from` and `to` cannot be the zero address. - `from` must have a balance of at least `value`. - the caller must have allowance for ``from``'s tokens of at least `value`."
      }
    },
    "version": 1
  },
  "userdoc": {
    "kind": "user",
    "methods": {
      "getSharesByValue(uint256)": {
        "notice": "Get amount of shares for a given amount of underlying asset."
      },
      "getValueByShares(uint256)": {
        "notice": "Get amount of underlying asset for a given amount of shares."
      }
    },
    "version": 1
  },
  "storageLayout": {
    "storage": [
      {
        "astId": 3609,
        "contract": "contracts/BitcoinReserveOffering.sol:BitcoinReserveOffering",
        "label": "wrappedSftAddress",
        "offset": 0,
        "slot": "0",
        "type": "t_address"
      },
      {
        "astId": 3611,
        "contract": "contracts/BitcoinReserveOffering.sol:BitcoinReserveOffering",
        "label": "wrappedSftSlot",
        "offset": 0,
        "slot": "1",
        "type": "t_uint256"
      },
      {
        "astId": 3613,
        "contract": "contracts/BitcoinReserveOffering.sol:BitcoinReserveOffering",
        "label": "holdingValueSftId",
        "offset": 0,
        "slot": "2",
        "type": "t_uint256"
      },
      {
        "astId": 3616,
        "contract": "contracts/BitcoinReserveOffering.sol:BitcoinReserveOffering",
        "label": "_holdingEmptySftIds",
        "offset": 0,
        "slot": "3",
        "type": "t_array(t_uint256)dyn_storage"
      },
      {
        "astId": 3618,
        "contract": "contracts/BitcoinReserveOffering.sol:BitcoinReserveOffering",
        "label": "solvBTCAddress",
        "offset": 0,
        "slot": "4",
        "type": "t_address"
      },
      {
        "astId": 3620,
        "contract": "contracts/BitcoinReserveOffering.sol:BitcoinReserveOffering",
        "label": "exchangeRate",
        "offset": 0,
        "slot": "5",
        "type": "t_uint256"
      }
    ],
    "types": {
      "t_address": {
        "encoding": "inplace",
        "label": "address",
        "numberOfBytes": "20"
      },
      "t_array(t_uint256)dyn_storage": {
        "base": "t_uint256",
        "encoding": "dynamic_array",
        "label": "uint256[]",
        "numberOfBytes": "32"
      },
      "t_uint256": {
        "encoding": "inplace",
        "label": "uint256",
        "numberOfBytes": "32"
      }
    }
  }
}