{
  "address": "0x6048E48e24e97540F5571B66EAf4e36121452558",
  "abi": [
    {
      "inputs": [],
      "stateMutability": "nonpayable",
      "type": "constructor"
    },
    {
      "inputs": [],
      "name": "InvalidInitialization",
      "type": "error"
    },
    {
      "inputs": [],
      "name": "NotInitializing",
      "type": "error"
    },
    {
      "inputs": [],
      "name": "ReentrancyGuardReentrantCall",
      "type": "error"
    },
    {
      "anonymous": false,
      "inputs": [
        {
          "indexed": true,
          "internalType": "bytes32",
          "name": "poolId",
          "type": "bytes32"
        },
        {
          "indexed": true,
          "internalType": "address",
          "name": "subscriber",
          "type": "address"
        },
        {
          "indexed": false,
          "internalType": "address",
          "name": "sftWrappedToken",
          "type": "address"
        },
        {
          "indexed": false,
          "internalType": "uint256",
          "name": "swtTokenAmount",
          "type": "uint256"
        },
        {
          "indexed": false,
          "internalType": "address",
          "name": "currency",
          "type": "address"
        },
        {
          "indexed": false,
          "internalType": "uint256",
          "name": "currencyAmount",
          "type": "uint256"
        }
      ],
      "name": "CreateSubscription",
      "type": "event"
    },
    {
      "anonymous": false,
      "inputs": [
        {
          "indexed": false,
          "internalType": "uint64",
          "name": "version",
          "type": "uint64"
        }
      ],
      "name": "Initialized",
      "type": "event"
    },
    {
      "anonymous": false,
      "inputs": [
        {
          "indexed": false,
          "internalType": "address",
          "name": "oldAdmin",
          "type": "address"
        },
        {
          "indexed": false,
          "internalType": "address",
          "name": "newAdmin",
          "type": "address"
        }
      ],
      "name": "NewAdmin",
      "type": "event"
    },
    {
      "anonymous": false,
      "inputs": [
        {
          "indexed": false,
          "internalType": "address",
          "name": "oldGovernor",
          "type": "address"
        },
        {
          "indexed": false,
          "internalType": "address",
          "name": "newGovernor",
          "type": "address"
        }
      ],
      "name": "NewGovernor",
      "type": "event"
    },
    {
      "anonymous": false,
      "inputs": [
        {
          "indexed": false,
          "internalType": "address",
          "name": "oldPendingAdmin",
          "type": "address"
        },
        {
          "indexed": false,
          "internalType": "address",
          "name": "newPendingAdmin",
          "type": "address"
        }
      ],
      "name": "NewPendingAdmin",
      "type": "event"
    },
    {
      "anonymous": false,
      "inputs": [
        {
          "indexed": false,
          "internalType": "address",
          "name": "oldPendingGovernor",
          "type": "address"
        },
        {
          "indexed": false,
          "internalType": "address",
          "name": "newPendingGovernor",
          "type": "address"
        }
      ],
      "name": "NewPendingGovernor",
      "type": "event"
    },
    {
      "anonymous": false,
      "inputs": [
        {
          "indexed": true,
          "internalType": "address",
          "name": "sftAddress",
          "type": "address"
        },
        {
          "indexed": true,
          "internalType": "uint256",
          "name": "sftSlot",
          "type": "uint256"
        },
        {
          "indexed": true,
          "internalType": "address",
          "name": "broToken",
          "type": "address"
        }
      ],
      "name": "SetBroToken",
      "type": "event"
    },
    {
      "inputs": [],
      "name": "acceptAdmin",
      "outputs": [],
      "stateMutability": "nonpayable",
      "type": "function"
    },
    {
      "inputs": [],
      "name": "acceptGovernance",
      "outputs": [],
      "stateMutability": "nonpayable",
      "type": "function"
    },
    {
      "inputs": [],
      "name": "admin",
      "outputs": [
        {
          "internalType": "address",
          "name": "",
          "type": "address"
        }
      ],
      "stateMutability": "view",
      "type": "function"
    },
    {
      "inputs": [
        {
          "internalType": "address",
          "name": "",
          "type": "address"
        },
        {
          "internalType": "uint256",
          "name": "",
          "type": "uint256"
        }
      ],
      "name": "broTokens",
      "outputs": [
        {
          "internalType": "address",
          "name": "",
          "type": "address"
        }
      ],
      "stateMutability": "view",
      "type": "function"
    },
    {
      "inputs": [
        {
          "internalType": "bytes32",
          "name": "poolId_",
          "type": "bytes32"
        }
      ],
      "name": "checkPoolPermission",
      "outputs": [
        {
          "internalType": "bool",
          "name": "",
          "type": "bool"
        }
      ],
      "stateMutability": "view",
      "type": "function"
    },
    {
      "inputs": [
        {
          "internalType": "bytes32",
          "name": "poolId_",
          "type": "bytes32"
        },
        {
          "internalType": "uint256",
          "name": "currencyAmount_",
          "type": "uint256"
        }
      ],
      "name": "createSubscription",
      "outputs": [
        {
          "internalType": "uint256",
          "name": "shareValue_",
          "type": "uint256"
        }
      ],
      "stateMutability": "nonpayable",
      "type": "function"
    },
    {
      "inputs": [],
      "name": "governor",
      "outputs": [
        {
          "internalType": "address",
          "name": "",
          "type": "address"
        }
      ],
      "stateMutability": "view",
      "type": "function"
    },
    {
      "inputs": [
        {
          "internalType": "address",
          "name": "governor_",
          "type": "address"
        },
        {
          "internalType": "address",
          "name": "openFundMarket_",
          "type": "address"
        }
      ],
      "name": "initialize",
      "outputs": [],
      "stateMutability": "nonpayable",
      "type": "function"
    },
    {
      "inputs": [],
      "name": "openFundMarket",
      "outputs": [
        {
          "internalType": "address",
          "name": "",
          "type": "address"
        }
      ],
      "stateMutability": "view",
      "type": "function"
    },
    {
      "inputs": [],
      "name": "pendingAdmin",
      "outputs": [
        {
          "internalType": "address",
          "name": "",
          "type": "address"
        }
      ],
      "stateMutability": "view",
      "type": "function"
    },
    {
      "inputs": [],
      "name": "pendingGovernor",
      "outputs": [
        {
          "internalType": "address",
          "name": "",
          "type": "address"
        }
      ],
      "stateMutability": "view",
      "type": "function"
    },
    {
      "inputs": [
        {
          "internalType": "address",
          "name": "sftAddress_",
          "type": "address"
        },
        {
          "internalType": "uint256",
          "name": "sftSlot_",
          "type": "uint256"
        },
        {
          "internalType": "address",
          "name": "broToken_",
          "type": "address"
        }
      ],
      "name": "setBroToken",
      "outputs": [],
      "stateMutability": "nonpayable",
      "type": "function"
    },
    {
      "inputs": [
        {
          "internalType": "address",
          "name": "newPendingAdmin_",
          "type": "address"
        }
      ],
      "name": "transferAdmin",
      "outputs": [],
      "stateMutability": "nonpayable",
      "type": "function"
    },
    {
      "inputs": [
        {
          "internalType": "address",
          "name": "newPendingGovernor_",
          "type": "address"
        }
      ],
      "name": "transferGovernance",
      "outputs": [],
      "stateMutability": "nonpayable",
      "type": "function"
    }
  ],
  "transactionHash": "0x5d6dfb320428530fe08f5221cc84d12e0d9a00a29901a7a89d79fda023a2421a",
  "args": [],
  "numDeployments": 1,
  "solcInputHash": "27751569a6088729587234b0bc54f959",
  "bytecode": "0x608060405234801561001057600080fd5b5061001961001e565b6100d0565b7ff0c57e16840df040f15088dc2f81fe391c3923bec73e23a9662efc9c229c6a00805468010000000000000000900460ff161561006e5760405163f92ee8a960e01b815260040160405180910390fd5b80546001600160401b03908116146100cd5780546001600160401b0319166001600160401b0390811782556040519081527fc7f505b2f371ae2175ee4913f4499e1f2633a7b5936321eed1cdaeb6115181d29060200160405180910390a15b50565b611ccd806100df6000396000f3fe608060405234801561001057600080fd5b50600436106100ba5760003560e01c80630c340a24146100bf5780630e18b681146100e85780631d98e7f8146100f2578063238efcbc14610115578063267822471461011d578063273f4ffb14610130578063320f3ff914610164578063485cc955146101775780636d724ead1461018a57806375829def146101ab578063d38bfff4146101be578063e3056a34146101d1578063f355d417146101e4578063f851a440146101f7575b600080fd5b6032546100d2906001600160a01b031681565b6040516100df91906116a1565b60405180910390f35b6100f061020a565b005b6101056101003660046116b5565b6102be565b60405190151581526020016100df565b6100f061044b565b6001546100d2906001600160a01b031681565b6100d261013e3660046116e3565b60656020908152600092835260408084209091529082529020546001600160a01b031681565b6100f061017236600461170f565b6104d5565b6100f0610185366004611751565b61065d565b61019d61019836600461178a565b610837565b6040519081526020016100df565b6100f06101b93660046117ac565b610e2f565b6100f06101cc3660046117ac565b610edf565b6033546100d2906001600160a01b031681565b6064546100d2906001600160a01b031681565b6000546100d2906001600160a01b031681565b6001546001600160a01b0316331461025e5760405162461bcd60e51b815260206004820152601260248201527137b7363c903832b73234b7339030b236b4b760711b60448201526064015b60405180910390fd5b600054600154604051600080516020611c788339815191529261028f926001600160a01b03918216929116906117d0565b60405180910390a160018054600080546001600160a01b03199081166001600160a01b03841617909155169055565b60645460405162daa6b160e61b81526004810183905260009182916001600160a01b03909116906336a9ac40906024016102a060405180830381865afa15801561030c573d6000803e3d6000fd5b505050506040513d601f19601f820116820180604052508101906103309190611a3e565b9050806101000151156103465750600192915050565b6064546040516321f8a72160e01b81527a27a326abb434ba32b634b9ba29ba3930ba32b3bca6b0b730b3b2b960291b60048201526000916001600160a01b0316906321f8a72190602401602060405180830381865afa1580156103ad573d6000803e3d6000fd5b505050506040513d601f19601f820116820180604052508101906103d19190611b0b565b60405163f409981160e01b8152600481018690523360248201529091506001600160a01b0382169063f409981190604401602060405180830381865afa15801561041f573d6000803e3d6000fd5b505050506040513d601f19601f820116820180604052508101906104439190611b28565b949350505050565b6033546001600160a01b031633146104755760405162461bcd60e51b815260040161025590611b43565b603254603354604051600080516020611c58833981519152926104a6926001600160a01b03918216929116906117d0565b60405180910390a160338054603280546001600160a01b03199081166001600160a01b03841617909155169055565b6032546001600160a01b031633146104ff5760405162461bcd60e51b815260040161025590611b43565b6001600160a01b0383166105555760405162461bcd60e51b815260206004820152601e60248201527f42524f526f757465723a20696e76616c696420736674206164647265737300006044820152606401610255565b816000036105a35760405162461bcd60e51b815260206004820152601b60248201527a109493d49bdd5d195c8e881a5b9d985b1a59081cd99d081cdb1bdd602a1b6044820152606401610255565b6001600160a01b0381166105f85760405162461bcd60e51b815260206004820152601c60248201527b212927a937baba32b91d1034b73b30b634b210313937903a37b5b2b760211b6044820152606401610255565b6001600160a01b03838116600081815260656020908152604080832087845290915280822080546001600160a01b0319169486169485179055518592917fdb24da9fbe71ba30c30a743f4ae9fd7bbf8c6ab421fe0be6d84542ea70dc7cf391a4505050565b6000610667610f72565b805490915060ff600160401b82041615906001600160401b031660008115801561068e5750825b90506000826001600160401b031660011480156106aa5750303b155b9050811580156106b8575080155b156106d65760405163f92ee8a960e01b815260040160405180910390fd5b84546001600160401b031916600117855583156106ff57845460ff60401b1916600160401b1785555b6001600160a01b0387166107535760405162461bcd60e51b815260206004820152601b60248201527a212927a937baba32b91d1034b73b30b634b21033b7bb32b93737b960291b6044820152606401610255565b6001600160a01b0386166107b35760405162461bcd60e51b815260206004820152602160248201527f42524f526f757465723a20696e76616c6964206f70656e46756e644d61726b656044820152601d60fa1b6064820152608401610255565b6107bc33610f96565b6107c587610faa565b6107cd610fbb565b606480546001600160a01b0319166001600160a01b038816179055831561082e57845460ff60401b19168555604051600181527fc7f505b2f371ae2175ee4913f4499e1f2633a7b5936321eed1cdaeb6115181d29060200160405180910390a15b50505050505050565b6000610841610fcd565b61084a836102be565b6108a05760405162461bcd60e51b815260206004820152602160248201527f42524f526f757465723a20706f6f6c207065726d697373696f6e2064656e69656044820152601960fa1b6064820152608401610255565b60645460405162daa6b160e61b8152600481018590526000916001600160a01b0316906336a9ac40906024016102a060405180830381865afa1580156108ea573d6000803e3d6000fd5b505050506040513d601f19601f8201168201806040525081019061090e9190611a3e565b8051805160409091015160a0830151929350909161092d903387611003565b60a083015160645461094991906001600160a01b031687611202565b6064546001600160a01b0316638f3ecff08787600061096a4261012c611b80565b6040516001600160e01b031960e087901b1681526004810194909452602484019290925260448301526001600160401b031660648201526084016020604051808303816000875af11580156109c3573d6000803e3d6000fd5b505050506040513d601f19601f820116820180604052508101906109e79190611b93565b93506000826001600160a01b03166370a08231306040518263ffffffff1660e01b8152600401610a1791906116a1565b602060405180830381865afa158015610a34573d6000803e3d6000fd5b505050506040513d601f19601f82011682018060405250810190610a589190611b93565b905060006001600160a01b038416632f745c5930610a77600186611bac565b6040518363ffffffff1660e01b8152600401610a94929190611bbf565b602060405180830381865afa158015610ab1573d6000803e3d6000fd5b505050506040513d601f19601f82011682018060405250810190610ad59190611b93565b60405163131f9f3f60e11b81526004810182905290915083906001600160a01b0386169063263f3e7e90602401602060405180830381865afa158015610b1f573d6000803e3d6000fd5b505050506040513d601f19601f82011682018060405250810190610b439190611b93565b14610b905760405162461bcd60e51b815260206004820152601f60248201527f42524f526f757465723a20696e636f727265637420736861726520736c6f74006044820152606401610255565b604051631398fee160e31b81526004810182905286906001600160a01b03861690639cc7f70890602401602060405180830381865afa158015610bd7573d6000803e3d6000fd5b505050506040513d601f19601f82011682018060405250810190610bfb9190611b93565b14610c485760405162461bcd60e51b815260206004820181905260248201527f42524f526f757465723a20696e636f72726563742073686172652076616c75656044820152606401610255565b6001600160a01b0380851660009081526065602090815260408083208784529091529020541680610cbb5760405162461bcd60e51b815260206004820152601f60248201527f42524f526f757465723a2062726f546f6b656e206e6f742063726561746564006044820152606401610255565b6040516370a0823160e01b81526000906001600160a01b038316906370a0823190610cea9030906004016116a1565b602060405180830381865afa158015610d07573d6000803e3d6000fd5b505050506040513d601f19601f82011682018060405250810190610d2b9190611b93565b9050610d38868385611330565b600081836001600160a01b03166370a08231306040518263ffffffff1660e01b8152600401610d6791906116a1565b602060405180830381865afa158015610d84573d6000803e3d6000fd5b505050506040513d601f19601f82011682018060405250810190610da89190611b93565b610db29190611bac565b9050610dbf83338361139a565b60a0880151604080516001600160a01b038681168252602082018d905290921682820152606082018c90525133918d917f4a29c2a0a0125871fb9cb0dcda775193070a8dd3a98e792b07eca515745de3bf9181900360800190a35050505050505050610e29611595565b92915050565b6000546001600160a01b03163314610e765760405162461bcd60e51b815260206004820152600a60248201526937b7363c9030b236b4b760b11b6044820152606401610255565b6001546040517fca4f2f25d0898edd99413412fb94012f9e54ec8142f9b093e7720646a95b16a991610eb5916001600160a01b039091169084906117d0565b60405180910390a1600180546001600160a01b0319166001600160a01b0392909216919091179055565b6032546001600160a01b03163314610f095760405162461bcd60e51b815260040161025590611b43565b6033546040517f7d767be5a57784412a13945bd5114db84487d2b007bfcdb2f449fc9ea35437f791610f48916001600160a01b039091169084906117d0565b60405180910390a1603380546001600160a01b0319166001600160a01b0392909216919091179055565b7ff0c57e16840df040f15088dc2f81fe391c3923bec73e23a9662efc9c229c6a0090565b610f9e6115a6565b610fa7816115cb565b50565b610fb26115a6565b610fa781611617565b610fc36115a6565b610fcb61165b565b565b6000610fd7611663565b805490915060011901610ffd57604051633ee5aeb560e01b815260040160405180910390fd5b60029055565b73eeeeeeeeeeeeeeeeeeeeeeeeeeeeeeeeeeeeeeed196001600160a01b038416016110cb57326001600160a01b03831614806110475750336001600160a01b038316145b6110855760405162461bcd60e51b815260206004820152600f60248201526e0e6cadcc8cae440dad2e6dac2e8c6d608b1b6044820152606401610255565b803410156110c65760405162461bcd60e51b815260206004820152600e60248201526d0ecc2d8eaca40dad2e6dac2e8c6d60931b6044820152606401610255565b505050565b6000836001600160a01b03163b116110f55760405162461bcd60e51b815260040161025590611bd8565b600080846001600160a01b03166323b872dd60e01b85308660405160240161111f93929190611c04565b60408051601f198184030181529181526020820180516001600160e01b03166001600160e01b031990941693909317909252905161115d9190611c28565b6000604051808303816000865af19150503d806000811461119a576040519150601f19603f3d011682016040523d82523d6000602084013e61119f565b606091505b50915091508180156111c95750805115806111c95750808060200190518101906111c99190611b28565b6111fb5760405162461bcd60e51b815260206004820152600360248201526229aa2360e91b6044820152606401610255565b5050505050565b6000836001600160a01b03163b1161122c5760405162461bcd60e51b815260040161025590611bd8565b600080846001600160a01b031663095ea7b360e01b8585604051602401611254929190611bbf565b60408051601f198184030181529181526020820180516001600160e01b03166001600160e01b03199094169390931790925290516112929190611c28565b6000604051808303816000865af19150503d80600081146112cf576040519150601f19603f3d011682016040523d82523d6000602084013e6112d4565b606091505b50915091508180156112fe5750805115806112fe5750808060200190518101906112fe9190611b28565b6111fb5760405162461bcd60e51b815260206004820152600360248201526229a0a360e91b6044820152606401610255565b604051632142170760e11b815283906001600160a01b038216906342842e0e9061136290309087908790600401611c04565b600060405180830381600087803b15801561137c57600080fd5b505af1158015611390573d6000803e3d6000fd5b5050505050505050565b73eeeeeeeeeeeeeeeeeeeeeeeeeeeeeeeeeeeeeeed196001600160a01b0384160161146857604080516000808252602082019092526001600160a01b0384169083906040516113e99190611c28565b60006040518083038185875af1925050503d8060008114611426576040519150601f19603f3d011682016040523d82523d6000602084013e61142b565b606091505b50509050806114625760405162461bcd60e51b815260206004820152600360248201526253544560e81b6044820152606401610255565b50505050565b6000836001600160a01b03163b116114925760405162461bcd60e51b815260040161025590611bd8565b600080846001600160a01b031663a9059cbb60e01b85856040516024016114ba929190611bbf565b60408051601f198184030181529181526020820180516001600160e01b03166001600160e01b03199094169390931790925290516114f89190611c28565b6000604051808303816000865af19150503d8060008114611535576040519150601f19603f3d011682016040523d82523d6000602084013e61153a565b606091505b50915091508180156115645750805115806115645750808060200190518101906115649190611b28565b6111fb5760405162461bcd60e51b815260206004820152600260248201526114d560f21b6044820152606401610255565b600061159f611663565b6001905550565b6115ae611687565b610fcb57604051631afcd79f60e31b815260040160405180910390fd5b6115d36115a6565b600080546001600160a01b0319166001600160a01b038316178155604051600080516020611c788339815191529161160c9184906117d0565b60405180910390a150565b61161f6115a6565b603280546001600160a01b0319166001600160a01b038316179055604051600080516020611c588339815191529061160c9060009084906117d0565b6115956115a6565b7f9b779b17422d0df92223018b32b4d1fa46e071723d6817e2486d003becc55f0090565b6000611691610f72565b54600160401b900460ff16919050565b6001600160a01b0391909116815260200190565b6000602082840312156116c757600080fd5b5035919050565b6001600160a01b0381168114610fa757600080fd5b600080604083850312156116f657600080fd5b8235611701816116ce565b946020939093013593505050565b60008060006060848603121561172457600080fd5b833561172f816116ce565b9250602084013591506040840135611746816116ce565b809150509250925092565b6000806040838503121561176457600080fd5b823561176f816116ce565b9150602083013561177f816116ce565b809150509250929050565b6000806040838503121561179d57600080fd5b50508035926020909101359150565b6000602082840312156117be57600080fd5b81356117c9816116ce565b9392505050565b6001600160a01b0392831681529116602082015260400190565b604051606081016001600160401b038111828210171561181a57634e487b7160e01b600052604160045260246000fd5b60405290565b60405161014081016001600160401b038111828210171561181a57634e487b7160e01b600052604160045260246000fd5b805161185c816116ce565b919050565b60006080828403121561187357600080fd5b604051608081016001600160401b03811182821017156118a357634e487b7160e01b600052604160045260246000fd5b806040525080915082516118b6816116ce565b815260208301516118c6816116ce565b8060208301525060408301516040820152606083015160608201525092915050565b80516001600160401b038116811461185c57600080fd5b60006060828403121561191157600080fd5b6119196117ea565b9050815161ffff8116811461192d57600080fd5b8152602082015161193d816116ce565b602082015261194e604083016118e8565b604082015292915050565b60006060828403121561196b57600080fd5b6119736117ea565b90508151611980816116ce565b81526020820151611990816116ce565b6020820152604082015161194e816116ce565b600060a082840312156119b557600080fd5b60405160a081016001600160401b03811182821017156119e557634e487b7160e01b600052604160045260246000fd5b8060405250809150825181526020830151602082015260408301516040820152611a11606084016118e8565b6060820152611a22608084016118e8565b60808201525092915050565b8051801515811461185c57600080fd5b60006102a08284031215611a5157600080fd5b611a59611820565b611a638484611861565b8152611a7284608085016118ff565b6020820152611a848460e08501611959565b6040820152611a978461014085016119a3565b6060820152611aa96101e08401611851565b6080820152611abb6102008401611851565b60a0820152611acd6102208401611851565b60c0820152611adf61024084016118e8565b60e0820152611af16102608401611a2e565b610100820152610280929092015161012083015250919050565b600060208284031215611b1d57600080fd5b81516117c9816116ce565b600060208284031215611b3a57600080fd5b6117c982611a2e565b6020808252600d908201526c37b7363c9033b7bb32b93737b960991b604082015260600190565b634e487b7160e01b600052601160045260246000fd5b80820180821115610e2957610e29611b6a565b600060208284031215611ba557600080fd5b5051919050565b81810381811115610e2957610e29611b6a565b6001600160a01b03929092168252602082015260400190565b602080825260129082015271696e76616c696420756e6465726c79696e6760701b604082015260600190565b6001600160a01b039384168152919092166020820152604081019190915260600190565b6000825160005b81811015611c495760208186018101518583015201611c2f565b50600092019182525091905056fe1ba669d4a78521f2ad26e8e0fcbcdd626a63f34d68f326bc232a3abe2a5d042af9ffabca9c8276e99321725bcb43fb076a6c66a54b7f21c4e8146d8519b417dca2646970667358221220591cb06a5b790911db7cb7eee26a4d43765398a13f12f8eaafb8e3de84c4968564736f6c63430008140033",
  "devdoc": {
    "errors": {
      "InvalidInitialization()": [
        {
          "details": "The contract is already initialized."
        }
      ],
      "NotInitializing()": [
        {
          "details": "The contract is not initializing."
        }
      ],
      "ReentrancyGuardReentrantCall()": [
        {
          "details": "Unauthorized reentrant call."
        }
      ]
    },
    "events": {
      "Initialized(uint64)": {
        "details": "Triggered when the contract has been initialized or reinitialized."
      }
    },
    "kind": "dev",
    "methods": {
      "constructor": {
        "custom:oz-upgrades-unsafe-allow": "constructor"
      }
    },
    "version": 1
  },
  "userdoc": {
    "kind": "user",
    "methods": {},
    "version": 1
  },
  "storageLayout": {
    "storage": [
      {
        "astId": 8259,
        "contract": "contracts/BRORouter.sol:BRORouter",
        "label": "admin",
        "offset": 0,
        "slot": "0",
        "type": "t_address"
      },
      {
        "astId": 8261,
        "contract": "contracts/BRORouter.sol:BRORouter",
        "label": "pendingAdmin",
        "offset": 0,
        "slot": "1",
        "type": "t_address"
      },
      {
        "astId": 8356,
        "contract": "contracts/BRORouter.sol:BRORouter",
        "label": "__gap",
        "offset": 0,
        "slot": "2",
        "type": "t_array(t_uint256)48_storage"
      },
      {
        "astId": 8774,
        "contract": "contracts/BRORouter.sol:BRORouter",
        "label": "governor",
        "offset": 0,
        "slot": "50",
        "type": "t_address"
      },
      {
        "astId": 8776,
        "contract": "contracts/BRORouter.sol:BRORouter",
        "label": "pendingGovernor",
        "offset": 0,
        "slot": "51",
        "type": "t_address"
      },
      {
        "astId": 8871,
        "contract": "contracts/BRORouter.sol:BRORouter",
        "label": "__gap",
        "offset": 0,
        "slot": "52",
        "type": "t_array(t_uint256)48_storage"
      },
      {
        "astId": 3192,
        "contract": "contracts/BRORouter.sol:BRORouter",
        "label": "openFundMarket",
        "offset": 0,
        "slot": "100",
        "type": "t_address"
      },
      {
        "astId": 3198,
        "contract": "contracts/BRORouter.sol:BRORouter",
        "label": "broTokens",
        "offset": 0,
        "slot": "101",
        "type": "t_mapping(t_address,t_mapping(t_uint256,t_address))"
      },
      {
        "astId": 3562,
        "contract": "contracts/BRORouter.sol:BRORouter",
        "label": "__gap",
        "offset": 0,
        "slot": "102",
        "type": "t_array(t_uint256)48_storage"
      }
    ],
    "types": {
      "t_address": {
        "encoding": "inplace",
        "label": "address",
        "numberOfBytes": "20"
      },
      "t_array(t_uint256)48_storage": {
        "base": "t_uint256",
        "encoding": "inplace",
        "label": "uint256[48]",
        "numberOfBytes": "1536"
      },
      "t_mapping(t_address,t_mapping(t_uint256,t_address))": {
        "encoding": "mapping",
        "key": "t_address",
        "label": "mapping(address => mapping(uint256 => address))",
        "numberOfBytes": "32",
        "value": "t_mapping(t_uint256,t_address)"
      },
      "t_mapping(t_uint256,t_address)": {
        "encoding": "mapping",
        "key": "t_uint256",
        "label": "mapping(uint256 => address)",
        "numberOfBytes": "32",
        "value": "t_address"
      },
      "t_uint256": {
        "encoding": "inplace",
        "label": "uint256",
        "numberOfBytes": "32"
      }
    }
  }
}