{
  "address": "0xC3CF57FfeE2c5384019bF18391652224dc9C55Bb",
  "abi": [
    {
      "inputs": [],
      "name": "InvalidInitialization",
      "type": "error"
    },
    {
      "inputs": [],
      "name": "NotInitializing",
      "type": "error"
    },
    {
      "anonymous": false,
      "inputs": [
        {
          "indexed": false,
          "internalType": "uint64",
          "name": "version",
          "type": "uint64"
        }
      ],
      "name": "Initialized",
      "type": "event"
    },
    {
      "anonymous": false,
      "inputs": [
        {
          "indexed": false,
          "internalType": "address",
          "name": "oldAdmin",
          "type": "address"
        },
        {
          "indexed": false,
          "internalType": "address",
          "name": "newAdmin",
          "type": "address"
        }
      ],
      "name": "NewAdmin",
      "type": "event"
    },
    {
      "anonymous": false,
      "inputs": [
        {
          "indexed": false,
          "internalType": "address",
          "name": "oldPendingAdmin",
          "type": "address"
        },
        {
          "indexed": false,
          "internalType": "address",
          "name": "newPendingAdmin",
          "type": "address"
        }
      ],
      "name": "NewPendingAdmin",
      "type": "event"
    },
    {
      "anonymous": false,
      "inputs": [
        {
          "indexed": false,
          "internalType": "uint256",
          "name": "oldCurrentNav",
          "type": "uint256"
        },
        {
          "indexed": false,
          "internalType": "uint256",
          "name": "newCurrentNav",
          "type": "uint256"
        }
      ],
      "name": "SetCurrentNav",
      "type": "event"
    },
    {
      "inputs": [],
      "name": "acceptAdmin",
      "outputs": [],
      "stateMutability": "nonpayable",
      "type": "function"
    },
    {
      "inputs": [],
      "name": "admin",
      "outputs": [
        {
          "internalType": "address",
          "name": "",
          "type": "address"
        }
      ],
      "stateMutability": "view",
      "type": "function"
    },
    {
      "inputs": [
        {
          "internalType": "address",
          "name": "erc20_",
          "type": "address"
        }
      ],
      "name": "getNav",
      "outputs": [
        {
          "internalType": "uint256",
          "name": "",
          "type": "uint256"
        }
      ],
      "stateMutability": "view",
      "type": "function"
    },
    {
      "inputs": [
        {
          "internalType": "uint256",
          "name": "currentNav_",
          "type": "uint256"
        },
        {
          "internalType": "uint8",
          "name": "navDecimals_",
          "type": "uint8"
        }
      ],
      "name": "initialize",
      "outputs": [],
      "stateMutability": "nonpayable",
      "type": "function"
    },
    {
      "inputs": [
        {
          "internalType": "address",
          "name": "erc20_",
          "type": "address"
        }
      ],
      "name": "navDecimals",
      "outputs": [
        {
          "internalType": "uint8",
          "name": "",
          "type": "uint8"
        }
      ],
      "stateMutability": "view",
      "type": "function"
    },
    {
      "inputs": [],
      "name": "pendingAdmin",
      "outputs": [
        {
          "internalType": "address",
          "name": "",
          "type": "address"
        }
      ],
      "stateMutability": "view",
      "type": "function"
    },
    {
      "inputs": [
        {
          "internalType": "uint256",
          "name": "currentNav_",
          "type": "uint256"
        }
      ],
      "name": "setCurrentNav",
      "outputs": [],
      "stateMutability": "nonpayable",
      "type": "function"
    },
    {
      "inputs": [
        {
          "internalType": "address",
          "name": "xSolvBTC_",
          "type": "address"
        }
      ],
      "name": "setXSolvBTC",
      "outputs": [],
      "stateMutability": "nonpayable",
      "type": "function"
    },
    {
      "inputs": [
        {
          "internalType": "address",
          "name": "newPendingAdmin_",
          "type": "address"
        }
      ],
      "name": "transferAdmin",
      "outputs": [],
      "stateMutability": "nonpayable",
      "type": "function"
    },
    {
      "inputs": [],
      "name": "xSolvBTC",
      "outputs": [
        {
          "internalType": "address",
          "name": "",
          "type": "address"
        }
      ],
      "stateMutability": "view",
      "type": "function"
    }
  ],
  "transactionHash": "0x942d36c53573f47d0f11af9729fa61d8f9b3f54fe55b401e013ac9ba59367f89",
  "args": [],
  "numDeployments": 1,
  "solcInputHash": "c2137f3fa0724e0c4711ab4c6db0a9ef",
  "bytecode": "0x608060405234801561001057600080fd5b5061073a806100206000396000f3fe608060405234801561001057600080fd5b506004361061008e5760003560e01c80630e18b68114610093578063267822471461009d5780633d11d095146100cd5780634d219e8f146100e057806375829def146100f85780638262fb0e1461010b578063a13c96201461011e578063f851a44014610131578063fb59600814610144578063ff554afa14610165575b600080fd5b61009b61018a565b005b6001546100b0906001600160a01b031681565b6040516001600160a01b0390911681526020015b60405180910390f35b61009b6100db3660046105e2565b61023e565b6033546100b09061010090046001600160a01b031681565b61009b610106366004610618565b61034c565b61009b610119366004610648565b6103df565b61009b61012c366004610618565b61044e565b6000546100b0906001600160a01b031681565b610157610152366004610618565b6104a0565b6040519081526020016100c4565b610178610173366004610618565b6104dd565b60405160ff90911681526020016100c4565b6001546001600160a01b031633146101de5760405162461bcd60e51b815260206004820152601260248201527137b7363c903832b73234b7339030b236b4b760711b60448201526064015b60405180910390fd5b6000546001546040516000805160206106e58339815191529261020f926001600160a01b0391821692911690610661565b60405180910390a160018054600080546001600160a01b03199081166001600160a01b03841617909155169055565b600061024861051d565b805490915060ff600160401b82041615906001600160401b031660008115801561026f5750825b90506000826001600160401b0316600114801561028b5750303b155b905081158015610299575080155b156102b75760405163f92ee8a960e01b815260040160405180910390fd5b84546001600160401b031916600117855583156102e057845460ff60401b1916600160401b1785555b6102e933610541565b60328790556033805460ff191660ff8816179055831561034357845460ff60401b19168555604051600181527fc7f505b2f371ae2175ee4913f4499e1f2633a7b5936321eed1cdaeb6115181d29060200160405180910390a15b50505050505050565b6000546001600160a01b031633146103765760405162461bcd60e51b81526004016101d59061067b565b6001546040517fca4f2f25d0898edd99413412fb94012f9e54ec8142f9b093e7720646a95b16a9916103b5916001600160a01b03909116908490610661565b60405180910390a1600180546001600160a01b0319166001600160a01b0392909216919091179055565b6000546001600160a01b031633146104095760405162461bcd60e51b81526004016101d59061067b565b603280549082905560408051828152602081018490527f41f6bd08002989e1cab43547dbe47d12f5539fb22cedf133a8620064785b26d1910160405180910390a15050565b6000546001600160a01b031633146104785760405162461bcd60e51b81526004016101d59061067b565b603380546001600160a01b0390921661010002610100600160a81b0319909216919091179055565b6033546000906001600160a01b0383811661010090920416146104d55760405162461bcd60e51b81526004016101d59061069f565b505060325490565b6033546000906001600160a01b0383811661010090920416146105125760405162461bcd60e51b81526004016101d59061069f565b505060335460ff1690565b7ff0c57e16840df040f15088dc2f81fe391c3923bec73e23a9662efc9c229c6a0090565b610549610555565b6105528161057c565b50565b61055d6105c8565b61057a57604051631afcd79f60e31b815260040160405180910390fd5b565b610584610555565b600080546001600160a01b0319166001600160a01b0383161781556040516000805160206106e5833981519152916105bd918490610661565b60405180910390a150565b60006105d261051d565b54600160401b900460ff16919050565b600080604083850312156105f557600080fd5b82359150602083013560ff8116811461060d57600080fd5b809150509250929050565b60006020828403121561062a57600080fd5b81356001600160a01b038116811461064157600080fd5b9392505050565b60006020828403121561065a57600080fd5b5035919050565b6001600160a01b0392831681529116602082015260400190565b6020808252600a908201526937b7363c9030b236b4b760b11b604082015260600190565b60208082526025908201527f58536f6c764254434f7261636c653a20696e76616c6964206572633230206164604082015264647265737360d81b60608201526080019056fef9ffabca9c8276e99321725bcb43fb076a6c66a54b7f21c4e8146d8519b417dca26469706673582212200168bee32e4b435e208dceda4eafe77966aaf4a5718bb5fe74fdd3ca665fc39b64736f6c63430008140033",
  "devdoc": {
    "errors": {
      "InvalidInitialization()": [
        {
          "details": "The contract is already initialized."
        }
      ],
      "NotInitializing()": [
        {
          "details": "The contract is not initializing."
        }
      ]
    },
    "events": {
      "Initialized(uint64)": {
        "details": "Triggered when the contract has been initialized or reinitialized."
      }
    },
    "kind": "dev",
    "methods": {},
    "version": 1
  },
  "userdoc": {
    "kind": "user",
    "methods": {},
    "version": 1
  },
  "storageLayout": {
    "storage": [
      {
        "astId": 5265,
        "contract": "contracts/oracle/XSolvBTCOracle.sol:XSolvBTCOracle",
        "label": "admin",
        "offset": 0,
        "slot": "0",
        "type": "t_address"
      },
      {
        "astId": 5267,
        "contract": "contracts/oracle/XSolvBTCOracle.sol:XSolvBTCOracle",
        "label": "pendingAdmin",
        "offset": 0,
        "slot": "1",
        "type": "t_address"
      },
      {
        "astId": 5362,
        "contract": "contracts/oracle/XSolvBTCOracle.sol:XSolvBTCOracle",
        "label": "__gap",
        "offset": 0,
        "slot": "2",
        "type": "t_array(t_uint256)48_storage"
      },
      {
        "astId": 5715,
        "contract": "contracts/oracle/XSolvBTCOracle.sol:XSolvBTCOracle",
        "label": "_currentNav",
        "offset": 0,
        "slot": "50",
        "type": "t_uint256"
      },
      {
        "astId": 5717,
        "contract": "contracts/oracle/XSolvBTCOracle.sol:XSolvBTCOracle",
        "label": "_navDecimals",
        "offset": 0,
        "slot": "51",
        "type": "t_uint8"
      },
      {
        "astId": 5719,
        "contract": "contracts/oracle/XSolvBTCOracle.sol:XSolvBTCOracle",
        "label": "xSolvBTC",
        "offset": 1,
        "slot": "51",
        "type": "t_address"
      }
    ],
    "types": {
      "t_address": {
        "encoding": "inplace",
        "label": "address",
        "numberOfBytes": "20"
      },
      "t_array(t_uint256)48_storage": {
        "base": "t_uint256",
        "encoding": "inplace",
        "label": "uint256[48]",
        "numberOfBytes": "1536"
      },
      "t_uint256": {
        "encoding": "inplace",
        "label": "uint256",
        "numberOfBytes": "32"
      },
      "t_uint8": {
        "encoding": "inplace",
        "label": "uint8",
        "numberOfBytes": "1"
      }
    }
  }
}