{
  "address": "0x7112Df9C31C246d83FF9C7337759aA672dc34d79",
  "abi": [
    {
      "inputs": [],
      "name": "InvalidInitialization",
      "type": "error"
    },
    {
      "inputs": [],
      "name": "NotInitializing",
      "type": "error"
    },
    {
      "anonymous": false,
      "inputs": [
        {
          "indexed": false,
          "internalType": "uint64",
          "name": "version",
          "type": "uint64"
        }
      ],
      "name": "Initialized",
      "type": "event"
    },
    {
      "anonymous": false,
      "inputs": [
        {
          "indexed": false,
          "internalType": "address",
          "name": "oldAdmin",
          "type": "address"
        },
        {
          "indexed": false,
          "internalType": "address",
          "name": "newAdmin",
          "type": "address"
        }
      ],
      "name": "NewAdmin",
      "type": "event"
    },
    {
      "anonymous": false,
      "inputs": [
        {
          "indexed": false,
          "internalType": "address",
          "name": "oldPendingAdmin",
          "type": "address"
        },
        {
          "indexed": false,
          "internalType": "address",
          "name": "newPendingAdmin",
          "type": "address"
        }
      ],
      "name": "NewPendingAdmin",
      "type": "event"
    },
    {
      "anonymous": false,
      "inputs": [
        {
          "indexed": true,
          "internalType": "address",
          "name": "erc20",
          "type": "address"
        },
        {
          "indexed": true,
          "internalType": "bytes32",
          "name": "poolId",
          "type": "bytes32"
        },
        {
          "indexed": false,
          "internalType": "address",
          "name": "sft",
          "type": "address"
        },
        {
          "indexed": false,
          "internalType": "uint256",
          "name": "sftSlot",
          "type": "uint256"
        },
        {
          "indexed": false,
          "internalType": "address",
          "name": "oracle",
          "type": "address"
        }
      ],
      "name": "SetSFTOracle",
      "type": "event"
    },
    {
      "inputs": [],
      "name": "acceptAdmin",
      "outputs": [],
      "stateMutability": "nonpayable",
      "type": "function"
    },
    {
      "inputs": [],
      "name": "admin",
      "outputs": [
        {
          "internalType": "address",
          "name": "",
          "type": "address"
        }
      ],
      "stateMutability": "view",
      "type": "function"
    },
    {
      "inputs": [
        {
          "internalType": "address",
          "name": "erc20",
          "type": "address"
        }
      ],
      "name": "getNav",
      "outputs": [
        {
          "internalType": "uint256",
          "name": "",
          "type": "uint256"
        }
      ],
      "stateMutability": "view",
      "type": "function"
    },
    {
      "inputs": [],
      "name": "initialize",
      "outputs": [],
      "stateMutability": "nonpayable",
      "type": "function"
    },
    {
      "inputs": [
        {
          "internalType": "address",
          "name": "erc20",
          "type": "address"
        }
      ],
      "name": "navDecimals",
      "outputs": [
        {
          "internalType": "uint8",
          "name": "",
          "type": "uint8"
        }
      ],
      "stateMutability": "view",
      "type": "function"
    },
    {
      "inputs": [],
      "name": "pendingAdmin",
      "outputs": [
        {
          "internalType": "address",
          "name": "",
          "type": "address"
        }
      ],
      "stateMutability": "view",
      "type": "function"
    },
    {
      "inputs": [
        {
          "internalType": "address",
          "name": "erc20",
          "type": "address"
        },
        {
          "internalType": "address",
          "name": "sft",
          "type": "address"
        },
        {
          "internalType": "uint256",
          "name": "sftSlot",
          "type": "uint256"
        },
        {
          "internalType": "bytes32",
          "name": "poolId",
          "type": "bytes32"
        },
        {
          "internalType": "address",
          "name": "sftOracle",
          "type": "address"
        }
      ],
      "name": "setSFTOracle",
      "outputs": [],
      "stateMutability": "nonpayable",
      "type": "function"
    },
    {
      "inputs": [
        {
          "internalType": "address",
          "name": "",
          "type": "address"
        }
      ],
      "name": "sftOracles",
      "outputs": [
        {
          "internalType": "bytes32",
          "name": "poolId",
          "type": "bytes32"
        },
        {
          "internalType": "address",
          "name": "sft",
          "type": "address"
        },
        {
          "internalType": "uint256",
          "name": "sftSlot",
          "type": "uint256"
        },
        {
          "internalType": "address",
          "name": "oracle",
          "type": "address"
        }
      ],
      "stateMutability": "view",
      "type": "function"
    },
    {
      "inputs": [
        {
          "internalType": "address",
          "name": "newPendingAdmin_",
          "type": "address"
        }
      ],
      "name": "transferAdmin",
      "outputs": [],
      "stateMutability": "nonpayable",
      "type": "function"
    }
  ],
  "transactionHash": "0xaa8f123288e9b62e5255b9be6bcbfd41de3360f070b78de984dbe5d0355d0d6a",
  "args": [],
  "numDeployments": 1,
  "solcInputHash": "cff77f3839b3f2b77324aea666ae4a63",
  "bytecode": "0x608060405234801561001057600080fd5b50610ca2806100206000396000f3fe608060405234801561001057600080fd5b50600436106100835760003560e01c80630e18b6811461008857806326782247146100925780633ebbbe4e146100c257806344afbef71461012f57806375829def146101425780638129fc1c14610155578063f851a4401461015d578063fb59600814610170578063ff554afa14610191575b600080fd5b6100906101b6565b005b6001546100a5906001600160a01b031681565b6040516001600160a01b0390911681526020015b60405180910390f35b6101046100d0366004610a13565b603260205260009081526040902080546001820154600283015460039093015491926001600160a01b039182169290911684565b604080519485526001600160a01b0393841660208601528401919091521660608201526080016100b9565b61009061013d366004610a37565b61026a565b610090610150366004610a13565b610529565b6100906105bc565b6000546100a5906001600160a01b031681565b61018361017e366004610a13565b6106b4565b6040519081526020016100b9565b6101a461019f366004610a13565b6107cd565b60405160ff90911681526020016100b9565b6001546001600160a01b0316331461020a5760405162461bcd60e51b815260206004820152601260248201527137b7363c903832b73234b7339030b236b4b760711b60448201526064015b60405180910390fd5b600054600154604051600080516020610c4d8339815191529261023b926001600160a01b0391821692911690610a96565b60405180910390a160018054600080546001600160a01b03199081166001600160a01b03841617909155169055565b6000546001600160a01b031633146102945760405162461bcd60e51b815260040161020190610ab0565b6001600160a01b0385166102f55760405162461bcd60e51b81526020600482015260346024820152600080516020610c2d8339815191526044820152736e76616c6964206572633230206164647265737360601b6064820152608401610201565b6001600160a01b0384166103545760405162461bcd60e51b81526020600482015260326024820152600080516020610c2d8339815191526044820152716e76616c696420736674206164647265737360701b6064820152608401610201565b826000036103aa5760405162461bcd60e51b815260206004820152602f6024820152600080516020610c2d83398151915260448201526e1b9d985b1a59081cd99d081cdb1bdd608a1b6064820152608401610201565b60008290036104005760405162461bcd60e51b815260206004820152602e6024820152600080516020610c2d83398151915260448201526d1b9d985b1a59081c1bdbdb081a5960921b6064820152608401610201565b6001600160a01b0381166104665760405162461bcd60e51b81526020600482015260396024820152600080516020610c2d8339815191526044820152786e76616c696420736674206f7261636c65206164647265737360381b6064820152608401610201565b604080516080810182528381526001600160a01b03868116602080840182815284860189815287851660608088018281528e88166000818152603288528b902099518a55945160018a018054918a166001600160a01b0319928316179055935160028a015551600390980180549890971697909216969096179094558551928352908201889052938101929092528492917fd0d7fbfc5efc2f7cc91fc8be99ab593c00a3176a968efad158354ca27574de7e910160405180910390a35050505050565b6000546001600160a01b031633146105535760405162461bcd60e51b815260040161020190610ab0565b6001546040517fca4f2f25d0898edd99413412fb94012f9e54ec8142f9b093e7720646a95b16a991610592916001600160a01b03909116908490610a96565b60405180910390a1600180546001600160a01b0319166001600160a01b0392909216919091179055565b60006105c6610939565b805490915060ff600160401b82041615906001600160401b03166000811580156105ed5750825b90506000826001600160401b031660011480156106095750303b155b905081158015610617575080155b156106355760405163f92ee8a960e01b815260040160405180910390fd5b84546001600160401b0319166001178555831561065e57845460ff60401b1916600160401b1785555b6106673361095d565b83156106ad57845460ff60401b19168555604051600181527fc7f505b2f371ae2175ee4913f4499e1f2633a7b5936321eed1cdaeb6115181d29060200160405180910390a15b5050505050565b6001600160a01b03808216600090815260326020526040812060038101549192909116158015906106e55750805415155b61074c5760405162461bcd60e51b815260206004820152603260248201527f536f6c764254435969656c64546f6b656e4f7261636c65466f725346543a206e60448201527106f206f7261636c6520666f722065726332360741b6064820152608401610201565b600381015481546040516395b4c46760e01b815260048101919091524260248201526000916001600160a01b0316906395b4c467906044016040805180830381865afa1580156107a0573d6000803e3d6000fd5b505050506040513d601f19601f820116820180604052508101906107c49190610ad4565b50949350505050565b6001600160a01b038082166000908152603260209081526040808320600181015482516308ba344760e41b815292519495919486949190921692638ba3447092600480830193928290030181865afa15801561082d573d6000803e3d6000fd5b505050506040513d601f19601f820116820180604052508101906108519190610b08565b90506000816001600160a01b03166394f7e23e84600201546040518263ffffffff1660e01b815260040161088791815260200190565b60e060405180830381865afa1580156108a4573d6000803e3d6000fd5b505050506040513d601f19601f820116820180604052508101906108c89190610b4c565b905080602001516001600160a01b031663313ce5676040518163ffffffff1660e01b8152600401602060405180830381865afa15801561090c573d6000803e3d6000fd5b505050506040513d601f19601f820116820180604052508101906109309190610c09565b95945050505050565b7ff0c57e16840df040f15088dc2f81fe391c3923bec73e23a9662efc9c229c6a0090565b610965610971565b61096e81610998565b50565b6109796109e4565b61099657604051631afcd79f60e31b815260040160405180910390fd5b565b6109a0610971565b600080546001600160a01b0319166001600160a01b038316178155604051600080516020610c4d833981519152916109d9918490610a96565b60405180910390a150565b60006109ee610939565b54600160401b900460ff16919050565b6001600160a01b038116811461096e57600080fd5b600060208284031215610a2557600080fd5b8135610a30816109fe565b9392505050565b600080600080600060a08688031215610a4f57600080fd5b8535610a5a816109fe565b94506020860135610a6a816109fe565b935060408601359250606086013591506080860135610a88816109fe565b809150509295509295909350565b6001600160a01b0392831681529116602082015260400190565b6020808252600a908201526937b7363c9030b236b4b760b11b604082015260600190565b60008060408385031215610ae757600080fd5b505080516020909101519092909150565b8051610b03816109fe565b919050565b600060208284031215610b1a57600080fd5b8151610a30816109fe565b80516001600160401b0381168114610b0357600080fd5b80518015158114610b0357600080fd5b600060e08284031215610b5e57600080fd5b60405160e081016001600160401b0381118282101715610b8e57634e487b7160e01b600052604160045260246000fd5b604052610b9a83610af8565b8152610ba860208401610af8565b6020820152610bb960408401610b25565b6040820152610bca60608401610b25565b6060820152610bdb60808401610b25565b6080820152610bec60a08401610b3c565b60a0820152610bfd60c08401610b3c565b60c08201529392505050565b600060208284031215610c1b57600080fd5b815160ff81168114610a3057600080fdfe536f6c764254435969656c64546f6b656e4f7261636c65466f725346543a2069f9ffabca9c8276e99321725bcb43fb076a6c66a54b7f21c4e8146d8519b417dca26469706673582212204e4b34403fc3d5b879e2239917017397b262056ee04a8a9b06f5c9916f1f731064736f6c63430008140033",
  "devdoc": {
    "errors": {
      "InvalidInitialization()": [
        {
          "details": "The contract is already initialized."
        }
      ],
      "NotInitializing()": [
        {
          "details": "The contract is not initializing."
        }
      ]
    },
    "events": {
      "Initialized(uint64)": {
        "details": "Triggered when the contract has been initialized or reinitialized."
      }
    },
    "kind": "dev",
    "methods": {},
    "version": 1
  },
  "userdoc": {
    "kind": "user",
    "methods": {},
    "version": 1
  },
  "storageLayout": {
    "storage": [
      {
        "astId": 13101,
        "contract": "contracts/oracle/SolvBTCYieldTokenOracleForSFT.sol:SolvBTCYieldTokenOracleForSFT",
        "label": "admin",
        "offset": 0,
        "slot": "0",
        "type": "t_address"
      },
      {
        "astId": 13103,
        "contract": "contracts/oracle/SolvBTCYieldTokenOracleForSFT.sol:SolvBTCYieldTokenOracleForSFT",
        "label": "pendingAdmin",
        "offset": 0,
        "slot": "1",
        "type": "t_address"
      },
      {
        "astId": 13198,
        "contract": "contracts/oracle/SolvBTCYieldTokenOracleForSFT.sol:SolvBTCYieldTokenOracleForSFT",
        "label": "__gap",
        "offset": 0,
        "slot": "2",
        "type": "t_array(t_uint256)48_storage"
      },
      {
        "astId": 14138,
        "contract": "contracts/oracle/SolvBTCYieldTokenOracleForSFT.sol:SolvBTCYieldTokenOracleForSFT",
        "label": "sftOracles",
        "offset": 0,
        "slot": "50",
        "type": "t_mapping(t_address,t_struct(SFTOracleConfig)14121_storage)"
      }
    ],
    "types": {
      "t_address": {
        "encoding": "inplace",
        "label": "address",
        "numberOfBytes": "20"
      },
      "t_array(t_uint256)48_storage": {
        "base": "t_uint256",
        "encoding": "inplace",
        "label": "uint256[48]",
        "numberOfBytes": "1536"
      },
      "t_bytes32": {
        "encoding": "inplace",
        "label": "bytes32",
        "numberOfBytes": "32"
      },
      "t_mapping(t_address,t_struct(SFTOracleConfig)14121_storage)": {
        "encoding": "mapping",
        "key": "t_address",
        "label": "mapping(address => struct SolvBTCYieldTokenOracleForSFT.SFTOracleConfig)",
        "numberOfBytes": "32",
        "value": "t_struct(SFTOracleConfig)14121_storage"
      },
      "t_struct(SFTOracleConfig)14121_storage": {
        "encoding": "inplace",
        "label": "struct SolvBTCYieldTokenOracleForSFT.SFTOracleConfig",
        "members": [
          {
            "astId": 14114,
            "contract": "contracts/oracle/SolvBTCYieldTokenOracleForSFT.sol:SolvBTCYieldTokenOracleForSFT",
            "label": "poolId",
            "offset": 0,
            "slot": "0",
            "type": "t_bytes32"
          },
          {
            "astId": 14116,
            "contract": "contracts/oracle/SolvBTCYieldTokenOracleForSFT.sol:SolvBTCYieldTokenOracleForSFT",
            "label": "sft",
            "offset": 0,
            "slot": "1",
            "type": "t_address"
          },
          {
            "astId": 14118,
            "contract": "contracts/oracle/SolvBTCYieldTokenOracleForSFT.sol:SolvBTCYieldTokenOracleForSFT",
            "label": "sftSlot",
            "offset": 0,
            "slot": "2",
            "type": "t_uint256"
          },
          {
            "astId": 14120,
            "contract": "contracts/oracle/SolvBTCYieldTokenOracleForSFT.sol:SolvBTCYieldTokenOracleForSFT",
            "label": "oracle",
            "offset": 0,
            "slot": "3",
            "type": "t_address"
          }
        ],
        "numberOfBytes": "128"
      },
      "t_uint256": {
        "encoding": "inplace",
        "label": "uint256",
        "numberOfBytes": "32"
      }
    }
  }
}