{
  "address": "0x71326c8293d8DacF74031D8bA7240Dd38Cb91343",
  "abi": [
    {
      "inputs": [],
      "stateMutability": "nonpayable",
      "type": "constructor"
    },
    {
      "inputs": [],
      "name": "InvalidInitialization",
      "type": "error"
    },
    {
      "inputs": [],
      "name": "NotInitializing",
      "type": "error"
    },
    {
      "inputs": [],
      "name": "ReentrancyGuardReentrantCall",
      "type": "error"
    },
    {
      "anonymous": false,
      "inputs": [
        {
          "indexed": true,
          "internalType": "address",
          "name": "owner",
          "type": "address"
        },
        {
          "indexed": true,
          "internalType": "address",
          "name": "solvBTC",
          "type": "address"
        },
        {
          "indexed": true,
          "internalType": "address",
          "name": "xSolvBTC",
          "type": "address"
        },
        {
          "indexed": false,
          "internalType": "uint256",
          "name": "solvBTCAmount",
          "type": "uint256"
        },
        {
          "indexed": false,
          "internalType": "uint256",
          "name": "xSolvBTCAmount",
          "type": "uint256"
        }
      ],
      "name": "Deposit",
      "type": "event"
    },
    {
      "anonymous": false,
      "inputs": [
        {
          "indexed": false,
          "internalType": "uint64",
          "name": "version",
          "type": "uint64"
        }
      ],
      "name": "Initialized",
      "type": "event"
    },
    {
      "anonymous": false,
      "inputs": [
        {
          "indexed": false,
          "internalType": "address",
          "name": "oldAdmin",
          "type": "address"
        },
        {
          "indexed": false,
          "internalType": "address",
          "name": "newAdmin",
          "type": "address"
        }
      ],
      "name": "NewAdmin",
      "type": "event"
    },
    {
      "anonymous": false,
      "inputs": [
        {
          "indexed": false,
          "internalType": "address",
          "name": "oldPendingAdmin",
          "type": "address"
        },
        {
          "indexed": false,
          "internalType": "address",
          "name": "newPendingAdmin",
          "type": "address"
        }
      ],
      "name": "NewPendingAdmin",
      "type": "event"
    },
    {
      "anonymous": false,
      "inputs": [
        {
          "indexed": false,
          "internalType": "bool",
          "name": "oldDepositAllowed",
          "type": "bool"
        },
        {
          "indexed": false,
          "internalType": "bool",
          "name": "newDepositAllowed",
          "type": "bool"
        }
      ],
      "name": "SetDepositAllowed",
      "type": "event"
    },
    {
      "anonymous": false,
      "inputs": [
        {
          "indexed": false,
          "internalType": "address",
          "name": "oldFeeRecipient",
          "type": "address"
        },
        {
          "indexed": false,
          "internalType": "address",
          "name": "newFeeRecipient",
          "type": "address"
        }
      ],
      "name": "SetFeeRecipient",
      "type": "event"
    },
    {
      "anonymous": false,
      "inputs": [
        {
          "indexed": false,
          "internalType": "uint64",
          "name": "oldWithdrawFeeRate",
          "type": "uint64"
        },
        {
          "indexed": false,
          "internalType": "uint64",
          "name": "newWithdrawFeeRate",
          "type": "uint64"
        }
      ],
      "name": "SetWithdrawFeeRate",
      "type": "event"
    },
    {
      "anonymous": false,
      "inputs": [
        {
          "indexed": true,
          "internalType": "address",
          "name": "owner",
          "type": "address"
        },
        {
          "indexed": true,
          "internalType": "address",
          "name": "solvBTC",
          "type": "address"
        },
        {
          "indexed": true,
          "internalType": "address",
          "name": "xSolvBTC",
          "type": "address"
        },
        {
          "indexed": false,
          "internalType": "uint256",
          "name": "solvBTCAmount",
          "type": "uint256"
        },
        {
          "indexed": false,
          "internalType": "uint256",
          "name": "xSolvBTCAmount",
          "type": "uint256"
        }
      ],
      "name": "Withdraw",
      "type": "event"
    },
    {
      "inputs": [],
      "name": "acceptAdmin",
      "outputs": [],
      "stateMutability": "nonpayable",
      "type": "function"
    },
    {
      "inputs": [],
      "name": "admin",
      "outputs": [
        {
          "internalType": "address",
          "name": "",
          "type": "address"
        }
      ],
      "stateMutability": "view",
      "type": "function"
    },
    {
      "inputs": [
        {
          "internalType": "uint256",
          "name": "solvBtcAmount_",
          "type": "uint256"
        }
      ],
      "name": "deposit",
      "outputs": [
        {
          "internalType": "uint256",
          "name": "xSolvBtcAmount",
          "type": "uint256"
        }
      ],
      "stateMutability": "nonpayable",
      "type": "function"
    },
    {
      "inputs": [],
      "name": "depositAllowed",
      "outputs": [
        {
          "internalType": "bool",
          "name": "",
          "type": "bool"
        }
      ],
      "stateMutability": "view",
      "type": "function"
    },
    {
      "inputs": [],
      "name": "feeRecipient",
      "outputs": [
        {
          "internalType": "address",
          "name": "",
          "type": "address"
        }
      ],
      "stateMutability": "view",
      "type": "function"
    },
    {
      "inputs": [
        {
          "internalType": "address",
          "name": "solvBTC_",
          "type": "address"
        },
        {
          "internalType": "address",
          "name": "xSolvBTC_",
          "type": "address"
        },
        {
          "internalType": "address",
          "name": "feeRecipient_",
          "type": "address"
        },
        {
          "internalType": "uint64",
          "name": "withdrawFeeRate_",
          "type": "uint64"
        }
      ],
      "name": "initialize",
      "outputs": [],
      "stateMutability": "nonpayable",
      "type": "function"
    },
    {
      "inputs": [],
      "name": "pendingAdmin",
      "outputs": [
        {
          "internalType": "address",
          "name": "",
          "type": "address"
        }
      ],
      "stateMutability": "view",
      "type": "function"
    },
    {
      "inputs": [
        {
          "internalType": "bool",
          "name": "depositAllowed_",
          "type": "bool"
        }
      ],
      "name": "setDepositAllowedOnlyAdmin",
      "outputs": [],
      "stateMutability": "nonpayable",
      "type": "function"
    },
    {
      "inputs": [
        {
          "internalType": "address",
          "name": "feeRecipient_",
          "type": "address"
        }
      ],
      "name": "setFeeRecipientOnlyAdmin",
      "outputs": [],
      "stateMutability": "nonpayable",
      "type": "function"
    },
    {
      "inputs": [
        {
          "internalType": "uint64",
          "name": "withdrawFeeRate_",
          "type": "uint64"
        }
      ],
      "name": "setWithdrawFeeRateOnlyAdmin",
      "outputs": [],
      "stateMutability": "nonpayable",
      "type": "function"
    },
    {
      "inputs": [
        {
          "internalType": "address",
          "name": "newPendingAdmin_",
          "type": "address"
        }
      ],
      "name": "transferAdmin",
      "outputs": [],
      "stateMutability": "nonpayable",
      "type": "function"
    },
    {
      "inputs": [
        {
          "internalType": "uint256",
          "name": "xSolvBtcAmount_",
          "type": "uint256"
        }
      ],
      "name": "withdraw",
      "outputs": [
        {
          "internalType": "uint256",
          "name": "solvBtcAmount",
          "type": "uint256"
        }
      ],
      "stateMutability": "nonpayable",
      "type": "function"
    },
    {
      "inputs": [],
      "name": "withdrawFeeRate",
      "outputs": [
        {
          "internalType": "uint64",
          "name": "",
          "type": "uint64"
        }
      ],
      "stateMutability": "view",
      "type": "function"
    }
  ],
  "transactionHash": "0xe2e95913f2aac8baddbe28f24f27b5e397acfc011306a63d9698ca333a2e03d7",
  "args": [],
  "numDeployments": 1,
  "solcInputHash": "bf2b2082482b09e4bad09dc12c930444",
  "bytecode": "0x608060405234801561001057600080fd5b5061001961001e565b6100d0565b7ff0c57e16840df040f15088dc2f81fe391c3923bec73e23a9662efc9c229c6a00805468010000000000000000900460ff161561006e5760405163f92ee8a960e01b815260040160405180910390fd5b80546001600160401b03908116146100cd5780546001600160401b0319166001600160401b0390811782556040519081527fc7f505b2f371ae2175ee4913f4499e1f2633a7b5936321eed1cdaeb6115181d29060200160405180910390a15b50565b611127806100df6000396000f3fe608060405234801561001057600080fd5b50600436106100af5760003560e01c80630e18b681146100b45780631beeaad4146100be57806326782247146100d15780632d3c6182146101015780632e1a7d4d146101145780633fe3f1cf14610135578063469048401461014857806375829def14610150578063b6768f9c14610163578063b6b55f2514610176578063c30ea2a214610189578063ea99e689146101a1578063f851a440146101b6575b600080fd5b6100bc6101c9565b005b6100bc6100cc366004610f09565b61027d565b6001546100e4906001600160a01b031681565b6040516001600160a01b0390911681526020015b60405180910390f35b6100bc61010f366004610f3b565b6102b3565b610127610122366004610f56565b6102e6565b6040519081526020016100f8565b6100bc610143366004610f6f565b610583565b6100e4610761565b6100bc61015e366004610f09565b61077f565b6100bc610171366004610fc3565b610812565b610127610184366004610f56565b610845565b610191610ac8565b60405190151581526020016100f8565b6101a9610ae7565b6040516100f89190610fe5565b6000546100e4906001600160a01b031681565b6001546001600160a01b0316331461021d5760405162461bcd60e51b815260206004820152601260248201527137b7363c903832b73234b7339030b236b4b760711b60448201526064015b60405180910390fd5b6000546001546040516000805160206110d28339815191529261024e926001600160a01b0391821692911690610ff9565b60405180910390a160018054600080546001600160a01b03199081166001600160a01b03841617909155169055565b6000546001600160a01b031633146102a75760405162461bcd60e51b815260040161021490611013565b6102b081610b0c565b50565b6000546001600160a01b031633146102dd5760405162461bcd60e51b815260040161021490611013565b6102b081610bf1565b60006102f0610cda565b6000821161035b5760405162461bcd60e51b815260206004820152603260248201527f536f6c764254434d756c74694173736574506f6f6c3a207769746864726177206044820152710616d6f756e742063616e6e6f7420626520360741b6064820152608401610214565b6000610365610d10565b60018101546040516238f13760e91b8152600481018690529192506001600160a01b0316906371e26e0090602401602060405180830381865afa1580156103b0573d6000803e3d6000fd5b505050506040513d601f19601f820116820180604052508101906103d49190611037565b6001820154604051632770a7eb60e21b81529193506001600160a01b031690639dc29fac906104099033908790600401611050565b600060405180830381600087803b15801561042357600080fd5b505af1158015610437573d6000803e3d6000fd5b50505050600061044683610d34565b905080156104b857815460028301546040516340c10f1960e01b81526001600160a01b03928316926340c10f1992610485929116908590600401611050565b600060405180830381600087803b15801561049f57600080fd5b505af11580156104b3573d6000803e3d6000fd5b505050505b81546001600160a01b03166340c10f19336104d3848761107f565b6040518363ffffffff1660e01b81526004016104f0929190611050565b600060405180830381600087803b15801561050a57600080fd5b505af115801561051e573d6000803e3d6000fd5b505050506001820154825460408051868152602081018890526001600160a01b03938416939092169133917ffbde797d201c681b91056529119e0b02407c7bb96a4a2c75c01fc9667232c8db910160405180910390a4505061057e610d76565b919050565b600061058d610d87565b805490915060ff600160401b82041615906001600160401b03166000811580156105b45750825b90506000826001600160401b031660011480156105d05750303b155b9050811580156105de575080155b156105fc5760405163f92ee8a960e01b815260040160405180910390fd5b84546001600160401b0319166001178555831561062557845460ff60401b1916600160401b1785555b61062e33610dab565b610636610dbc565b6001600160a01b0389161580159061065657506001600160a01b03881615155b801561066a57506001600160a01b03871615155b6106b65760405162461bcd60e51b815260206004820152601d60248201527f58536f6c76425443506f6f6c3a20696e76616c696420616464726573730000006044820152606401610214565b60006106c0610d10565b80546001600160a01b03808d166001600160a01b0319928316178355600183018054918d169190921617905590506106f788610b0c565b61070087610bf1565b61070a6001610dce565b50831561075657845460ff60401b191685556040517fc7f505b2f371ae2175ee4913f4499e1f2633a7b5936321eed1cdaeb6115181d29061074d90600190610fe5565b60405180910390a15b505050505050505050565b60008061076c610d10565b600201546001600160a01b031692915050565b6000546001600160a01b031633146107a95760405162461bcd60e51b815260040161021490611013565b6001546040517fca4f2f25d0898edd99413412fb94012f9e54ec8142f9b093e7720646a95b16a9916107e8916001600160a01b03909116908490610ff9565b60405180910390a1600180546001600160a01b0319166001600160a01b0392909216919091179055565b6000546001600160a01b0316331461083c5760405162461bcd60e51b815260040161021490611013565b6102b081610dce565b600061084f610cda565b600082116108b95760405162461bcd60e51b815260206004820152603160248201527f536f6c764254434d756c74694173736574506f6f6c3a206465706f736974206160448201527006d6f756e742063616e6e6f74206265203607c1b6064820152608401610214565b60006108c3610d10565b6002810154909150600160e01b900460ff166109345760405162461bcd60e51b815260206004820152602a60248201527f536f6c764254434d756c74694173736574506f6f6c3a206465706f736974206e6044820152691bdd08185b1b1bddd95960b21b6064820152608401610214565b8054604051632770a7eb60e21b81526001600160a01b0390911690639dc29fac906109659033908790600401611050565b600060405180830381600087803b15801561097f57600080fd5b505af1158015610993573d6000803e3d6000fd5b505050506001810154604051630e31c3a960e41b8152600481018590526001600160a01b039091169063e31c3a9090602401602060405180830381865afa1580156109e2573d6000803e3d6000fd5b505050506040513d601f19601f82011682018060405250810190610a069190611037565b60018201546040516340c10f1960e01b81529193506001600160a01b0316906340c10f1990610a3b9033908690600401611050565b600060405180830381600087803b158015610a5557600080fd5b505af1158015610a69573d6000803e3d6000fd5b505050506001810154815460408051868152602081018690526001600160a01b03938416939092169133917f5fe47ed6d4225326d3303476197d782ded5a4e9c14f479dc9ec4992af4e85d59910160405180910390a45061057e610d76565b600080610ad3610d10565b60020154600160e01b900460ff1692915050565b600080610af2610d10565b60020154600160a01b90046001600160401b031692915050565b6001600160a01b038116610b835760405162461bcd60e51b815260206004820152603860248201527f536f6c764254434d756c74694173736574506f6f6c3a2066656520726563697060448201527769656e742063616e6e6f742062652030206164647265737360401b6064820152608401610214565b6000610b8d610d10565b6002810180546001600160a01b038581166001600160a01b031983161790925560405192935016907fd9d6b85b6d670cd443496fc6d03390f739bbff47f96a8e33fb0cdd52ad26f5c290610be49083908690610ff9565b60405180910390a1505050565b612710816001600160401b031610610c645760405162461bcd60e51b815260206004820152603060248201527f536f6c764254434d756c74694173736574506f6f6c3a20696e76616c6964207760448201526f6974686472617720666565207261746560801b6064820152608401610214565b6000610c6e610d10565b6002810180546001600160401b03858116600160a01b818102600160a01b600160e01b0319851617909455604080519490930490911680845260208401919091529293507f9d37f87687413fd0bc1748557720850c7a0447e4a5ba7bcd19ea5aefd3c987009101610be4565b6000610ce4610e3b565b805490915060011901610d0a57604051633ee5aeb560e01b815260040160405180910390fd5b60029055565b7f4142751e4ad30de9575cf73d5fefb7910c20ffeb3557c886f882c49419246b0090565b600080610d3f610d10565b600281015490915061271090610d6590600160a01b90046001600160401b031685611098565b610d6f91906110af565b9392505050565b6000610d80610e3b565b6001905550565b7ff0c57e16840df040f15088dc2f81fe391c3923bec73e23a9662efc9c229c6a0090565b610db3610e5f565b6102b081610e84565b610dc4610e5f565b610dcc610ed0565b565b6000610dd8610d10565b60028101805460ff60e01b198116600160e01b86151581810292909217909355604080519390920460ff16801515845260208401919091529293507f7b33b12f512b79aaaafad764ebd4cf160f1bd8a28f89f26bbda74b49c56d7ec49101610be4565b7f9b779b17422d0df92223018b32b4d1fa46e071723d6817e2486d003becc55f0090565b610e67610ed8565b610dcc57604051631afcd79f60e31b815260040160405180910390fd5b610e8c610e5f565b600080546001600160a01b0319166001600160a01b0383161781556040516000805160206110d283398151915291610ec5918490610ff9565b60405180910390a150565b610d76610e5f565b6000610ee2610d87565b54600160401b900460ff16919050565b80356001600160a01b038116811461057e57600080fd5b600060208284031215610f1b57600080fd5b610d6f82610ef2565b80356001600160401b038116811461057e57600080fd5b600060208284031215610f4d57600080fd5b610d6f82610f24565b600060208284031215610f6857600080fd5b5035919050565b60008060008060808587031215610f8557600080fd5b610f8e85610ef2565b9350610f9c60208601610ef2565b9250610faa60408601610ef2565b9150610fb860608601610f24565b905092959194509250565b600060208284031215610fd557600080fd5b81358015158114610d6f57600080fd5b6001600160401b0391909116815260200190565b6001600160a01b0392831681529116602082015260400190565b6020808252600a908201526937b7363c9030b236b4b760b11b604082015260600190565b60006020828403121561104957600080fd5b5051919050565b6001600160a01b03929092168252602082015260400190565b634e487b7160e01b600052601160045260246000fd5b8181038181111561109257611092611069565b92915050565b808202811582820484141761109257611092611069565b6000826110cc57634e487b7160e01b600052601260045260246000fd5b50049056fef9ffabca9c8276e99321725bcb43fb076a6c66a54b7f21c4e8146d8519b417dca26469706673582212205b9d98a3de5d2799dd0f1181f7d8ee87c7d6dba0c8a89050e60e0c51823ce77c64736f6c63430008140033",
  "devdoc": {
    "details": "This contract is a pool that allows users to deposit and withdraw solvBTC and xSolvBTC.The xSolvBTC will be minted, and the solvBTC will be burned when the user withdraws.The SolvBTC will be minted, and the xSolvBTC will be burned when the user deposits.The withdraw fee will be deducted from the solvBTC, and the fee will be sent to the fee recipient.",
    "errors": {
      "InvalidInitialization()": [
        {
          "details": "The contract is already initialized."
        }
      ],
      "NotInitializing()": [
        {
          "details": "The contract is not initializing."
        }
      ],
      "ReentrancyGuardReentrantCall()": [
        {
          "details": "Unauthorized reentrant call."
        }
      ]
    },
    "events": {
      "Initialized(uint64)": {
        "details": "Triggered when the contract has been initialized or reinitialized."
      }
    },
    "kind": "dev",
    "methods": {
      "constructor": {
        "custom:oz-upgrades-unsafe-allow": "constructor"
      },
      "deposit(uint256)": {
        "params": {
          "solvBtcAmount_": "The amount of solvBTC to deposit"
        },
        "returns": {
          "xSolvBtcAmount": "The amount of xSolvBTC received"
        }
      },
      "depositAllowed()": {
        "returns": {
          "_0": "depositAllowed The deposit allowed"
        }
      },
      "feeRecipient()": {
        "returns": {
          "_0": "feeRecipient The address of the fee recipient"
        }
      },
      "initialize(address,address,address,uint64)": {
        "params": {
          "feeRecipient_": "The address of the fee recipient",
          "solvBTC_": "The address of the solvBTC token",
          "withdrawFeeRate_": "The withdraw fee rate, 10000 = 100%",
          "xSolvBTC_": "The address of the xSolvBTC token"
        }
      },
      "setDepositAllowedOnlyAdmin(bool)": {
        "params": {
          "depositAllowed_": "The deposit allowed"
        }
      },
      "setFeeRecipientOnlyAdmin(address)": {
        "params": {
          "feeRecipient_": "The address of the fee recipient"
        }
      },
      "setWithdrawFeeRateOnlyAdmin(uint64)": {
        "params": {
          "withdrawFeeRate_": "The withdraw fee rate, 10000 = 100%"
        }
      },
      "withdraw(uint256)": {
        "params": {
          "xSolvBtcAmount_": "The amount of xSolvBTC to withdraw"
        },
        "returns": {
          "solvBtcAmount": "The amount of solvBTC received"
        }
      },
      "withdrawFeeRate()": {
        "returns": {
          "_0": "withdrawFeeRate The withdraw fee rate, 10000 = 100%"
        }
      }
    },
    "title": "XSolvBTCPool",
    "version": 1
  },
  "userdoc": {
    "kind": "user",
    "methods": {
      "deposit(uint256)": {
        "notice": "Deposit solvBTC to the pool"
      },
      "depositAllowed()": {
        "notice": "Get the deposit allowed"
      },
      "feeRecipient()": {
        "notice": "Get the fee recipient"
      },
      "initialize(address,address,address,uint64)": {
        "notice": "Initialize the pool"
      },
      "setDepositAllowedOnlyAdmin(bool)": {
        "notice": "Set the deposit allowed"
      },
      "setFeeRecipientOnlyAdmin(address)": {
        "notice": "Set the fee recipient"
      },
      "setWithdrawFeeRateOnlyAdmin(uint64)": {
        "notice": "Set the withdraw fee rate"
      },
      "withdraw(uint256)": {
        "notice": "Withdraw solvBTC from the pool"
      },
      "withdrawFeeRate()": {
        "notice": "Get the withdraw fee rate"
      }
    },
    "notice": "The pool for xSolvBTC, which is a yield token of solvBTC.",
    "version": 1
  },
  "storageLayout": {
    "storage": [
      {
        "astId": 14332,
        "contract": "contracts/XSolvBTCPool.sol:XSolvBTCPool",
        "label": "admin",
        "offset": 0,
        "slot": "0",
        "type": "t_address"
      },
      {
        "astId": 14334,
        "contract": "contracts/XSolvBTCPool.sol:XSolvBTCPool",
        "label": "pendingAdmin",
        "offset": 0,
        "slot": "1",
        "type": "t_address"
      },
      {
        "astId": 14429,
        "contract": "contracts/XSolvBTCPool.sol:XSolvBTCPool",
        "label": "__gap",
        "offset": 0,
        "slot": "2",
        "type": "t_array(t_uint256)48_storage"
      }
    ],
    "types": {
      "t_address": {
        "encoding": "inplace",
        "label": "address",
        "numberOfBytes": "20"
      },
      "t_array(t_uint256)48_storage": {
        "base": "t_uint256",
        "encoding": "inplace",
        "label": "uint256[48]",
        "numberOfBytes": "1536"
      },
      "t_uint256": {
        "encoding": "inplace",
        "label": "uint256",
        "numberOfBytes": "32"
      }
    }
  }
}