{
  "address": "0xcf871588203aF2A70E8513db43D785023f5E8aA1",
  "abi": [
    {
      "inputs": [],
      "stateMutability": "nonpayable",
      "type": "constructor"
    },
    {
      "inputs": [],
      "name": "InvalidInitialization",
      "type": "error"
    },
    {
      "inputs": [],
      "name": "NotInitializing",
      "type": "error"
    },
    {
      "anonymous": false,
      "inputs": [
        {
          "indexed": false,
          "internalType": "uint64",
          "name": "version",
          "type": "uint64"
        }
      ],
      "name": "Initialized",
      "type": "event"
    },
    {
      "anonymous": false,
      "inputs": [
        {
          "indexed": false,
          "internalType": "address",
          "name": "oldAdmin",
          "type": "address"
        },
        {
          "indexed": false,
          "internalType": "address",
          "name": "newAdmin",
          "type": "address"
        }
      ],
      "name": "NewAdmin",
      "type": "event"
    },
    {
      "anonymous": false,
      "inputs": [
        {
          "indexed": false,
          "internalType": "address",
          "name": "oldPendingAdmin",
          "type": "address"
        },
        {
          "indexed": false,
          "internalType": "address",
          "name": "newPendingAdmin",
          "type": "address"
        }
      ],
      "name": "NewPendingAdmin",
      "type": "event"
    },
    {
      "anonymous": false,
      "inputs": [
        {
          "indexed": false,
          "internalType": "uint256",
          "name": "navTime",
          "type": "uint256"
        },
        {
          "indexed": false,
          "internalType": "uint256",
          "name": "nav",
          "type": "uint256"
        }
      ],
      "name": "SetNav",
      "type": "event"
    },
    {
      "inputs": [],
      "name": "acceptAdmin",
      "outputs": [],
      "stateMutability": "nonpayable",
      "type": "function"
    },
    {
      "inputs": [],
      "name": "admin",
      "outputs": [
        {
          "internalType": "address",
          "name": "",
          "type": "address"
        }
      ],
      "stateMutability": "view",
      "type": "function"
    },
    {
      "inputs": [
        {
          "internalType": "address",
          "name": "erc20_",
          "type": "address"
        }
      ],
      "name": "getNav",
      "outputs": [
        {
          "internalType": "uint256",
          "name": "",
          "type": "uint256"
        }
      ],
      "stateMutability": "view",
      "type": "function"
    },
    {
      "inputs": [
        {
          "internalType": "uint8",
          "name": "navDecimals_",
          "type": "uint8"
        }
      ],
      "name": "initialize",
      "outputs": [],
      "stateMutability": "nonpayable",
      "type": "function"
    },
    {
      "inputs": [],
      "name": "latestUpdatedAt",
      "outputs": [
        {
          "internalType": "uint256",
          "name": "",
          "type": "uint256"
        }
      ],
      "stateMutability": "view",
      "type": "function"
    },
    {
      "inputs": [
        {
          "internalType": "address",
          "name": "erc20_",
          "type": "address"
        }
      ],
      "name": "navDecimals",
      "outputs": [
        {
          "internalType": "uint8",
          "name": "",
          "type": "uint8"
        }
      ],
      "stateMutability": "view",
      "type": "function"
    },
    {
      "inputs": [],
      "name": "pendingAdmin",
      "outputs": [
        {
          "internalType": "address",
          "name": "",
          "type": "address"
        }
      ],
      "stateMutability": "view",
      "type": "function"
    },
    {
      "inputs": [
        {
          "internalType": "uint256",
          "name": "nav_",
          "type": "uint256"
        }
      ],
      "name": "setNav",
      "outputs": [],
      "stateMutability": "nonpayable",
      "type": "function"
    },
    {
      "inputs": [
        {
          "internalType": "address",
          "name": "xSolvBTC_",
          "type": "address"
        }
      ],
      "name": "setXSolvBTC",
      "outputs": [],
      "stateMutability": "nonpayable",
      "type": "function"
    },
    {
      "inputs": [
        {
          "internalType": "address",
          "name": "newPendingAdmin_",
          "type": "address"
        }
      ],
      "name": "transferAdmin",
      "outputs": [],
      "stateMutability": "nonpayable",
      "type": "function"
    },
    {
      "inputs": [],
      "name": "xSolvBTC",
      "outputs": [
        {
          "internalType": "address",
          "name": "",
          "type": "address"
        }
      ],
      "stateMutability": "view",
      "type": "function"
    }
  ],
  "transactionHash": "0x37d31b7c127b189cfe0aeeba609e8a0441ea8b42ec8b1589f620e0d8c1fb61e6",
  "args": [],
  "numDeployments": 1,
  "solcInputHash": "bf2b2082482b09e4bad09dc12c930444",
  "bytecode": "0x608060405234801561001057600080fd5b5061001961001e565b6100d0565b7ff0c57e16840df040f15088dc2f81fe391c3923bec73e23a9662efc9c229c6a00805468010000000000000000900460ff161561006e5760405163f92ee8a960e01b815260040160405180910390fd5b80546001600160401b03908116146100cd5780546001600160401b0319166001600160401b0390811782556040519081527fc7f505b2f371ae2175ee4913f4499e1f2633a7b5936321eed1cdaeb6115181d29060200160405180910390a15b50565b6107c6806100df6000396000f3fe608060405234801561001057600080fd5b50600436106100995760003560e01c80630e18b6811461009e578063251d8ffb146100a857806326782247146100bb5780634351e6b6146100eb5780634d219e8f146100fe57806375829def14610116578063918e220d14610129578063a13c96201461013b578063f851a4401461014e578063fb59600814610161578063ff554afa14610174575b600080fd5b6100a6610199565b005b6100a66100b6366004610681565b61024d565b6001546100ce906001600160a01b031681565b6040516001600160a01b0390911681526020015b60405180910390f35b6100a66100f936600461069a565b61030d565b6032546100ce9061010090046001600160a01b031681565b6100a66101243660046106c4565b610415565b6033545b6040519081526020016100e2565b6100a66101493660046106c4565b6104a8565b6000546100ce906001600160a01b031681565b61012d61016f3660046106c4565b6104fa565b6101876101823660046106c4565b610587565b60405160ff90911681526020016100e2565b6001546001600160a01b031633146101ed5760405162461bcd60e51b815260206004820152601260248201527137b7363c903832b73234b7339030b236b4b760711b60448201526064015b60405180910390fd5b6000546001546040516000805160206107718339815191529261021e926001600160a01b03918216929116906106ed565b60405180910390a160018054600080546001600160a01b03199081166001600160a01b03841617909155169055565b6000546001600160a01b031633146102775760405162461bcd60e51b81526004016101e490610707565b806000036102c55760405162461bcd60e51b815260206004820152601b60248201527a2c29b7b63b212a21a7b930b1b6329d1034b73b30b634b2103730bb60291b60448201526064016101e4565b603481905542603381905560408051918252602082018390527fcce0116f7b54810b707a83210a60bff6cbd2dacc646926e66f1be9c7bc55d07c91015b60405180910390a150565b60006103176105c7565b805490915060ff600160401b82041615906001600160401b031660008115801561033e5750825b90506000826001600160401b0316600114801561035a5750303b155b905081158015610368575080155b156103865760405163f92ee8a960e01b815260040160405180910390fd5b84546001600160401b031916600117855583156103af57845460ff60401b1916600160401b1785555b6103b8336105eb565b6032805460ff191660ff8816179055831561040d57845460ff60401b19168555604051600181527fc7f505b2f371ae2175ee4913f4499e1f2633a7b5936321eed1cdaeb6115181d29060200160405180910390a15b505050505050565b6000546001600160a01b0316331461043f5760405162461bcd60e51b81526004016101e490610707565b6001546040517fca4f2f25d0898edd99413412fb94012f9e54ec8142f9b093e7720646a95b16a99161047e916001600160a01b039091169084906106ed565b60405180910390a1600180546001600160a01b0319166001600160a01b0392909216919091179055565b6000546001600160a01b031633146104d25760405162461bcd60e51b81526004016101e490610707565b603280546001600160a01b0390921661010002610100600160a81b0319909216919091179055565b6032546000906001600160a01b03838116610100909204161461052f5760405162461bcd60e51b81526004016101e49061072b565b60345460000361057f5760405162461bcd60e51b815260206004820152601b60248201527a1614dbdb1d909510d3dc9858db194e881b985d881b9bdd081cd95d602a1b60448201526064016101e4565b505060345490565b6032546000906001600160a01b0383811661010090920416146105bc5760405162461bcd60e51b81526004016101e49061072b565b505060325460ff1690565b7ff0c57e16840df040f15088dc2f81fe391c3923bec73e23a9662efc9c229c6a0090565b6105f36105ff565b6105fc81610626565b50565b610607610667565b61062457604051631afcd79f60e31b815260040160405180910390fd5b565b61062e6105ff565b600080546001600160a01b0319166001600160a01b038316178155604051600080516020610771833981519152916103029184906106ed565b60006106716105c7565b54600160401b900460ff16919050565b60006020828403121561069357600080fd5b5035919050565b6000602082840312156106ac57600080fd5b813560ff811681146106bd57600080fd5b9392505050565b6000602082840312156106d657600080fd5b81356001600160a01b03811681146106bd57600080fd5b6001600160a01b0392831681529116602082015260400190565b6020808252600a908201526937b7363c9030b236b4b760b11b604082015260600190565b60208082526025908201527f58536f6c764254434f7261636c653a20696e76616c6964206572633230206164604082015264647265737360d81b60608201526080019056fef9ffabca9c8276e99321725bcb43fb076a6c66a54b7f21c4e8146d8519b417dca2646970667358221220ea3d2c493deeb5b61e62bc0ff16b9b1ae1ae1686d093836b3fb6949d0325a83064736f6c63430008140033",
  "devdoc": {
    "details": "This contract is a oracle that allows users to get the nav of xSolvBTC.The nav is the price of xSolvBTC in solvBTC.The nav is updated by the admin at a fixed period of time, such as a week.Only the nav is allowed per day.",
    "errors": {
      "InvalidInitialization()": [
        {
          "details": "The contract is already initialized."
        }
      ],
      "NotInitializing()": [
        {
          "details": "The contract is not initializing."
        }
      ]
    },
    "events": {
      "Initialized(uint64)": {
        "details": "Triggered when the contract has been initialized or reinitialized."
      }
    },
    "kind": "dev",
    "methods": {
      "getNav(address)": {
        "params": {
          "erc20_": "The address of the erc20 token"
        },
        "returns": {
          "_0": "nav The nav of xSolvBTC"
        }
      },
      "initialize(uint8)": {
        "params": {
          "navDecimals_": "The decimals of the nav"
        }
      },
      "latestUpdatedAt()": {
        "returns": {
          "_0": "latestUpdatedAt The latest updated at"
        }
      },
      "navDecimals(address)": {
        "params": {
          "erc20_": "The address of the erc20 token"
        },
        "returns": {
          "_0": "decimals The decimals of the nav"
        }
      },
      "setNav(uint256)": {
        "params": {
          "nav_": "The nav of xSolvBTC"
        }
      },
      "setXSolvBTC(address)": {
        "params": {
          "xSolvBTC_": "The address of the xSolvBTC"
        }
      }
    },
    "title": "XSolvBTCOracle",
    "version": 1
  },
  "userdoc": {
    "kind": "user",
    "methods": {
      "getNav(address)": {
        "notice": "Get the nav of xSolvBTC"
      },
      "initialize(uint8)": {
        "notice": "Initialize the oracle"
      },
      "latestUpdatedAt()": {
        "notice": "Get the latest updated at"
      },
      "navDecimals(address)": {
        "notice": "Get the decimals of the nav"
      },
      "setNav(uint256)": {
        "notice": "Set the nav of xSolvBTC"
      },
      "setXSolvBTC(address)": {
        "notice": "Set the xSolvBTC address"
      }
    },
    "notice": "The oracle for xSolvBTC, which is a yield token of solvBTC.",
    "version": 1
  },
  "storageLayout": {
    "storage": [
      {
        "astId": 14332,
        "contract": "contracts/oracle/XSolvBTCOracle.sol:XSolvBTCOracle",
        "label": "admin",
        "offset": 0,
        "slot": "0",
        "type": "t_address"
      },
      {
        "astId": 14334,
        "contract": "contracts/oracle/XSolvBTCOracle.sol:XSolvBTCOracle",
        "label": "pendingAdmin",
        "offset": 0,
        "slot": "1",
        "type": "t_address"
      },
      {
        "astId": 14429,
        "contract": "contracts/oracle/XSolvBTCOracle.sol:XSolvBTCOracle",
        "label": "__gap",
        "offset": 0,
        "slot": "2",
        "type": "t_array(t_uint256)48_storage"
      },
      {
        "astId": 15561,
        "contract": "contracts/oracle/XSolvBTCOracle.sol:XSolvBTCOracle",
        "label": "_navDecimals",
        "offset": 0,
        "slot": "50",
        "type": "t_uint8"
      },
      {
        "astId": 15563,
        "contract": "contracts/oracle/XSolvBTCOracle.sol:XSolvBTCOracle",
        "label": "xSolvBTC",
        "offset": 1,
        "slot": "50",
        "type": "t_address"
      },
      {
        "astId": 15565,
        "contract": "contracts/oracle/XSolvBTCOracle.sol:XSolvBTCOracle",
        "label": "_latestUpdatedAt",
        "offset": 0,
        "slot": "51",
        "type": "t_uint256"
      },
      {
        "astId": 15567,
        "contract": "contracts/oracle/XSolvBTCOracle.sol:XSolvBTCOracle",
        "label": "_latestNav",
        "offset": 0,
        "slot": "52",
        "type": "t_uint256"
      }
    ],
    "types": {
      "t_address": {
        "encoding": "inplace",
        "label": "address",
        "numberOfBytes": "20"
      },
      "t_array(t_uint256)48_storage": {
        "base": "t_uint256",
        "encoding": "inplace",
        "label": "uint256[48]",
        "numberOfBytes": "1536"
      },
      "t_uint256": {
        "encoding": "inplace",
        "label": "uint256",
        "numberOfBytes": "32"
      },
      "t_uint8": {
        "encoding": "inplace",
        "label": "uint8",
        "numberOfBytes": "1"
      }
    }
  }
}