{
  "address": "0xa45716a26274D4C5F12CeD534Fb6B1fA9EF7aCf8",
  "abi": [
    {
      "inputs": [],
      "name": "AccessControlBadConfirmation",
      "type": "error"
    },
    {
      "inputs": [
        {
          "internalType": "address",
          "name": "account",
          "type": "address"
        },
        {
          "internalType": "bytes32",
          "name": "neededRole",
          "type": "bytes32"
        }
      ],
      "name": "AccessControlUnauthorizedAccount",
      "type": "error"
    },
    {
      "inputs": [
        {
          "internalType": "address",
          "name": "account",
          "type": "address"
        }
      ],
      "name": "BlacklistableBlacklistedAccount",
      "type": "error"
    },
    {
      "inputs": [
        {
          "internalType": "address",
          "name": "account",
          "type": "address"
        }
      ],
      "name": "BlacklistableNotManager",
      "type": "error"
    },
    {
      "inputs": [],
      "name": "BlacklistableZeroAddressNotAllowed",
      "type": "error"
    },
    {
      "inputs": [
        {
          "internalType": "address",
          "name": "spender",
          "type": "address"
        },
        {
          "internalType": "uint256",
          "name": "allowance",
          "type": "uint256"
        },
        {
          "internalType": "uint256",
          "name": "needed",
          "type": "uint256"
        }
      ],
      "name": "ERC20InsufficientAllowance",
      "type": "error"
    },
    {
      "inputs": [
        {
          "internalType": "address",
          "name": "sender",
          "type": "address"
        },
        {
          "internalType": "uint256",
          "name": "balance",
          "type": "uint256"
        },
        {
          "internalType": "uint256",
          "name": "needed",
          "type": "uint256"
        }
      ],
      "name": "ERC20InsufficientBalance",
      "type": "error"
    },
    {
      "inputs": [
        {
          "internalType": "address",
          "name": "approver",
          "type": "address"
        }
      ],
      "name": "ERC20InvalidApprover",
      "type": "error"
    },
    {
      "inputs": [
        {
          "internalType": "address",
          "name": "receiver",
          "type": "address"
        }
      ],
      "name": "ERC20InvalidReceiver",
      "type": "error"
    },
    {
      "inputs": [
        {
          "internalType": "address",
          "name": "sender",
          "type": "address"
        }
      ],
      "name": "ERC20InvalidSender",
      "type": "error"
    },
    {
      "inputs": [
        {
          "internalType": "address",
          "name": "spender",
          "type": "address"
        }
      ],
      "name": "ERC20InvalidSpender",
      "type": "error"
    },
    {
      "inputs": [
        {
          "internalType": "address",
          "name": "token",
          "type": "address"
        }
      ],
      "name": "ERC3525NotReceivable",
      "type": "error"
    },
    {
      "inputs": [
        {
          "internalType": "address",
          "name": "token",
          "type": "address"
        }
      ],
      "name": "ERC721NotReceivable",
      "type": "error"
    },
    {
      "inputs": [],
      "name": "EnforcedPause",
      "type": "error"
    },
    {
      "inputs": [],
      "name": "ExpectedPause",
      "type": "error"
    },
    {
      "inputs": [],
      "name": "InvalidInitialization",
      "type": "error"
    },
    {
      "inputs": [],
      "name": "NotInitializing",
      "type": "error"
    },
    {
      "inputs": [
        {
          "internalType": "address",
          "name": "owner",
          "type": "address"
        }
      ],
      "name": "OwnableInvalidOwner",
      "type": "error"
    },
    {
      "inputs": [
        {
          "internalType": "address",
          "name": "account",
          "type": "address"
        }
      ],
      "name": "OwnableUnauthorizedAccount",
      "type": "error"
    },
    {
      "inputs": [
        {
          "internalType": "address",
          "name": "account",
          "type": "address"
        }
      ],
      "name": "PausablePauser",
      "type": "error"
    },
    {
      "inputs": [],
      "name": "ReentrancyGuardReentrantCall",
      "type": "error"
    },
    {
      "inputs": [
        {
          "internalType": "address",
          "name": "account",
          "type": "address"
        }
      ],
      "name": "SolvBTCNotBlacklisted",
      "type": "error"
    },
    {
      "inputs": [],
      "name": "SolvBTCZeroValueNotAllowed",
      "type": "error"
    },
    {
      "anonymous": false,
      "inputs": [
        {
          "indexed": true,
          "internalType": "address",
          "name": "owner",
          "type": "address"
        },
        {
          "indexed": true,
          "internalType": "address",
          "name": "spender",
          "type": "address"
        },
        {
          "indexed": false,
          "internalType": "uint256",
          "name": "value",
          "type": "uint256"
        }
      ],
      "name": "Approval",
      "type": "event"
    },
    {
      "anonymous": false,
      "inputs": [
        {
          "indexed": true,
          "internalType": "address",
          "name": "account_",
          "type": "address"
        }
      ],
      "name": "BlacklistAdded",
      "type": "event"
    },
    {
      "anonymous": false,
      "inputs": [
        {
          "indexed": true,
          "internalType": "address",
          "name": "newBlacklistManager",
          "type": "address"
        }
      ],
      "name": "BlacklistManagerChanged",
      "type": "event"
    },
    {
      "anonymous": false,
      "inputs": [
        {
          "indexed": true,
          "internalType": "address",
          "name": "account_",
          "type": "address"
        }
      ],
      "name": "BlacklistRemoved",
      "type": "event"
    },
    {
      "anonymous": false,
      "inputs": [
        {
          "indexed": true,
          "internalType": "address",
          "name": "account",
          "type": "address"
        },
        {
          "indexed": false,
          "internalType": "uint256",
          "name": "amount",
          "type": "uint256"
        }
      ],
      "name": "DestroyBlackFunds",
      "type": "event"
    },
    {
      "anonymous": false,
      "inputs": [
        {
          "indexed": false,
          "internalType": "uint64",
          "name": "version",
          "type": "uint64"
        }
      ],
      "name": "Initialized",
      "type": "event"
    },
    {
      "anonymous": false,
      "inputs": [
        {
          "indexed": true,
          "internalType": "address",
          "name": "previousOwner",
          "type": "address"
        },
        {
          "indexed": true,
          "internalType": "address",
          "name": "newOwner",
          "type": "address"
        }
      ],
      "name": "OwnershipTransferStarted",
      "type": "event"
    },
    {
      "anonymous": false,
      "inputs": [
        {
          "indexed": true,
          "internalType": "address",
          "name": "previousOwner",
          "type": "address"
        },
        {
          "indexed": true,
          "internalType": "address",
          "name": "newOwner",
          "type": "address"
        }
      ],
      "name": "OwnershipTransferred",
      "type": "event"
    },
    {
      "anonymous": false,
      "inputs": [
        {
          "indexed": false,
          "internalType": "address",
          "name": "account",
          "type": "address"
        }
      ],
      "name": "Paused",
      "type": "event"
    },
    {
      "anonymous": false,
      "inputs": [
        {
          "indexed": true,
          "internalType": "bytes32",
          "name": "role",
          "type": "bytes32"
        },
        {
          "indexed": true,
          "internalType": "bytes32",
          "name": "previousAdminRole",
          "type": "bytes32"
        },
        {
          "indexed": true,
          "internalType": "bytes32",
          "name": "newAdminRole",
          "type": "bytes32"
        }
      ],
      "name": "RoleAdminChanged",
      "type": "event"
    },
    {
      "anonymous": false,
      "inputs": [
        {
          "indexed": true,
          "internalType": "bytes32",
          "name": "role",
          "type": "bytes32"
        },
        {
          "indexed": true,
          "internalType": "address",
          "name": "account",
          "type": "address"
        },
        {
          "indexed": true,
          "internalType": "address",
          "name": "sender",
          "type": "address"
        }
      ],
      "name": "RoleGranted",
      "type": "event"
    },
    {
      "anonymous": false,
      "inputs": [
        {
          "indexed": true,
          "internalType": "bytes32",
          "name": "role",
          "type": "bytes32"
        },
        {
          "indexed": true,
          "internalType": "address",
          "name": "account",
          "type": "address"
        },
        {
          "indexed": true,
          "internalType": "address",
          "name": "sender",
          "type": "address"
        }
      ],
      "name": "RoleRevoked",
      "type": "event"
    },
    {
      "anonymous": false,
      "inputs": [
        {
          "indexed": false,
          "internalType": "string",
          "name": "name",
          "type": "string"
        },
        {
          "indexed": false,
          "internalType": "string",
          "name": "symbol",
          "type": "string"
        }
      ],
      "name": "SetAlias",
      "type": "event"
    },
    {
      "anonymous": false,
      "inputs": [
        {
          "indexed": true,
          "internalType": "address",
          "name": "oracle",
          "type": "address"
        }
      ],
      "name": "SetOracle",
      "type": "event"
    },
    {
      "anonymous": false,
      "inputs": [
        {
          "indexed": true,
          "internalType": "address",
          "name": "from",
          "type": "address"
        },
        {
          "indexed": true,
          "internalType": "address",
          "name": "to",
          "type": "address"
        },
        {
          "indexed": false,
          "internalType": "uint256",
          "name": "value",
          "type": "uint256"
        }
      ],
      "name": "Transfer",
      "type": "event"
    },
    {
      "anonymous": false,
      "inputs": [
        {
          "indexed": false,
          "internalType": "address",
          "name": "account",
          "type": "address"
        }
      ],
      "name": "Unpaused",
      "type": "event"
    },
    {
      "inputs": [],
      "name": "DEFAULT_ADMIN_ROLE",
      "outputs": [
        {
          "internalType": "bytes32",
          "name": "",
          "type": "bytes32"
        }
      ],
      "stateMutability": "view",
      "type": "function"
    },
    {
      "inputs": [],
      "name": "SOLVBTC_MINTER_ROLE",
      "outputs": [
        {
          "internalType": "bytes32",
          "name": "",
          "type": "bytes32"
        }
      ],
      "stateMutability": "view",
      "type": "function"
    },
    {
      "inputs": [],
      "name": "SOLVBTC_POOL_BURNER_ROLE",
      "outputs": [
        {
          "internalType": "bytes32",
          "name": "",
          "type": "bytes32"
        }
      ],
      "stateMutability": "view",
      "type": "function"
    },
    {
      "inputs": [],
      "name": "acceptOwnership",
      "outputs": [],
      "stateMutability": "nonpayable",
      "type": "function"
    },
    {
      "inputs": [
        {
          "internalType": "address",
          "name": "account_",
          "type": "address"
        }
      ],
      "name": "addBlacklist",
      "outputs": [],
      "stateMutability": "nonpayable",
      "type": "function"
    },
    {
      "inputs": [
        {
          "internalType": "address[]",
          "name": "accounts_",
          "type": "address[]"
        }
      ],
      "name": "addBlacklistBatch",
      "outputs": [],
      "stateMutability": "nonpayable",
      "type": "function"
    },
    {
      "inputs": [
        {
          "internalType": "address",
          "name": "owner",
          "type": "address"
        },
        {
          "internalType": "address",
          "name": "spender",
          "type": "address"
        }
      ],
      "name": "allowance",
      "outputs": [
        {
          "internalType": "uint256",
          "name": "",
          "type": "uint256"
        }
      ],
      "stateMutability": "view",
      "type": "function"
    },
    {
      "inputs": [
        {
          "internalType": "address",
          "name": "spender",
          "type": "address"
        },
        {
          "internalType": "uint256",
          "name": "value",
          "type": "uint256"
        }
      ],
      "name": "approve",
      "outputs": [
        {
          "internalType": "bool",
          "name": "",
          "type": "bool"
        }
      ],
      "stateMutability": "nonpayable",
      "type": "function"
    },
    {
      "inputs": [
        {
          "internalType": "address",
          "name": "account",
          "type": "address"
        }
      ],
      "name": "balanceOf",
      "outputs": [
        {
          "internalType": "uint256",
          "name": "",
          "type": "uint256"
        }
      ],
      "stateMutability": "view",
      "type": "function"
    },
    {
      "inputs": [],
      "name": "blacklistManager",
      "outputs": [
        {
          "internalType": "address",
          "name": "",
          "type": "address"
        }
      ],
      "stateMutability": "view",
      "type": "function"
    },
    {
      "inputs": [
        {
          "internalType": "uint256",
          "name": "value_",
          "type": "uint256"
        }
      ],
      "name": "burn",
      "outputs": [],
      "stateMutability": "nonpayable",
      "type": "function"
    },
    {
      "inputs": [
        {
          "internalType": "address",
          "name": "account_",
          "type": "address"
        },
        {
          "internalType": "uint256",
          "name": "value_",
          "type": "uint256"
        }
      ],
      "name": "burn",
      "outputs": [],
      "stateMutability": "nonpayable",
      "type": "function"
    },
    {
      "inputs": [],
      "name": "decimals",
      "outputs": [
        {
          "internalType": "uint8",
          "name": "",
          "type": "uint8"
        }
      ],
      "stateMutability": "view",
      "type": "function"
    },
    {
      "inputs": [
        {
          "internalType": "address",
          "name": "account",
          "type": "address"
        },
        {
          "internalType": "uint256",
          "name": "amount",
          "type": "uint256"
        }
      ],
      "name": "destroyBlackFunds",
      "outputs": [],
      "stateMutability": "nonpayable",
      "type": "function"
    },
    {
      "inputs": [],
      "name": "getOracle",
      "outputs": [
        {
          "internalType": "address",
          "name": "",
          "type": "address"
        }
      ],
      "stateMutability": "view",
      "type": "function"
    },
    {
      "inputs": [],
      "name": "getOracleDecimals",
      "outputs": [
        {
          "internalType": "uint8",
          "name": "",
          "type": "uint8"
        }
      ],
      "stateMutability": "view",
      "type": "function"
    },
    {
      "inputs": [
        {
          "internalType": "bytes32",
          "name": "role",
          "type": "bytes32"
        }
      ],
      "name": "getRoleAdmin",
      "outputs": [
        {
          "internalType": "bytes32",
          "name": "",
          "type": "bytes32"
        }
      ],
      "stateMutability": "view",
      "type": "function"
    },
    {
      "inputs": [
        {
          "internalType": "uint256",
          "name": "value",
          "type": "uint256"
        }
      ],
      "name": "getSharesByValue",
      "outputs": [
        {
          "internalType": "uint256",
          "name": "shares",
          "type": "uint256"
        }
      ],
      "stateMutability": "view",
      "type": "function"
    },
    {
      "inputs": [
        {
          "internalType": "uint256",
          "name": "shares",
          "type": "uint256"
        }
      ],
      "name": "getValueByShares",
      "outputs": [
        {
          "internalType": "uint256",
          "name": "value",
          "type": "uint256"
        }
      ],
      "stateMutability": "view",
      "type": "function"
    },
    {
      "inputs": [
        {
          "internalType": "bytes32",
          "name": "role",
          "type": "bytes32"
        },
        {
          "internalType": "address",
          "name": "account",
          "type": "address"
        }
      ],
      "name": "grantRole",
      "outputs": [],
      "stateMutability": "nonpayable",
      "type": "function"
    },
    {
      "inputs": [
        {
          "internalType": "bytes32",
          "name": "role",
          "type": "bytes32"
        },
        {
          "internalType": "address",
          "name": "account",
          "type": "address"
        }
      ],
      "name": "hasRole",
      "outputs": [
        {
          "internalType": "bool",
          "name": "",
          "type": "bool"
        }
      ],
      "stateMutability": "view",
      "type": "function"
    },
    {
      "inputs": [
        {
          "internalType": "string",
          "name": "name_",
          "type": "string"
        },
        {
          "internalType": "string",
          "name": "symbol_",
          "type": "string"
        },
        {
          "internalType": "address",
          "name": "owner_",
          "type": "address"
        }
      ],
      "name": "initialize",
      "outputs": [],
      "stateMutability": "nonpayable",
      "type": "function"
    },
    {
      "inputs": [
        {
          "internalType": "address",
          "name": "account_",
          "type": "address"
        }
      ],
      "name": "isBlacklisted",
      "outputs": [
        {
          "internalType": "bool",
          "name": "",
          "type": "bool"
        }
      ],
      "stateMutability": "view",
      "type": "function"
    },
    {
      "inputs": [
        {
          "internalType": "address",
          "name": "account_",
          "type": "address"
        },
        {
          "internalType": "uint256",
          "name": "value_",
          "type": "uint256"
        }
      ],
      "name": "mint",
      "outputs": [],
      "stateMutability": "nonpayable",
      "type": "function"
    },
    {
      "inputs": [],
      "name": "name",
      "outputs": [
        {
          "internalType": "string",
          "name": "",
          "type": "string"
        }
      ],
      "stateMutability": "view",
      "type": "function"
    },
    {
      "inputs": [
        {
          "internalType": "address",
          "name": "",
          "type": "address"
        },
        {
          "internalType": "uint256",
          "name": "",
          "type": "uint256"
        },
        {
          "internalType": "uint256",
          "name": "",
          "type": "uint256"
        },
        {
          "internalType": "uint256",
          "name": "",
          "type": "uint256"
        },
        {
          "internalType": "bytes",
          "name": "",
          "type": "bytes"
        }
      ],
      "name": "onERC3525Received",
      "outputs": [
        {
          "internalType": "bytes4",
          "name": "",
          "type": "bytes4"
        }
      ],
      "stateMutability": "nonpayable",
      "type": "function"
    },
    {
      "inputs": [
        {
          "internalType": "address",
          "name": "",
          "type": "address"
        },
        {
          "internalType": "address",
          "name": "",
          "type": "address"
        },
        {
          "internalType": "uint256",
          "name": "",
          "type": "uint256"
        },
        {
          "internalType": "bytes",
          "name": "",
          "type": "bytes"
        }
      ],
      "name": "onERC721Received",
      "outputs": [
        {
          "internalType": "bytes4",
          "name": "",
          "type": "bytes4"
        }
      ],
      "stateMutability": "nonpayable",
      "type": "function"
    },
    {
      "inputs": [],
      "name": "owner",
      "outputs": [
        {
          "internalType": "address",
          "name": "",
          "type": "address"
        }
      ],
      "stateMutability": "view",
      "type": "function"
    },
    {
      "inputs": [],
      "name": "pause",
      "outputs": [],
      "stateMutability": "nonpayable",
      "type": "function"
    },
    {
      "inputs": [],
      "name": "paused",
      "outputs": [
        {
          "internalType": "bool",
          "name": "",
          "type": "bool"
        }
      ],
      "stateMutability": "view",
      "type": "function"
    },
    {
      "inputs": [],
      "name": "pendingOwner",
      "outputs": [
        {
          "internalType": "address",
          "name": "",
          "type": "address"
        }
      ],
      "stateMutability": "view",
      "type": "function"
    },
    {
      "inputs": [
        {
          "internalType": "address",
          "name": "account_",
          "type": "address"
        }
      ],
      "name": "removeBlacklist",
      "outputs": [],
      "stateMutability": "nonpayable",
      "type": "function"
    },
    {
      "inputs": [
        {
          "internalType": "address[]",
          "name": "accounts_",
          "type": "address[]"
        }
      ],
      "name": "removeBlacklistBatch",
      "outputs": [],
      "stateMutability": "nonpayable",
      "type": "function"
    },
    {
      "inputs": [],
      "name": "renounceOwnership",
      "outputs": [],
      "stateMutability": "nonpayable",
      "type": "function"
    },
    {
      "inputs": [
        {
          "internalType": "bytes32",
          "name": "role",
          "type": "bytes32"
        },
        {
          "internalType": "address",
          "name": "callerConfirmation",
          "type": "address"
        }
      ],
      "name": "renounceRole",
      "outputs": [],
      "stateMutability": "nonpayable",
      "type": "function"
    },
    {
      "inputs": [
        {
          "internalType": "bytes32",
          "name": "role",
          "type": "bytes32"
        },
        {
          "internalType": "address",
          "name": "account",
          "type": "address"
        }
      ],
      "name": "revokeRole",
      "outputs": [],
      "stateMutability": "nonpayable",
      "type": "function"
    },
    {
      "inputs": [
        {
          "internalType": "string",
          "name": "name_",
          "type": "string"
        },
        {
          "internalType": "string",
          "name": "symbol_",
          "type": "string"
        }
      ],
      "name": "setAlias",
      "outputs": [],
      "stateMutability": "nonpayable",
      "type": "function"
    },
    {
      "inputs": [
        {
          "internalType": "address",
          "name": "oracle_",
          "type": "address"
        }
      ],
      "name": "setOracle",
      "outputs": [],
      "stateMutability": "nonpayable",
      "type": "function"
    },
    {
      "inputs": [
        {
          "internalType": "address",
          "name": "pauser",
          "type": "address"
        }
      ],
      "name": "setPauser",
      "outputs": [],
      "stateMutability": "nonpayable",
      "type": "function"
    },
    {
      "inputs": [
        {
          "internalType": "bytes4",
          "name": "interfaceId",
          "type": "bytes4"
        }
      ],
      "name": "supportsInterface",
      "outputs": [
        {
          "internalType": "bool",
          "name": "",
          "type": "bool"
        }
      ],
      "stateMutability": "view",
      "type": "function"
    },
    {
      "inputs": [],
      "name": "symbol",
      "outputs": [
        {
          "internalType": "string",
          "name": "",
          "type": "string"
        }
      ],
      "stateMutability": "view",
      "type": "function"
    },
    {
      "inputs": [],
      "name": "totalSupply",
      "outputs": [
        {
          "internalType": "uint256",
          "name": "",
          "type": "uint256"
        }
      ],
      "stateMutability": "view",
      "type": "function"
    },
    {
      "inputs": [
        {
          "internalType": "address",
          "name": "to",
          "type": "address"
        },
        {
          "internalType": "uint256",
          "name": "value",
          "type": "uint256"
        }
      ],
      "name": "transfer",
      "outputs": [
        {
          "internalType": "bool",
          "name": "",
          "type": "bool"
        }
      ],
      "stateMutability": "nonpayable",
      "type": "function"
    },
    {
      "inputs": [
        {
          "internalType": "address",
          "name": "from",
          "type": "address"
        },
        {
          "internalType": "address",
          "name": "to",
          "type": "address"
        },
        {
          "internalType": "uint256",
          "name": "value",
          "type": "uint256"
        }
      ],
      "name": "transferFrom",
      "outputs": [
        {
          "internalType": "bool",
          "name": "",
          "type": "bool"
        }
      ],
      "stateMutability": "nonpayable",
      "type": "function"
    },
    {
      "inputs": [
        {
          "internalType": "address",
          "name": "newOwner",
          "type": "address"
        }
      ],
      "name": "transferOwnership",
      "outputs": [],
      "stateMutability": "nonpayable",
      "type": "function"
    },
    {
      "inputs": [],
      "name": "unpause",
      "outputs": [],
      "stateMutability": "nonpayable",
      "type": "function"
    },
    {
      "inputs": [
        {
          "internalType": "address",
          "name": "newBlacklistManager_",
          "type": "address"
        }
      ],
      "name": "updateBlacklistManager",
      "outputs": [],
      "stateMutability": "nonpayable",
      "type": "function"
    }
  ],
  "transactionHash": "0x254fdbba36179ab57b39b12f67bc8fd3c99417d418e58b8c46ba4c2f94f9bfe1",
  "args": [],
  "numDeployments": 1,
  "solcInputHash": "999c28c90b1095bcdd73364e215d529a",
  "bytecode": "0x60806040523480156200001157600080fd5b506200001c6200002c565b620000266200002c565b620000e0565b7ff0c57e16840df040f15088dc2f81fe391c3923bec73e23a9662efc9c229c6a00805468010000000000000000900460ff16156200007d5760405163f92ee8a960e01b815260040160405180910390fd5b80546001600160401b0390811614620000dd5780546001600160401b0319166001600160401b0390811782556040519081527fc7f505b2f371ae2175ee4913f4499e1f2633a7b5936321eed1cdaeb6115181d29060200160405180910390a15b50565b6126f080620000f06000396000f3fe608060405234801561001057600080fd5b50600436106102245760003560e01c80629ce20b1461022957806301ffc9a71461025a57806306fdde031461027d578063077f224a14610292578063095ea7b3146102a7578063150b7a02146102ba57806318160ddd146102cd5780631a026b81146102e357806323b872dd146102fd578063248a9ca3146103105780632d88af4a146103235780632f2ff15d14610336578063313ce5671461034957806336568abe1461035057806338b20518146103635780633f4ba83a1461037657806340c10f191461037e57806342966c681461039157806353d51e64146103a45780635c975abb146103b7578063677f8ac0146103bf57806370a08231146103d2578063715018a6146103e557806371e26e00146103ed57806379ba5097146104005780637adbf97314610408578063833b1fce1461041b5780638456cb59146104305780638da5cb5b1461043857806391d148541461044057806395d89b411461045357806396c495971461045b5780639999416f146104635780639cfe42da146104765780639dc29fac14610489578063a217fddf1461049c578063a49630b2146104a4578063a9059cbb146104ac578063d547741f146104bf578063d9dbf657146104d2578063dd62ed3e146104da578063e30c3978146104ed578063e31c3a90146104f5578063eb91e65114610508578063ef2af9221461051b578063f2fde38b1461052e578063fe575a8714610541575b600080fd5b61023c610237366004611e09565b610554565b6040516001600160e01b031990911681526020015b60405180910390f35b61026d610268366004611e79565b61057a565b6040519015158152602001610251565b6102856105bf565b6040516102519190611ea3565b6102a56102a0366004611f93565b610684565b005b61026d6102b5366004612006565b61079d565b61023c6102c8366004612030565b6107b5565b6102d56107d2565b604051908152602001610251565b6102eb6107e7565b60405160ff9091168152602001610251565b61026d61030b36600461209e565b610862565b6102d561031e3660046120da565b610886565b6102a56103313660046120f3565b6108a6565b6102a561034436600461210e565b6108da565b60126102eb565b6102a561035e36600461210e565b6108fc565b6102a56103713660046120f3565b610934565b6102a56109be565b6102a561038c366004612006565b610a0a565b6102a561039f3660046120da565b610a78565b6102a56103b2366004612006565b610ae2565b61026d610b65565b6102a56103cd36600461213a565b610b7a565b6102d56103e03660046120f3565b610bef565b6102a5610c1a565b6102d56103fb3660046120da565b610c2e565b6102a5610cce565b6102a56104163660046120f3565b610d0a565b610423610dd0565b60405161025191906121a5565b6102a5610deb565b610423610e34565b61026d61044e36600461210e565b610e3f565b610285610e75565b6102d5610eb2565b6102a56104713660046121b9565b610eda565b6102a56104843660046120f3565b610f56565b6102a5610497366004612006565b610f99565b6102d5600081565b6102d5610ffa565b61026d6104ba366004612006565b611009565b6102a56104cd36600461210e565b611017565b610423611033565b6102d56104e836600461222d565b611051565b61042361108d565b6102d56105033660046120da565b611098565b6102a56105163660046120f3565b611146565b6102a56105293660046121b9565b611189565b6102a561053c3660046120f3565b611205565b61026d61054f3660046120f3565b611276565b60003360405163578f385f60e11b815260040161057191906121a5565b60405180910390fd5b60006001600160e01b03198216629ce20b60e01b14806105aa57506001600160e01b03198216630a85bd0160e11b145b806105b957506105b9826112a4565b92915050565b606060006105cb6112d9565b90508060000180546105dc90612257565b90506000036105f3576105ed6112fd565b91505090565b8054819061060090612257565b80601f016020809104026020016040519081016040528092919081815260200182805461062c90612257565b80156106795780601f1061064e57610100808354040283529160200191610679565b820191906000526020600020905b81548152906001019060200180831161065c57829003601f168201915b505050505091505090565b600061068e61131a565b805490915060ff600160401b82041615906001600160401b03166000811580156106b55750825b90506000826001600160401b031660011480156106d15750303b155b9050811580156106df575080155b156106fd5760405163f92ee8a960e01b815260040160405180910390fd5b84546001600160401b0319166001178555831561072657845460ff60401b1916600160401b1785555b610730888861133e565b610738611350565b61074186611360565b61074c600087611383565b50831561079357845460ff60401b19168555604051600181527fc7f505b2f371ae2175ee4913f4499e1f2633a7b5936321eed1cdaeb6115181d29060200160405180910390a15b5050505050505050565b6000336107ab818585611424565b5060019392505050565b600033604051637992d8e360e11b815260040161057191906121a5565b6000806107dd611431565b6002015492915050565b60006107f1610dd0565b6001600160a01b031663ff554afa306040518263ffffffff1660e01b815260040161081c91906121a5565b602060405180830381865afa158015610839573d6000803e3d6000fd5b505050506040513d601f19601f8201168201806040525081019061085d9190612291565b905090565b600033610870858285611455565b61087b8585856114a2565b506001949350505050565b600080610891611501565b60009384526020525050604090206001015490565b6108ae611525565b60006108b8611557565b80546001600160a01b0319166001600160a01b03939093169290921790915550565b6108e382610886565b6108ec8161157b565b6108f68383611383565b50505050565b6001600160a01b03811633146109255760405163334bd91960e11b815260040160405180910390fd5b61092f8282611585565b505050565b61093c611525565b6001600160a01b038116610963576040516349fe757360e01b815260040160405180910390fd5b600061096d6115fd565b6001810180546001600160a01b0319166001600160a01b038516908117909155604051919250907f5baec8c712a7efe1ef755579f2a5b46fe2ffb57d5d216b746e7130605ee9e97690600090a25050565b60006109c8611557565b80549091506001600160a01b031633146109f7573360405163b2a2046960e01b815260040161057191906121a5565b6109ff611621565b610a07611646565b50565b610a1261169d565b604051602001610a21906122b4565b60405160208183030381529060405280519060200120610a408161157b565b81600003610a615760405163015a4ac960e51b815260040160405180910390fd5b610a6b83836116d3565b50610a74611709565b5050565b610a8061169d565b604051602001610a8f906122b4565b60405160208183030381529060405280519060200120610aae8161157b565b81600003610acf5760405163015a4ac960e51b815260040160405180910390fd5b610ad9338361171a565b50610a07611709565b610aea611525565b610af382611276565b610b12578160405163451aa33d60e01b815260040161057191906121a5565b610b1e82600083611750565b816001600160a01b03167f11d33c4bdbad6892d3d8fe9b29fca9d1701c823ddea540b942b102366a4a47e282604051610b5991815260200190565b60405180910390a25050565b600080610b70611878565b5460ff1692915050565b610b82611525565b6000610b8c6112d9565b905080610b9a858783612329565b5060018101610baa838583612329565b507f841f96fea9cdc9cd8d9e403b87390322f34ff38914b7840853d1f1c9e7d5465085858585604051610be0949392919061240b565b60405180910390a15050505050565b600080610bfa611431565b6001600160a01b0390931660009081526020939093525050604090205490565b610c22611525565b610c2c6000611360565b565b600080610c39610dd0565b6001600160a01b031663fb596008306040518263ffffffff1660e01b8152600401610c6491906121a5565b602060405180830381865afa158015610c81573d6000803e3d6000fd5b505050506040513d601f19601f82011682018060405250810190610ca5919061243d565b9050610cb36012600a612550565b610cbd828561255f565b610cc79190612576565b9392505050565b3380610cd861108d565b6001600160a01b031614610d01578060405163118cdaa760e01b815260040161057191906121a5565b610a0781611360565b610d12611525565b6001600160a01b038116610d7a5760405162461bcd60e51b815260206004820152602960248201527f536f6c764254435969656c64546f6b656e3a20696e76616c6964206f7261636c60448201526865206164647265737360b81b6064820152608401610571565b6000610d8461189c565b80546001600160a01b0319166001600160a01b0384169081178255604051919250907fd3b5d1e0ffaeff528910f3663f0adace7694ab8241d58e17a91351ced2e0803190600090a25050565b600080610ddb61189c565b546001600160a01b031692915050565b6000610df5611557565b80549091506001600160a01b03163314610e24573360405163b2a2046960e01b815260040161057191906121a5565b610e2c6118c0565b610a076118e6565b600080610ddb61192d565b600080610e4a611501565b6000948552602090815260408086206001600160a01b03959095168652939052505090205460ff1690565b60606000610e816112d9565b9050806001018054610e9290612257565b9050600003610ea3576105ed611951565b80600101805461060090612257565b604051602001610ec1906122b4565b6040516020818303038152906040528051906020012081565b610ee2611033565b6001600160a01b0316336001600160a01b031614610f145733604051626c2eb760e01b815260040161057191906121a5565b60005b8181101561092f57610f4e838383818110610f3457610f34612598565b9050602002016020810190610f4991906120f3565b61196e565b600101610f17565b610f5e611033565b6001600160a01b0316336001600160a01b031614610f905733604051626c2eb760e01b815260040161057191906121a5565b610a078161196e565b610fa161169d565b604051602001610fb0906125ae565b60405160208183030381529060405280519060200120610fcf8161157b565b81600003610ff05760405163015a4ac960e51b815260040160405180910390fd5b610a6b838361171a565b604051602001610ec1906125ae565b6000336107ab8185856114a2565b61102082610886565b6110298161157b565b6108f68383611585565b60008061103e6115fd565b600101546001600160a01b031692915050565b60008061105c611431565b6001600160a01b03948516600090815260019190910160209081526040808320959096168252939093525050205490565b600080610ddb6119f1565b6000806110a3610dd0565b6001600160a01b031663fb596008306040518263ffffffff1660e01b81526004016110ce91906121a5565b602060405180830381865afa1580156110eb573d6000803e3d6000fd5b505050506040513d601f19601f8201168201806040525081019061110f919061243d565b9050801561113d57806111246012600a612550565b61112e908561255f565b6111389190612576565b610cc7565b60009392505050565b61114e611033565b6001600160a01b0316336001600160a01b0316146111805733604051626c2eb760e01b815260040161057191906121a5565b610a0781611a15565b611191611033565b6001600160a01b0316336001600160a01b0316146111c35733604051626c2eb760e01b815260040161057191906121a5565b60005b8181101561092f576111fd8383838181106111e3576111e3612598565b90506020020160208101906111f891906120f3565b611a15565b6001016111c6565b61120d611525565b60006112176119f1565b80546001600160a01b0319166001600160a01b038416908117825590915061123d610e34565b6001600160a01b03167f38d16b8cac22d99fc7c124b9cd0de2d3fa1faef420bfe791d8c362d765e2270060405160405180910390a35050565b6000806112816115fd565b6001600160a01b0390931660009081526020939093525050604090205460ff1690565b60006001600160e01b03198216637965db0b60e01b14806105b957506301ffc9a760e01b6001600160e01b03198316146105b9565b7fda2596346793476faa39ef2fc6f6928de90d835de448231a9734d2e32c5b140090565b60606000611309611431565b905080600301805461060090612257565b7ff0c57e16840df040f15088dc2f81fe391c3923bec73e23a9662efc9c229c6a0090565b611346611a6e565b610a748282611a93565b611358611a6e565b610c2c611ac4565b600061136a6119f1565b80546001600160a01b03191681559050610a7482611acc565b60008061138e611501565b905061139a8484610e3f565b61141a576000848152602082815260408083206001600160a01b03871684529091529020805460ff191660011790556113d03390565b6001600160a01b0316836001600160a01b0316857f2f8788117e7eff1d82e926ec794901d17c78024a50270940304540a733656f0d60405160405180910390a460019150506105b9565b60009150506105b9565b61092f8383836001611b28565b7f52c63247e1f47db19d5ce0460030c497f067ca4cebf71ba98eeadabe20bace0090565b60006114618484611051565b905060001981146108f6578181101561149357828183604051637dc7a0d960e11b8152600401610571939291906125cd565b6108f684848484036000611b28565b6001600160a01b0383166114cc576000604051634b637e8f60e11b815260040161057191906121a5565b6001600160a01b0382166114f657600060405163ec442f0560e01b815260040161057191906121a5565b61092f838383611b34565b7f02dd7bc7dec4dceedda775e58dd541e08a116c6c53815c0bd028192f7b62680090565b3361152e610e34565b6001600160a01b031614610c2c573360405163118cdaa760e01b815260040161057191906121a5565b7f502a85c8d631e3586414f9cb06ca4d27c03b5f40bf43ea12a9183dd747be590090565b610a078133611b3f565b600080611590611501565b905061159c8484610e3f565b1561141a576000848152602082815260408083206001600160a01b0387168085529252808320805460ff1916905551339287917ff6391f5c32d9c69d2a47ea670b442974b53935d1edc7fd64eb21e047a839171b9190a460019150506105b9565b7f37055a6a5ad221b3685065a6f80bdaf8b5de26b2f60e82c3fbc16e3374b00c0090565b611629610b65565b610c2c57604051638dfc202b60e01b815260040160405180910390fd5b61164e611621565b6000611658611878565b805460ff1916815590507f5db9ee0a495bf2e6ff9c91a7834c1ba4fdd244a5e8aa4e537bd38aeae4b073aa335b60405161169291906121a5565b60405180910390a150565b60006116a7611b78565b8054909150600119016116cd57604051633ee5aeb560e01b815260040160405180910390fd5b60029055565b6001600160a01b0382166116fd57600060405163ec442f0560e01b815260040161057191906121a5565b610a7460008383611b34565b6000611713611b78565b6001905550565b6001600160a01b038216611744576000604051634b637e8f60e11b815260040161057191906121a5565b610a7482600083611b34565b600061175a611431565b90506001600160a01b038416611789578181600201600082825461177e91906125ee565b909155506117e89050565b6001600160a01b038416600090815260208290526040902054828110156117c95784818460405163391434e360e21b8152600401610571939291906125cd565b6001600160a01b03851660009081526020839052604090209083900390555b6001600160a01b038316611806576002810180548390039055611825565b6001600160a01b03831660009081526020829052604090208054830190555b826001600160a01b0316846001600160a01b03167fddf252ad1be2c89b69c2b068fc378daa952ba7f163c4a11628f55a4df523b3ef8460405161186a91815260200190565b60405180910390a350505050565b7fcd5ed15c6e187e77e9aee88184c21f4f2182ab5827cb3b7e07fbedcd63f0330090565b7ff05073905b1e64f5ceda3673d2f3281ec4d80a5b81532923554d53221166150090565b6118c8610b65565b15610c2c5760405163d93c066560e01b815260040160405180910390fd5b6118ee6118c0565b60006118f8611878565b805460ff1916600117815590507f62e78cea01bee320cd4e420270b5ea74000d11b0c9f74754ebdbfc544b05a2586116853390565b7f9016d09d72d40fdae2fd8ceac6b6234c7706214fd39c1cd1e609a0528c19930090565b6060600061195d611431565b905080600401805461060090612257565b6001600160a01b038116611995576040516349fe757360e01b815260040160405180910390fd5b600061199f6115fd565b6001600160a01b038316600081815260208390526040808220805460ff191660011790555192935090917f44d5fe68b00f68950fb9c1ff0a61ef7f747b1a36359a7e3a7f3324db4b8789679190a25050565b7f237e158222e3e6968b72b9db0d8043aacf074ad9f650f0d1606b4d82ee432c0090565b6000611a1f6115fd565b6001600160a01b038316600081815260208390526040808220805460ff191690555192935090917f1747ca720b1a174a464b6513ace29b1d3190b5f632b9f34147017c81425bfde89190a25050565b611a76611b9c565b610c2c57604051631afcd79f60e31b815260040160405180910390fd5b611a9b611a6e565b6000611aa5611431565b905060038101611ab58482612601565b50600481016108f68382612601565b611709611a6e565b6000611ad661192d565b80546001600160a01b038481166001600160a01b031983168117845560405193945091169182907f8be0079c531659141344cd1fd0a4f28419497f9722a3daafe3b4186f6b6457e090600090a3505050565b6108f684848484611bb6565b61092f838383611c1e565b611b498282610e3f565b610a745760405163e2517d3f60e01b81526001600160a01b038216600482015260248101839052604401610571565b7f9b779b17422d0df92223018b32b4d1fa46e071723d6817e2486d003becc55f0090565b6000611ba661131a565b54600160401b900460ff16919050565b82611bc081611276565b15611be0578060405163bb70159d60e01b815260040161057191906121a5565b84611bea81611276565b15611c0a578060405163bb70159d60e01b815260040161057191906121a5565b611c1686868686611c31565b505050505050565b611c266118c0565b61092f838383611d16565b6000611c3b611431565b90506001600160a01b038516611c6757600060405163e602df0560e01b815260040161057191906121a5565b6001600160a01b038416611c91576000604051634a1406b160e11b815260040161057191906121a5565b6001600160a01b03808616600090815260018301602090815260408083209388168352929052208390558115611d0f57836001600160a01b0316856001600160a01b03167f8c5be1e5ebec7d5bd14f71427d1e84f3dd0314c0f7b2291e5b200ac8c7c3b92585604051611d0691815260200190565b60405180910390a35b5050505050565b61092f83838382611d2681611276565b15611d46578060405163bb70159d60e01b815260040161057191906121a5565b82611d5081611276565b15611d70578060405163bb70159d60e01b815260040161057191906121a5565b33611d7a81611276565b15611d9a578060405163bb70159d60e01b815260040161057191906121a5565b611c16868686611750565b80356001600160a01b0381168114611dbc57600080fd5b919050565b60008083601f840112611dd357600080fd5b5081356001600160401b03811115611dea57600080fd5b602083019150836020828501011115611e0257600080fd5b9250929050565b60008060008060008060a08789031215611e2257600080fd5b611e2b87611da5565b955060208701359450604087013593506060870135925060808701356001600160401b03811115611e5b57600080fd5b611e6789828a01611dc1565b979a9699509497509295939492505050565b600060208284031215611e8b57600080fd5b81356001600160e01b031981168114610cc757600080fd5b600060208083528351808285015260005b81811015611ed057858101830151858201604001528201611eb4565b506000604082860101526040601f19601f8301168501019250505092915050565b634e487b7160e01b600052604160045260246000fd5b600082601f830112611f1857600080fd5b81356001600160401b0380821115611f3257611f32611ef1565b604051601f8301601f19908116603f01168101908282118183101715611f5a57611f5a611ef1565b81604052838152866020858801011115611f7357600080fd5b836020870160208301376000602085830101528094505050505092915050565b600080600060608486031215611fa857600080fd5b83356001600160401b0380821115611fbf57600080fd5b611fcb87838801611f07565b94506020860135915080821115611fe157600080fd5b50611fee86828701611f07565b925050611ffd60408501611da5565b90509250925092565b6000806040838503121561201957600080fd5b61202283611da5565b946020939093013593505050565b60008060008060006080868803121561204857600080fd5b61205186611da5565b945061205f60208701611da5565b93506040860135925060608601356001600160401b0381111561208157600080fd5b61208d88828901611dc1565b969995985093965092949392505050565b6000806000606084860312156120b357600080fd5b6120bc84611da5565b92506120ca60208501611da5565b9150604084013590509250925092565b6000602082840312156120ec57600080fd5b5035919050565b60006020828403121561210557600080fd5b610cc782611da5565b6000806040838503121561212157600080fd5b8235915061213160208401611da5565b90509250929050565b6000806000806040858703121561215057600080fd5b84356001600160401b038082111561216757600080fd5b61217388838901611dc1565b9096509450602087013591508082111561218c57600080fd5b5061219987828801611dc1565b95989497509550505050565b6001600160a01b0391909116815260200190565b600080602083850312156121cc57600080fd5b82356001600160401b03808211156121e357600080fd5b818501915085601f8301126121f757600080fd5b81358181111561220657600080fd5b8660208260051b850101111561221b57600080fd5b60209290920196919550909350505050565b6000806040838503121561224057600080fd5b61224983611da5565b915061213160208401611da5565b600181811c9082168061226b57607f821691505b60208210810361228b57634e487b7160e01b600052602260045260246000fd5b50919050565b6000602082840312156122a357600080fd5b815160ff81168114610cc757600080fd5b6d29a7a62b212a21afa6a4a72a22a960911b8152600e0190565b601f82111561092f57600081815260208120601f850160051c810160208610156122f55750805b601f850160051c820191505b81811015611c1657828155600101612301565b600019600383901b1c191660019190911b1790565b6001600160401b0383111561234057612340611ef1565b6123548361234e8354612257565b836122ce565b6000601f84116001811461238257600085156123705750838201355b61237a8682612314565b845550611d0f565b600083815260209020601f19861690835b828110156123b35786850135825560209485019460019092019101612393565b50868210156123d05760001960f88860031b161c19848701351681555b505060018560011b0183555050505050565b81835281816020850137506000828201602090810191909152601f909101601f19169091010190565b60408152600061241f6040830186886123e2565b82810360208401526124328185876123e2565b979650505050505050565b60006020828403121561244f57600080fd5b5051919050565b634e487b7160e01b600052601160045260246000fd5b600181815b808511156124a757816000190482111561248d5761248d612456565b8085161561249a57918102915b93841c9390800290612471565b509250929050565b6000826124be575060016105b9565b816124cb575060006105b9565b81600181146124e157600281146124eb57612507565b60019150506105b9565b60ff8411156124fc576124fc612456565b50506001821b6105b9565b5060208310610133831016604e8410600b841016171561252a575081810a6105b9565b612534838361246c565b806000190482111561254857612548612456565b029392505050565b6000610cc760ff8416836124af565b80820281158282048414176105b9576105b9612456565b60008261259357634e487b7160e01b600052601260045260246000fd5b500490565b634e487b7160e01b600052603260045260246000fd5b7229a7a62b212a21afa827a7a62fa12aa92722a960691b815260130190565b6001600160a01b039390931683526020830191909152604082015260600190565b808201808211156105b9576105b9612456565b81516001600160401b0381111561261a5761261a611ef1565b61262e816126288454612257565b846122ce565b602080601f83116001811461265d576000841561264b5750858301515b6126558582612314565b865550611c16565b600085815260208120601f198616915b8281101561268c5788860151825594840194600190910190840161266d565b50858210156126aa5787850151600019600388901b60f8161c191681555b5050505050600190811b0190555056fea26469706673582212201603589dbe112607ec74988201b4e366e9def3b60af01b00c8ca80f4b9abbba564736f6c63430008140033",
  "devdoc": {
    "errors": {
      "AccessControlBadConfirmation()": [
        {
          "details": "The caller of a function is not the expected one. NOTE: Don't confuse with {AccessControlUnauthorizedAccount}."
        }
      ],
      "AccessControlUnauthorizedAccount(address,bytes32)": [
        {
          "details": "The `account` is missing a role."
        }
      ],
      "BlacklistableBlacklistedAccount(address)": [
        {
          "details": "Account is blacklisted."
        }
      ],
      "BlacklistableNotManager(address)": [
        {
          "details": "Operates by non blacklist manager."
        }
      ],
      "BlacklistableZeroAddressNotAllowed()": [
        {
          "details": "Zero address is not allowed."
        }
      ],
      "ERC20InsufficientAllowance(address,uint256,uint256)": [
        {
          "details": "Indicates a failure with the `spender`s `allowance`. Used in transfers.",
          "params": {
            "allowance": "Amount of tokens a `spender` is allowed to operate with.",
            "needed": "Minimum amount required to perform a transfer.",
            "spender": "Address that may be allowed to operate on tokens without being their owner."
          }
        }
      ],
      "ERC20InsufficientBalance(address,uint256,uint256)": [
        {
          "details": "Indicates an error related to the current `balance` of a `sender`. Used in transfers.",
          "params": {
            "balance": "Current balance for the interacting account.",
            "needed": "Minimum amount required to perform a transfer.",
            "sender": "Address whose tokens are being transferred."
          }
        }
      ],
      "ERC20InvalidApprover(address)": [
        {
          "details": "Indicates a failure with the `approver` of a token to be approved. Used in approvals.",
          "params": {
            "approver": "Address initiating an approval operation."
          }
        }
      ],
      "ERC20InvalidReceiver(address)": [
        {
          "details": "Indicates a failure with the token `receiver`. Used in transfers.",
          "params": {
            "receiver": "Address to which tokens are being transferred."
          }
        }
      ],
      "ERC20InvalidSender(address)": [
        {
          "details": "Indicates a failure with the token `sender`. Used in transfers.",
          "params": {
            "sender": "Address whose tokens are being transferred."
          }
        }
      ],
      "ERC20InvalidSpender(address)": [
        {
          "details": "Indicates a failure with the `spender` to be approved. Used in approvals.",
          "params": {
            "spender": "Address that may be allowed to operate on tokens without being their owner."
          }
        }
      ],
      "EnforcedPause()": [
        {
          "details": "The operation failed because the contract is paused."
        }
      ],
      "ExpectedPause()": [
        {
          "details": "The operation failed because the contract is not paused."
        }
      ],
      "InvalidInitialization()": [
        {
          "details": "The contract is already initialized."
        }
      ],
      "NotInitializing()": [
        {
          "details": "The contract is not initializing."
        }
      ],
      "OwnableInvalidOwner(address)": [
        {
          "details": "The owner is not a valid owner account. (eg. `address(0)`)"
        }
      ],
      "OwnableUnauthorizedAccount(address)": [
        {
          "details": "The caller account is not authorized to perform an operation."
        }
      ],
      "PausablePauser(address)": [
        {
          "details": "Operates by non pauser."
        }
      ],
      "ReentrancyGuardReentrantCall()": [
        {
          "details": "Unauthorized reentrant call."
        }
      ],
      "SolvBTCNotBlacklisted(address)": [
        {
          "details": "Account is not blacklisted."
        }
      ],
      "SolvBTCZeroValueNotAllowed()": [
        {
          "details": "Mint or burn zero value is not allowed."
        }
      ]
    },
    "events": {
      "Approval(address,address,uint256)": {
        "details": "Emitted when the allowance of a `spender` for an `owner` is set by a call to {approve}. `value` is the new allowance."
      },
      "Initialized(uint64)": {
        "details": "Triggered when the contract has been initialized or reinitialized."
      },
      "Paused(address)": {
        "details": "Emitted when the pause is triggered by `account`."
      },
      "RoleAdminChanged(bytes32,bytes32,bytes32)": {
        "details": "Emitted when `newAdminRole` is set as ``role``'s admin role, replacing `previousAdminRole` `DEFAULT_ADMIN_ROLE` is the starting admin for all roles, despite {RoleAdminChanged} not being emitted signaling this."
      },
      "RoleGranted(bytes32,address,address)": {
        "details": "Emitted when `account` is granted `role`. `sender` is the account that originated the contract call, an admin role bearer except when using {AccessControl-_setupRole}."
      },
      "RoleRevoked(bytes32,address,address)": {
        "details": "Emitted when `account` is revoked `role`. `sender` is the account that originated the contract call:   - if using `revokeRole`, it is the admin role bearer   - if using `renounceRole`, it is the role bearer (i.e. `account`)"
      },
      "Transfer(address,address,uint256)": {
        "details": "Emitted when `value` tokens are moved from one account (`from`) to another (`to`). Note that `value` may be zero."
      },
      "Unpaused(address)": {
        "details": "Emitted when the pause is lifted by `account`."
      }
    },
    "kind": "dev",
    "methods": {
      "acceptOwnership()": {
        "details": "The new owner accepts the ownership transfer."
      },
      "addBlacklist(address)": {
        "params": {
          "account_": "The address to blacklist."
        }
      },
      "addBlacklistBatch(address[])": {
        "params": {
          "accounts_": "The addresses to blacklist."
        }
      },
      "allowance(address,address)": {
        "details": "See {IERC20-allowance}."
      },
      "approve(address,uint256)": {
        "details": "See {IERC20-approve}. NOTE: If `value` is the maximum `uint256`, the allowance is not updated on `transferFrom`. This is semantically equivalent to an infinite approval. Requirements: - `spender` cannot be the zero address."
      },
      "balanceOf(address)": {
        "details": "See {IERC20-balanceOf}."
      },
      "decimals()": {
        "details": "Returns the number of decimals used to get its user representation. For example, if `decimals` equals `2`, a balance of `505` tokens should be displayed to a user as `5.05` (`505 / 10 ** 2`). Tokens usually opt for a value of 18, imitating the relationship between Ether and Wei. This is the default value returned by this function, unless it's overridden. NOTE: This information is only used for _display_ purposes: it in no way affects any of the arithmetic of the contract, including {IERC20-balanceOf} and {IERC20-transfer}."
      },
      "getRoleAdmin(bytes32)": {
        "details": "Returns the admin role that controls `role`. See {grantRole} and {revokeRole}. To change a role's admin, use {_setRoleAdmin}."
      },
      "grantRole(bytes32,address)": {
        "details": "Grants `role` to `account`. If `account` had not been already granted `role`, emits a {RoleGranted} event. Requirements: - the caller must have ``role``'s admin role. May emit a {RoleGranted} event."
      },
      "hasRole(bytes32,address)": {
        "details": "Returns `true` if `account` has been granted `role`."
      },
      "isBlacklisted(address)": {
        "params": {
          "account_": "The address to check."
        },
        "returns": {
          "_0": "True if the account is blacklisted, false if the account is not blacklisted."
        }
      },
      "name()": {
        "details": "Returns the name of the token."
      },
      "onERC3525Received(address,uint256,uint256,uint256,bytes)": {
        "details": "Deprecated function inherited from SolvBTC V2, since the values of deprecated variables have been cleared, this function would be deleted from V2.1."
      },
      "owner()": {
        "details": "Returns the address of the current owner."
      },
      "paused()": {
        "details": "Returns true if the contract is paused, and false otherwise."
      },
      "pendingOwner()": {
        "details": "Returns the address of the pending owner."
      },
      "removeBlacklist(address)": {
        "params": {
          "account_": "The address to remove from the blacklist."
        }
      },
      "removeBlacklistBatch(address[])": {
        "params": {
          "accounts_": "The addresses to remove from the blacklist."
        }
      },
      "renounceOwnership()": {
        "details": "Leaves the contract without owner. It will not be possible to call `onlyOwner` functions. Can only be called by the current owner. NOTE: Renouncing ownership will leave the contract without an owner, thereby disabling any functionality that is only available to the owner."
      },
      "renounceRole(bytes32,address)": {
        "details": "Revokes `role` from the calling account. Roles are often managed via {grantRole} and {revokeRole}: this function's purpose is to provide a mechanism for accounts to lose their privileges if they are compromised (such as when a trusted device is misplaced). If the calling account had been revoked `role`, emits a {RoleRevoked} event. Requirements: - the caller must be `callerConfirmation`. May emit a {RoleRevoked} event."
      },
      "revokeRole(bytes32,address)": {
        "details": "Revokes `role` from `account`. If `account` had been granted `role`, emits a {RoleRevoked} event. Requirements: - the caller must have ``role``'s admin role. May emit a {RoleRevoked} event."
      },
      "setAlias(string,string)": {
        "details": "Sets the alias name and symbol of the SolvBTC yield token."
      },
      "symbol()": {
        "details": "Returns the symbol of the token, usually a shorter version of the name."
      },
      "totalSupply()": {
        "details": "See {IERC20-totalSupply}."
      },
      "transfer(address,uint256)": {
        "details": "See {IERC20-transfer}. Requirements: - `to` cannot be the zero address. - the caller must have a balance of at least `value`."
      },
      "transferFrom(address,address,uint256)": {
        "details": "See {IERC20-transferFrom}. Emits an {Approval} event indicating the updated allowance. This is not required by the EIP. See the note at the beginning of {ERC20}. NOTE: Does not update the allowance if the current allowance is the maximum `uint256`. Requirements: - `from` and `to` cannot be the zero address. - `from` must have a balance of at least `value`. - the caller must have allowance for ``from``'s tokens of at least `value`."
      },
      "transferOwnership(address)": {
        "details": "Starts the ownership transfer of the contract to a new account. Replaces the pending transfer if there is one. Can only be called by the current owner."
      },
      "updateBlacklistManager(address)": {
        "params": {
          "newBlacklistManager_": "The address of the new blacklist manager."
        }
      }
    },
    "version": 1
  },
  "userdoc": {
    "events": {
      "DestroyBlackFunds(address,uint256)": {
        "notice": "Emitted when black funds are destroyed."
      }
    },
    "kind": "user",
    "methods": {
      "SOLVBTC_MINTER_ROLE()": {
        "notice": "`SOLVBTC_MINTER` role is allowed to mint SolvBTC tokens, as well as to burn SolvBTC tokens held by itself."
      },
      "SOLVBTC_POOL_BURNER_ROLE()": {
        "notice": "`SOLVBTC_POOL_BURNER` role is allowed to burn SolvBTC tokens from other accounts only when necessary."
      },
      "addBlacklist(address)": {
        "notice": "Adds account to blacklist."
      },
      "addBlacklistBatch(address[])": {
        "notice": "Adds multiple accounts to the blacklist."
      },
      "blacklistManager()": {
        "notice": "Get the address of the blacklist manager."
      },
      "destroyBlackFunds(address,uint256)": {
        "notice": "Destroys black funds from the specified blacklist account."
      },
      "getSharesByValue(uint256)": {
        "notice": "Get amount of shares for a given amount of underlying asset."
      },
      "getValueByShares(uint256)": {
        "notice": "Get amount of underlying asset for a given amount of shares."
      },
      "isBlacklisted(address)": {
        "notice": "Checks if account is blacklisted."
      },
      "removeBlacklist(address)": {
        "notice": "Removes account from blacklist."
      },
      "removeBlacklistBatch(address[])": {
        "notice": "Removes multiple accounts from the blacklist."
      },
      "updateBlacklistManager(address)": {
        "notice": "Updates the blacklist manager address."
      }
    },
    "version": 1
  },
  "storageLayout": {
    "storage": [],
    "types": null
  }
}