{
  "address": "0x394A585e5348d5Bd321fEEdA2eCA38e0040aFb27",
  "abi": [
    {
      "inputs": [],
      "stateMutability": "nonpayable",
      "type": "constructor"
    },
    {
      "inputs": [],
      "name": "InvalidInitialization",
      "type": "error"
    },
    {
      "inputs": [],
      "name": "NotInitializing",
      "type": "error"
    },
    {
      "anonymous": false,
      "inputs": [
        {
          "indexed": false,
          "internalType": "uint64",
          "name": "version",
          "type": "uint64"
        }
      ],
      "name": "Initialized",
      "type": "event"
    },
    {
      "anonymous": false,
      "inputs": [
        {
          "indexed": false,
          "internalType": "address",
          "name": "oldAdmin",
          "type": "address"
        },
        {
          "indexed": false,
          "internalType": "address",
          "name": "newAdmin",
          "type": "address"
        }
      ],
      "name": "NewAdmin",
      "type": "event"
    },
    {
      "anonymous": false,
      "inputs": [
        {
          "indexed": false,
          "internalType": "address",
          "name": "oldPendingAdmin",
          "type": "address"
        },
        {
          "indexed": false,
          "internalType": "address",
          "name": "newPendingAdmin",
          "type": "address"
        }
      ],
      "name": "NewPendingAdmin",
      "type": "event"
    },
    {
      "anonymous": false,
      "inputs": [
        {
          "indexed": true,
          "internalType": "address",
          "name": "aggregator",
          "type": "address"
        }
      ],
      "name": "SetAggregator",
      "type": "event"
    },
    {
      "anonymous": false,
      "inputs": [
        {
          "indexed": true,
          "internalType": "address",
          "name": "xSolvBTC",
          "type": "address"
        }
      ],
      "name": "SetXSolvBTC",
      "type": "event"
    },
    {
      "inputs": [],
      "name": "acceptAdmin",
      "outputs": [],
      "stateMutability": "nonpayable",
      "type": "function"
    },
    {
      "inputs": [],
      "name": "admin",
      "outputs": [
        {
          "internalType": "address",
          "name": "",
          "type": "address"
        }
      ],
      "stateMutability": "view",
      "type": "function"
    },
    {
      "inputs": [],
      "name": "aggregator",
      "outputs": [
        {
          "internalType": "address",
          "name": "",
          "type": "address"
        }
      ],
      "stateMutability": "view",
      "type": "function"
    },
    {
      "inputs": [
        {
          "internalType": "address",
          "name": "erc20_",
          "type": "address"
        }
      ],
      "name": "getNav",
      "outputs": [
        {
          "internalType": "uint256",
          "name": "nav",
          "type": "uint256"
        }
      ],
      "stateMutability": "view",
      "type": "function"
    },
    {
      "inputs": [
        {
          "internalType": "address",
          "name": "aggregator_",
          "type": "address"
        }
      ],
      "name": "initialize",
      "outputs": [],
      "stateMutability": "nonpayable",
      "type": "function"
    },
    {
      "inputs": [],
      "name": "latestUpdatedAt",
      "outputs": [
        {
          "internalType": "uint256",
          "name": "",
          "type": "uint256"
        }
      ],
      "stateMutability": "view",
      "type": "function"
    },
    {
      "inputs": [
        {
          "internalType": "address",
          "name": "erc20_",
          "type": "address"
        }
      ],
      "name": "navDecimals",
      "outputs": [
        {
          "internalType": "uint8",
          "name": "",
          "type": "uint8"
        }
      ],
      "stateMutability": "view",
      "type": "function"
    },
    {
      "inputs": [],
      "name": "pendingAdmin",
      "outputs": [
        {
          "internalType": "address",
          "name": "",
          "type": "address"
        }
      ],
      "stateMutability": "view",
      "type": "function"
    },
    {
      "inputs": [
        {
          "internalType": "address",
          "name": "aggregator_",
          "type": "address"
        }
      ],
      "name": "setAggregator",
      "outputs": [],
      "stateMutability": "nonpayable",
      "type": "function"
    },
    {
      "inputs": [
        {
          "internalType": "address",
          "name": "xSolvBTC_",
          "type": "address"
        }
      ],
      "name": "setXSolvBTC",
      "outputs": [],
      "stateMutability": "nonpayable",
      "type": "function"
    },
    {
      "inputs": [
        {
          "internalType": "address",
          "name": "newPendingAdmin_",
          "type": "address"
        }
      ],
      "name": "transferAdmin",
      "outputs": [],
      "stateMutability": "nonpayable",
      "type": "function"
    },
    {
      "inputs": [],
      "name": "xSolvBTC",
      "outputs": [
        {
          "internalType": "address",
          "name": "",
          "type": "address"
        }
      ],
      "stateMutability": "view",
      "type": "function"
    }
  ],
  "transactionHash": "0x6533357376959da543e1d2198b923248d6017343f93c5f50b6e48bf6bce767cc",
  "args": [],
  "numDeployments": 1,
  "solcInputHash": "a205108fbd165183189972c3d7b99dc9",
  "bytecode": "0x608060405234801561001057600080fd5b5061001961001e565b6100d0565b7ff0c57e16840df040f15088dc2f81fe391c3923bec73e23a9662efc9c229c6a00805468010000000000000000900460ff161561006e5760405163f92ee8a960e01b815260040160405180910390fd5b80546001600160401b03908116146100cd5780546001600160401b0319166001600160401b0390811782556040519081527fc7f505b2f371ae2175ee4913f4499e1f2633a7b5936321eed1cdaeb6115181d29060200160405180910390a15b50565b610a48806100df6000396000f3fe608060405234801561001057600080fd5b50600436106100a45760003560e01c80630e18b681146100a9578063245a7bfc146100b357806326782247146100e35780634d219e8f146100f657806375829def14610109578063918e220d1461011c578063a13c962014610132578063c4d66de814610145578063f851a44014610158578063f9120af61461016b578063fb5960081461017e578063ff554afa14610191575b600080fd5b6100b16101b6565b005b6033546100c6906001600160a01b031681565b6040516001600160a01b0390911681526020015b60405180910390f35b6001546100c6906001600160a01b031681565b6032546100c6906001600160a01b031681565b6100b1610117366004610899565b61026a565b6101246102fd565b6040519081526020016100da565b6100b1610140366004610899565b610381565b6100b1610153366004610899565b610453565b6000546100c6906001600160a01b031681565b6100b1610179366004610899565b610555565b61012461018c366004610899565b61058b565b6101a461019f366004610899565b610686565b60405160ff90911681526020016100da565b6001546001600160a01b0316331461020a5760405162461bcd60e51b815260206004820152601260248201527137b7363c903832b73234b7339030b236b4b760711b60448201526064015b60405180910390fd5b6000546001546040516000805160206109f38339815191529261023b926001600160a01b03918216929116906108c9565b60405180910390a160018054600080546001600160a01b03199081166001600160a01b03841617909155169055565b6000546001600160a01b031633146102945760405162461bcd60e51b8152600401610201906108e3565b6001546040517fca4f2f25d0898edd99413412fb94012f9e54ec8142f9b093e7720646a95b16a9916102d3916001600160a01b039091169084906108c9565b60405180910390a1600180546001600160a01b0319166001600160a01b0392909216919091179055565b600080603360009054906101000a90046001600160a01b03166001600160a01b031663feaf968c6040518163ffffffff1660e01b815260040160a060405180830381865afa158015610353573d6000803e3d6000fd5b505050506040513d601f19601f820116820180604052508101906103779190610923565b5095945050505050565b6000546001600160a01b031633146103ab5760405162461bcd60e51b8152600401610201906108e3565b6001600160a01b0381166104095760405162461bcd60e51b815260206004820152603160248201526000805160206109d38339815191526044820152702078536f6c76425443206164647265737360781b6064820152608401610201565b603280546001600160a01b0319166001600160a01b0383169081179091556040517ffe1f6f15fce9929f47e568d274c28c47a84039a517b6e80e96074d2e9f5d64b490600090a250565b600061045d61072d565b805490915060ff600160401b82041615906001600160401b03166000811580156104845750825b90506000826001600160401b031660011480156104a05750303b155b9050811580156104ae575080155b156104cc5760405163f92ee8a960e01b815260040160405180910390fd5b84546001600160401b031916600117855583156104f557845460ff60401b1916600160401b1785555b6104fe33610751565b61050786610762565b831561054d57845460ff60401b19168555604051600181527fc7f505b2f371ae2175ee4913f4499e1f2633a7b5936321eed1cdaeb6115181d29060200160405180910390a15b505050505050565b6000546001600160a01b0316331461057f5760405162461bcd60e51b8152600401610201906108e3565b61058881610762565b50565b6032546000906001600160a01b038381169116146105bb5760405162461bcd60e51b815260040161020190610973565b60335460408051633fabe5a360e21b815290516000926001600160a01b03169163feaf968c9160048083019260a09291908290030181865afa158015610605573d6000803e3d6000fd5b505050506040513d601f19601f820116820180604052508101906106299190610923565b505050915050600081136106805760405162461bcd60e51b815260206004820152602a60248201526000805160206109d3833981519152604482015269206e61762076616c756560b01b6064820152608401610201565b92915050565b6032546000906001600160a01b038381169116146106b65760405162461bcd60e51b815260040161020190610973565b603360009054906101000a90046001600160a01b03166001600160a01b031663313ce5676040518163ffffffff1660e01b8152600401602060405180830381865afa158015610709573d6000803e3d6000fd5b505050506040513d601f19601f8201168201806040525081019061068091906109af565b7ff0c57e16840df040f15088dc2f81fe391c3923bec73e23a9662efc9c229c6a0090565b61075961080c565b61058881610833565b6001600160a01b0381166107c25760405162461bcd60e51b815260206004820152603360248201526000805160206109d38339815191526044820152722061676772656761746f72206164647265737360681b6064820152608401610201565b603380546001600160a01b0319166001600160a01b0383169081179091556040517fe3019176e17c666cf4037ff4eaf90f47c7eaa9d7445cac6c1577d7a6fb903b8f90600090a250565b61081461087f565b61083157604051631afcd79f60e31b815260040160405180910390fd5b565b61083b61080c565b600080546001600160a01b0319166001600160a01b0383161781556040516000805160206109f3833981519152916108749184906108c9565b60405180910390a150565b600061088961072d565b54600160401b900460ff16919050565b6000602082840312156108ab57600080fd5b81356001600160a01b03811681146108c257600080fd5b9392505050565b6001600160a01b0392831681529116602082015260400190565b6020808252600a908201526937b7363c9030b236b4b760b11b604082015260600190565b80516001600160501b038116811461091e57600080fd5b919050565b600080600080600060a0868803121561093b57600080fd5b61094486610907565b945060208601519350604086015192506060860151915061096760808701610907565b90509295509295909350565b6020808252602e908201526000805160206109d383398151915260408201526d206572633230206164647265737360901b606082015260800190565b6000602082840312156109c157600080fd5b815160ff811681146108c257600080fdfe58536f6c76425443436861696e6c696e6b4f7261636c653a20696e76616c6964f9ffabca9c8276e99321725bcb43fb076a6c66a54b7f21c4e8146d8519b417dca2646970667358221220f85e0e308d03c845fda9bab360eaa852fde4ae5bfbb82b9295d411e878622c5764736f6c63430008140033",
  "devdoc": {
    "details": "This contract is an oracle that allows users to get the nav of xSolvBTC.The nav is the price of xSolvBTC in SolvBTC.The nav is obtained from the chainlink oracle.",
    "errors": {
      "InvalidInitialization()": [
        {
          "details": "The contract is already initialized."
        }
      ],
      "NotInitializing()": [
        {
          "details": "The contract is not initializing."
        }
      ]
    },
    "events": {
      "Initialized(uint64)": {
        "details": "Triggered when the contract has been initialized or reinitialized."
      }
    },
    "kind": "dev",
    "methods": {
      "getNav(address)": {
        "params": {
          "erc20_": "The address of the erc20 token"
        },
        "returns": {
          "nav": "The nav of xSolvBTC"
        }
      },
      "initialize(address)": {
        "params": {
          "aggregator_": "The address of the chainlink aggregator for xSolvBTC"
        }
      },
      "latestUpdatedAt()": {
        "returns": {
          "_0": "latestUpdatedAt The latest update time of the nav"
        }
      },
      "navDecimals(address)": {
        "params": {
          "erc20_": "The address of the erc20 token"
        },
        "returns": {
          "_0": "decimals The decimals of the nav"
        }
      },
      "setAggregator(address)": {
        "params": {
          "aggregator_": "The address of the chainlink aggregator"
        }
      },
      "setXSolvBTC(address)": {
        "params": {
          "xSolvBTC_": "The address of the xSolvBTC"
        }
      }
    },
    "title": "ChainlinkOracle",
    "version": 1
  },
  "userdoc": {
    "kind": "user",
    "methods": {
      "getNav(address)": {
        "notice": "Get the nav of xSolvBTC"
      },
      "initialize(address)": {
        "notice": "Initialize the contract"
      },
      "latestUpdatedAt()": {
        "notice": "Get the latest update time of the nav"
      },
      "navDecimals(address)": {
        "notice": "Get the decimals of the nav"
      },
      "setAggregator(address)": {
        "notice": "Set the chainlink aggregator address"
      },
      "setXSolvBTC(address)": {
        "notice": "Set the xSolvBTC address"
      }
    },
    "notice": "The oracle for xSolvBTC, which is a yield token of SolvBTC.",
    "version": 1
  },
  "storageLayout": {
    "storage": [
      {
        "astId": 289,
        "contract": "contracts/oracle/XSolvBTCChainlinkOracle.sol:XSolvBTCChainlinkOracle",
        "label": "admin",
        "offset": 0,
        "slot": "0",
        "type": "t_address"
      },
      {
        "astId": 291,
        "contract": "contracts/oracle/XSolvBTCChainlinkOracle.sol:XSolvBTCChainlinkOracle",
        "label": "pendingAdmin",
        "offset": 0,
        "slot": "1",
        "type": "t_address"
      },
      {
        "astId": 386,
        "contract": "contracts/oracle/XSolvBTCChainlinkOracle.sol:XSolvBTCChainlinkOracle",
        "label": "__gap",
        "offset": 0,
        "slot": "2",
        "type": "t_array(t_uint256)48_storage"
      },
      {
        "astId": 417,
        "contract": "contracts/oracle/XSolvBTCChainlinkOracle.sol:XSolvBTCChainlinkOracle",
        "label": "xSolvBTC",
        "offset": 0,
        "slot": "50",
        "type": "t_address"
      },
      {
        "astId": 419,
        "contract": "contracts/oracle/XSolvBTCChainlinkOracle.sol:XSolvBTCChainlinkOracle",
        "label": "aggregator",
        "offset": 0,
        "slot": "51",
        "type": "t_address"
      },
      {
        "astId": 600,
        "contract": "contracts/oracle/XSolvBTCChainlinkOracle.sol:XSolvBTCChainlinkOracle",
        "label": "__gap",
        "offset": 0,
        "slot": "52",
        "type": "t_array(t_uint256)48_storage"
      }
    ],
    "types": {
      "t_address": {
        "encoding": "inplace",
        "label": "address",
        "numberOfBytes": "20"
      },
      "t_array(t_uint256)48_storage": {
        "base": "t_uint256",
        "encoding": "inplace",
        "label": "uint256[48]",
        "numberOfBytes": "1536"
      },
      "t_uint256": {
        "encoding": "inplace",
        "label": "uint256",
        "numberOfBytes": "32"
      }
    }
  }
}