{
  "address": "0x9476Fa44fd7b960E5346936882f7e3CF2ef7E918",
  "abi": [
    {
      "inputs": [],
      "stateMutability": "nonpayable",
      "type": "constructor"
    },
    {
      "inputs": [],
      "name": "InvalidInitialization",
      "type": "error"
    },
    {
      "inputs": [],
      "name": "NotInitializing",
      "type": "error"
    },
    {
      "anonymous": false,
      "inputs": [
        {
          "indexed": false,
          "internalType": "uint64",
          "name": "version",
          "type": "uint64"
        }
      ],
      "name": "Initialized",
      "type": "event"
    },
    {
      "anonymous": false,
      "inputs": [
        {
          "indexed": false,
          "internalType": "address",
          "name": "oldAdmin",
          "type": "address"
        },
        {
          "indexed": false,
          "internalType": "address",
          "name": "newAdmin",
          "type": "address"
        }
      ],
      "name": "NewAdmin",
      "type": "event"
    },
    {
      "anonymous": false,
      "inputs": [
        {
          "indexed": false,
          "internalType": "address",
          "name": "oldPendingAdmin",
          "type": "address"
        },
        {
          "indexed": false,
          "internalType": "address",
          "name": "newPendingAdmin",
          "type": "address"
        }
      ],
      "name": "NewPendingAdmin",
      "type": "event"
    },
    {
      "anonymous": false,
      "inputs": [
        {
          "indexed": false,
          "internalType": "bool",
          "name": "isNavAbnormal",
          "type": "bool"
        }
      ],
      "name": "SetIsNavAbnormal",
      "type": "event"
    },
    {
      "anonymous": false,
      "inputs": [
        {
          "indexed": false,
          "internalType": "uint256",
          "name": "navTime",
          "type": "uint256"
        },
        {
          "indexed": false,
          "internalType": "uint256",
          "name": "nav",
          "type": "uint256"
        }
      ],
      "name": "SetNav",
      "type": "event"
    },
    {
      "inputs": [],
      "name": "acceptAdmin",
      "outputs": [],
      "stateMutability": "nonpayable",
      "type": "function"
    },
    {
      "inputs": [],
      "name": "admin",
      "outputs": [
        {
          "internalType": "address",
          "name": "",
          "type": "address"
        }
      ],
      "stateMutability": "view",
      "type": "function"
    },
    {
      "inputs": [
        {
          "internalType": "address",
          "name": "erc20_",
          "type": "address"
        }
      ],
      "name": "getNav",
      "outputs": [
        {
          "internalType": "uint256",
          "name": "nav",
          "type": "uint256"
        }
      ],
      "stateMutability": "view",
      "type": "function"
    },
    {
      "inputs": [
        {
          "internalType": "uint8",
          "name": "navDecimals_",
          "type": "uint8"
        },
        {
          "internalType": "uint256",
          "name": "initNav_",
          "type": "uint256"
        }
      ],
      "name": "initialize",
      "outputs": [],
      "stateMutability": "nonpayable",
      "type": "function"
    },
    {
      "inputs": [],
      "name": "latestUpdatedAt",
      "outputs": [
        {
          "internalType": "uint256",
          "name": "",
          "type": "uint256"
        }
      ],
      "stateMutability": "view",
      "type": "function"
    },
    {
      "inputs": [
        {
          "internalType": "address",
          "name": "erc20_",
          "type": "address"
        }
      ],
      "name": "navDecimals",
      "outputs": [
        {
          "internalType": "uint8",
          "name": "",
          "type": "uint8"
        }
      ],
      "stateMutability": "view",
      "type": "function"
    },
    {
      "inputs": [],
      "name": "pendingAdmin",
      "outputs": [
        {
          "internalType": "address",
          "name": "",
          "type": "address"
        }
      ],
      "stateMutability": "view",
      "type": "function"
    },
    {
      "inputs": [
        {
          "internalType": "bool",
          "name": "isNavAbnormal_",
          "type": "bool"
        }
      ],
      "name": "setIsNavAbnormal",
      "outputs": [],
      "stateMutability": "nonpayable",
      "type": "function"
    },
    {
      "inputs": [
        {
          "internalType": "uint256",
          "name": "nav_",
          "type": "uint256"
        }
      ],
      "name": "setNav",
      "outputs": [],
      "stateMutability": "nonpayable",
      "type": "function"
    },
    {
      "inputs": [
        {
          "internalType": "address",
          "name": "xSolvBTC_",
          "type": "address"
        }
      ],
      "name": "setXSolvBTC",
      "outputs": [],
      "stateMutability": "nonpayable",
      "type": "function"
    },
    {
      "inputs": [
        {
          "internalType": "address",
          "name": "xSolvBTCPool_",
          "type": "address"
        }
      ],
      "name": "setXSolvBTCPool",
      "outputs": [],
      "stateMutability": "nonpayable",
      "type": "function"
    },
    {
      "inputs": [
        {
          "internalType": "address",
          "name": "newPendingAdmin_",
          "type": "address"
        }
      ],
      "name": "transferAdmin",
      "outputs": [],
      "stateMutability": "nonpayable",
      "type": "function"
    },
    {
      "inputs": [],
      "name": "xSolvBTC",
      "outputs": [
        {
          "internalType": "address",
          "name": "",
          "type": "address"
        }
      ],
      "stateMutability": "view",
      "type": "function"
    },
    {
      "inputs": [],
      "name": "xSolvBTCPool",
      "outputs": [
        {
          "internalType": "address",
          "name": "",
          "type": "address"
        }
      ],
      "stateMutability": "view",
      "type": "function"
    }
  ],
  "transactionHash": "0xae9fcb815df8a1bf4957ba91de9fbd72f65b0d8a7e8aacc5b7965c578da1b749",
  "args": [],
  "numDeployments": 1,
  "solcInputHash": "b9d869b160b699d3aba6dbcf980fe734",
  "bytecode": "0x608060405234801561001057600080fd5b5061001961001e565b6100d0565b7ff0c57e16840df040f15088dc2f81fe391c3923bec73e23a9662efc9c229c6a00805468010000000000000000900460ff161561006e5760405163f92ee8a960e01b815260040160405180910390fd5b80546001600160401b03908116146100cd5780546001600160401b0319166001600160401b0390811782556040519081527fc7f505b2f371ae2175ee4913f4499e1f2633a7b5936321eed1cdaeb6115181d29060200160405180910390a15b50565b610ce6806100df6000396000f3fe608060405234801561001057600080fd5b50600436106100ba5760003560e01c80630e18b681146100bf578063251d8ffb146100c957806326782247146100dc57806340fe9ca91461010c5780634d219e8f1461011f57806375829def146101375780638e1da40b1461014a578063918e220d1461015d578063a13c96201461016f578063bb65ccbc14610182578063e0e33d4f14610195578063f851a440146101a8578063fb596008146101bb578063ff554afa146101ce575b600080fd5b6100c76101f3565b005b6100c76100d7366004610aae565b6102a7565b6001546100ef906001600160a01b031681565b6040516001600160a01b0390911681526020015b60405180910390f35b6100c761011a366004610ac7565b610531565b6032546100ef9061010090046001600160a01b031681565b6100c7610145366004610ac7565b6105d6565b6035546100ef906001600160a01b031681565b6033545b604051908152602001610103565b6100c761017d366004610ac7565b610669565b6100c7610190366004610af7565b610710565b6100c76101a3366004610b29565b61084b565b6000546100ef906001600160a01b031681565b6101616101c9366004610ac7565b6108cd565b6101e16101dc366004610ac7565b6109b4565b60405160ff9091168152602001610103565b6001546001600160a01b031633146102475760405162461bcd60e51b815260206004820152601260248201527137b7363c903832b73234b7339030b236b4b760711b60448201526064015b60405180910390fd5b600054600154604051600080516020610c9183398151915292610278926001600160a01b0391821692911690610b4b565b60405180910390a160018054600080546001600160a01b03199081166001600160a01b03841617909155169055565b6000546001600160a01b031633146102d15760405162461bcd60e51b815260040161023e90610b65565b8060000361031f5760405162461bcd60e51b815260206004820152601b60248201527a2c29b7b63b212a21a7b930b1b6329d1034b73b30b634b2103730bb60291b604482015260640161023e565b42620151806033546103319190610b9f565b111561039d5760405162461bcd60e51b815260206004820152603560248201527f58536f6c764254434f7261636c653a206e61762063616e6e6f74206265207570604482015274646174656420696e2074686520323420686f75727360581b606482015260840161023e565b6035546040805163ea99e68960e01b815290516000926001600160a01b03169163ea99e6899160048083019260209291908290030181865afa1580156103e7573d6000803e3d6000fd5b505050506040513d601f19601f8201168201806040525081019061040b9190610bb8565b6001600160401b031690506000606482116104265781610429565b60645b90506000603454841161044957836034546104449190610be1565b610456565b6034546104569085610be1565b9050816034546104669190610bf4565b61047282612710610bf4565b11156104db5760405162461bcd60e51b815260206004820152603260248201527f58536f6c764254434f7261636c653a206e61762067726f777468206f766572206044820152711b585e0818da185b99d9481c195c98d95b9d60721b606482015260840161023e565b603484905542603355603554600160a01b900460ff1615610504576035805460ff60a01b191690555b6040805142815260208101869052600080516020610c71833981519152910160405180910390a150505050565b6000546001600160a01b0316331461055b5760405162461bcd60e51b815260040161023e90610b65565b6001600160a01b0381166105b45760405162461bcd60e51b815260206004820152602c6024820152600080516020610c5183398151915260448201526b506f6f6c206164647265737360a01b606482015260840161023e565b603580546001600160a01b0319166001600160a01b0392909216919091179055565b6000546001600160a01b031633146106005760405162461bcd60e51b815260040161023e90610b65565b6001546040517fca4f2f25d0898edd99413412fb94012f9e54ec8142f9b093e7720646a95b16a99161063f916001600160a01b03909116908490610b4b565b60405180910390a1600180546001600160a01b0319166001600160a01b0392909216919091179055565b6000546001600160a01b031633146106935760405162461bcd60e51b815260040161023e90610b65565b6001600160a01b0381166106e85760405162461bcd60e51b81526020600482015260286024820152600080516020610c51833981519152604482015267206164647265737360c01b606482015260840161023e565b603280546001600160a01b0390921661010002610100600160a81b0319909216919091179055565b600061071a6109f4565b805490915060ff600160401b82041615906001600160401b03166000811580156107415750825b90506000826001600160401b0316600114801561075d5750303b155b90508115801561076b575080155b156107895760405163f92ee8a960e01b815260040160405180910390fd5b84546001600160401b031916600117855583156107b257845460ff60401b1916600160401b1785555b6107bb33610a18565b6032805460ff191660ff891617905560348690554260338190556040805191825260208201889052600080516020610c71833981519152910160405180910390a1831561084257845460ff60401b19168555604051600181527fc7f505b2f371ae2175ee4913f4499e1f2633a7b5936321eed1cdaeb6115181d29060200160405180910390a15b50505050505050565b6000546001600160a01b031633146108755760405162461bcd60e51b815260040161023e90610b65565b60358054821515600160a01b0260ff60a01b199091161790556040517f5e4ab3159a44d164880962f8d45245e145734dfe5d95aa2edb3609a76245242f906108c290831515815260200190565b60405180910390a150565b6032546000906001600160a01b0383811661010090920416146109025760405162461bcd60e51b815260040161023e90610c0b565b603554600160a01b900460ff161561095c5760405162461bcd60e51b815260206004820152601f60248201527f58536f6c764254434f7261636c653a206e61762069732061626e6f726d616c00604482015260640161023e565b6034549050806000036109af5760405162461bcd60e51b815260206004820152601b60248201527a1614dbdb1d909510d3dc9858db194e881b985d881b9bdd081cd95d602a1b604482015260640161023e565b919050565b6032546000906001600160a01b0383811661010090920416146109e95760405162461bcd60e51b815260040161023e90610c0b565b505060325460ff1690565b7ff0c57e16840df040f15088dc2f81fe391c3923bec73e23a9662efc9c229c6a0090565b610a20610a2c565b610a2981610a53565b50565b610a34610a94565b610a5157604051631afcd79f60e31b815260040160405180910390fd5b565b610a5b610a2c565b600080546001600160a01b0319166001600160a01b038316178155604051600080516020610c91833981519152916108c2918490610b4b565b6000610a9e6109f4565b54600160401b900460ff16919050565b600060208284031215610ac057600080fd5b5035919050565b600060208284031215610ad957600080fd5b81356001600160a01b0381168114610af057600080fd5b9392505050565b60008060408385031215610b0a57600080fd5b823560ff81168114610b1b57600080fd5b946020939093013593505050565b600060208284031215610b3b57600080fd5b81358015158114610af057600080fd5b6001600160a01b0392831681529116602082015260400190565b6020808252600a908201526937b7363c9030b236b4b760b11b604082015260600190565b634e487b7160e01b600052601160045260246000fd5b80820180821115610bb257610bb2610b89565b92915050565b600060208284031215610bca57600080fd5b81516001600160401b0381168114610af057600080fd5b81810381811115610bb257610bb2610b89565b8082028115828204841417610bb257610bb2610b89565b60208082526025908201527f58536f6c764254434f7261636c653a20696e76616c6964206572633230206164604082015264647265737360d81b60608201526080019056fe58536f6c764254434f7261636c653a20696e76616c69642078536f6c76425443cce0116f7b54810b707a83210a60bff6cbd2dacc646926e66f1be9c7bc55d07cf9ffabca9c8276e99321725bcb43fb076a6c66a54b7f21c4e8146d8519b417dca26469706673582212200d5fe9221a4d37c199a817a2413b3e314c057398fb3add2da682bb41c416436764736f6c63430008140033",
  "devdoc": {
    "details": "This contract is a oracle that allows users to get the nav of xSolvBTC.The nav is the price of xSolvBTC in solvBTC.The nav is updated by the admin at a fixed period of time, such as a week.Only the nav is allowed per day.",
    "errors": {
      "InvalidInitialization()": [
        {
          "details": "The contract is already initialized."
        }
      ],
      "NotInitializing()": [
        {
          "details": "The contract is not initializing."
        }
      ]
    },
    "events": {
      "Initialized(uint64)": {
        "details": "Triggered when the contract has been initialized or reinitialized."
      }
    },
    "kind": "dev",
    "methods": {
      "getNav(address)": {
        "params": {
          "erc20_": "The address of the erc20 token"
        },
        "returns": {
          "nav": "The nav of xSolvBTC"
        }
      },
      "initialize(uint8,uint256)": {
        "params": {
          "navDecimals_": "The decimals of the nav"
        }
      },
      "latestUpdatedAt()": {
        "returns": {
          "_0": "latestUpdatedAt The latest updated at"
        }
      },
      "navDecimals(address)": {
        "params": {
          "erc20_": "The address of the erc20 token"
        },
        "returns": {
          "_0": "decimals The decimals of the nav"
        }
      },
      "setIsNavAbnormal(bool)": {
        "params": {
          "isNavAbnormal_": "The status of the nav confirmation"
        }
      },
      "setNav(uint256)": {
        "params": {
          "nav_": "The nav of xSolvBTC"
        }
      },
      "setXSolvBTC(address)": {
        "params": {
          "xSolvBTC_": "The address of the xSolvBTC"
        }
      },
      "setXSolvBTCPool(address)": {
        "params": {
          "xSolvBTCPool_": "The address of the xSolvBTCPool"
        }
      }
    },
    "title": "XSolvBTCOracle",
    "version": 1
  },
  "userdoc": {
    "kind": "user",
    "methods": {
      "getNav(address)": {
        "notice": "Get the nav of xSolvBTC"
      },
      "initialize(uint8,uint256)": {
        "notice": "Initialize the oracle"
      },
      "latestUpdatedAt()": {
        "notice": "Get the latest updated at"
      },
      "navDecimals(address)": {
        "notice": "Get the decimals of the nav"
      },
      "setIsNavAbnormal(bool)": {
        "notice": "Set the nav is abnormal"
      },
      "setNav(uint256)": {
        "notice": "Set the nav of xSolvBTC"
      },
      "setXSolvBTC(address)": {
        "notice": "Set the xSolvBTC address"
      },
      "setXSolvBTCPool(address)": {
        "notice": "Set the xSolvBTCPool address"
      }
    },
    "notice": "The oracle for xSolvBTC, which is a yield token of solvBTC.",
    "version": 1
  },
  "storageLayout": {
    "storage": [
      {
        "astId": 5874,
        "contract": "contracts/oracle/XSolvBTCOracle.sol:XSolvBTCOracle",
        "label": "admin",
        "offset": 0,
        "slot": "0",
        "type": "t_address"
      },
      {
        "astId": 5876,
        "contract": "contracts/oracle/XSolvBTCOracle.sol:XSolvBTCOracle",
        "label": "pendingAdmin",
        "offset": 0,
        "slot": "1",
        "type": "t_address"
      },
      {
        "astId": 5971,
        "contract": "contracts/oracle/XSolvBTCOracle.sol:XSolvBTCOracle",
        "label": "__gap",
        "offset": 0,
        "slot": "2",
        "type": "t_array(t_uint256)48_storage"
      },
      {
        "astId": 6199,
        "contract": "contracts/oracle/XSolvBTCOracle.sol:XSolvBTCOracle",
        "label": "_navDecimals",
        "offset": 0,
        "slot": "50",
        "type": "t_uint8"
      },
      {
        "astId": 6201,
        "contract": "contracts/oracle/XSolvBTCOracle.sol:XSolvBTCOracle",
        "label": "xSolvBTC",
        "offset": 1,
        "slot": "50",
        "type": "t_address"
      },
      {
        "astId": 6203,
        "contract": "contracts/oracle/XSolvBTCOracle.sol:XSolvBTCOracle",
        "label": "_latestUpdatedAt",
        "offset": 0,
        "slot": "51",
        "type": "t_uint256"
      },
      {
        "astId": 6205,
        "contract": "contracts/oracle/XSolvBTCOracle.sol:XSolvBTCOracle",
        "label": "_latestNav",
        "offset": 0,
        "slot": "52",
        "type": "t_uint256"
      },
      {
        "astId": 6207,
        "contract": "contracts/oracle/XSolvBTCOracle.sol:XSolvBTCOracle",
        "label": "xSolvBTCPool",
        "offset": 0,
        "slot": "53",
        "type": "t_address"
      },
      {
        "astId": 6212,
        "contract": "contracts/oracle/XSolvBTCOracle.sol:XSolvBTCOracle",
        "label": "_isNavAbnormal",
        "offset": 20,
        "slot": "53",
        "type": "t_bool"
      },
      {
        "astId": 6497,
        "contract": "contracts/oracle/XSolvBTCOracle.sol:XSolvBTCOracle",
        "label": "__gap",
        "offset": 0,
        "slot": "54",
        "type": "t_array(t_uint256)44_storage"
      }
    ],
    "types": {
      "t_address": {
        "encoding": "inplace",
        "label": "address",
        "numberOfBytes": "20"
      },
      "t_array(t_uint256)44_storage": {
        "base": "t_uint256",
        "encoding": "inplace",
        "label": "uint256[44]",
        "numberOfBytes": "1408"
      },
      "t_array(t_uint256)48_storage": {
        "base": "t_uint256",
        "encoding": "inplace",
        "label": "uint256[48]",
        "numberOfBytes": "1536"
      },
      "t_bool": {
        "encoding": "inplace",
        "label": "bool",
        "numberOfBytes": "1"
      },
      "t_uint256": {
        "encoding": "inplace",
        "label": "uint256",
        "numberOfBytes": "32"
      },
      "t_uint8": {
        "encoding": "inplace",
        "label": "uint8",
        "numberOfBytes": "1"
      }
    }
  }
}