{
  "address": "0x9f2A9F488d82683e8a4a51A581fD34155d50D541",
  "abi": [
    {
      "inputs": [],
      "stateMutability": "nonpayable",
      "type": "constructor"
    },
    {
      "inputs": [],
      "name": "AccessControlBadConfirmation",
      "type": "error"
    },
    {
      "inputs": [
        {
          "internalType": "address",
          "name": "account",
          "type": "address"
        },
        {
          "internalType": "bytes32",
          "name": "neededRole",
          "type": "bytes32"
        }
      ],
      "name": "AccessControlUnauthorizedAccount",
      "type": "error"
    },
    {
      "inputs": [
        {
          "internalType": "address",
          "name": "spender",
          "type": "address"
        },
        {
          "internalType": "uint256",
          "name": "allowance",
          "type": "uint256"
        },
        {
          "internalType": "uint256",
          "name": "needed",
          "type": "uint256"
        }
      ],
      "name": "ERC20InsufficientAllowance",
      "type": "error"
    },
    {
      "inputs": [
        {
          "internalType": "address",
          "name": "sender",
          "type": "address"
        },
        {
          "internalType": "uint256",
          "name": "balance",
          "type": "uint256"
        },
        {
          "internalType": "uint256",
          "name": "needed",
          "type": "uint256"
        }
      ],
      "name": "ERC20InsufficientBalance",
      "type": "error"
    },
    {
      "inputs": [
        {
          "internalType": "address",
          "name": "approver",
          "type": "address"
        }
      ],
      "name": "ERC20InvalidApprover",
      "type": "error"
    },
    {
      "inputs": [
        {
          "internalType": "address",
          "name": "receiver",
          "type": "address"
        }
      ],
      "name": "ERC20InvalidReceiver",
      "type": "error"
    },
    {
      "inputs": [
        {
          "internalType": "address",
          "name": "sender",
          "type": "address"
        }
      ],
      "name": "ERC20InvalidSender",
      "type": "error"
    },
    {
      "inputs": [
        {
          "internalType": "address",
          "name": "spender",
          "type": "address"
        }
      ],
      "name": "ERC20InvalidSpender",
      "type": "error"
    },
    {
      "inputs": [
        {
          "internalType": "address",
          "name": "token",
          "type": "address"
        }
      ],
      "name": "ERC3525NotReceivable",
      "type": "error"
    },
    {
      "inputs": [
        {
          "internalType": "address",
          "name": "token",
          "type": "address"
        }
      ],
      "name": "ERC721NotReceivable",
      "type": "error"
    },
    {
      "inputs": [],
      "name": "InvalidInitialization",
      "type": "error"
    },
    {
      "inputs": [],
      "name": "NotInitializing",
      "type": "error"
    },
    {
      "inputs": [
        {
          "internalType": "address",
          "name": "owner",
          "type": "address"
        }
      ],
      "name": "OwnableInvalidOwner",
      "type": "error"
    },
    {
      "inputs": [
        {
          "internalType": "address",
          "name": "account",
          "type": "address"
        }
      ],
      "name": "OwnableUnauthorizedAccount",
      "type": "error"
    },
    {
      "inputs": [],
      "name": "ReentrancyGuardReentrantCall",
      "type": "error"
    },
    {
      "anonymous": false,
      "inputs": [
        {
          "indexed": true,
          "internalType": "address",
          "name": "owner",
          "type": "address"
        },
        {
          "indexed": true,
          "internalType": "address",
          "name": "spender",
          "type": "address"
        },
        {
          "indexed": false,
          "internalType": "uint256",
          "name": "value",
          "type": "uint256"
        }
      ],
      "name": "Approval",
      "type": "event"
    },
    {
      "anonymous": false,
      "inputs": [
        {
          "indexed": false,
          "internalType": "uint64",
          "name": "version",
          "type": "uint64"
        }
      ],
      "name": "Initialized",
      "type": "event"
    },
    {
      "anonymous": false,
      "inputs": [
        {
          "indexed": true,
          "internalType": "address",
          "name": "previousOwner",
          "type": "address"
        },
        {
          "indexed": true,
          "internalType": "address",
          "name": "newOwner",
          "type": "address"
        }
      ],
      "name": "OwnershipTransferStarted",
      "type": "event"
    },
    {
      "anonymous": false,
      "inputs": [
        {
          "indexed": true,
          "internalType": "address",
          "name": "previousOwner",
          "type": "address"
        },
        {
          "indexed": true,
          "internalType": "address",
          "name": "newOwner",
          "type": "address"
        }
      ],
      "name": "OwnershipTransferred",
      "type": "event"
    },
    {
      "anonymous": false,
      "inputs": [
        {
          "indexed": true,
          "internalType": "bytes32",
          "name": "role",
          "type": "bytes32"
        },
        {
          "indexed": true,
          "internalType": "bytes32",
          "name": "previousAdminRole",
          "type": "bytes32"
        },
        {
          "indexed": true,
          "internalType": "bytes32",
          "name": "newAdminRole",
          "type": "bytes32"
        }
      ],
      "name": "RoleAdminChanged",
      "type": "event"
    },
    {
      "anonymous": false,
      "inputs": [
        {
          "indexed": true,
          "internalType": "bytes32",
          "name": "role",
          "type": "bytes32"
        },
        {
          "indexed": true,
          "internalType": "address",
          "name": "account",
          "type": "address"
        },
        {
          "indexed": true,
          "internalType": "address",
          "name": "sender",
          "type": "address"
        }
      ],
      "name": "RoleGranted",
      "type": "event"
    },
    {
      "anonymous": false,
      "inputs": [
        {
          "indexed": true,
          "internalType": "bytes32",
          "name": "role",
          "type": "bytes32"
        },
        {
          "indexed": true,
          "internalType": "address",
          "name": "account",
          "type": "address"
        },
        {
          "indexed": true,
          "internalType": "address",
          "name": "sender",
          "type": "address"
        }
      ],
      "name": "RoleRevoked",
      "type": "event"
    },
    {
      "anonymous": false,
      "inputs": [
        {
          "indexed": true,
          "internalType": "address",
          "name": "solvBTCMultiAssetPool",
          "type": "address"
        }
      ],
      "name": "SetSolvBTCMultiAssetPool",
      "type": "event"
    },
    {
      "anonymous": false,
      "inputs": [
        {
          "indexed": true,
          "internalType": "address",
          "name": "from",
          "type": "address"
        },
        {
          "indexed": true,
          "internalType": "address",
          "name": "to",
          "type": "address"
        },
        {
          "indexed": false,
          "internalType": "uint256",
          "name": "value",
          "type": "uint256"
        }
      ],
      "name": "Transfer",
      "type": "event"
    },
    {
      "inputs": [],
      "name": "DEFAULT_ADMIN_ROLE",
      "outputs": [
        {
          "internalType": "bytes32",
          "name": "",
          "type": "bytes32"
        }
      ],
      "stateMutability": "view",
      "type": "function"
    },
    {
      "inputs": [],
      "name": "SOLVBTC_MINTER_ROLE",
      "outputs": [
        {
          "internalType": "bytes32",
          "name": "",
          "type": "bytes32"
        }
      ],
      "stateMutability": "view",
      "type": "function"
    },
    {
      "inputs": [],
      "name": "SOLVBTC_POOL_BURNER_ROLE",
      "outputs": [
        {
          "internalType": "bytes32",
          "name": "",
          "type": "bytes32"
        }
      ],
      "stateMutability": "view",
      "type": "function"
    },
    {
      "inputs": [],
      "name": "acceptOwnership",
      "outputs": [],
      "stateMutability": "nonpayable",
      "type": "function"
    },
    {
      "inputs": [
        {
          "internalType": "address",
          "name": "owner",
          "type": "address"
        },
        {
          "internalType": "address",
          "name": "spender",
          "type": "address"
        }
      ],
      "name": "allowance",
      "outputs": [
        {
          "internalType": "uint256",
          "name": "",
          "type": "uint256"
        }
      ],
      "stateMutability": "view",
      "type": "function"
    },
    {
      "inputs": [
        {
          "internalType": "address",
          "name": "spender",
          "type": "address"
        },
        {
          "internalType": "uint256",
          "name": "value",
          "type": "uint256"
        }
      ],
      "name": "approve",
      "outputs": [
        {
          "internalType": "bool",
          "name": "",
          "type": "bool"
        }
      ],
      "stateMutability": "nonpayable",
      "type": "function"
    },
    {
      "inputs": [
        {
          "internalType": "address",
          "name": "account",
          "type": "address"
        }
      ],
      "name": "balanceOf",
      "outputs": [
        {
          "internalType": "uint256",
          "name": "",
          "type": "uint256"
        }
      ],
      "stateMutability": "view",
      "type": "function"
    },
    {
      "inputs": [
        {
          "internalType": "uint256",
          "name": "value_",
          "type": "uint256"
        }
      ],
      "name": "burn",
      "outputs": [],
      "stateMutability": "nonpayable",
      "type": "function"
    },
    {
      "inputs": [
        {
          "internalType": "address",
          "name": "account_",
          "type": "address"
        },
        {
          "internalType": "uint256",
          "name": "value_",
          "type": "uint256"
        }
      ],
      "name": "burn",
      "outputs": [],
      "stateMutability": "nonpayable",
      "type": "function"
    },
    {
      "inputs": [],
      "name": "decimals",
      "outputs": [
        {
          "internalType": "uint8",
          "name": "",
          "type": "uint8"
        }
      ],
      "stateMutability": "view",
      "type": "function"
    },
    {
      "inputs": [
        {
          "internalType": "bytes32",
          "name": "role",
          "type": "bytes32"
        }
      ],
      "name": "getRoleAdmin",
      "outputs": [
        {
          "internalType": "bytes32",
          "name": "",
          "type": "bytes32"
        }
      ],
      "stateMutability": "view",
      "type": "function"
    },
    {
      "inputs": [
        {
          "internalType": "bytes32",
          "name": "role",
          "type": "bytes32"
        },
        {
          "internalType": "address",
          "name": "account",
          "type": "address"
        }
      ],
      "name": "grantRole",
      "outputs": [],
      "stateMutability": "nonpayable",
      "type": "function"
    },
    {
      "inputs": [
        {
          "internalType": "bytes32",
          "name": "role",
          "type": "bytes32"
        },
        {
          "internalType": "address",
          "name": "account",
          "type": "address"
        }
      ],
      "name": "hasRole",
      "outputs": [
        {
          "internalType": "bool",
          "name": "",
          "type": "bool"
        }
      ],
      "stateMutability": "view",
      "type": "function"
    },
    {
      "inputs": [],
      "name": "holdingValueSftId",
      "outputs": [
        {
          "internalType": "uint256",
          "name": "",
          "type": "uint256"
        }
      ],
      "stateMutability": "view",
      "type": "function"
    },
    {
      "inputs": [
        {
          "internalType": "string",
          "name": "name_",
          "type": "string"
        },
        {
          "internalType": "string",
          "name": "symbol_",
          "type": "string"
        }
      ],
      "name": "initialize",
      "outputs": [],
      "stateMutability": "nonpayable",
      "type": "function"
    },
    {
      "inputs": [
        {
          "internalType": "address",
          "name": "solvBTCMultiAssetPool_",
          "type": "address"
        }
      ],
      "name": "initializeV2",
      "outputs": [],
      "stateMutability": "nonpayable",
      "type": "function"
    },
    {
      "inputs": [
        {
          "internalType": "address",
          "name": "account_",
          "type": "address"
        },
        {
          "internalType": "uint256",
          "name": "value_",
          "type": "uint256"
        }
      ],
      "name": "mint",
      "outputs": [],
      "stateMutability": "nonpayable",
      "type": "function"
    },
    {
      "inputs": [],
      "name": "name",
      "outputs": [
        {
          "internalType": "string",
          "name": "",
          "type": "string"
        }
      ],
      "stateMutability": "view",
      "type": "function"
    },
    {
      "inputs": [],
      "name": "navOracle",
      "outputs": [
        {
          "internalType": "address",
          "name": "",
          "type": "address"
        }
      ],
      "stateMutability": "view",
      "type": "function"
    },
    {
      "inputs": [
        {
          "internalType": "address",
          "name": "",
          "type": "address"
        },
        {
          "internalType": "uint256",
          "name": "",
          "type": "uint256"
        },
        {
          "internalType": "uint256",
          "name": "",
          "type": "uint256"
        },
        {
          "internalType": "uint256",
          "name": "",
          "type": "uint256"
        },
        {
          "internalType": "bytes",
          "name": "",
          "type": "bytes"
        }
      ],
      "name": "onERC3525Received",
      "outputs": [
        {
          "internalType": "bytes4",
          "name": "",
          "type": "bytes4"
        }
      ],
      "stateMutability": "nonpayable",
      "type": "function"
    },
    {
      "inputs": [
        {
          "internalType": "address",
          "name": "",
          "type": "address"
        },
        {
          "internalType": "address",
          "name": "",
          "type": "address"
        },
        {
          "internalType": "uint256",
          "name": "",
          "type": "uint256"
        },
        {
          "internalType": "bytes",
          "name": "",
          "type": "bytes"
        }
      ],
      "name": "onERC721Received",
      "outputs": [
        {
          "internalType": "bytes4",
          "name": "",
          "type": "bytes4"
        }
      ],
      "stateMutability": "nonpayable",
      "type": "function"
    },
    {
      "inputs": [],
      "name": "owner",
      "outputs": [
        {
          "internalType": "address",
          "name": "",
          "type": "address"
        }
      ],
      "stateMutability": "view",
      "type": "function"
    },
    {
      "inputs": [],
      "name": "pendingOwner",
      "outputs": [
        {
          "internalType": "address",
          "name": "",
          "type": "address"
        }
      ],
      "stateMutability": "view",
      "type": "function"
    },
    {
      "inputs": [],
      "name": "renounceOwnership",
      "outputs": [],
      "stateMutability": "nonpayable",
      "type": "function"
    },
    {
      "inputs": [
        {
          "internalType": "bytes32",
          "name": "role",
          "type": "bytes32"
        },
        {
          "internalType": "address",
          "name": "callerConfirmation",
          "type": "address"
        }
      ],
      "name": "renounceRole",
      "outputs": [],
      "stateMutability": "nonpayable",
      "type": "function"
    },
    {
      "inputs": [
        {
          "internalType": "bytes32",
          "name": "role",
          "type": "bytes32"
        },
        {
          "internalType": "address",
          "name": "account",
          "type": "address"
        }
      ],
      "name": "revokeRole",
      "outputs": [],
      "stateMutability": "nonpayable",
      "type": "function"
    },
    {
      "inputs": [],
      "name": "solvBTCMultiAssetPool",
      "outputs": [
        {
          "internalType": "address",
          "name": "",
          "type": "address"
        }
      ],
      "stateMutability": "view",
      "type": "function"
    },
    {
      "inputs": [
        {
          "internalType": "bytes4",
          "name": "interfaceId",
          "type": "bytes4"
        }
      ],
      "name": "supportsInterface",
      "outputs": [
        {
          "internalType": "bool",
          "name": "",
          "type": "bool"
        }
      ],
      "stateMutability": "view",
      "type": "function"
    },
    {
      "inputs": [
        {
          "internalType": "address",
          "name": "sft_",
          "type": "address"
        },
        {
          "internalType": "uint256",
          "name": "sweepAmount_",
          "type": "uint256"
        }
      ],
      "name": "sweepEmptySftIds",
      "outputs": [],
      "stateMutability": "nonpayable",
      "type": "function"
    },
    {
      "inputs": [],
      "name": "symbol",
      "outputs": [
        {
          "internalType": "string",
          "name": "",
          "type": "string"
        }
      ],
      "stateMutability": "view",
      "type": "function"
    },
    {
      "inputs": [],
      "name": "totalSupply",
      "outputs": [
        {
          "internalType": "uint256",
          "name": "",
          "type": "uint256"
        }
      ],
      "stateMutability": "view",
      "type": "function"
    },
    {
      "inputs": [
        {
          "internalType": "address",
          "name": "to",
          "type": "address"
        },
        {
          "internalType": "uint256",
          "name": "value",
          "type": "uint256"
        }
      ],
      "name": "transfer",
      "outputs": [
        {
          "internalType": "bool",
          "name": "",
          "type": "bool"
        }
      ],
      "stateMutability": "nonpayable",
      "type": "function"
    },
    {
      "inputs": [
        {
          "internalType": "address",
          "name": "from",
          "type": "address"
        },
        {
          "internalType": "address",
          "name": "to",
          "type": "address"
        },
        {
          "internalType": "uint256",
          "name": "value",
          "type": "uint256"
        }
      ],
      "name": "transferFrom",
      "outputs": [
        {
          "internalType": "bool",
          "name": "",
          "type": "bool"
        }
      ],
      "stateMutability": "nonpayable",
      "type": "function"
    },
    {
      "inputs": [
        {
          "internalType": "address",
          "name": "newOwner",
          "type": "address"
        }
      ],
      "name": "transferOwnership",
      "outputs": [],
      "stateMutability": "nonpayable",
      "type": "function"
    },
    {
      "inputs": [],
      "name": "wrappedSftAddress",
      "outputs": [
        {
          "internalType": "address",
          "name": "",
          "type": "address"
        }
      ],
      "stateMutability": "view",
      "type": "function"
    },
    {
      "inputs": [],
      "name": "wrappedSftSlot",
      "outputs": [
        {
          "internalType": "uint256",
          "name": "",
          "type": "uint256"
        }
      ],
      "stateMutability": "view",
      "type": "function"
    }
  ],
  "transactionHash": "0x450247fe572fbe21fc5d66bbc48ac9167f834cc0e802ef44a41d4a7515536711",
  "args": [],
  "numDeployments": 1,
  "solcInputHash": "e1cac86c4b509bd9190ca99954930784",
  "bytecode": "0x608060405234801561001057600080fd5b5061001961001e565b6100d0565b7ff0c57e16840df040f15088dc2f81fe391c3923bec73e23a9662efc9c229c6a00805468010000000000000000900460ff161561006e5760405163f92ee8a960e01b815260040160405180910390fd5b80546001600160401b03908116146100cd5780546001600160401b0319166001600160401b0390811782556040519081527fc7f505b2f371ae2175ee4913f4499e1f2633a7b5936321eed1cdaeb6115181d29060200160405180910390a15b50565b611c5d806100df6000396000f3fe608060405234801561001057600080fd5b50600436106101ab5760003560e01c80629ce20b146101b057806301ffc9a7146101e157806306fdde0314610204578063095ea7b314610219578063150b7a021461022c57806318160ddd1461023f57806323b872dd14610255578063248a9ca31461026857806329b6eca91461027b5780632f2ff15d14610290578063313ce567146102a357806336568abe146102b257806340c10f19146102c557806342966c68146102d857806344b32bd1146102eb57806349d4640d146102f45780634cd88b76146103145780634eb079811461032757806370a0823114610330578063715018a61461034357806379ba50971461034b5780638da5cb5b1461035357806391d148541461035b57806395d89b411461036e57806396c49597146103765780639dc29fac1461037e578063a217fddf14610391578063a49630b214610399578063a9059cbb146103a1578063baecd326146103b4578063d547741f146103c7578063dd62ed3e146103da578063e30c3978146103ed578063f2fde38b146103f5578063f443a35b14610408578063fd94715b14610410575b600080fd5b6101c36101be366004611634565b610423565b6040516001600160e01b031990911681526020015b60405180910390f35b6101f46101ef3660046116a4565b610449565b60405190151581526020016101d8565b61020c6104a9565b6040516101d891906116d5565b6101f4610227366004611723565b61054a565b6101c361023a36600461174d565b610562565b61024761057f565b6040519081526020016101d8565b6101f46102633660046117bb565b610594565b6102476102763660046117f7565b6105b8565b61028e610289366004611810565b6105d8565b005b61028e61029e36600461182b565b610740565b604051601281526020016101d8565b61028e6102c036600461182b565b610762565b61028e6102d3366004611723565b61079a565b61028e6102e63660046117f7565b610837565b61024760035481565b600254610307906001600160a01b031681565b6040516101d89190611857565b61028e61032236600461190d565b6108a3565b61024760015481565b61024761033e366004611810565b610999565b61028e6109c4565b61028e6109d8565b610307610a14565b6101f461036936600461182b565b610a2f565b61020c610a65565b610247610a82565b61028e61038c366004611723565b610aaa565b610247600081565b610247610b0a565b6101f46103af366004611723565b610b19565b600054610307906001600160a01b031681565b61028e6103d536600461182b565b610b27565b6102476103e8366004611970565b610b43565b610307610b7f565b61028e610403366004611810565b610b8a565b610307610bfb565b61028e61041e366004611723565b610c06565b60003360405163578f385f60e11b81526004016104409190611857565b60405180910390fd5b60006001600160e01b03198216629ce20b60e01b148061047957506001600160e01b03198216630a85bd0160e11b145b8061049457506001600160e01b031982166301ffc9a760e01b145b806104a357506104a382610caf565b92915050565b606060006104b5610ce4565b90508060030180546104c69061199a565b80601f01602080910402602001604051908101604052809291908181526020018280546104f29061199a565b801561053f5780601f106105145761010080835404028352916020019161053f565b820191906000526020600020905b81548152906001019060200180831161052257829003601f168201915b505050505091505090565b600033610558818585610d08565b5060019392505050565b600033604051637992d8e360e11b81526004016104409190611857565b60008061058a610ce4565b6002015492915050565b6000336105a2858285610d15565b6105ad858585610d62565b506001949350505050565b6000806105c3610dc1565b60009384526020525050604090206001015490565b600260006105e4610de5565b8054909150600160401b900460ff168061060b575080546001600160401b03808416911610155b156106295760405163f92ee8a960e01b815260040160405180910390fd5b80546001600160481b0319166001600160401b03831617600160401b1781557355c09707fd7afd670e82a62faee312903940013e33146106a15760405162461bcd60e51b815260206004820152601360248201527229b7b63b212a219d1037b7363c9037bbb732b960691b6044820152606401610440565b6106aa33610e09565b6106b5600033610e2c565b506106bf83610ecd565b600354156106e7576000546106e7906001600160a01b03166106df610bfb565b600354610ffa565b600080546001600160a01b031990811682556001829055600280549091169055600355805460ff60401b19168155604051600080516020611c08833981519152906107339084906119d4565b60405180910390a1505050565b610749826105b8565b6107528161106b565b61075c8383610e2c565b50505050565b6001600160a01b038116331461078b5760405163334bd91960e11b815260040160405180910390fd5b6107958282611075565b505050565b6107a26110ed565b6040516020016107b1906119e8565b604051602081830303815290604052805190602001206107d08161106b565b600082116108205760405162461bcd60e51b815260206004820152601f60248201527f536f6c764254433a206d696e742076616c75652063616e6e6f742062652030006044820152606401610440565b61082a8383611123565b50610833611159565b5050565b61083f6110ed565b60405160200161084e906119e8565b6040516020818303038152906040528051906020012061086d8161106b565b6000821161088d5760405162461bcd60e51b815260040161044090611a02565b610897338361116a565b506108a0611159565b50565b60006108ad610de5565b805490915060ff600160401b82041615906001600160401b03166000811580156108d45750825b90506000826001600160401b031660011480156108f05750303b155b9050811580156108fe575080155b1561091c5760405163f92ee8a960e01b815260040160405180910390fd5b84546001600160401b0319166001178555831561094557845460ff60401b1916600160401b1785555b61094f87876111a0565b6109576111b2565b831561099057845460ff60401b19168555604051600080516020611c0883398151915290610987906001906119d4565b60405180910390a15b50505050505050565b6000806109a4610ce4565b6001600160a01b0390931660009081526020939093525050604090205490565b6109cc6111c2565b6109d66000610e09565b565b33806109e2610b7f565b6001600160a01b031614610a0b578060405163118cdaa760e01b81526004016104409190611857565b6108a081610e09565b600080610a1f6111f4565b546001600160a01b031692915050565b600080610a3a610dc1565b6000948552602090815260408086206001600160a01b03959095168652939052505090205460ff1690565b60606000610a71610ce4565b90508060040180546104c69061199a565b604051602001610a91906119e8565b6040516020818303038152906040528051906020012081565b610ab26110ed565b604051602001610ac190611a39565b60405160208183030381529060405280519060200120610ae08161106b565b60008211610b005760405162461bcd60e51b815260040161044090611a02565b61082a838361116a565b604051602001610a9190611a39565b600033610558818585610d62565b610b30826105b8565b610b398161106b565b61075c8383611075565b600080610b4e610ce4565b6001600160a01b03948516600090815260019190910160209081526040808320959096168252939093525050205490565b600080610a1f611218565b610b926111c2565b6000610b9c611218565b80546001600160a01b0319166001600160a01b0384169081178255909150610bc2610a14565b6001600160a01b03167f38d16b8cac22d99fc7c124b9cd0de2d3fa1faef420bfe791d8c362d765e2270060405160405180910390a35050565b600080610a1f61123c565b60045460005b8181108015610c1a57508281105b15610c98576004805460009190610c3390600190611a6e565b81548110610c4357610c43611a81565b90600052602060002001549050610c5d8561dead83610ffa565b6004805480610c6e57610c6e611a97565b60019003818190600052602060002001600090559055508080610c9090611aad565b915050610c0c565b50600454600003610795576107956004600061159e565b60006001600160e01b03198216637965db0b60e01b14806104a357506301ffc9a760e01b6001600160e01b03198316146104a3565b7f52c63247e1f47db19d5ce0460030c497f067ca4cebf71ba98eeadabe20bace0090565b6107958383836001611260565b6000610d218484610b43565b9050600019811461075c5781811015610d5357828183604051637dc7a0d960e11b815260040161044093929190611ac6565b61075c84848484036000611260565b6001600160a01b038316610d8c576000604051634b637e8f60e11b81526004016104409190611857565b6001600160a01b038216610db657600060405163ec442f0560e01b81526004016104409190611857565b610795838383611345565b7f02dd7bc7dec4dceedda775e58dd541e08a116c6c53815c0bd028192f7b62680090565b7ff0c57e16840df040f15088dc2f81fe391c3923bec73e23a9662efc9c229c6a0090565b6000610e13611218565b80546001600160a01b031916815590506108338261146d565b600080610e37610dc1565b9050610e438484610a2f565b610ec3576000848152602082815260408083206001600160a01b03871684529091529020805460ff19166001179055610e793390565b6001600160a01b0316836001600160a01b0316857f2f8788117e7eff1d82e926ec794901d17c78024a50270940304540a733656f0d60405160405180910390a460019150506104a3565b60009150506104a3565b6001600160a01b038116610f3a5760405162461bcd60e51b815260206004820152602e60248201527f536f6c764254433a20696e76616c696420736f6c764254434d756c746941737360448201526d6574506f6f6c206164647265737360901b6064820152608401610440565b6000610f4461123c565b80549091506001600160a01b031615610fb25760405162461bcd60e51b815260206004820152602a60248201527f536f6c764254433a20736f6c764254434d756c74694173736574506f6f6c20616044820152691b1c9958591e481cd95d60b21b6064820152608401610440565b80546001600160a01b0319166001600160a01b03831690811782556040517fca50bd63f1ed14f8c03423aede72ac3139bde9189ea4b717d0e62ee0f4e7a89590600090a25050565b6040516323b872dd60e01b81523060048201526001600160a01b038381166024830152604482018390528491908216906323b872dd90606401600060405180830381600087803b15801561104d57600080fd5b505af1158015611061573d6000803e3d6000fd5b5050505050505050565b6108a081336114c9565b600080611080610dc1565b905061108c8484610a2f565b15610ec3576000848152602082815260408083206001600160a01b0387168085529252808320805460ff1916905551339287917ff6391f5c32d9c69d2a47ea670b442974b53935d1edc7fd64eb21e047a839171b9190a460019150506104a3565b60006110f7611502565b80549091506001190161111d57604051633ee5aeb560e01b815260040160405180910390fd5b60029055565b6001600160a01b03821661114d57600060405163ec442f0560e01b81526004016104409190611857565b61083360008383611345565b6000611163611502565b6001905550565b6001600160a01b038216611194576000604051634b637e8f60e11b81526004016104409190611857565b61083382600083611345565b6111a8611526565b610833828261154b565b6111ba611526565b6109d661157c565b336111cb610a14565b6001600160a01b0316146109d6573360405163118cdaa760e01b81526004016104409190611857565b7f9016d09d72d40fdae2fd8ceac6b6234c7706214fd39c1cd1e609a0528c19930090565b7f237e158222e3e6968b72b9db0d8043aacf074ad9f650f0d1606b4d82ee432c0090565b7f25351088c72db31d4a47cbdabb12f8d9c124b300211236164ae294131705840090565b600061126a610ce4565b90506001600160a01b03851661129657600060405163e602df0560e01b81526004016104409190611857565b6001600160a01b0384166112c0576000604051634a1406b160e11b81526004016104409190611857565b6001600160a01b0380861660009081526001830160209081526040808320938816835292905220839055811561133e57836001600160a01b0316856001600160a01b03167f8c5be1e5ebec7d5bd14f71427d1e84f3dd0314c0f7b2291e5b200ac8c7c3b9258560405161133591815260200190565b60405180910390a35b5050505050565b600061134f610ce4565b90506001600160a01b03841661137e57818160020160008282546113739190611ae7565b909155506113dd9050565b6001600160a01b038416600090815260208290526040902054828110156113be5784818460405163391434e360e21b815260040161044093929190611ac6565b6001600160a01b03851660009081526020839052604090209083900390555b6001600160a01b0383166113fb57600281018054839003905561141a565b6001600160a01b03831660009081526020829052604090208054830190555b826001600160a01b0316846001600160a01b03167fddf252ad1be2c89b69c2b068fc378daa952ba7f163c4a11628f55a4df523b3ef8460405161145f91815260200190565b60405180910390a350505050565b60006114776111f4565b80546001600160a01b038481166001600160a01b031983168117845560405193945091169182907f8be0079c531659141344cd1fd0a4f28419497f9722a3daafe3b4186f6b6457e090600090a3505050565b6114d38282610a2f565b6108335760405163e2517d3f60e01b81526001600160a01b038216600482015260248101839052604401610440565b7f9b779b17422d0df92223018b32b4d1fa46e071723d6817e2486d003becc55f0090565b61152e611584565b6109d657604051631afcd79f60e31b815260040160405180910390fd5b611553611526565b600061155d610ce4565b90506003810161156d8482611b48565b506004810161075c8382611b48565b611159611526565b600061158e610de5565b54600160401b900460ff16919050565b50805460008255906000526020600020908101906108a091905b808211156115cc57600081556001016115b8565b5090565b80356001600160a01b03811681146115e757600080fd5b919050565b60008083601f8401126115fe57600080fd5b5081356001600160401b0381111561161557600080fd5b60208301915083602082850101111561162d57600080fd5b9250929050565b60008060008060008060a0878903121561164d57600080fd5b611656876115d0565b955060208701359450604087013593506060870135925060808701356001600160401b0381111561168657600080fd5b61169289828a016115ec565b979a9699509497509295939492505050565b6000602082840312156116b657600080fd5b81356001600160e01b0319811681146116ce57600080fd5b9392505050565b600060208083528351808285015260005b81811015611702578581018301518582016040015282016116e6565b506000604082860101526040601f19601f8301168501019250505092915050565b6000806040838503121561173657600080fd5b61173f836115d0565b946020939093013593505050565b60008060008060006080868803121561176557600080fd5b61176e866115d0565b945061177c602087016115d0565b93506040860135925060608601356001600160401b0381111561179e57600080fd5b6117aa888289016115ec565b969995985093965092949392505050565b6000806000606084860312156117d057600080fd5b6117d9846115d0565b92506117e7602085016115d0565b9150604084013590509250925092565b60006020828403121561180957600080fd5b5035919050565b60006020828403121561182257600080fd5b6116ce826115d0565b6000806040838503121561183e57600080fd5b8235915061184e602084016115d0565b90509250929050565b6001600160a01b0391909116815260200190565b634e487b7160e01b600052604160045260246000fd5b600082601f83011261189257600080fd5b81356001600160401b03808211156118ac576118ac61186b565b604051601f8301601f19908116603f011681019082821181831017156118d4576118d461186b565b816040528381528660208588010111156118ed57600080fd5b836020870160208301376000602085830101528094505050505092915050565b6000806040838503121561192057600080fd5b82356001600160401b038082111561193757600080fd5b61194386838701611881565b9350602085013591508082111561195957600080fd5b5061196685828601611881565b9150509250929050565b6000806040838503121561198357600080fd5b61198c836115d0565b915061184e602084016115d0565b600181811c908216806119ae57607f821691505b6020821081036119ce57634e487b7160e01b600052602260045260246000fd5b50919050565b6001600160401b0391909116815260200190565b6d29a7a62b212a21afa6a4a72a22a960911b8152600e0190565b6020808252601f908201527f536f6c764254433a206275726e2076616c75652063616e6e6f74206265203000604082015260600190565b7229a7a62b212a21afa827a7a62fa12aa92722a960691b815260130190565b634e487b7160e01b600052601160045260246000fd5b818103818111156104a3576104a3611a58565b634e487b7160e01b600052603260045260246000fd5b634e487b7160e01b600052603160045260246000fd5b600060018201611abf57611abf611a58565b5060010190565b6001600160a01b039390931683526020830191909152604082015260600190565b808201808211156104a3576104a3611a58565b601f82111561079557600081815260208120601f850160051c81016020861015611b215750805b601f850160051c820191505b81811015611b4057828155600101611b2d565b505050505050565b81516001600160401b03811115611b6157611b6161186b565b611b7581611b6f845461199a565b84611afa565b602080601f831160018114611baa5760008415611b925750858301515b600019600386901b1c1916600185901b178555611b40565b600085815260208120601f198616915b82811015611bd957888601518255948401946001909101908401611bba565b5085821015611bf75787850151600019600388901b60f8161c191681555b5050505050600190811b0190555056fec7f505b2f371ae2175ee4913f4499e1f2633a7b5936321eed1cdaeb6115181d2a2646970667358221220b11a0dd7f72ef1334df6f515153b125f69b999d2ec1ef6958ad7bb8d0633e3e264736f6c63430008140033",
  "devdoc": {
    "errors": {
      "AccessControlBadConfirmation()": [
        {
          "details": "The caller of a function is not the expected one. NOTE: Don't confuse with {AccessControlUnauthorizedAccount}."
        }
      ],
      "AccessControlUnauthorizedAccount(address,bytes32)": [
        {
          "details": "The `account` is missing a role."
        }
      ],
      "ERC20InsufficientAllowance(address,uint256,uint256)": [
        {
          "details": "Indicates a failure with the `spender`s `allowance`. Used in transfers.",
          "params": {
            "allowance": "Amount of tokens a `spender` is allowed to operate with.",
            "needed": "Minimum amount required to perform a transfer.",
            "spender": "Address that may be allowed to operate on tokens without being their owner."
          }
        }
      ],
      "ERC20InsufficientBalance(address,uint256,uint256)": [
        {
          "details": "Indicates an error related to the current `balance` of a `sender`. Used in transfers.",
          "params": {
            "balance": "Current balance for the interacting account.",
            "needed": "Minimum amount required to perform a transfer.",
            "sender": "Address whose tokens are being transferred."
          }
        }
      ],
      "ERC20InvalidApprover(address)": [
        {
          "details": "Indicates a failure with the `approver` of a token to be approved. Used in approvals.",
          "params": {
            "approver": "Address initiating an approval operation."
          }
        }
      ],
      "ERC20InvalidReceiver(address)": [
        {
          "details": "Indicates a failure with the token `receiver`. Used in transfers.",
          "params": {
            "receiver": "Address to which tokens are being transferred."
          }
        }
      ],
      "ERC20InvalidSender(address)": [
        {
          "details": "Indicates a failure with the token `sender`. Used in transfers.",
          "params": {
            "sender": "Address whose tokens are being transferred."
          }
        }
      ],
      "ERC20InvalidSpender(address)": [
        {
          "details": "Indicates a failure with the `spender` to be approved. Used in approvals.",
          "params": {
            "spender": "Address that may be allowed to operate on tokens without being their owner."
          }
        }
      ],
      "InvalidInitialization()": [
        {
          "details": "The contract is already initialized."
        }
      ],
      "NotInitializing()": [
        {
          "details": "The contract is not initializing."
        }
      ],
      "OwnableInvalidOwner(address)": [
        {
          "details": "The owner is not a valid owner account. (eg. `address(0)`)"
        }
      ],
      "OwnableUnauthorizedAccount(address)": [
        {
          "details": "The caller account is not authorized to perform an operation."
        }
      ],
      "ReentrancyGuardReentrantCall()": [
        {
          "details": "Unauthorized reentrant call."
        }
      ]
    },
    "events": {
      "Approval(address,address,uint256)": {
        "details": "Emitted when the allowance of a `spender` for an `owner` is set by a call to {approve}. `value` is the new allowance."
      },
      "Initialized(uint64)": {
        "details": "Triggered when the contract has been initialized or reinitialized."
      },
      "RoleAdminChanged(bytes32,bytes32,bytes32)": {
        "details": "Emitted when `newAdminRole` is set as ``role``'s admin role, replacing `previousAdminRole` `DEFAULT_ADMIN_ROLE` is the starting admin for all roles, despite {RoleAdminChanged} not being emitted signaling this."
      },
      "RoleGranted(bytes32,address,address)": {
        "details": "Emitted when `account` is granted `role`. `sender` is the account that originated the contract call, an admin role bearer except when using {AccessControl-_setupRole}."
      },
      "RoleRevoked(bytes32,address,address)": {
        "details": "Emitted when `account` is revoked `role`. `sender` is the account that originated the contract call:   - if using `revokeRole`, it is the admin role bearer   - if using `renounceRole`, it is the role bearer (i.e. `account`)"
      },
      "Transfer(address,address,uint256)": {
        "details": "Emitted when `value` tokens are moved from one account (`from`) to another (`to`). Note that `value` may be zero."
      }
    },
    "kind": "dev",
    "methods": {
      "acceptOwnership()": {
        "details": "The new owner accepts the ownership transfer."
      },
      "allowance(address,address)": {
        "details": "See {IERC20-allowance}."
      },
      "approve(address,uint256)": {
        "details": "See {IERC20-approve}. NOTE: If `value` is the maximum `uint256`, the allowance is not updated on `transferFrom`. This is semantically equivalent to an infinite approval. Requirements: - `spender` cannot be the zero address."
      },
      "balanceOf(address)": {
        "details": "See {IERC20-balanceOf}."
      },
      "constructor": {
        "custom:oz-upgrades-unsafe-allow": "constructor"
      },
      "decimals()": {
        "details": "Returns the number of decimals used to get its user representation. For example, if `decimals` equals `2`, a balance of `505` tokens should be displayed to a user as `5.05` (`505 / 10 ** 2`). Tokens usually opt for a value of 18, imitating the relationship between Ether and Wei. This is the default value returned by this function, unless it's overridden. NOTE: This information is only used for _display_ purposes: it in no way affects any of the arithmetic of the contract, including {IERC20-balanceOf} and {IERC20-transfer}."
      },
      "getRoleAdmin(bytes32)": {
        "details": "Returns the admin role that controls `role`. See {grantRole} and {revokeRole}. To change a role's admin, use {_setRoleAdmin}."
      },
      "grantRole(bytes32,address)": {
        "details": "Grants `role` to `account`. If `account` had not been already granted `role`, emits a {RoleGranted} event. Requirements: - the caller must have ``role``'s admin role. May emit a {RoleGranted} event."
      },
      "hasRole(bytes32,address)": {
        "details": "Returns `true` if `account` has been granted `role`."
      },
      "name()": {
        "details": "Returns the name of the token."
      },
      "owner()": {
        "details": "Returns the address of the current owner."
      },
      "pendingOwner()": {
        "details": "Returns the address of the pending owner."
      },
      "renounceOwnership()": {
        "details": "Leaves the contract without owner. It will not be possible to call `onlyOwner` functions. Can only be called by the current owner. NOTE: Renouncing ownership will leave the contract without an owner, thereby disabling any functionality that is only available to the owner."
      },
      "renounceRole(bytes32,address)": {
        "details": "Revokes `role` from the calling account. Roles are often managed via {grantRole} and {revokeRole}: this function's purpose is to provide a mechanism for accounts to lose their privileges if they are compromised (such as when a trusted device is misplaced). If the calling account had been revoked `role`, emits a {RoleRevoked} event. Requirements: - the caller must be `callerConfirmation`. May emit a {RoleRevoked} event."
      },
      "revokeRole(bytes32,address)": {
        "details": "Revokes `role` from `account`. If `account` had been granted `role`, emits a {RoleRevoked} event. Requirements: - the caller must have ``role``'s admin role. May emit a {RoleRevoked} event."
      },
      "symbol()": {
        "details": "Returns the symbol of the token, usually a shorter version of the name."
      },
      "totalSupply()": {
        "details": "See {IERC20-totalSupply}."
      },
      "transfer(address,uint256)": {
        "details": "See {IERC20-transfer}. Requirements: - `to` cannot be the zero address. - the caller must have a balance of at least `value`."
      },
      "transferFrom(address,address,uint256)": {
        "details": "See {IERC20-transferFrom}. Emits an {Approval} event indicating the updated allowance. This is not required by the EIP. See the note at the beginning of {ERC20}. NOTE: Does not update the allowance if the current allowance is the maximum `uint256`. Requirements: - `from` and `to` cannot be the zero address. - `from` must have a balance of at least `value`. - the caller must have allowance for ``from``'s tokens of at least `value`."
      },
      "transferOwnership(address)": {
        "details": "Starts the ownership transfer of the contract to a new account. Replaces the pending transfer if there is one. Can only be called by the current owner."
      }
    },
    "version": 1
  },
  "userdoc": {
    "kind": "user",
    "methods": {},
    "version": 1
  },
  "storageLayout": {
    "storage": [
      {
        "astId": 2305,
        "contract": "contracts/SolvBTC.sol:SolvBTC",
        "label": "wrappedSftAddress",
        "offset": 0,
        "slot": "0",
        "type": "t_address"
      },
      {
        "astId": 2307,
        "contract": "contracts/SolvBTC.sol:SolvBTC",
        "label": "wrappedSftSlot",
        "offset": 0,
        "slot": "1",
        "type": "t_uint256"
      },
      {
        "astId": 2309,
        "contract": "contracts/SolvBTC.sol:SolvBTC",
        "label": "navOracle",
        "offset": 0,
        "slot": "2",
        "type": "t_address"
      },
      {
        "astId": 2311,
        "contract": "contracts/SolvBTC.sol:SolvBTC",
        "label": "holdingValueSftId",
        "offset": 0,
        "slot": "3",
        "type": "t_uint256"
      },
      {
        "astId": 2314,
        "contract": "contracts/SolvBTC.sol:SolvBTC",
        "label": "_holdingEmptySftIds",
        "offset": 0,
        "slot": "4",
        "type": "t_array(t_uint256)dyn_storage"
      },
      {
        "astId": 2718,
        "contract": "contracts/SolvBTC.sol:SolvBTC",
        "label": "__gap",
        "offset": 0,
        "slot": "5",
        "type": "t_array(t_uint256)45_storage"
      }
    ],
    "types": {
      "t_address": {
        "encoding": "inplace",
        "label": "address",
        "numberOfBytes": "20"
      },
      "t_array(t_uint256)45_storage": {
        "base": "t_uint256",
        "encoding": "inplace",
        "label": "uint256[45]",
        "numberOfBytes": "1440"
      },
      "t_array(t_uint256)dyn_storage": {
        "base": "t_uint256",
        "encoding": "dynamic_array",
        "label": "uint256[]",
        "numberOfBytes": "32"
      },
      "t_uint256": {
        "encoding": "inplace",
        "label": "uint256",
        "numberOfBytes": "32"
      }
    }
  }
}