{
  "address": "0x79a5d903978AA91E7f7EfB87936f84ee2C5C7e16",
  "abi": [
    {
      "inputs": [],
      "stateMutability": "nonpayable",
      "type": "constructor"
    },
    {
      "inputs": [],
      "name": "EnforcedPause",
      "type": "error"
    },
    {
      "inputs": [],
      "name": "ExpectedPause",
      "type": "error"
    },
    {
      "inputs": [],
      "name": "InvalidInitialization",
      "type": "error"
    },
    {
      "inputs": [],
      "name": "NotInitializing",
      "type": "error"
    },
    {
      "inputs": [],
      "name": "ReentrancyGuardReentrantCall",
      "type": "error"
    },
    {
      "anonymous": false,
      "inputs": [
        {
          "indexed": false,
          "internalType": "uint64",
          "name": "version",
          "type": "uint64"
        }
      ],
      "name": "Initialized",
      "type": "event"
    },
    {
      "anonymous": false,
      "inputs": [
        {
          "indexed": false,
          "internalType": "address",
          "name": "oldGovernor",
          "type": "address"
        },
        {
          "indexed": false,
          "internalType": "address",
          "name": "newGovernor",
          "type": "address"
        }
      ],
      "name": "NewGovernor",
      "type": "event"
    },
    {
      "anonymous": false,
      "inputs": [
        {
          "indexed": false,
          "internalType": "address",
          "name": "oldPauseAdmin",
          "type": "address"
        },
        {
          "indexed": false,
          "internalType": "address",
          "name": "newPauseAdmin",
          "type": "address"
        }
      ],
      "name": "NewPauseAdmin",
      "type": "event"
    },
    {
      "anonymous": false,
      "inputs": [
        {
          "indexed": false,
          "internalType": "address",
          "name": "oldPendingGovernor",
          "type": "address"
        },
        {
          "indexed": false,
          "internalType": "address",
          "name": "newPendingGovernor",
          "type": "address"
        }
      ],
      "name": "NewPendingGovernor",
      "type": "event"
    },
    {
      "anonymous": false,
      "inputs": [
        {
          "indexed": false,
          "internalType": "address",
          "name": "oldPendingPauseAdmin",
          "type": "address"
        },
        {
          "indexed": false,
          "internalType": "address",
          "name": "newPendingPauseAdmin",
          "type": "address"
        }
      ],
      "name": "NewPendingPauseAdmin",
      "type": "event"
    },
    {
      "anonymous": false,
      "inputs": [
        {
          "indexed": false,
          "internalType": "address",
          "name": "account",
          "type": "address"
        }
      ],
      "name": "Paused",
      "type": "event"
    },
    {
      "anonymous": false,
      "inputs": [
        {
          "indexed": false,
          "internalType": "address",
          "name": "currency",
          "type": "address"
        }
      ],
      "name": "SetCurrency",
      "type": "event"
    },
    {
      "anonymous": false,
      "inputs": [
        {
          "indexed": false,
          "internalType": "address",
          "name": "oldCurrencyVault",
          "type": "address"
        },
        {
          "indexed": false,
          "internalType": "address",
          "name": "newCurrencyVault",
          "type": "address"
        }
      ],
      "name": "SetCurrencyVault",
      "type": "event"
    },
    {
      "anonymous": false,
      "inputs": [
        {
          "indexed": false,
          "internalType": "uint64",
          "name": "oldFeeRate",
          "type": "uint64"
        },
        {
          "indexed": false,
          "internalType": "uint64",
          "name": "newFeeRate",
          "type": "uint64"
        }
      ],
      "name": "SetFeeRate",
      "type": "event"
    },
    {
      "anonymous": false,
      "inputs": [
        {
          "indexed": false,
          "internalType": "address",
          "name": "oldFeeRecipient",
          "type": "address"
        },
        {
          "indexed": false,
          "internalType": "address",
          "name": "newFeeRecipient",
          "type": "address"
        }
      ],
      "name": "SetFeeRecipient",
      "type": "event"
    },
    {
      "anonymous": false,
      "inputs": [
        {
          "indexed": false,
          "internalType": "uint256",
          "name": "oldMaxSingleSwapAmount",
          "type": "uint256"
        },
        {
          "indexed": false,
          "internalType": "uint256",
          "name": "newMaxSingleSwapAmount",
          "type": "uint256"
        }
      ],
      "name": "SetMaxSingleSwapAmount",
      "type": "event"
    },
    {
      "anonymous": false,
      "inputs": [
        {
          "indexed": false,
          "internalType": "uint256",
          "name": "oldMaxWindowSwapAmount",
          "type": "uint256"
        },
        {
          "indexed": false,
          "internalType": "uint256",
          "name": "newMaxWindowSwapAmount",
          "type": "uint256"
        },
        {
          "indexed": false,
          "internalType": "uint256",
          "name": "oldWindow",
          "type": "uint256"
        },
        {
          "indexed": false,
          "internalType": "uint256",
          "name": "newWindow",
          "type": "uint256"
        }
      ],
      "name": "SetMaxWindowSwapAmount",
      "type": "event"
    },
    {
      "anonymous": false,
      "inputs": [
        {
          "indexed": false,
          "internalType": "address",
          "name": "solvBTC",
          "type": "address"
        }
      ],
      "name": "SetSolvBTC",
      "type": "event"
    },
    {
      "anonymous": false,
      "inputs": [
        {
          "indexed": true,
          "internalType": "address",
          "name": "account",
          "type": "address"
        },
        {
          "indexed": false,
          "internalType": "uint64",
          "name": "expiration",
          "type": "uint64"
        },
        {
          "indexed": false,
          "internalType": "bool",
          "name": "isRateLimited",
          "type": "bool"
        }
      ],
      "name": "SetWhitelistConfig",
      "type": "event"
    },
    {
      "anonymous": false,
      "inputs": [
        {
          "indexed": false,
          "internalType": "bool",
          "name": "isWhitelistEnabled",
          "type": "bool"
        }
      ],
      "name": "SetWhitelistEnabled",
      "type": "event"
    },
    {
      "anonymous": false,
      "inputs": [
        {
          "indexed": true,
          "internalType": "address",
          "name": "caller",
          "type": "address"
        },
        {
          "indexed": true,
          "internalType": "address",
          "name": "to",
          "type": "address"
        },
        {
          "indexed": false,
          "internalType": "address",
          "name": "solvBTC",
          "type": "address"
        },
        {
          "indexed": false,
          "internalType": "address",
          "name": "currency",
          "type": "address"
        },
        {
          "indexed": false,
          "internalType": "uint256",
          "name": "solvBTCAmount",
          "type": "uint256"
        },
        {
          "indexed": false,
          "internalType": "uint256",
          "name": "currencyAmount",
          "type": "uint256"
        },
        {
          "indexed": false,
          "internalType": "uint256",
          "name": "feeAmount",
          "type": "uint256"
        }
      ],
      "name": "SolvBTCSwapped",
      "type": "event"
    },
    {
      "anonymous": false,
      "inputs": [
        {
          "indexed": false,
          "internalType": "address",
          "name": "account",
          "type": "address"
        }
      ],
      "name": "Unpaused",
      "type": "event"
    },
    {
      "inputs": [],
      "name": "DEFAULT_WINDOW",
      "outputs": [
        {
          "internalType": "uint256",
          "name": "",
          "type": "uint256"
        }
      ],
      "stateMutability": "view",
      "type": "function"
    },
    {
      "inputs": [],
      "name": "FEE_RATE_BASE",
      "outputs": [
        {
          "internalType": "uint64",
          "name": "",
          "type": "uint64"
        }
      ],
      "stateMutability": "view",
      "type": "function"
    },
    {
      "inputs": [],
      "name": "MAX_FEE_RATE",
      "outputs": [
        {
          "internalType": "uint64",
          "name": "",
          "type": "uint64"
        }
      ],
      "stateMutability": "view",
      "type": "function"
    },
    {
      "inputs": [],
      "name": "acceptGovernance",
      "outputs": [],
      "stateMutability": "nonpayable",
      "type": "function"
    },
    {
      "inputs": [],
      "name": "acceptPauseAdmin",
      "outputs": [],
      "stateMutability": "nonpayable",
      "type": "function"
    },
    {
      "inputs": [],
      "name": "currency",
      "outputs": [
        {
          "internalType": "address",
          "name": "",
          "type": "address"
        }
      ],
      "stateMutability": "view",
      "type": "function"
    },
    {
      "inputs": [],
      "name": "currencyVault",
      "outputs": [
        {
          "internalType": "address",
          "name": "",
          "type": "address"
        }
      ],
      "stateMutability": "view",
      "type": "function"
    },
    {
      "inputs": [],
      "name": "feeRate",
      "outputs": [
        {
          "internalType": "uint64",
          "name": "",
          "type": "uint64"
        }
      ],
      "stateMutability": "view",
      "type": "function"
    },
    {
      "inputs": [],
      "name": "feeRecipient",
      "outputs": [
        {
          "internalType": "address",
          "name": "",
          "type": "address"
        }
      ],
      "stateMutability": "view",
      "type": "function"
    },
    {
      "inputs": [],
      "name": "governor",
      "outputs": [
        {
          "internalType": "address",
          "name": "",
          "type": "address"
        }
      ],
      "stateMutability": "view",
      "type": "function"
    },
    {
      "inputs": [
        {
          "internalType": "address",
          "name": "governor_",
          "type": "address"
        },
        {
          "internalType": "address",
          "name": "pauseAdmin_",
          "type": "address"
        },
        {
          "internalType": "address",
          "name": "solvBTC_",
          "type": "address"
        },
        {
          "internalType": "address",
          "name": "currency_",
          "type": "address"
        },
        {
          "internalType": "address",
          "name": "currencyVault_",
          "type": "address"
        },
        {
          "internalType": "address",
          "name": "feeRecipient_",
          "type": "address"
        },
        {
          "internalType": "uint64",
          "name": "feeRate_",
          "type": "uint64"
        },
        {
          "internalType": "bool",
          "name": "isWhitelistEnabled_",
          "type": "bool"
        }
      ],
      "name": "initialize",
      "outputs": [],
      "stateMutability": "nonpayable",
      "type": "function"
    },
    {
      "inputs": [],
      "name": "isWhitelistEnabled",
      "outputs": [
        {
          "internalType": "bool",
          "name": "",
          "type": "bool"
        }
      ],
      "stateMutability": "view",
      "type": "function"
    },
    {
      "inputs": [],
      "name": "pause",
      "outputs": [],
      "stateMutability": "nonpayable",
      "type": "function"
    },
    {
      "inputs": [],
      "name": "pauseAdmin",
      "outputs": [
        {
          "internalType": "address",
          "name": "",
          "type": "address"
        }
      ],
      "stateMutability": "view",
      "type": "function"
    },
    {
      "inputs": [],
      "name": "paused",
      "outputs": [
        {
          "internalType": "bool",
          "name": "",
          "type": "bool"
        }
      ],
      "stateMutability": "view",
      "type": "function"
    },
    {
      "inputs": [],
      "name": "pendingGovernor",
      "outputs": [
        {
          "internalType": "address",
          "name": "",
          "type": "address"
        }
      ],
      "stateMutability": "view",
      "type": "function"
    },
    {
      "inputs": [],
      "name": "pendingPauseAdmin",
      "outputs": [
        {
          "internalType": "address",
          "name": "",
          "type": "address"
        }
      ],
      "stateMutability": "view",
      "type": "function"
    },
    {
      "inputs": [],
      "name": "rateLimit",
      "outputs": [
        {
          "components": [
            {
              "internalType": "uint256",
              "name": "amountSwapped",
              "type": "uint256"
            },
            {
              "internalType": "uint256",
              "name": "lastSwappedAt",
              "type": "uint256"
            },
            {
              "internalType": "uint256",
              "name": "maxSingleSwapAmount",
              "type": "uint256"
            },
            {
              "internalType": "uint256",
              "name": "maxWindowSwapAmount",
              "type": "uint256"
            },
            {
              "internalType": "uint256",
              "name": "window",
              "type": "uint256"
            }
          ],
          "internalType": "struct SolvBTCWhitelistedSwap.RateLimit",
          "name": "",
          "type": "tuple"
        }
      ],
      "stateMutability": "view",
      "type": "function"
    },
    {
      "inputs": [],
      "name": "remainingSwapAmount",
      "outputs": [
        {
          "internalType": "uint256",
          "name": "",
          "type": "uint256"
        }
      ],
      "stateMutability": "view",
      "type": "function"
    },
    {
      "inputs": [
        {
          "internalType": "uint64",
          "name": "feeRate_",
          "type": "uint64"
        }
      ],
      "name": "setFeeRate",
      "outputs": [],
      "stateMutability": "nonpayable",
      "type": "function"
    },
    {
      "inputs": [
        {
          "internalType": "address",
          "name": "feeRecipient_",
          "type": "address"
        }
      ],
      "name": "setFeeRecipient",
      "outputs": [],
      "stateMutability": "nonpayable",
      "type": "function"
    },
    {
      "inputs": [
        {
          "internalType": "uint256",
          "name": "maxSingleSwapAmount_",
          "type": "uint256"
        }
      ],
      "name": "setMaxSingleSwapAmount",
      "outputs": [],
      "stateMutability": "nonpayable",
      "type": "function"
    },
    {
      "inputs": [
        {
          "internalType": "uint256",
          "name": "maxWindowSwapAmount_",
          "type": "uint256"
        }
      ],
      "name": "setMaxWindowSwapAmount",
      "outputs": [],
      "stateMutability": "nonpayable",
      "type": "function"
    },
    {
      "inputs": [
        {
          "internalType": "address",
          "name": "account_",
          "type": "address"
        },
        {
          "internalType": "uint64",
          "name": "expiration_",
          "type": "uint64"
        },
        {
          "internalType": "bool",
          "name": "isRateLimited_",
          "type": "bool"
        }
      ],
      "name": "setWhitelistConfig",
      "outputs": [],
      "stateMutability": "nonpayable",
      "type": "function"
    },
    {
      "inputs": [
        {
          "internalType": "bool",
          "name": "isWhitelistEnabled_",
          "type": "bool"
        }
      ],
      "name": "setWhitelistEnabled",
      "outputs": [],
      "stateMutability": "nonpayable",
      "type": "function"
    },
    {
      "inputs": [],
      "name": "solvBTC",
      "outputs": [
        {
          "internalType": "address",
          "name": "",
          "type": "address"
        }
      ],
      "stateMutability": "view",
      "type": "function"
    },
    {
      "inputs": [
        {
          "internalType": "address",
          "name": "to_",
          "type": "address"
        },
        {
          "internalType": "uint256",
          "name": "solvbtcAmount_",
          "type": "uint256"
        },
        {
          "internalType": "uint64",
          "name": "feeRate_",
          "type": "uint64"
        }
      ],
      "name": "swap",
      "outputs": [
        {
          "internalType": "uint256",
          "name": "currencyAmount_",
          "type": "uint256"
        }
      ],
      "stateMutability": "nonpayable",
      "type": "function"
    },
    {
      "inputs": [
        {
          "internalType": "address",
          "name": "newPendingGovernor_",
          "type": "address"
        }
      ],
      "name": "transferGovernance",
      "outputs": [],
      "stateMutability": "nonpayable",
      "type": "function"
    },
    {
      "inputs": [
        {
          "internalType": "address",
          "name": "newPauseAdmin_",
          "type": "address"
        }
      ],
      "name": "transferPauseAdmin",
      "outputs": [],
      "stateMutability": "nonpayable",
      "type": "function"
    },
    {
      "inputs": [],
      "name": "unpause",
      "outputs": [],
      "stateMutability": "nonpayable",
      "type": "function"
    },
    {
      "inputs": [
        {
          "internalType": "address",
          "name": "account_",
          "type": "address"
        }
      ],
      "name": "whitelistConfig",
      "outputs": [
        {
          "internalType": "uint64",
          "name": "expiration_",
          "type": "uint64"
        },
        {
          "internalType": "bool",
          "name": "isRateLimited_",
          "type": "bool"
        }
      ],
      "stateMutability": "view",
      "type": "function"
    }
  ],
  "transactionHash": "0xb3639f0ddce574e7b271095754ecf679cd05e571b30b9d4f67551821aaac6511",
  "args": [],
  "numDeployments": 1,
  "solcInputHash": "e0bf2f13311ee6fe0f970e82fa30323c",
  "bytecode": "0x60806040523480156200001157600080fd5b506200001c62000022565b620000d6565b7ff0c57e16840df040f15088dc2f81fe391c3923bec73e23a9662efc9c229c6a00805468010000000000000000900460ff1615620000735760405163f92ee8a960e01b815260040160405180910390fd5b80546001600160401b0390811614620000d35780546001600160401b0319166001600160401b0390811782556040519081527fc7f505b2f371ae2175ee4913f4499e1f2633a7b5936321eed1cdaeb6115181d29060200160405180910390a15b50565b61282b80620000e66000396000f3fe608060405234801561001057600080fd5b50600436106101755760003560e01c806301d774ba1461017a578063052d9e7e146101985780630c340a24146101ad5780631404297c146101c0578063184d69ab146101c8578063191adafc146101e05780631cb15b3214610201578063238efcbc1461020957806324a23526146102115780632f11d653146102245780633f4ba83a1461022c57806341fac9101461023457806343a0c39f14610247578063459770f6146102515780634690484014610264578063533528481461026c5780635c975abb1461027457806361c3efb11461027c57806361e08e721461029257806370b57bdd146102dc5780638456cb59146102ef57806392f6576e146102f7578063978bbdb9146102ff578063b9937ccb14610307578063d2b7af4c1461030f578063d38bfff414610330578063dad051ab14610343578063e3056a3414610356578063e5a6b10f14610369578063e74b981b14610371578063f133aab614610384575b600080fd5b610182610397565b60405161018f91906122c1565b60405180910390f35b6101ab6101a63660046122e3565b6103b5565b005b600054610182906001600160a01b031681565b6101826103f4565b6101d0610412565b604051901515815260200161018f565b6101f36101ee366004612333565b610431565b60405190815260200161018f565b6101f3610c11565b6101ab610c7a565b6101ab61021f36600461236f565b610d04565b610182610dad565b6101ab610dc8565b6101ab61024236600461238a565b610e0e565b6101f36201518081565b6101ab61025f3660046123a3565b610e41565b610182610e74565b6101ab610e92565b6101d0610f45565b61028561271081565b60405161018f91906123be565b61029a610f5a565b60405161018f9190600060a082019050825182526020830151602083015260408301516040830152606083015160608301526080830151608083015292915050565b6101ab6102ea3660046123d2565b610fd8565b6101ab611266565b610285606481565b6102856112ac565b6101826112d1565b61032261031d36600461236f565b6112dc565b60405161018f92919061246d565b6101ab61033e36600461236f565b61133b565b6101ab61035136600461238a565b6113ce565b600154610182906001600160a01b031681565b610182611405565b6101ab61037f36600461236f565b611410565b6101ab610392366004612488565b611443565b6000806103a261147d565b600201546001600160a01b031692915050565b6000546001600160a01b031633146103e85760405162461bcd60e51b81526004016103df906124cf565b60405180910390fd5b6103f1816114a1565b50565b6000806103ff611509565b600101546001600160a01b031692915050565b60008061041d61147d565b60030154600160e01b900460ff1692915050565b600061043b61152d565b610443611563565b600061044d61147d565b90506001600160a01b0385166104bb5760405162461bcd60e51b815260206004820152602d60248201527f536f6c7642544357686974656c6973746564537761703a20726563697069656e60448201526c0742063616e6e6f74206265203609c1b60648201526084016103df565b6000841161051e5760405162461bcd60e51b815260206004820152602a60248201527f536f6c7642544357686974656c6973746564537761703a20616d6f756e7420636044820152690616e6e6f7420626520360b41b60648201526084016103df565b6001600160401b038316156105a9576105356112ac565b6001600160401b0316836001600160401b0316146105a95760405162461bcd60e51b815260206004820152602b60248201527f536f6c7642544357686974656c6973746564537761703a20756e65787065637460448201526a656420666565207261746560a81b60648201526084016103df565b6000806105b5336112dc565b60038501549193509150600160e01b900460ff161561063a5742826001600160401b03161161063a5760405162461bcd60e51b815260206004820152602b60248201527f536f6c7642544357686974656c6973746564537761703a2063616c6c6572207560448201526a1b985d5d1a1bdc9a5e995960aa1b60648201526084016103df565b6003830154600160e01b900460ff1615806106525750805b1561079b576040805160a081018252600585015481526006850154602082015260078501549181018290526008850154606082015260098501546080820152908711156106ef5760405162461bcd60e51b815260206004820152603760248201526000805160206127768339815191526044820152761b19481cddd85c08185b5bdd5b9d08195e18d959591959604a1b60648201526084016103df565b60008061070e836000015184602001518560600151866080015161158b565b91509150808911156107825760405162461bcd60e51b815260206004820152603760248201527f536f6c7642544357686974656c6973746564537761703a206d61782077696e646044820152761bddc81cddd85c08185b5bdd5b9d08195e18d959591959604a1b60648201526084016103df565b61078c898361250c565b60058701555050426006850155505b50508054600182015460028301546001600160a01b039283169291821691166107c5833389611606565b604051632770a7eb60e21b81526001600160a01b03841690639dc29fac906107f39030908b90600401612525565b600060405180830381600087803b15801561080d57600080fd5b505af1158015610821573d6000803e3d6000fd5b505050506000836001600160a01b031663313ce5676040518163ffffffff1660e01b8152600401602060405180830381865afa158015610865573d6000803e3d6000fd5b505050506040513d601f19601f82011682018060405250810190610889919061253e565b61089490600a612645565b836001600160a01b031663313ce5676040518163ffffffff1660e01b8152600401602060405180830381865afa1580156108d2573d6000803e3d6000fd5b505050506040513d601f19601f820116820180604052508101906108f6919061253e565b61090190600a612645565b61090b908a612654565b610915919061266b565b9050600081116109765760405162461bcd60e51b815260206004820152602660248201527f536f6c7642544357686974656c6973746564537761703a20616d6f756e7420746044820152656f6f206c6f7760d01b60648201526084016103df565b6040516370a0823160e01b81526001600160a01b038416906370a08231906109a29085906004016122c1565b602060405180830381865afa1580156109bf573d6000803e3d6000fd5b505050506040513d601f19601f820116820180604052508101906109e3919061268d565b811115610a4d5760405162461bcd60e51b815260206004820152603260248201527f536f6c7642544357686974656c6973746564537761703a207661756c742062616044820152711b185b98d9481a5b9cdd59999a58da595b9d60721b60648201526084016103df565b604051636eb1769f60e11b81526001600160a01b0384169063dd62ed3e90610a7b90859030906004016126a6565b602060405180830381865afa158015610a98573d6000803e3d6000fd5b505050506040513d601f19601f82011682018060405250810190610abc919061268d565b811115610b285760405162461bcd60e51b815260206004820152603460248201527f536f6c7642544357686974656c6973746564537761703a207661756c7420616c6044820152731b1bddd85b98d9481a5b9cdd59999a58da595b9d60621b60648201526084016103df565b610b33838383611606565b600385015460009061271090610b5990600160a01b90046001600160401b031684612654565b610b63919061266b565b90508015610b85576003860154610b859085906001600160a01b0316836117fa565b610b8f81836126c0565b9650610b9c848b896117fa565b604080516001600160a01b03878116825286811660208301529181018b90526060810189905260808101839052908b169033907fa4778cb52c180738b95fa30d40494e960316433b6e9c040c1a6401dd2cb35e329060a00160405180910390a3505050505050610c0a6119f5565b9392505050565b600080610c1c61147d565b6040805160a08101825260058301548082526006840154602083018190526007850154938301939093526008840154606083018190526009850154608084018190529495509193600093610c7193909161158b565b95945050505050565b6001546001600160a01b03163314610ca45760405162461bcd60e51b81526004016103df906124cf565b60005460015460405160008051602061279683398151915292610cd5926001600160a01b03918216929116906126a6565b60405180910390a160018054600080546001600160a01b03199081166001600160a01b03841617909155169055565b6000610d0e611509565b80549091506001600160a01b03163314610d3a5760405162461bcd60e51b81526004016103df906126d3565b6000610d44611509565b6001810180546001600160a01b0319166001600160a01b038681169190911790915581546040519293507f2a7e67d559662b0121132367ec8556788eab147f796f098a39f195c432eb1c6692610da092919091169086906126a6565b60405180910390a1505050565b600080610db8611509565b546001600160a01b031692915050565b6000610dd2611509565b80549091506001600160a01b03163314610dfe5760405162461bcd60e51b81526004016103df906126d3565b610e06611a06565b6103f1611a2b565b6000546001600160a01b03163314610e385760405162461bcd60e51b81526004016103df906124cf565b6103f181611a82565b6000546001600160a01b03163314610e6b5760405162461bcd60e51b81526004016103df906124cf565b6103f181611b53565b600080610e7f61147d565b600301546001600160a01b031692915050565b336000610e9d611509565b60018101549091506001600160a01b03838116911614610ef85760405162461bcd60e51b81526020600482015260166024820152753737903832b73234b733903830bab9b29030b236b4b760511b60448201526064016103df565b80546001600160a01b038381166001600160a01b031980841691909117845560018401805490911690556040519116906000805160206127b683398151915290610da090839086906126a6565b600080610f50611c3a565b5460ff1692915050565b610f8c6040518060a0016040528060008152602001600081526020016000815260200160008152602001600081525090565b6000610f9661147d565b6040805160a081018252600583015481526006830154602082015260078301549181019190915260088201546060820152600990910154608082015292915050565b6000610fe2611c5e565b805490915060ff600160401b82041615906001600160401b03166000811580156110095750825b90506000826001600160401b031660011480156110255750303b155b905081158015611033575080155b156110515760405163f92ee8a960e01b815260040160405180910390fd5b84546001600160401b0319166001178555831561107a57845460ff60401b1916600160401b1785555b6001600160a01b038d1661108c57339c505b6001600160a01b038c1661109e57339b505b6110a6611c82565b6110af8d611c92565b6110b88c611ca3565b6110c18b611cb4565b6110ca8a611d7c565b6110d389611e37565b6110dc88611eff565b6110e587611b53565b6110ee866114a1565b6111728b6001600160a01b031663313ce5676040518163ffffffff1660e01b8152600401602060405180830381865afa15801561112f573d6000803e3d6000fd5b505050506040513d601f19601f82011682018060405250810190611153919061253e565b61115e90600a612645565b61116990600a612654565b62015180611fd8565b6111f3600a8c6001600160a01b031663313ce5676040518163ffffffff1660e01b8152600401602060405180830381865afa1580156111b5573d6000803e3d6000fd5b505050506040513d601f19601f820116820180604052508101906111d9919061253e565b6111e490600a612645565b6111ee919061266b565b611a82565b60006111fd61147d565b600060058201554260069091015550831561125757845460ff60401b191685556040517fc7f505b2f371ae2175ee4913f4499e1f2633a7b5936321eed1cdaeb6115181d29061124e906001906123be565b60405180910390a15b50505050505050505050505050565b6000611270611509565b80549091506001600160a01b0316331461129c5760405162461bcd60e51b81526004016103df906126d3565b6112a4611563565b6103f16120ef565b6000806112b761147d565b60030154600160a01b90046001600160401b031692915050565b600080610db861147d565b60008060006112e961147d565b6001600160a01b03949094166000908152600490940160209081526040948590208551808701909652546001600160401b038116808752600160401b90910460ff161515959091018590529492505050565b6000546001600160a01b031633146113655760405162461bcd60e51b81526004016103df906124cf565b6001546040517f7d767be5a57784412a13945bd5114db84487d2b007bfcdb2f449fc9ea35437f7916113a4916001600160a01b039091169084906126a6565b60405180910390a1600180546001600160a01b0319166001600160a01b0392909216919091179055565b6000546001600160a01b031633146113f85760405162461bcd60e51b81526004016103df906124cf565b6103f18162015180611fd8565b6000806103ff61147d565b6000546001600160a01b0316331461143a5760405162461bcd60e51b81526004016103df906124cf565b6103f181611eff565b6000546001600160a01b0316331461146d5760405162461bcd60e51b81526004016103df906124cf565b611478838383612136565b505050565b7ff127a3e3761fc1d4f9c7f3198495ede49d975bdd97f3723dbfa905f05267140090565b60006114ab61147d565b600381018054841515600160e01b0260ff60e01b199091161790556040519091507f9d1749bd4eb18cf13b7c30dd998926aaf378a23b0574aded3464483c126a53de906114fd90841515815260200190565b60405180910390a15050565b7f595cc456dec452004b428d6a4fd3fd10e1b183a5540fc2b1ff59ec1f8417920090565b60006115376121c5565b80549091506001190161155d57604051633ee5aeb560e01b815260040160405180910390fd5b60029055565b61156b610f45565b156115895760405163d93c066560e01b815260040160405180910390fd5b565b6000808061159986426126c0565b905060008085116115ab5760016115ad565b845b6115b78388612654565b6115c1919061266b565b9050808811156115da576115d581896126c0565b6115dd565b60005b9350838611156115f6576115f184876126c0565b6115f9565b60005b9250505094509492505050565b73eeeeeeeeeeeeeeeeeeeeeeeeeeeeeeeeeeeeeeed196001600160a01b038416016116c957326001600160a01b038316148061164a5750336001600160a01b038316145b6116885760405162461bcd60e51b815260206004820152600f60248201526e0e6cadcc8cae440dad2e6dac2e8c6d608b1b60448201526064016103df565b803410156114785760405162461bcd60e51b815260206004820152600e60248201526d0ecc2d8eaca40dad2e6dac2e8c6d60931b60448201526064016103df565b6000836001600160a01b03163b116116f35760405162461bcd60e51b81526004016103df906126fd565b604080516001600160a01b038481166024830152306044830152606480830185905283518084039091018152608490920183526020820180516001600160e01b03166323b872dd60e01b17905291516000928392908716916117559190612729565b6000604051808303816000865af19150503d8060008114611792576040519150601f19603f3d011682016040523d82523d6000602084013e611797565b606091505b50915091508180156117c15750805115806117c15750808060200190518101906117c19190612758565b6117f35760405162461bcd60e51b815260206004820152600360248201526229aa2360e91b60448201526064016103df565b5050505050565b73eeeeeeeeeeeeeeeeeeeeeeeeeeeeeeeeeeeeeeed196001600160a01b038416016118c857604080516000808252602082019092526001600160a01b0384169083906040516118499190612729565b60006040518083038185875af1925050503d8060008114611886576040519150601f19603f3d011682016040523d82523d6000602084013e61188b565b606091505b50509050806118c25760405162461bcd60e51b815260206004820152600360248201526253544560e81b60448201526064016103df565b50505050565b6000836001600160a01b03163b116118f25760405162461bcd60e51b81526004016103df906126fd565b600080846001600160a01b031663a9059cbb60e01b858560405160240161191a929190612525565b60408051601f198184030181529181526020820180516001600160e01b03166001600160e01b03199094169390931790925290516119589190612729565b6000604051808303816000865af19150503d8060008114611995576040519150601f19603f3d011682016040523d82523d6000602084013e61199a565b606091505b50915091508180156119c45750805115806119c45750808060200190518101906119c49190612758565b6117f35760405162461bcd60e51b815260206004820152600260248201526114d560f21b60448201526064016103df565b60006119ff6121c5565b6001905550565b611a0e610f45565b61158957604051638dfc202b60e01b815260040160405180910390fd5b611a33611a06565b6000611a3d611c3a565b805460ff1916815590507f5db9ee0a495bf2e6ff9c91a7834c1ba4fdd244a5e8aa4e537bd38aeae4b073aa335b604051611a7791906122c1565b60405180910390a150565b6000611a8c61147d565b6008810154909150821115611b135760405162461bcd60e51b8152602060048201526053602482015260008051602061277683398151915260448201527f6c65207377617020616d6f756e742063616e6e6f7420657863656564206d6178606482015272081dda5b991bddc81cddd85c08185b5bdd5b9d606a1b608482015260a4016103df565b6007810180549083905560408051828152602081018590527f16bf014dcba3d3c406603bb425aa052979dc426eaff33bb53b8f0d4c9d2fb2619101610da0565b60646001600160401b0382161115611bc45760405162461bcd60e51b815260206004820152602e60248201527f536f6c7642544357686974656c6973746564537761703a20666565207261746560448201526d08195e18d959591cc81b1a5b5a5d60921b60648201526084016103df565b6000611bce61147d565b6003810180546001600160401b03858116600160a01b818102600160a01b600160e01b0319851617909455604080519490930490911680845260208401919091529293507f93c0d17eabc6b186a15b21053f1b6c7ee7a614a1f452866dbf4c3bd9c7f168219101610da0565b7fcd5ed15c6e187e77e9aee88184c21f4f2182ab5827cb3b7e07fbedcd63f0330090565b7ff0c57e16840df040f15088dc2f81fe391c3923bec73e23a9662efc9c229c6a0090565b611c8a6121e9565b61158961220e565b611c9a6121e9565b6103f181612216565b611cab6121e9565b6103f181612257565b6001600160a01b038116611d265760405162461bcd60e51b815260206004820152603360248201527f536f6c7642544357686974656c6973746564537761703a20736f6c764254432060448201527263616e6e6f742062652030206164647265737360681b60648201526084016103df565b6000611d3061147d565b80546001600160a01b0319166001600160a01b0384161781556040519091507f73acce90fdecbf6dad9d23f0853972ef5e4bf77dec4758a1b86386ab43104d33906114fd9084906122c1565b6001600160a01b038116611ddd5760405162461bcd60e51b815260206004820152603460248201526000805160206127d68339815191526044820152732063616e6e6f742062652030206164647265737360601b60648201526084016103df565b6000611de761147d565b6001810180546001600160a01b0319166001600160a01b0385161790556040519091507fabafa9c1e6fed9b333f964bb84ed729c36b3152a843ae96a671ebc95742de6e6906114fd9084906122c1565b6001600160a01b038116611e9e5760405162461bcd60e51b815260206004820152603a60248201526000805160206127d6833981519152604482015279207661756c742063616e6e6f742062652030206164647265737360301b60648201526084016103df565b6000611ea861147d565b6002810180546001600160a01b038581166001600160a01b031983161790925560405192935016907f3379b1512d1a5389282189d5fa2c4f32ee66138d84d3b46dbb7291e2fa78629e90610da090839086906126a6565b6001600160a01b038116611f775760405162461bcd60e51b815260206004820152603960248201527f536f6c7642544357686974656c6973746564537761703a2066656520726563696044820152787069656e742063616e6e6f742062652030206164647265737360381b60648201526084016103df565b6000611f8161147d565b6003810180546001600160a01b038581166001600160a01b031983161790925560405192935016907fd9d6b85b6d670cd443496fc6d03390f739bbff47f96a8e33fb0cdd52ad26f5c290610da090839086906126a6565b6000811161203b5760405162461bcd60e51b815260206004820152602a60248201527f536f6c7642544357686974656c6973746564537761703a2077696e646f7720636044820152690616e6e6f7420626520360b41b60648201526084016103df565b600061204561147d565b90506000816005019050600061206d826000015483600101548460030154856004015461158b565b50905084811161207d578061207f565b845b825542600183015560048201805460038401805490889055918690556040805183815260208101899052908101829052606081018790529091907f776bcbdb86b9a5c7391c37d47fb84caac567272ac3bb634941e14f8d4251d8d69060800160405180910390a150505050505050565b6120f7611563565b6000612101611c3a565b805460ff1916600117815590507f62e78cea01bee320cd4e420270b5ea74000d11b0c9f74754ebdbfc544b05a258611a6a3390565b600061214061147d565b6001600160a01b0385166000818152600483016020526040908190208054861515600160401b026001600160481b03199091166001600160401b038916171781559051929350917f1209de128ffc894f47d68badd99aeec8af3bb59327224bda0fdb393533a1c77b906121b6908790879061246d565b60405180910390a25050505050565b7f9b779b17422d0df92223018b32b4d1fa46e071723d6817e2486d003becc55f0090565b6121f16122a7565b61158957604051631afcd79f60e31b815260040160405180910390fd5b6119f56121e9565b61221e6121e9565b600080546001600160a01b0319166001600160a01b03831617815560405160008051602061279683398151915291611a779184906126a6565b61225f6121e9565b80612268611509565b80546001600160a01b0319166001600160a01b03929092169190911790556040516000805160206127b683398151915290611a779060009084906126a6565b60006122b1611c5e565b54600160401b900460ff16919050565b6001600160a01b0391909116815260200190565b80151581146103f157600080fd5b6000602082840312156122f557600080fd5b8135610c0a816122d5565b80356001600160a01b038116811461231757600080fd5b919050565b80356001600160401b038116811461231757600080fd5b60008060006060848603121561234857600080fd5b61235184612300565b9250602084013591506123666040850161231c565b90509250925092565b60006020828403121561238157600080fd5b610c0a82612300565b60006020828403121561239c57600080fd5b5035919050565b6000602082840312156123b557600080fd5b610c0a8261231c565b6001600160401b0391909116815260200190565b600080600080600080600080610100898b0312156123ef57600080fd5b6123f889612300565b975061240660208a01612300565b965061241460408a01612300565b955061242260608a01612300565b945061243060808a01612300565b935061243e60a08a01612300565b925061244c60c08a0161231c565b915060e089013561245c816122d5565b809150509295985092959890939650565b6001600160401b039290921682521515602082015260400190565b60008060006060848603121561249d57600080fd5b6124a684612300565b92506124b46020850161231c565b915060408401356124c4816122d5565b809150509250925092565b6020808252600d908201526c37b7363c9033b7bb32b93737b960991b604082015260600190565b634e487b7160e01b600052601160045260246000fd5b8082018082111561251f5761251f6124f6565b92915050565b6001600160a01b03929092168252602082015260400190565b60006020828403121561255057600080fd5b815160ff81168114610c0a57600080fd5b600181815b8085111561259c578160001904821115612582576125826124f6565b8085161561258f57918102915b93841c9390800290612566565b509250929050565b6000826125b35750600161251f565b816125c05750600061251f565b81600181146125d657600281146125e0576125fc565b600191505061251f565b60ff8411156125f1576125f16124f6565b50506001821b61251f565b5060208310610133831016604e8410600b841016171561261f575081810a61251f565b6126298383612561565b806000190482111561263d5761263d6124f6565b029392505050565b6000610c0a60ff8416836125a4565b808202811582820484141761251f5761251f6124f6565b60008261268857634e487b7160e01b600052601260045260246000fd5b500490565b60006020828403121561269f57600080fd5b5051919050565b6001600160a01b0392831681529116602082015260400190565b8181038181111561251f5761251f6124f6565b60208082526010908201526f37b7363c903830bab9b29030b236b4b760811b604082015260600190565b602080825260129082015271696e76616c696420756e6465726c79696e6760701b604082015260600190565b6000825160005b8181101561274a5760208186018101518583015201612730565b506000920191825250919050565b60006020828403121561276a57600080fd5b8151610c0a816122d556fe536f6c7642544357686974656c6973746564537761703a206d61782073696e671ba669d4a78521f2ad26e8e0fcbcdd626a63f34d68f326bc232a3abe2a5d042a8b5d9de58aaca75fd5bd10243321ecbafa7f56532c817b4cafa7a4d5f6e6fd20536f6c7642544357686974656c6973746564537761703a2063757272656e6379a2646970667358221220e9a6bca503c4650ecddd1c6a9d507e55238b36770f888b3a9237b3b077559f9964736f6c63430008140033",
  "devdoc": {
    "details": "- Provides a single-transaction on-chain path for converting SolvBTC   into its underlying Reserve Asset for authorized callers. - Supports two types of whitelisted addresses:   uncapped addresses and capped addresses that share a global rate limit. - Enforces both per-transaction and window-based limits for capped   addresses using a linear-decay rate-limiting model. - For each swap this contract:   - Receives a SolvBTC amount from the caller and burns the tokens.   - Pulls the corresponding Reserve Asset from `currencyVault` using     a pre-configured allowance granted by governance.   - Delivers the Reserve Asset to the caller or a designated recipient     address supplied as `to_`.   - Calculates a configurable swap fee and routes that fee amount to     a dedicated fee recipient address. - The contract does not custody Reserve Assets long term and does not   perform pricing or market making; the conversion result is defined   by the SolvBTC ↔ Reserve Asset relationship. - Governance manages whitelist membership, vault configuration, fee and   rate-limit parameters, and can pause execution in emergencies.",
    "errors": {
      "EnforcedPause()": [
        {
          "details": "The operation failed because the contract is paused."
        }
      ],
      "ExpectedPause()": [
        {
          "details": "The operation failed because the contract is not paused."
        }
      ],
      "InvalidInitialization()": [
        {
          "details": "The contract is already initialized."
        }
      ],
      "NotInitializing()": [
        {
          "details": "The contract is not initializing."
        }
      ],
      "ReentrancyGuardReentrantCall()": [
        {
          "details": "Unauthorized reentrant call."
        }
      ]
    },
    "events": {
      "Initialized(uint64)": {
        "details": "Triggered when the contract has been initialized or reinitialized."
      },
      "Paused(address)": {
        "details": "Emitted when the pause is triggered by `account`."
      },
      "Unpaused(address)": {
        "details": "Emitted when the pause is lifted by `account`."
      }
    },
    "kind": "dev",
    "methods": {
      "constructor": {
        "custom:oz-upgrades-unsafe-allow": "constructor"
      },
      "initialize(address,address,address,address,address,address,uint64,bool)": {
        "details": "Initializes the contract.",
        "params": {
          "currencyVault_": "The vault address for paying the underlying reserve asset.",
          "currency_": "The address of the underlying reserve asset.",
          "feeRate_": "The fee rate for each swap transaction, charged in terms of the underlying reserve asset.",
          "feeRecipient_": "The address of the fee recipient.",
          "governor_": "The address of the governor who is used to set business parameters of this contract.",
          "isWhitelistEnabled_": "Identify whether the caller should be whitelisted.",
          "pauseAdmin_": "The address of the pause admin who is used to pause and unpause this contract in emergency.",
          "solvBTC_": "The address of the SolvBTC token."
        }
      },
      "paused()": {
        "details": "Returns true if the contract is paused, and false otherwise."
      },
      "remainingSwapAmount()": {
        "details": "Uses {_amountCanBeSwapped} to apply linear decay to the in-flight      amount based on time elapsed since the last swap.",
        "returns": {
          "_0": "Remaining SolvBTC capacity in the active rate-limit window."
        }
      },
      "setFeeRate(uint64)": {
        "details": "Restricted to the governor. Delegates to {_setFeeRate}, which      validates that the fee is below 100% and emits {SetFeeRate}.",
        "params": {
          "feeRate_": "New fee rate expressed in basis points (bps)."
        }
      },
      "setFeeRecipient(address)": {
        "details": "Restricted to the governor. Delegates to {_setFeeRecipient}.",
        "params": {
          "feeRecipient_": "Address that will receive collected fees."
        }
      },
      "setMaxSingleSwapAmount(uint256)": {
        "details": "Restricted to the governor. Delegates to {_setMaxSingleSwapAmount}.",
        "params": {
          "maxSingleSwapAmount_": "New per-transaction swap limit (can be zero)."
        }
      },
      "setMaxWindowSwapAmount(uint256)": {
        "details": "Restricted to the governor. Delegates to {_setMaxWindowSwapAmount},      which checkpoints existing usage and emits {SetMaxWindowSwapAmount}.",
        "params": {
          "maxWindowSwapAmount_": "New maximum SolvBTC amount that can be swapped in one window."
        }
      },
      "setWhitelistConfig(address,uint64,bool)": {
        "details": "Restricted to the governor. Delegates to {_setWhitelistConfig}.",
        "params": {
          "account_": "Address to be whitelisted or updated.",
          "expiration_": "Timestamp after which the whitelist entry becomes invalid.",
          "isRateLimited_": "True if the account is subject to the global rate limit."
        }
      },
      "setWhitelistEnabled(bool)": {
        "details": "Restricted to the governor. Delegates to {_setWhitelistEnabled}.",
        "params": {
          "isWhitelistEnabled_": "True to enforce whitelist, false to allow all callers."
        }
      },
      "swap(address,uint256,uint64)": {
        "details": "- If whitelist is enabled, the caller must have a valid, non-expired whitelist entry.   Rate limiting is then applied only to accounts flagged as rate-limited;    when whitelist is disabled, the same limits apply to all callers. - When an entry is rate-limited, this function:   - Enforces a per-transaction cap via `maxSingleSwapAmount`.   - Enforces a rolling-window cap via `maxWindowSwapAmount`,     using linear decay computed by {_amountCanBeSwapped}. - Transfers `solvbtcAmount_` of SolvBTC from the caller, burns it,    and pulls the corresponding amount of reserve currency from `currencyVault`. - Applies the configured fee rate and sends the fee portion to `feeRecipient`,    while the net amount is sent to `to_`. - Emits {SolvBTCSwapped} on success.",
        "params": {
          "feeRate_": "The fee rate for each swap transaction.",
          "solvbtcAmount_": "Amount of SolvBTC to swap, denominated in SolvBTC decimals.",
          "to_": "Recipient address that will receive the reserve currency."
        },
        "returns": {
          "currencyAmount_": "Net amount of reserve currency sent to `to_` after fees are deducted."
        }
      },
      "whitelistConfig(address)": {
        "params": {
          "account_": "Address to query."
        },
        "returns": {
          "expiration_": "Expiration timestamp of the whitelist entry.",
          "isRateLimited_": "True if the account is subject to the global rate limit."
        }
      }
    },
    "title": "SolvBTCWhitelistedSwap",
    "version": 1
  },
  "userdoc": {
    "kind": "user",
    "methods": {
      "DEFAULT_WINDOW()": {
        "notice": "Default duration, in seconds, of the rate-limit window. Used to cap the aggregate swap volume for all capped whitelisted addresses. 86400 seconds corresponds to a 24-hour (1 day) rolling window."
      },
      "FEE_RATE_BASE()": {
        "notice": "Denominator used when expressing fees in basis points. A fee rate of 10000 represents 100%, 100 represents 1%, etc. Swap fees are calculated as: `fee = amount * feeRate / FEE_RATE_BASE`."
      },
      "MAX_FEE_RATE()": {
        "notice": "Maximum recommended fee rate, expressed in basis points. A value of 100 corresponds to a 1% upper bound on the swap fee."
      },
      "currency()": {
        "notice": "Return the address of the underlying reserve currency token."
      },
      "currencyVault()": {
        "notice": "Return the address of the vault that funds the reserve currency."
      },
      "feeRate()": {
        "notice": "Return the current swap fee rate in basis points (bps)."
      },
      "feeRecipient()": {
        "notice": "Return the address that receives swap fees."
      },
      "isWhitelistEnabled()": {
        "notice": "Return whether whitelist checks are currently enforced for swaps."
      },
      "rateLimit()": {
        "notice": "Return the current global rate-limit configuration and state."
      },
      "remainingSwapAmount()": {
        "notice": "Return the remaining SolvBTC amount that can be swapped within         the current window for all capped whitelisted addresses."
      },
      "setFeeRate(uint64)": {
        "notice": "Update the swap fee rate."
      },
      "setFeeRecipient(address)": {
        "notice": "Update the address that receives swap fees."
      },
      "setMaxSingleSwapAmount(uint256)": {
        "notice": "Update the maximum amount of SolvBTC that can be swapped         in a single transaction."
      },
      "setMaxWindowSwapAmount(uint256)": {
        "notice": "Update the maximum aggregate swap amount within the default window duration (24h)."
      },
      "setWhitelistConfig(address,uint64,bool)": {
        "notice": "Configure whitelist parameters for a specific account."
      },
      "setWhitelistEnabled(bool)": {
        "notice": "Enable or disable whitelist checks for swaps."
      },
      "solvBTC()": {
        "notice": "Return the address of the SolvBTC token used for swaps."
      },
      "swap(address,uint256,uint64)": {
        "notice": "Swap SolvBTC for the underlying reserve currency."
      },
      "whitelistConfig(address)": {
        "notice": "Return whitelist configuration for a given account."
      }
    },
    "notice": "Execution contract for the SolvBTC Whitelisted Swap model.",
    "version": 1
  },
  "storageLayout": {
    "storage": [
      {
        "astId": 15372,
        "contract": "contracts/SolvBTCWhitelistedSwap.sol:SolvBTCWhitelistedSwap",
        "label": "governor",
        "offset": 0,
        "slot": "0",
        "type": "t_address"
      },
      {
        "astId": 15374,
        "contract": "contracts/SolvBTCWhitelistedSwap.sol:SolvBTCWhitelistedSwap",
        "label": "pendingGovernor",
        "offset": 0,
        "slot": "1",
        "type": "t_address"
      },
      {
        "astId": 15469,
        "contract": "contracts/SolvBTCWhitelistedSwap.sol:SolvBTCWhitelistedSwap",
        "label": "__gap",
        "offset": 0,
        "slot": "2",
        "type": "t_array(t_uint256)48_storage"
      }
    ],
    "types": {
      "t_address": {
        "encoding": "inplace",
        "label": "address",
        "numberOfBytes": "20"
      },
      "t_array(t_uint256)48_storage": {
        "base": "t_uint256",
        "encoding": "inplace",
        "label": "uint256[48]",
        "numberOfBytes": "1536"
      },
      "t_uint256": {
        "encoding": "inplace",
        "label": "uint256",
        "numberOfBytes": "32"
      }
    }
  }
}