{
  "address": "0x53F18d0c383B7a9cC385eE80607a6E83Bc02aE1E",
  "abi": [
    {
      "inputs": [],
      "stateMutability": "nonpayable",
      "type": "constructor"
    },
    {
      "inputs": [
        {
          "internalType": "address",
          "name": "spender",
          "type": "address"
        },
        {
          "internalType": "uint256",
          "name": "allowance",
          "type": "uint256"
        },
        {
          "internalType": "uint256",
          "name": "needed",
          "type": "uint256"
        }
      ],
      "name": "ERC20InsufficientAllowance",
      "type": "error"
    },
    {
      "inputs": [
        {
          "internalType": "address",
          "name": "sender",
          "type": "address"
        },
        {
          "internalType": "uint256",
          "name": "balance",
          "type": "uint256"
        },
        {
          "internalType": "uint256",
          "name": "needed",
          "type": "uint256"
        }
      ],
      "name": "ERC20InsufficientBalance",
      "type": "error"
    },
    {
      "inputs": [
        {
          "internalType": "address",
          "name": "approver",
          "type": "address"
        }
      ],
      "name": "ERC20InvalidApprover",
      "type": "error"
    },
    {
      "inputs": [
        {
          "internalType": "address",
          "name": "receiver",
          "type": "address"
        }
      ],
      "name": "ERC20InvalidReceiver",
      "type": "error"
    },
    {
      "inputs": [
        {
          "internalType": "address",
          "name": "sender",
          "type": "address"
        }
      ],
      "name": "ERC20InvalidSender",
      "type": "error"
    },
    {
      "inputs": [
        {
          "internalType": "address",
          "name": "spender",
          "type": "address"
        }
      ],
      "name": "ERC20InvalidSpender",
      "type": "error"
    },
    {
      "inputs": [],
      "name": "InvalidInitialization",
      "type": "error"
    },
    {
      "inputs": [],
      "name": "NotInitializing",
      "type": "error"
    },
    {
      "inputs": [],
      "name": "ReentrancyGuardReentrantCall",
      "type": "error"
    },
    {
      "anonymous": false,
      "inputs": [
        {
          "indexed": true,
          "internalType": "address",
          "name": "owner",
          "type": "address"
        },
        {
          "indexed": true,
          "internalType": "address",
          "name": "spender",
          "type": "address"
        },
        {
          "indexed": false,
          "internalType": "uint256",
          "name": "value",
          "type": "uint256"
        }
      ],
      "name": "Approval",
      "type": "event"
    },
    {
      "anonymous": false,
      "inputs": [
        {
          "indexed": false,
          "internalType": "uint64",
          "name": "version",
          "type": "uint64"
        }
      ],
      "name": "Initialized",
      "type": "event"
    },
    {
      "anonymous": false,
      "inputs": [
        {
          "indexed": true,
          "internalType": "address",
          "name": "from",
          "type": "address"
        },
        {
          "indexed": true,
          "internalType": "address",
          "name": "to",
          "type": "address"
        },
        {
          "indexed": false,
          "internalType": "uint256",
          "name": "value",
          "type": "uint256"
        }
      ],
      "name": "Transfer",
      "type": "event"
    },
    {
      "inputs": [
        {
          "internalType": "address",
          "name": "owner",
          "type": "address"
        },
        {
          "internalType": "address",
          "name": "spender",
          "type": "address"
        }
      ],
      "name": "allowance",
      "outputs": [
        {
          "internalType": "uint256",
          "name": "",
          "type": "uint256"
        }
      ],
      "stateMutability": "view",
      "type": "function"
    },
    {
      "inputs": [
        {
          "internalType": "address",
          "name": "spender",
          "type": "address"
        },
        {
          "internalType": "uint256",
          "name": "value",
          "type": "uint256"
        }
      ],
      "name": "approve",
      "outputs": [
        {
          "internalType": "bool",
          "name": "",
          "type": "bool"
        }
      ],
      "stateMutability": "nonpayable",
      "type": "function"
    },
    {
      "inputs": [
        {
          "internalType": "address",
          "name": "account",
          "type": "address"
        }
      ],
      "name": "balanceOf",
      "outputs": [
        {
          "internalType": "uint256",
          "name": "",
          "type": "uint256"
        }
      ],
      "stateMutability": "view",
      "type": "function"
    },
    {
      "inputs": [
        {
          "internalType": "uint256",
          "name": "amount_",
          "type": "uint256"
        },
        {
          "internalType": "uint256",
          "name": "sftId_",
          "type": "uint256"
        }
      ],
      "name": "burn",
      "outputs": [
        {
          "internalType": "uint256",
          "name": "toSftId_",
          "type": "uint256"
        }
      ],
      "stateMutability": "nonpayable",
      "type": "function"
    },
    {
      "inputs": [],
      "name": "decimals",
      "outputs": [
        {
          "internalType": "uint8",
          "name": "",
          "type": "uint8"
        }
      ],
      "stateMutability": "view",
      "type": "function"
    },
    {
      "inputs": [
        {
          "internalType": "uint256",
          "name": "value",
          "type": "uint256"
        }
      ],
      "name": "getSharesByValue",
      "outputs": [
        {
          "internalType": "uint256",
          "name": "shares",
          "type": "uint256"
        }
      ],
      "stateMutability": "view",
      "type": "function"
    },
    {
      "inputs": [
        {
          "internalType": "uint256",
          "name": "shares",
          "type": "uint256"
        }
      ],
      "name": "getValueByShares",
      "outputs": [
        {
          "internalType": "uint256",
          "name": "value",
          "type": "uint256"
        }
      ],
      "stateMutability": "view",
      "type": "function"
    },
    {
      "inputs": [],
      "name": "holdingValueSftId",
      "outputs": [
        {
          "internalType": "uint256",
          "name": "",
          "type": "uint256"
        }
      ],
      "stateMutability": "view",
      "type": "function"
    },
    {
      "inputs": [
        {
          "internalType": "string",
          "name": "name_",
          "type": "string"
        },
        {
          "internalType": "string",
          "name": "symbol_",
          "type": "string"
        },
        {
          "internalType": "address",
          "name": "wrappedSftAddress_",
          "type": "address"
        },
        {
          "internalType": "uint256",
          "name": "wrappedSftSlot_",
          "type": "uint256"
        },
        {
          "internalType": "address",
          "name": "navOracle_",
          "type": "address"
        }
      ],
      "name": "initialize",
      "outputs": [],
      "stateMutability": "nonpayable",
      "type": "function"
    },
    {
      "inputs": [
        {
          "internalType": "uint256",
          "name": "amount_",
          "type": "uint256"
        }
      ],
      "name": "layer1Burn",
      "outputs": [],
      "stateMutability": "nonpayable",
      "type": "function"
    },
    {
      "inputs": [
        {
          "internalType": "uint256",
          "name": "amount_",
          "type": "uint256"
        }
      ],
      "name": "layer1Mint",
      "outputs": [],
      "stateMutability": "nonpayable",
      "type": "function"
    },
    {
      "inputs": [],
      "name": "layer1MintTarget",
      "outputs": [
        {
          "internalType": "address",
          "name": "",
          "type": "address"
        }
      ],
      "stateMutability": "pure",
      "type": "function"
    },
    {
      "inputs": [],
      "name": "layer1Minter",
      "outputs": [
        {
          "internalType": "address",
          "name": "",
          "type": "address"
        }
      ],
      "stateMutability": "pure",
      "type": "function"
    },
    {
      "inputs": [
        {
          "internalType": "uint256",
          "name": "sftId_",
          "type": "uint256"
        },
        {
          "internalType": "uint256",
          "name": "amount_",
          "type": "uint256"
        }
      ],
      "name": "mint",
      "outputs": [],
      "stateMutability": "nonpayable",
      "type": "function"
    },
    {
      "inputs": [],
      "name": "name",
      "outputs": [
        {
          "internalType": "string",
          "name": "",
          "type": "string"
        }
      ],
      "stateMutability": "view",
      "type": "function"
    },
    {
      "inputs": [],
      "name": "navOracle",
      "outputs": [
        {
          "internalType": "address",
          "name": "",
          "type": "address"
        }
      ],
      "stateMutability": "view",
      "type": "function"
    },
    {
      "inputs": [
        {
          "internalType": "address",
          "name": "",
          "type": "address"
        },
        {
          "internalType": "uint256",
          "name": "fromSftId_",
          "type": "uint256"
        },
        {
          "internalType": "uint256",
          "name": "sftId_",
          "type": "uint256"
        },
        {
          "internalType": "uint256",
          "name": "value_",
          "type": "uint256"
        },
        {
          "internalType": "bytes",
          "name": "",
          "type": "bytes"
        }
      ],
      "name": "onERC3525Received",
      "outputs": [
        {
          "internalType": "bytes4",
          "name": "",
          "type": "bytes4"
        }
      ],
      "stateMutability": "nonpayable",
      "type": "function"
    },
    {
      "inputs": [
        {
          "internalType": "address",
          "name": "",
          "type": "address"
        },
        {
          "internalType": "address",
          "name": "from_",
          "type": "address"
        },
        {
          "internalType": "uint256",
          "name": "sftId_",
          "type": "uint256"
        },
        {
          "internalType": "bytes",
          "name": "",
          "type": "bytes"
        }
      ],
      "name": "onERC721Received",
      "outputs": [
        {
          "internalType": "bytes4",
          "name": "",
          "type": "bytes4"
        }
      ],
      "stateMutability": "nonpayable",
      "type": "function"
    },
    {
      "inputs": [
        {
          "internalType": "bytes4",
          "name": "interfaceId",
          "type": "bytes4"
        }
      ],
      "name": "supportsInterface",
      "outputs": [
        {
          "internalType": "bool",
          "name": "",
          "type": "bool"
        }
      ],
      "stateMutability": "view",
      "type": "function"
    },
    {
      "inputs": [],
      "name": "symbol",
      "outputs": [
        {
          "internalType": "string",
          "name": "",
          "type": "string"
        }
      ],
      "stateMutability": "view",
      "type": "function"
    },
    {
      "inputs": [],
      "name": "totalSupply",
      "outputs": [
        {
          "internalType": "uint256",
          "name": "",
          "type": "uint256"
        }
      ],
      "stateMutability": "view",
      "type": "function"
    },
    {
      "inputs": [
        {
          "internalType": "address",
          "name": "to",
          "type": "address"
        },
        {
          "internalType": "uint256",
          "name": "value",
          "type": "uint256"
        }
      ],
      "name": "transfer",
      "outputs": [
        {
          "internalType": "bool",
          "name": "",
          "type": "bool"
        }
      ],
      "stateMutability": "nonpayable",
      "type": "function"
    },
    {
      "inputs": [
        {
          "internalType": "address",
          "name": "from",
          "type": "address"
        },
        {
          "internalType": "address",
          "name": "to",
          "type": "address"
        },
        {
          "internalType": "uint256",
          "name": "value",
          "type": "uint256"
        }
      ],
      "name": "transferFrom",
      "outputs": [
        {
          "internalType": "bool",
          "name": "",
          "type": "bool"
        }
      ],
      "stateMutability": "nonpayable",
      "type": "function"
    },
    {
      "inputs": [],
      "name": "underlyingAsset",
      "outputs": [
        {
          "internalType": "address",
          "name": "",
          "type": "address"
        }
      ],
      "stateMutability": "view",
      "type": "function"
    },
    {
      "inputs": [],
      "name": "wrappedSftAddress",
      "outputs": [
        {
          "internalType": "address",
          "name": "",
          "type": "address"
        }
      ],
      "stateMutability": "view",
      "type": "function"
    },
    {
      "inputs": [],
      "name": "wrappedSftSlot",
      "outputs": [
        {
          "internalType": "uint256",
          "name": "",
          "type": "uint256"
        }
      ],
      "stateMutability": "view",
      "type": "function"
    }
  ],
  "transactionHash": "0x43c674911b7c286febdb63b97342639b073c6868e421cb61998c8c215cbbb193",
  "args": [],
  "numDeployments": 1,
  "solcInputHash": "570fa9771a68afcc0e9791bbef5bb9e1",
  "bytecode": "0x60806040523480156200001157600080fd5b506200001c62000022565b620000d6565b7ff0c57e16840df040f15088dc2f81fe391c3923bec73e23a9662efc9c229c6a00805468010000000000000000900460ff1615620000735760405163f92ee8a960e01b815260040160405180910390fd5b80546001600160401b0390811614620000d35780546001600160401b0319166001600160401b0390811782556040519081527fc7f505b2f371ae2175ee4913f4499e1f2633a7b5936321eed1cdaeb6115181d29060200160405180910390a15b50565b61278980620000e66000396000f3fe608060405234801561001057600080fd5b506004361061013d5760003560e01c80629ce20b1461014257806301ffc9a71461017357806306fdde0314610196578063095ea7b3146101ab5780630c3eaf40146101be578063150b7a02146101d357806318160ddd146101e65780631b2ef1ca146101fc57806323b872dd1461020f578063283f00a114610222578063313ce5671461023757806344b32bd11461025157806349d4640d1461025a5780634eb079811461026d57806353efc77e1461027657806370a08231146102895780637158da7c1461029c57806371e26e00146102a457806395d89b41146102b7578063a1dd6a2e146102bf578063a9059cbb146102d2578063abd035a2146102e5578063b390c0ab146102ed578063baecd32614610300578063dd62ed3e14610313578063e31c3a9014610326575b600080fd5b610155610150366004611d7a565b610339565b6040516001600160e01b031990911681526020015b60405180910390f35b610186610181366004611dec565b6105dc565b604051901515815260200161016a565b61019e61062d565b60405161016a9190611e1d565b6101866101b9366004611e6b565b6106ce565b6101d16101cc366004611e97565b6106e6565b005b6101556101e1366004611eb0565b610742565b6101ee6109ca565b60405190815260200161016a565b6101d161020a366004611f22565b6109df565b61018661021d366004611f44565b610d01565b61022a610d25565b60405161016a9190611f85565b61023f610d3d565b60405160ff909116815260200161016a565b6101ee60035481565b60025461022a906001600160a01b031681565b6101ee60015481565b6101d1610284366004611e97565b610dba565b6101ee610297366004611f99565b610e0b565b61022a610e36565b6101ee6102b2366004611e97565b610f24565b61019e611008565b6101d16102cd366004612058565b611025565b6101866102e0366004611e6b565b611286565b61022a611294565b6101ee6102fb366004611f22565b6112ac565b60005461022a906001600160a01b031681565b6101ee6103213660046120ec565b611566565b6101ee610334366004611e97565b6115a2565b600080546001600160a01b0316331461036d5760405162461bcd60e51b815260040161036490612125565b60405180910390fd5b600080546040516331a9108f60e11b8152600481018990526001600160a01b0390911690636352211e90602401602060405180830381865afa1580156103b7573d6000803e3d6000fd5b505050506040513d601f19601f820116820180604052508101906103db9190612166565b9050306001600160a01b038216036103fc5750629ce20b60e01b90506105d2565b6000851161041c5760405162461bcd60e51b815260040161036490612183565b60035460000361055a5760005460405163131f9f3f60e11b8152600481018890526001600160a01b039091169063263f3e7e90602401602060405180830381865afa15801561046f573d6000803e3d6000fd5b505050506040513d601f19601f8201168201806040525081019061049391906121c9565b600154146104b35760405162461bcd60e51b8152600401610364906121e2565b6000546040516331a9108f60e11b8152600481018890526001600160a01b0390911690636352211e90602401602060405180830381865afa1580156104fc573d6000803e3d6000fd5b505050506040513d601f19601f820116820180604052508101906105209190612166565b6001600160a01b0316306001600160a01b0316146105505760405162461bcd60e51b815260040161036490612224565b60038690556105bd565b85600354146105bd5760405162461bcd60e51b815260206004820152602960248201527f53667457726170706564546f6b656e3a206e6f7420686f6c64696e672076616c6044820152681d59481cd99d081a5960ba1b6064820152608401610364565b6105c78186611694565b50629ce20b60e01b90505b9695505050505050565b60006001600160e01b03198216629ce20b60e01b148061060c57506001600160e01b03198216630a85bd0160e11b145b8061062757506001600160e01b031982166301ffc9a760e01b145b92915050565b606060006106396116ca565b905080600301805461064a90612265565b80601f016020809104026020016040519081016040528092919081815260200182805461067690612265565b80156106c35780601f10610698576101008083540402835291602001916106c3565b820191906000526020600020905b8154815290600101906020018083116106a657829003601f168201915b505050505091505090565b6000336106dc8185856116ee565b5060019392505050565b6106ee611700565b6106f6610d25565b6001600160a01b0316336001600160a01b0316146107265760405162461bcd60e51b81526004016103649061229f565b610737610731611294565b82611694565b61073f611736565b50565b600080546001600160a01b0316331461076d5760405162461bcd60e51b815260040161036490612125565b60005460405163131f9f3f60e11b8152600481018690526001600160a01b039091169063263f3e7e90602401602060405180830381865afa1580156107b6573d6000803e3d6000fd5b505050506040513d601f19601f820116820180604052508101906107da91906121c9565b600154146107fa5760405162461bcd60e51b8152600401610364906121e2565b6000546040516331a9108f60e11b8152600481018690526001600160a01b0390911690636352211e90602401602060405180830381865afa158015610843573d6000803e3d6000fd5b505050506040513d601f19601f820116820180604052508101906108679190612166565b6001600160a01b0316306001600160a01b0316146108975760405162461bcd60e51b815260040161036490612224565b306001600160a01b038616036108b55750630a85bd0160e11b6109c1565b60008054604051631398fee160e31b8152600481018790526001600160a01b0390911690639cc7f70890602401602060405180830381865afa1580156108ff573d6000803e3d6000fd5b505050506040513d601f19601f8201168201806040525081019061092391906121c9565b9050600081116109455760405162461bcd60e51b815260040161036490612183565b6003546000036109595760038590556109ab565b600054600354610975916001600160a01b031690879084611747565b600480546001810182556000919091527f8a35acfbc15ff81a39ae7d344fd709f28e8600b4aa8c65c6b64bfe7fe36bd19b018590555b6109b58682611694565b50630a85bd0160e11b90505b95945050505050565b6000806109d56116ca565b6002015492915050565b6109e7611700565b60005460405163131f9f3f60e11b8152600481018490526001600160a01b039091169063263f3e7e90602401602060405180830381865afa158015610a30573d6000803e3d6000fd5b505050506040513d601f19601f82011682018060405250810190610a5491906121c9565b60015414610a745760405162461bcd60e51b8152600401610364906122cb565b6000546040516331a9108f60e11b8152600481018490526001600160a01b0390911690636352211e90602401602060405180830381865afa158015610abd573d6000803e3d6000fd5b505050506040513d601f19601f82011682018060405250810190610ae19190612166565b6001600160a01b0316336001600160a01b031614610b525760405162461bcd60e51b815260206004820152602860248201527f53667457726170706564546f6b656e3a2063616c6c6572206973206e6f742073604482015267333a1037bbb732b960c11b6064820152608401610364565b60008111610bb35760405162461bcd60e51b815260206004820152602860248201527f53667457726170706564546f6b656e3a206d696e7420616d6f756e742063616e60448201526706e6f7420626520360c41b6064820152608401610364565b60008054604051631398fee160e31b8152600481018590526001600160a01b0390911690639cc7f70890602401602060405180830381865afa158015610bfd573d6000803e3d6000fd5b505050506040513d601f19601f82011682018060405250810190610c2191906121c9565b9050808203610c4657600054610c41906001600160a01b031633856117b8565b610cf4565b80821015610c9357600354600003610c7757600054610c6f906001600160a01b03168484611822565b600355610cf4565b600054600354610c41916001600160a01b031690859085611747565b60405162461bcd60e51b815260206004820152603060248201527f53667457726170706564546f6b656e3a206d696e7420616d6f756e742065786360448201526f65656473207366742062616c616e636560801b6064820152608401610364565b50610cfd611736565b5050565b600033610d0f85828561189a565b610d1a8585856118ed565b506001949350505050565b73da39c7a3a5eda1604c34862ee4cd93806347348e90565b60008060009054906101000a90046001600160a01b03166001600160a01b0316633e7e86696040518163ffffffff1660e01b8152600401602060405180830381865afa158015610d91573d6000803e3d6000fd5b505050506040513d601f19601f82011682018060405250810190610db5919061230f565b905090565b610dc2611700565b610dca610d25565b6001600160a01b0316336001600160a01b031614610dfa5760405162461bcd60e51b81526004016103649061229f565b610737610e05611294565b8261194c565b600080610e166116ca565b6001600160a01b0390931660009081526020939093525050604090205490565b60008054604080516308ba344760e41b8152905183926001600160a01b031691638ba344709160048083019260209291908290030181865afa158015610e80573d6000803e3d6000fd5b505050506040513d601f19601f82011682018060405250810190610ea49190612166565b90506000816001600160a01b03166394f7e23e6001546040518263ffffffff1660e01b8152600401610ed891815260200190565b60e060405180830381865afa158015610ef5573d6000803e3d6000fd5b505050506040513d601f19601f82011682018060405250810190610f19919061235e565b602001519392505050565b600080546001546040518392610f48926001600160a01b0390911691602001612411565b60408051808303601f190181529082905280516020909101206002546395b4c46760e01b8352600483018290524260248401529092506000916001600160a01b03909116906395b4c467906044016040805180830381865afa158015610fb2573d6000803e3d6000fd5b505050506040513d601f19601f82011682018060405250810190610fd6919061242a565b509050610fe1610d3d565b610fec90600a612548565b610ff68286612557565b611000919061256e565b949350505050565b606060006110146116ca565b905080600401805461064a90612265565b600061102f611982565b805490915060ff600160401b82041615906001600160401b03166000811580156110565750825b90506000826001600160401b031660011480156110725750303b155b905081158015611080575080155b1561109e5760405163f92ee8a960e01b815260040160405180910390fd5b84546001600160401b031916600117855583156110c757845460ff60401b1916600160401b1785555b6001600160a01b0388166111295760405162461bcd60e51b8152602060048201526024808201527f53667457726170706564546f6b656e3a20696e76616c696420736674206164646044820152637265737360e01b6064820152608401610364565b866000036111835760405162461bcd60e51b815260206004820152602160248201527f53667457726170706564546f6b656e3a20696e76616c69642073667420736c6f6044820152601d60fa1b6064820152608401610364565b6001600160a01b0386166111ed5760405162461bcd60e51b815260206004820152602b60248201527f53667457726170706564546f6b656e3a20696e76616c6964206e6176206f726160448201526a636c65206164647265737360a81b6064820152608401610364565b6111f78a8a6119a6565b6111ff6119b8565b600080546001600160a01b03808b166001600160a01b03199283161790925560018990556002805492891692909116919091179055831561127a57845460ff60401b19168555604051600181527fc7f505b2f371ae2175ee4913f4499e1f2633a7b5936321eed1cdaeb6115181d29060200160405180910390a15b50505050505050505050565b6000336106dc8185856118ed565b739470c613622cec23c55ea7c44f74adfb920b1cdc90565b60006112b6611700565b600083116113175760405162461bcd60e51b815260206004820152602860248201527f53667457726170706564546f6b656e3a206275726e20616d6f756e742063616e60448201526706e6f7420626520360c41b6064820152608401610364565b611321338461194c565b816000036113e6576004546000036113555760005460035461134e916001600160a01b03169033866119ca565b905061155e565b6004805461136590600190612590565b81548110611375576113756125a3565b906000526020600020015490506004805480611393576113936125b9565b600190038181906000526020600020016000905590556113ca60008054906101000a90046001600160a01b03166003548386611747565b6000546113e1906001600160a01b03163383611a42565b61155e565b60005460405163131f9f3f60e11b8152600481018490526001600160a01b039091169063263f3e7e90602401602060405180830381865afa15801561142f573d6000803e3d6000fd5b505050506040513d601f19601f8201168201806040525081019061145391906121c9565b600154146114735760405162461bcd60e51b8152600401610364906122cb565b6000546040516331a9108f60e11b8152600481018490526001600160a01b0390911690636352211e90602401602060405180830381865afa1580156114bc573d6000803e3d6000fd5b505050506040513d601f19601f820116820180604052508101906114e09190612166565b6001600160a01b0316336001600160a01b0316146115405760405162461bcd60e51b815260206004820152601e60248201527f53667457726170706564546f6b656e3a206e6f7420736674206f776e657200006044820152606401610364565b60005460035461155b916001600160a01b0316908486611747565b50805b610627611736565b6000806115716116ca565b6001600160a01b03948516600090815260019190910160209081526040808320959096168252939093525050205490565b6000805460015460405183926115c6926001600160a01b0390911691602001612411565b60408051808303601f190181529082905280516020909101206002546395b4c46760e01b8352600483018290524260248401529092506000916001600160a01b03909116906395b4c467906044016040805180830381865afa158015611630573d6000803e3d6000fd5b505050506040513d601f19601f82011682018060405250810190611654919061242a565b509050801561168a5780611666610d3d565b61167190600a612548565b61167b9086612557565b611685919061256e565b611000565b6000949350505050565b6001600160a01b0382166116be57600060405163ec442f0560e01b81526004016103649190611f85565b610cfd60008383611a74565b7f52c63247e1f47db19d5ce0460030c497f067ca4cebf71ba98eeadabe20bace0090565b6116fb8383836001611b9c565b505050565b600061170a611c81565b80549091506001190161173057604051633ee5aeb560e01b815260040160405180910390fd5b60029055565b6000611740611c81565b6001905550565b604051630310ed7f60e41b815260048101849052602481018390526044810182905284906001600160a01b0382169063310ed7f090606401600060405180830381600087803b15801561179957600080fd5b505af11580156117ad573d6000803e3d6000fd5b505050505050505050565b604051632142170760e11b815283906001600160a01b038216906342842e0e906117ea908690309087906004016125cf565b600060405180830381600087803b15801561180457600080fd5b505af1158015611818573d6000803e3d6000fd5b5050505050505050565b6040516307a42e0160e11b815260009084906001600160a01b03821690630f485c0290611857908790309088906004016125f3565b6020604051808303816000875af1158015611876573d6000803e3d6000fd5b505050506040513d601f19601f820116820180604052508101906109c191906121c9565b60006118a68484611566565b905060001981146118e757818110156118d857828183604051637dc7a0d960e11b815260040161036493929190612612565b6118e784848484036000611b9c565b50505050565b6001600160a01b038316611917576000604051634b637e8f60e11b81526004016103649190611f85565b6001600160a01b03821661194157600060405163ec442f0560e01b81526004016103649190611f85565b6116fb838383611a74565b6001600160a01b038216611976576000604051634b637e8f60e11b81526004016103649190611f85565b610cfd82600083611a74565b7ff0c57e16840df040f15088dc2f81fe391c3923bec73e23a9662efc9c229c6a0090565b6119ae611ca5565b610cfd8282611cca565b6119c0611ca5565b6119c8611cfb565b565b6040516307a42e0160e11b815260009085906001600160a01b03821690630f485c02906119ff908890889088906004016125f3565b6020604051808303816000875af1158015611a1e573d6000803e3d6000fd5b505050506040513d601f19601f820116820180604052508101906105d291906121c9565b6040516323b872dd60e01b815283906001600160a01b038216906323b872dd906117ea903090879087906004016125cf565b6000611a7e6116ca565b90506001600160a01b038416611aad5781816002016000828254611aa29190612633565b90915550611b0c9050565b6001600160a01b03841660009081526020829052604090205482811015611aed5784818460405163391434e360e21b815260040161036493929190612612565b6001600160a01b03851660009081526020839052604090209083900390555b6001600160a01b038316611b2a576002810180548390039055611b49565b6001600160a01b03831660009081526020829052604090208054830190555b826001600160a01b0316846001600160a01b03167fddf252ad1be2c89b69c2b068fc378daa952ba7f163c4a11628f55a4df523b3ef84604051611b8e91815260200190565b60405180910390a350505050565b6000611ba66116ca565b90506001600160a01b038516611bd257600060405163e602df0560e01b81526004016103649190611f85565b6001600160a01b038416611bfc576000604051634a1406b160e11b81526004016103649190611f85565b6001600160a01b03808616600090815260018301602090815260408083209388168352929052208390558115611c7a57836001600160a01b0316856001600160a01b03167f8c5be1e5ebec7d5bd14f71427d1e84f3dd0314c0f7b2291e5b200ac8c7c3b92585604051611c7191815260200190565b60405180910390a35b5050505050565b7f9b779b17422d0df92223018b32b4d1fa46e071723d6817e2486d003becc55f0090565b611cad611d03565b6119c857604051631afcd79f60e31b815260040160405180910390fd5b611cd2611ca5565b6000611cdc6116ca565b905060038101611cec8482612694565b50600481016118e78382612694565b611736611ca5565b6000611d0d611982565b54600160401b900460ff16919050565b6001600160a01b038116811461073f57600080fd5b60008083601f840112611d4457600080fd5b5081356001600160401b03811115611d5b57600080fd5b602083019150836020828501011115611d7357600080fd5b9250929050565b60008060008060008060a08789031215611d9357600080fd5b8635611d9e81611d1d565b955060208701359450604087013593506060870135925060808701356001600160401b03811115611dce57600080fd5b611dda89828a01611d32565b979a9699509497509295939492505050565b600060208284031215611dfe57600080fd5b81356001600160e01b031981168114611e1657600080fd5b9392505050565b600060208083528351808285015260005b81811015611e4a57858101830151858201604001528201611e2e565b506000604082860101526040601f19601f8301168501019250505092915050565b60008060408385031215611e7e57600080fd5b8235611e8981611d1d565b946020939093013593505050565b600060208284031215611ea957600080fd5b5035919050565b600080600080600060808688031215611ec857600080fd5b8535611ed381611d1d565b94506020860135611ee381611d1d565b93506040860135925060608601356001600160401b03811115611f0557600080fd5b611f1188828901611d32565b969995985093965092949392505050565b60008060408385031215611f3557600080fd5b50508035926020909101359150565b600080600060608486031215611f5957600080fd5b8335611f6481611d1d565b92506020840135611f7481611d1d565b929592945050506040919091013590565b6001600160a01b0391909116815260200190565b600060208284031215611fab57600080fd5b8135611e1681611d1d565b634e487b7160e01b600052604160045260246000fd5b600082601f830112611fdd57600080fd5b81356001600160401b0380821115611ff757611ff7611fb6565b604051601f8301601f19908116603f0116810190828211818310171561201f5761201f611fb6565b8160405283815286602085880101111561203857600080fd5b836020870160208301376000602085830101528094505050505092915050565b600080600080600060a0868803121561207057600080fd5b85356001600160401b038082111561208757600080fd5b61209389838a01611fcc565b965060208801359150808211156120a957600080fd5b506120b688828901611fcc565b94505060408601356120c781611d1d565b92506060860135915060808601356120de81611d1d565b809150509295509295909350565b600080604083850312156120ff57600080fd5b823561210a81611d1d565b9150602083013561211a81611d1d565b809150509250929050565b60208082526021908201527f53667457726170706564546f6b656e3a206f6e6c7920777261707065642073666040820152601d60fa1b606082015260800190565b60006020828403121561217857600080fd5b8151611e1681611d1d565b60208082526026908201527f53667457726170706564546f6b656e3a206d696e74207a65726f206e6f7420616040820152651b1b1bddd95960d21b606082015260800190565b6000602082840312156121db57600080fd5b5051919050565b60208082526022908201527f53667457726170706564546f6b656e3a20756e72656365697661626c6520736c6040820152611bdd60f21b606082015260800190565b60208082526021908201527f53667457726170706564546f6b656e3a206e6f74206f776e65642073667420696040820152601960fa1b606082015260800190565b600181811c9082168061227957607f821691505b60208210810361229957634e487b7160e01b600052602260045260246000fd5b50919050565b60208082526012908201527137b7363c903630bcb2b9189036b4b73a32b960711b604082015260600190565b60208082526024908201527f53667457726170706564546f6b656e3a20736c6f7420646f6573206e6f74206d6040820152630c2e8c6d60e31b606082015260800190565b60006020828403121561232157600080fd5b815160ff81168114611e1657600080fd5b80516001600160401b038116811461234957600080fd5b919050565b8051801515811461234957600080fd5b600060e0828403121561237057600080fd5b60405160e081016001600160401b038111828210171561239257612392611fb6565b60405282516123a081611d1d565b815260208301516123b081611d1d565b60208201526123c160408401612332565b60408201526123d260608401612332565b60608201526123e360808401612332565b60808201526123f460a0840161234e565b60a082015261240560c0840161234e565b60c08201529392505050565b6001600160a01b03929092168252602082015260400190565b6000806040838503121561243d57600080fd5b505080516020909101519092909150565b634e487b7160e01b600052601160045260246000fd5b600181815b8085111561249f5781600019048211156124855761248561244e565b8085161561249257918102915b93841c9390800290612469565b509250929050565b6000826124b657506001610627565b816124c357506000610627565b81600181146124d957600281146124e3576124ff565b6001915050610627565b60ff8411156124f4576124f461244e565b50506001821b610627565b5060208310610133831016604e8410600b8410161715612522575081810a610627565b61252c8383612464565b80600019048211156125405761254061244e565b029392505050565b6000611e1660ff8416836124a7565b80820281158282048414176106275761062761244e565b60008261258b57634e487b7160e01b600052601260045260246000fd5b500490565b818103818111156106275761062761244e565b634e487b7160e01b600052603260045260246000fd5b634e487b7160e01b600052603160045260246000fd5b6001600160a01b039384168152919092166020820152604081019190915260600190565b9283526001600160a01b03919091166020830152604082015260600190565b6001600160a01b039390931683526020830191909152604082015260600190565b808201808211156106275761062761244e565b601f8211156116fb57600081815260208120601f850160051c8101602086101561266d5750805b601f850160051c820191505b8181101561268c57828155600101612679565b505050505050565b81516001600160401b038111156126ad576126ad611fb6565b6126c1816126bb8454612265565b84612646565b602080601f8311600181146126f657600084156126de5750858301515b600019600386901b1c1916600185901b17855561268c565b600085815260208120601f198616915b8281101561272557888601518255948401946001909101908401612706565b50858210156127435787850151600019600388901b60f8161c191681555b5050505050600190811b0190555056fea2646970667358221220b7a3187026c4b7cd962c2c7d7c01e9f452e92944a6590302e22cf8b8f0723eeb64736f6c63430008140033",
  "devdoc": {
    "errors": {
      "ERC20InsufficientAllowance(address,uint256,uint256)": [
        {
          "details": "Indicates a failure with the `spender`s `allowance`. Used in transfers.",
          "params": {
            "allowance": "Amount of tokens a `spender` is allowed to operate with.",
            "needed": "Minimum amount required to perform a transfer.",
            "spender": "Address that may be allowed to operate on tokens without being their owner."
          }
        }
      ],
      "ERC20InsufficientBalance(address,uint256,uint256)": [
        {
          "details": "Indicates an error related to the current `balance` of a `sender`. Used in transfers.",
          "params": {
            "balance": "Current balance for the interacting account.",
            "needed": "Minimum amount required to perform a transfer.",
            "sender": "Address whose tokens are being transferred."
          }
        }
      ],
      "ERC20InvalidApprover(address)": [
        {
          "details": "Indicates a failure with the `approver` of a token to be approved. Used in approvals.",
          "params": {
            "approver": "Address initiating an approval operation."
          }
        }
      ],
      "ERC20InvalidReceiver(address)": [
        {
          "details": "Indicates a failure with the token `receiver`. Used in transfers.",
          "params": {
            "receiver": "Address to which tokens are being transferred."
          }
        }
      ],
      "ERC20InvalidSender(address)": [
        {
          "details": "Indicates a failure with the token `sender`. Used in transfers.",
          "params": {
            "sender": "Address whose tokens are being transferred."
          }
        }
      ],
      "ERC20InvalidSpender(address)": [
        {
          "details": "Indicates a failure with the `spender` to be approved. Used in approvals.",
          "params": {
            "spender": "Address that may be allowed to operate on tokens without being their owner."
          }
        }
      ],
      "InvalidInitialization()": [
        {
          "details": "The contract is already initialized."
        }
      ],
      "NotInitializing()": [
        {
          "details": "The contract is not initializing."
        }
      ],
      "ReentrancyGuardReentrantCall()": [
        {
          "details": "Unauthorized reentrant call."
        }
      ]
    },
    "events": {
      "Approval(address,address,uint256)": {
        "details": "Emitted when the allowance of a `spender` for an `owner` is set by a call to {approve}. `value` is the new allowance."
      },
      "Initialized(uint64)": {
        "details": "Triggered when the contract has been initialized or reinitialized."
      },
      "Transfer(address,address,uint256)": {
        "details": "Emitted when `value` tokens are moved from one account (`from`) to another (`to`). Note that `value` may be zero."
      }
    },
    "kind": "dev",
    "methods": {
      "allowance(address,address)": {
        "details": "See {IERC20-allowance}."
      },
      "approve(address,uint256)": {
        "details": "See {IERC20-approve}. NOTE: If `value` is the maximum `uint256`, the allowance is not updated on `transferFrom`. This is semantically equivalent to an infinite approval. Requirements: - `spender` cannot be the zero address."
      },
      "balanceOf(address)": {
        "details": "See {IERC20-balanceOf}."
      },
      "constructor": {
        "custom:oz-upgrades-unsafe-allow": "constructor"
      },
      "decimals()": {
        "details": "Returns the number of decimals used to get its user representation. For example, if `decimals` equals `2`, a balance of `505` tokens should be displayed to a user as `5.05` (`505 / 10 ** 2`). Tokens usually opt for a value of 18, imitating the relationship between Ether and Wei. This is the default value returned by this function, unless it's overridden. NOTE: This information is only used for _display_ purposes: it in no way affects any of the arithmetic of the contract, including {IERC20-balanceOf} and {IERC20-transfer}."
      },
      "name()": {
        "details": "Returns the name of the token."
      },
      "supportsInterface(bytes4)": {
        "details": "Returns true if this contract implements the interface defined by `interfaceId`. See the corresponding https://eips.ethereum.org/EIPS/eip-165#how-interfaces-are-identified[EIP section] to learn more about how these ids are created. This function call must use less than 30 000 gas."
      },
      "symbol()": {
        "details": "Returns the symbol of the token, usually a shorter version of the name."
      },
      "totalSupply()": {
        "details": "See {IERC20-totalSupply}."
      },
      "transfer(address,uint256)": {
        "details": "See {IERC20-transfer}. Requirements: - `to` cannot be the zero address. - the caller must have a balance of at least `value`."
      },
      "transferFrom(address,address,uint256)": {
        "details": "See {IERC20-transferFrom}. Emits an {Approval} event indicating the updated allowance. This is not required by the EIP. See the note at the beginning of {ERC20}. NOTE: Does not update the allowance if the current allowance is the maximum `uint256`. Requirements: - `from` and `to` cannot be the zero address. - `from` must have a balance of at least `value`. - the caller must have allowance for ``from``'s tokens of at least `value`."
      }
    },
    "version": 1
  },
  "userdoc": {
    "kind": "user",
    "methods": {
      "getSharesByValue(uint256)": {
        "notice": "Get amount of shares for a given amount of underlying asset."
      },
      "getValueByShares(uint256)": {
        "notice": "Get amount of underlying asset for a given amount of shares."
      }
    },
    "version": 1
  },
  "storageLayout": {
    "storage": [
      {
        "astId": 3821,
        "contract": "contracts/SftWrappedToken.sol:SftWrappedToken",
        "label": "wrappedSftAddress",
        "offset": 0,
        "slot": "0",
        "type": "t_address"
      },
      {
        "astId": 3823,
        "contract": "contracts/SftWrappedToken.sol:SftWrappedToken",
        "label": "wrappedSftSlot",
        "offset": 0,
        "slot": "1",
        "type": "t_uint256"
      },
      {
        "astId": 3825,
        "contract": "contracts/SftWrappedToken.sol:SftWrappedToken",
        "label": "navOracle",
        "offset": 0,
        "slot": "2",
        "type": "t_address"
      },
      {
        "astId": 3827,
        "contract": "contracts/SftWrappedToken.sol:SftWrappedToken",
        "label": "holdingValueSftId",
        "offset": 0,
        "slot": "3",
        "type": "t_uint256"
      },
      {
        "astId": 3830,
        "contract": "contracts/SftWrappedToken.sol:SftWrappedToken",
        "label": "_holdingEmptySftIds",
        "offset": 0,
        "slot": "4",
        "type": "t_array(t_uint256)dyn_storage"
      }
    ],
    "types": {
      "t_address": {
        "encoding": "inplace",
        "label": "address",
        "numberOfBytes": "20"
      },
      "t_array(t_uint256)dyn_storage": {
        "base": "t_uint256",
        "encoding": "dynamic_array",
        "label": "uint256[]",
        "numberOfBytes": "32"
      },
      "t_uint256": {
        "encoding": "inplace",
        "label": "uint256",
        "numberOfBytes": "32"
      }
    }
  }
}